:100000000C942D050C947F050C947F050C947F05B2
:100010000C947F050C947F050C947F050C947F0550
:100020000C947F050C947F050C941C1C0C94581B9D
:100030000C9444200C947F050C947F050C947F0550
:100040000C947F050C947F050C947F050C947F0520
:100050000C947F050C94871F0C947F050C947F05EE
:100060000C947F050C947F050C947F050C947F0500
:100070000C947F050C947F050C947F050C947F05F0
:100080000C947F050C947F050C947F050C947F05E0
:100090000C947F050C947F050C947F050C947F05D0
:1000A0000C947F050C947F050C947F058B0A8E0AB7
:1000B000AA0AB70ABF0ADF0A720B720B720B720B25
:1000C000720BE20AE40AE90A0D0B2E0B310B340B1A
:1000D000550B65106510A010A010FA10181122120F
:1000E000221223119711A811A8116C1993193A1B08
:1000F00093193A1BDF19021A3A1BF71A071B152826
:100100001528282828281E2828282828282815289F
:100110001528232828282828232841545A004154E8
:100120002B424C45504F5745524C4556454C3D2D62
:1001300031320041542B424C45484944454E3D31F3
:100140000041542B4741504445564E414D453D31A9
:1001500030626C656F6C65646875620041542B4752
:100160004150494E54455256414C533D31302C3349
:10017000302C2C004154453D300000DA0281FFD97B
:10018000F1DB20A4A62EAF00A0C000A1C800AED510
:1001900080A81FD300408D14200000AE74015C01C4
:1001A000410133011E011A0141542B47415047457B
:1001B00054434F4E4E0041542B4556454E54454EE8
:1001C00041424C453D3078320041542B4556454E16
:1001D00054454E41424C453D307831008081828308
:1001E0008485868788898A8B8C8D8E8F9091929357
:1001F00094A0A1A2A3A4A5A6A7A8A9AAABACADAEA2
:10020000AFB0B1B2B3B4C0C1C2C3C4C5C6C7C8C918
:10021000CACBCCCDCECFD0D1D2D3D40000000000F9
:1002200000000000000000000000000000000000CE
:1002300000000000000000000000000000000000BE
:100240007E0F00D4FFFFFFC7000000780000000011
:10025000000000002A2B2800000000000000000021
:100260000000000000000029000000002C1E3420C7
:10027000212224342627252E362D3738271E1F20ED
:100280002122232425263333362E37381F04050632
:100290000708090A0B0C0D0E0F1011121314151676
:1002A0001718191A1B1C1D2F3130232D3504050674
:1002B0000708090A0B0C0D0E0F1011121314151656
:1002C0001718191A1B1C1D2F3130354C0501090256
:1002D000A10185020901A1000509190129081500DC
:1002E0002501950875018102050109300931158143
:1002F000257F95027508810609381581257F9501AE
:1003000075088106050C0A38021581257F9501754F
:10031000088106C0C005010980A101850319012AD1
:10032000B700150126B700950175108100C0050CB6
:100330000901A101850419012AA002150126A002C4
:10034000950175108100C00660FF0961A101096275
:10035000150026FF00952075088102096315002607
:10036000FF00952075089102C005010906A101054D
:100370000719E029E7150025019508750181029507
:1003800001750881010507190029FF150026FF00E6
:10039000950675088100050819012905950575015F
:1003A0009102950175039101C009025B00030100F0
:1003B000A0FA090400000103010100092111010054
:1003C000012240000705810308000A090401000218
:1003D000030000000921110100012222000705820B
:1003E00003200001070503032000010904020001A6
:1003F00003000000092111010001227B0007058490
:100400000320000A1201000200000008887C997C89
:100410000100010200011A033100300062006C008B
:1004200065006F006C006500640068007500620084
:100430000000220368006100690065007200770017
:1004400061006E00670077006500690032003000CF
:10045000300035000000040309044B0000000000D8
:100460005F00600001515C005D005E0059005A00B1
:100470005B00530000000000C25CC35CD25CC75C40
:10048000C85CC55CC95CCA5CCB5C00AF41542B4204
:100490004C454849444D4F555345425554544F4E91
:1004A0003D0041542B424C454849444D4F5553451E
:1004B0004D4F56453D25642C25642C25642C256420
:1004C0000041542B424C45484944434F4E54524FEF
:1004D0004C4B45593D3078253034780041542B42FF
:1004E0004C454B4559424F415244434F44453D25AD
:1004F0003032782D30302D253032782D253032783D
:100500002D253032782D253032782D253032782D3A
:1005100025303278004F4B000000000000003E5BA9
:100520004F5B3E003E6B4F6B3E001C3E7C3E1C0012
:10053000183C7E3C18001C577D571C001C5E7F5EDB
:100540001C0000183C180000FFE7C3E7FF0000187C
:1005500024180000FFE7DBE7FF0030483A060E00F2
:10056000262979292600407F05050700407F0525BB
:100570003F005A3CE73C5A007F3E1C1C0800081C08
:100580001C3E7F0014227F2214005F5F005F5F002B
:1005900006097F017F00006689956A0060606060DF
:1005A000600094A2FFA2940008047E0408001020BA
:1005B0007E20100008082A1C0800081C2A080800D1
:1005C0001E10101010000C1E0C1E0C0030383E388F
:1005D0003000060E3E0E0600000000000000000085
:1005E0005F000000000700070000147F147F140064
:1005F000242A7F2A120023130864620036495620F9
:100600005000000807030000001C224100000041C8
:10061000221C00002A1C7F1C2A0008083E08080033
:1006200000807030000008080808080000006060C2
:1006300000002010080402003E5149453E000042DF
:100640007F4000007249494946002141494D33002D
:100650001814127F10002745454539003C4A494986
:100660003100412111090700364949493600464900
:1006700049291E0000001400000000403400000062
:100680000008142241001414141414000041221410
:1006900008000201590906003E415D594E007C12D6
:1006A00011127C007F49494936003E4141412200F8
:1006B0007F4141413E007F49494941007F09090985
:1006C00001003E41415173007F0808087F0000414E
:1006D0007F4100002040413F01007F08142241007B
:1006E0007F40404040007F021C027F007F040810D2
:1006F0007F003E4141413E007F09090906003E411D
:1007000051215E007F0919294600264949493200D6
:1007100003017F0103003F4040403F001F20402075
:100720001F003F4038403F00631408146300030477
:10073000780403006159494D4300007F4141410065
:10074000020408102000004141417F000402010220
:1007500004004040404040000003070800002054CF
:10076000547840007F2844443800384444442800EA
:10077000384444287F0038545454180000087E0937
:1007800002001824241C78007F0804047800004428
:100790007D4000002040403D00007F1028440000C4
:1007A00000417F4000007C04780478007C08040449
:1007B00078003844444438007C1824241800182455
:1007C00024187C007C080404080048545454240075
:1007D00004043F4424003C4040207C001C20402076
:1007E0001C003C4030403C004428102844004C9001
:1007F00090907C004464544C440000083641000052
:1008000000007700000000413608000002010204E9
:1008100002003C2623263C0000000000000000F8F7
:10082000F858585EDA5A5B59DB5A5B58D858585812
:10083000D8585858D8585858D8585858D858587818
:10084000F8F8F8787878F800000000000000000060
:100850000000000000000000000000000000000098
:100860000000000000000000000000000000000088
:100870000000000000000000000000000000000078
:1008800000000000000000000000004428FF5A247F
:100890000000000000000000000000000000000058
:1008A0000000000000000000000000000000000048
:1008B0000000000000000000000000000000000038
:1008C0000000000000000000000000000000000028
:1008D000000000000000000000000000000000FF19
:1008E000FF445544FF445544FF445544FF44554498
:1008F000FF445544FF445544FF445544FF44554488
:10090000FFFFFFC4D5C4FF0000FE2161A11E00FE51
:10091000012121EF00FF111111FE00000000000075
:10092000FF111111FE00FF0000000000FF00000099
:10093000FF00FF11111101000101FF010100FF0182
:1009400001FF00FF0101FF000101FF010100FF2085
:100950002020FF0000000000000000000000000058
:100960000000000000000000000000000000000087
:100970000000000000000000000000000000000077
:100980000000000000000000000000000000000067
:100990000000000000000000000000000000007FD8
:1009A0007F4455447F4455545754555457545554D7
:1009B000575455545754457C4754457C7F7C455487
:1009C00057505E5057477F000003000000030001AE
:1009D0000202020300030202020100000000000004
:1009E00003020202010003020202020003020202E9
:1009F00003000302020202000000030000000302E1
:100A0000020300030202030000302B7C2040037C21
:100A1000447C030000000000000000000000000013
:100A200000000000000000000000000000000000C6
:100A300000000000000000000000000000000000B6
:100A400000000000000000000000000000000000A6
:100A50000000000000000000762411241FBECFEF2C
:100A6000DAE0DEBFCDBF04B603FE27C08091EE05FD
:100A70009091EF05A091F005B091F1058730904B72
:100A8000A740B04BD1F41092EE051092EF051092F2
:100A9000F0051092F10514BE84B7877F84BF0FB6AE
:100AA000F894A8958091600088618093600010920E
:100AB00060000FBEE0E0F8E3099525E0AAE7B1E0A9
:100AC00001C01D92AE3EB207E1F711E0A0E0B1E037
:100AD000E0E1FCE502C005900D92AA37B107D9F715
:100AE00015E0CDE2D5E004C02197FE010E940C2B59
:100AF000CC32D107C9F70E9481050C94062E0C94C4
:100B00000000CF93DF93CDB7DEB7C059D1090FB640
:100B1000F894DEBF0FBECDBF84B7877F84BF0FB60A
:100B2000F894A8958091600088618093600010928D
:100B300060000FBE90E080E80FB6F89480936100EB
:100B4000909361000FBE85B7806885BF85B78068C8
:100B500085BF88E892E190937B0180937A010E949F
:100B60009C1B0E94BB1B8091E20084608093E2008A
:100B70007894809111028823A1F01091E9001F70F0
:100B80009091EC00892F817090FD80E8182B1092D5
:100B9000E9008091E80083FD0E9486181F70109381
:100BA000E90082E084BD93E095BD9DE797BD809309
:100BB0006E000E94F821811102C00E94E92186E99D
:100BC0000E94CD1287E90E94CD1285E30E94CD12CA
:100BD00006E111E08AE1E82E81E0F82ED8018D913E
:100BE0008D018F3F11F00E94CD12E016F106B1F792
:100BF00010927E011092AD0110927F011092AE0111
:100C0000109280011092AF01109281011092B001F8
:100C100080E090E00E947B2A893E9E4F21F40E9452
:100C2000F821811102C00E948F1482E090E00E949E
:100C3000732A8093A8010E947E1490937D01809373
:100C40007C010E948717EFE1FEE43197F1F700C0C5
:100C500000000E9487178091AD0180FF08C06FEFF0
:100C60007FEF80E090E00E949F2A0E94761F83E041
:100C700090E00E94732A0E94FC270E947712109233
:100C8000A50180E88093DD030E9408296DE070E0F3
:100C90008DE891E00E940624892B09F043C08091E1
:100CA000A50163E070E081FD3AC08AE891E00E940E
:100CB0000624892BB9F56DE070E08AE791E00E9487
:100CC0000624892B79F50E94BC1FDC01CB01805AD8
:100CD0009541AF4FBF4F8093200290932102A09384
:100CE0002202B0932302E0EEF3E080E092E0DF0125
:100CF0009C011D9221503040E1F7F093E705E0930D
:100D0000E6058FEF9FEF9093DF038093DE0381E092
:100D100080932502809324021092A60103C087E8E5
:100D200091E0C5CF3F98479A87988F9A86B190E017
:100D3000880F892F881F990B2FB130E0220F232FA6
:100D4000221F330B232B11F022E001C020E0822B65
:100D50008093840180E091E090932C0280932B0299
:100D600044244394512CBE016F5F7F4F7B010E944E
:100D70008717A82E81110E94BC1FADEAB1E0E9EAF5
:100D8000F1E000E010E0302F2D919191922709F4CD
:100D90005FC080E0DD24D394492F4D2109F453C076
:100DA000CF57DF4F8883C158D040CE57DF4F3883AD
:100DB000C258D0402D2181E009F480E0CD57DF4FAB
:100DC0008883C358D0400E94C81F8160782FCC57B9
:100DD000DF4F99838883C458D040CF57DF4F488175
:100DE000C158D040CE57DF4F5881C258D040CD5760
:100DF000DF4F6881C358D040CB57DF4F8881C5583B
:100E0000D0400E94050CF801E755FE4F8081D8269E
:100E1000D08280918401E82FEE0FEE0FE0938401E1
:100E200046B150E0440F452F441F550B2FB130E021
:100E3000C901880F892F881F990B009709F43FC0BB
:100E400082E090E03CC08F5FDD0C833009F0A4CFDE
:100E50000F5F1F4F0430110509F095CF8FEFCA5770
:100E6000DF4F8883C658D040C957DF4F8883C758A3
:100E7000D040C857DF4F1882C858D0400E94C81FC2
:100E80008160782FC757DF4F99838883C958D04036
:100E9000CA57DF4F4881C658D040C957DF4F5881E5
:100EA000C758D040C857DF4F6881C858D040C65790
:100EB000DF4F8881CA58D0400E94050CAACF842BEE
:100EC000952B8E2B809384018F70E82FF0E0E65EE7
:100ED000FE4F908180918301890F8093830184303C
:100EE0005CF0809182018F5F809382018BE40E948D
:100EF000EA28BB24B39401C0B12C809183018D3FBB
:100F000054F4809182018150809382018EE40E948A
:100F1000EA28BB24B39480918301082E000C990B1E
:100F200064E070E00E94F82A80938301B1100E946F
:100F3000BC1F80912502882309F431C180EE93E023
:100F40009093E7058093E6050E9477128091250231
:100F5000882309F4F9C02091DE033091DF032115C5
:100F6000310509F4F1C08091A6018111EDC0282E50
:100F7000312C6201082E02C0CC0CDD1C0A94E2F771
:100F8000A9014C215D21452B11F48F5FF0CF909189
:100F9000A501910165E0220F331F6A95E1F790FDED
:100FA00012C08295880F807680930C01220F232F28
:100FB000221F330B319520930F01815E80930D0129
:100FC0001092100112C045E0369527954A95E1F739
:100FD000220F220F220F20930C0110920F01295F84
:100FE00020930D0183E08093100124E630E047E078
:100FF00050E06AE071E088E70E94BF29892B09F080
:10100000A3C08091A50180FD23C0C10125E0880F08
:10101000991F2A95E1F7AC0140525C4F04E610E0BD
:1010200020E230E060E488E70E94E629892B09F09D
:101030008BC00E942E21C094D0948091DE039091A9
:10104000DF03C822D922D092DF03C092DE037CC026
:1010500080E2A5E8B1E01D928A95E9F785E0220CCF
:10106000331C8A95E1F7EEE2F1E0C157DF4FF983D7
:10107000E883CF58D0404AE251E0C157DF4FA88102
:10108000B981CF58D0408D91C157DF4FB983A88324
:10109000CF58D040FA019191AF019101290F311D34
:1010A000B90160527C4FC357DF4F79836883CD58B5
:1010B000D04090E08B579E4FFC0107E09F01281B1A
:1010C000390B842C01C0880C2A95EAF7C357DF4FEF
:1010D00068817981CD58D040912CDB011D91BD01F3
:1010E0001821202F29192770722E022E000C330B85
:1010F000B12F01C0BB0F7A94EAF77B2E3195219571
:1011000031092770332701C016952A95EAF7712A0D
:101110001081712A7082939428E09212DECF0150E0
:1011200031960F3F59F6C157DF4F68817981CF580B
:10113000D0406253714009F0A0CF04E610E020E2F5
:1011400030E045E851E06ECF80912402882339F1E8
:101150000E94BC1F009120021091210220912202C6
:1011600030912302DC01CB01801B910BA20BB30B4E
:101170008F3F9F4FAF4FBF4790F480912502882348
:1011800071F080912402882351F062E070E08AE9D6
:1011900091E00E940624892B11F410922402A110E0
:1011A00001C0B1100E942E2186E0EAE1F2E0D701F1
:1011B00001900D928A95E1F7C0901C02D0901D021B
:1011C00000911E0210911F0210921C0210921D022B
:1011D00010921E0210921F02C11003C0DD2009F4FC
:1011E00051C080911802909119020E94AD1F9C017C
:1011F00090911402992309F4FEC22333310508F4B7
:1012000041C09F3F19F09F5F90931402CC2061F082
:101210000E94D4221C1414F491E001C09FEF899F16
:10122000802D112480931C02DD2061F00E94D422C5
:101230001D1414F491E001C09FEF899F802D1124AB
:1012400080931D0230911C023323E1F020911D0296
:101250002223C1F045EB3403C0011124992319F076
:1012600090931C0203C081E080931C0265EB26036F
:10127000C0011124992319F090931D0203C081E04D
:1012800080931D02011103C0112309F451C0809104
:101290001602909117020E94AD1F9C0190911302BB
:1012A000992309F4ADC22536310508F441C09F3FAA
:1012B00019F09F5F90931302002361F00E94B22205
:1012C000101614F491E001C09FEF899F802D112426
:1012D00080931E02112361F00E94B222111614F4B1
:1012E00091E001C09FEF899F802D112480931F0200
:1012F00030911E023323E1F020911F022223C1F01E
:1013000075EB3703C0011124992319F090931E0245
:1013100003C081E080931E0235EB2303C00111243A
:10132000992319F090931F0203C081E080931F025C
:1013300080911C0281110BC080911D02811107C098
:1013400080911E02811103C080911F0281110E94B1
:101350001122CB82DC820D831E8386E0F701AAE195
:10136000B2E001900D928A95E1F70E94AF20909132
:10137000A701891721F00E94AF208093A7018091D7
:101380003802811155C080913702811125C0109219
:10139000370210923802109236026E987698289A88
:1013A000219A229A23982B9880E58CBD549A5C9AB6
:1013B0005C988FE19EE40197F1F700C000005C9A11
:1013C0009FEFA9E6B8E19150A040B040E1F700C01E
:1013D000000081E080933702109238020CE911E09E
:1013E00042E050E0B801CE0185579F4F0E94492A44
:1013F00040E850E0B701C557DF4F88819981CB584D
:10140000D0400E94CD25882379F00E5F1F4FE1E088
:10141000083A1E0729F781E0809338020E94C81F0E
:10142000909341028093400280913802882371F1A9
:1014300081E00E947F248AE090E00E940D26809146
:101440004002909141020E94AD1F893E9340A0F05E
:1014500080913902882309F46DC10E94C81F9093BE
:1014600041028093400240E350E0B70188EA91E0F6
:101470000E94CD25811172C180913A0290913B0268
:101480000E94AD1F8131974208F077C1809111020F
:10149000843009F06CCC83E08093E9008091E8000F
:1014A00082FF65CC8091E80085FF1FC00E94F21C7E
:1014B000811119C000E210E0670108C08091F100BD
:1014C000D6018D936D010150110969F08091E800FA
:1014D00085FDF4CF8091E8008B778093E8000E942F
:1014E000F21C882399F391E001C090E08091E8001C
:1014F0008B778093E800992309F439CCE9818E2F0A
:1015000090E0FC013197E331F10508F0EBC0EA5AB5
:10151000FF4F0C940C2B1A8289E059C08A818230CB
:1015200009F461C1833051F0813009F0DBC00E94C1
:10153000BC1F9B838C837D836E83D6C08091AD015D
:101540008B838091AE018C838091AF018D838091DC
:10155000B00113C08A81823009F0C4C06B817C81E4
:101560008D819E810E94122B86E290E025C04C81E5
:101570006B818A810E9498219D838E83B5C0CD8026
:10158000DE80DC24CD24DC248C810B819A81B6E0C2
:101590000B9F80011124E8E19E9F000D111D112475
:1015A000080F111D080F111D6D2DC80187960E948F
:1015B000812A6C2DC80188960E94812A95C00E94BC
:1015C000642192C080E14EC083E08A8389E78B83E7
:1015D0008BC00A811B81102701271027AC80B12CFA
:1015E0006701C80189579F4F96012E193F092A1597
:1015F0003B0508F079C00937F3E01F0730F40E947B
:10160000732AD60114968C9302C0F60114820F5FE0
:101610001F4FFFEFCF1ADF0AE4CF0A811B8110278B
:1016200001271027AC80B12C6701C80189579F4F53
:1016300096012E193F092A153B0508F055C00937B8
:1016400023E0120728F4D60114966C910E94812A97
:101650000F5F1F4FBFEFCB1ADB0AE7CF0E94542169
:1016600043C084E08A8340C00A811B811027012780
:101670001027AC80B12C6701C801879696012E19FE
:101680003F092A153B0580F50036110528F40E9414
:10169000732AF601848303C0D60114961C920F5F4F
:1016A0001F4FBFEFCB1ADB0AE7CF0A811B81102740
:1016B00001271027AC80B12C6701C80187969601DD
:1016C0002E193F092A153B0578F40036110520F440
:1016D000F60164810E94812A0F5F1F4FFFEFCF1A2E
:1016E000DF0AEBCF8FEF898380911102843009F0FC
:1016F0003ECB1091E9001F709091EC00892F817012
:1017000090FD80E8182B82E08093E9008091E8004A
:1017100080FF0CC040E050E060E270E0C7010E9432
:101720002F248091E8008E778093E8001F7010933B
:10173000E9001DCB40E350E0B70189EC91E00E9445
:10174000CD25882339F040E350E0B70186EB91E0E6
:101750000E94CD2581E0809339027FCEC7010E948F
:101760002B2A21E0892B09F420E0809136022817EA
:1017700009F482CE209336027FCE9091D8038091D7
:10178000D903981383CE0E94C81F90933B02809385
:101790003A0285E880937A0080EA80937B0084E4B3
:1017A00080937C0080917A00806480937A0080919D
:1017B0007A0086FDFCCF809178002091790090918D
:1017C0007A009F7790937A0090E0922B092E000C7C
:1017D000AA0BBB0B80933C0290933D02A0933E0268
:1017E000B0933F0253CE86E290E00E94732A1B82A0
:1017F0001C821D82C2CE2D32314008F004CD42CD74
:101800002D32314008F055CD93CD1F93CF93DF9308
:10181000CDB7DEB767970FB6F894DEBF0FBECDBF6A
:101820004B8B5C8B6D8B7E8B8F8B61111092F401D7
:1018300086E09E01235F3F4FD901E82F1D92EA9574
:10184000E9F795E0FE017396D90101900D929A9502
:10185000E1F79C894E895F897B897D879E876F87A9
:10186000598B488BF901DE01179601900D928A95EC
:10187000E1F7CE0107960E94E61581113EC086E091
:10188000FE013796DE01119601900D928A95E1F7DF
:10189000FF81E8856A857B856115710531F0EF3F31
:1018A00031F481E0FF3F19F403C081E001C080E022
:1018B00080FD23C02091C00130E0C90101968770EE
:1018C00099274091F10150E08417950779F1F98348
:1018D000EA837D836C8396E0929FD001939FB00D45
:1018E0001124AF53BE4FFE01319601900D929A958F
:1018F000E1F78093C0010E94631516E08091F10129
:101900009091C0018917F9F0189FC00111248F53DD
:101910009E4F0E94E6158823B1F08091F10190E07E
:101920000196877099278093F101E8CF0E942C28B7
:101930001092C0011092F101EAEBF1E086E0DF01C4
:101940001D928A95E9F767960FB6F894DEBF0FBE31
:10195000CDBFDF91CF911F9108953F924F925F923B
:101960006F927F928F929F92AF92BF92CF92DF92AF
:10197000EF92FF920F931F93CF93DF93CDB7DEB714
:1019800029970FB6F894DEBF0FBECDBFFC01808152
:10199000918123813481232B31F09F3F31F491E0F9
:1019A0008F3F19F403C091E001C090E090FD87C51E
:1019B0007F0185E0DE01119601900D928A95E1F795
:1019C000F701228189819A81222349F00E945B27B5
:1019D000182F682F89819A810E94B62703C00E9420
:1019E0008A27182F69817A81812F0E94BE218C015C
:1019F000F7018281882309F4F1C0980122513F4503
:101A00002031310508F018C18FEF93E00E94732A4E
:101A10008111EEC0025137E8832E912C002379F01A
:101A20008114F4E09F0609F4E3C0C4010E94732A04
:101A3000811101C001502FEF821A920AEFCF1E824E
:101A40001F8218861986442443942AE0322E84018A
:101A50000F5F1F4FC4010E94732A8E831F82882349
:101A600009F4C6C09FEF980F933060F48F834E82C5
:101A700032E0830E911CC8010E94732A888781116D
:101A800002C0B6C048018E010A5F1F4FF8012081D5
:101A90002223E9F2213009F04CC08181813049F4E0
:101AA0006801F2E0CF0ED11CF80182810E94EA2881
:101AB0000AC0823051F46801F2E0CF0ED11CF80167
:101AC00082810E948B28860186C0833049F4680198
:101AD000F2E0CF0ED11CF80182810E944C28F3CF96
:101AE000843019F00F5F1F4F76C0F80122810E5F1E
:101AF0001F4F80E090E030E0205331092A3031055B
:101B000068F4389EA001399E500D1124C901840F3C
:101B1000951F0F5F1F4FF8012081EDCF009709F44B
:101B20005AC0EFECF7E03197F1F700C000000197E1
:101B3000F5CFE22FF0E0E45BFD4F5490822F8695C5
:101B40008695869590E0FC01E45CFD4F64902770DB
:101B5000712C022E02C0759467940A94E2F7F1E0AA
:101B60006F227724FC01E45DFD4FA490B12C022E7E
:101B700002C0B594A7940A94E2F731E0A322BB24F3
:101B8000FC01E45EFD4FC490D12C02C0D594C794F3
:101B90002A95E2F781E0C822DD246114710419F06E
:101BA00081EE0E948B28A114B10419F086EE0E94E8
:101BB0008B28852D0E94EA28AB2819F086EE0E941A
:101BC0004C28672819F081EE0E944C28CD2819F086
:101BD0008CE20E94EA280F5F1F4F58CF00313FE58B
:101BE000130709F063C481E00E94E5270E94FB23EC
:101BF0008091F201877009F462C4F7018281882321
:101C000009F45DC482E029960FB6F894DEBF0FBEDA
:101C1000CDBFDF91CF911F910F91FF90EF90DF909B
:101C2000CF90BF90AF909F908F907F906F905F907C
:101C30004F903F900C9446150031FFE51F0711F4BB
:101C400081E005C001312FE5120721F482E00E94F6
:101C5000F127CCCF033FFCE51F0799F406E221EE04
:101C600040EE63EF7CE509C0073DECE51E0711F58A
:101C700006E221EE41EE67ED7CE5C7010E94BB2044
:101C8000B7CF043F2CE5120708F046C1083D3CE5FC
:101C9000130731F407E225EE45EE68ED7CE5EDCF64
:101CA000093D9CE5190701F708E221E045EE69EDE1
:101CB0007CE5E3CF882309F464C110922802033045
:101CC0009DE5190758F40A3FECE51E0760F4C801CA
:101CD00082509C45449708F03EC105C00136FDE5A1
:101CE0001F0709F038C10E947E1490937D018093F4
:101CF0007C0100312CE5120709F4CAC008F041C08C
:101D000008308CE5180709F4A4C0F0F40430ECE5C1
:101D10001E0709F48CC068F402302CE5120709F4A0
:101D200082C003301C4509F0E7C080917C018260CD
:101D3000E1C006308CE5180709F483C008F085C0BF
:101D400080917C018860D6C00C30ECE51E0709F458
:101D500090C068F40A302CE5120709F47EC008F040
:101D600084C00E942C2880917C018068C3C00E3002
:101D70008CE5180709F481C008F086C080917C01C9
:101D800094C00C3FECE51E0709F47BC038F5043124
:101D90002CE5120709F49AC058F402318CE51807B3
:101DA00009F47AC008F07EC080917C018F7BA2C0CC
:101DB0000A3FECE51E07F1F108F03FC005311C4574
:101DC00009F09AC080917C0182FB222720F991E0E2
:101DD000922790FB82F990FB83F98CC001153DE5B9
:101DE000130709F467C050F480917D010E3F9CE514
:101DF0001907C1F108F05BC08D7F65C00230FDE5B9
:101E00001F0709F471C008F46DC001361D4509F0C3
:101E100073C080917C0184FB222720F991E09227F6
:101E200090FB84F967C080917C01816063C08091E0
:101E30007C0116C080917D0116C080917D01826079
:101E400042C080917C01806155C080917C0180629C
:101E500051C080917C0180644DC080917C0188607C
:101E6000846048C0826081602EC080917C018E7F3A
:101E700041C080917C018D7F3DC080917C01877F36
:101E800039C080917D0114C080917C018F7E32C069
:101E900080917C018F7D2EC00E942C2880917C0136
:101EA0008F7728C080917C01877F8B7F23C08D7FB7
:101EB0008E7F09C080917D01982F909591708E7FC3
:101EC000892B90FB81F980937D0116C00E942C28FC
:101ED00080917C0187FB222720F991E0922790FBDB
:101EE00087F908C061E001C060E08EE090E00E94E8
:101EF000812A02C080937C0160917C0110917D0158
:101F000084E090E00E94812A612F82E290E00E94AA
:101F1000812A0E942C286CCE053FFCE51F0731F476
:101F200006E221EE42EE65EF7CE5A7CE053F2CE50B
:101F3000120730F407E225EE44EE64EF7CE59DCE17
:101F4000063F3CE5130709F0B5CE07E225EE46EE65
:101F500066EF7CE592CE06318CE5180751F580914D
:101F6000F5018A7A91E009F490E09093B101882319
:101F700011F065E301C069E282EB91E00E94692003
:101F800015C006311C4509F057C08091B101882366
:101F900009F493C285E3E2EBF1E09281891301C079
:101FA0001282319691E0E83BF907B9F70E94FF14DD
:101FB0001FCE0E3DECE51E0781F1B0F40C3D2CE583
:101FC000120771F180F501151C45B1F50E942C280E
:101FD0008FE79AE1E6E081509040E040E1F700C0F1
:101FE00000000E94761F04CE0A359DE51907F9F01E
:101FF00028F409321D4501F583E016C00B352DE5A7
:102000001207B9F00C351D45B9F480917D0182FBB2
:10201000882780F991E089270DC00E948F14E8CDB0
:1020200010921202E5CD82E080931202E1CD81E0B0
:1020300001C080E00E942C15F7018281008111818E
:10204000882349F0C8010E945B27D82E682FC80159
:102050000E94B62704C0C8010E948A27D82EB80162
:102060008D2D0E94BE210E94E412B82E192F982EA9
:10207000F7010281A580A2949FE0A9228091F2013C
:10208000877099F0002389F0812F807F803421F0C0
:1020900080E28B0D883048F082E00E9446158091E6
:1020A000F2018770DD24D3948111D12CC12EC2940A
:1020B0008FE0C8228C2D90E08C30910508F0C2C1D1
:1020C000FC01E759FF4F0C940C2B812F807F1F7070
:1020D000882311F01295107F0023B9F0112309F421
:1020E0009DC180E28B0D883010F0911006C0809168
:1020F000F501182B1093F50105C08091F401182B00
:102100001093F4010E94FF1489C18B2D0E944C286A
:10211000112309F497C180E28B0D1095883010F0DF
:10212000911006C08091F50118231093F50105C0A8
:102130008091F40118231093F4010E94FF1482C1CE
:10214000812F807F1F70803211F01295107F8B2DB0
:10215000992021F0F1E09F1611F130C00023B1F079
:10216000AA2081F021E0A2120DC080917D0182FDA4
:1021700069C18091F601182B181709F463C11093F7
:10218000F60160C18091F601812B10C0AA2021F0D8
:1021900031E0A31609F456C10E94F91427C00023A8
:1021A00041F085E08A1508F44DC1812F0E94422834
:1021B00049C194E09A1508F445C118C0002349F0BC
:1021C000AA2099F3F701858180FF28C18F7085834C
:1021D000ECCFAA2059F0893309F031C1FFEF23EF8A
:1021E00031E0F15020403040E1F727C1812F0E94BB
:1021F000372828C1812F86958695837019F0813004
:1022000061F020C1002321F08B2D912F937002C02B
:1022100080E090E00E9499201BC1002321F08B2DCB
:10222000912F937002C080E090E00E94832010C143
:102230008B2D002319F00E94F42202C00E943B2241
:102240000E94112205C1812F8370A9F50111FEC0E2
:102250004B2D429546954770440F440F8B2D8F7040
:1022600090E09C01042E01C0220F0A94EAF7B4FE0C
:1022700008C08FE090E001C0880F4A95EAF780958A
:1022800001C080E0169516951370123069F088F43D
:102290009091F701113019F0822B892302C0922B03
:1022A000892B0E94FC27D2C0822B9091F7018927AD
:1022B000F8CF822BF6CF002319F0812F817001C057
:1022C0008695882309F4C2C04B2D429546954770E8
:1022D000440F440F8B2D8F7090E09C01042E01C0A1
:1022E000220F0A94EAF7B4FE08C08FE090E001C024
:1022F000880F4A95EAF7809501C080E016951695FB
:102300001370123059F078F49091DC03113019F009
:10231000822B892309C0922B892B06C0822B909196
:10232000DC03892701C0822B0E94E1278FC01F7028
:10233000002339F0812F0E94F1278B2D0E94422823
:1023400085C08B2D0E943728812F0E94E5277EC0F3
:102350008B2D92EF991659F1991538F0E0EF9E16F2
:1023600059F0F1EF9F16F1F055C023EF921631F1BD
:1023700034EF931681F14EC0002379F084E08A1582
:1023800008F460C01F7181E090E001C0880F1A95C9
:10239000EAF79091DC0389271BC095E09A1508F4B1
:1023A00051C0F0CF002329F0812F8F7126C0002368
:1023B000D9F3812F8F710E94E52744C0002339F0A3
:1023C0001F7181E001C0880F1A95EAF701C080E013
:1023D0000E94E12737C0002399F01F71812F0E94CE
:1023E000F12780917D0182FD07C0E8E01E9FC001BA
:1023F000112483608093F201812F0E94F12722C073
:1024000081E00E944615F1E0FA15E0F482E00E94B6
:10241000461518C0002331F0AA2031F28B2D0E94FE
:102420008B2810C0AA2029F2893349F42FEF33EF0B
:1024300081E0215030408040E1F700C000008B2D4A
:102440000E944C2888EF8C0D843010F40E94AF203D
:10245000DD20A9F18091F20180FD31C0F7011282E7
:102460008595859585950E94F127C7010E94AD0C41
:102470008091F20185958595859529960FB6F894FA
:10248000DEBF0FBECDBFDF91CF911F910F91FF90A7
:10249000EF90DF90CF90BF90AF909F908F907F9004
:1024A0006F905F904F903F900C94E52701319FE52E
:1024B000190709F0CFCB82E097CB89E26CCD299642
:1024C0000FB6F894DEBF0FBECDBFDF91CF911F9145
:1024D0000F91FF90EF90DF90CF90BF90AF909F90C3
:1024E0008F907F906F905F904F903F900895CF9323
:1024F000DF93ECEDF1E08491EF01882331F00E944D
:102500004F232196FE018491F8CFDF91CF9108955A
:1025100080E0089590917C0192FF0DC0282F2871D2
:10252000283019F4877F846006C0282F2471243056
:1025300011F48B7F886093FF0DC0282F28712831FC
:1025400019F4877E846106C0282F2471243111F488
:102550008B7E886120917D0120FF0DC0382F38715E
:10256000383019F4877F816006C0382F31713130DF
:1025700011F48E7F886021FF0DC0282F287128312B
:1025800019F4877E816106C0282F2171213111F451
:102590008E7E886194FD877E0895F894E82FE295F9
:1025A000EF70F0E031A1282F2F7081E090E001C0A2
:1025B000880F2A95EAF7982F9095932391A392A1DB
:1025C000892B82A378940895CF93DF938238910565
:1025D00069F1B0F48133910509F46FC048F4893290
:1025E000910509F465C08A32910509F46BC08AC06F
:1025F0008533910509F457C089339105B9F082C03C
:10260000833E910571F138F4803E9105B1F0823E30
:10261000910511F177C0863E9105B9F1873E91058C
:10262000C9F1843E910509F06DC024C020917C0160
:1026300020FD53C021FD51C065C080917C0180FD0B
:1026400046C080917D0180FF48C080917C0184FD5F
:1026500050C183EE90E04FC180917C0182FF3AC06F
:10266000F4CF80917C0182FD35C080917D0180FD99
:1026700034C0EBCF80917D0181FF35C080917C011A
:1026800084FD37C187EE90E036C180917C0183FFE5
:1026900027C0F4CF80917C0183FD22C080917D0111
:1026A00081FD21C0EBCF80917C0185FD1FC021C041
:1026B00080917C0185FD1DC019C080917C0186FD43
:1026C0001BC01DC080917C0186FD19C015C089E327
:1026D00090E011C182EE90E00EC180EE90E00BC15F
:1026E00086EE90E008C184EE90E005C189E290E0BA
:1026F00002C185E390E0FFC08AE290E0FCC081E384
:1027000090E0F9C0811531E5930708F069C08115A3
:1027100040E59407F0F09C0174E0369527957A9592
:10272000E1F7922F9370482F437021E030E002C010
:10273000220F331F4A95E2F73C68392B982F9F7080
:102740009695969540E2949FC0011124822B932B7D
:10275000D2C0883E910568F5803E910508F0CBC057
:10276000883A9105B8F4853A910548F0855AE82FE2
:10277000F0E0EE5CFE4F808190E09064BCC0813060
:10278000910509F4B3C008F4B4C08430910508F48D
:10279000B0C0B1C08F3B910508F0ABC0885AE82F9C
:1027A000F0E0EE0FFF1FEB5CFE4F8081918194649F
:1027B000A2C0811520E2920758F4811531E09307F9
:1027C00008F099C0803F910508F493C0906593C0CC
:1027D000811540E4940708F48CC09F70906A8BC008
:1027E000811525E5920708F042C0811534E593076D
:1027F00028F0982F8827846F906A7DC0811543E563
:102800009407B0F09C012370332741E050E002C0F0
:10281000440F551F2A95E2F7282F2695269580E22A
:10282000289F90011124CA01822B932B9A6863C0C0
:10283000811522E5920728F4982F8827816F906AE6
:102840005AC09C012370332741E050E002C0440F7E
:10285000551F2A95E2F7282F2695269580E2289F76
:1028600090011124CA01822B932B9C6844C0EC0177
:10287000811539E59307A8F48115984528F09C2F18
:102880008827806F906A37C0C11586E5D80788F51C
:102890008C2F0E948A128F7190E0982F8827906267
:1028A0002AC081152AE5920790F48C2F8F700E9420
:1028B0008A1294E0D695C7959A95E1F7CF70D0E04B
:1028C000DC2FCC27D0699E01282BC90114C090565B
:1028D0008115904270F48D2F8F710E948A12282FDB
:1028E0002F71CE0199279062922B05C081E090E074
:1028F00002C080E090E0DF91CF910895CF9384E013
:1029000090E00E94732AC82F82E290E00E94732A0E
:102910002C2F30E0A901582BCA01CF91089569EE00
:102920007EEF80E090E00E949F2A60E082E090E0ED
:102930000E94812A60E083E090E00E94812A109248
:10294000F70160E084E090E00E94812A60E082E28A
:1029500090E00E94812A60E085E090E00E94812A58
:1029600060E086E090E00E94812A6FEF87E090E0CF
:102970000E94812A40E050E0BA0188E090E00E9485
:10298000932A60E08DE090E00E94812A40E050E0D0
:10299000BA0188E190E00E94932A60E087E190E02C
:1029A0000E94812A40E050E0BA018CE190E00E9450
:1029B000932A60E070E080E290E00E949F2A40E06D
:1029C00050E0BA0188E190E00E94932A80E00E94E2
:1029D000CB210E94E92140E050E0BA018FE090E075
:1029E0000E94932A40E050E0BA0183E190E00C9409
:1029F000932A8091F60181111092F6010895909129
:102A0000F5018091F401892B2091F301982F922BED
:102A10009093B2018091F601882389F0892B8093ED
:102A2000B201E4EBF1E097E080E0915029F02191D0
:102A30002223D9F38F5FF9CF81110E94F914E0911D
:102A40002B02F0912C02309731F00280F381E02DBF
:102A500082EB91E009940895CF93C0917D01C2FB70
:102A6000992790F9981781F080FBC2F9C0937D01F6
:102A700060917C0184E090E00E94812A6C2F82E2C8
:102A800090E0CF910C94812ACF9108952091F2018A
:102A9000809582238093F201982F977041F430E063
:102AA000482F082E000C550B2417350721F4909160
:102AB0007D0192FF07C08595859585950E94E52744
:102AC0001092F20108958091F1019091C00189174F
:102AD00019F08F5F8770FBCF08950F931F93CF93EB
:102AE000DF938091BF0182958F7009F05DC0809166
:102AF000BC01882309F458C08091F1011091C001F4
:102B00006091BA017091BB01C091BD01D091BE012D
:102B100091E06F3F09F090E0292F06E0811709F45A
:102B200043C0209721F07F3F21F030E003C031E027
:102B300001C0322F90E030FD34C0089FF001099FA2
:102B4000F00D1124DF01AF53BE4F11963C91119748
:102B5000371327C03C91361324C012963C9112972C
:102B600031111FC013964D915C9114974C1B5D0B56
:102B7000483C5105B0F48091BF018F708061809313
:102B8000BF01EA53FE4F80818F70806180838AEBA2
:102B900091E00E94AD0CDF91CF911F910F910C94A9
:102BA000631501968770BACFDF91CF911F910F9176
:102BB0000895CF93DF93EC010E945B27BE010E9432
:102BC000BE210E94E412DF91CF9108959F92AF92AF
:102BD000BF92CF92DF92EF92FF920F931F93CF930A
:102BE000DF93CDB7DEB761970FB6F894DEBF0FBEA7
:102BF000CDBF8C0185E0F801DE011D9601900D929C
:102C00008A95E1F7F801E2809091BA016091BB01E9
:102C10004091BD015091BE014115510531F06F3F0A
:102C200031F481E09F3F19F403C081E001C080E0EE
:102C3000F82FF1709F2E80FD1AC1F801308121819B
:102C4000C380D4808AEBA82E81E0B82EF090BC011E
:102C5000F601E41BF50BFF2009F4C6C08091BF010B
:102C6000E83CF10508F091C0482F407F09F050C0C2
:102C7000621311C093130FC0FE2CE1100CC08F70B3
:102C800080618093BF01C5010E94AD0C8091BF019E
:102C9000F801858329C1CD2831F02F3F31F481E03F
:102CA0003F3F19F403C081E001C080E080FD03C014
:102CB00081E08E2502C080E090E0F82FF170FF2EB9
:102CC00080FF1CC08091F1014091C00156E0841743
:102CD00009F4E8C090E0589FF001599FF00D1124CD
:102CE000EF53FE4F6181261306C06081631303C05A
:102CF0006281E61203C001968770E9CFFE2CEE20B8
:102D000009F4F2C08091BF0181608093BF0149C086
:102D1000621306C0931304C0E11002C0F80186C01C
:102D2000C8010E940028882351F1EE2041F1209132
:102D3000BF01822F82958F7090E0029774F080918E
:102D4000BA019091BB0198878F831986DB86CA866A
:102D50002C87CE0107960E94AD0C86E0F801AAEB05
:102D6000B1E001900D928A95E1F70E946D150AC0BD
:102D70006217C9F0C8010E94002881111EC0C80155
:102D80000E94AD0CFF24F394AFC0482F407F81F721
:102D90008AEB91E00E94AD0C86E0F50111928A95D4
:102DA000E9F7F12CA1C09313E5CFE110E3CFF801CF
:102DB0008583C8010E94AD0C54C0EE2001F3209120
:102DC000BF01822F82958F7090E0029734F280913C
:102DD000BA019091BB019A8389831B82DD82CC82E8
:102DE0002E83CE010196B7CFE83CF105D0F5FE2C3D
:102DF000EE2029F2621327C0931325C02091BF0152
:102E000020FD18C0822F82958F70482F50E0411509
:102E1000510581F0F80125834F30510541F08F5F56
:102E2000982F9295907F822F8F70892B8583C80170
:102E30000E94AD0C86E0F801AAEBB1E001900D9282
:102E40008A95E1F751C0C8010E940028811185CF01
:102E50008091BF0181608093BF01C8010E94AD0CC9
:102E600043C086E0F50111928A95E9F73DC0EE2056
:102E700009F485CFC8010E940028F82E882309F4A0
:102E80007ECF86E0F801AAEBB1E001900D928A9521
:102E9000E1F78091BA019091BB010E94D9150E947F
:102EA0006D1522C03D872E878D859E850E94D91580
:102EB000292F22952F70223028F49F7039F081112C
:102EC00005C00BC0243028F49F7049F4805E883020
:102ED00020F0C8010E94AD0C9F2CF92C05C0F80110
:102EE0009581907F99F7F9CF8F2D61960FB6F89461
:102EF000DEBF0FBECDBFDF91CF911F910F91FF902D
:102F0000EF90DF90CF90BF90AF909F900895AF92D9
:102F1000BF92CF92DF92EF92FF920F931F93CF93C6
:102F2000DF9300D000D0CDB7DEB719821A821B82A2
:102F30001C8283E1E82E81E0F82E00E010E0CC2432
:102F4000C394D12C5E0145E0A40EB11CD7018C9135
:102F50008F3F09F44CC0F894E82FE295EF70F0E051
:102F600021A18F70A60102C0440F551F8A95E2F778
:102F7000CA01922F982B91A392A18095892382A3B5
:102F8000789400C0C601002E01C0880F0A94EAF7A9
:102F9000482F382F309566E171E0FE013196DB0154
:102FA0002D91BD012F3F99F0822F82958F7090E077
:102FB000DC0190968C9190E02F7002C095958795DA
:102FC0002A95E2F780FD03C08081842B02C08081B6
:102FD000832380833196EA15FB0509F7F701808189
:102FE0008F3F11F00E94CD12F0E5FA95F1F70F5FD7
:102FF0001F4F4FEFE41AF40A0330110509F0A6CF72
:1030000044E050E0BE016F5F7F4F8EE791E00E9489
:10301000192B11E0009709F410E0892BA9F08981A0
:103020009A81AB81BC8180937E0190937F01A093B4
:103030008001B093810181E08093FA010E94C81F52
:103040009093F9018093F8018091FA018823D1F0DF
:103050008091F8019091F9010E94AD1F059790F0C1
:1030600080917E018093AD0180917F018093AE01BC
:10307000809180018093AF01809181018093B001A4
:103080001092FA01812F0F900F900F900F90DF9107
:10309000CF911F910F91FF90EF90DF90CF90BF9055
:1030A000AF900895809112018F3F19F1E82FE295BA
:1030B000EF70F0E031A1282F2F7081E090E001C087
:1030C000880F2A95EAF7932F982B91A392A1892B29
:1030D00082A38FEF809312018DB58E7F8DBD9CB53D
:1030E0008091DB03809589238CBD1092DB031092C5
:1030F000DA03089580911202811107C080911102B4
:10310000843011F083E0089582E008951F93CF93F7
:10311000DF93CDB7DEB7AA970FB6F894DEBF0FBE28
:10312000CDBFE9E0F2E08091F100819342E0E1312E
:10313000F407C9F780910A02833009F462C030F4C1
:10314000813071F0823009F49CC0B3C08A3009F438
:1031500088C08B3009F46DC0893009F0AAC020C046
:1031600080910902813A09F0A4C08091E800877F2C
:103170008093E80080910D0290910E02892B21F43A
:1031800068E08EEF91E003C060E080E090E070E0E6
:103190000E94181F8091E8008B778093E80089C017
:1031A00080910902813209F084C080910D029091D2
:1031B0000E02009719F0029709F07BC08091E80099
:1031C000877F8093E8008091E80082FD05C08091B0
:1031D00011028111F8CF6DC02091F3008091F200AF
:1031E00090E0922B029729F48091F1008B7F81303F
:1031F00021F48091F1008093FD018091E8008B77AC
:1032000054C080910902813A09F053C080910D02A7
:1032100090910E02892B09F04CC08091E800877FC5
:103220008093E8008091E80080FFFCCF809111013D
:1032300037C0809109028132E1F580910D029091B1
:103240000E02892BB1F58091E800877F8093E8001A
:103250000E94C41E80910B02809311010E942C28B1
:1032600028C080910902813221F58091E800877F92
:103270008093E8000E94C41E80910C028093FC01A0
:1032800018C080910902813AA1F48091E800877FFB
:103290008093E8008091E80080FFFCCF8091FC01E2
:1032A0008093F1008091E8008E778093E8000E947F
:1032B000C41E8091E80083FFDDC1809109029091D6
:1032C0000A02492F50E04A30510508F0D3C1FA01F3
:1032D000EB58FF4F0C940C2B803821F0823809F00A
:1032E000C9C108C08091060290910702992389F014
:1032F00082600FC080910D028F70873008F0BAC1D4
:103300008093E9008091EB0085FB882780F910927B
:10331000E9009091E800977F9093E8008093F10096
:103320001092F10070C1282F2D7F09F0A3C18823CE
:1033300019F0823061F09EC180910B02813009F05A
:1033400099C1933009F080E0809307022EC08091EC
:103350000B0281112AC080910D028F702FEF280F70
:10336000263008F087C18093E9002091EB0020FF10
:103370001CC0933021F48091EB00806214C09091C6
:10338000EB0090619093EB0021E030E0A90102C0D6
:10339000440F551F8A95E2F74093EA001092EA0025
:1033A0008091EB0088608093EB001092E90080919F
:1033B000E800877F8093E8000E94C41E5BC18111F2
:1033C00059C110910B021F778091E3008078812B07
:1033D0008093E3008091E800877F8093E8000E945B
:1033E000C41E8091E80080FFFCCF8091E3008068DC
:1033F0008093E300111102C082E001C083E080935A
:10340000110238C18058823008F034C120910B027B
:1034100030910C022C3D53E0350779F583E08A8327
:103420008AE289834FB7F894DE01139620E03EE0EC
:1034300051E2E32FF0E050935700E49120FF03C0E6
:10344000E295EF703F5FEF708E2F90E0EA3010F062
:10345000C79601C0C0968D939D932F5F243149F785
:103460004FBF8091E800877F8093E8006AE270E0B8
:10347000CE0101960E94181FB4C080910D02909158
:103480000E02432F552743305105A9F068F441300F
:10349000510509F4FEC04230510509F0EBC08BE53F
:1034A00090E0E9EAF3E04BC04132510529F14232A4
:1034B000510589F1DFC0C901992781309105A1F03B
:1034C00058F0029709F0D6C0E6E1F4E0E4918E2FBF
:1034D00090E0E6E1F4E030C0E6E5F4E0E4918E2F20
:1034E00090E0E6E5F4E028C0E2E3F4E0E4918E2F1A
:1034F00090E0E2E3F4E020C08330910508F0BAC028
:10350000880F991FFC01E459FE4F0190F081E02DD6
:1035100089E090E014C08330910508F0ABC0FC0155
:10352000EE0FFF1FEA59FE4F0190F081E02DDC0104
:10353000AD59BE4F8C9190E0009709F49BC020914B
:10354000E800277F2093E80020910F0230911002BD
:103550002817390708F4C90140E0009789F1209144
:103560001102222309F43DC02530D9F12091E80051
:1035700023FD37C02091E80022FD2FC02091E800F4
:1035800020FFEBCF4091F3002091F20030E0342B8C
:10359000009759F02830310540F444914093F100F0
:1035A000319601972F5F3F4FF3CF41E0283031052F
:1035B00009F040E02091E8002E772093E800CDCF7D
:1035C0004111CDCF0AC080911102882351F085307E
:1035D00041F08091E80083FD04C08091E80082FF03
:1035E000F2CF8091E8008B778093E80043C0803869
:1035F00009F040C08091E800877F8093E8008091C7
:1036000008028093F1008091E8008E77D3CE81117B
:1036100031C080910B0290910C029927029754F5CA
:103620008091E800877F8093E80010910B0210934F
:1036300008020E94C41E111106C08091E30087FD9C
:1036400002C081E001C084E08093110242E061EC9D
:1036500081E00E94E31E42E261EC84E00E94E31EEE
:1036600042E261EC82E00E94E31E42E260EC83E011
:103670000E94E31E8091E80083FF10C08091E80063
:10368000877F8093E8008091EB0080628093EB005D
:1036900005C082E190E0E4E0F4E051CFAA960FB6D5
:1036A000F894DEBF0FBECDBFDF91CF911F9108957B
:1036B0001F920F920FB60F9211242F933F934F93A7
:1036C0005F936F937F938F939F93AF93BF93CF93AA
:1036D000DF93EF93FF93C091E900CF708091EC00EE
:1036E000D82FD17080FDD0E81092E9008091F000D1
:1036F000877F8093F00078940E9486181092E900EA
:103700008091F00088608093F000CD2BCF70C09343
:10371000E900FF91EF91DF91CF91BF91AF919F9120
:103720008F917F916F915F914F913F912F910F906A
:103730000FBE0F901F901895E8EDF0E080818E7F0E
:1037400080831092E2001092DA001092E100A0EE65
:10375000B0E08C9181608C9380818F77808319BCDD
:10376000A7EDB0E08C918E7F8C9380818F7E8083DB
:103770001092FB010895CF92DF92EF92FF920F9388
:103780001F93CF93DF93C8EDD0E088818F7E88832D
:10379000E7EDF0E080818160808384E082BF81E09A
:1037A0008093FB0188818E7F888302EE10E0F80110
:1037B00010821092DA0081EEC82ED12CF601108210
:1037C00088818F77888388818068888388818F7DCE
:1037D000888319BC109211021092080210920702FD
:1037E0001092060290EEE92EF12CF70180818B7F7A
:1037F000808388818160888342E060E080E00E946D
:10380000E31EF60180818E7F8083F80180818160D4
:103810008083808188608083F70180818E7F8083B0
:10382000888180618883DF91CF911F910F91FF90F4
:10383000EF90DF90CF9008951F920F920FB60F92E6
:1038400011242F933F934F935F936F937F938F93A5
:103850009F93AF93BF93EF93FF938091E10082FF1B
:1038600009C08091E20082FF05C08091E1008B7F5A
:103870008093E1008091DA0080FF28C08091D80019
:1038800080FF24C08091DA008E7F8093DA008091DF
:10389000D90019BC80FF16C082E089BD09B400FEC2
:1038A000FDCF81E0809311028091FB0181110EC058
:1038B0000E949C1B0E94BB1B8091E200846080934D
:1038C000E20004C0109211021092FB018091E1000D
:1038D00080FF17C08091E20080FF13C08091E2005A
:1038E0008E7F8093E2008091E20080618093E2000D
:1038F0008091D80080628093D80019BC85E08093C5
:1039000011028091E10084FF31C08091E20084FFC8
:103910002DC019BC82E089BD09B400FEFDCF8091A5
:10392000D8008F7D8093D8008091E1008F7E8093B6
:10393000E1008091E2008F7E8093E2008091E200BE
:1039400081608093E20080910802882311F084E076
:1039500007C08091E30087FD02C081E001C083E0E1
:10396000809311020E942C280E94AF208091E100D8
:1039700083FF27C08091E20083FF23C08091E10094
:10398000877F8093E10082E0809311021092080209
:103990008091E1008E7F8093E1008091E2008E7F34
:1039A0008093E2008091E20080618093E20042E037
:1039B00060E080E00E94E31E8091F00088608093C8
:1039C000F000FF91EF91BF91AF919F918F917F9107
:1039D0006F915F914F913F912F910F900FBE0F907C
:1039E0001F9018952091E4003091E50095E64091F4
:1039F000EC00842F817040FF23C08091E80080FD9F
:103A00001DC080911102882399F0853099F0809132
:103A1000EB0085FD11C04091E4005091E5002417B2
:103A2000350729F3915011F09A01E1CF84E0089510
:103A300082E0089583E0089581E0089580E008958C
:103A40004091E80042FFDDCF0895CF93DF931EBC85
:103A50000E94C81FEC010DB407FC0AC00E94C81FD9
:103A60008C1B9D0B84369105B0F38EEF9FEF02C047
:103A70008EB590E0DF91CF910895EF92FF920F9372
:103A80001F93CF93DF93EC017B010E94C81F8C0131
:103A900066990CC082E08A95F1F700C0C8010E94C7
:103AA000AD1F8E159F05A0F3C0E044C00E945B24AB
:103AB0000E94251D88838E5F823080F40E945218F8
:103AC000E2E4EA95F1F700C00E945B24C8010E947D
:103AD000AD1F8E159F0560F3C0E02AC07E01FFEF89
:103AE000EF1AFF0A8E010C5F1F4F0E94251D97FFE2
:103AF00007C0CB81CF77D0E0C131D1057CF407C0BE
:103B0000F70181937F01E017F10779F7F2CF780190
:103B1000C701801B910B8C179D0710F0C1E008C0F6
:103B20000E94251D97FDFACFF70181937F01F0CF09
:103B30000E9452188C2FDF91CF911F910F91FF900F
:103B4000EF900895CF93DF938EBD0E94C81FEC01C4
:103B50000DB407FC0AC00E94C81F8C1B9D0B843645
:103B60009105B0F38EEF9FEF02C08EB590E0DF912C
:103B7000CF910895EF92FF920F931F93CF93DF930E
:103B80008C01EB010E945B240E94C81F7C01F8019C
:103B900080810E94A21D8E3F910581F40E945218DF
:103BA000F2E4FA95F1F700C00E945B24C7010E947D
:103BB000AD1F8C179D0758F3C0E016C0F801C381F4
:103BC000CF77D0E023960F5F1F4F7801F7018191E7
:103BD0007F010E94A21D97FD06C0C701801B910BAB
:103BE0008C179D0798F3C1E00E9452188C2FDF912B
:103BF000CF911F910F91FF90EF9008958091FD015B
:103C0000089590911102943029F5809333027093B6
:103C10003502609334029093E9008FEF9091E800B1
:103C2000815095FD06C09AE69A95F1F700C0811182
:103C3000F5CF8091E80085FF0DC040E050E063E0E3
:103C400070E083E392E00E942F248091E8008E7759
:103C50008093E80008950F931F93CF93DF93EC01B7
:103C60000E947A18833009F508E210E02091D2030F
:103C700030E0C9010196B8010E94F82A9091D3035F
:103C80009817D9F09AE0929FF001939FF00D1124BC
:103C9000EE5BFD4F91E09083D483C3838093D20386
:103CA000DF91CF911F910F910895BE0184E0DF91C4
:103CB000CF911F910F910C94011E86E990E00E9414
:103CC0000D26D4CFBC0183E00C94011EDF92EF924D
:103CD000FF920F931F93CF93DF93EC010E947A180A
:103CE000833029F519810D81FC80EB80DA80C8E2F0
:103CF000D0E02091D20330E0C9010196BE010E94BC
:103D0000F82A9091D303981791F19AE0929FF001CD
:103D1000939FF00D1124EE5BFD4F92E09083D382D0
:103D2000E482F582068317838093D20325C084E062
:103D30008093E9008FEF9091E800815095FD06C0D7
:103D40009AE69A95F1F700C08111F5CF8091E800CD
:103D500085FF12C040E050E066E070E0CE010E94B6
:103D60002F248091E8008E778093E80005C086E9D3
:103D700090E00E940D26BDCFDF91CF911F910F9152
:103D8000FF90EF90DF9008958091090287FF11C0A6
:103D90008091E80082FD05C0809111028111F8CF69
:103DA00011C08091E8008B770BC0809111028823AD
:103DB00049F08091E80080FFF8CF8091E8008E778D
:103DC0008093E8000895982F973068F59093E90064
:103DD000981739F07091EC002091ED005091F000AF
:103DE00003C0242F762F50E021FD02C09F5FECCF4F
:103DF0003091EB003E7F3093EB003091ED003D7F42
:103E00003093ED003091EB0031603093EB00709314
:103E1000EC002093ED005093F0002091EE0027FD80
:103E2000E5CF80E008958F708093E90081E00895E8
:103E300020910F02309110022617370748F06115C4
:103E4000710539F42091E8002E772093E80001C035
:103E5000B901FC0120E06115710579F18091110231
:103E60008823F1F18530F1F18091E80083FD3CC0B9
:103E70008091E80082FD2EC08091E80080FFEBCFAA
:103E80002091F3008091F20090E0922B6115710572
:103E900051F08830910538F421912093F100615060
:103EA00071090196F3CF21E0089709F020E0809195
:103EB000E8008E778093E800CECF2111CFCF0AC0E3
:103EC00080911102882361F0853061F08091E800D3
:103ED00083FD0AC08091E80082FFF2CF80E0089560
:103EE00082E0089583E0089581E0089587E797E7E9
:103EF00090930108809300089AE088E10FB6F89447
:103F0000A895809360000FBE90936000FFCF7894D7
:103F10001F920F920FB60F9211248F939F93AF931E
:103F2000BF9380912F0290913002A0913102B09105
:103F300032020196A11DB11D80932F029093300291
:103F4000A0933102B0933202BF91AF919F918F91B4
:103F50000F900FBE0F901F9018959C014FB7F894CB
:103F600080912F0290913002A0913102B0913202E3
:103F70004FBF821B930B08952FB7F89460912F02C7
:103F80007091300280913102909132022FBF0895DA
:103F90002FB7F89480912F0290913002A0913102B6
:103FA000B09132022FBF0895CF92DF92FF920F930C
:103FB0001F93CF93DF93EC010E947A18833079F539
:103FC000F8800E94C81F8C0188E2C82ED12C209155
:103FD000D20330E0C9010196B6010E94F82A9091FF
:103FE000D303981709F443C0AA817B816C815D815A
:103FF0004E819F81BAE0B29FF001B39FF00D112472
:10400000EE5BFD4F108212830183F382A4837583DC
:1040100066835783408791878093D2032DC081E0C8
:104020008093E9008FEF9091E800815095FD06C0E4
:104030009AE69A95F1F700C08111F5CF8091E800DA
:1040400085FF1AC040E050E068E070E0CE010E94B9
:104050002F248091E8008E778093E80088E0FE01AD
:10406000AEEFB1E001900D928A95E1F705C086E9C7
:1040700090E00E940D26ABCFDF91CF911F910F9161
:10408000FF90DF90CF9008951F920F920FB60F927E
:1040900011248F939F93AF93BF9380912F029091A0
:1040A0003002A0913102B09132024196A11DB11DA2
:1040B00080932F0290933002A0933102B09332028A
:1040C000BF91AF919F918F910F900FBE0F901F9056
:1040D00018959C01FC0132969FEF80E041914617B4
:1040E00089F09F3F19F4411101C0982F8F5F8630EE
:1040F000A9F79F3F39F0F901E90FF11D97FDFA95F6
:1041000062830895089520912D0230912E02281780
:10411000390771F090932E0280932D02E0912B02CB
:10412000F0912C02309721F00084F185E02D099464
:1041300008952091290230912A022817390771F039
:1041400090932A0280932902E0912B02F0912C0295
:10415000309721F00680F781E02D09940895E091D1
:104160002B02F0912C02309721F00190F081E02D8C
:10417000099480E008950F931F93CF93DF93C42F8A
:10418000D22FFC0182818823C9F0409328020E942B
:10419000C81F909327028093260280E28C0F8830FC
:1041A00008F057C0C77081E001C0880FCA95EAF7D0
:1041B000DF91CF911F910F910C944228809128029A
:1041C000481330C080912602909127020E94AD1FB3
:1041D000883C910538F510E21D0FCD17B9F080E24B
:1041E0008C0F883040F4C77081E001C0880FCA95F9
:1041F000EAF70E943728183028F581E09D2F977044
:1042000001C0880F9A95EAF70E944228802F0E94E9
:10421000EA281830F0F4D77081E001C0880FDA95F1
:10422000EAF70AC080E28C0F883098F4C77081E00A
:1042300001C0880FCA95EAF7DF91CF911F910F91C6
:104240000C943728802FDF91CF911F910F910C9400
:10425000EA28DF91CF911F910F9108958091250257
:104260008823F9F00E94BC1FDC01CB01805A9541E4
:10427000AF4FBF4F8093200290932102A093220260
:10428000B09323028091240281110BC062E070E0A0
:104290008AE894E00E940624892B19F481E0809337
:1042A0002402809124020895CF93DF93C7E8D0E0E1
:1042B00060E0CE010E94812A2196C11584E0D807D2
:1042C000B9F7DF91CF910895CF92DF92EF92FF92ED
:1042D0000F931F93CF93DF93C0E0D0E08E01085E71
:1042E0001F4F6E0186E0C80ED11CFE01E65AFB4F3F
:1042F000E590F4906F2DCE0187960E94812A6E2D55
:10430000CE0188960E94812A2296CC15DD0569F798
:104310000C171D0731F7E80100361105F9F6DF919A
:10432000CF911F910F91FF90EF90DF90CF90089564
:104330000F931F93CF93DF93C42FD0E0CC0FDD1FDB
:1043400026E0629FC00DD11D112438E1839FC00D6E
:10435000D11D1124CE0187960E94732A082F10E0E8
:10436000102F0027CE0188960E94732A9801282BCF
:10437000C901DF91CF911F910F910895462F84308D
:1043800038F4743028F4633018F4672F0C949821B3
:1043900080E090E00895CF93C82F811102C06FEFA5
:1043A00001C061E283E290E00E94812AC11102C053
:1043B0006FEF01C061E184E290E00E94812AC111A7
:1043C00002C06FEF01C066E285E290E0CF910C94ED
:1043D000812A80E00E94CB2160E086E290E00E948A
:1043E000812A0E9464210E94542181E00C94CB21F7
:1043F00083E290E00E94732A813281F484E290E0AB
:104400000E94732A813151F485E290E00E94732A60
:1044100091E0863209F090E0892F01C080E0817040
:1044200008950E94C81F20911C02211104C02091F0
:104430001D02222321F090931902809318022091EB
:104440001E02211104C020911F02222321F090930B
:10445000170280931602E0912B02F0912C02309704
:1044600049F082E080931A020480F581E02D8AE110
:1044700092E009940895803F39F490911D0297FFCE
:1044800035C010921D0259C0813F29F490911D0240
:104490001916BCF32BC090911C02823F29F497FFA0
:1044A00025C010921C0249C0833F19F41916CCF3A1
:1044B0001DC090911E02893F29F41916BCF4109278
:1044C0001E023BC08A3F19F497FF10C0F8CF8B3F04
:1044D00039F490911F0297FF09C010921F022DC05E
:1044E0008C3F21F490911F021916BCF39CE0980FA9
:1044F000953080F421E030E0A90102C0440F551F3F
:104500009A95E2F7CA01809590911B0289238093C6
:104510001B0213C08D3F21F4809115028E7F0BC0CA
:104520008E3F21F4809115028D7F05C08F3F29F4C5
:10453000809115028B7F8093150280911C0281115E
:1045400006C080911D02811102C010921402809158
:104550001E02811106C080911F02811102C01092BB
:10456000130208958091150280FD16C081FD16C0CA
:1045700082FD18C080911302882391F0883290F454
:1045800028E0829FC001112468E270E00E94F82AAE
:10459000862F672B29F007C082E0089584E00895F4
:1045A00081E0089588E008958091150280FD14C08F
:1045B00081FD14C082FD16C080911402882381F011
:1045C000843180F422E3829FC001112464E170E011
:1045D0000E94F82A862F08958CE0089589E10895B5
:1045E00085E0089582E30895803F21F40E94D4225B
:1045F000819504C0813F29F40E94D42280931D023A
:104600000895823F21F40E94D422819504C0833F03
:1046100029F40E94D42280931C020895893F19F442
:104620000E94B22205C08A3F31F40E94B2228195D5
:1046300080931E0208958B3F21F40E94B22281953F
:1046400004C08C3F29F40E94B22280931F02089577
:104650009CE0980F953078F421E030E0A90102C089
:10466000440F551F9A95E2F7CA0190911B02892BBE
:1046700080931B0208958D3F21F480911502816083
:104680000BC08E3F21F480911502826005C08F3FE0
:1046900029F4809115028460809315020895CF93C8
:1046A000DF93C091E605D091E7058A30B1F42091FF
:1046B000DD03CE01805E9340622F70E00E94172AD6
:1046C000281B822F66E00E94EC2AC82FC15008F4F4
:1046D0008FC080E20E944F23F9CF8D30E9F4C05E95
:1046E000D3402091DD03622F70E0CE010E94172A93
:1046F000281B822F9E01280F311D2115324018F0F2
:1047000080E0C0E0D0E0C80FD11DC052DC4FD09394
:10471000E705C093E6056CC096E0FE01A0EEB5E0AB
:1047200001900D929A95E1F7803E30F086E0FE010F
:1047300011928A95E9F70BC0F6E08F9FB001112422
:10474000685E7A4F46E050E0CE010E94492AC0914F
:10475000E605D091E70546E050E0BE0180EE95E029
:104760000E94192B892B49F19E01205E3340A9013B
:1047700085E0569547958A95E1F781E090E0BC0188
:1047800002C0660F771F4A95E2F74091DE03509111
:10479000DF03462B572B2B5F3F4F65E03695279560
:1047A0006A95E1F702C0880F991F2A95E2F7842BDA
:1047B000952B9093DF038093DE039E012A5D3340A7
:1047C0004091DD03642F70E0C9010E94172A481B45
:1047D000463010F4240F311D211582E0380710F007
:1047E00020E030E020523C4F3093E7052093E6056F
:1047F000DF91CF9108958091DC03982F96709630C9
:1048000011F4886001C0877F0C94E127EF92FF923A
:104810000F931F93CF93DF93EC017B0164E670E06D
:1048200088E70E940E298C01EC0EFD1ECE15DF05D7
:1048300061F017FD0AC0FE01849164E670E00E94F9
:104840008F298C012196892B89F30E94132AC80194
:10485000DF91CF911F910F91FF90EF900895EF920C
:10486000FF920F931F93CF93DF937C018B010E94E4
:10487000F21C811119C0E70101151105A1F0809109
:10488000E80085FD0AC08091E8008E778093E800FB
:104890000E94F21C882381F307C089918093F10064
:1048A00001501109E9CF80E0DF91CF911F910F9165
:1048B000FF90EF900895809112018F3FA9F410921C
:1048C000DB0381E08093DA038CB58CBD8091DA0341
:1048D000882319F08DB581608DBD84E3809312012A
:1048E000249A2C9881E0089580E008951092D203D4
:1048F0001092D303E4EDF3E01482158208951F9320
:10490000CF93DF93CDB7DEB764970FB6F894DEBFD1
:104910000FBECDBFE091D9039091D803E91709F4F8
:104920003FC0182F669B21C066E970E0CE0101965A
:104930000E943D1D8823A1F18C8187FD0DC020912F
:10494000D9038091D803281759F130E02F5F3F4FEA
:10495000217033272093D903112311F19091D903AA
:104960008091D80398131AC01BC0F0E0EE0FFF1F10
:10497000EC52FC4F808191810E94AD1F8D3291409D
:1049800078F08091D9039091D803891749F090E08D
:104990000196817099278093D90302C06699C4CF8C
:1049A00064960FB6F894DEBF0FBECDBFDF91CF91F6
:1049B0001F9108956F927F928F929F92AF92BF92B4
:1049C000CF92DF92EF92FF920F931F93CF93DF93DB
:1049D000CDB7DEB7A8970FB6F894DEBF0FBECDBF38
:1049E0007C018B016A014901FC0101900020E9F77B
:1049F000CF0101975C01672B61F09091D803809102
:104A0000D903981721F081E00E947F24F6CFF801A6
:104A1000108240E1742E5AE0652EA5014E195F09FF
:104A2000888D41315105DCF07D8A1E8A6F8A80783D
:104A300080618068888FF701DE015996872D01908B
:104A40000D928A95E1F7B401CE0145960E94BA1DF8
:104A5000882309F464C0F0E1EF0EF11CDECF80E1A1
:104A60008D8B1E8A8AE08F8B842F8F77888F5527B6
:104A7000B701CE0149960E94262BB401CE0145967E
:104A80000E94BA1DF82E882309F449C001151105AA
:104A9000E1F40E94C81F8C018091D80390E09C0132
:104AA0002F5F3F4F217033274091D903421709F4FC
:104AB0005AC0880F991FFC01EC52FC4F11830083F0
:104AC0002093D8030E94C81F52C05801AC0CBD1CD3
:104AD00078016CE271E0CE0101960E943D1D8823B1
:104AE000F1F08981803219F0F801108218C08C81B0
:104AF0008F77CA2CCE188C1508F4C82ECC2051F014
:104B0000D12CA601BE016B5F7F4FC7010E94262BEF
:104B1000EC0CFD1C8C8187FDDCCFF70106C0F12C6D
:104B200026C07F0180818A3039F41082F7013197E5
:104B30000E171F07B0F302C08D30B9F36AE070E0C2
:104B4000C8010E943A2B009719F08C010F5F1F4F8C
:104B500065E175E0C8010E94522A21E0892B09F025
:104B600020E0F22E04C080E00E947F2495CF8F2D9C
:104B7000A8960FB6F894DEBF0FBECDBFDF91CF91E0
:104B80001F910F91FF90EF90DF90CF90BF90AF906B
:104B90009F908F907F906F9008958F929F92AF9289
:104BA000BF92CF92DF92EF92FF920F931F93CF931A
:104BB000DF93CDB7DEB77C015B014A01CDB6DEB62F
:104BC0000E94622A01962DB73EB7281B390B0FB6FB
:104BD000F8943EBF0FBE2DBF0DB71EB70F5F1F4F1E
:104BE000B701C8010E945B2A26E930E0A401B501A3
:104BF000C8010E94DA240FB6F894DEBE0FBECDBE07
:104C0000DF91CF911F910F91FF90EF90DF90CF90A8
:104C1000BF90AF909F908F9008958F929F92AF9288
:104C2000BF92CF92DF92EF92FF920F931F93CF9399
:104C3000DF93CDB7DEB7CA57D1090FB6F894DEBF00
:104C40000FBECDBF7C019091D8038091D9039813FA
:104C500001C19091D3038091D203981709F4FAC04F
:104C60008AE0899F900111242E5B3D4FF901DE01FE
:104C7000AF58BF4F01900D928A95E1F7F901C080BE
:104C800015810681D780908481840E94C81F9093EB
:104C9000410280934002F1E0CF1679F1CF1628F05F
:104CA00022E0C21609F452C0BAC06CED74E0CE0125
:104CB00001965C010E945B2A1F928F921F929F9225
:104CC0001F92DF921F920F931F921F93E6968FAD54
:104CD000E6971F928F93E5968FADE5971F928F937E
:104CE000BF92AF921F9280E38F938E010F5B1F4F95
:104CF0001F930F930E94452B1BC061EC74E08E0143
:104D00000F5F1F4FC8010E945B2AE6968FADE697A2
:104D10008F93E5968FADE5978F931F930F931F9217
:104D200080E38F93005C1F4F1F930F930E94452BCE
:104D3000970140E050E060E070E0C8010E94DA2492
:104D40000FB6F894DEBF0FBECDBF67C062EA74E055
:104D5000CE0101965C010E945B2A802F002E000C80
:104D6000990B9F930F93812F012E000C990B9F930A
:104D70001F93E6968FADE697282F082E000C330B75
:104D80003F938F93E5968FADE597282F082E000C63
:104D9000330B3F938F93BF92AF921F9280E38F9319
:104DA0008E010F5B1F4F1F930F930E94452B97019E
:104DB00040E050E060E070E0C8010E94DA240FB6E5
:104DC000F894DEBF0FBECDBF8823C1F16CE874E05C
:104DD000C8010E945B2AD0FE05C062E771E0C801ED
:104DE0000E942F2BD1FE05C064E771E0C8010E942C
:104DF0002F2BD2FE03C066E771E004C0D11005C0BE
:104E000068E771E0C8010E942F2B970140E050E055
:104E100060E070E0C8010E94DA24882379F0809174
:104E2000D3039091D2038917A9F090E0019668E22C
:104E300070E00E94F82A8093D3030CC0FFE729EAB0
:104E400033E0F15020403040E1F700C0000081E045
:104E50000E947F24C658DF4F0FB6F894DEBF0FBE06
:104E6000CDBFDF91CF911F910F91FF90EF90DF9019
:104E7000CF90BF90AF909F908F90089580E090E08A
:104E80000E94992080E090E00E9483201092F4011B
:104E90001092F3010E94FF14EAE1F2E086E0DF01E4
:104EA0001D928A95E9F71092140210921302109243
:104EB00015020C941122CF92DF92FF920F931F9351
:104EC000CF93DF936C010091DC038091F701082BF5
:104ED000C7E0D0E010E0C8010C2E02C09595879580
:104EE0000A94E2F780FD04C02197A8F7F12C09C0CD
:104EF000FC2EB6018C2F0E94BE210E94E412019765
:104F000099F38F2DDF91CF911F910F91FF90DF903B
:104F1000CF900895292F220F920F890F682F669541
:104F200066956695982F977083E0689FB00111246D
:104F300040E050E080E0FB01E40FF51FE851FA4F3C
:104F4000208130E0092E02C0369527950A94E2F7B9
:104F500021703327042E01C0220F0A94EAF7822B16
:104F60004F5F5F4F4330510531F70895292F220FCE
:104F7000920F890FE82FE695E695E695877051E048
:104F800001C0550F8A95EAF783E0E89FF0011124EC
:104F9000E851FA4F20E030E070E04081CB01022E72
:104FA00002C0969587950A94E2F7817081958427CF
:104FB0008523842781932F5F3F4F2330310569F785
:104FC00008958093DC030C943E2721E030E001C07B
:104FD000220F8A95EAF720958091DC0382230C94B6
:104FE000E12721E030E001C0220F8A95EAF78091A5
:104FF000DC03822B0C94E1278093F7010C943E276D
:10500000FC01808191810E94D915292F2F70E92FF1
:10501000E295EF704E2F50E0FA013297EE30F10535
:10502000B8F4E158FF4F0C940C2B803F99F018F422
:10503000883E70F40FC0843F59F40CC0883E50F095
:10504000813F31F407C0822F869586958695089515
:1050500080E0089581E008951092F50186E0E4EB88
:10506000F1E0DF011D928A95E9F70C943E27882331
:1050700041F080959091F50189238093F5010C947E
:10508000FF140895882339F09091F501892B8093BE
:10509000F5010C94FF1408958823E1F19CEF980F1B
:1050A000913A60F4E2EBF1E09281891301C012823F
:1050B000319641E0E83BF407B9F714C090E2980F4D
:1050C000983090F4877021E030E0A90102C0440FCD
:1050D000551F8A95E2F7CA0180959091F5018923C1
:1050E0008093F5010C94FF149BE5980F933020F406
:1050F00080E090E00C94992098E5980F973120F487
:1051000080E090E00C948320803F20F00E943B22BE
:105110000C9411220895CF93882309F459C0C82F05
:105120008CEF8C0F813AF8F4E4EBF1E08AEB91E03C
:105130002191C21721F08E179F07D1F70EC0E2EB25
:10514000F1E088EB91E02281C21301C01282319616
:105150008E179F07C1F70E94FF146C2F82EB91E01E
:105160000E94692010C080E28C0F883078F4C770EC
:1051700081E090E001C0880FCA95EAF79091F501AF
:10518000892B8093F501CF910C94FF14EBE5EC0F84
:10519000E33040F4F0E0EE5CFE4F808190E0CF9190
:1051A0000C949920E8E5EC0FE73150F4F0E0EE0FB5
:1051B000FF1FEB5CFE4F80819181CF910C94832087
:1051C000C03F30F08C2F0E94F422CF910C9411221A
:1051D000CF9108951F93CF93DF93182F893319F040
:1051E000C0E0D0E002C0C0E5D0E0812F0E948B2853
:1051F000209741F08FEC97E00197F1F700C0000095
:105200002197F6CF812FDF91CF911F910C944C28DD
:105210001092B90082E08093B80008959F92AF92F7
:10522000BF92CF92DF92EF92FF920F931F93CF9393
:10523000DF93B82EEB010E94C81F6C01C431D10569
:1052400058F0CF3F8FEFD80759F0CE0164E170E0FE
:105250000E94172A7B0107C0EE24E394F12C03C0BF
:1052600025E0E22EF12C84E8A82E94EA992E1092E3
:10527000BC009092BC000E94C81F8C018091BC00B1
:1052800087FD08C00E94C81F801B910B8E159F05CB
:10529000A8F32AC08091B900887F883041F08091BE
:1052A000B900887F803119F00FEF1FEF1FC0B09257
:1052B000BB00A092BC000E94C81F8C018091BC0062
:1052C00087FD08C00E94C81F801B910B8E159F058B
:1052D000A8F30AC08091B900887F883111F080342A
:1052E00019F700E010E00EC00EEF1FEFCF3F8FEF79
:1052F000D80709F4BCCFC6010E94AD1F8C179D07CB
:1053000008F4B5CFC801DF91CF911F910F91FF90A5
:10531000EF90DF90CF90BF90AF909F9008950F9344
:105320001F93CF93DF93EB018093BB0084E88093BE
:10533000BC000E94C81F8C018091BC0087FD0EC07C
:10534000CF3F8FEFD807C1F30E94C81F801B910B7E
:105350008C179D0788F38EEF9FEF0CC02091B9004A
:10536000287F81E090E0283211F480E090E0919570
:1053700081959109DF91CF911F910F910895CF925F
:10538000DF92EF92FF920F931F93CF93DF936B0106
:105390008A017901B9010E940E29E6010C0D1D1D3B
:1053A000C017D10761F424E92093BC00DF91CF91AD
:1053B0001F910F91FF90EF90DF90CF90089597FD90
:1053C000F2CFB70189910E948F29EACFCF92DF9265
:1053D000EF92FF920F931F93CF93DF93C62F6A0133
:1053E0007901B8010E940E2997FD11C0B8018C2FD8
:1053F0000E948F29E601EC0CFD1CCE15DF0539F06B
:1054000097FD05C0B80189910E948F29F6CF24E944
:105410002093BC00DF91CF911F910F91FF90EF90EF
:10542000DF90CF90089584E98093BC000895AA1B73
:10543000BB1B51E107C0AA1FBB1FA617B70710F07F
:10544000A61BB70B881F991F5A95A9F780959095B1
:10545000BC01CD010895FC0188279927E89421918A
:105460002032E9F3293010F02E30C8F32B3241F00E
:105470002D3239F4689404C00E946B2A820F911D6A
:10548000219120532A30C0F31EF4909581959F4FAF
:105490000895FB01DC0102C005900D92415050407F
:1054A000D8F70895FB01DC018D910590801901105A
:1054B000D9F3990B0895FB01DC0105900D920020B2
:1054C000E1F70895FC0105900020E9F7809590959B
:1054D0008E0F9F1F08957AE0979F902D879F802DB4
:1054E000910D11240895F999FECF92BD81BDF89ACE
:1054F000992780B50895A8E1B0E042E050E00C940F
:10550000A72A262FF999FECF92BD81BDF89A01975F
:1055100000B4021639F01FBA20BD0FB6F894FA9AFB
:10552000F99A0FBE08950396272F0E94822A0E949F
:10553000812A252F0E94822A242F0C94822A0196E8
:10554000272F0E94822A0C94812ADC01CB01FC01C6
:10555000F999FECF06C0F2BDE1BDF89A319600B4CC
:105560000D9241505040B8F708952F923F924F92BC
:105570005F926F927F928F929F92AF92BF92CF92E3
:10558000DF92EF92FF920F931F93CF93DF93CDB7EC
:10559000DEB7CA1BDB0B0FB6F894DEBF0FBECDBF64
:1055A00009942A88398848885F846E847D848C8435
:1055B0009B84AA84B984C884DF80EE80FD800C813E
:1055C0001B81AA81B981CE0FD11D0FB6F894DEBF21
:1055D0000FBECDBFED010895991B79E004C0991F5E
:1055E000961708F0961B881F7A95C9F7809508953D
:1055F00097FB072E16F4009407D077FD09D00E9480
:10560000172A07FC05D03EF4909581959F4F089589
:10561000709561957F4F0895EE0FFF1F0590F491EF
:10562000E02D099469279627692778278727782707
:105630000895FB01DC0104C08D910190801921F4D3
:1056400041505040C8F7881B990B0895FB01DC01BD
:1056500002C001900D9241505040D8F70895FB01CF
:10566000DC010D900020E9F7119701900D920020C8
:10567000E1F70895FC0181E090E00190061609F43D
:10568000CF010020D1F701970895AEE0B0E0EBE440
:10569000FBE20C94C32A0D891E898F89988D26E020
:1056A0002C831A83098397FF02C080E090E801975A
:1056B0009E838D83AE01455E5F4F698D7A8DCE01ED
:1056C00001960E94752B4D815E8157FD0AC02F8186
:1056D0003885421753070CF49A01F801E20FF31FC3
:1056E00010822E96E4E00C94DF2AABE0B0E0EBE70A
:1056F000FBE20C94B52A6C017B018A01FC01178244
:105700001682838181FFCCC1CE0101963C01F60156
:105710009381F70193FD859193FF81917F01882308
:1057200009F4BAC1853239F493FD859193FF8191D3
:105730007F01853229F4B60190E00E946C2DE7CFFD
:10574000912C212C312CFFE1F315D8F08B3279F01C
:1057500038F4803279F08332A1F4232D20611DC00A
:105760008D3261F0803369F4232D216016C0832DC2
:105770008260382EE32DE4603E2E2AC0F32DF860BF
:105780001DC037FC2DC020ED280F2A3040F08E328E
:10579000B9F436FC81C1232D2064322E19C036FEA7
:1057A00006C08AE0989E200D1124922E11C0EAE0D6
:1057B0002E9E200D1124222EF32DF0623F2E08C0C4
:1057C0008C3621F4832D8068382E02C0883641F44F
:1057D000F70193FD859193FF81917F018111B3CFF3
:1057E000982F9F7D9554933028F40C5F1F4F9FE3B3
:1057F00099830DC0833631F0833771F0833509F01A
:1058000059C021C0F801808189830E5F1F4F882411
:105810008394912C530113C02801F2E04F0E511CC8
:10582000F801A080B18036FE03C0692D70E002C08F
:105830006FEF7FEFC5010E94612D4C018201F32DB6
:10584000FF773F2E16C0280122E0420E511CF801BE
:10585000A080B18036FE03C0692D70E002C06FEFFA
:105860007FEFC5010E94562D4C01F32DF0683F2EAD
:10587000820133FC1BC0822D90E088169906B0F49B
:10588000B60180E290E00E946C2D2A94F4CFF501DD
:1058900037FC859137FE81915F01B60190E00E944F
:1058A0006C2D21102A9421E0821A91088114910410
:1058B00071F7E8C0843611F0893641F5F80137FEFA
:1058C00007C060817181828193810C5F1F4F08C086
:1058D00060817181072E000C880B990B0E5F1F4FA2
:1058E000F32DFF763F2E97FF09C090958095709518
:1058F00061957F4F8F4F9F4FF0683F2E2AE030E039
:10590000A3010E94A82D882E861845C0853731F442
:10591000232D2F7EB22E2AE030E025C0932D997FD3
:10592000B92E8F36C1F018F4883579F0B5C08037BC
:1059300019F0883721F0B0C0E92FE061BE2EB4FE27
:105940000DC0FB2DF460BF2E09C034FE0AC0292F04
:105950002660B22E06C028E030E005C020E130E02D
:1059600002C020E132E0F801B7FE07C0608171811A
:10597000828193810C5F1F4F06C06081718180E03E
:1059800090E00E5F1F4FA3010E94A82D882E86185D
:10599000FB2DFF773F2E36FE0DC0232D2E7FA22E2E
:1059A000891458F434FE0BC032FC09C0832D8E7E5E
:1059B000A82E05C0B82CA32C03C0B82C01C0B92C4C
:1059C000A4FE0FC0FE01E80DF11D8081803321F49B
:1059D0009A2D997EA92E09C0A2FE06C0B394B39455
:1059E00004C08A2D867809F0B394A3FC11C0A0FEF0
:1059F00006C0B21488F4280C922C9B180EC0B21466
:105A000060F4B60180E290E00E946C2DB394F7CF71
:105A1000B21418F42B1802C0982C212CA4FE10C02C
:105A2000B60180E390E00E946C2DA2FE17C0A1FC9D
:105A300003C088E790E002C088E590E0B6010CC0A2
:105A40008A2D867859F0A1FE02C08BE201C080E267
:105A5000A7FC8DE2B60190E00E946C2D891438F409
:105A6000B60180E390E00E946C2D9A94F7CF8A945F
:105A7000F301E80DF11D8081B60190E00E946C2DCC
:105A80008110F5CF222009F442CEB60180E290E0E9
:105A90000E946C2D2A94F6CFF6018681978102C070
:105AA0008FEF9FEF2B96E2E10C94D12AFC01059039
:105AB000615070400110D8F7809590958E0F9F1F10
:105AC0000895FC016150704001900110D8F7809555
:105AD00090958E0F9F1F08950F931F93CF93DF9381
