:100000000C940D040C9454040C9454040C94540457
:100010000C9454040C9454040C9454040C94540400
:100020000C9454040C9454040C942F160C946B15DB
:100030000C94DE1E0C9454040C9454040C9454043C
:100040000C9454040C9454040C9454040C945404D0
:100050000C9496200C9404180C9454040C9454049E
:100060000C9454040C9454040C9454040C945404B0
:100070000C9454040C9454040C9454040C945404A0
:100080000C9454040C9454040C9454040C94540490
:100090000C9454040C9454040C9454040C94540480
:1000A0000C9454040C9454040C9454048D098D093C
:1000B000C809C809220A400A4A0B4A0B4B0ABF0A60
:1000C000D00AD00A830B850B8D0BC30BDC0B9D0B69
:1000D000F70BE90FEC0F14102110281048104B10EB
:1000E000A810E21086118611F110F310F6101B1102
:1000F0003D114011431166117F13A6134D15A61330
:100100004D15F21315144D150A151A15FE27FE2765
:10011000112811280728112811281128FE27FE2749
:100120000C28112811280C280000000000000000F5
:1001300000000000000000000000000000000000BF
:100140000000000000000000000000007E0F00D44E
:10015000FFFFFFC700000078000000000000000063
:100160002A2B280000000000000000000000000012
:1001700000000029000000002C1E3420212224341D
:100180002627252E362D3738271E1F2021222324EF
:1001900025263333362E37381F0405060708090A8B
:1001A0000B0C0D0E0F101112131415161718191A27
:1001B0001B1C1D2F3130232D350405060708090AA5
:1001C0000B0C0D0E0F101112131415161718191A07
:1001D0001B1C1D2F3130354C00047F3F1F6432142F
:1001E000643214783C1E1E140A0505010902A1019F
:1001F00085020901A1000509190129081500250139
:100200009508750181020501093009311581257FA5
:1002100095027508810609381581257F95017508B5
:100220008106050C0A38021581257F950175088124
:1002300006C0C005010980A101850319012AB70084
:10024000150126B700950175108100C0050C090144
:10025000A101850419012AA002150126A002950119
:1002600075108100C00660FF0961A10109621500D7
:1002700026FF009520750881020963150026FF00FE
:10028000952075089102C005010906A1010507190D
:10029000E029E71500250195087501810295017592
:1002A0000881010507190029FF150026FF009506A2
:1002B0007508810005081901290595057501910248
:1002C000950175039101C009025B00030100A0FACA
:1002D00009040000010301010009211101000122AC
:1002E00040000705810308000A0904010002030019
:1002F00000000921110100012222000705820320CC
:1003000000010705030320000109040200010300A6
:100310000000092111010001227B00070584032050
:10032000000A1201000200000008E1AC495401007B
:1003300001020001100374006900740061006E0086
:1003400036003000000018034100630065006B00B8
:100350006500790062006F006100720064000000B7
:10036000040309042223252628292A2C2D2F303284
:10037000333536383A3B3D3E4042434547494A4C87
:100380004E5051535557595A5C5E606264666869B5
:100390006B6D6F71737577797B7D7F8183858789BD
:1003A0008A8C8E90929496989A9C9E9FA1A3A5A7C2
:1003B000A8AAACAEAFB1B3B4B6B8B9BBBCBEBFC1EE
:1003C000C2C3C5C6C7C9CACBCCCDCED0D1D2D2D379
:1003D000D4D5D6D7D7D8D9D9DADADBDBDBDCDCDC8D
:1003E000DCDCDDDDDDDDDCDCDCDCDCDBDBDBDADA50
:1003F000D9D9D8D7D7D6D5D4D3D2D2D1D0CECDCCC7
:10040000CBCAC9C7C6C5C3C2C1BFBEBCBBB9B8B6DB
:10041000B4B3B1AFAEACAAA8A7A5A3A19F9E9C9A66
:1004200098969492908E8C8A89878583817F7D7B34
:1004300079777573716F6D6B6968666462605E5C15
:100440005A5957555351504E4C4A494745434240DB
:100450003E3D3B3A3836353332302F2D2C2A292871
:1004600026252322000000000000000000000001FB
:10047000010203040506080A0C0F1114181C20249D
:10048000292E33393F464C535B626A7179818A92D7
:100490009AA2AAB2B9C1C8CFD5DCE1E7EBF0F4F774
:1004A000FAFCFDFEFFFEFDFCFAF7F4F0EBE7E1DC01
:1004B000D5CFC8C1B9B2AAA29A928A8179716A626B
:1004C0005B534C463F39332E2924201C1814110F3E
:1004D0000C0A0806050403020101000000000000E8
:1004E0000000000029001E001F0020002100220043
:1004F000230024002500260027002D002E002A00BE
:100500002B0014001A000800150017001C0018002A
:100510000C00120013002F003000310039000400DD
:100520001600070009000A000B000D000E000F0066
:100530003300340000002800E10000001D001B0013
:1005400006001900050011001000360037003800C1
:10055000E5000000E000E300E20000000000000011
:100560002C00000000000000E600E7000151E4005C
:100570000100010001000100010001000100010073
:100580000100010001000100010001000100010063
:100590000100010001000100010001000100010053
:1005A0000100010001000100010001000100010043
:1005B0000100010001000100010001000100010033
:1005C0000000010001000000010001000100010025
:1005D0000100010001000100010001000100000014
:1005E0000100010001000000000000000100000007
:1005F00000000000010001000100010001000100F5
:1006000001000100010001000100010001000100E2
:1006100001000100010001000100010001000100D2
:1006200001000100010001000100010001000100C2
:1006300001000100010001000100010001000100B2
:1006400001000100010001000100010000000100A3
:100650000100000001000100010001000100010093
:100660000100010001000100010000000100010083
:100670000100000000000000010000000000000078
:100680000100010001000100010001000100010062
:100690000100010001000100010001000100010052
:1006A0000100010001000100010001000100010042
:1006B0000100010001000100010001000100010032
:1006C0000100010001000100010001000100010022
:1006D0000100010001000100000001000100000014
:1006E0000100010001000100010001000100010002
:1006F00001000100010000000100010001000000F4
:1007000000000000010000000000000001000100E6
:1007100001000100000101010101010101010202CA
:10072000020202020202020303030303030303049F
:10073000040404040404050505050506060606066A
:10074000070707070708080808090909090A0A0A24
:100750000B0B0B0C0C0C0D0D0D0E0E0E0F0F0F10C6
:100760001011111112121313141415151616171750
:10077000181819191A1A1B1B1C1D1D1E1E1F2020BC
:10078000212222232424252626272829292A2B2C06
:100790002D2D2E2F30313232333435363738393A29
:1007A0003B3C3D3E3F404142434445464748494A21
:1007B0004C4D4E4F50515354555658595A5B5D5EEF
:1007C0005F616264656668696B6C6D6F707273758A
:1007D00077787A7B7D7E8082838587888A8C8E8FEE
:1007E00091939596989A9C9EA0A2A3A5A7A9ABAD1C
:1007F000AFB1B3B5B7BABCBEC0C2C4C6C9CBCDCF0A
:10080000D1D4D6D8DBDDDFE2E4E7E9EBEEF0F3F5B7
:10081000F8FAFDFFFFAA7F55400011241FBECFEF5D
:10082000DAE0DEBFCDBF04B603FE27C080917A02B6
:1008300090917B02A0917C02B0917D028730904B19
:10084000A740B04BD1F410927A0210927B02109222
:100850007C0210927D0214BE84B7877F84BF0FB6DE
:10086000F894A89580916000886180936000109250
:1008700060000FBEE0E0F8E3099511E0A0E0B1E010
:10088000E8EEF4E502C005900D92A239B107D9F760
:1008900022E0A2E9B1E001C01D92AA37B207E1F758
:1008A0000E94220C0C94722A0C9400001F93CF9388
:1008B000DF93CDB7DEB767970FB6F894DEBF0FBEF4
:1008C000CDBF4B8B5C8B6D8B7E8B8F8B61111092B0
:1008D0001B0286E09E01235F3F4FD901E82F1D9246
:1008E000EA95E9F795E0FE017396D90101900D9222
:1008F0009A95E1F79C894E895F897B897D879E87E0
:100900006F87598B488BF901DE01179601900D9284
:100910008A95E1F7CE0107960E949C1C81113EC08A
:1009200086E0FE013796DE01119601900D928A95C0
:10093000E1F7FF81E8856A857B856115710531F0F6
:10094000EF3F31F481E0FF3F19F403C081E001C0C3
:1009500080E080FD23C02091E70130E0C9010196CD
:10096000877099274091180250E08417950779F114
:10097000F983EA837D836C8396E0929FD001939FF5
:10098000B00D1124A851BE4FFE01319601900D9279
:100990009A95E1F78093E7010E94191C16E0809177
:1009A00018029091E7018917F9F0189FC0011124EE
:1009B00088519E4F0E949C1C8823B1F080911802A0
:1009C00090E001968770992780931802E8CF0E94E3
:1009D00015281092E70110921802E1EEF1E086E08E
:1009E000DF011D928A95E9F767960FB6F894DEBF8E
:1009F0000FBECDBFDF91CF911F9108953F924F92CF
:100A00005F926F927F928F929F92AF92BF92CF929E
:100A1000DF92EF92FF920F931F93CF93DF93CDB7A7
:100A2000DEB729970FB6F894DEBF0FBECDBFFC012D
:100A30008081918123813481232B31F09F3F31F4D8
:100A400091E08F3F19F403C091E001C090E090FD68
:100A5000E1C67F0185E0DE01119601900D928A9535
:100A6000E1F7F701228189819A81222349F00E94CE
:100A70004427182F682F89819A810E949F2703C0DD
:100A80000E947327182F69817A81812F0E94432049
:100A90008C01F7018281882309F4F2C09801225168
:100AA0003F452031310508F019C18FEF93E00E94D6
:100AB0005E298111EFC0025137E5832E32E0932E7B
:100AC000002379F08114F4E09F0609F4E3C0C40127
:100AD0000E945E29811101C001502FEF821A920AF3
:100AE000EFCF1E821F8218861986442443942AE081
:100AF000322E84010F5F1F4FC4010E945E298E8336
:100B00001F82882309F4C6C09FEF980F933060F4CA
:100B10008F834E8232E0830E911CC8010E945E29B1
:100B20008887811102C0B6C048018E010A5F1F4F3D
:100B3000F80120812223E9F2213009F04CC08181A3
:100B4000813049F46801F2E0CF0ED11CF8018281B6
:100B50000E9440290AC0823051F46801F2E0CF0EB1
:100B6000D11CF80182810E949C28860186C08330B6
:100B700049F46801F2E0CF0ED11CF80182810E9495
:100B80003528F3CF843019F00F5F1F4F76C0F8017E
:100B900022810E5F1F4F80E090E030E0205331094A
:100BA0002A30310568F4389EA001399E500D112479
:100BB000C901840F951F0F5F1F4FF8012081EDCFF2
:100BC000009709F45AC0EFE9FFE03197F1F700C050
:100BD00000000197F5CFE22FF0E0E85AFE4F549065
:100BE000822F86958695869590E0FC01E85BFE4F06
:100BF00064902770712C022E02C0759467940A9439
:100C0000E2F7F1E06F227724FC01E85CFE4FA4904C
:100C1000B12C022E02C0B594A7940A94E2F731E0F9
:100C2000A322BB24FC01E85DFE4FC490D12C02C07E
:100C3000D594C7942A95E2F781E0C822DD24611497
:100C4000710419F081EE0E949C28A114B10419F0DE
:100C500086EE0E949C28852D0E944029AB2819F021
:100C600086EE0E943528672819F081EE0E9435280B
:100C7000CD2819F08CE20E9440290F5F1F4F58CFFA
:100C800000313FE5130709F0BCC581E00E94CE2783
:100C90000E948E1280911902877009F4BBC5F7017A
:100CA0008281882309F4B6C582E029960FB6F894AC
:100CB000DEBF0FBECDBFDF91CF911F910F91FF908F
:100CC000EF90DF90CF90BF90AF909F908F907F90EC
:100CD0006F905F904F903F900C94FC1B0031FFE5AC
:100CE0001F0711F481E005C001312FE5120721F43F
:100CF00082E00E94DA27CCCFF801EB5BFC45E730BD
:100D0000F10508F4FCC4033FFCE51F0799F406E273
:100D100021EE40EE63EF7CE509C0073DECE51E07E0
:100D200011F506E221EE41EE67ED7CE5C7010E9478
:100D3000661FB0CF043F2CE5120708F046C1083DFE
:100D40003CE5130731F407E225EE45EE68ED7CE55E
:100D5000EDCF093D9CE5190701F708E221E045EEDA
:100D600069ED7CE5E3CF882309F464C110924A025F
:100D700003309DE5190758F40A3FECE51E0760F4BF
:100D8000C80182509C45449708F03EC105C0013619
:100D9000FDE51F0709F038C10E94291B90939601B9
:100DA0008093950100312CE5120709F4CAC008F0C0
:100DB00041C008308CE5180709F4A4C0F0F40430F1
:100DC000ECE51E0709F48CC068F402302CE512072C
:100DD00009F482C003301C4509F0E7C080919501F9
:100DE0008260E1C006308CE5180709F483C008F082
:100DF00085C0809195018860D6C00C30ECE51E0757
:100E000009F490C068F40A302CE5120709F47EC09A
:100E100008F084C00E941528809195018068C3C0A5
:100E20000E308CE5180709F481C008F086C0809167
:100E3000950194C00C3FECE51E0709F47BC038F522
:100E400004312CE5120709F49AC058F402318CE5FC
:100E5000180709F47AC008F07EC0809195018F7B55
:100E6000A2C00A3FECE51E07F1F108F03FC00531D2
:100E70001C4509F09AC08091950182FB222720F938
:100E800091E0922790FB82F990FB83F98CC00115C9
:100E90003DE5130709F467C050F4809196010E3FB9
:100EA0009CE51907C1F108F05BC08D7F65C0023079
:100EB000FDE51F0709F471C008F46DC001361D453A
:100EC00009F073C08091950184FB222720F991E0FD
:100ED000922790FB84F967C080919501816063C07F
:100EE0008091950116C08091960116C0809196015F
:100EF000826042C080919501806155C080919501CA
:100F0000806251C08091950180644DC080919501AF
:100F10008860846048C0826081602EC080919501A5
:100F20008E7F41C0809195018D7F3DC0809195015C
:100F3000877F39C08091960114C0809195018F7E82
:100F400032C0809195018F7D2EC00E94152880911E
:100F500095018F7728C080919501877F8B7F23C073
:100F60008D7F8E7F09C080919601982F909591700A
:100F70008E7F892B90FB81F98093960116C00E9489
:100F800015288091950187FB222720F991E092276F
:100F900090FB87F908C061E001C060E08EE090E05E
:100FA0000E94722902C08093950160919501109171
:100FB000960184E090E00E947229612F82E290E025
:100FC0000E9472290E94152865CE053FFCE51F0787
:100FD00031F406E221EE42EE65EF7CE5A7CE053F57
:100FE0002CE5120730F407E225EE44EE64EF7CE5D1
:100FF0009DCE063F3CE5130709F0B5CE07E225EE8E
:1010000046EE66EF7CE592CE80911C0206319CE5AF
:10101000190709F58A7A91E009F490E09093940118
:10102000882311F065E301C069E289ED91E00E9437
:10103000141F0EC006311C4509F026C18091940191
:10104000882309F4E5C365E389ED91E00E94071F59
:101050000E94B51B1FCE82720C3C9CE5190709F457
:10106000C2C008F045C0063CFCE51F0709F4A7C054
:10107000D8F4033C3CE5130709F497C030F4023C74
:10108000ECE51E0709F46CC0CEC0043CFCE51F076C
:1010900009F490C0053C2CE5120709F0C4C049E8EA
:1010A00055E262E975E2A3C0093C3CE5130709F487
:1010B00090C078F4073CECE51E0709F485C0083CB5
:1010C000FCE51F0709F0AFC04DE755E261E775E2A7
:1010D0008EC00A3C2CE5120709F480C00B3C3CE5AD
:1010E000130709F0A0C04DED53E26EEE73E27FC02E
:1010F000013D8CE5180709F486C0A0F40E3CECE530
:101100001E0709F47AC008F475C00F3C2CE51207DD
:1011100009F476C0003D3CE5130709F084C06EE099
:1011200089E079C0043D8CE5180709F472C068F4C1
:10113000023DECE51E0709F469C0033DFCE51F070D
:1011400009F071C061E088E16BC0053D2CE5120734
:1011500009F464C00D353DE5130709F49BCD63C068
:1011600080913F0280FF1BC08E7F80933F02609181
:101170003F027091400280914102909142020E9490
:10118000CB23109229028FEF90E7E2E0815090404C
:10119000E040E1F700C000000E94C9217BCD8160E2
:1011A00080933F0261E086953BC046ED55E26FEDCE
:1011B00075E21DC04FED55E266ED75E218C042E9DB
:1011C00055E269E875E213C041E755E26DE775E263
:1011D0000EC049E555E265E675E209C045E655E20F
:1011E00069E575E204C04EEE53E26DED73E20E94D4
:1011F000AD2150CD61E081E013C065E082E00BC01D
:1012000068E086E008C064E18FE005C067E185E141
:1012100002C062E289E10E949B213CCD61E083E251
:101220000E949B2537CD0A35FDE51F0741F150F49B
:1012300001153CE51307A9F00E3D1C4529F50E9458
:10124000451B28CD0B359DE51907D9F00C351D45FB
:10125000D9F48091960182FB882780F991E0892753
:1012600011C00E941528FFEF24E33CE0F15020401C
:101270003040E1F700C000000E94E0170BCD81E094
:1012800001C080E00E94E21BF70182810081118190
:10129000882349F0C8010E944427D82E682FC8012E
:1012A0000E949F2704C0C8010E947327D82EB8014E
:1012B0008D2D0E9443200E948F19B82E192F982E31
:1012C000F7010281A580A2949FE0A92280911902D2
:1012D000877099F0002389F0812F807F803421F07E
:1012E00080E28B0D883048F082E00E94FC1B8091E8
:1012F00019028770DD24D3948111D12CC12EC294A0
:101300008FE0C8228C2D90E08C30910508F0C2C18E
:10131000FC01EA5AFF4F0C940E2A812F807F1F7028
:10132000882311F01295107F0023B9F0112309F4DE
:101330009DC180E28B0D883010F0911006C0809125
:101340001C02182B10931C0205C080911B02182B45
:1013500010931B020E94B51B89C18B2D0E9435285A
:10136000112309F497C180E28B0D1095883010F09D
:10137000911006C080911C02182310931C0205C016
:1013800080911B02182310931B020E94B51B82C17F
:10139000812F807F1F70803211F01295107F8B2D6E
:1013A000992021F0F1E09F1611F130C00023B1F037
:1013B000AA2081F021E0A2120DC08091960182FD49
:1013C00069C180911D02182B181709F463C110938D
:1013D0001D0260C180911D02812B10C0AA2021F046
:1013E00031E0A31609F456C10E94AF1B27C00023A9
:1013F00041F085E08A1508F44DC1812F0E942B2809
:1014000049C194E09A1508F445C118C0002349F079
:10141000AA2099F3F701858180FF28C18F70858309
:10142000ECCFAA2059F0893309F031C1FFEF27EE44
:1014300033E0F15020403040E1F727C1812F0E9476
:10144000202828C1812F86958695837019F08130D8
:1014500061F020C1002321F08B2D912F937002C0E9
:1014600080E090E00E94441F1BC1002321F08B2DDF
:10147000912F937002C080E090E00E942E1F10C157
:101480008B2D002319F00E94CC2602C00E94132647
:101490000E94E92505C1812F8370A9F50111FEC0C5
:1014A0004B2D429546954770440F440F8B2D8F70FE
:1014B00090E09C01042E01C0220F0A94EAF7B4FECA
:1014C00008C08FE090E001C0880F4A95EAF7809548
:1014D00001C080E0169516951370123069F088F4FB
:1014E00090911E02113019F0822B892302C0922B99
:1014F000892B0E94E527D2C0822B90911E0289275A
:10150000F8CF822BF6CF002319F0812F817001C014
:101510008695882309F4C2C04B2D429546954770A5
:10152000440F440F8B2D8F7090E09C01042E01C05E
:10153000220F0A94EAF7B4FE08C08FE090E001C0E1
:10154000880F4A95EAF7809501C080E016951695B8
:101550001370123059F078F49091D801113019F0CD
:10156000822B892309C0922B892B06C0822B909154
:10157000D801892701C0822B0E94CA278FC01F7003
:10158000002339F0812F0E94DA278B2D0E942B280F
:1015900085C08B2D0E942028812F0E94CE277EC0DF
:1015A0008B2D92EF991659F1991538F0E0EF9E16B0
:1015B00059F0F1EF9F16F1F055C023EF921631F17B
:1015C00034EF931681F14EC0002379F084E08A1540
:1015D00008F460C01F7181E090E001C0880F1A9587
:1015E000EAF79091D80189271BC095E09A1508F475
:1015F00051C0F0CF002329F0812F8F7126C0002326
:10160000D9F3812F8F710E94CE2744C0002339F077
:101610001F7181E001C0880F1A95EAF701C080E0D0
:101620000E94CA2737C0002399F01F71812F0E94A2
:10163000DA278091960182FD07C0E8E01E9FC00175
:101640001124836080931902812F0E94DA2722C01F
:1016500081E00E94FC1BF1E0FA15E0F482E00E94B8
:10166000FC1B18C0002331F0AA2031F28B2D0E9400
:101670009C2810C0AA2029F2893349F42FEF37EEB5
:1016800083E0215030408040E1F700C000008B2D06
:101690000E94352888EF8C0D843010F40E945A1F68
:1016A000DD2009F4B7C08091190280FDB3C0F701B5
:1016B00012828595859585950E94DA27C7010E943B
:1016C000FE048091190285958595859529960FB61A
:1016D000F894DEBF0FBECDBFDF91CF911F910F9168
:1016E000FF90EF90DF90CF90BF90AF909F908F9042
:1016F0007F906F905F904F903F900C94CE27EE5963
:10170000FF4F0C940E2A83E001C080E00E94572115
:10171000809144020E942721BDCA80914402982FE3
:1017200096959695969549F1915E990F990F990F17
:101730008770892B8093440214C090914402892FB2
:101740008695869586958F5F8F719770843008F0A7
:101750004BC0880F880F880F892B8093440280919B
:101760004402887F91E009F490E08091440290FB6C
:1017700080F9809344020E9427218091440286953B
:101780008695869523C020914402822F8695869562
:101790008695482F50E04330510554F48F5F982FC1
:1017A000990F990F990F822F8770892B809344028C
:1017B000809144028160DDCF8091440280FF09C0A6
:1017C0008E7F809344020E94272180E00E94FB20AC
:1017D00061CA816080934402813019F489E080936A
:1017E000440280914402C7CF90934402B8CF8091C5
:1017F000440281FF03C00E942C214CCA0E94422156
:1018000049CA01319FE5190709F07DCA82E03ECA45
:1018100069E21ACC29960FB6F894DEBF0FBECDBF91
:10182000DF91CF911F910F91FF90EF90DF90CF90BC
:10183000BF90AF909F908F907F906F905F904F90F0
:101840003F900895CF93DF93CDB7DEB7AA970FB639
:10185000F894DEBF0FBECDBF84B7877F84BF0FB6BD
:10186000F894A89580916000886180936000109240
:1018700060000FBE90E080E80FB6F894809361009E
:10188000909361000FBE85B7806885BF85B780687B
:1018900085BF85E498E190939301809392010E9423
:1018A000AF150E94CE158091E20084608093E20023
:1018B00078948091CE018823A1F01091E9001F70E7
:1018C0009091EC00892F817090FD80E8182B109288
:1018D000E9008091E80083FD0E9499121F70109327
:1018E000E90082E084BD93E095BD9AEF97BD8093B7
:1018F0006E000E947D20811102C00E946E2009E1CD
:1019000011E0F80181918F018F3F11F00E948A1838
:10191000F1E00E311F07A9F70EE111E0F801819106
:101920008F018F3F11F00E948A18F1E00C321F07DF
:10193000A9F7E7E9F1E0A0EBB1E0119211921D9255
:101940001D9221E0E13AF207C1F70E943A1B811192
:1019500002C00E94451B82E090E00E945E298093B5
:10196000A5010E94291B90939601809395010E94E6
:10197000A1188FE39CE90197F1F700C000000E94D5
:10198000A1188091B00180FF08C06FEF7FEF80E069
:1019900090E00E9490290E94E01783E090E00E946E
:1019A0005E290E94E527279A2F988AE0809380007D
:1019B00089E1809381008FEF9FEF90938700809360
:1019C00086000E9470218091440281FF0BC010921A
:1019D0004702109246021092450280916F0081608A
:1019E00080936F000E9470218091A101811133C00A
:1019F0000E943A1B811104C00E94451B0E94FF23D4
:101A000088E090E00E94662960933F027093400254
:101A100080934102909342026E7F71F40E94FF23F3
:101A200088E090E00E94662960933F027093400234
:101A300080934102909342020E94B823109229029F
:101A400080913F0280FF04C060E086950E949B2544
:101A500081E08093A10180E091E090934E02809319
:101A60004D0278E1C72ED12CE0E45E2EBB24B39466
:101A7000AA24A3948E010F5F1F4F8091CE01853061
:101A800009F078C050E1E52E62E1F62E8091CE019A
:101A9000853009F058C08091CE01843009F440C0EF
:101AA00080E00E94FB20109229028091A301811105
:101AB00016C0A092A30180913F02982F917090933D
:101AC000A2018E7F80933F029FEFE0E7F2E091500A
:101AD000E040F040E1F700C000000E94C9211092F0
:101AE00051020FB6F894A895C09260000FBE5092B4
:101AF000600083B7817F846083BF83B7816083BFC9
:101B00007894889583B78E7F83BF0FB6F894A89595
:101B100080916000886180936000109260000FBE29
:101B20008091CD01882309F4B1CF0E94A118E0EB88
:101B3000F1E081919191892B09F012C421E0EA3BF7
:101B4000F207B9F7A3CF0E9415280E9470210E94C6
:101B50005A1F1092A3018091A201882349F080911D
:101B60003F02816080933F0260E086950E949B2542
:101B70000E94B3210E94A118882359F08FB7F894CE
:101B80004091BA015091BB016091BC017091BD01BF
:101B90008FBFA6EAB1E0E0EBF1E0E12CF12C7E2D65
:101BA000219131918D919D9182279327009779F111
:101BB00060E088248394912CAC0148215921452B65
:101BC00009F169A37AA32821392181E0232B09F4A3
:101BD00080E08BA30E9439188160782F9DA38CA38D
:101BE00049A15AA16BA18DA10E945604F701EE0FE5
:101BF000FF1FEA55FE4F80819181882699269182A8
:101C000080821CC06F5F880C991C6E30A9F63FEF74
:101C1000E31AF30A45E0E416F10409F68FEF8EA308
:101C20008FA318A60E9439188160782F9AA789A7D8
:101C30004EA15FA168A58AA50E9456048091290241
:101C4000882309F498C080912802E0913F02E6952C
:101C5000E81BE0932402823059F4F0E0EA51FE4F91
:101C6000E491EE2EF12C8AEC882E8EE1982E5EC047
:101C7000863059F4F0E0ED51FE4FE491EE2EF12C58
:101C8000BAEB8B2EBEE19B2E51C0893061F4E695F4
:101C9000F0E0E052FE4FE491EE2EF12CADE78A2EFB
:101CA000A3E29A2E43C08F3061F4E695F0E0E35250
:101CB000FE4FE491EE2EF12CF0E18F2EF3E29F2EF9
:101CC00035C0853159F4F0E0E652FE4FE491EE2E36
:101CD000F12CE2EC8E2EE2E29E2E28C08831B1F08B
:101CE000833249F4E8EDF1E0E590F4907AE7872E4D
:101CF0007EE1972E1BC0843289F050EDE52E57E02F
:101D0000F52E69E7862E6EE1962E10C038E2E32E9E
:101D1000F12C49E3842E42E2942E08C094EFE92E80
:101D2000FF24F3942FEF822E21E2922E8091250240
:101D3000882361F0109225020E94391890932302A3
:101D40008093220210922702109226020E943918D4
:101D5000E0912202F09123028E1B9F0B8F3F9F4741
:101D600050F4EE0EFF1EF0922302E092220282E275
:101D700092E0F401099586E0E9E5F2E0D8010190EE
:101D80000D928A95E1F780905B0290905C02E09062
:101D90005D02F0905E0210925B0210925C02109263
:101DA0005D0210925E02811003C0992009F44FC0B9
:101DB00080915702909158020E942A189C0190919C
:101DC0005302992309F4EBC22333310508F43FC0D1
:101DD0009F3F19F09F5F90935302882061F00E940B
:101DE000AC26181414F491E001C09FEF899F802D58
:101DF000112480935B02992061F00E94AC26191493
:101E000014F491E001C09FEF899F802D11248093ED
:101E10005C0230915B023323D1F020915C022223DB
:101E2000B1F045EB3403C0011124992319F09093CC
:101E30005B0202C0B0925B0235EB2303C0011124A8
:101E4000992319F090935C0202C0B0925C02E110F9
:101E500003C0FF2009F44FC08091550290915602B3
:101E60000E942A189C0190915202992309F49CC265
:101E70002536310508F43FC09F3F19F09F5F9093CE
:101E80005202EE2061F00E948A261E1414F491E0A2
:101E900001C09FEF899F802D112480935D02FF2058
:101EA00061F00E948A261F1414F491E001C09FEF94
:101EB000899F802D112480935E0230915D0233232F
:101EC000D1F020915E022223B1F045EB3403C00132
:101ED0001124992319F090935D0202C0B0925D0223
:101EE00035EB2303C0011124992319F090935E026E
:101EF00002C0B0925E0280915B0281110BC08091A2
:101F00005C02811107C080915D02811103C0809144
:101F10005E0281110E94E9258B829C82ED82FE8205
:101F200086E0F801A9E5B2E001900D928A95E1F70B
:101F30000E945A1F9091A401891721F00E945A1FF4
:101F40008093A4018091CE01843009F096CD83E086
:101F50008093E9008091E80082FF8FCD8091E800B6
:101F600085FF21C00E94041781111BC080E2E82E6A
:101F7000F12C480109C08091F100F40181934F01D7
:101F8000F1E0EF1AF10869F08091E80085FDF3CFE8
:101F90008091E8008B778093E8000E9404178823E3
:101FA00099F391E001C090E08091E8008B778093F5
:101FB000E800992309F461CDE9818E2F90E0FC01BE
:101FC0003197E331F10508F0A1C1E759FF4F0C94B7
:101FD0000E2A1A8289E0F4C08A81823009F4D6C1BF
:101FE000833089F0813009F091C12FB7F894809146
:101FF000BA019091BB01A091BC01B091BD012FBF6E
:10200000BB83AC8323C0F801CE010B96A0EBB1E0FB
:102010002C9111963C91119712963283238332961C
:102020008E179F07A9F774C18A81823009F06EC1AB
:102030006B817C818D819E810E94142A86E290E0D2
:1020400024C04C816B818A810E941D209D83A5C183
:102050008D809E809824892498248C81EB809A819D
:102060002CE1E29E700111243CE8939FE00CF11CEE
:102070001124E80EF11CE80EF11C692DC7018796AA
:102080000E947229682DC70188960E94722940C15A
:102090000E94E91F3DC18A81893019F08A3071F0B0
:1020A00015C08B8143E0849FC00111246FEF70E065
:1020B0000E94C429862F0E94572108C08B8181115C
:1020C00003C00E942C2102C00E9442218A818138D3
:1020D000B1F050F4803809F01BC120E04B816091D1
:1020E00041028091400231C0823859F1833809F0B1
:1020F0000FC120E0409142026C818B8126C060E0DC
:102100008B810E949B259B8180913F02911111C080
:102110008E7F80933F02109229028FEF90E7E2E0DA
:1021200081509040E040E1F700C000000E94C921CA
:10213000EFC0816080933F0260E086950E949B25FE
:10214000E7C08B8180934302E3C00E94BE24E0C0BD
:102150008A81893039F08A30A1F4809144028695D1
:1021600081702EC080914402869586958695FFEFFA
:102170008F9FC001112463E070E00E94C4296B832B
:10218000C7C0813899F030F4803809F0C1C080911F
:10219000420216C0823891F0833809F0B9C08091AC
:1021A00040028B83809141028C83B2C080913F02B8
:1021B00080FF02C0869504C080E002C08091430287
:1021C0008B83A6C0809144020E94272160913F0228
:1021D0007091400280914102909142020E94CB2373
:1021E00097C080E14EC0BA8289EAEACFEA80FB80DC
:1021F000FE24EF24FE248C80912C3801C701895ADB
:102200009D4F9301201B310B2815390508F080C024
:1022100029EAE21621E0F20628F40E945E29F30181
:10222000848302C0F3011482FFEFEF1AFF0A2FEF3D
:10223000621A720AE3CFEA80FB80FE24EF24FE24B8
:102240008C80912C3801C701895A9D4F9301201B26
:10225000310B2815390508F05BC039EAE31631E087
:10226000F30620F4F30164810E947229FFEFEF1A54
:10227000FF0A2FEF621A720AE6CF0E94D91F48C0E8
:1022800084E08A8345C0EA80FB80FE24EF24FE249C
:102290008C80912C3801C70187969301201B310B4C
:1022A00028153905A8F530E3E31632E0F30628F4E3
:1022B0000E945E29F301848302C0F3011482FFEFC0
:1022C000EF1AFF0A2FEF621A720AE5CFEA80FB804D
:1022D000FE24EF24FE248C80912C3801C7018796C0
:1022E0009301201B310B2815390590F430E3E316D8
:1022F00032E0F30620F4F30164810E947229FFEFBB
:10230000EF1AFF0A2FEF621A720AE8CF8FEF898364
:102310008091CE01843009F0B0CB8091E9008F70BC
:102320002091EC00922F917020FD90E8F92EF82A70
:1023300082E08093E9008091E80080FF0CC040E0DB
:1023400050E060E270E0C8010E9437178091E80019
:102350008E778093E8008F2D8F708093E9008DCB6E
:10236000E9BCF9BC09B400FEFDCF8091D8008F7D97
:102370008093D8008091E00082608093E00080919B
:10238000E00081FDFCCF0E94152880CB86E290E022
:102390000E945E291B821C821D828E83B9CF2D3242
:1023A000314008F017CD53CD2D32314008F066CDC5
:1023B000A2CD8091D00187FF11C08091E80082FDFD
:1023C00005C08091CE018111F8CF11C08091E80045
:1023D0008B770BC08091CE01882349F08091E80073
:1023E00080FFF8CF8091E8008E778093E800089511
:1023F000982F973068F59093E900981739F070910D
:10240000EC002091ED005091F00003C0242F762FB6
:1024100050E021FD02C09F5FECCF3091EB003E7F8A
:102420003093EB003091ED003D7F3093ED00309123
:10243000EB0031603093EB007093EC002093ED00E3
:102440005093F0002091EE0027FDE5CF80E0089545
:102450008F708093E90081E008952091D60130913A
:10246000D7012617370748F06115710539F4209117
:10247000E8002E772093E80001C0B901FC0120E0BC
:102480006115710579F18091CE018823F1F18530D4
:10249000F1F18091E80083FD3CC08091E80082FD6D
:1024A0002EC08091E80080FFEBCF2091F300809157
:1024B000F20090E0922B6115710551F08830910582
:1024C00038F421912093F100615071090196F3CF06
:1024D00021E0089709F020E08091E8008E77809352
:1024E000E800CECF2111CFCF0AC08091CE01882342
:1024F00061F0853061F08091E80083FD0AC0809131
:10250000E80082FFF2CF80E0089582E0089583E042
:10251000089581E008958091C30108958091D801C4
:10252000982F9670963011F4886001C0877F0C94C4
:10253000CA271F93CF93DF93CDB7DEB7AA970FB605
:10254000F894DEBF0FBECDBFE0EDF1E08091F10069
:10255000819341E0E83DF407C9F78091D1018330D0
:1025600009F462C030F4813071F0823009F49CC00B
:10257000B3C08A3009F488C08B3009F46DC089304B
:1025800009F0AAC020C08091D001813A09F0A4C00E
:102590008091E800877F8093E8008091D40190913A
:1025A000D501892B21F468E084EC91E003C060E060
:1025B00080E090E070E00E942D128091E8008B771F
:1025C0008093E80089C08091D001813209F084C0F5
:1025D0008091D4019091D501009719F0029709F0EC
:1025E0007BC08091E800877F8093E8008091E800BD
:1025F00082FD05C08091CE018111F8CF6DC0209180
:10260000F3008091F20090E0922B029729F48091E0
:10261000F1008B7F813021F48091F1008093C30120
:102620008091E8008B7754C08091D001813A09F005
:1026300053C08091D4019091D501892B09F04CC0F1
:102640008091E800877F8093E8008091E80080FF18
:10265000FCCF80910A0137C08091D0018132E1F531
:102660008091D4019091D501892BB1F58091E8003A
:10267000877F8093E8000E94D9118091D2018093D6
:102680000A010E94152828C08091D001813221F5CD
:102690008091E800877F8093E8000E94D9118091A3
:1026A000D3018093C20118C08091D001813AA1F476
:1026B0008091E800877F8093E8008091E80080FFA8
:1026C000FCCF8091C2018093F1008091E8008E7769
:1026D0008093E8000E94D9118091E80083FFDDC15A
:1026E0008091D0019091D101492F50E04A3051059D
:1026F00008F0D3C1FA01E458FF4F0C940E2A803839
:1027000021F0823809F0C9C108C08091CC019091B4
:10271000CD01992389F082600FC08091D4018F7020
:10272000873008F0BAC18093E9008091EB0085FB07
:10273000882780F91092E9009091E800977F9093A4
:10274000E8008093F1001092F10070C1282F2D7FD6
:1027500009F0A3C1882319F0823061F09EC18091F5
:10276000D201813009F099C1933009F080E0809363
:10277000CD012EC08091D20181112AC08091D40157
:102780008F702FEF280F263008F087C18093E90063
:102790002091EB0020FF1CC0933021F48091EB00CE
:1027A000806214C09091EB0090619093EB0021E067
:1027B00030E0A90102C0440F551F8A95E2F740930B
:1027C000EA001092EA008091EB0088608093EB00B1
:1027D0001092E9008091E800877F8093E8000E94D2
:1027E000D9115BC1811159C11091D2011F7780911C
:1027F000E3008078812B8093E3008091E800877F5D
:102800008093E8000E94D9118091E80080FFFCCFFE
:102810008091E30080688093E300111102C082E0A0
:1028200001C083E08093CE0138C18058823008F027
:1028300034C12091D2013091D3012C3D53E03507B2
:1028400079F583E08A838AE289834FB7F894DE01C1
:10285000139620E03EE051E2E32FF0E05093570062
:10286000E49120FF03C0E295EF703F5FEF708E2F81
:1028700090E0EA3010F0C79601C0C0968D939D930A
:102880002F5F243149F74FBF8091E800877F809305
:10289000E8006AE270E0CE0101960E942D12B4C0F9
:1028A0008091D4019091D501432F55274330510594
:1028B000A9F068F44130510509F4FEC042305105D9
:1028C00009F0EBC08BE590E0E7ECF2E04BC0413261
:1028D000510529F14232510589F1DFC0C90199271B
:1028E00081309105A1F058F0029709F0D6C0E4E3D9
:1028F000F3E0E4918E2F90E0E4E3F3E030C0E0E613
:10290000F3E0E4918E2F90E0E0E6F3E028C0E6E407
:10291000F3E0E4918E2F90E0E6E4F3E020C0833012
:10292000910508F0BAC0880F991FFC01EB5CFE4FBF
:102930000190F081E02D89E090E014C08330910592
:1029400008F0ABC0FC01EE0FFF1FE15DFE4F0190F0
:10295000F081E02DDC01A45DBE4F8C9190E00097EA
:1029600009F49BC02091E800277F2093E800209184
:10297000D6013091D7012817390708F4C90140E082
:10298000009789F12091CE01222309F43DC0253022
:10299000D9F12091E80023FD37C02091E80022FD05
:1029A0002FC02091E80020FFEBCF4091F300209151
:1029B000F20030E0342B009759F02830310540F414
:1029C00044914093F100319601972F5F3F4FF3CF31
:1029D00041E02830310509F040E02091E8002E77F1
:1029E0002093E800CDCF4111CDCF0AC08091CE0118
:1029F000882351F0853041F08091E80083FD04C0C8
:102A00008091E80082FFF2CF8091E8008B7780937D
:102A1000E80043C0803809F040C08091E800877F1B
:102A20008093E8008091CF018093F1008091E800CD
:102A30008E77D3CE811131C08091D2019091D30194
:102A40009927029754F58091E800877F8093E800EA
:102A50001091D2011093CF010E94D911111106C01B
:102A60008091E30087FD02C081E001C084E0809393
:102A7000CE0142E061EC81E00E94F81142E261EC9B
:102A800084E00E94F81142E261EC82E00E94F811B9
:102A900042E260EC83E00E94F8118091E80083FF3D
:102AA00010C08091E800877F8093E8008091EB0060
:102AB00080628093EB0005C082E190E0E2E2F3E007
:102AC00051CFAA960FB6F894DEBF0FBECDBFDF91EF
:102AD000CF911F9108951F920F920FB60F9211245C
:102AE0002F933F934F935F936F937F938F939F9316
:102AF000AF93BF93CF93DF93EF93FF93C091E90020
:102B0000CF708091EC00D82FD17080FDD0E810926A
:102B1000E9008091F000877F8093F00078940E9414
:102B200099121092E9008091F00088608093F00083
:102B3000CD2BCF70C093E900FF91EF91DF91CF9142
:102B4000BF91AF919F918F917F916F915F914F91C5
:102B50003F912F910F900FBE0F901F901895E8EDA9
:102B6000F0E080818E7F80831092E2001092DA0084
:102B70001092E100A0EEB0E08C9181608C93808196
:102B80008F77808319BCA7EDB0E08C918E7F8C93FA
:102B900080818F7E80831092C1010895CF92DF9251
:102BA000EF92FF920F931F93CF93DF93C8EDD0E086
:102BB00088818F7E8883E7EDF0E08081816080836B
:102BC00084E082BF81E08093C10188818E7F888309
:102BD00002EE10E0F80110821092DA0081EEC82EA9
:102BE000D12CF601108288818F7788838881806854
:102BF000888388818F7D888319BC1092CE011092C2
:102C0000CF011092CD011092CC0190EEE92EF12C63
:102C1000F70180818B7F808388818160888342E097
:102C200060E080E00E94F811F60180818E7F808351
:102C3000F801808181608083808188608083F701D2
:102C400080818E7F8083888180618883DF91CF91AE
:102C50001F910F91FF90EF90DF90CF9008951F92FA
:102C60000F920FB60F9211242F933F934F935F93C0
:102C70006F937F938F939F93AF93BF93EF93FF9344
:102C80008091E10082FF09C08091E20082FF05C0CF
:102C90008091E1008B7F8093E1008091DA0080FFDA
:102CA0002AC08091D80080FF26C08091DA008E7FF4
:102CB0008093DA008091D90080FF18C080E189BD3F
:102CC00082E189BD09B400FEFDCF81E08093CE0191
:102CD0008091C10181110FC00E94AF150E94CE15D5
:102CE0008091E20084608093E20005C019BC1092DC
:102CF000CE011092C1018091E10080FF17C0809148
:102D0000E20080FF13C08091E2008E7F8093E2009A
:102D10008091E20080618093E2008091D80080621F
:102D20008093D80019BC85E08093CE018091E100AA
:102D300084FF2EC08091E20084FF2AC080E189BD1B
:102D400082E189BD09B400FEFDCF8091D8008F7D5E
:102D50008093D8008091E1008F7E8093E100809184
:102D6000E2008F7E8093E2008091E2008160809398
:102D7000E2008091CF01882311F084E007C08091A8
:102D8000E30087FD02C081E001C083E08093CE01B3
:102D90008091E10083FF27C08091E20083FF23C080
:102DA0008091E100877F8093E10082E08093CE01F3
:102DB0001092CF018091E1008E7F8093E10080919D
:102DC000E2008E7F8093E2008091E2008061809338
:102DD000E20042E060E080E00E94F8118091F000A3
:102DE00088608093F000FF91EF91BF91AF919F9128
:102DF0008F917F916F915F914F913F912F910F90A4
:102E00000FBE0F901F9018952091E4003091E500BF
:102E100095E64091EC00842F817040FF23C08091A3
:102E2000E80080FD1DC08091CE01882399F0853097
:102E300099F08091EB0085FD11C04091E400509124
:102E4000E5002417350729F3915011F09A01E1CFDD
:102E500084E0089582E0089583E0089581E0089574
:102E600080E008954091E80042FFDDCF0895EF92A1
:102E7000FF920F931F93CF93DF937C018B010E94EE
:102E80000417811119C0E70101151105A1F0809106
:102E9000E80085FD0AC08091E8008E778093E80005
:102EA0000E940417882381F307C089918093F10061
:102EB00001501109E9CF80E0DF91CF911F910F916F
:102EC000FF90EF9008959091CE01943029F5809372
:102ED000BE017093C0016093BF019093E9008FEF32
:102EE0009091E800815095FD06C095ED9A95F1F717
:102EF00000008111F5CF8091E80085FF0DC040E012
:102F000050E063E070E08EEB91E00E943717809113
:102F1000E8008E778093E8000895BC0184E00C946B
:102F20006317BC0183E00C94631724E02093E9004D
:102F30002FEF3091E800215035FD06C035ED3A9570
:102F4000F1F700002111F5CF2091E80025FF0BC01B
:102F500040E050E066E070E00E9437178091E800A2
:102F60008E778093E8000895CF93DF9321E020933C
:102F7000E9002FEF3091E800215035FD06C035ED16
:102F80003A95F1F700002111F5CF2091E80025FFD7
:102F900014C0EC0140E050E068E070E00E94371798
:102FA0008091E8008E778093E80088E0FE01A4EC31
:102FB000B1E001900D928A95E1F7DF91CF910895EC
:102FC00081E08093E00080E28093D8001092C900F5
:102FD0008FE19EE40197F1F700C0000087E090EBDD
:102FE000DC0180937A0290937B02A0937C02B093E1
:102FF0007D029CE088E10FB6F894A895809360006C
:103000000FBE90936000FFCF78941F920F920FB67F
:103010000F9211248F939F93AF93BF938091BA0126
:103020009091BB01A091BC01B091BD010196A11D81
:10303000B11D8093BA019093BB01A093BC01B093E2
:10304000BD01BF91AF919F918F910F900FBE0F90D7
:103050001F9018959C014FB7F8948091BA019091F8
:10306000BB01A091BC01B091BD014FBF821B930B6E
:1030700008952FB7F8948091BA019091BB01A09167
:10308000BC01B091BD012FBF089580E008959091DB
:10309000950192FF0DC0282F2871283019F4877FE1
:1030A000846006C0282F2471243011F48B7F88603F
:1030B00093FF0DC0282F2871283119F4877E846171
:1030C00006C0282F2471243111F48B7E8861209151
:1030D000960120FF0DC0382F3871383019F4877FE2
:1030E000816006C0382F3171313011F48E7F8860D5
:1030F00021FF0DC0282F2871283119F4877E8161A6
:1031000006C0282F2171213111F48E7E886194FD33
:10311000877E0895F894E82FE295EF70F0E031A1F2
:10312000282F2F7081E090E001C0880F2A95EAF7E0
:10313000982F9095932391A392A1892B82A37894A1
:1031400008956F927F928F929F92AF92BF92CF928B
:10315000DF92EF92FF920F931F93CF93DF93CDB740
:10316000DEB72A970FB6F894DEBF0FBECDBFAE0113
:103170004F5F5F4F7A018AE0DA011D928A95E9F785
:1031800009E111E06A018EE1682E81E0782E882441
:103190008394912CF80180818F3F09F44DC0F894FD
:1031A000E82FE295EF70F0E021A18F70A40102C03A
:1031B000440F551F8A95E2F7CA01922F982B91A3CD
:1031C00092A18095892382A3789400C0EEE1F1E07A
:1031D00020E030E0A12CB12C81918F3FC1F0A82FCD
:1031E000A295AF70B0E090964C9150E08F70DA01EC
:1031F00002C0B595A7958A95E2F7A0FD08C0C40165
:10320000022E02C0880F991F0A94E2F702C080E0E4
:1032100090E0A82AB92A2F5F3F4F2E303105E1F602
:10322000F80180818F3F11F00E948A18F0EAFA9528
:10323000F1F7D601AD92BC920F5F1F4FB2E0CB0EFB
:10324000D11C6016710609F0A5CF4AE050E0B70125
:1032500087E991E00E94652A11E0009709F410E0E7
:10326000892B89F08AE0F701A7E9B1E001900D927E
:103270008A95E1F781E0809321020E9439189093AA
:10328000200280931F0280912102882391F1809176
:103290001F02909120020E942A18059750F18091F8
:1032A0009701909198019093B1018093B001809122
:1032B000990190919A019093B3018093B20180910A
:1032C0009B0190919C019093B5018093B4018091F2
:1032D0009D0190919E019093B7018093B6018091DA
:1032E0009F019091A0019093B9018093B801109231
:1032F0002102812F2A960FB6F894DEBF0FBECDBFF4
:10330000DF91CF911F910F91FF90EF90DF90CF90C1
:10331000BF90AF909F908F907F906F900895CF93C4
:10332000DF938238910569F1B0F48133910509F496
:103330006FC048F48932910509F465C08A3291055D
:1033400009F46BC08AC08533910509F457C08933ED
:103350009105B9F082C0833E910571F138F4803E49
:103360009105B1F0823E910511F177C0863E91053D
:10337000B9F1873E9105C9F1843E910509F06DC010
:1033800024C02091950120FD53C021FD51C065C08E
:103390008091950180FD46C08091960180FF48C0D4
:1033A0008091950184FD50C183EE90E04FC18091E2
:1033B000950182FF3AC0F4CF8091950182FD35C01E
:1033C0008091960180FD34C0EBCF8091960181FF02
:1033D00035C08091950184FD37C187EE90E036C1FC
:1033E0008091950183FF27C0F4CF8091950183FDE3
:1033F00022C08091960181FD21C0EBCF8091950183
:1034000085FD1FC021C08091950185FD1DC019C09B
:103410008091950186FD1BC01DC08091950186FDA0
:1034200019C015C089E390E011C182EE90E00EC191
:1034300080EE90E00BC186EE90E008C184EE90E053
:1034400005C189E290E002C185E390E0FFC08AE215
:1034500090E0FCC081E390E0F9C0811531E593076D
:1034600008F069C0811540E59407F0F09C0174E014
:10347000369527957A95E1F7922F9370482F4370F0
:1034800021E030E002C0220F331F4A95E2F73C688A
:10349000392B982F9F709695969540E2949FC00186
:1034A0001124822B932BD2C0883E910568F5803E73
:1034B000910508F0CBC0883A9105B8F4853A91059A
:1034C00048F0855AE82FF0E0E55CFE4F808190E0FF
:1034D0009064BCC08130910509F4B3C008F4B4C055
:1034E0008430910508F4B0C0B1C08F3B910508F05D
:1034F000ABC0885AE82FF0E0EE0FFF1FE25CFE4FF2
:10350000808191819464A2C0811520E2920758F4D1
:10351000811531E0930708F099C0803F910508F4C8
:1035200093C0906593C0811540E4940708F48CC063
:103530009F70906A8BC0811525E5920708F042C004
:10354000811534E5930728F0982F8827846F906AB7
:103550007DC0811543E59407B0F09C0123703327AB
:1035600041E050E002C0440F551F2A95E2F7282F92
:103570002695269580E2289F90011124CA01822B6E
:10358000932B9A6863C0811522E5920728F4982F3F
:103590008827816F906A5AC09C012370332741E0CD
:1035A00050E002C0440F551F2A95E2F7282F2695B8
:1035B000269580E2289F90011124CA01822B932B2B
:1035C0009C6844C0EC01811539E59307A8F4811586
:1035D000984528F09C2F8827806F906A37C0C115C6
:1035E00086E5D80788F58C2F0E9447188F7190E0E8
:1035F000982F882790622AC081152AE5920790F4B7
:103600008C2F8F700E94471894E0D695C7959A9595
:10361000E1F7CF70D0E0DC2FCC27D0699E01282BBA
:10362000C90114C090568115904270F48D2F8F718E
:103630000E944718282F2F71CE0199279062922B54
:1036400005C081E090E002C080E090E0DF91CF9182
:103650000895CF9384E090E00E945E29C82F82E213
:1036600090E00E945E292C2F30E0A901582BCA015E
:10367000CF91089580E090E00E946C29893E9E4F92
:1036800011F40C947D2080E0089569EE7EEF80E0D7
:1036900090E00E94902960E082E090E00E94722910
:1036A00060E083E090E00E94722910921E0260E0C8
:1036B00084E090E00E94722960E082E290E00E9443
:1036C000722960E085E090E00E94722960E086E067
:1036D00090E00E9472296FEF87E090E00E947229CB
:1036E00040E050E0BA0188E090E00E94842960E068
:1036F0008DE090E00E94722940E050E0BA0188E13C
:1037000090E00E94842960E087E190E00E947229A5
:1037100040E050E0BA018CE190E00E94842960E032
:1037200070E080E290E00E94902940E050E0BA0111
:1037300088E190E00E94842980E00E9450200E944D
:103740006E2040E050E0BA018FE090E00E948429B2
:1037500040E050E0BA0183E190E00C94842980912C
:103760001D02811110921D02089590911C028091FA
:103770001B02892B20911A02982F922B9093D9012A
:1037800080911D02882389F0892B8093D901EBED6C
:10379000F1E097E080E0915029F021912223D9F3C4
:1037A0008F5FF9CF81110E94AF1BE0914D02F09124
:1037B0004E02309731F00280F381E02D89ED91E0E7
:1037C00009940895CF93C0919601C2FB992790F96F
:1037D000981781F080FBC2F9C09396016091950122
:1037E00084E090E00E9472296C2F82E290E0CF91F9
:1037F0000C947229CF91089520911902809582230B
:1038000080931902982F977041F430E0482F082ECA
:10381000000C550B2417350721F49091960192FF67
:1038200007C08595859585950E94CE27109219022F
:103830000895809118029091E701891719F08F5F20
:103840008770FBCF08950F931F93CF93DF938091E1
:10385000E60182958F7009F05DC08091E3018823B5
:1038600009F458C0809118021091E7016091E101BC
:103870007091E201C091E401D091E50191E06F3FC8
:1038800009F090E0292F06E0811709F443C0209742
:1038900021F07F3F21F030E003C031E001C0322F42
:1038A00090E030FD34C0089FF001099FF00D112415
:1038B000DF01A851BE4F11963C911197371327C0D5
:1038C0003C91361324C012963C91129731111FC0BF
:1038D00013964D915C9114974C1B5D0B483C510520
:1038E000B0F48091E6018F7080618093E601E3512E
:1038F000FE4F80818F708061808381EE91E00E9415
:10390000FE04DF91CF911F910F910C94191C019629
:103910008770BACFDF91CF911F910F910895CF9308
:10392000DF93EC010E944427BE010E9443200E94C5
:103930008F19DF91CF9108959F92AF92BF92CF924E
:10394000DF92EF92FF920F931F93CF93DF93CDB748
:10395000DEB761970FB6F894DEBF0FBECDBF8C0106
:1039600085E0F801DE011D9601900D928A95E1F740
:10397000F801E2809091E1016091E2014091E4015F
:103980005091E5014115510531F06F3F31F481E06F
:103990009F3F19F403C081E001C080E0F82FF1706F
:1039A0009F2E80FD1AC1F80130812181C380D4800F
:1039B00081EEA82E81E0B82EF090E301F601E41B21
:1039C000F50BFF2009F4C6C08091E601E83CF10543
:1039D00008F091C0482F407F09F050C0621311C019
:1039E00093130FC0FE2CE1100CC08F708061809388
:1039F000E601C5010E94FE048091E601F80185837D
:103A000029C1CD2831F02F3F31F481E03F3F19F437
:103A100003C081E001C080E080FD03C081E08E250D
:103A200002C080E090E0F82FF170FF2E80FF1CC0F4
:103A3000809118024091E70156E0841709F4E8C02C
:103A400090E0589FF001599FF00D1124E851FE4F6E
:103A50006181261306C06081631303C06281E61290
:103A600003C001968770E9CFFE2CEE2009F4F2C066
:103A70008091E60181608093E60149C0621306C02F
:103A8000931304C0E11002C0F80186C0C8010E946F
:103A9000E927882351F1EE2041F12091E601822FA0
:103AA00082958F7090E0029774F08091E10190917F
:103AB000E20198878F831986DB86CA862C87CE0120
:103AC00007960E94FE0486E0F801A1EEB1E00190A5
:103AD0000D928A95E1F70E94231C0AC06217C9F073
:103AE000C8010E94E92781111EC0C8010E94FE047E
:103AF000FF24F394AFC0482F407F81F781EE91E01F
:103B00000E94FE0486E0F50111928A95E9F7F12CF6
:103B1000A1C09313E5CFE110E3CFF8018583C8017D
:103B20000E94FE0454C0EE2001F32091E601822F92
:103B300082958F7090E0029734F28091E10190912C
:103B4000E2019A8389831B82DD82CC822E83CE019F
:103B50000196B7CFE83CF105D0F5FE2CEE2029F216
:103B6000621327C0931325C02091E60120FD18C0E1
:103B7000822F82958F70482F50E04115510581F0BA
:103B8000F80125834F30510541F08F5F982F9295B2
:103B9000907F822F8F70892B8583C8010E94FE043D
:103BA00086E0F801A1EEB1E001900D928A95E1F76F
:103BB00051C0C8010E94E927811185CF8091E6019B
:103BC00081608093E601C8010E94FE0443C086E044
:103BD000F50111928A95E9F73DC0EE2009F485CFF1
:103BE000C8010E94E927F82E882309F47ECF86E0D9
:103BF000F801A1EEB1E001900D928A95E1F7809174
:103C0000E1019091E2010E948F1C0E94231C22C0BE
:103C10003D872E878D859E850E948F1C292F22959A
:103C20002F70223028F49F7039F0811105C00BC02D
:103C3000243028F49F7049F4805E883020F0C80159
:103C40000E94FE049F2CF92C05C0F8019581907FFD
:103C500099F7F9CF8F2D61960FB6F894DEBF0FBE9E
:103C6000CDBFDF91CF911F910F91FF90EF90DF902B
:103C7000CF90BF90AF909F900895CF92DF92EF9238
:103C8000FF928C3724E1920728F469E070E00E94EB
:103C9000C42929C0A0E0B0E08A50974DAF4FBF4F74
:103CA0006627782F892F9A2F25EF38E241E050E0E0
:103CB0000E94EC2969017A01CA01B9010E94A62972
:103CC0009B01AC01C701B6010E94A629BB27A92F01
:103CD000982F872F009721E0A207B10511F0BC01B2
:103CE00002C06FEF7FEFCB01FF90EF90DF90CF909E
:103CF000089508950F931F93CF93DF9300D01F92E1
:103D0000CDB7DEB78C0180912C0281110AC09E01D3
:103D10002F5F3F4F4FEF6FEF0E940E248A818093F9
:103D20002C02F8018481813051F028F0823061F456
:103D300040912C020AC080912C0240E007C06091A3
:103D40002C0240E080E003C040E080E060E00E94A0
:103D5000A723F801848190E0019663E070E00E945F
:103D6000D82984830F900F900F90DF91CF911F91EE
:103D70000F910895CF93DF93EC01EFE3F2E04381DD
:103D800062818C810E94A4248C818F5F8C83DF915F
:103D9000CF910895CF93DF93EC01EC81F0E0EC59E3
:103DA000FC4F4491EFE3F2E0628181810E94A42400
:103DB0008C818F5F8C83DF91CF9108951F920F923A
:103DC0000FB60F9211248F939F93AF93BF9380915F
:103DD0005102811113C08091BA019091BB01A09151
:103DE000BC01B091BD014196A11DB11D8093BA01E6
:103DF0009093BB01A093BC01B093BD01BF91AF9163
:103E00009F918F910F900FBE0F901F9018959C015E
:103E10002A5F3F4FFC014281461301C01282019686
:103E200082179307B9F708959C01FC0132969FEF22
:103E300080E04191461789F09F3F19F4411101C07C
:103E4000982F8F5F8630A9F79F3F39F0F901E90F6E
:103E5000F11D97FDFA9562830895089520914F0210
:103E6000309150022817390771F0909350028093D7
:103E70004F02E0914D02F0914E02309721F0008404
:103E8000F185E02D0994089520914B0230914C0268
:103E90002817390771F090934C0280934B02E09100
:103EA0004D02F0914E02309721F00680F781E02D0F
:103EB00009940895E0914D02F0914E02309721F05F
:103EC0000190F081E02D099480E008950F931F93F5
:103ED000CF93DF93C42FD22FFC0182818823C9F0B6
:103EE00040934A020E9439189093490280934802F5
:103EF00080E28C0F883008F057C0C77081E001C0A5
:103F0000880FCA95EAF7DF91CF911F910F910C941A
:103F10002B2880914A02481330C08091480290912A
:103F200049020E942A18883C910538F510E21D0FBD
:103F3000CD17B9F080E28C0F883040F4C77081E073
:103F400001C0880FCA95EAF70E942028183028F58A
:103F500081E09D2F977001C0880F9A95EAF70E9423
:103F60002B28802F0E9440291830F0F4D77081E070
:103F700001C0880FDA95EAF70AC080E28C0F88301A
:103F800098F4C77081E001C0880FCA95EAF7DF9105
:103F9000CF911F910F910C942028802FDF91CF910A
:103FA0001F910F910C944029DF91CF911F910F9198
:103FB0000895CF93DF93C7E5D2E060E0CE010E9481
:103FC00072292196C11584E0D807B9F7DF91CF9106
:103FD0000895CF92DF92EF92FF920F931F93CF93AA
:103FE000DF93C0E0D0E08E0104571F4F6E018CE1DB
:103FF000C80ED11CFE01EC51FB4FE590F4906F2DE3
:10400000CE0187960E9472296E2DCE0188960E945D
:1040100072292296CC15DD0569F70C171D0731F7BB
:10402000E80100331240F9F6DF91CF911F910F9113
:10403000FF90EF90DF90CF9008950F931F93CF9351
:10404000DF93C42FD0E0CC0FDD1F2CE1629FC00DA9
:10405000D11D11243CE8839FC00DD11D1124CE0138
:1040600087960E945E29082F10E0102F0027CE01AE
:1040700088960E945E299801282BC901DF91CF9173
:104080001F910F910895462F843038F4753028F42D
:104090006E3018F4672F0C941D2080E090E0089596
:1040A000CF93C82F811102C06FEF01C061E283E29C
:1040B00090E00E947229C11102C06FEF01C061E15E
:1040C00084E290E00E947229C11102C06FEF01C02A
:1040D00066E285E290E0CF910C94722980E00E9424
:1040E000502060E086E290E00E9472290E94E91F61
:1040F0000E94D91F81E00C94502083E290E00E943E
:104100005E29813281F484E290E00E945E2981314F
:1041100051F485E290E00E945E2991E0863209F038
:1041200090E0892F01C080E0817008951F920F9266
:104130000FB60F9211242F933F934F935F936F937A
:104140007F938F939F93AF93BF93EF93FF93809150
:10415000460290914702019668EB75E00E94C429DF
:1041600090934702809346026BE070E00E94C4295E
:104170006F7780914502823019F4603451F404C0A5
:10418000813039F46F3729F480916F008E7F8093EE
:104190006F00E62FF0E0EC59FB4FE49121E031E0B5
:1041A000E29FC001E39F900D112463E070E00E9444
:1041B000C42980914402869586958695282F269F4E
:1041C000C001279F900D11240E943D1E90938D00E9
:1041D00080938C00FF91EF91BF91AF919F918F9150
:1041E0007F916F915F914F913F912F910F900FBEF3
:1041F0000F901F901895843048F4811108C0909159
:104200008000977F909380002F9806C083E0909164
:104210008000986090938000282F30E0AFEFBFEFD0
:104220000E94232A23E030E040E050E00E94EC2985
:10423000B42FA32F922F8827892F9A2FAB2FBB271C
:104240000E943D1E90938D0080938C000895682FEE
:1042500086E090E00C9472298091440281FF11C0A5
:104260008D7F809344020E94272180916F008E7F72
:1042700080936F00809144028695869586950C9474
:10428000FB2008958091440281FD10C082608093DC
:1042900044020E9427211092470210924602109277
:1042A000450280916F00816080936F000895843093
:1042B00008F083E0909144029770282F220F220F7C
:1042C000220F922B90934402987F21E009F420E082
:1042D0009091440220FB90F9909344020C94FB20AF
:1042E0000E943A1B81110AC00E94451B8091440222
:1042F00084708961809344020E94272186E090E0C7
:104300000E945E2980934402282F269526952695A3
:1043100030E02430310524F08770886180934402B6
:104320008091440280FF04C086958695869501C0E1
:1043300080E00C94FB2090913F0290FF04C0969582
:10434000981740F003C0811105C090E0961710F453
:104350000C94DF2561E00C949B25882311F0FA0171
:1043600001C0FB01099460913F02669570E04BE04B
:1043700050E08BE091E00E94582A892B19F481E0EB
:10438000809329020E94391890932302809322027D
:10439000089580913F0280FF0AC0509A8BB18E7FB2
:1043A0009BB191602FB7F894EDE2F2E00BC0EDE223
:1043B000F2E0118210821282339632E0EF33F3077B
:1043C000C1F7EBCF32E0EF33F30789F0319148E0EA
:1043D0009BB9000000C037FF8BB9330F000000C04D
:1043E00000C000C08BB900C04A9591F7EBCF2FBF3A
:1043F0008FE594E00197F1F700C000000895EF9277
:10440000FF920F931F93CF93DF938C01CDE2D2E005
:10441000E12CF12CF8018481F3E0EF16F1041CF497
:10442000882339F002C0811104C09E0140914202EC
:1044300002C09E0140E060914102809140020E94D2
:104440000E248FEFE81AF80A239696E0E916F10495
:1044500009F70E94C921F801848190E001968170DA
:1044600099278483DF91CF911F910F91FF90EF9057
:1044700008958F929F92AF92BF92CF92DF92EF9268
:10448000FF920F931F93CF93DF93EC014C81042F86
:1044900010E09801D8010E94232A9B01AC010E94E0
:1044A000392A6B017C01E0E2F0E0E01BF10BA5E5AD
:1044B000B0E09B01AC010E94392A4B015C019F01D5
:1044C000DF010E941B2A9B01AC010E94442A9B0130
:1044D000AC012C0D3D1D4E1D5F1DC501B4010E9498
:1044E000EC29822FF22E99E2921728F093E0299F6F
:1044F000900111240DC025E530E0281B3109C901C8
:10450000880F991F280F391F37FF02C02F5F3F4FB9
:1045100035952795122F10959DE2C92E92E0D92E40
:1045200000E085E5E82EEF1801FD02C08E2D01C0E8
:104530008F2D9601412F609141020E940E240F5F42
:1045400083E0C80ED11C063079F70E94C9218C8106
:10455000811102C091E003C0803219F49FEF909363
:10456000180190911801890F8C83DF91CF911F91D1
:104570000F91FF90EF90DF90CF90BF90AF909F9002
:104580008F9008950F931F93CF93DF93CDE2D2E0E6
:10459000FE01118210821282339682E0EF33F80717
:1045A000C1F700E010E080912B02082E000C990B5F
:1045B0000817190794F080911701082E000C990B29
:1045C0008017910754F09E01409142026091410290
:1045D000809140020E940E2403C0198218821A8220
:1045E0000F5F1F4F239606301105E9F60E94C9217F
:1045F0008091160190912B02980F90932B0220919D
:104600001701280F20931701121614F495301CF08F
:10461000819580931601DF91CF911F910F9108959D
:10462000BF92CF92DF92EF92FF920F931F93CF939F
:10463000DF93FC01828180FF03C0DD24DA9402C095
:10464000DD24D3940DE212E0C0E0D0E026E0B22EEB
:10465000F80111821082128294E0E92EF12CC12C13
:1046600080912A028C0D87302CF06B2D0E94B62988
:10467000892F02C087FD8A5F082E000C990BC8178E
:10468000D90791F4809142028E9DA0018F9D500D1B
:10469000112455954795559547959801609141028C
:1046A000809140020E940E24CD0CF1E0EF1AF10837
:1046B000B9F621960D5F1F4FC630D10549F60E940D
:1046C000C92180912A0291E0D91206C0811102C04D
:1046D00085E007C0815005C090E00196BE010E94B0
:1046E000D82980932A02DF91CF911F910F91FF90DB
:1046F000EF90DF90CF90BF900895EF92FF921F93BD
:10470000CF93DF93EC018DE2E82E82E0F82E10E0EB
:104710008C8197014091420260914102810F0E9479
:104720000E24165D83E0E80EF11C1C3F89F70E9401
:10473000C9219A818C8190FF02C08F5F01C0815096
:104740008C83DF91CF911F91FF90EF90089590910E
:104750003F0290FF0CC0EDE2F2E081836083428370
:10476000339692E0EF33F907C1F70C94C92108950D
:1047700080913F02282F269530E02115310519F44C
:104780008170826005C02532310524F08170886413
:1047900080933F020895CF92DF92EF92FF926B01D8
:1047A0007C010E94B823B701A60188E090E0FF9049
:1047B000EF90DF90CF900C9484298091430288235E
:1047C00019F081508093430260913F027091400242
:1047D00080914102909142020C94CB23809143023C
:1047E000833018F48F5F8093430260913F02709191
:1047F000400280914102909142020C94CB23EFE35E
:10480000F2E083E0808311828FEF828383831482BE
:1048100060817181828193810C94CB23AF92BF928E
:10482000CF92DF92EF92FF920F931F93CF93DF937C
:10483000E82EF62EE901E42FF0E0611106C0EC5EEF
:10484000F84FE4914E2F2E2F71C0062F10E0EC5E32
:10485000F84F4491F42FC42ED12C26E0829FC00142
:1048600011242FEF30E0B9010E94C4295BEA5603FE
:10487000C001579F900D11248E0D911D8E0D911D1D
:10488000582F550F580FD901A01BB10BAC9DC0017B
:10489000AD9D900DBC9D900D1124E92FF59ED0018A
:1048A0001124AB2FBB277901EA1AFB0AEC9CD0013B
:1048B000ED9CB00DFC9CB00D11245901A51AB10856
:1048C000A09E7001A19EF00CB09EF00C1124EF2C64
:1048D000FF242E193F092C9D80012D9D100D3C9D1C
:1048E000100D1124212F6230710591F048F46115EB
:1048F0007105E1F061307105B9F4242F4B2F16C01A
:104900006430710569F040F06630710579F00CC0D3
:10491000242F492FE12F0AC0492FEF2F2B2F06C03C
:10492000292FE42F412F02C0292FEB2F4983288301
:10493000EA83DF91CF911F910F91FF90EF90DF906D
:10494000CF90BF90AF900895CF93DF9300D01F9288
:10495000CDB7DEB790913F0290FF0AC09E012F5F56
:104960003F4F0E940E244B8169818A810E94A723B8
:104970000F900F900F90DF91CF9108955F926F92FB
:104980007F928F929F92AF92BF92CF92DF92EF92DF
:10499000FF920F931F93CF93DF9300D01F92CDB759
:1049A000DEB7182F762E042F622E90913F0290FFD3
:1049B0006DC0E92FE695AE2FB0E0A459BE4F8C91A3
:1049C000809328029E7F923061F49E012F5F3F4FBB
:1049D000812F0E940E244B8169818A810E94A72326
:1049E00043C0823019F4009142023EC0863019F46F
:1049F0001091400239C08930D9F38931A9F5E951C4
:104A00008E2F8170582EE695F0E0EC5EF74FA59062
:104A1000B4908DE2C82E82E0D82EE12CF12CBB247C
:104A200096E0892E912CAE9CC001AF9C900DBE9C4F
:104A3000900D1124B4010E94C429812F511002C08D
:104A4000860F01C0861B9601402F672D0E940E2401
:104A50008FEFE81AF80A83E0C80ED11C86E0E8164A
:104A6000F10409F70E94C92110934002709241029B
:104A700000934202662051F060913F027091400223
:104A800080914102909142020E94CB230F900F909F
:104A90000F90DF91CF911F910F91FF90EF90DF90DA
:104AA000CF90BF90AF909F908F907F906F905F90CE
:104AB0000895EFE3F2E0438128E0421B08F440E070
:104AC00021E0628181810C94BE24EFE3F2E0438116
:104AD00028E0420F08F44FEF21E0628181810C94BD
:104AE000BE24EFE3F2E0628128E0621B08F460E09C
:104AF00021E0438181810C94BE24EFE3F2E06281E6
:104B000028E0620F08F46FEF21E0438181810C946B
:104B1000BE24EFE3F2E0818121E04381628188508D
:104B20000C94BE24EFE3F2E0818121E043816281B5
:104B3000885F0C94BE2490913F0290FF36C0917024
:104B4000811102C0926006C0853210F0986402C0E4
:104B5000880F982B90933F02662351F060913F029B
:104B60007091400280914102909142020E94CB23B9
:104B700060913F02669570E04BE050E08BE091E081
:104B80000E94582A892B19F01092290202C00E9413
:104B9000B32181E08093250220E0409142026091A0
:104BA0004102809140020C94BE24089580913F02FE
:104BB0008695815009F484E261E00C949B258091F4
:104BC0003F0286958F5F853208F081E061E00C94AA
:104BD0009B250E94391820915B02211104C020916D
:104BE0005C02222321F09093580280935702209177
:104BF0005D02211104C020915E02222321F09093D6
:104C0000560280935502E0914D02F0914E0230978A
:104C100049F082E0809359020480F581E02D89E516
:104C200092E009940895803F39F490915C0297FFD7
:104C300035C010925C0259C0813F29F490915C020A
:104C40001916BCF32BC090915B02823F29F497FFA9
:104C500025C010925B0249C0833F19F41916CCF3AA
:104C60001DC090915D02893F29F41916BCF4109281
:104C70005D023BC08A3F19F497FF10C0F8CF8B3F0D
:104C800039F490915E0297FF09C010925E022DC028
:104C90008C3F21F490915E021916BCF39CE0980FB2
:104CA000953080F421E030E0A90102C0440F551F87
:104CB0009A95E2F7CA01809590915A0289238093D0
:104CC0005A0213C08D3F21F4809154028E7F0BC095
:104CD0008E3F21F4809154028D7F05C08F3F29F4CF
:104CE000809154028B7F8093540280915B028111EA
:104CF00006C080915C02811102C010925302809123
:104D00005D02811106C080915E02811102C0109285
:104D1000520208958091540280FD16C081FD16C094
:104D200082FD18C080915202882391F0883290F45D
:104D300028E0829FC001112468E270E00E94D82917
:104D4000862F672B29F007C082E0089584E008953C
:104D500081E0089588E008958091540280FD14C098
:104D600081FD14C082FD16C080915302882381F01A
:104D7000843180F422E3829FC001112464E170E059
:104D80000E94D829862F08958CE0089589E108951E
:104D900085E0089582E30895803F21F40E94AC26C7
:104DA000819504C0813F29F40E94AC2680935C0267
:104DB0000895823F21F40E94AC26819504C0833F70
:104DC00029F40E94AC2680935B020895893F19F470
:104DD0000E948A2605C08A3F31F40E948A26819566
:104DE00080935D0208958B3F21F40E948A2681956D
:104DF00004C08C3F29F40E948A2680935E020895A5
:104E00009CE0980F953078F421E030E0A90102C0D1
:104E1000440F551F9A95E2F7CA0190915A02892BC7
:104E200080935A0208958D3F21F48091540281604D
:104E30000BC08E3F21F480915402826005C08F3FE9
:104E400029F480915402846080935402089580E094
:104E500090E00E94441F80E090E00E942E1F10927C
:104E60001B0210921A020E94B51BE9E5F2E086E0EF
:104E7000DF011D928A95E9F71092530210925202B7
:104E8000109254020C94E925CF92DF92FF920F9377
:104E90001F93CF93DF936C010091D80180911E0284
:104EA000082BC7E0D0E010E0C8010C2E02C0959599
:104EB00087950A94E2F780FD04C02197A8F7F12CAA
:104EC00009C0FC2EB6018C2F0E9443200E948F192E
:104ED000019799F38F2DDF91CF911F910F91FF9043
:104EE000DF90CF9008952EE0929F800D1124682FBF
:104EF000669566956695982F977083E0689FB001D8
:104F0000112440E050E080E0FB01E40FF51FE15A7E
:104F1000FD4F208130E0092E02C0369527950A9476
:104F2000E2F721703327042E01C0220F0A94EAF71A
:104F3000822B4F5F5F4F4330510531F708952EE0CC
:104F4000929F800D1124E82FE695E695E6958770EF
:104F500051E001C0550F8A95EAF783E0E89FF00120
:104F60001124E15AFD4F20E030E070E04081CB0198
:104F7000022E02C0969587950A94E2F7817081957A
:104F800084278523842781932F5F3F4F233031056A
:104F900069F708958093D8010C94272721E030E029
:104FA00001C0220F8A95EAF720958091D8018223CB
:104FB0000C94CA2721E030E001C0220F8A95EAF75D
:104FC0008091D801822B0C94CA2780931E020C94E6
:104FD0002727FC01808191810E948F1C292F2F702F
:104FE000E92FE295EF704E2F50E0FA013297EE3044
:104FF000F105B8F4EA57FF4F0C940E2A803F99F060
:1050000018F4883E70F40FC0843F59F40CC0883EF9
:1050100050F0813F31F407C0822F869586958695A2
:10502000089580E0089581E0089510921C0286E0C2
:10503000EBEDF1E0DF011D928A95E9F70C9427274B
:10504000882341F0809590911C02892380931C0253
:105050000C94B51B0895882339F090911C02892B7C
:1050600080931C020C94B51B0895882309F463C037
:10507000823869F40E945A1F81FF5DC069E389ED9F
:1050800091E00E94141F0E94B51B69E30EC0833893
:1050900091F40E945A1F80FF4EC063E589ED91E0B4
:1050A0000E94141F0E94B51B63E589ED91E00E94E8
:1050B000071F0C94B51B843869F40E945A1F82FFA5
:1050C0003AC067E489ED91E00E94141F0E94B51B6D
:1050D00067E4EBCF9CEF980F913A10F4682FE5CF7F
:1050E00090E2980F983088F4877021E030E0A901B1
:1050F00002C0440F551F8A95E2F7CA01809590912E
:105100001C02892380931C02D4CF9BE5980F933017
:1051100020F480E090E00C94441F98E5980F9731BC
:1051200020F480E090E00C942E1F803F20F00E943D
:1051300013260C94E9250895CF93882309F49EC083
:10514000C82F8238B1F40E945A1F81FD97C069E3CD
:1051500089ED91E00E94141F0E94B51B2FEF81EE94
:1051600094E0215080409040E1F700C0000069E3E6
:1051700017C08338E1F40E945A1F80FD7FC063E5A9
:1051800089ED91E00E94141F0E94B51B2FEF81EE64
:1051900094E0215080409040E1F700C0000063E5BA
:1051A00089ED91E00E94071FCF910C94B51B8438C4
:1051B000B1F40E945A1F82FD61C067E489ED91E05D
:1051C0000E94141F0E94B51B2FEF81EE94E0215026
:1051D00080409040E1F700C0000067E4E1CF8CEF31
:1051E0008C0F813A80F4EBEDF1E081EE91E02191BA
:1051F000C217E1F18E179F07D1F76C2F89ED91E06F
:105200000E94141FD1CF80E28C0F883068F4C770E1
:1052100081E090E001C0880FCA95EAF790911C02E6
:10522000892B80931C02C0CFEBE5EC0FE33040F4F8
:10523000F0E0E55CFE4F808190E0CF910C94441F3C
:10524000E8E5EC0FE73150F4F0E0EE0FFF1FE25C11
:10525000FE4F80819181CF910C942E1FC03F70F042
:105260008C2F0E94CC26CF910C94E9256C2F89EDD0
:1052700091E00E94071F0E94B51BBFCFCF910895F8
:105280001F93CF93DF93182F893319F0C0E0D0E03C
:1052900002C0C0E5D0E0812F0E949C28209741F0F9
:1052A0008FE99FE00197F1F700C000002197F6CF4A
:1052B000812FDF91CF911F910C943528F999FECF62
:1052C00092BD81BDF89A992780B50895A6E1B0E016
:1052D00044E050E00C949829A8E1B0E042E050E0AE
:1052E0000C949829262FF999FECF92BD81BDF89A8A
:1052F000019700B4021639F01FBA20BD0FB6F8941A
:10530000FA9AF99A0FBE08950396272F0E947329DF
:105310000E947229252F0E947329242F0C9473292F
:105320000196272F0E9473290C947229DC01CB016E
:10533000FC01F999FECF06C0F2BDE1BDF89A3196A5
:1053400000B40D9241505040B8F70895DB018F939F
:105350009F930E94392ABF91AF91A29F800D911D0A
:10536000A39F900DB29F900D1124089587FB082EE6
:10537000062687FD819567FD61950E944C2A0EF4F3
:10538000919507FC81950895AA1BBB1B51E107C0AD
:10539000AA1FBB1FA617B70710F0A61BB70B881FC5
:1053A000991F5A95A9F780959095BC01CD01089554
:1053B00097FB072E16F4009407D077FD09D00E94C2
:1053C000C42907FC05D03EF4909581959F4F089520
:1053D000709561957F4F0895A1E21A2EAA1BBB1B01
:1053E000FD010DC0AA1FBB1FEE1FFF1FA217B307B1
:1053F000E407F50720F0A21BB30BE40BF50B661FC7
:10540000771F881F991F1A9469F76095709580958A
:1054100090959B01AC01BD01CF010895EE0FFF1FD8
:105420000590F491E02D099469279627692778273C
:105430008727782708950E94232A332312F48A1B92
:105440009B0B0C94342AA29FB001B39FC001A39F71
:10545000700D811D1124911DB29F700D811D1124AD
:10546000911D08950E94232AB7FF0895821B930B74
:1054700008950E94232AA59F900DB49F900DA49F8C
:10548000800D911D11240895B7FF0C94392A0E94B4
:10549000392A821B930B0895991B79E004C0991F48
:1054A000961708F0961B881F7A95C9F7809508957E
:1054B000FC014150504030F001900616D1F7319771
:1054C000CF010895882799270895FB01DC0104C0C6
:1054D0008D910190801921F441505040C8F7881BEC
:0854E000990B0895F894FFCF29
:1054E8008B12B417951791178D170101191A1B1CE8
:1054F8001D1E1F202122010201313233F0F1F4F781
:10550800F5F66766363534979694959340227B87EF
:10551800026502EA01D902F2021203818283E200E3
:10552800E900EA00B500B600B700CD008301CC0061
:105538008A019201940121022302240225022602F3
:1055480027022A02B300B4006F00700000010202B3
:1055580002020606060909090909090F0F0F0F0FAC
:105568000F151515181919191919191919191923B0
:0255780024000D
:00000001FF
