:100000000C94BB070C9402080C9402080C94772DF6
:100010000C9402080C9402080C9402080C94020838
:100020000C9402080C9402080C94351F0C94711E59
:100030000C94F9250C9402080C9402080C94020804
:100040000C9402080C9402080C9402080C94020808
:100050000C9402080C94AC250C9402080C94020831
:100060000C9402080C9402080C9402080C940208E8
:100070000C9402080C9402080C9402080C940208D8
:100080000C9402080C9402080C9402080C940208C8
:100090000C9402080C9402080C9402080C940208B8
:1000A0000C9402080C9402080C940208120D120D14
:1000B0004D0D4D0DA70DC50DCF0ECF0ED00D440E1D
:1000C000550E550E1A191C193D194A195119711955
:1000D0000B1A0B1A0B1A0B1A0B1A741976197B19B7
:1000E000A019C219C519C819EB197F1CA61C531EEB
:1000F000A61C531EF21C151D531E0B1E1B1EA121F8
:10010000A121B421B421AA21B421B421B421A12177
:10011000A121AF21B421B421AF21072CF52B192C3B
:100120007C2BC62CC62CF22BC62CC62C462CC62CDF
:100130005A2CA42CC62CC62CC62CC62C782CC62C0B
:10014000C62C752CC62C322CC62CC62CC02CC02C10
:10015000C02CC02CC02CC02CC02CC02CC02CC22C3D
:10016000C62C072CEA2BC62CC62CC62CC62CC62C9B
:10017000C62CC62CC62CC62CC62CC22CC62CC62CF3
:10018000F22BC62CBE2CBE2CBE2CBE2CBE2CBE2CE4
:10019000BE2CBE2CBE2CC22C0000000000000000B3
:1001A000000000000000000000000000000000004F
:1001B0000000000000000000000000007E0F00D4DE
:1001C000FFFFFFC7000000780000000000000000F3
:1001D0002A2B2800000000000000000000000000A2
:1001E00000000029000000002C1E342021222434AD
:1001F0002627252E362D3738271E1F20212223247F
:1002000025263333362E37381F0405060708090A1A
:100210000B0C0D0E0F101112131415161718191AB6
:100220001B1C1D2F3130232D350405060708090A34
:100230000B0C0D0E0F101112131415161718191A96
:100240001B1C1D2F3130354C44454255473A206424
:10025000697361626C65642E0A0044454255473AF1
:1002600020656E61626C65642E0A004F6E6573686E
:100270006F743A206163746976653A2025640A00D8
:100280000A002530325820006B6579626F61726414
:100290005F7265706F72743A2000546172676574A2
:1002A00020636F6E6E65637465640D0A005461723D
:1002B00067657420646973636F6E6E6563746564EB
:1002C0002C207468726F74746C696E6720636F6E33
:1002D0006E656374696F6E20617474656D7074739C
:1002E0000D0A004661696C656420746F206578654D
:1002F000637574652025730A004B6579626F6172BE
:10030000642073746172742E0A000A00253031363D
:1003100062003A200025303258000A722F632030E4
:100320003132333435363738394142434445460A51
:10033000000A0025303258006B6579626F61726483
:100340005F7365745F6C65643A20005B735D0006E3
:1003500031FF0974A1010975150026FF009520756C
:100360000881020976150026FF0095207508910284
:10037000C005010902A10185020901A100050919B1
:10038000012908150025019508750181020501095B
:100390003009311581257F950275088106093815C8
:1003A00081257F950175088106050C0A38021581A3
:1003B000257F950175088106C0C005010980A1014E
:1003C000850319012AB700150126B700950175109C
:1003D0008100C0050C0901A101850419012AA002B0
:1003E000150126A002950175108100C005010906BE
:1003F000A1018505050719E029E7150025019508E4
:10040000750181020507190029EF1500250195F0F6
:1004100075018102050819012905950575019102EB
:10042000950175039101C00660FF0961A101096290
:10043000150026FF00952075088102096315002626
:10044000FF00952075089102C005010906A101056C
:100450000719E029E7150025019508750181029526
:1004600001750881010507190029FF150026FF0005
:10047000950675088100050819012905950575017E
:100480009102950175039101C05B435D005B445D82
:10049000005B535D005B575D005B525D0009027BB2
:1004A00000040100A0FA0904000001030101000991
:1004B00021110100012240000705810308000A09FB
:1004C00004010002030000000921110100012222A1
:1004D000000705820320000107050303200001092E
:1004E000040200010300000009211101000122B6ED
:1004F000000705840320000A09040300020300002A
:1005000000092111010001222200070585032000B6
:100510000107050503200001120100020000000888
:100520006C6101000000010200010E034200720034
:10053000650065007A00650000001C03410066004C
:100540007400650072006E006F006F006E004C005A
:100550006100620073000000040309043F00433E91
:1005600020004C25640A00290A002575002F00256B
:1005700075005D280025640020002564002000250A
:10058000640020002564007C0025303258006D6F27
:100590007573656B6579205B62746E7C7820792059
:1005A0007620685D287265702F61636C293A205B44
:1005B000002200210020001F001E00290000000072
:1005C0000000001700150008001A0014002B00009E
:1005D00000000000000A000900070016000400E007
:1005E000000000000000000500190006001B001DAF
:1005F00000E1000000000000002C00E300E200E049
:10060000000000000000000000000023002400257E
:1006100000260027002A002D002E0035001C00189F
:10062000000C00120013004C002F00300031000BB2
:10063000000D000E000F00330034000000520000D7
:100640000011001000360037003800E5005000515E
:10065000004F00280002510151000000000000007E
:100660000000000000010001000100010001000085
:100670005C00000000000001000100010001000119
:100680000001000000000000000100010001000165
:100690000001000100000000000000010001000155
:1006A0000001000100010000000000000001000145
:1006B0000001000100000000000000000000000137
:1006C0000001000100010001000100A800AA00A92A
:1006D0000001000100010001000100010001000112
:1006E0000001000100010001000100010001000003
:1006F00000010000000100010001000100010001F3
:1007000000010001000100010001000100010000E2
:1007100000000000000000000001000100010001D5
:1007200000010001000000000000000100010001C4
:1007300000010001000100000000000000010001B4
:1007400000010001000100010000000000000001A4
:100750000001000100010001000100000000000094
:100760000001000100010001000000000000000085
:100770000000000100670054005500560001000110
:10078000000100010001005F0060006100570001EE
:100790000001000100010001005C005D005E00013D
:1007A000000100000001000000010059005A005B38
:1007B00000010001000100010001000100010062D0
:1007C00000630000000000000000000000010001C4
:1007D0000001000100010001000000000000000114
:1007E0000001000100010001000100000000000004
:1007F00000010001000100010001000100000000F3
:1008000000000001000100010001000100010000E2
:1008100000000000000100010001000100000000D4
:1008200000000000000000010001000100010001C3
:1008300000010001000100010001000100010001B0
:1008400000010001000100010001000100010001A0
:100850000001000100010000000100000001000192
:100860000001000100010001000100010001000180
:100870000001000100010000000000000000000075
:10088000006164645F6B65795F6269743A206361DB
:100890006E2774206164643A20253032580A00645F
:1008A000656C5F6B65795F6269743A2063616E277E
:1008B000742064656C3A20253032580A006B6579E3
:1008C0006D61705F636F6E6669672E7261773A2043
:1008D000253032580A2E737761705F636F6E7472C1
:1008E0006F6C5F636170736C6F636B3A2025750A80
:1008F0002E636170736C6F636B5F746F5F636F6E99
:1009000074726F6C3A2025750A2E737761705F6C74
:1009100063746C5F6C6775693A2025750A2E73776E
:1009200061705F7263746C5F726775693A202575D8
:100930000A2E737761705F6C616C745F6C677569A8
:100940003A2025750A2E737761705F72616C745F4F
:10095000726775693A2025750A2E6E6F5F67756933
:100960003A2025750A2E737761705F67726176652C
:100970005F6573633A2025750A2E737761705F6235
:1009800061636B736C6173685F6261636B737061E9
:1009900063653A2025750A2E6E6B726F3A202575B5
:1009A0000A0064656275675F636F6E6669672E72C1
:1009B00061773A20253032580A2E656E61626C6587
:1009C0003A2025750A2E6D61747269783A20257572
:1009D0000A2E6B6579626F6172643A2025750A2E62
:1009E0006D6F7573653A2025750A006565636F6ED6
:1009F0006669673A0A64656661756C745F6C6179F3
:100A000065723A2025750A000A092D204D61676933
:100A100063202D0A443A094465627567204D657369
:100A20007361676520546F67676C650A583A094DB2
:100A30006174726978204465627567204D6F6465E2
:100A400020546F67676C65202D2053686F77206B8B
:100A500065797072657373657320696E206D61745A
:100A600072697820677269640A4B3A094B6579624A
:100A70006F61726420446562756720546F67676CAC
:100A800065202D2053686F77206B657970726573D0
:100A900073207265706F72740A4D3A09446562750D
:100AA00067204D6F75736520546F67676C650A56D4
:100AB0003A0956657273696F6E0A533A0953746145
:100AC0007475730A433A09416374697661746520E9
:100AD000436F6E736F6C65204D6F64650A46312DF0
:100AE0004631303A0953776974636820746F204C3B
:100AF0006179657220302D392028463130203D2023
:100B00004C30290A302D393A0953776974636820CB
:100B1000746F204C6179657220302D390A4752413B
:100B200056453A0953776974636820746F204C61A5
:100B300079657220302028616C7465726E6174650D
:100B4000290A423A094A756D7020746F20426F6F0E
:100B5000746C6F616465720A4553433A094A756D56
:100B60007020746F20426F6F746C6F6164657220C7
:100B700028616C7465726E617465290A453A095082
:100B800072696E7420454550524F4D205365747400
:100B9000696E67730A4253504143453A09436C6595
:100BA000617220454550524F4D0A4E3A094E4B5204
:100BB0004F20546F67676C650A000A092D20436F48
:100BC0006E736F6C65202D0A4553432F713A09717E
:100BD0007569740A6D3A096D6F7573656B65790A8D
:100BE000000A092D2056657273696F6E202D0A5612
:100BF00049443A203078363136432841667465726C
:100C00006E6F6F6E4C61627329205049443A2030F8
:100C1000783030303128427265657A652920564532
:100C2000523A203078303030300A4255494C443AFC
:100C30002020284E6F762032362032303231290A79
:100C40004F5054494F4E533A204C554641204D4F3A
:100C50005553454B45592045585452414B45592011
:100C6000434F4E534F4C4520434F4D4D414E442032
:100C70004E4B524F204C544F20343039360A4743A4
:100C8000433A20352E342E30204156522D4C4942C5
:100C9000433A20322E302E30204156525F4152438B
:100CA000483A20617672350A000A092D2053746192
:100CB000747573202D0A686F73745F6B6579626F4A
:100CC0006172645F6C65647328293A20253032585C
:100CD0000A6B6579626F6172645F70726F746F63C3
:100CE0006F6C3A20253032580A6B6579626F6172F9
:100CF000645F69646C653A20253032580A6B657907
:100D00006D61705F636F6E6669672E6E6B726F3AAE
:100D100020253032580A74696D65725F72656164AE
:100D2000333228293A202530386C580A003F004ECB
:100D30004B524F3A206F66660A004E4B524F3A2094
:100D40006F6E0A000A6D6F7573653A206F66660AEA
:100D5000000A6D6F7573653A206F6E0A000A6B6545
:100D600079626F6172643A206F66660A000A6B6589
:100D700079626F6172643A206F6E0A000A6D617465
:100D80007269783A206F66660A000A6D617472694A
:100D9000783A206F6E0A000A64656275673A206FC0
:100DA00066660A000A64656275673A206F6E0A001B
:100DB0000A0A4A756D70696E6720746F20626F6FE2
:100DC000746C6F616465722E2E2E2000433E2000ED
:100DD000436C656172696E6720454550524F4D0AFC
:100DE00000313A0964656C6179282A31306D7329C4
:100DF0003A2025750A323A09696E74657276616C1B
:100E0000286D73293A2025750A333A096D61785F98
:100E100073706565643A2025750A343A0974696D02
:100E2000655F746F5F6D61783A2025750A353A0900
:100E3000776865656C5F6D61785F73706565643A4E
:100E40002025750A363A09776865656C5F74696DA7
:100E5000655F746F5F6D61783A2025750A00703A9E
:100E6000097072696E742076616C7565730A643AF4
:100E7000097365742064656661756C74730A7570B6
:100E80003A092B310A646E3A092D310A6C743A0919
:100E90002B31300A72743A092D31300A4553432FF1
:100EA000713A09717569740A0A7370656564203D49
:100EB0002064656C7461202A206D61785F737065B1
:100EC0006564202A2028726570656174202F207463
:100ED000696D655F746F5F6D6178290A7768657207
:100EE000652064656C74613A20637572736F723D3E
:100EF00025642C20776865656C3D25640A5365651B
:100F000020687474703A2F2F656E2E77696B697044
:100F1000656469612E6F72672F77696B692F4D6FFA
:100F20007573655F6B6579730A004D3E20004D2532
:100F3000753A25733E20003F0A003D2025750A00C2
:100F40003F0A0064656661756C74730A0025750A52
:100F5000003F0A000A092D2056616C756573202D2B
:100F60000A00710A000A092D204D6F7573656B65C3
:100F700079202D0A000011241FBECFEFDAE0DEBF7A
:100F8000CDBF04B603FE27C080914F03909150035C
:100F9000A0915103B09152038730904BA740B04BC2
:100FA000D1F410924F0310925003109251031092FB
:100FB000520314BE84B7877F84BF0FB6F894A895F8
:100FC00080916000886180936000109260000FBE85
:100FD000E0E0F8E3099512E0A0E0B1E0E2E2FFE52D
:100FE00002C005900D92A030B107D9F723E0A0E030
:100FF000B2E001C01D92AF34B207E1F70E94C41500
:101000000C948F2F0C940000FF93EF93E09100025B
:10101000F0910102309709F00995EF91FF91089541
:10102000FC018591803011F0EFDFFBCF0895FF27A1
:10103000E0E230E247FF0CC0419597FF09C0EDE2C6
:101040006095709580959095611D711D811D911D14
:1010500027FF02C0219530E350E2AA27660F771FD1
:10106000881F991FAA1FA41710F0A41B63955A95F7
:10107000A9F7AA3008F0A95FA05DAF93F3956115B9
:1010800071058105910541F7ED3211F4EF93F39568
:10109000F21718F43F93F395FBCF8F91B5DFFA95D4
:1010A000E1F70895E991F9918591803021F0853239
:1010B00019F0AADFF9CF089520E0E8945591553250
:1010C000C1F3503311F4689455915A3348F4505396
:1010D00090F3220F022E220F220F200D250FF4CFA6
:1010E0000EF4219589919991533619F3533729F1CB
:1010F000533559F1BC0188279927E8945C3621F4CF
:101100008991999168945591543639F446EF7EF05F
:1011100077FF0DC08FEF9FEF0AC055374AE039F0D7
:10112000583540E121F0523642E009F00895FF932E
:10113000EF937DDFEF91FF91B7CFFF93EF93FC012A
:1011400081918030B9F360DFFBCFFF93EF9368DFCD
:10115000F1CFDF93CF93CDB7DEB72596A3DFCF9145
:10116000DF9108951F93CF93DF93CDB7DEB76797D5
:101170000FB6F894DEBF0FBECDBF4B8B5C8B6D8B73
:101180007E8B8F8B61111092260286E09E01235F79
:101190003F4FD901E82F1D92EA95E9F795E0FE014E
:1011A0007396D90101900D929A95E1F79C894E8929
:1011B0005F897B897D879E876F87598B488BF90173
:1011C000DE01179601900D928A95E1F7CE01079600
:1011D0000E94B82181113EC086E0FE013796DE01F3
:1011E000119601900D928A95E1F7FF81E8856A8555
:1011F0007B856115710531F0EF3F31F481E0FF3FF0
:1012000019F403C081E001C080E080FD23C020917B
:10121000F60230E0C90101968770992740912703B3
:1012200050E08417950779F1F983EA837D836C8315
:1012300096E0929FD001939FB00D1124A950BD4F0D
:10124000FE01319601900D929A95E1F78093F60296
:101250000E94DA2016E0809127039091F602891708
:10126000F9F0189FC001112489509D4F0E94B821A8
:101270008823B1F08091270390E001968770992729
:1012800080932703E8CF0E94CF231092F60210929A
:101290002703E0EFF2E086E0DF011D928A95E9F78F
:1012A00067960FB6F894DEBF0FBECDBFDF91CF912A
:1012B0001F9108953F924F925F926F927F928F920B
:1012C0009F92AF92BF92CF92DF92EF92FF920F93D5
:1012D0001F93CF93DF93CDB7DEB729970FB6F8945E
:1012E000DEBF0FBECDBFFC0180819181238134819F
:1012F000232B31F09F3F31F491E08F3F19F403C06D
:1013000091E001C090E090FD87C57F0185E0DE019E
:10131000119601900D928A95E1F7F701228189815A
:101320009A81222349F00E945021182F682F898129
:101330009A810E94852303C00E945923182F698136
:101340007A81812F0E94BA278C01F701828188233C
:1013500009F4F2C0980122513F452031310508F0CF
:1013600019C18FEF93E00E94F62E8111EFC0025158
:1013700037EF832E32E0932E002379F08114F4E0CE
:101380009F0609F4E3C0C4010E94F62E811101C03A
:1013900001502FEF821A920AEFCF1E821F82188609
:1013A0001986442443942AE0322E84010F5F1F4F94
:1013B000C4010E94F62E8E831F82882309F4C6C0C2
:1013C0009FEF980F933060F48F834E8232E0830E4C
:1013D000911CC8010E94F62E8887811102C0B6C0F8
:1013E00048018E010A5F1F4FF80120812223E9F294
:1013F000213009F04CC08181813049F46801F2E06C
:10140000CF0ED11CF80182810E94F0240AC08230E4
:1014100051F46801F2E0CF0ED11CF80182810E94E4
:101420003224860186C0833049F46801F2E0CF0E91
:10143000D11CF80182810E94F923F3CF843019F086
:101440000F5F1F4F76C0F80122810E5F1F4F80E0B3
:1014500090E030E0205331092A30310568F4389E9D
:10146000A001399E500D1124C901840F951F0F5FF3
:101470001F4FF8012081EDCF009709F45AC0EFE922
:10148000FFE03197F1F700C000000197F5CFE22FA0
:10149000F0E0E853FE4F5490822F8695869586950E
:1014A00090E0FC01E854FE4F64902770712C022EEE
:1014B00002C0759467940A94E2F7F1E06F227724F2
:1014C000FC01E855FE4FA490B12C022E02C0B59449
:1014D000A7940A94E2F731E0A322BB24FC01E8566A
:1014E000FE4FC490D12C02C0D594C7942A95E2F740
:1014F00081E0C822DD246114710419F081EE0E949C
:101500003224A114B10419F086EE0E943224852DF4
:101510000E94F024AB2819F086EE0E94F923672878
:1015200019F081EE0E94F923CD2819F08CE20E9477
:10153000F0240F5F1F4F58CF00313FE5130709F02C
:1015400062C481E00E94B4230E94761B8091240231
:10155000877009F461C4F7018281882309F45CC4AF
:1015600082E029960FB6F894DEBF0FBECDBFDF91A3
:10157000CF911F910F91FF90EF90DF90CF90BF9090
:10158000AF909F908F907F906F905F904F903F9023
:101590000C94A7150031FFE51F0711F481E005C089
:1015A00001312FE5120721F482E00E94C023CCCF45
:1015B000033FFCE51F0799F406E221EE40EE63EFDE
:1015C0007CE509C0073DECE51E0711F506E221EEBA
:1015D00041EE67ED7CE5C7010E94DD26B7CF043FF1
:1015E0002CE5120708F046C1083D3CE5130731F42D
:1015F00007E225EE45EE68ED7CE5EDCF093D9CE583
:10160000190701F708E221E045EE69ED7CE5E3CF3B
:10161000882309F464C11092370303309DE519074C
:1016200058F40A3FECE51E0760F4C80182509C455F
:10163000449708F03EC105C00136FDE51F0709F0DB
:1016400038C10E947614909345038093440300317F
:101650002CE5120709F4CAC008F041C008308CE537
:10166000180709F4A4C0F0F40430ECE51E0709F4EF
:101670008CC068F402302CE5120709F482C00330F4
:101680001C4509F0E7C0809144038260E1C0063048
:101690008CE5180709F483C008F085C080914403E5
:1016A0008860D6C00C30ECE51E0709F490C068F4E1
:1016B0000A302CE5120709F47EC008F084C00E94AD
:1016C000CF23809144038068C3C00E308CE5180797
:1016D00009F481C008F086C08091440394C00C3F97
:1016E000ECE51E0709F47BC038F504312CE5120740
:1016F00009F49AC058F402318CE5180709F47AC04D
:1017000008F07EC0809144038F7BA2C00A3FECE5C5
:101710001E07F1F108F03FC005311C4509F09AC0E1
:101720008091440382FB222720F991E0922790FBCD
:1017300082F990FB83F98CC001153DE5130709F48C
:1017400067C050F4809145030E3F9CE51907C1F135
:1017500008F05BC08D7F65C00230FDE51F0709F40E
:1017600071C008F46DC001361D4509F073C0809149
:10177000440384FB222720F991E0922790FB84F90F
:1017800067C080914403816063C08091440316C0A8
:101790008091450316C080914503826042C08091CC
:1017A0004403806155C080914403806251C08091A0
:1017B000440380644DC0809144038860846048C0C5
:1017C000826081602EC0809144038E7F41C08091F1
:1017D00044038D7F3DC080914403877F39C0809151
:1017E000450314C0809144038F7E32C0809144032E
:1017F0008F7D2EC00E94CF23809144038F7728C015
:1018000080914403877F8B7F23C08D7F8E7F09C0AB
:1018100080914503982F909591708E7F892B90FB36
:1018200081F98093450316C00E94CF238091440321
:1018300087FB222720F991E0922790FB87F908C0C7
:1018400061E001C060E08EE090E00E94042F02C0E1
:1018500080934403609144031091450384E090E039
:101860000E94042F612F82E290E00E94042F0E94C8
:10187000CF236CCE053FFCE51F0731F406E221EED5
:1018800042EE65EF7CE5A7CE053F2CE5120730F46C
:1018900007E225EE44EE64EF7CE59DCE063F3CE595
:1018A000130709F0B5CE07E225EE46EE66EF7CE5BC
:1018B00092CE06318CE5180719F5809127028A7AB5
:1018C00091E009F490E090930202882311F065E31F
:1018D00001C069E283E092E00E945B260EC00631FF
:1018E0001C4509F056C080910202882309F492C277
:1018F00065E383E092E00E9422260E94F71426CE40
:101900000E3D8CE51807B9F140F40115ECE51E0712
:1019100089F001301C45E1F03CC00B352DE5120784
:10192000A9F10C353DE5130749F10A351D4589F547
:1019300081E02DC00E94CF239FEFE4E3FCE09150B3
:10194000E040F040E1F700C000000E949B25FECD82
:1019500080913E03982F9095917090FB80F9809331
:101960003E03992319F08AE592E002C088E492E0F0
:101970000E941008EBCD0E948714E8CD80914503AA
:1019800082FB882780F991E0892701C080E00E94CE
:101990007B15F701828100811181882349F0C801FC
:1019A0000E945021D82E682FC8010E94852304C0B0
:1019B000C8010E945923D82EB8018D2D0E94BA2744
:1019C0000E94DC12B82E192F982EF7010281A580F3
:1019D000A2949FE0A92280912402877099F00023AD
:1019E00089F0812F807F803421F080E28B0D883058
:1019F00048F082E00E94A715809124028770DD24C0
:101A0000D3948111D12CC12EC2948FE0C8228C2D89
:101A100090E08C30910508F0C2C1FC01EA5AFF4FFA
:101A20000C94582F812F807F1F70882311F01295FE
:101A3000107F0023B9F0112309F49DC180E28B0DC2
:101A4000883010F0911006C080912702182B109357
:101A5000270205C080912602182B109326020E94AF
:101A6000F71489C18B2D0E94F923112309F497C122
:101A700080E28B0D1095883010F0911006C0809197
:101A8000270218231093270205C0809126021823ED
:101A9000109326020E94F71482C1812F807F1F704D
:101AA000803211F01295107F8B2D992021F0F1E0FA
:101AB0009F1611F130C00023B1F0AA2081F021E07F
:101AC000A2120DC08091450382FD69C18091280258
:101AD000182B181709F463C11093280260C1809174
:101AE0002802812B10C0AA2021F031E0A31609F4AE
:101AF00056C10E94F11427C0002341F085E08A15E9
:101B000008F44DC1812F0E94EF2349C194E09A153A
:101B100008F445C118C0002349F0AA2099F3F70141
:101B2000858180FF28C18F708583ECCFAA2059F072
:101B3000893309F031C1FFEF27EE33E0F150204047
:101B40003040E1F727C1812F0E94E42328C1812F73
:101B500086958695837019F0813061F020C100234D
:101B600021F08B2D912F937002C080E090E00E94B5
:101B7000B7261BC1002321F08B2D912F937002C03B
:101B800080E090E00E94A12610C18B2D002319F067
:101B90000E94B22902C00E94B9280E940D2805C1E6
:101BA000812F8370A9F50111FEC04B2D42954695FA
:101BB0004770440F440F8B2D8F7090E09C01042ED2
:101BC00001C0220F0A94EAF7B4FE08C08FE090E04B
:101BD00001C0880F4A95EAF7809501C080E016950C
:101BE00016951370123069F088F490912902113023
:101BF00019F0822B892302C0922B892B0E94CB23C0
:101C0000D2C0822B909129028927F8CF822BF6CF60
:101C1000002319F0812F817001C08695882309F473
:101C2000C2C04B2D429546954770440F440F8B2DF3
:101C30008F7090E09C01042E01C0220F0A94EAF7F5
:101C4000B4FE08C08FE090E001C0880F4A95EAF723
:101C5000809501C080E0169516951370123059F0EA
:101C600078F49091CB02113019F0822B892309C0AE
:101C7000922B892B06C0822B9091CB02892701C021
:101C8000822B0E94B0238FC01F70002339F0812F58
:101C90000E94C0238B2D0E94EF2385C08B2D0E94B4
:101CA000E423812F0E94B4237EC08B2D92EF9916DE
:101CB00059F1991538F0E0EF9E1659F0F1EF9F16A3
:101CC000F1F055C023EF921631F134EF931681F104
:101CD0004EC0002379F084E08A1508F460C01F71BB
:101CE00081E090E001C0880F1A95EAF79091CB024D
:101CF00089271BC095E09A1508F451C0F0CF002346
:101D000029F0812F8F7126C00023D9F3812F8F7185
:101D10000E94B42344C0002339F01F7181E001C048
:101D2000880F1A95EAF701C080E00E94B02337C0FF
:101D3000002399F01F71812F0E94C02380914503D9
:101D400082FD07C0E8E01E9FC001112483608093DC
:101D50002402812F0E94C02322C081E00E94A71587
:101D6000F1E0FA15E0F482E00E94A71518C0002304
:101D700031F0AA2031F28B2D0E94322410C0AA200B
:101D800029F2893349F42FEF37EE83E021503040B8
:101D90008040E1F700C000008B2D0E94F92388EFFE
:101DA0008C0D843010F40E94CD26DD20A9F18091A5
:101DB000240280FD31C0F7011282859585958595B5
:101DC0000E94C023C7010E945A0980912402859570
:101DD0008595859529960FB6F894DEBF0FBECDBFC9
:101DE000DF91CF911F910F91FF90EF90DF90CF90F7
:101DF000BF90AF909F908F907F906F905F904F902B
:101E00003F900C94B42301319FE5190709F0D0CB22
:101E100082E098CB69E26DCD29960FB6F894DEBFCB
:101E20000FBECDBFDF91CF911F910F91FF90EF902B
:101E3000DF90CF90BF90AF909F908F907F906F90EA
:101E40005F904F903F9008958295982F937344E050
:101E5000949F900111248C7C86958695282B822F47
:101E60008575880F2A7A2695822B089590914403D0
:101E700092FF0DC0282F2871283019F4877F8460C5
:101E800006C0282F2471243011F48B7F886093FFC3
:101E90000DC0282F2871283119F4877E846106C06F
:101EA000282F2471243111F48B7E88612091450301
:101EB00020FF0DC0382F3871383019F4877F8160CA
:101EC00006C0382F3171313011F48E7F886021FFC8
:101ED0000DC0282F2871283119F4877E816106C032
:101EE000282F2171213111F48E7E886194FD877E27
:101EF0000895EF92FF921F93CF93DF93CDB7DEB794
:101F00002B970FB6F894DEBF0FBECDBF7B0180E0EC
:101F100090E00E943E2E892B09F065C0409105019A
:101F200050E04115510511F041E050E0609106018B
:101F3000709107016D5B7D4FCE010B960E94862F3D
:101F400040913F02509140026091410270914202E3
:101F50002FB7F8948091400390914103A0914203E0
:101F6000B09143032FBF841B950BA60BB70B843690
:101F70009105A105B10538F484E492E00E94811B2B
:101F80009B85891791F181E090E00E943E2E892B7C
:101F9000A1F440910F0150E04B30510510F04AE0A0
:101FA00050E060911001709111016D5B7D4FCE0189
:101FB00001960E94862F11E001C010E084E492E0B7
:101FC0000E94811B91E02B85281390E0192311F1C9
:101FD0000E94E12560933F0270934002809341028A
:101FE000909342020CC010E001C011E08AE0E4E4EA
:101FF000F2E0DE01119601900D928A95E1F711232E
:1020000049F08AE0FE013196A5E3B2E001900D921D
:102010008A95E1F78AE0E5E3F2E0D70101900D92BD
:102020008A95E1F7812F2B960FB6F894DEBF0FBE8D
:10203000CDBFDF91CF911F91FF90EF9008958F92C8
:102040009F92AF92BF92CF92DF92EF92FF920F9347
:102050001F93CF93DF937C015B01942E852E690142
:10206000809134028A3018F001E010E002C00AE0EA
:1020700010E0C1E0D0E0F894B501C701F601099580
:102080007894811129C021960C171D078CF0CC9FE4
:102090009001CD9F300D300D112480E090E045E39C
:1020A0004A95F1F70000019628173907C1F7E3CFE9
:1020B00090913E03892F817090FF0FC08F929F9265
:1020C00083EE92E09F938F930E94A9080F900F9048
:1020D0000F900F9080E001C081E0DF91CF911F91C0
:1020E0000F91FF90EF90DF90CF90BF90AF909F90B7
:1020F0008F90089580913302811118C08091D8008B
:1021000080618093D8008AE18A95F1F700C08091C0
:10211000D90080FD02C082E001C081E080933302DB
:10212000823021F40E94B51E1092C10281E090918C
:102130003302913009F080E008950F931F93CF93FD
:10214000DF9300D000D0CDB7DEB74091520250915E
:10215000530260915402709155022FB7F894809108
:10216000400390914103A0914203B09143032FBFDC
:10217000841B950BA60BB70B84369105A105B10501
:1021800008F443C00E947A10882319F00E94E125C8
:102190000EC00E94E1250091560210915702209135
:1021A000580230915902600F711F821F931FDC018A
:1021B000CB010296A11DB11D89839A83AB83BC8399
:1021C00080911701909118018D5B9D4F40911601F0
:1021D00050E04530510510F044E050E0BE016F5F23
:1021E0007F4F0E94862F82E090E00E943E2E892B36
:1021F00011F080E00BC00E94E125609352027093C1
:102200005302809354029093550281E00F900F90F7
:102210000F900F90DF91CF911F910F910895F89437
:10222000E82FE295EF70F0E031A1282F2F7081E0C8
:1022300090E001C0880F2A95EAF7982F9095932394
:1022400091A392A1892B82A3789408956F927F9293
:102250008F929F92AF92BF92CF92DF92EF92FF92B6
:102260000F931F93CF93DF93CDB7DEB76E970FB663
:10227000F894DEBF0FBECDBFAE014F5F5F4F7A0156
:1022800084E1DA011D928A95E9F70BE711E06A0112
:1022900070E8672E71E0772E88248394912CF801E2
:1022A00080818F3F09F44DC0F894E82FE295EF70DC
:1022B000F0E021A18F70A40102C0440F551F8A9540
:1022C000E2F7CA01922F982B91A392A180958923BE
:1022D00082A3789400C0E5E8F1E020E030E0A12C92
:1022E000B12C81918F3FC1F0A82FA295AF70B0E0C3
:1022F00090964C9150E08F70DA0102C0B595A79589
:102300008A95E2F7A0FD08C0C401022E02C0880F22
:10231000991F0A94E2F702C080E090E0A82AB92A47
:102320002F5F3F4F29303105E1F6F80180818F3F63
:1023300011F00E940F11F0EAFA95F1F7D601AD9273
:10234000BC920F5F1F4FB2E0CB0ED11C601671061E
:1023500009F0A5CF44E150E0B7018AE592E00E9480
:10236000792F8C01892B41F084E1F701AAE5B2E0D5
:1023700001900D928A95E1F7F0906F020115110519
:1023800049F081E080932C020E94ED2590932B026E
:1023900080932A0280912C028823D9F080912A020E
:1023A00090912B020E94D225059798F0AAE5B2E001
:1023B000EF2DF0E0EE0FFF1FEB57FD4F84E692E0AC
:1023C0002D913D91219331938A179B07C9F7109264
:1023D0002C020115110509F081C00E947A10E091CC
:1023E0006F028823A9F17E01F5E1EF0EF11C8AE06E
:1023F000D7011D928A95E9F70E2F10E0000F111FEB
:102400000B571D4FD0903402B9E0BD1560F029E79D
:102410003FE040E351E0B701C8010E941F1088234C
:1024200009F487C00AC080912D0290912E020E946B
:10243000D225843F914058F795C02DE930E14DE316
:1024400051E0B701C8010E941F1081114AC071C03C
:10245000F894F0E0EE0FFF1FEB57FD4F8AE0A4E485
:10246000B2E001900D928A95E1F784E492E00E9437
:10247000811B809343027894F894C0904E02D090D0
:102480004F02E0905002F090510280912F02909103
:102490003002A0913102B0913202C816D906EA0684
:1024A000FB06D1F0C0922F02D0923002E0923102AE
:1024B000F09232020E947A1081110EC00E94E12532
:1024C000C61AD70AE80AF90AC0925602D0925702F1
:1024D000E0925802F0925902789458C001E010E05E
:1024E00055C0F9E0FD1540F480913E0380FF04C023
:1024F0008AE992E00E94100810923402E0916E0284
:10250000F0E0EE0FFF1FEB57FD4FD7019E01215E5C
:102510003F4F00E08D919D914081518148175907AF
:1025200019F09183808301E032962A173B0791F7D7
:102530002DC0809134028F3F19F08F5F8093340259
:10254000809134028A30D0F20E94ED2590932E02C1
:1025500080932D0280913E0380FF04C08DEA92E0BB
:102560000E94100880916E0290E0880F991F20E071
:1025700030E0FC01E20FF31FEB57FD4F1182108298
:102580002E5F3F4F2A303105A1F701E0802F6E9674
:102590000FB6F894DEBF0FBECDBFDF91CF911F9174
:1025A0000F91FF90EF90DF90CF90BF90AF909F90F2
:1025B0008F907F906F900895CF93DF93823891052D
:1025C00069F1B0F48133910509F46FC048F48932A0
:1025D000910509F465C08A32910509F46BC08AC07F
:1025E0008533910509F457C089339105B9F082C04C
:1025F000833E910571F138F4803E9105B1F0823E41
:10260000910511F177C0863E9105B9F1873E91059C
:10261000C9F1843E910509F06DC024C020914403A6
:1026200020FD53C021FD51C065C08091440380FD51
:1026300046C08091450380FF48C08091440384FDDB
:1026400050C183EE90E04FC18091440382FF3AC0B5
:10265000F4CF8091440382FD35C08091450380FD15
:1026600034C0EBCF8091450381FF35C08091440396
:1026700084FD37C187EE90E036C18091440383FF2B
:1026800027C0F4CF8091440383FD22C0809145038D
:1026900081FD21C0EBCF8091440385FD1FC021C087
:1026A0008091440385FD1DC019C08091440386FDBF
:1026B0001BC01DC08091440386FD19C015C089E36D
:1026C00090E011C182EE90E00EC180EE90E00BC16F
:1026D00086EE90E008C184EE90E005C189E290E0CA
:1026E00002C185E390E0FFC08AE290E0FCC081E394
:1026F00090E0F9C0811531E5930708F069C08115B4
:1027000040E59407F0F09C0174E0369527957A95A2
:10271000E1F7922F9370482F437021E030E002C020
:10272000220F331F4A95E2F73C68392B982F9F7090
:102730009695969540E2949FC0011124822B932B8D
:10274000D2C0883E910568F5803E910508F0CBC067
:10275000883A9105B8F4853A910548F0855AE82FF2
:10276000F0E0E85BFE4F808190E09064BCC0813077
:10277000910509F4B3C008F4B4C08430910508F49D
:10278000B0C0B1C08F3B910508F0ABC0885AE82FAC
:10279000F0E0EE0FFF1FE55BFE4F808191819464B6
:1027A000A2C0811520E2920758F4811531E0930709
:1027B00008F099C0803F910508F493C0906593C0DC
:1027C000811540E4940708F48CC09F70906A8BC018
:1027D000811525E5920708F042C0811534E593077D
:1027E00028F0982F8827846F906A7DC0811543E573
:1027F0009407B0F09C012370332741E050E002C001
:10280000440F551F2A95E2F7282F2695269580E23A
:10281000289F90011124CA01822B932B9A6863C0D0
:10282000811522E5920728F4982F8827816F906AF6
:102830005AC09C012370332741E050E002C0440F8E
:10284000551F2A95E2F7282F2695269580E2289F86
:1028500090011124CA01822B932B9C6844C0EC0187
:10286000811539E59307A8F48115984528F09C2F28
:102870008827806F906A37C0C11586E5D80788F52C
:102880008C2F0E94360F8F7190E0982F88279062CE
:102890002AC081152AE5920790F48C2F8F700E9430
:1028A000360F94E0D695C7959A95E1F7CF70D0E0B2
:1028B000DC2FCC27D0699E01282BC90114C090566B
:1028C0008115904270F48D2F8F710E94360F282F42
:1028D0002F71CE0199279062922B05C081E090E084
:1028E00002C080E090E0DF91CF910895CF9384E023
:1028F00090E00E94F62EC82F82E290E00E94F62E11
:102900002C2F30E0A901582BCA01CF91089569EE10
:102910007EEF80E090E00E94222F60E082E090E075
:102920000E94042F60E083E090E00E94042F109248
:10293000290260E084E090E00E94042F60E082E2DF
:1029400090E00E94042F60E085E090E00E94042F58
:1029500060E086E090E00E94042F6FEF87E090E057
:102960000E94042F40E050E0BA0188E090E00E940D
:10297000162F60E08DE090E00E94042F40E050E0D0
:10298000BA0188E190E00E94162F60E087E190E0B4
:102990000E94042F40E050E0BA018CE190E00E94D8
:1029A000162F60E070E080E290E00E94222F40E06D
:1029B00050E0BA0188E190E00E94162F80E00E946A
:1029C000C7270E94E52740E050E0BA018FE090E081
:1029D0000E94162F40E050E0BA0183E190E00C9491
:1029E000162F809128028111109228020895EF92EB
:1029F000FF920F931F93CF9390912702809126020D
:102A0000892B20912502982F922B9093030280917D
:102A100028028823D9F0892B809303028091290111
:102A2000882331F08091440387FF02C08EE101C00A
:102A300086E0E5E0F2E090E0815028F02191222349
:102A4000D9F39F5FF9CF91110E94F114E0913A03FD
:102A5000F0913B03309709F448C080912901882305
:102A600059F08091440387FF07C08091030280934F
:102A7000040285E0809303020280F381E02D83E06D
:102A800092E0099580913E0382FF2FC080FF04C031
:102A900088E892E00E94100803E012E0C8E082E8B3
:102AA000E82E82E0F82E80913E0380FF0CC0F801F2
:102AB00080811F928F93FF92EF920E94A9080F903E
:102AC0000F900F900F90C1500F5F1F4FC111EBCFB0
:102AD00080913E0380FF09C080E892E0CF911F9172
:102AE0000F91FF90EF900C941008CF911F910F91D0
:102AF000FF90EF900895CF93DF93C0914503C2FB01
:102B0000992790F9981701F1D82F80FBC2F9C0934B
:102B100045036091440384E090E00E94042F6C2FF1
:102B200082E290E00E94042F80913E0380FF0CC05F
:102B30001F92DF938BE692E09F938F930E94A908E8
:102B40000F900F900F900F90DF91CF9108952091EB
:102B500024028095822380932402982F977041F459
:102B600030E0482F082E000C550B2417350721F4B0
:102B70009091450392FF07C08595859585950E94A4
:102B8000B423109224020895CF93DF93CDB7DEB71C
:102B9000AB970FB6F894DEBF0FBECDBF84B7877F6B
:102BA00084BF0FB6F894A8958091600088618093E7
:102BB0006000109260000FBE90E080E80FB6F894BD
:102BC00080936100909361000FBE85B7806885BFD8
:102BD00085B7806885BF8BE09BE19093010280936D
:102BE00000020E94B51E0E94D41E8091E200846003
:102BF0008093E20078948091C1028823A1F0109123
:102C0000E9001F709091EC00892F817090FD80E8A1
:102C1000182B1092E9008091E80083FD0E94981B18
:102C20001F701093E90082E084BD93E095BD9AEF98
:102C300097BD80936E001092560210925702109228
:102C40005802109259020E94F427811102C00E947A
:102C5000E52723982B9883B183FB882780F98093FD
:102C60001E010E947A1081110E94312D80911E0157
:102C700080911E01882311F090E001C095E09093AF
:102C80006F0285E0891B80936E020BE711E0B0E8CC
:102C9000EB2EB1E0FB2EF80181918F018F3F11F0F7
:102CA0000E940F11E016F106B1F705E811E0AEE859
:102CB000EA2EA1E0FA2EF80181918F018F3F11F0E9
:102CC0000E940F11E016F106B1F7EAE5F2E0A5E87F
:102CD000B2E0119211921D921D9222E0EE36F2079F
:102CE000C1F780E090E00E94FE2E893E9E4F21F4C5
:102CF0000E94F427811102C00E94871482E090E0B4
:102D00000E94F62E80933E030E9476149093450312
:102D1000809344030E9426118FE39CE90197F1F709
:102D200000C000000E9426118091850280FF08C02B
:102D30006FEF7FEF80E090E00E94222F0E949B25A2
:102D400083E090E00E94F62E0E94CB230E947A102E
:102D5000811102C00E94342D8FE191E090933B03DA
:102D600080933A0389EF92E00E9410088091C1029B
:102D7000853009F04CC08BE493E00E941008F0E429
:102D8000FF2E00E112E18091C102853009F03BC0C5
:102D90008091C102843019F110923F03E8E1F0E024
:102DA0000FB6F894A895E09360000FBEF092600013
:102DB00083B7817F846083BF83B7816083BF78944A
:102DC000889583B78E7F83BF0FB6F894A8958091BE
:102DD0006000886180936000109260000FBE809157
:102DE000C002882309F4CFCF0E942611E5E8F2E063
:102DF00081919191892B09F038C329E932E02E178E
:102E00003F07B1F7C0CF0E94CF230E94CD260E947A
:102E1000261181110E94E12571E7672E72E0772E5D
:102E2000E5E84E2EE2E05E2E00E010E00BA7F20196
:102E3000A190B1902F01F301C190D1903F01CA241C
:102E4000DB24C114D104B1F40F5F1F4F0A30110508
:102E500069F78FEF8EA38FA318A60E94ED258160DE
:102E6000782F9AA789A74EA15FA168A58AA50E947D
:102E7000B2087CC080913E0381FD05C0912CEE24F8
:102E8000E394F12C49C08AE193E00E94100855E8D0
:102E9000852E52E0952EE12CF12CFF92EF9225E148
:102EA00033E03F932F930E94A90882E193E00E94B0
:102EB0001008F40180812180F2E08F0E911C0E94A5
:102EC000240F382E822D0E94240F232D30E0322F24
:102ED0002227A901482BCA019F938F938CE093E08E
:102EE0009F938F930E94A9088AE093E00E941008A4
:102EF000FFEFEF1AFF0A0FB6F894DEBF0FBECDBF8B
:102F00003AE0E316F10449F6B9CF9394EE0CFF1CB6
:102F100059E0951609F498CFC6018E219F21892B7F
:102F2000A1F30E947A108823B1F099A24BA54AA37D
:102F3000AE20BF2081E0AB2809F480E08BA30E9483
:102F4000ED258160782F9DA38CA349A15AA16BA187
:102F50008DA10E94B208000F111FF801EF58FD4F1C
:102F600080819181E826F926F182E08286E0EFE215
:102F7000F3E08E010F5F1F4FD80101900D928A95EB
:102F8000E1F7C0903103D0903203E0903303F0902A
:102F900034031092310310923203109233031092D3
:102FA0003403C11003C0DD2009F45DC080912D03FE
:102FB00090912E030E94D225AC0190912A0399236F
:102FC00039F020912E0130E02417350758F04BC01E
:102FD00020912F018AE0289F9001112424173507A2
:102FE00018F041C09F3F19F09F5F90932A03CC20B7
:102FF00061F00E9469291C1414F491E001C09FEF54
:10300000899F802D112480933103DD2061F00E947F
:1030100069291D1414F491E001C09FEF899F802D50
:10302000112480933203309131033323E1F0209156
:1030300032032223C1F045EB3403C001112499234C
:1030400019F09093310303C081E08093310355EB75
:103050002503C0011124992319F09093320303C072
:1030600081E080933203E11003C0FF2009F451C0D6
:1030700080912B0390912C030E94D2259C0190916A
:103080002803992309F410C22536310508F441C0FC
:103090009F3F19F09F5F90932803EE2061F00E94FC
:1030A00030291E1414F491E001C09FEF899F802DF8
:1030B000112480933303FF2061F00E9430291F14F4
:1030C00014F491E001C09FEF899F802D112480931B
:1030D0003403309133033323E1F02091340322236E
:1030E000C1F045EB3403C0011124992319F09093EA
:1030F000330303C081E08093330355EB2503C00104
:103100001124992319F09093340303C081E0809334
:1031100034038091310381110BC0809132038111FE
:1031200007C080913303811103C080913403811162
:103130000E940D28CB82DC82ED82FE8286E0F801BF
:10314000AFE2B3E001900D928A95E1F70E94CD269F
:1031500090917002891739F10E94CD26F82E809344
:10316000700280913E0382FF1EC080FF04C088E38E
:1031700093E00E94100880913E0380FF0CC01F92D4
:10318000FF9283E393E09F938F930E94A9080F908F
:103190000F900F900F9080913E0380FF04C081E359
:1031A00093E00E9410088091C102843009F0DECDC6
:1031B00083E08093E9008091E80082FFD7CD809181
:1031C000E80085FF21C00E945E2081111BC080E2C3
:1031D000E82EF12C680109C08091F100F60181937D
:1031E0006F01F1E0EF1AF10869F08091E80085FDC8
:1031F000F3CF8091E8008B778093E8000E945E20F7
:10320000882399F391E001C090E08091E8008B77EA
:103210008093E800992309F4A9CDE9818E2F90E0ED
:10322000FC013197E331F10508F0F5C0EE59FF4F8D
:103230000C94582F1A825CC08A81823009F42BC109
:10324000833051F0813009F0E6C00E94E1259B8374
:103250008C837D836E83E1C0F801CE014596A5E89D
:10326000B2E02C9111963C911197129632832383F0
:1032700032968E179F07A9F7D0C08A81823009F055
:10328000CAC06B817C818D819E810E945E2F86E207
:1032900090E024C04C816B818A810E9494279D8399
:1032A00001C1CD80DE80DC24CD24DC248C81EB8048
:1032B0009A8122E1E29E7001112434EB939FE00C8D
:1032C000F11C1124E80EF11CE80EF11C6D2DC70154
:1032D00087960E94042F6C2DC70188960E94042FA8
:1032E0009CC00E94602799C080E150C081E08A8321
:1032F00089E08B8392C0EA80FB80FE24EF24FE24C9
:10330000AC80B12C6801C70189509D4F9601201BEC
:10331000310B2A153B0508F080C049E0E41641E076
:10332000F40628F40E94F62EF601848302C0F6010A
:103330001482FFEFEF1AFF0A2FEFC21AD20AE3CF6F
:10334000EA80FB80FE24EF24FE24AC80B12C6801CF
:10335000C70189509D4F9601201B310B2A153B0553
:1033600008F05BC039E0E31631E0F30620F4F60123
:1033700064810E94042FFFEFEF1AFF0A2FEFC21A99
:10338000D20AE6CF0E94502748C084E08A8345C015
:10339000EA80FB80FE24EF24FE24AC80B12C68017F
:1033A000C70187969601201B310B2A153B05A8F50E
:1033B00030EDE31632E0F30628F40E94F62EF60113
:1033C000848302C0F6011482FFEFEF1AFF0A2FEF89
:1033D000C21AD20AE5CFEA80FB80FE24EF24FE2445
:1033E000AC80B12C6801C70187969601201B310B78
:1033F0002A153B0590F430EDE31632E0F30620F495
:10340000F60164810E94042FFFEFEF1AFF0A2FEFED
:10341000C21AD20AE8CF8FEF89838091C10284302B
:1034200009F0A4CC8091E9008F702091EC00922FDC
:10343000917020FD90E8F92EF82A82E08093E9004F
:103440008091E80080FF0CC040E050E060E270E056
:10345000C8010E9491208091E8008E778093E80057
:103460008F2D8F708093E90081CC09BD19BD09B4FF
:1034700000FEFDCF8091D8008F7D8093D800809191
:10348000E00082608093E0008091E00081FDFCCF4D
:103490000E94CF2378CC86E290E00E94F62E1B8219
:1034A0001C821D828E83B9CF2D32314008F0F2CDBF
:1034B00030CE8091C30287FF11C08091E80082FD69
:1034C00005C08091C1028111F8CF11C08091E80040
:1034D0008B770BC08091C102882349F08091E8006E
:1034E00080FFF8CF8091E8008E778093E800089500
:1034F000982F973068F59093E900981739F07091FC
:10350000EC002091ED005091F00003C0242F762FA5
:1035100050E021FD02C09F5FECCF3091EB003E7F79
:103520003093EB003091ED003D7F3093ED00309112
:10353000EB0031603093EB007093EC002093ED00D2
:103540005093F0002091EE0027FDE5CF80E0089534
:103550008F708093E90081E008952091C902309135
:10356000CA022617370748F06115710539F4209112
:10357000E8002E772093E80001C0B901FC0120E0AB
:103580006115710579F18091C1028823F1F18530CF
:10359000F1F18091E80083FD3CC08091E80082FD5C
:1035A0002EC08091E80080FFEBCF2091F300809146
:1035B000F20090E0922B6115710551F08830910571
:1035C00038F421912093F100615071090196F3CFF5
:1035D00021E0089709F020E08091E8008E77809341
:1035E000E800CECF2111CFCF0AC08091C10288233D
:1035F00061F0853061F08091E80083FD0AC0809120
:10360000E80082FFF2CF80E0089582E0089583E031
:10361000089581E008959FB7F89410929A029FBF91
:103620009091C102943009F057C09091E9009F70C9
:103630003091EC00232F217030FD20E8922B25E003
:103640002093E9002091EB0020FF43C02091EE0081
:1036500027FF3FC020919902222321F02091E8000A
:1036600025FF37C01092990226E03091E80035FD21
:1036700015C03091C102343061F53091EB0035FD59
:1036800028C0215021F481E08093990222C0EFE903
:10369000FFE03197F1F700C00000E7CF8093F10021
:1036A0008091E80085FD0AC08091E80080FFFCCF92
:1036B0008091E8008E778093E80006C08FB7F89479
:1036C00021E020939A028FBF9F709093E90080E0E1
:1036D00008959F709093E9008FEF0895BC0184E0F6
:1036E0000C947125BC0183E00C9471258091CB0270
:1036F000982F9670963011F4886001C0877F0C94E3
:10370000B023FC01AC01465F5F4F8FEF91E3219145
:10371000822728E030E087FF03C0880F892701C097
:10372000880F21503109B9F7E417F50781F708959B
:103730001F93CF93DF93CDB7DEB7AA970FB6F89458
:10374000DEBF0FBECDBFE3ECF2E08BEC92E0209148
:10375000F10021938E179F07D1F78091C402833027
:1037600009F462C030F4813071F0823009F49CC0F9
:10377000B3C08A3009F488C08B3009F46DC0893039
:1037800009F0AAC020C08091C302813A09F0A4C008
:103790008091E800877F8093E8008091C702909134
:1037A000C802892B21F460E28FE992E003C060E057
:1037B00080E090E070E00E94AD1A8091E8008B7785
:1037C0008093E80089C08091C302813209F084C0EF
:1037D0008091C7029091C802009719F0029709F0F2
:1037E0007BC08091E800877F8093E8008091E800AB
:1037F00082FD05C08091C1028111F8CF6DC020917A
:10380000F3008091F20090E0922B029729F48091CE
:10381000F1008B7F813021F48091F10080939E0232
:103820008091E8008B7754C08091C302813A09F0FF
:1038300053C08091C7029091C802892B09F04CC0F7
:103840008091E800877F8093E8008091E80080FF06
:10385000FCCF8091290137C08091C3028132E1F50C
:103860008091C7029091C802892BB1F58091E80040
:10387000877F8093E8000E94591A8091C502809347
:1038800029010E94CF2328C08091C302813221F5F3
:103890008091E800877F8093E8000E94591A809108
:1038A000C60280939D0218C08091C302813AA1F4A0
:1038B0008091E800877F8093E8008091E80080FF96
:1038C000FCCF80919D028093F1008091E8008E777B
:1038D0008093E8000E94591A8091E80083FFE3C1B9
:1038E0008091C3029091C402492F50E04A305105A3
:1038F00008F0D9C1FA01EB58FF4F0C94582F8038CB
:1039000021F0823809F0CFC108C08091BF029091A8
:10391000C002992389F082600FC08091C7028F7026
:10392000873008F0C0C18093E9008091EB0085FBEF
:10393000882780F91092E9009091E800977F909392
:10394000E8008093F1001092F10071C1282F2D7FC3
:1039500009F0A9C1882319F0823061F0A4C18091D7
:10396000C502813009F09FC1933009F080E0809357
:10397000C0022EC08091C50281112AC08091C70269
:103980008F702FEF280F263008F08DC18093E9004B
:103990002091EB0020FF1CC0933021F48091EB00BC
:1039A000806214C09091EB0090619093EB0021E055
:1039B00030E0A90102C0440F551F8A95E2F74093F9
:1039C000EA001092EA008091EB0088608093EB009F
:1039D0001092E9008091E800877F8093E8000E94C0
:1039E000591A61C181115FC11091C5021F77809181
:1039F000E3008078812B8093E3008091E800877F4B
:103A00008093E8000E94591A8091E80080FFFCCF63
:103A10008091E30080688093E300111102C082E08E
:103A200001C083E08093C1023EC18058823008F01B
:103A30003AC12091C5023091C6022C3D53E03507B2
:103A400079F583E08A838AE289834FB7F894DE01AF
:103A5000139620E03EE051E2E32FF0E05093570050
:103A6000E49120FF03C0E295EF703F5FEF708E2F6F
:103A700090E0EA3010F0C79601C0C0968D939D93F8
:103A80002F5F243149F74FBF8091E800877F8093F3
:103A9000E8006AE270E0CE0101960E94AD1AB5C05E
:103AA0008091C7029091C802432F5527433051059A
:103AB000A9F068F44130510509F404C142305105C0
:103AC00009F0F1C08BE790E0EDE9F4E04BC0413242
:103AD000510529F14232510589F1E5C0C901992703
:103AE00081309105A1F058F0029709F0DCC0EAE2BC
:103AF000F5E0E4918E2F90E0EAE2F5E030C0E8E5F1
:103B0000F5E0E4918E2F90E0E8E5F5E028C0EAE3E7
:103B1000F5E0E4918E2F90E0EAE3F5E020C08430F8
:103B2000910508F0C0C0880F991FFC01E656FE4FB2
:103B30000190F081E02D89E090E014C0843091057F
:103B400008F0B1C0FC01EE0FFF1FEE56FE4F0190D2
:103B5000F081E02DDC01A257BE4F8C9190E00097E0
:103B600009F4A1C02091E800277F2093E80020916C
:103B7000C9023091CA028217930708F49C0140E001
:103B80002115310589F18091C102882309F43DC0D6
:103B90008530D9F18091E80083FD37C08091E8003D
:103BA00082FD2FC08091E80080FFEACF4091F300B2
:103BB0008091F20090E0942B2115310559F0883066
:103BC000910540F444914093F10031962150310920
:103BD0000196F2CF41E0089709F040E08091E800BB
:103BE0008E778093E800CCCF4111CDCF0AC0809171
:103BF000C102882351F0853041F08091E80083FDB7
:103C000004C08091E80082FFF2CF8091E8008B77BA
:103C10008093E80048C0803809F045C08091E800F2
:103C2000877F8093E8008091C2028093F1008091A9
:103C3000E8008E77D2CE811136C08091C502909176
:103C4000C602992702977CF58091E800877F8093D0
:103C5000E8001091C5021093C2020E94591A111176
:103C600006C08091E30087FD02C081E001C084E0CE
:103C70008093C10242E061EC81E00E94781A42E246
:103C800061EC84E00E94781A42E261EC82E00E94DA
:103C9000781A42E260EC83E00E94781A42E261EC1A
:103CA00085E00E94781A8091E80083FF10C080911F
:103CB000E800877F8093E8008091EB00806280932A
:103CC000EB0005C082E190E0E8E1F5E04BCFAA9679
:103CD0000FB6F894DEBF0FBECDBFDF91CF911F911D
:103CE00008951F920F920FB60F9211242F933F93B6
:103CF0004F935F936F937F938F939F93AF93BF93F4
:103D0000CF93DF93EF93FF93C091E900CF70809141
:103D1000EC00D82FD17080FDD0E81092E90080919E
:103D2000F000877F8093F00078940E94981B109297
:103D3000E9008091F00088608093F000CD2BCF7077
:103D4000C093E900FF91EF91DF91CF91BF91AF91C7
:103D50009F918F917F916F915F914F913F912F91A3
:103D60000F900FBE0F901F901895E8EDF0E0808146
:103D70008E7F80831092E2001092DA001092E100B0
:103D8000A0EEB0E08C9181608C9380818F778083EE
:103D900019BCA7EDB0E08C918E7F8C9380818F7ED3
:103DA000808310929C020895CF92DF92EF92FF924F
:103DB0000F931F93CF93DF93C8EDD0E088818F7E60
:103DC0008883E7EDF0E080818160808384E082BFBA
:103DD00081E080939C0288818E7F888302EE10E0D0
:103DE000F80110821092DA0081EEC82ED12CF60173
:103DF000108288818F778883888180688883888112
:103E00008F7D888319BC1092C1021092C202109259
:103E1000C0021092BF0290EEE92EF12CF7018081D2
:103E20008B7F808388818160888342E060E080E0CE
:103E30000E94781AF60180818E7F8083F80180814C
:103E400081608083808188608083F70180818E7F9C
:103E50008083888180618883DF91CF911F910F914A
:103E6000FF90EF90DF90CF9008951F920F920FB6C2
:103E70000F9211242F933F934F935F936F937F93F0
:103E80008F939F93AF93BF93EF93FF938091E10044
:103E900082FF49C08091E20082FF45C08091E1002D
:103EA0008B7F8093E10020919B022F5F822F62E342
:103EB0000E94382F992319F020939B0234C010924E
:103EC0009B0280919A02882371F18091C102843013
:103ED00041F58091E9008F702091EC00922F917054
:103EE00020FD90E8892B95E09093E9009091EB00FC
:103EF00090FF14C09091EE0097FF10C09091E800E1
:103F000095FF03C01092F100F9CF9091E80090FF67
:103F100005C09091E8009E779093E8008F708093A1
:103F2000E90010929A028091DA0080FF32C08091FD
:103F3000D80080FF2EC08091DA008E7F8093DA0057
:103F40008091D90080FF1CC080E189BD82E189BDDC
:103F500009B400FEFDCF81E08093C10289E894E0BE
:103F60000E94100880919C02811113C00E94B51E0E
:103F70000E94D41E8091E20084608093E20009C018
:103F800019BC1092C1028DE894E00E9410081092B2
:103F90009C028091E10080FF1BC08091E20080FFC5
:103FA00017C08091E2008E7F8093E2008091E20052
:103FB00080618093E2008091D80080628093D80075
:103FC00019BC85E08093C10281E994E00E94100849
:103FD0008091E10084FF32C08091E20084FF2EC016
:103FE00080E189BD82E189BD09B400FEFDCF8091E9
:103FF000D8008F7D8093D8008091E1008F7E8093E0
:10400000E1008091E2008F7E8093E2008091E200E7
:1040100081608093E2008091C202882311F084E0E5
:1040200007C08091E30087FD02C081E001C083E00A
:104030008093C10285E994E00E9410088091E1001C
:1040400083FF2BC08091E20083FF27C08091E100B5
:10405000877F8093E10082E08093C1021092C202C8
:104060008091E1008E7F8093E1008091E2008E7F5D
:104070008093E2008091E20080618093E20042E060
:1040800060E080E00E94781A8091F0008860809360
:10409000F00089E994E00E941008FF91EF91BF9130
:1040A000AF919F918F917F916F915F914F913F91D0
:1040B0002F910F900FBE0F901F9018952091E40044
:1040C0003091E50095E64091EC00842F817040FF2F
:1040D00023C08091E80080FD1DC08091C10288232B
:1040E00099F0853099F08091EB0085FD11C04091E9
:1040F000E4005091E5002417350729F3915011F0A1
:104100009A01E1CF84E0089582E0089583E0089564
:1041100081E0089580E008954091E80042FFDDCFFE
:104120000895EF92FF920F931F93CF93DF937C013B
:104130008B010E945E20811119C0E7010115110554
:10414000A1F08091E80085FD0AC08091E8008E779B
:104150008093E8000E945E20882381F307C0899144
:104160008093F10001501109E9CF80E0DF91CF91F8
:104170001F910F91FF90EF90089580E090E00E94D2
:10418000B72680E090E00E94A126109226021092AD
:1041900025020E94F714EFE2F3E086E0DF011D92B2
:1041A0008A95E9F710922A031092280310922903A6
:1041B0000C940D28809127039091F602891719F02D
:1041C0008F5F8770FBCF08950F931F93CF93DF937B
:1041D0008091F50282958F7009F05DC08091F202A6
:1041E000882309F458C0809127031091F60260914A
:1041F000F0027091F102C091F302D091F40291E0CB
:104200006F3F09F090E0292F06E0811709F443C0C1
:10421000209721F07F3F21F030E003C031E001C062
:10422000322F90E030FD34C0089FF001099FF00D5F
:104230001124DF01A950BD4F11963C9111973713FE
:1042400027C03C91361324C012963C91129731112D
:104250001FC013964D915C9114974C1B5D0B483C0D
:104260005105B0F48091F5028F7080618093F50262
:10427000E450FD4F80818F708061808380EF92E0F9
:104280000E945A09DF91CF911F910F910C94DA206F
:1042900001968770BACFDF91CF911F910F9108954A
:1042A000CF92DF92FF920F931F93CF93DF936C0116
:1042B0000091CB0280912902082BC7E0D0E010E0EA
:1042C000C8010C2E02C0959587950A94E2F780FDEF
:1042D00004C02197A8F7F12C09C0FC2EB6018C2F41
:1042E0000E94BA270E94DC12019799F38F2DDF916B
:1042F000CF911F910F91FF90DF90CF900895CF93B2
:10430000DF93EC010E945021BE010E94BA270E9457
:10431000DC12DF91CF910895FC01808191810E9490
:104320007F21292F2F70E92FE295EF704E2F50E05B
:10433000FA013297EE30F105B8F4E158FF4F0C94D2
:10434000582F803F99F018F4883E70F40FC0843FD6
:1043500059F40CC0883E50F0813F31F407C0822FE1
:10436000869586958695089580E0089581E0089564
:104370009F92AF92BF92CF92DF92EF92FF920F93F4
:104380001F93CF93DF93CDB7DEB761970FB6F89445
:10439000DEBF0FBECDBF8C0185E0F801DE011D96AA
:1043A00001900D928A95E1F7F801E2809091F00278
:1043B0006091F1024091F3025091F40241155105D0
:1043C00031F06F3F31F481E09F3F19F403C081E089
:1043D00001C080E0F82FF1709F2E80FD1AC1F80116
:1043E00030812181C380D48080EFA82E82E0B82E56
:1043F000F090F202F601E41BF50BFF2009F4C6C0B1
:104400008091F502E83CF10508F091C0482F407F0B
:1044100009F050C0621311C093130FC0FE2CE110BD
:104420000CC08F7080618093F502C5010E945A090B
:104430008091F502F801858329C1CD2831F02F3F05
:1044400031F481E03F3F19F403C081E001C080E016
:1044500080FD03C081E08E2502C080E090E0F82F4F
:10446000F170FF2E80FF1CC0809127034091F6025F
:1044700056E0841709F4E8C090E0589FF001599F76
:10448000F00D1124E950FD4F6181261306C06081B3
:10449000631303C06281E61203C001968770E9CFFF
:1044A000FE2CEE2009F4F2C08091F5028160809329
:1044B000F50249C0621306C0931304C0E11002C0A4
:1044C000F80186C0C8010E948C21882351F1EE209A
:1044D00041F12091F502822F82958F7090E0029732
:1044E00074F08091F0029091F10298878F83198681
:1044F000DB86CA862C87CE0107960E945A0986E081
:10450000F801A0EFB2E001900D928A95E1F70E94C8
:10451000E4200AC06217C9F0C8010E948C218111F1
:104520001EC0C8010E945A09FF24F394AFC0482F4F
:10453000407F81F780EF92E00E945A0986E0F50102
:1045400011928A95E9F7F12CA1C09313E5CFE11000
:10455000E3CFF8018583C8010E945A0954C0EE20B8
:1045600001F32091F502822F82958F7090E00297DF
:1045700034F28091F0029091F1029A8389831B8238
:10458000DD82CC822E83CE010196B7CFE83CF105C7
:10459000D0F5FE2CEE2029F2621327C0931325C01C
:1045A0002091F50220FD18C0822F82958F70482F30
:1045B00050E04115510581F0F80125834F30510538
:1045C00041F08F5F982F9295907F822F8F70892B6B
:1045D0008583C8010E945A0986E0F801A0EFB2E085
:1045E00001900D928A95E1F751C0C8010E948C217B
:1045F000811185CF8091F50281608093F502C80119
:104600000E945A0943C086E0F50111928A95E9F7A4
:104610003DC0EE2009F485CFC8010E948C21F82E00
:10462000882309F47ECF86E0F801A0EFB2E0019084
:104630000D928A95E1F78091F0029091F1020E942B
:104640007F210E94E42022C03D872E878D859E8594
:104650000E947F21292F22952F70223028F49F70ED
:1046600039F0811105C00BC0243028F49F7049F443
:10467000805E883020F0C8010E945A099F2CF92CD6
:1046800005C0F8019581907F99F7F9CF8F2D61963C
:104690000FB6F894DEBF0FBECDBFDF91CF911F9153
:1046A0000F91FF90EF90DF90CF90BF90AF909F90D1
:1046B000089529E0929F800D1124682F66956695D4
:1046C0006695982F977083E0689FB001112440E0B1
:1046D00050E080E0FB01E40FF51FE453FD4F208123
:1046E00030E0092E02C0369527950A94E2F7217032
:1046F0003327042E01C0220F0A94EAF7822B4F5F62
:104700005F4F4330510531F7089529E0929F800DA6
:104710001124E82FE695E695E695877051E001C0F3
:10472000550F8A95EAF783E0E89FF0011124E453DE
:10473000FD4F20E030E070E04081CB01022E02C04E
:10474000969587950A94E2F7817081958427852351
:10475000842781932F5F3F4F2330310569F70895F8
:104760008093CB020C94BD2021E030E001C0220FE9
:104770008A95EAF720958091CB0282230C94B0238E
:1047800021E030E001C0220F8A95EAF78091CB0248
:10479000822B0C94B023809329020C94BD2010929C
:1047A000270280912901882331F08091440387FFFB
:1047B00002C08EE101C086E0E5E0F2E0DF011D927B
:1047C0008A95E9F70C94BD20882341F0809590915B
:1047D00027028923809327020C94F71408958823D5
:1047E00039F090912702892B809327020C94F714BB
:1047F00008958823B1F19CEF980F913A30F4682F17
:1048000083E092E00E94222614C090E2980F983034
:1048100090F4877021E030E0A90102C0440F551FD9
:104820008A95E2F7CA0180959091270289238093A7
:1048300027020C94F7149BE5980F933020F480E046
:1048400090E00C94B72698E5980F973120F480E01B
:1048500090E00C94A126803F20F00E94B9280C948F
:104860000D280895CF93882309F4B8C0C82F8CEF82
:104870008C0F813AF0F580914903813081F030F05E
:104880008230A1F58C2FCF910C944C2A8091270275
:10489000823209F06BC08C2F0E94692B65C0809119
:1048A00027028232C1F3C431C9F058F4CB3069F029
:1048B000C031B9F482E08093490388E30E944C2A16
:1048C00051C0C93259F0C83361F48AEB9BE00E94B1
:1048D00010088EE595E00E94100844C0109249032C
:1048E0003EC08CE595E00E94100839C01092490343
:1048F0003DC080E28C0F883078F4C77081E090E092
:1049000001C0880FCA95EAF790912702892B8093FE
:104910002702CF910C94F714EBE5EC0FE33040F451
:10492000F0E0E85BFE4F808190E0CF910C94B726D9
:10493000E8E5EC0FE73150F4F0E0EE0FFF1FE55B28
:10494000FE4F80819181CF910C94A126C03F08F445
:1049500045C08C2F0E94B229CF910C940D2880E085
:10496000817002C081E0FCCF811138C080912901A3
:104970008823E1F08091440387FF18C0EC2FE6956F
:10498000E695E695F0E0ED5FFD4F8281282F30E05F
:104990004C2F477081E090E002C0880F991F4A9524
:1049A000E2F782239323892B61F412C0E5E0F2E061
:1049B0008BE092E02191C21721F08E179F07D1F76B
:1049C00007C06C2F83E092E00E9422260E94F71419
:1049D0006C2F83E092E00E945B269BCFCF910895DD
:1049E0001F93CF93DF93182F893319F0C0E0D0E0E5
:1049F00002C0C0E5D0E0812F0E943224209741F010
:104A00008FE99FE00197F1F700C000002197F6CFF2
:104A1000812FDF91CF911F910C94F92380919E02F9
:104A2000089524E02093E9002FEF3091E800215011
:104A300035FD06C035ED3A95F1F700002111F5CFAF
:104A40002091E80025FF0BC040E050E066E070E0F8
:104A50000E9491208091E8008E778093E80008956D
:104A6000CF93DF9320912901222339F02091440331
:104A700027FF03C060E224E002C068E021E0209349
:104A8000E9002FEF3091E800215035FD06C035EDEB
:104A90003A95F1F700002111F5CF2091E80025FFAC
:104AA0001DC0EC0180912901811105C040E050E05A
:104AB00068E070E003C070E040E050E0CE010E948A
:104AC00091208091E8008E778093E80080E2FE01DB
:104AD000AFE9B2E001900D928A95E1F7DF91CF91B5
:104AE00008959091C102943029F580934603709304
:104AF0004803609347039093E9008FEF9091E8009B
:104B0000815095FD06C095ED9A95F1F70000811151
:104B1000F5CF8091E80085FF0DC040E050E063E0F4
:104B200070E086E493E00E9491208091E8008E7707
:104B30008093E800089587E797E7909301088093B2
:104B400000089AE088E10FB6F894A8958093600079
:104B50000FBE90936000FFCF78941F920F920FB614
:104B60000F9211248F939F93AF93BF938091400333
:104B700090914103A0914203B09143030196A11D7E
:104B8000B11D8093400390934103A0934203B093DF
:104B90004303BF91AF919F918F910F900FBE0F90E4
:104BA0001F9018959C014FB7F89480914003909105
:104BB0004103A0914203B09143034FBF821B930B6B
:104BC00008952FB7F894609140037091410380914C
:104BD0004203909143032FBF08952FB7F89480911B
:104BE000400390914103A0914203B09143032FBF32
:104BF00008951F920F920FB60F9211248F939F93D7
:104C0000AF93BF9380913F03811113C08091400304
:104C100090914103A0914203B09143034196A11D9D
:104C2000B11D8093400390934103A0934203B0933E
:104C30004303BF91AF919F918F910F900FBE0F9043
:104C40001F90189520912901222351F120914403AE
:104C500027FF26C0262F2695269526952E3178F4F7
:104C6000FC01E20FF11D677081E090E001C0880F48
:104C70006A95EAF7809592818923828308958091CD
:104C80003E0380FF17C01F926F938FE998E09F93B8
:104C90008F930E94A9080F900F900F900F90089586
:104CA000FC0106962281621301C012823196E81738
:104CB000F907C1F7089520912901222349F1209194
:104CC000440327FF25C0262F2695269526952E31AD
:104CD00070F4FC01E20FF11D677081E090E001C00B
:104CE000880F6A95EAF79281892B828308958091D3
:104CF0003E0380FF25C01F926F9381E898E09F9349
:104D00008F930E94A9080F900F900F900F90089515
:104D1000FC0132962FEF30E04191641789F02F3F6C
:104D200019F4411101C0232F3F5F3630A9F72F3FFF
:104D300039F0FC01E20FF11D27FDFA956283089519
:104D4000089520913C0330913D032817390771F0F5
:104D500090933D0380933C03E0913A03F0913B0331
:104D6000309721F00084F185E02D09940895209179
:104D70003803309139032817390771F090933903BC
:104D800080933803E0913A03F0913B03309721F090
:104D90000680F781E02D099408950E947A108823F7
:104DA00051F0E0913A03F0913B03309721F00190EC
:104DB000F081E02D099480E008950F931F93CF9325
:104DC000DF93C42FD22FFC0182818823C9F0409346
:104DD00037030E94ED25909336038093350380E2DC
:104DE0008C0F883008F057C0C77081E001C0880F71
:104DF000CA95EAF7DF91CF911F910F910C94EF23A1
:104E000080913703481330C0809135039091360369
:104E10000E94D225883C910538F510E21D0FCD1770
:104E2000B9F080E28C0F883040F4C77081E001C097
:104E3000880FCA95EAF70E94E423183028F581E02C
:104E40009D2F977001C0880F9A95EAF70E94EF2373
:104E5000802F0E94F0241830F0F4D77081E001C058
:104E6000880FDA95EAF70AC080E28C0F883098F450
:104E7000C77081E001C0880FCA95EAF7DF91CF9132
:104E80001F910F910C94E423802FDF91CF911F91FC
:104E90000F910C94F024DF91CF911F910F91089501
:104EA000CF93DF93C7EFD2E060E0CE010E94042FE2
:104EB0002196C11584E0D807B9F7DF91CF91089505
:104EC000CF92DF92EF92FF920F931F93CF93DF93D6
:104ED000C0E0D0E08E010C541F4F6E0182E1C80E7D
:104EE000D11CFE01EF54FA4FE590F4906F2DCE01E6
:104EF00087960E94042F6E2DCE0188960E94042F63
:104F00002296CC15DD0569F70C171D0731F7E8016E
:104F1000003D1240F9F6DF91CF911F910F91FF9064
:104F2000EF90DF90CF9008950F931F93CF93DF936F
:104F3000C42FD0E0CC0FDD1F22E1629FC00DD11D38
:104F4000112434EB839FC00DD11D1124CE0187960F
:104F50000E94F62E082F10E0102F0027CE01889611
:104F60000E94F62E9801282BC901DF91CF911F9145
:104F70000F910895462F843038F47A3028F4693040
:104F800018F4672F0C94942780E090E00895CF9355
:104F9000C82F811102C06FEF01C061E283E290E08F
:104FA0000E94042FC11102C06FEF01C061E184E2D1
:104FB00090E00E94042FC11102C06FEF01C066E2B1
:104FC00085E290E0CF910C94042F80E00E94C727E7
:104FD00060E086E290E00E94042F0E9460270E9419
:104FE000502781E00C94C72783E290E00E94F62EC0
:104FF000813281F484E290E00E94F62E813151F4F6
:1050000085E290E00E94F62E91E0863209F090E071
:10501000892F01C080E08170089580913E0383FF55
:105020007EC08EE895E00E941008809130031F92A8
:105030008F9389E895E09F938F930E94A90887E852
:1050400095E00E94100880913103282F082E000C53
:10505000330B3F938F9384E895E09F938F930E9447
:10506000A90882E895E00E94100880913203282F59
:10507000082E000C330B3F938F938FE795E09F939F
:105080008F930E94A9088DE795E00E9410088091F7
:105090003303282F082E000C330B3F938F938AE79E
:1050A00095E09F938F930E94A90888E795E00E945E
:1050B000100880913403282F082E000C330B3F93E7
:1050C0008F9385E795E09F938F930E94A90882E7CD
:1050D00095E00E94100880912A031F928F938FE61B
:1050E00095E09F938F930E94A9088DE695E00E941A
:1050F0001008809129031F928F938AE695E09F9371
:105100008F930E94A90887E695E00E9410088DB74A
:105110009EB74C960FB6F8949EBF0FBE8DBF0E94EF
:10512000ED2520913103211104C020913203222367
:1051300021F090932E0380932D03209133032111AE
:1051400004C020913403222321F090932C038093F8
:105150002B03E0913A03F0913B03309749F082E052
:1051600080932F030480F581E02D8FE293E0099472
:105170000895803F39F49091320397FF35C0109223
:10518000320359C0813F29F4909132031916BCF3C0
:105190002BC090913103823F29F497FF25C01092D4
:1051A000310349C0833F19F41916CCF31DC0909107
:1051B0003303893F29F41916BCF4109233033BC022
:1051C0008A3F19F497FF10C0F8CF8B3F39F49091C4
:1051D000340397FF09C0109234032DC08C3F21F493
:1051E000909134031916BCF39CE0980F953080F42D
:1051F00021E030E0A90102C0440F551F9A95E2F763
:10520000CA0180959091300389238093300313C0A5
:105210008D3F21F4809129038E7F0BC08E3F21F4B6
:10522000809129038D7F05C08F3F29F48091290348
:105230008B7F8093290380913103811106C0809177
:105240003203811102C010922A038091330381112D
:1052500006C080913403811102C010922803089582
:105260008091290380FF08C060912D0170E0759541
:1052700067957595679521C081FF06C060912D01E6
:1052800070E07595679519C082FF04C060912D018B
:1052900070E010C090912803992399F060912C013F
:1052A0009617A0F780912D01899FC001112470E00D
:1052B0000E94442F6038710540F46115710519F49E
:1052C00006C061E070E0862F08958FE7089581E0C1
:1052D00008958091290380FF0BC060912B0185E028
:1052E000689FB001112475956795759567952BC0DA
:1052F00081FF09C060912B0185E0689FB0011124F6
:105300007595679520C082FF07C060912B0185E0ED
:10531000689FB001112417C090912A039923D1F0FE
:1053200060912A01961788F720912B0185E0289F2C
:1053300090011124929FA001939F500D112470E0C1
:10534000CA010E94442F6038710540F4611571054F
:1053500019F406C065E070E0862F08958FE7089580
:1053600081E00895803F21F40E946929819504C05D
:10537000813F29F40E946929809332030895823F76
:1053800021F40E946929819504C0833F29F40E9479
:105390006929809331030895893F19F40E943029C7
:1053A00005C08A3F31F40E943029819580933303F0
:1053B00008958B3F21F40E943029819504C08C3FD1
:1053C00029F40E9430298093340308959CE0980FBB
:1053D000953078F421E030E0A90102C0440F551F58
:1053E0009A95E2F7CA0190913003892B809330039C
:1053F00008958D3F21F48091290381600BC08E3F79
:1054000021F480912903826005C08F3F29F48091A7
:1054100029038460809329030895CF93C82F1F9296
:105420008F9382E695E09F938F930E94A90881E075
:1054300001C0880FCA95EAF70E94CB230F900F9006
:105440000F900F90CF910C94CF2380912C011F923D
:105450008F9380912D011F928F9380912A011F922B
:105460008F9380912B011F928F9380912E011F9219
:105470008F9380912F011F928F9381EE9DE09F93D8
:105480008F930E94A9088DB79EB70E960FB6F89419
:105490009EBF0FBE8DBF0895883220F58E3108F073
:1054A00068C08B3091F1C0F4873009F0BEC08EE146
:1054B00080932F0182E380932E018AE080932B0159
:1054C00084E180932A0188E080932D0188E2809313
:1054D0002C0183E49FE0C6C0833109F443C08431CA
:1054E00069F1A3C08F3409F49EC028F4893231F1E8
:1054F000883359F09AC0813531F008F4D4C0823530
:1055000009F4A7C092C08FEFA5C085E69FE00E9476
:1055100010080E94252A1F9281E08F931F9285E038
:105520008F938EE59EE09F938F930E94A9080F9022
:105530000F900F900F900F900F9096C082E69FE013
:105540000E94100880914E03882309F4AAC010928B
:105550004E0310924D0310924C0310924B03109285
:105560004A03B1C084E59FE00E9410080E94252AEA
:105570007BC08D5180934E03833031F170F48130C4
:10558000D1F0823009F03FC08EE291E090934D035C
:1055900080934C038FEA91E01FC0853059F108F1E8
:1055A000863089F58CE291E090934D0380934C0313
:1055B0008AEE91E011C08FE291E090934D038093C9
:1055C0004C0386EA91E008C08BE291E090934D0392
:1055D00080934C038BEB91E090934B0380934A03B1
:1055E00018C08AE291E090934D0380934C0388ECBD
:1055F00091E0F2CF8DE291E090934D0380934C03C4
:1056000087ED91E0E9CF10924E0381E59FE00E9483
:10561000100880914E03882309F455C01F928F9380
:105620008DE49FE00DC08AE015C080E49FE01AC0C1
:1056300097FF47C0108280811F928F938AE39FE07B
:105640009F938F930E94A9080F900F900F900F9037
:105650000BC081E0E0914C03F0914D03309729F5A8
:1056600087E39FE00E94100820914E03222359F106
:1056700080914A0390914B03009711F482EA91E0E4
:105680009F938F931F922F938EE29FE09F938F9310
:105690000E94A9080F900F900F900F900F900F90FD
:1056A00016C080E0089586EFD5CF2081082E000C2B
:1056B000990B820F911D8F3F910509F00CF4B8CF23
:1056C0008FEF8083B8CF8AE29FE00E94100881E0CC
:1056D0000895DF92EF92FF920F931F93CF93DF9382
:1056E000482F50E0FA013597EF33F10508F04EC12D
:1056F000E357FF4F0C94582F83E090E00E94F62E62
:105700001F928F938BEE99E09F938F930E94A9082D
:1057100082E090E00E94F62E83FB992790F91F9279
:105720009F9382FB992790F91F929F9381FB992762
:1057300090F91F929F93982F91701F929F931F92A1
:105740008F9382EA99E09F938F930E94A9080E9409
:10575000761487FB222720F91F922F9386FB22279E
:1057600020F91F922F9385FB222720F91F922F9358
:1057700084FB222720F91F922F9383FB222720F9F5
:105780001F922F9382FB222720F91F922F9391FBC8
:10579000222720F91F922F93292F21701F922F93D8
:1057A00081FB222720F91F922F93282F21701F920F
:1057B0002F939F938F938DEB98E09F938F930E94ED
:1057C000A9088DB79EB788960FB6F8949EBF0FBEF6
:1057D0008DBF06C080ED9DE00E9410080E948714D6
:1057E000C1E0D9C088E09AE0C6C080913E03817FC5
:1057F0008E7F80933E038AEB9BE00E9410088CEC26
:105800009DE00E94100881E080934903E9CF80EB7E
:105810009DE00E9410080E94CF239FEF24E38CE0BC
:10582000915020408040E1F700C000000E949B257D
:10583000D7CF80913E03C82FC095C170C0FB80F9BF
:1058400080933E03CC2319F084EA9DE08FC087E962
:105850009DE00E94100880913E03897F877F80939E
:105860003E03BECF90913E0391FBCC27C0F981E06F
:10587000C827892FC0FB81F980933E03CC2319F000
:105880008AE89DE027C08CE79DE075C090913E03BB
:1058900092FBCC27C0F981E0C827892FC0FB82F991
:1058A00080933E03CC2319F08DE69DE013C08DE577
:1058B0009DE061C090913E0393FBCC27C0F981E04D
:1058C000C827892FC0FB83F980933E03CC2351F076
:1058D00081E59DE00E94100880913E0381608093E5
:1058E0003E0359C084E49DE046C081EE9BE043C086
:1058F0000E94E125062FF72EE82ED92EC0914403F1
:10590000C7FBCC27C0F910919D02D09129010E94BC
:10591000CD26DF92EF92FF920F931F92CF931F92AB
:105920001F931F92DF931F928F9389EA9CE09F93AE
:105930008F930E94A9088DB79EB70E960FB6F89464
:105940009EBF0FBE8DBF4CCF0E94CF2390914403CA
:1059500097FBCC27C0F981E0C827892FC0FB87F9C6
:1059600080934403CC2329F08AE39DE00E94100831
:1059700012C08FE29DE00E94100832CF895303C00D
:105980008D5101C080E00E940D2A2ACF8DE29DE05A
:105990000E941008C0E08C2FDF91CF911F910F91D2
:1059A000FF90EF90DF9008958EE14A9B02C08150F6
:1059B000E1F74A9BFECF08955A9880E28A95F1F765
:1059C0005A9A0895FC012AE02A95F1F728E090E020
:1059D00080E031E040E14A95F1F7880F4A9B02C030
:1059E0008160932700C0000040E14A95F1F7215003
:1059F00089F720E12A95F1F729B100C0000030E1D4
:105A00003A95F1F722FB222720F992272081920F65
:105A100090830895EF92FF920F931F93CF93DF939C
:105A20001F92CDB7DEB719828C017C01E60EF11C06
:105A30000E151F0551F00E94D42CCE0101960E9434
:105A4000E22CF80181938F01F3CF81E099819111CC
:105A500080E00F90DF91CF911F910F91FF90EF9019
:105A60000895529A5A9A089552985A9AEA9AE9E6EB
:105A7000F0E080818F7C80830895615091E001C0C7
:105A8000990F6A95EAF720E031E0992361F0492FF8
:105A9000482319F05A9A232701C05A9840E24A95A0
:105AA000F1F79695F2CF222311F05A9A01C05A9835
:105AB00080E28A95F1F75A980895FF920F931F9309
:105AC000CF93DF93EC018C01060F111DC017D10796
:105AD00041F0F9900E94DC2C68E08F2D0E943D2D52
