:100000000C946E020C94B5020C94B5020C94B502DB
:100010000C94B5020C94B5020C94B5020C94B50284
:100020000C94B5020C94B5020C94E2230C94B42405
:100030000C94521E0C94B5020C94B5020C94B502AB
:100040000C94B5020C94B5020C94B5020C94B50254
:100050000C941D170C94AB1E0C94B5020C94B502B5
:100060000C94B5020C94B5020C94B5020C94B50234
:100070000C94B5020C94B5020C94B5020C94B50224
:100080000C94B5020C94B5020C94B5020C94B50214
:100090000C94B5020C94B5020C94B5020C94B50204
:1000A0000C94B5020C94B5020C94B5025406540697
:1000B00086068606D306F106D407D407FC06640735
:1000C0007507750774087408860886087D08860811
:1000D00086088608740874088208860886088208DC
:1000E000831685168A168D16901693169616841802
:1000F0008718A718B818C018CB18CE18D118D4185C
:100100001A191A19D718DA18DF18EC18F918FC1888
:1001100000190D19212548254026482540269425FB
:10012000B72540260E261D264600470048000153ED
:1001300053005400550056005F00600061005700F6
:100140005C005D005E00570059005A005B005800DB
:10015000620062006300580001000100010001001C
:10016000BF5CBE5CBD5CC15C0100520001000100CF
:10017000500051004F00010001000100010001008A
:100180000100010001000100010001000100010067
:100190000100010001000100010001000100010057
:1001A0000100010001000100010001000100010047
:1001B0000100010001000100010001000100010037
:1001C0000100010001000100010001000100010027
:1001D0000100010001000100010001000100010017
:1001E000010001000100010000000000000000000B
:1001F0002A2B280000000000000000000000000082
:1002000000000029000000002C1E3420212224348C
:100210002627252E362D3738271E1F20212223245E
:1002200025263333362E37381F0405060708090AFA
:100230000B0C0D0E0F101112131415161718191A96
:100240001B1C1D2F3130232D350405060708090A14
:100250000B0C0D0E0F101112131415161718191A76
:100260001B1C1D2F3130354C000000000000000029
:10027000000000000000000000000000000000007E
:100280000000000000000000000000007E0F00D40D
:10029000FFFFFFC700000078000000000000000022
:1002A00000000001010203040506080A0C0F1114E6
:1002B000181C2024292E33393F464C535B626A7147
:1002C00079818A929AA2AAB2B9C1C8CFD5DCE1E7F6
:1002D000EBF0F4F7FAFCFDFEFFFEFDFCFAF7F4F09C
:1002E000EBE7E1DCD5CFC8C1B9B2AAA29A928A8164
:1002F00079716A625B534C463F39332E2924201CA6
:100300001814110F0C0A080605040302010100006D
:1003100000000000000000001E0341006C006C00A3
:10032000690073006F006E0020004E0075006D00C4
:1003300070006100640000001803700072006F001C
:1003400074006F005400790070006900730074003D
:1003500000000403090409025B00030100A0FA097C
:1003600004000001030101000921110100012240E4
:10037000000705810308000A0904010002030000C8
:10038000000921110100012222000705820320003B
:100390000107050303200001090402000103000016
:1003A0000009211101000122B60007058403200085
:1003B0000A120100020000000868894E4101000194
:1003C0000200010660FF0961A1010962150026FF14
:1003D000009520750881020963150026FF0095200D
:1003E00075089102C005010902A10185020901A158
:1003F00000050919012908150025019508750181D5
:10040000020501093009311581257F9502750881A2
:100410000609381581257F950175088106050C0AA6
:1004200038021581257F950175088106C0C0050138
:100430000980A101850319012AB700150126B7001B
:10044000950175108100C0050C0901A101850419F1
:10045000012AA002150126A002950175108100C095
:1004600005010906A1018505050719E029E7150021
:1004700025019508750181020507190029EF15006E
:10048000250195F0750181020508190129059505D9
:1004900075019102950175039101C005010906A13D
:1004A00001050719E029E715002501950875018167
:1004B000029501750881010507190029FF1500261D
:1004C000FF009506750881000508190129059505A5
:1004D00075019102950175039101C00011241FBEA1
:1004E000CFEFDAE0DEBFCDBF04B603FE27C08091B8
:1004F000700290917102A0917202B09173028730E4
:10050000904BA740B04BD1F4109270021092710240
:10051000109272021092730214BE84B7877F84BF58
:100520000FB6F894A8958091600088618093600070
:10053000109260000FBEE0E0F8E3099511E0A0E042
:10054000B1E0ECE8FEE402C005900D92A239B107DB
:10055000D9F722E0A2E9B1E001C01D92A037B207AD
:10056000E1F70E94B8120C9444270C94000081E03B
:10057000089581E008950C94B90208950C94BD0289
:100580001F93CF93DF9300D000D01F92CDB7DEB77B
:1005900049835A836B833091940189819A81311107
:1005A00014C0662359F0222349F00E946809182FCD
:1005B000682F89819A810E94130903C00E943D0916
:1005C000182F69817A81812F04C00E94680969818E
:1005D0007A810F900F900F900F900F90DF91CF9135
:1005E0001F910C94EA19FC01262F408151816281F0
:1005F000738184810C94C00281E00895CF93DF93CE
:10060000EC0160E00E94F302BE01DF91CF910C94F7
:10061000BE02E1E0F0E0DF0102C0AA0FBB1F6A9555
:10062000E2F7BD01DF0102C0AA0FBB1F4A95E2F746
:10063000AD01462B01C0EE0F2A95EAF7942F9823BF
:10064000491302C08E2B0895E0958E230895242F20
:10065000462F682F80919E010E9409030C94D008B8
:100660000E9455110E9483040E948C170C948511DE
:100670000C94811108950E9462080E943A032FEFA2
:1006800084E39CE0215080409040E1F700C00000EE
:100690000C94D11E0F931F93CF93DF938C0161E0D5
:1006A0000E94F302EC01B8010E94FF17882309F4AD
:1006B0004BC0B801CE010E94BB02882309F444C09C
:1006C000B801CE010E9474168823F1F1B801CE0161
:1006D0000E941F1B8823C1F1B801CE010E94711B2B
:1006E000882391F1B801CE010E94A31C882361F1F7
:1006F000F8018281882309F1CA358DE5D807C1F058
:1007000050F4C115FCE5DF0781F0CE3DDC45A9F4CE
:100710000E94630E19C0CB35EDE5DE0761F0CC35E4
:10072000DD4559F40E94F50C08C00E943B030CC043
:100730000E94FE0C02C00E94010DC801DF91CF9102
:100740001F910F910C94B70280E0DF91CF911F9120
:100750000F910895DF92EF92FF920F931F93CF9323
:10076000DF93E82FF0E0E851FE4FD490282F269534
:100770002695269530E0F901E857FD4F04918770E2
:1007800010E0082E02C0159507950A94E2F7017053
:100790001127F901E858FD4FE490F12C082E02C012
:1007A000F594E7940A94E2F791E0E922FF24F90135
:1007B000E859FD4FC491D0E002C0D595C7958A9500
:1007C000E2F7C170DD270115110519F081EE0E94D5
:1007D000DD04E114F10419F086EE0E94DD048D2D94
:1007E0000E940606EF2819F086EE0E948705012B6D
:1007F00019F081EE0E948705CD2B51F08CE2DF913C
:10080000CF911F910F91FF90EF90DF900C9406060F
:10081000DF91CF911F910F91FF90EF90DF9008959E
:10082000EF92FF920F931F93CF93DF93EC01162F5C
:100830000AE08881882309F455C0813009F043C05B
:100840008981813041F47E0182E0E80EF11C8A81C9
:100850000E94060609C0823049F47E01E2E0EE0EF5
:10086000F11C8A810E94DD04E7012FC0833041F42E
:100870007E01F2E0EF0EF11C8A810E948705F4CF21
:10088000843011F0219621C02A81229680E090E0E8
:1008900030E0205331092A30310558F4089FA00177
:1008A000099F500D1124C901840F951F219628819D
:1008B000EFCF009751F0EFE9FFE03197F1F700C07B
:1008C00000000197F6CF0E94AA032196812F88236A
:1008D00009F4AFCFEFE9FFE03197F1F700C0000076
:1008E0008150F5CFDF91CF911F910F91FF90EF9045
:1008F000089560E00C94100408950C947C0481E049
:1009000008950C947F040895CF93C82F0E947D040E
:100910008C2F0E948104CF910895CF93DF93CDB7A0
:10092000DEB72B970FB6F894DEBF0FBECDBF4F8357
:10093000588769877A878B8761110E94240D9E01F1
:100940002F5F3F4F86E0F90111928A95E9F785E024
:10095000FE013796D90101900D928A95E1F78981C0
:100960009A814C815D81452B31F09F3F31F491E0BC
:100970008F3F19F403C091E001C090E090FF09C0DF
:1009800049815A816B817C818D819E810E94240CDA
:1009900005C0C9010E94FC028111F2CF2B960FB64F
:1009A000F894DEBF0FBECDBFDF91CF910895FC015B
:1009B000808191810E9495090895CF93882309F43D
:1009C000A4C0C82F8238C1F40E94D91C81FD9DC0EB
:1009D00069E380910001909101010E94CF1D0E9466
:1009E000490D2FEF81EE94E0215080409040E1F7D7
:1009F00000C0000069E319C0833801F50E94D91CCA
:100A000080FD83C063E580910001909101010E9407
:100A1000CF1D0E94490D2FEF81EE94E021508040C0
:100A20009040E1F700C0000063E5809100019091E3
:100A300001010E94DA1DCF910C94490D8438C1F454
:100A40000E94D91C82FD61C067E4809100019091F1
:100A500001010E94CF1D0E94490D2FEF81EE94E00D
:100A6000215080409040E1F700C0000067E4DDCFF6
:100A70008CEF8C0F813AD0F46C2F80910001909113
:100A800001010E944F1D882349F06C2F80910001C5
:100A9000909101010E94DA1D0E94490D6C2F8091F6
:100AA0000001909101010E94CF1DC5CF80E28C0F03
:100AB000883048F4C77081E001C0880FCA95EAF712
:100AC0000E94070DB8CFEBE5EC0FE33040F4F0E007
:100AD000EC5BFE4F808190E0CF910C940D1DE8E51A
:100AE000EC0FE73150F4F0E0EE0FFF1FEA5EFE4F2F
:100AF00080819181CF910C94231DC03F30F08C2FC9
:100B00000E944513CF910C941714CF910895882318
:100B100009F464C0823879F40E94D91C81FF5EC058
:100B200069E380910001909101010E94CF1D0E9414
:100B3000490D69E310C08338B1F40E94D91C80FFCD
:100B40004DC063E580910001909101010E94CF1D8D
:100B50000E94490D63E580910001909101010E947E
:100B6000DA1D0C94490D843879F40E94D91C82FF57
:100B700035C067E480910001909101010E94CF1D72
:100B80000E94490D67E4E7CF9CEF980F913A10F46B
:100B9000682FE1CF90E2980F983050F4877091E081
:100BA00001C0990F8A95EAF7892F0E940D0DD9CFC0
:100BB0009BE5980F933020F480E090E00C940D1D9D
:100BC00098E5980F973120F480E090E00C94231D75
:100BD000803F20F00E94A0130C94171408951F93D7
:100BE000CF93DF93182FEB010E94DD04209741F093
:100BF0008FE99FE00197F1F700C000002197F6CF41
:100C0000812FDF91CF911F910C948705893319F0C3
:100C100060E070E002C060E570E00C94EF058823AE
:100C200021F00E94070D0C94490D0895882321F0AE
:100C30000E940D0D0C94490D0895CF92DF92EF9212
:100C4000FF920F931F93CF93DF937C01062FC72F43
:100C5000FC01D281158112951F700E94DC0C882343
:100C600099F0DD2389F08C2F807F803421F080E2A1
:100C7000800F883048F082E00E94990D0E94DC0CC1
:100C800091E0D82ED92601C0D12CCC2EC2948FE071
:100C9000C8228C2D90E08C30910508F085C1FC01B4
:100CA000EA5AFF4F0C94CE268C2F807FCF7088237A
:100CB00011F0C295C07FDD2399F0CC2309F460C107
:100CC00080E2800F883010F0011104C08C2F0E9448
:100CD000070D03C08C2F0E94170D0E94490D50C1B3
:100CE000802F0E948705CC2309F45EC180E2800F2B
:100CF000883010F0011104C08C2F0E940D0D03C02C
:100D00008C2F0E941D0D0E94490D4EC18C2F807F9B
:100D1000CF70803211F0C295C07F002319F00130EE
:100D2000C9F022C0DD2371F0112341F0113031F4FC
:100D30000E942A0D8C2B0E94320D36C10E942A0D72
:100D40008C2B1DC0112319F0113009F42DC10E9404
:100D50003F0D25C0DD2321F0163008F025C10EC05F
:100D6000153008F021C11BC0DD2361F0112331F0E3
:100D7000F701858180FF04C18F7085838C2F0E94CD
:100D80000F0612C1112359F0093309F00AC1FFEF10
:100D900027EE83E0F15020408040E1F700C18C2F26
:100DA0000E94160601C18C2F86958695837019F0D6
:100DB000813061F0F9C0DD2321F0802F9C2F9370EA
:100DC00002C080E090E00E940D1DF6C0DD2321F0FE
:100DD000802F9C2F937002C080E090E00E94231D22
:100DE000EBC0802FDD2319F00E94451302C00E9442
:100DF000A0130E941714E0C08C2F837079F5D111D5
:100E0000D7C0402F429546954770440F440F202F7E
:100E10002F70042E01C0220F0A94EAF704FF08C0C5
:100E20008FE090E001C0880F4A95EAF7809501C0F5
:100E300080E0C695C695C370822BC23049F058F445
:100E4000C13019F00E94C408B3C00E94BF08B0C0EE
:100E50000E94C908ADC00E94BD08AAC0DD2319F0D8
:100E60008C2F817001C08695882309F4A1C0402F82
:100E7000429546954770440F440F202F2F70042E43
:100E800001C0220F0A94EAF704FF08C08FE090E047
:100E900001C0880F4A95EAF7809501C080E0C695A9
:100EA000C695C370822BC23049F058F4C13019F096
:100EB0000E9408097DC00E9403097AC00E940D09A2
:100EC00077C00E94D00874C0CF70DD2339F08C2F1A
:100ED0000E94E108802F0E940F066AC0802F0E94A6
:100EE00016068C2F0E94EC0863C0023F01F128F423
:100EF000003F41F0013FA1F03FC0033FF9F0043F44
:100F000039F13AC0DD2341F0153008F04DC08C2F87
:100F10008F710E94F80848C0163008F045C0F7CF1E
:100F2000DD2339F08C2F8F710E94E1083DC0DD2355
:100F3000C9F38C2F8F710E94EC0836C0DD2329F095
:100F40008C2F8F710E94D9082FC00E94D6082CC008
:100F5000DD2349F0CF718C2F0E94E10863E08C2FD4
:100F60000E947E0D21C081E00E94990D1230E0F0B8
:100F700082E00E94990D18C0DD2331F0112391F217
:100F8000802F0E94DD0410C0112399F2093349F427
:100F90009FEFE7EEF3E09150E040F040E1F700C052
:100FA0000000802F0E94870588EF8C0D843020F48C
:100FB0000E94D91C0E948404DD20C9F00E94D80C34
:100FC00080FD15C0F70112820E94D20C0E94E10838
:100FD000C7010E9418080E94D20CDF91CF911F9187
:100FE0000F91FF90EF90DF90CF900C94EC08DF9181
:100FF000CF911F910F91FF90EF90DF90CF900895C8
:101000000F931F93CF93DF93EC01688179818A81DD
:101010000E94A0098C010E9412090E94B108B80127
:10102000CE010E941D06DF91CF911F910F9108956F
:10103000CF93DF93EC01988189812B813C81232B15
:1010400031F08F3F31F481E09F3F19F403C081E01C
:1010500001C080E080FD19C0CE010E944A038111C9
:101060000CC00E94DC0C882381F08A81882369F0FF
:1010700082E0DF91CF910C94990DCE010E9400087F
:10108000CE01DF91CF910C94FE02DF91CF910895B4
:1010900080E090E00E940D1D80E090E00E94231D02
:1010A0000E94240D0E94270D0E94490D0E944815A0
:1010B0000C94171480910001909101010E94E51D8C
:1010C0000C9448080E94140D0C945A08E92FE295DC
:1010D000EF704E2F50E0FA013297EE30F105B0F488
:1010E000EE59FF4F0C94CE26803F91F018F4883EC5
:1010F00068F40EC0843F51F40BC0883E48F0813F35
:1011000029F406C093FB882780F9089580E00895AC
:1011100081E00895FC01808191810E9495090E94DF
:1011200066080895CF93DF9300D000D01F92CDB70B
:10113000DEB70F900F900F900F900F90DF91CF912F
:101140000895CF93DF9300D000D000D0CDB7DEB7A5
:1011500026960FB6F894DEBF0FBECDBFDF91CF91BC
:101160000895089508950C94B2080C94B3080E9451
:10117000B50880939F010C9448080C94B70890918F
:101180009F01892B0C94B70890919F0189230C949F
:10119000B70890919F0189270C94B7080C94B20866
:1011A0000E94CE0880939E010C94480880E00C9425
:1011B000D00891E001C0990F8A95EAF7892F0C9425
:1011C000D00821E030E001C0220F8A95EAF7809133
:1011D0009E01822B0C94D00821E030E001C0220F48
:1011E0008A95EAF7209580919E0182230C94D0087D
:1011F00021E030E001C0220F8A95EAF780919E013C
:1012000082270C94D00890919E01892B0C94D008D1
:1012100090919E0189230C94D00890919E0189277A
:101220000C94D0080895990F990F890FE82FE6952F
:10123000E695E695877051E001C0550F8A95EAF76B
:1012400083E0E89FF0011124EB56FE4F20E030E0F0
:1012500070E04081CB01022E02C0969587950A94DA
:10126000E2F78170819584278523842781932F5FFE
:101270003F4F2330310569F70895990F990F890F72
:10128000682F669566956695982F977083E0689F9E
:10129000B001112440E050E080E0FB01E40FF51FB5
:1012A000EB56FE4F208130E0092E02C0369527957F
:1012B0000A94E2F721703327042E01C0220F0A940A
:1012C000EAF7822B4F5F5F4F4330510531F70895A6
:1012D000CF92DF92FF920F931F93CF93DF936C0116
:1012E00000919E0180919F01082BC7E0D0E010E0A3
:1012F000C8010C2E02C0959587950A94E2F780FDEF
:1013000004C02197A8F7F12C07C0FC2EB6018C2F42
:101310000E945F100197A9F38F2DDF91CF911F914C
:101320000F91FF90DF90CF900895CF93DF93EC0162
:101330000E946809BE010E945F10DF91CF9108955D
:101340001F93CF93DF93EB0190919401992321F0A8
:10135000CB010E94950913C0882349F0CB010E945C
:101360006809182F682FCE010E94130904C0CB0111
:101370000E943D09182FBE01812F0E945F10DF914E
:10138000CF911F9108951F93CF93DF93C091A00138
:1013900016E08091A101C81799F0D0E01C9FF001E0
:1013A0001D9FF00D1124EE55FE4F40815181628149
:1013B0007381848195810E94A1082196C770E9CF2D
:1013C000DF91CF911F9108954091D2015091D301A7
:1013D0006091D4017091D5018091D6019091D7018F
:1013E0000C94A1080F931F93CF93DF938091D701A3
:1013F00082958F7009F05DC08091D401882309F433
:1014000058C08091A0011091A1016091D20170910A
:10141000D301C091D501D091D60191E06F3F09F081
:1014200090E0292F06E0811709F443C0209721F0AE
:101430007F3F21F030E003C031E001C0322F90E067
:1014400030FD34C0089FF001099FF00D1124DF0129
:10145000AE55BE4F11963C911197371327C03C9162
:10146000361324C012963C91129731111FC0139667
:101470004D915C9114974C1B5D0B483C5105B0F4A9
:101480008091D7018F7080618093D701E955FE4F1D
:1014900080818F708061808382ED91E00E941808C6
:1014A000DF91CF911F910F910C94C3090196877022
:1014B000BACFDF91CF911F910F9108959F92AF9274
:1014C000BF92CF92DF92EF92FF920F931F93CF9331
:1014D000DF93CDB7DEB761970FB6F894DEBF0FBECE
:1014E000CDBF8C0185E0F801DE011D9601900D92C3
:1014F0008A95E1F7F801E2809091D2016091D301E1
:101500002091D5013091D6012115310531F06F3F81
:1015100031F481E09F3F19F403C081E001C080E015
:10152000F82FF1709F2E80FD3FC1F801408151815D
:10153000A380B48082EDC82E81E0D82EF090D40133
:10154000F501E21BF30BFF2009F4D9C08091D7010C
:10155000E83CF10508F095C0282F207F09F052C023
:10156000561313C0491311C0FE2CE1100EC08F702A
:1015700080618093D7010E94E409C6010E94180887
:101580008091D701F80185834CC1AB2831F05F3FD2
:1015900031F481E04F3F19F403C081E001C080E0E5
:1015A00080FD03C081E08E2502C080E090E0F82F2E
:1015B000F170FF2E80FF1CC08091A0012091A1013D
:1015C00036E0821709F40BC190E0389FF001399F93
:1015D000F00D1124EE55FE4F6181561306C0608157
:1015E000461303C06281E61203C001968770E9CFFB
:1015F000FE2CEE2009F415C18091D7018160809303
:10160000D70154C0561306C0491304C0E11002C0EC
:10161000F80199C0C8010E948A08882361F1EE2070
:1016200051F12091D701822F82958F7090E002971F
:1016300074F08091D2019091D30198878F8319869D
:10164000BB86AA862C87CE0107960E94180886E0E2
:10165000F801A2EDB1E001900D928A95E1F70E94A8
:10166000F2090E94E4090AC0561711F1C8010E944C
:101670008A0881112CC0C8010E941808FF24F39425
:10168000D0C0282F207F81F77A2DB98AA88A6E2DA5
:1016900089890E94920882ED91E00E94180886E0F4
:1016A000F60111928A95E9F70E94E409F12CB9C07C
:1016B0004913DCCFE110DACFF8018583C8010E941D
:1016C000180886E0F60111928A95E9F7AAC0EE2083
:1016D00091F22091D701822F82958F7090E002972E
:1016E0000CF4B5CF8091D2019091D3019A83898374
:1016F0001B82BD82AC822E83CE010196A6CFE83C30
:10170000F10508F044C0FE2CEE2009F4B4CF5613C6
:1017100030C049132EC02091D70120FD21C0822F57
:1017200082958F70482F50E041155105C9F0F8019E
:1017300025834F30510541F08F5F982F9295907F10
:10174000822F8F70892B8583C8010E94180886E03C
:10175000F801A2EDB1E001900D928A95E1F73CC04D
:1017600086E0F801A2EDB1E001900D928A95E1F7D3
:1017700058C0C8010E948A08811169CF8091D701A1
:1017800081608093D701C8010E9418084AC07A2D51
:10179000B98AA88A6E2D89890E94920886E0F6018E
:1017A00011928A95E9F718C0EE2009F464CFC801B8
:1017B0000E948A08F82E882309F45DCF86E0F8019C
:1017C000A2EDB1E001900D928A95E1F782ED91E0F2
:1017D0000E94D7040E94F2090E94E40922C04D87AA
:1017E0005E878D859E850E949509292F22952F70F1
:1017F000223028F49F7039F0811105C00BC02430CD
:1018000028F49F7049F4805E883020F0C8010E945F
:1018100018089F2CF92C05C0F8019581907F99F745
:10182000F9CF8F2D61960FB6F894DEBF0FBECDBFF6
:10183000DF91CF911F910F91FF90EF90DF90CF90AC
:10184000BF90AF909F9008951F93CF93DF93CDB734
:10185000DEB72C970FB6F894DEBF0FBECDBF4F8317
:10186000588769877A878B879C87CE0107960E9465
:101870005E0A8823D1F09F8188852A853B85232BAA
:1018800031F08F3F31F481E09F3F19F403C081E0D4
:1018900001C080E080FD47C04F81588569857A8509
:1018A0008B859C850E94A1083EC086E0FE0137968C
:1018B000DE01119601900D928A95E1F7FF81E8858E
:1018C0006A857B856115710531F0EF3F31F481E068
:1018D000FF3F19F403C081E001C080E080FD23C018
:1018E0002091A10130E0C9010196877099274091AC
:1018F000A00150E084179507F1F1F983EA837D8315
:101900006C8396E0929FD001939FB00D1124AE5549
:10191000BE4FFE01319601900D929A95E1F78093AA
:10192000A1010E94C30916E08091A0019091A1013C
:10193000891771F1189FC00111248E559E4F0E9486
:101940005E0A882329F1E091A0011E9FF001112475
:10195000EE55FE4F40815181628173818481958172
:101960000E94A1088091A00190E0019687709927BC
:101970008093A001D9CF0E9462081092A101109219
:10198000A001E2EDF1E086E0DF011D928A95E9F722
:101990002C960FB6F894DEBF0FBECDBFDF91CF916E
:1019A0001F9108958091D801859585958595089515
:1019B0008091D801877008959091D801977081E047
:1019C00009F480E008959091510292FB222720F9BA
:1019D000281751F080FB92F99093510280915002A8
:1019E000909151020C94E00D08958091510282FB78
:1019F000882780F991E089270C94E30C81E00C940E
:101A0000E30C80E00C94E30C8091FC01089590912C
:101A1000FC01892B8093FC01089580959091FC0135
:101A200089238093FC0108951092FC010895909100
:101A3000FB01892B8093FB01089580959091FB0118
:101A400089238093FB0108951092FB010895109261
:101A5000FA0108958091D901089508950C942D0DEF
:101A60000C942E0D9091510292FD08C09091D901D5
:101A7000981721F08093D9010C94300D089580912E
:101A8000D901882329F01092D90180E00C94300DFF
:101A90000895E0910001F09101018091FC018083A3
:101AA000E0910001F091010190818091FB01892B6F
:101AB0008083E0910001F091010190818091FA0111
:101AC000892B80838091D901882381F0E0910001E6
:101AD000F09101019081892B808380910001909188
:101AE00001010E94391D81110E943F0D809100016A
:101AF000909101010C94E51C0C942D0D90915102D4
:101B000092FD10C098E0899F90011124262B20930C
:101B1000D8010E94E1088091D80185958595859529
:101B20000C947C0D0C94E1081092D80180E00C9488
:101B30007C0D2091D801809582238093D801982F25
:101B4000977041F430E0482F082E000C550B2417F5
:101B5000350721F49091510292FF07C08595859534
:101B600085950E94EC080C94940D08956FEF7FEF1B
:101B700080E090E00C942E2780E090E00E940A27FD
:101B8000893E9E4F11F40C94A21780E0089582E0E4
:101B900090E00C94022783E090E00C940227CF930E
:101BA00084E090E00E940227C82F82E290E00E9429
:101BB00002272C2F30E0A901582BCA01CF9108959C
:101BC000CF93C92F682F84E090E00E9410276C2FDC
:101BD00082E290E0CF910C941027AB01BC018FE022
:101BE00090E00C942227AB01BC0183E190E00C94BF
:101BF000222760E070E0CB010C94F30D60E070E010
:101C0000CB010E94ED0D0C94F90D69EE7EEF80E0A2
:101C100090E00E942E2760E082E090E00E94102772
:101C200060E083E090E00E94102710929F0160E046
:101C300084E090E00E94102760E082E290E00E9441
:101C4000102760E085E090E00E94102760E086E0C9
:101C500090E00E9410276FEF87E090E00E9410272D
:101C600040E050E0BA0188E090E00E94222760E066
:101C70008DE090E00E94102740E050E0BA0188E13A
:101C800090E00E94222760E087E190E00E94102708
:101C900040E050E0BA018CE190E00E94222760E031
:101CA00070E080E290E00E942E2740E050E0BA0110
:101CB00088E190E00E94222780E00E94BB170E94EA
:101CC000E7170C94FE0D0C94050E682F8EE090E043
:101CD0000C9410270E94901E6093080270930902D2
:101CE00080930A0290930B026093040270930502A2
:101CF0008093060290930702089585B7806885BF98
:101D000085B7806885BF089581E008950C94840E9E
:101D100008950C94880E0C94880E0C948B0E0C94E1
:101D2000880E0C948F0E0C94880E0E947D0E8BE30F
:101D300091E10E94F51E0E94930E0C94910E0E9458
:101D4000890E0C94880E0E947B1E0E94F6170E943A
:101D500028120E9498150C948D0E9F92AF92BF92FC
:101D6000CF92DF92EF92FF920F931F93CF93DF9367
:101D7000CDB7DEB72A970FB6F894DEBF0FBECDBF42
:101D80000E94391281110E946A0E8EEFA82E81E006
:101D9000B82E00E010E0902E802F0E946F11D82EF8
:101DA000F501C1905F01C826B1F40F5F1F4F0630E7
:101DB000110589F78FEF89838A831B820E94841E15
:101DC0008160782F9D838C8349815A816B818D81BD
:101DD0000E948D042FC080910C0281FD0E9475111C
:101DE000E12CFF24F3948C2D8F21F1F00E94860EBC
:101DF000882399F0EE829F82DF2081E009F480E061
:101E000088870E94841E8160782F9A8789874E81F7
:101E10005F8168858A850E948D04F801E250FE4F3B
:101E20008081F826F08206C0E394FF0CF4E0EF1204
:101E3000DACFBBCF0E9407170E9435140E94D91C2D
:101E40009091FD018917B9F00E94D91C8093FD0182
:101E50002A960FB6F894DEBF0FBECDBFDF91CF91AB
:101E60001F910F91FF90EF90DF90CF90BF90AF90B8
:101E70009F900C9484042A960FB6F894DEBF0FBE90
:101E8000CDBFDF91CF911F910F91FF90EF90DF9029
:101E9000CF90BF90AF909F900895CF93DF930E9413
:101EA0006410EC01811521E5920708F045C0811509
:101EB00030E5930708F094C0883E910528F5803EF0
:101EC000910508F0F8C0883A910570F4853A9105BB
:101ED00008F07CC08130910509F475C008F4E8C0B1
:101EE000049708F0E8C0E4C08F3B910508F0E0C01B
:101EF000C85AD0E0CC0FDD1FC95BDE4F0990D881F6
:101F0000C02DCE019464D8C0811540E2940758F4E6
:101F1000811551E0950708F0CEC0803F910508F487
:101F2000C7C09065C9C0C11580E4D80708F4C0C017
:101F3000DF70CE01906AC0C0811525E59207A8F434
:101F4000811534E5930708F095C0811543E59407A2
:101F500008F07BC0811552E5950708F061C0D82FC5
:101F6000CC27CE01816F906AA7C0C11589E5D8073B
:101F7000A0F4C11528E5D20708F082C0C11536E5E6
:101F8000D30708F095C08C2F0E94F8108F7190E055
:101F9000D82FCC27CE0190628FC0C1154AE5D40757
:101FA00008F474C0CE0190568115904208F080C0AC
:101FB0008D2F8F710E94F810DD27D0628F71AE01D6
:101FC000582BCA0179C081E090E076C0C55AD0E0B4
:101FD000CB58DE4F8881C82FD0E0CE0190646CC012
:101FE00074E0969587957A95E1F7282F23703C2F1A
:101FF000337081E090E002C0880F991F3A95E2F7B4
:102000009C68AC01522B9A019C2F9F7096959695D7
:1020100050E2959FE0011124C9018C2B9D2B4CC0EF
:102020008370992721E030E002C0220F331F8A9588
:10203000E2F79C2F9695969580E2989FE0011124F7
:10204000C22BD32BCE019C6837C08370992721E027
:1020500030E002C0220F331F8A95E2F79C2F96953D
:10206000969540E2949FE0011124C22BD32BCE0120
:102070009A6822C0D82FCC27CE01846F906A1CC0EA
:10208000DC2FCC27CE01806F906A16C08C2F8F700A
:102090000E94F81094E0D695C7959A95E1F7CF7015
:1020A000D0E0DC2FCC27D0699E01282BC90104C0C9
:1020B00080E090E001C0CE01DF91CF9108950E94B1
:1020C000EA190E944D0F08958238910569F1B0F424
:1020D0008133910509F46DC048F48932910509F402
:1020E00063C08A32910509F469C00895853391056A
:1020F00009F455C089339105B9F00895833E9105DF
:1021000069F138F4803E9105B1F0823E910509F104
:102110000895863E9105A9F1873E9105B9F1843E67
:10212000910509F064C023C02091500220FD4FC0EA
:1021300021FD4DC008958091500280FD44C08091E2
:10214000510280FF44C08091500284FD42C083EE62
:102150004DC08091500282FF38C0F5CF809150026F
:1021600082FD33C08091510280FD31C0ECCF80915F
:10217000510281FF32C08091500284FD2AC087EE57
:1021800035C08091500283FF26C0F5CF8091500268
:1021900083FD21C08091510281FD1FC0ECCF809151
:1021A000500285FD1CC01DC08091500285FD19C0E4
:1021B00016C08091500286FD16C017C08091500253
:1021C00086FD13C010C089E311C082EE0FC080EEFF
:1021D0000DC080E00BC086EE09C084EE07C089E226
:1021E00005C085E303C08AE201C081E390E0089561
:1021F0009091500292FF0DC0282F2871283019F4B9
:10220000877F846006C0282F2471243011F48B7FCF
:10221000886093FF0DC0282F2871283119F4877E1C
:10222000846106C0282F2471243111F48B7E8861CB
:102230002091510220FF0DC0382F3871383019F429
:10224000877F816006C0382F3171313011F48E7F65
:10225000886021FF0DC0282F2871283119F4877E4E
:10226000816106C0282F2171213111F48E7E886191
:1022700094FD877E089580E008950C94B60D0E9429
:1022800039128FE39CE90197F1F700C000000E942A
:10229000391280E00E946F1180FF04C00E943D113E
:1022A0000C94D11E08950C943F110E94BC0D811115
:1022B00002C00E94630E0E94C70D80930C020E9410
:1022C000CF0D90935102809350020E9453110E94AF
:1022D000CB0D0E94BD0880919E010C94CE08E82F82
:1022E000F0E0E85AFD4F80810895089580EA8A95CC
:1022F000F1F7089500C008950C94761108950C9498
:102300007E110C947F110C947E110C948311F8941F
:10231000E82FE295EF70F0E031A1282F2F7081E0D7
:1023200090E001C0880F2A95EAF7982F90959323A3
:1023300091A392A1892B82A3789408950F931F9360
:10234000CF93DF93CCE7D1E089918F3F11F00E94CA
:10235000871181E0C238D807B9F7C8E7D1E00CE7A8
:1023600011E089918F3F11F00E9487110C171D0712
:10237000C1F7DF91CF911F910F910895CF92DF9216
:10238000EF92FF920F931F93CF93DF938C01C62F91
:10239000D0E0CE0184589E4F7C01FC0190819F3F8C
:1023A00009F44DC0D62EF894E92FE295EF70F0E0D5
:1023B00081A19F7021E030E001C0220F9A95EAF7D9
:1023C000822B81A382A12095282322A378940E94A6
:1023D0007A11E8E7F1E020E030E0C12C51E04191D2
:1023E0004F3FB1F0A42FA295AF70B0E090968C91C2
:1023F00090E04F7002C0959587954A95E2F780FD71
:1024000007C0852F022E01C0880F0A94EAF701C089
:1024100080E0C82A2F5F3F4F2430310501F7F701D4
:1024200080818F3F11F00E94871161E0C11001C0CF
:1024300060E08D2D0E947C11C00FD11FC882DF91FA
:10244000CF911F910F91FF90EF90DF90CF90089563
:102450000E949E11E2E5F2E0A8E5B2E011921D9221
:1024600082E0E835F807D1F786E00E9481120C94EB
:102470003003FF920F931F93CF93DF9300D000D0D0
:1024800000D0CDB7DEB78E010F5F1F4F86E0F80199
:1024900011928A95E9F7F12C6F2DC8010E94BE11A7
:1024A000F394F6E0FF12F8CF46E050E0B80182E581
:1024B00092E00E94F526FF24F394009709F4F12C92
:1024C000892B41F086E0F801A2E5B2E001900D927F
:1024D0008A95E1F72F2D46E068E572E082E592E00B
:1024E0000E9482120E9438038F2D26960FB6F89410
:1024F000DEBF0FBECDBFDF91CF911F910F91FF9037
:1025000008950895FF920F931F93CF93DF938C014B
:10251000F62ED72FC42F222349F081E080930F029B
:102520000E94841E90930E0280930D0280910F02F0
:102530008823C1F080910D0290910E020E949C1E92
:10254000059780F0EF2DFD2FD8014C2F50E0CD01E5
:10255000801B910B841795071CF48D918193F7CF05
:1025600010920F02DF91CF911F910F91FF9008956C
:102570000E94F71D0E949E200E94B7200E94C92041
:102580000E949F0EFBCF8091160280FF0BC06091CE
:10259000070185E0689FB0011124759567957595D1
:1025A00067952BC081FF09C06091070185E0689F96
:1025B000B00111247595679520C082FF07C0609116
:1025C000070185E0689FB001112417C090911502A2
:1025D0009923D1F060910601961788F720910701A1
:1025E00085E0289F90011124929FA001939F500D98
:1025F000112470E0CA010E9498266038710540F4E9
:102600006115710519F406C065E070E0862F089524
:102610008FE7089581E008958091160280FF08C039
:102620006091030170E0759567957595679521C078
:1026300081FF06C06091030170E07595679519C030
:1026400082FF04C06091030170E010C090911402F9
:10265000992399F0609102019617A0F780910301E8
:10266000899FC001112470E00E949826603871058E
:1026700040F46115710519F406C061E070E0862F21
:1026800008958FE7089581E00895803F21F40E9426
:10269000C312819504C0813F29F40E94C312809324
:1026A0001A020895823F21F40E94C312819504C04A
:1026B000833F29F40E94C312809319020895893F31
:1026C00019F40E940C1305C08A3F31F40E940C13C8
:1026D000819580931B0208958B3F21F40E940C1377
:1026E000819504C08C3F29F40E940C1380931C0236
:1026F00008959CE0980F953078F421E030E0A9012E
:1027000002C0440F551F9A95E2F7CA019091180232
:10271000892B8093180208958D3F21F48091160231
:1027200081600BC08E3F21F480911602826005C04B
:102730008F3F29F4809116028460809316020895D9
:10274000803F39F490911A0297FF35C010921A0217
:1027500059C0813F29F490911A021916BCF32BC07D
:1027600090911902823F29F497FF25C01092190217
:1027700049C0833F19F41916CCF31DC090911B0278
:10278000893F29F41916BCF410921B023BC08A3F02
:1027900019F497FF10C0F8CF8B3F39F490911C02C9
:1027A00097FF09C010921C022DC08C3F21F490911C
:1027B0001C021916BCF39CE0980F953080F421E0C0
:1027C00030E0A90102C0440F551F9A95E2F7CA01F3
:1027D00080959091180289238093180213C08D3F31
:1027E00021F4809116028E7F0BC08E3F21F48091E0
:1027F00016028D7F05C08F3F29F4809116028B7FD2
:102800008093160280911902811106C080911A02EC
:10281000811102C01092150280911B02811106C025
:1028200080911C02811102C01092140208950E942E
:10283000841E20911902211104C020911A02222322
:1028400021F0909313028093120220911B02211118
:1028500004C020911C02222321F090931102809346
:10286000100287E192E00C94FF1CEF92FF920F930D
:102870001F93CF93DF9300D000D000D0CDB7DEB749
:1028800086E0E7E1F2E0DE01119601900D928A9573
:10289000E1F7E0901902F0901A0200911B021091EA
:1028A0001C021092190210921A0210921B0210922E
:1028B0001C02E11003C0FF2009F45DC080911202E8
:1028C000909113020E949C1EAC01909115029923D5
:1028D00039F02091080130E02417350758F04BC03B
:1028E000209109018AE0289F9001112424173507BF
:1028F00018F041C09F3F19F09F5F90931502EE20A2
:1029000061F00E94C3121E1414F09FEF01C091E009
:10291000989F902D112490931902FF2061F00E943E
:10292000C3121F1414F09FEF01C091E0989F902DE7
:10293000112490931A02309119023323E1F020916F
:102940001A022223C1F045EB3403C001112499235C
:1029500019F09093190203C081E08093190235EBBE
:102960002303C0011124992319F090931A0203C084
:1029700081E080931A02011103C0112309F45DC0A4
:1029800080911002909111020E949C1EAC019091C6
:102990001402992339F02091040130E024173507FF
:1029A00058F04BC0209105018AE0289F9001112426
:1029B0002417350718F041C09F3F19F09F5F90938F
:1029C0001402002361F00E940C13101614F09FEF04
:1029D00001C091E0989F902D112490931B02112328
:1029E00061F00E940C13111614F09FEF01C091E0EA
:1029F000989F902D112490931C0230911B02332339
:102A0000E1F020911C022223C1F045EB3403C00108
:102A10001124992319F090931B0203C081E0809345
:102A20001B0235EB2303C0011124992319F0909365
:102A30001C0203C081E080931C0280911902811165
:102A40000BC080911A02811107C080911B02811175
:102A500003C080911C0281110E941714EB82FC823A
:102A60000D831E8386E0FE013196A7E1B2E001905E
:102A70000D928A95E1F726960FB6F894DEBF0FBE49
:102A8000CDBFDF91CF911F910F91FF90EF900895EF
:102A9000E7E1F2E086E0DF011D928A95E9F7109206
:102AA00015021092140210921602089586E090E02A
:102AB0000C940227682F86E090E00C9410278091F8
:102AC0005E020C945A1580915E028470816280933C
:102AD0005E020C945A1580915E02869586958695C5
:102AE000089580915E0281FD07C0826080935E023E
:102AF0000E945A150C940817089580915E0281FF78
:102B000007C08D7F80935E020E945A150C941417A3
:102B1000089580915E0281FD0C947D150C947115D1
:102B200080915E0286958170089580910A010895D2
:102B30000E94BC0D811104C00E94630E0E946315A7
:102B40000E94561580935E02282F2695269526957D
:102B500030E02530310524F08770806280935E027A
:102B600080915E0280FF04C086958695869501C09F
:102B700080E00C94DC1620915E02822F869586956B
:102B80008695482F50E04430510554F48F5F982FBC
:102B9000990F990F990F822F8770892B80935E026E
:102BA00080915E02816080935E020E945A1580913E
:102BB0005E028695869586950C94DC1680915E0261
:102BC000982F969596959695A1F0915E990F990FED
:102BD000990F8770892B80935E02887F91E009F4BA
:102BE00090E080915E0290FB80F980935E020E94EB
:102BF0005A1580915E028695869586950C94DC1612
:102C000080915E0280FD13C0816080935E028130FE
:102C100019F489E080935E0280915E020E945A1549
:102C200080915E028695869586950C94DC160895B3
:102C300080915E0280FF08C08E7F80935E020E94BA
:102C40005A1580E00C94DC16089580915E0280FD98
:102C50000C9418160C94001690915E02892F86959C
:102C6000869586958F5F8F719770853038F4880FC1
:102C7000880F880F892B80935E0202C090935E02BA
:102C800080915E02887F91E009F490E080915E027D
:102C900090FB80F980935E020E945A1580915E023B
:102CA0008695869586950C94DC16853008F084E030
:102CB00090915E029770282F220F220F220F922BE5
:102CC00090935E02987F21E009F420E090915E02EB
:102CD00020FB90F990935E020C94DC160E9455162E
:102CE00080915E020C945A15FC01DB0112968C91C6
:102CF0008823F9F0EB5BFC45E730F105D8F4E059A7
:102D0000FF4F0C94CE2684E001C080E00E946E1636
:102D100080E008950E94DE15FBCF0E94BB15F8CF1E
:102D20000E942516F5CF0E942C16F2CF0E9489151D
:102D3000EFCF81E00895279A2F9808952F9808954E
:102D4000CF92DF92EF92FF928C3724E1920728F422
:102D500069E070E00E94842629C0A0E0B0E08A50BB
:102D6000974DAF4FBF4F6627782F892F9A2F25EFAA
:102D700038E241E050E00E94AC2669017A01CA01C4
:102D8000B9010E9474269B01AC01C701B6010E94E3
:102D90007426BB27A92F982F872F009721E0A20721
:102DA000B10511F0BC0102C06FEF7FEFCB01FF90C6
:102DB000EF90DF90CF900895CF93C82F853050F4D7
:102DC000811109C080918000877F809380000E94DC
:102DD0009E1606C0C4E080918000886080938000C9
:102DE0002C2F30E0AFEFBFEF0E94DB26DC01CB01E0
:102DF00022E0B695A795979587952A95D1F70E94D9
:102E0000A01690938D0080938C00CF910895089523
:102E100010921E0210921D0210921F02EFE6F0E0C7
:102E20008081816080830895EFE6F0E080818E7F6D
:102E300080830E946B150C94DC161F920F920FB6C4
:102E40000F9211242F933F934F935F936F937F9330
:102E50008F939F93AF93BF93CF93EF93FF930E9472
:102E6000951540911D0250911E024F5F5F4F94EFE8
:102E7000899F90011124CA01B9010E948426909370
:102E80001E0280931D02B901660F672F661F770B24
:102E900071950E9484266F7780911F02823019F409
:102EA000603451F404C0813039F46F3729F48091D3
:102EB0006F008E7F80936F00E62FF0E0E856FD4FA5
:102EC000C4910E946B1541E051E0C49F9001C59FE1
:102ED000300D11243695279536952795482F429F1A
:102EE000C001439F900D11240E94A01690938D0065
:102EF00080938C00FF91EF91CF91BF91AF919F9103
:102F00008F917F916F915F914F913F912F910F9092
:102F10000FBE0F901F9018950E949B168AE0809319
:102F2000800089E1809381008FEF9FEF909387006D
:102F3000809386000E9498150E94901581110C9430
:102F40000817089583E290E00E940227813281F4FD
:102F500084E290E00E940227813151F485E290E002
:102F60000E94022791E0863209F090E0892F01C08B
:102F700080E081700895CF93C82F811102C06FEF58
:102F800001C061E283E290E00E941027C11102C0FB
:102F90006FEF01C061E184E290E00E941027C1114F
:102FA00002C06FEF01C066E285E290E0CF910C9421
:102FB0001027089586E290E00E940227682F70E0B3
:102FC00080E090E0089586E290E00C94102780E085
:102FD0000E94BB1760E070E0CB010E94E3170E94E3
:102FE00067190E94441A81E00C94BB170E94D917FC
:102FF0000E94A217811102C00C94E7170895CF9385
:10300000FB01C281CC23E9F09C0122513F452031D4
:10301000310520F482510E94541A0CC08031FFE522
:103020009F0751F481E00E94E10843E062E081E003
:103030000E942703C0E018C081319F45A9F482E0B7
:10304000F2CF8031EFE59E0711F481E004C08131B9
:103050009F4549F482E00E94EC0843E062E081E091
:103060000E94270301C0C1E08C2FCF9108952FEF5C
:10307000FC0120830895CF93DF93EC018881893090
:1030800029F08A3071F40E9490150AC00E946B15D5
:103090002FEF829FC001112496958795969587956D
:1030A0008983DF91CF910895FC018081893019F0E7
:1030B0008A3069F00895818124E0829FC001112443
:1030C0006FEF70E00E948426862F0C945516818144
:1030D000811102C00C947D150C947115EF92FF9232
:1030E0000F931F93CF93DF93EC01062F0196E88196
:1030F0004E2F50E0FA013197E331F10508F09AC004
:10310000E958FF4F0C94CE26198289E056C0898178
:10311000823039F0833061F0813029F50E94901EB1
:1031200002C00E94DA179A838B837C836D8384C0EC
:103130007E0182E0E80EF11C10E0812F0E946F11E9
:10314000F70181937F011F5F1630B9F775C0898140
:10315000823049F46A817B818C819D810E94D426D2
:103160000E94E31769C0602FCE010E94371864C027
:103170004B816A8189810E9439199C838D835CC04F
:103180002C813D813227232732274B816A81898117
:103190000E94521951C00E9467194EC00E945418D3
:1031A0004BC00E943B1848C00E945F1545C00E945A
:1031B000F71924C00E94F91999838A833DC06B8155
:1031C00070E089819A81AE014C5F5F4F9827892713
:1031D00098270E94FC1930C06B8170E089819A8128
:1031E000AE014C5F5F4F9827892798270E94211ACC
:1031F00023C00E94441A20C00E94261989831CC043
:103200006B8170E089819A81AE014C5F5F4F982796
:10321000892798270E94A6190FC06B8170E08981C9
:103220009A81AE014C5F5F4F9827892798270E94AB
:10323000C91902C08FEF8883602FCE01DF91CF9133
:103240001F910F91FF90EF900C948F1F84E00895D1
:1032500050E0440F551F28E0629F400D511D11247E
:103260009A0160E3869F200D311D1124C9018796C4
:1032700008950F931F93CF93DF930E9428198C0119
:103280000E940227C82FD0E0DC2FCC27C80101966E
:103290000E9402279E01282BC901DF91CF911F9127
:1032A0000F9108950F931F93CF93DF93122F032F46
:1032B0000E942819EC01602F0E941027612FCE0177
:1032C0000196DF91CF911F910F910C941027AF922F
:1032D000BF92CF92DF92EF92FF920F931F93CF9303
:1032E000DF93A12CE12CF12CB12C00E010E0C0E028
:1032F000D0E06701C00ED11EF601EC0FFD1FEE0FEE
:10330000FF1FE85DFE4F259134914C2F6B2D8A2DC8
:103310000E9452192196C430D10571F70C5F1F4FDE
:10332000B39486E0B812E3CF88E1E80EF11CA394D1
:1033300084E0A812D9CFDF91CF911F910F91FF9018
:10334000EF90DF90CF90BF90AF900895EF92FF92F3
:103350000F931F93CF93DF93EA017A01E60EF71ED6
:103360008C01C8018796CE15DF0561F0003C110580
:1033700020F40E940227888301C0188221960F5FE3
:103380001F4FEFCFDF91CF911F910F91FF90EF90E3
:103390000895EF92FF920F931F93CF93DF93EA016B
:1033A0007A01E60EF71E8C01C8018796CE15DF055F
:1033B00051F0003C110518F468810E9410272196F5
:1033C0000F5F1F4FF1CFDF91CF911F910F91FF90B2
:1033D000EF900895462F843038F4763028F4643026
:1033E00018F4672F0C94391980E090E0089580E17B
:1033F000089589E193E00895EF92FF920F931F9350
:10340000CF93DF93EA017A01E60EF71E8C01C80123
:1034100089519F4FCE15DF0569F0093123E012076E
:1034200020F40E940227888301C0188221960F5F32
:103430001F4FEDCFDF91CF911F910F91FF90EF9034
:103440000895EF92FF920F931F93CF93DF93EA01BA
:103450007A01E60EF71E8C01C80189519F4FCE15E7
:10346000DF0559F0093123E0120718F468810E9442
:10347000102721960F5F1F4FEFCFDF91CF911F9144
:103480000F91FF90EF900895CF93DF93C7EED0E0B8
:1034900060E0CE010E9410272196C11584E0D80774
:1034A000B9F7DF91CF910895DF92EF92FF920F93DA
:1034B0001F93CF93DF9300D000D0CDB7DEB7F82EA7
:1034C0008FE08F15E8F18FEF93E00E9402278111C2
:1034D00037C007EE10E0FF2069F0011584E01807FF
:1034E00079F1C8010E940227811101C0FA940F5F8F
:1034F0001F4FF1CF19821A821B821C82DD24D394C4
:1035000078018FEFE81AF80AC8010E940227898320
:103510001A828823A9F09FEF980F933058F48A837A
:10352000D9820E5F1F4FC7010E9402278B83882319
:1035300039F07801CE0101960E9479048701E0CF2D
:103540000F900F900F900F90DF91CF911F910F91DF
:10355000FF90EF90DF9008950F931F93CF93DF9329
:10356000C42FD22FFC0182818823C9F0409322020C
:103570000E94841E909321028093200280E28C0F8F
:10358000883008F057C0C77081E001C0880FCA9525
:10359000EAF7DF91CF911F910F910C940F06809164
:1035A0002202481330C080912002909121020E9493
:1035B0009C1E883C910538F510E21D0FCD17B9F01F
:1035C00080E28C0F883040F4C77081E001C0880F22
:1035D000CA95EAF70E941606183028F581E09D2F5B
:1035E000977001C0880F9A95EAF70E940F06802F06
:1035F0000E9406061830F0F4D77081E001C0880FF1
:10360000DA95EAF70AC080E28C0F883098F4C77028
:1036100081E001C0880FCA95EAF7DF91CF911F9131
:103620000F910C941606802FDF91CF911F910F916F
:103630000C940606DF91CF911F910F9108950F937F
:103640009C01CB01233F4CE5340731F188F4283D40
:10365000FCE53F07D9F0293D4CE5340779F1273DDA
:103660003C45A9F506E221EE41EE67ED7CE52BC075
:10367000253FFCE53F07E1F0A8F0263F3C4539F542
:1036800007E225EE46EE66EF7CE51DC007E225EE7B
:1036900045EE68ED7CE517C006E221EE40EE63EFF3
:1036A0007CE511C007E225EE44EE64EF7CE50BC03B
:1036B00006E221EE42EE65EF7CE505C008E221E07E
:1036C00045EE69ED7CE50E94AC1A80E008C0FC0183
:1036D0008281882319F01092220201C081E00F91AB
:1036E0000895CF93DF93EC01FB018281882309F4D5
:1036F00026C1C330FDE5DF0760F4CA3F9CE5D9076A
:1037000068F49E0122503C452431310508F018C16F
:1037100005C0C136EDE5DE0709F012C10E94CF0DEC
:103720009093510280935002C031FCE5DF0709F409
:10373000CAC008F041C0C8309CE5D90709F4A4C04C
:10374000F0F4C430FCE5DF0709F48CC068F4C23043
:103750009CE5D90709F482C0C330DC4509F0E5C017
:10376000809150028260DFC0C630FCE5DF0709F4BB
:1037700083C008F085C0809150028860D4C0CC30EE
:103780009CE5D90709F490C068F4CA30FCE5DF076E
:1037900009F47EC008F084C00E9462088091500243
:1037A0008068C1C0CE309CE5D90709F481C008F01B
:1037B00086C08091500294C0CC3FFCE5DF0709F43D
:1037C0007BC038F5C4319CE5D90709F49AC058F498
:1037D000C231FCE5DF0709F47AC008F07EC08091B1
:1037E00050028F7BA0C0CA3F9CE5D907F1F108F0D9
:1037F0003FC0C531DC4509F098C08091500282FB82
:10380000222720F991E0922790FB82F990FB83F91F
:103810008AC0C1158DE5D80709F467C050F48091BE
:103820005102CE3FECE5DE07C1F108F05BC08D7FB1
:1038300065C0C2308DE5D80709F471C008F46DC0C9
:10384000C136DD4509F071C08091500284FB22270A
:1038500020F991E0922790FB84F965C08091500295
:10386000816061C08091500216C08091510216C0E3
:1038700080915102826042C080915002806153C0A9
:103880008091500280624FC08091500280644BC092
:10389000809150028860846046C0826081602EC042
:1038A000809150028E7F3FC0809150028D7F3BC03F
:1038B00080915002877F37C08091510214C080915F
:1038C00050028F7E30C0809150028F7D2CC00E94AC
:1038D0006208809150028F7726C080915002877FC6
:1038E0008B7F21C08D7F8E7F09C080915102982FE0
:1038F000909591708E7F892B90FB81F98093510276
:1039000014C00E9462088091500287FB222720F990
:1039100091E0922790FB87F906C081E001C080E02A
:103920000E94650E02C080935002809150029091D7
:1039300051020E94E00D0E94620880E001C081E017
:10394000DF91CF910895CF93DF9386319C4541F568
:10395000EB010E94040D982F8A8120910001309183
:103960000101882379F09A7A81E009F480E080935C
:103970002302911102C069E201C065E3C9010E94FE
:10398000CF1D0AC080912302811102C069E201C0EB
:1039900065E3C9010E94DA1D0E94490D80E001C063
:1039A00081E0DF91CF9108959093290280932802BE
:1039B0000895E0912802F0912902309721F00190BA
:1039C000F081E02D099480E00895E0912802F091C3
:1039D0002902309799F020911501222359F0209166
:1039E000500227FF07C0DC012C9111962C931197F0
:1039F00025E02C930280F381E02D09940895E09155
:103A00002802F0912902309739F022E0DC012C9352
:103A10000480F581E02D09940895209126023091CB
:103A200027022817390771F0909327028093260206
:103A3000E0912802F0912902309721F00680F78169
:103A4000E02D099408952091240230912502281731
:103A5000390771F09093250280932402E0912802A7
:103A6000F0912902309721F00084F185E02D09942E
:103A70000895FC01329680911501882331F08091E0
:103A8000500287FF02C09EE101C096E080E09150A5
:103A900028F021912223D9F38F5FF9CF089566236F
:103AA00051F1209115012223E9F02091500227FFC6
:103AB00019C0462F4695469546954E31E0F46770FD
:103AC00021E030E002C0220F331F6A95E2F7FC01CB
:103AD000E40FF11D828190E02823392381E0232B1C
:103AE00069F409C0FC01329608962191621729F009
:103AF000E817F907D1F780E0089581E008959C0167
:103B0000FC0132969FEF80E04191461789F09F3F7C
:103B100019F4411101C0982F8F5F8630A9F79F3F9C
:103B200039F0F901E90FF11D97FDFA9562830895C7
:103B300008959C012A5F3F4FFC014281461301C05A
:103B40001282019682179307B9F70895262F2695BA
:103B5000269526952E3168F4FC01E20FF11D677061
:103B600021E030E001C0220F6A95EAF78281282B1C
:103B700022830895262F2695269526952E3170F4BA
:103B8000FC01E20FF11D677021E030E001C0220F5F
:103B90006A95EAF72095828128232283089520914F
:103BA0001501222329F02091500227FD0C94A61D17
:103BB0000C947F1D20911501222329F020915002A1
:103BC00027FD0C94BA1D0C94991D20911501FC0140
:103BD0003296222331F08091500287FF02C08EE19D
:103BE00001C086E0DF011D928A95E9F708950895E6
:103BF00008950C94F81D0C94F81DCF930E94FB1DA2
:103C00000E9439120E94F91DC0E08C2F0E946F1192
:103C1000811104C0CF5FC630C1F701C081E0CF91F0
:103C200008950C94F81D0C94111E80916702843045
:103C300061F10E94131E80E00E94DC1680E00E9469
:103C4000840410922A0220E488E190E00FB6F894F0
:103C5000A895809360000FBE2093600083B7817F9A
:103C6000846083BF83B7816083BF7894889583B76E
:103C70008E7F83BF0FB6F894A8958091600088610D
:103C800080936000109260000FBE08950C94F81DA0
:103C90000E9462080E9498150E94D91C0E94840408
:103CA0000C94461E1F920F920FB60F9211248F9301
:103CB0009F93AF93BF9380912A02811113C080918B
:103CC0005F0290916002A0916102B0916202419600
:103CD000A11DB11D80935F0290936002A0936102C9
:103CE000B0936202BF91AF919F918F910F900FBEE1
:103CF0000F901F90189582E084BD93E095BD9AEFD8
:103D000097BD80936E0008952FB7F89480915F025D
:103D100090916002A0916102B09162022FBF08955C
:103D20002FB7F89460915F027091600280916102F8
:103D3000909162022FBF08959C014FB7F894809133
:103D40005F0290916002A0916102B09162024FBF48
:103D5000821B930B089578941F920F920FB60F92C7
:103D600011248F939F93AF93BF9380915F029091A3
:103D70006002A0916102B09162020196A11DB11D85
:103D800080935F0290936002A0936102B0936202FD
:103D9000BF91AF919F918F910F900FBE0F901F9089
:103DA000189581E08093E00080E28093D800109223
:103DB000C9008FE19EE40197F1F700C0000087E0A1
:103DC00090EBDC018093700290937102A0937202D9
:103DD000B09373029CE088E10FB6F894A8958093A5
:103DE00060000FBE90936000FFCF9093930180938B
:103DF0009201089580914E02089590916702943047
:103E000029F580932B0270932D0260932C029093DE
:103E1000E9008FEF9091E800815095FD06C095ED87
:103E20009A95F1F700008111F5CF8091E80085FFA8
:103E30000DC040E050E063E070E08BE292E00E9451
:103E40008B218091E8008E778093E8000895BC0173
:103E500084E00C94FD1EBC0183E00C94FD1E24E064
:103E60002093E9002FEF3091E800215035FD06C086
:103E700035ED3A95F1F700002111F5CF2091E800DA
:103E800025FF0BC040E050E066E070E00E948B210F
:103E90008091E8008E778093E8000895CF93DF93B8
:103EA00020911501222339F02091500227FF03C0F1
:103EB00060E224E002C068E021E02093E9002FEFF7
:103EC0003091E800215035FD06C035ED3A95F1F707
:103ED00000002111F5CF2091E80025FF1DC0EC0165
:103EE00080911501811105C040E050E068E070E06C
:103EF00003C070E040E050E0CE010E948B21809131
:103F0000E8008E778093E80080E2FE01AEE2B2E046
:103F100001900D928A95E1F7DF91CF910895CF93AB
:103F2000603219F5209167022430F9F4C091E9005C
:103F3000CF703091EC00232F217030FD20E8C22B90
:103F400022E02093E9002091E80020FF0BC040E030
:103F500050E060E270E00E948B218091E8008E7753
:103F60008093E800CF70C093E900CF9108958091CD
:103F70006602811109C00E9467230E94C4238091B8
:103F8000E20084608093E200089510926602089532
:103F900008950895089542E061EC81E00E94E022D6
:103FA00042E261EC84E00E94E02242E261EC82E0C5
:103FB0000E94E02242E260EC83E00C94E0228091D7
:103FC0006902833009F462C030F4813071F08230CC
:103FD00009F49BC008958A3009F487C08B3009F436
:103FE0006DC0893009F0A9C020C080916802813A73
:103FF00009F0A3C08091E800877F8093E80080915A
:104000006C0290916D02892B21F460E28EE292E0C5
:1040100003C060E080E090E070E00E942122809187
:10402000E8008B778093E8000895809168028132E0
:1040300009F083C080916C0290916D02009719F095
:10404000029709F07AC08091E800877F8093E800AA
:104050008091E80082FD05C0809167028111F8CF50
:104060006CC02091F3008091F20090E0922B0297B7
:1040700029F48091F1008B7F813021F48091F1004F
:1040800080934E028091E8008B7753C08091680244
:10409000813A09F052C080916C0290916D02892B97
:1040A00009F04BC08091E800877F8093E800809101
:1040B000E80080FFFCCF8091150136C08091680236
:1040C0008132D9F580916C0290916D02892BA9F50E
:1040D0008091E800877F8093E8000E9415238091FB
:1040E0006A02809315010C94620880916802813203
:1040F00021F58091E800877F8093E8000E941523D6
:1041000080916B0280934F02089580916802813AFA
:10411000A1F48091E800877F8093E8008091E80017
:1041200080FFFCCF80914F028093F1008091E800E6
:104130008E778093E8000C941523089584B7877FC9
:1041400084BF0FB6F894A895809160008861809331
:104150006000109260000FBE90E080E80FB6F89407
:1041600080936100909361000FBE0C94950E0E94A5
:1041700067230E94C423E2EEF0E0808184608083A4
:1041800078940E9459260E94A30E8BE091E00C9433
:10419000D41CCF93DF93CDB7DEB7A0970FB6F894BA
:1041A000DEBF0FBECDBF809167028530A9F480913C
:1041B0006702853079F40E94151E8091650288237C
:1041C000B1F30E94FD1D882391F30E9475210E9486
:1041D0006208EDCF0E94481E0E94AD0E80916702DA
:1041E000843011F583E08093E9008091E80082FF3C
:1041F0001BC08091E80085FF0AC040E050E060E20B
:1042000070E0CE0101960E94D62191E001C090E0BD
:104210008091E8008B778093E800992329F060E291
:10422000CE0101960E946E18A0960FB6F894DEBFDC
:104230000FBECDBFDF91CF9108950C941F21292F80
:10424000332723303105C9F060F42130310581F086
:104250002230310509F041C08BE590E026E533E0DE
:1042600040C021323105E1F02232310531F135C053
:1042700082E190E021EB33E034C099278130910551
:1042800049F028F0029749F5E8E1F3E005C0E2E5DE
:10429000F3E002C0E8E3F3E0849190E09F0121C0E5
:1042A00063307105D0F4660F771FFB01E557FE4FB1
:1042B0002081318189E090E014C06330710568F499
:1042C000FB01EE0FFF1FEB57FE4F20813181FB01F9
:1042D000EE57FE4F808190E004C080E090E020E047
:1042E00030E0FA0131832083089580E189BD82E1C5
:1042F00089BD09B400FEFDCF8091D8008F7D8093E9
:10430000D8008091E00082608093E0008091E0001E
:1043100081FDFCCF0895CF92DF92EF92FF920F9331
:104320001F93CF93DF93EC018B017A010E9434231A
:10433000811133C0E114F10439F0F70180819181DA
:10434000081B190BC80FD91FC12CD12C0115110541
:1043500019F18091E80085FD16C08091E8008E7704
:104360008093E800E114F10449F0F7018081918124
:10437000C80ED91ED182C08285E00FC00E943423AE
:10438000882321F30AC089918093F100015011091B
:10439000FFEFCF1ADF0ADACF80E0DF91CF911F91D4
:1043A0000F91FF90EF90DF90CF900895CF92DF9222
:1043B000EF92FF920F931F93CF93DF93EC018B014A
:1043C0007A010E943423811133C0E114F10439F0E1
:1043D000F70180819181081B190BC80FD91FC12CCF
:1043E000D12C0115110519F18091E80085FD16C049
:1043F0008091E8008B778093E800E114F10449F0A4
:10440000F70180819181C80ED91ED182C08285E0DA
:104410000FC00E943423882321F30AC08091F10049
:10442000899301501109FFEFCF1ADF0ADACF80E03C
:10443000DF91CF911F910F91FF90EF90DF90CF9080
:10444000089520916E0230916F022617370748F0C9
:104450006115710539F42091E8002E772093E8006A
:1044600001C0B901FC0120E06115710579F180916D
:1044700067028823F1F18530F1F18091E80083FD36
:104480003CC08091E80082FD2EC08091E80080FF52
:10449000EBCF2091F3008091F20090E0922B611518
:1044A000710551F08830910538F421912093F10085
:1044B000615071090196F3CF21E0089709F020E0DF
:1044C0008091E8008E778093E800CECF2111CFCF86
:1044D0000AC080916702882361F0853061F0809185
:1044E000E80083FD0AC08091E80082FFF2CF80E0FF
:1044F000089582E0089583E0089581E00895209171
:104500006E0230916F022617370748F0611571056A
:1045100039F42091E8002E772093E80001C0B9011A
:10452000FC0120E06115710591F1809167028823FB
:1045300009F440C0853009F43FC08091E80083FD54
:104540003DC08091E80082FD2FC08091E80080FF8F
:10455000E9CF2091F3008091F20090E0922B611559
:10456000710559F08830910540F424912093F100B1
:104570003196615071090196F2CF21E0089709F058
:1045800020E08091E8008E778093E800CBCF211166
:10459000CCCF0AC080916702882361F0853061F03A
:1045A0008091E80083FD0AC08091E80082FFF2CF8D
:1045B00080E0089582E0089583E0089581E0089501
:1045C000982F973068F59093E900981739F070911B
:1045D000EC002091ED005091F00003C0242F762FC5
:1045E00050E021FD02C09F5FECCF3091EB003E7F99
:1045F0003093EB003091ED003D7F3093ED00309132
:10460000EB0031603093EB007093EC002093ED00F1
:104610005093F0002091EE0027FDE5CF80E0089553
:104620008F708093E90081E008958091680287FF90
:1046300011C08091E80082FD05C080916702811160
:10464000F8CF11C08091E8008B770BC08091670292
:10465000882349F08091E80080FFF8CF8091E8003E
:104660008E778093E80008952091E4003091E50072
:1046700095E64091EC00842F817040FF23C080912B
:10468000E80080FD1DC080916702882399F0853085
:1046900099F08091EB0085FD11C04091E4005091AC
:1046A000E5002417350729F3915011F09A01E1CF65
:1046B00084E0089582E0089583E0089581E00895FC
:1046C00080E008954091E80042FFDDCF08950E9408
:1046D000D5230E94DD23E0EEF0E0808181608083BD
:1046E000E8EDF0E080818F77808319BCA7EDB0E022
:1046F0008C918E7F8C9380818F7E80831092660256
:1047000008950F931F93CF93DF930E94D5230E94A8
:10471000DD23C8EDD0E088818F7788838881806829
:10472000888388818F7D888319BC109267021092DC
:104730006302109265021092640200EE10E0F8012C
:1047400080818B7F808388818160888342E060E004
:1047500080E00E94E022E1EEF0E080818E7F8083A5
:10476000E2EEF0E0808181608083808188608083D8
:10477000F80180818E7F8083888180618883DF91CA
:10478000CF911F910F910895E8EDF0E080818F7E29
:104790008083E7EDF0E080818160808384E082BFE8
:1047A00081E0809366020C948123E8EDF0E0808143
:1047B0008E7F80831092E20008951092DA001092AA
:1047C000E10008951F920F920FB60F9211242F93BC
:1047D0003F934F935F936F937F938F939F93AF9389
:1047E000BF93EF93FF938091E10082FF0BC0809114
:1047F000E20082FF07C08091E1008B7F8093E1009F
:104800000E9458268091DA0080FF1FC08091D80056
:1048100080FF1BC08091DA008E7F8093DA00809148
:10482000D90080FF0DC080E189BD82E189BD09B456
:1048300000FEFDCF81E0809367020E94B71F05C094
:1048400019BC109267020E94C51F8091E10080FF91
:1048500019C08091E20080FF15C08091E2008E7F38
:104860008093E2008091E20080618093E200809179
:10487000D80080628093D80019BC85E080936702DD
:104880000E94C91F8091E10084FF30C08091E20046
:1048900084FF2CC080E189BD82E189BD09B400FE9E
:1048A000FDCF8091D8008F7D8093D8008091E1006A
:1048B0008F7E8093E1008091E2008F7E8093E20002
:1048C0008091E20081608093E200809163028823FE
:1048D00011F084E007C08091E30087FD02C081E011
:1048E00001C083E0809367020E94CA1F8091E100AB
:1048F00083FF29C08091E20083FF25C08091E10001
:10490000877F8093E10082E08093670210926302C8
:104910008091E1008E7F8093E1008091E2008E7FA4
:104920008093E2008091E20080618093E20042E0A7
:1049300060E080E00E94E0228091F0008860809337
:10494000F0000E94C81FFF91EF91BF91AF919F911E
:104950008F917F916F915F914F913F912F910F9028
:104960000FBE0F901F9018951F920F920FB60F92C7
:1049700011242F933F934F935F936F937F938F9364
:104980009F93AF93BF93CF93DF93EF93FF93C09128
:10499000E900CF708091EC00D82FD17080FDD0E875
:1049A0001092E9008091F000877F8093F000789466
:1049B0000E94F8241092E9008091F00088608093B2
:1049C000F000CD2BCF70C093E900FF91EF91DF9104
:1049D000CF91BF91AF919F918F917F916F915F9197
:1049E0004F913F912F910F900FBE0F901F901895F0
:1049F0001F93CF93DF93CDB7DEB7AA970FB6F89486
:104A0000DEBF0FBECDBFE8E6F2E08091F1008193FA
:104A100022E0E037F207C9F70E94DF1F8091E8002B
:104A200083FF2EC18091680290916902492F50E066
:104A30004A30510508F024C1FA01E657FF4F0C94A3
:104A4000CE26803821F0823809F01AC108C0809142
:104A5000640290916502992389F082600FC0809171
:104A60006C028F70873008F00BC18093E900809151
:104A7000EB0085FB882780F91092E9009091E8000F
:104A8000977F9093E8008093F1001092F100D1C0DD
:104A9000282F2D7F09F0F4C0882319F0823061F0AF
:104AA000EFC080916A02813009F0EAC0933009F0CA
:104AB00080E0809365022EC080916A0281112AC035
:104AC00080916C028F702FEF280F263008F0D8C02D
:104AD0008093E9002091EB0020FF1CC0933021F46B
:104AE0008091EB00806214C09091EB0090619093F4
:104AF000EB0021E030E0A90102C0440F551F8A9568
:104B0000E2F74093EA001092EA008091EB0088609F
:104B10008093EB001092E9008091E800877F8093FA
:104B2000E8000E941523ACC08111AAC010916A024E
:104B30001F778091E3008078812B8093E300809140
:104B4000E800877F8093E8000E9415238091E800A9
:104B500080FFFCCF8091E30080688093E300111117
:104B600002C082E001C083E08093670289C0805860
:104B7000823008F085C080916A0290916B028C3D72
:104B800053E0950779F583E08A838AE289834FB7FA
:104B9000F894DE01139620E03EE051E2E32FF0E0CE
:104BA00050935700E49120FF03C0E295EF703F5F00
:104BB000EF708E2F90E0EA3010F0C79601C0C096DB
:104BC0008D939D932F5F243149F74FBF8091E8006B
:104BD000877F8093E8006AE270E0CE0101960E9430
:104BE000212216C060916C0270916D02AE014F5F80
:104BF0005F4F0E941D21BC01892B09F441C0909197
:104C0000E800977F9093E80089819A810E947F2233
:104C10008091E8008B778093E80032C0803881F57E
:104C20008091E800877F8093E80080916302809301
:104C3000F1008091E8008E7772CF811121C08091C0
:104C40006A0290916B0299270297D4F48091E80050
:104C5000877F8093E80080916A02809363020E94BC
:104C6000152380916302811106C08091E30087FDC6
:104C700002C081E001C084E0809367020E94CB1FE4
:104C80008091E80083FF0AC08091E800877F8093CD
:104C9000E8008091EB0080628093EB00AA960FB64B
:104CA000F894DEBF0FBECDBFDF91CF911F91089565
:104CB0000895CF93809167028823A1F0C091E90005
:104CC000CF709091EC00892F817090FD80E8C82B07
:104CD0001092E9008091E80083FD0E94F824CF70D3
:104CE000C093E900CF910895DB018F939F930E94B9
:104CF000EA26BF91AF91A29F800D911DA39F900DB9
:104D0000B29F900D11240895AA1BBB1B51E107C04F
:104D1000AA1FBB1FA617B70710F0A61BB70B881F4B
:104D2000991F5A95A9F780959095BC01CD010895DA
:104D300097FB072E16F4009407D077FD09D00E9448
:104D4000842607FC05D03EF4909581959F4F0895E9
:104D5000709561957F4F0895A1E21A2EAA1BBB1B87
:104D6000FD010DC0AA1FBB1FEE1FFF1FA217B30737
:104D7000E407F50720F0A21BB30BE40BF50B661F4D
:104D8000771F881F991F1A9469F760957095809511
:104D900090959B01AC01BD01CF010895EE0FFF1F5F
:104DA0000590F491E02D09946927962769277827C3
:104DB000872778270895A29FB001B39FC001A39FC2
:104DC000700D811D1124911DB29F700D811D112444
:104DD000911D08950E94DB26A59F900DB49F900D14
:104DE000A49F800D911D11240895FB01DC0104C0D6
:104DF0008D910190801921F441505040C8F7881BD3
:104E0000990B0895F999FECF92BD81BDF89A992723
:104E100080B50895A8E1B0E042E050E00C94362758
:104E2000262FF999FECF92BD81BDF89A019700B463
:104E3000021639F01FBA20BD0FB6F894FA9AF99A03
:104E40000FBE08950396272F0E9411270E94102756
:104E5000252F0E941127242F0C9411270196272F0C
:104E60000E9411270C941027DC01CB01FC01F99959
:104E7000FECF06C0F2BDE1BDF89A319600B40D92A6
:0C4E800041505040B8F70895F894FFCF5F
:104E8C00DA012808641E140A321E06FA1E4E1F2F61
:104E9C001F2B1F271F01E200E900EA00B500B60036
:104EAC00B700CD008301CC008A019201940121024C
:104EBC00230224022502260227022A02B300B40090
:104ECC006F007000818283E200E900EA00B500B651
:104EDC0000B700CD008301CC008A0192019401211E
:104EEC0002230224022502260227022A02B300B45E
:104EFC00006F007000818283F6F5F1F0F46766367E
:104F0C0035344022B69B04C303E50368038103A137
:024F1C00030090
:00000001FF
