:100000000C9459020C94A0020C94A0020C94A0022F
:100010000C94A0020C94A0020C94A0020C94A002D8
:100020000C94A0020C94A0020C94A0020C947521D4
:100030000C9424220C942D1C0C94A0020C94A0026D
:100040000C94A0020C94A0020C94A0020C94861CA8
:100050000C94A0020C94A0020C94A0020C94A00298
:100060000C94A0020C94A0020C94A0020C94A00288
:100070000C94A002B205B205E405E40531064F0672
:10008000430743075A06C206D306D306330743077E
:1000900043073C07E307E307F507F507EC07F50718
:1000A000F507F507E307E307F107F507F507F1079C
:1000B000EB16EE160E171F1727173217781778173B
:1000C000781778177817351738173D174A175717C5
:1000D0005A175E176B179122B822B023B822B023AB
:1000E00004232723B0237E238D23290014001A0024
:1000F0000800150017001C0018000C001200130067
:100100004C002A002B0004001600070009000A001A
:100110000B000D000E000F00330000002800E1006E
:1001200000001D001B000600190005001100100052
:1001300036003700E5000251E000E300E200035121
:1001400000002C0000002C0000000151E6006500BA
:10015000E4000100AA00A900A800005C0100B200B0
:100160004B0052004E004600470048003900AC00EA
:10017000AE00AB00010001004A00500051004F00EA
:100180004900000001000100000001000100010021
:10019000010001000100BF5CBD5CBE5C010001000C
:1001A0000100010001000100000001000000010049
:1001B0000000010001000100010035003A003B0091
:1001C0003C003D003E003F00400041004200430033
:1001D000440045001E001F002000210022002300D3
:1001E00024002500260027002D0000002E0001001D
:1001F00000000100010001000100340038002F0060
:1002000030003100E50001000100010001000100A3
:1002100000000100000001000000010001000100D9
:1002200001000100010001000100010001000100C6
:10023000010001000100010001000100C25CC55C79
:10024000C75CC95C01000100010001000100010060
:10025000010000000100C35C0000C65CC85CCA5C11
:100260000100010001000100010001000100010086
:100270000100010001000100000001000000010078
:100280000000010001000100005C0000000000000F
:1002900000002A2B280000000000000000000000E1
:1002A000000000000029000000002C1E3420212244
:1002B00024342627252E362D3738271E1F202122AD
:1002C000232425263333362E37381F040506070826
:1002D000090A0B0C0D0E0F10111213141516171816
:1002E000191A1B1C1D2F3130232D35040506070854
:1002F000090A0B0C0D0E0F101112131415161718F6
:10030000191A1B1C1D2F3130354C00000000000055
:1003100000000000000000000000000000000000DD
:1003200000000000000000000000000000007E0F40
:1003300000D4FFFFFFC700000078180341007400DD
:100340006F006D00340037002000720065007600F9
:10035000340000000E03450076007900640031008F
:10036000330000000403090409025B00030100A03C
:10037000FA09040000010301010009211101000133
:100380002240000705810308000A09040100020356
:10039000000000092111010001222200070582034B
:1003A00020000107050303200001090402000103E6
:1003B000000000092111010001227B0007058403D0
:1003C00020000A12010002000000080547468401CF
:1003D00000010200010660FF0961A1010962150028
:1003E00026FF009520750881020963150026FF008D
:1003F000952075089102C005010902A10185020935
:1004000001A10005091901290815002501950875A4
:100410000181020501093009311581257F95027599
:1004200008810609381581257F9501750881060523
:100430000C0A38021581257F950175088106C0C018
:1004400005010980A101850319012AB700150126BC
:10045000B700950175108100C0050C0901A1018547
:100460000419012AA002150126A002950175108128
:1004700000C005010906A101050719E029E71500DB
:10048000250195087501810295017508810105070F
:10049000190029FF150026FF009506750881000543
:1004A00008190129059505750191029501750391BA
:1004B00001C011241FBECFEFD4E0DEBFCDBF04B614
:1004C00003FE27C080916B0290916C02A0916D0297
:1004D000B0916E028730904BA740B04BD1F4109290
:1004E0006B0210926C0210926D0210926E0214BE9A
:1004F00084B7877F84BF0FB6F894A8958091600079
:10050000886180936000109260000FBEE0E0F8E325
:10051000099511E0A0E0B1E0E8E0F9E402C005903F
:100520000D92A83AB107D9F722E0A8EAB1E001C0DC
:100530001D92AB36B207E1F70E942B130C94822474
:100540000C94000081E0089581E008950C94A402C9
:1005500008950C94A8021F93CF93DF9300D000D08E
:100560001F92CDB7DEB749835A836B833091AA01BE
:1005700089819A81311114C0662359F0222349F0F0
:100580000E94DF08182F682F89819A810E948208B3
:1005900003C00E94B308182F69817A81812F04C09B
:1005A0000E94DF0869817A810F900F900F900F9061
:1005B0000F90DF91CF911F910C944918FC01262FC9
:1005C000408151816281738184810C94AB0281E00E
:1005D0000895CF93DF93EC0160E00E94DE02BE013C
:1005E000DF91CF910C94A902E1E0F0E0DF0102C0BD
:1005F000AA0FBB1F6A95E2F7BD01DF0102C0AA0F77
:10060000BB1F4A95E2F7AD01462B01C0EE0F2A95BC
:10061000EAF7942F9823491302C08E2B0895E09592
:100620008E230895242F462F682F8091C0010E94A9
:10063000F4020C943F080E949F110E946B040C94DA
:10064000D2110C94CE1108950E94D1070E94230369
:100650002FEF84E39CE0215080409040E1F700C000
:1006600000000C94AC1C0F931F93CF93DF938C016D
:1006700061E00E94DE02EC01B8010E949A16882314
:1006800009F444C0B801CE010E94A6028823F1F10A
:10069000B801CE010E947E198823C1F1B801CE01B4
:1006A0000E94D019882391F1B801CE010E94021B4B
:1006B000882361F1F8018281882309F1CA358DE52B
:1006C000D807C1F050F4C115FCE5DF0781F0CE3D3D
:1006D000DC45A9F40E94680E19C0CB35EDE5DE07B4
:1006E00061F0CC35DD4559F40E94ED0C08C00E9444
:1006F00024030CC00E94F60C02C00E94F90CC80131
:10070000DF91CF911F910F910C94A20280E0DF91B5
:10071000CF911F910F910895DF92EF92FF920F9367
:100720001F93CF93DF93E82FF0E0E657FD4FD4906F
:10073000282F26952695269530E0F901E65DFC4F99
:100740000491877010E0082E02C0159507950A9451
:10075000E2F701701127F901E65EFC4FE490F12CFD
:10076000082E02C0F594E7940A94E2F791E0E9229A
:10077000FF24F901E65FFC4FC491D0E002C0D5959B
:10078000C7958A95E2F7C170DD270115110519F0AB
:1007900081EE0E94C704E114F10419F086EE0E9474
:1007A000C7048D2D0E946805EF2819F086EE0E947F
:1007B0001D05012B19F081EE0E941D05CD2B51F076
:1007C0008CE2DF91CF911F910F91FF90EF90DF901E
:1007D0000C946805DF91CF911F910F91FF90EF90DE
:1007E000DF900895EF92FF921F93CF93DF93EC0178
:1007F000162F8881882309F453C0813009F041C045
:100800008981813041F47E0182E0E80EF11C8A8109
:100810000E94680509C0823049F47E01E2E0EE0ED4
:10082000F11C8A810E94C704E7012DC0833041F486
:100830007E01F2E0EF0EF11C8A810E941D05F4CFCB
:10084000843011F021961FC02A81229680E090E02A
:1008500030E0205331092A30310548F46AE070E075
:100860000E94ED23820F931F21962881F1CF0097DC
:1008700051F0EFE9FFE03197F1F700C00000019778
:10088000F6CF0E948C032196812F882309F4B1CFE3
:10089000EFE9FFE03197F1F700C000008150F5CF9C
:1008A000DF91CF911F91FF90EF90089560E00C943D
:1008B000F20308950C94590481E00895CF93C82F52
:1008C0000E945C04882329F0C1FF02C0599A01C02C
:1008D0005998CF910895519A59980895CF93C82F58
:1008E0000E945A048C2F0E945E04CF910895CF93EA
:1008F000DF93CDB7DEB72B970FB6F894DEBF0FBEF0
:10090000CDBF4F83588769877A878B8761110E9493
:100910001C0D9E012F5F3F4F86E0F90111928A95D1
:10092000E9F785E0FE013796D90101900D928A958D
:10093000E1F789819A814C815D81452B31F09F3FA0
:1009400031F491E08F3F19F403C091E001C090E0D1
:1009500090FF09C049815A816B817C818D819E8184
:100960000E94170C05C0C9010E94E7028111F2CF55
:100970002B960FB6F894DEBF0FBECDBFDF91CF919F
:100980000895FC01808191810E940C090895CF9304
:10099000882309F450C0C82F8CEF8C0F813AD0F413
:1009A0006C2F80910001909101010E94951B88237A
:1009B00049F06C2F80910001909101010E94CD1BA4
:1009C0000E944E0D6C2F80910001909101010E94B8
:1009D000CB1B0CC080E28C0F883058F4C77081E0CC
:1009E00001C0880FCA95EAF70E94FF0CCF910C94C2
:1009F0004E0DEBE5EC0FE33040F4F0E0ED5BFE4F25
:100A0000808190E0CF910C945D1BE8E5EC0FE7311D
:100A100050F4F0E0EE0FFF1FEB5EFE4F80819181FE
:100A2000CF910C94731BC03F30F08C2F0E94BC13ED
:100A3000CF910C948E14CF910895882389F19CEF67
:100A4000980F913A40F4682F809100019091010134
:100A50000E94CD1B0DC090E2980F983058F487701B
:100A600091E001C0990F8A95EAF7892F0E94050D40
:100A70000C944E0D9BE5980F933020F480E090E0AD
:100A80000C945D1B98E5980F973120F480E090E07E
:100A90000C94731B803F20F00E9417140C948E144A
:100AA00008951F93CF93DF93182FEB010E94C70483
:100AB000209741F08FE99FE00197F1F700C0000017
:100AC0002197F6CF812FDF91CF911F910C941D05B7
:100AD000893319F060E070E002C060E570E00C94CA
:100AE0005105882321F00E94FF0C0C944E0D0895AF
:100AF000882321F00E94050D0C944E0D0895CF928D
:100B0000DF92EF92FF920F931F93CF93DF937C01BD
:100B1000062FC72FFC01D281158112951F700E94EC
:100B2000D40C882399F0DD2389F08C2F807F8034CA
:100B300021F080E2800F883048F082E00E949E0D14
:100B40000E94D40C91E0D82ED92601C0D12CCC2EF5
:100B5000C2948FE0C8228C2D90E0FC01E65CFF4F30
:100B60000C9412248C2F807FCF70882311F0C295B3
:100B7000C07FDD2399F0CC2309F460C180E2800FAF
:100B8000883010F0011104C08C2F0E94FF0C03C0AC
:100B90008C2F0E940F0D0E944E0D50C1802F0E947D
:100BA0001D05CC2309F46FC180E2800F883010F05E
:100BB000011104C08C2F0E94050D03C08C2F0E94D0
:100BC000150D0E944E0D5FC18C2F807FCF7080323B
:100BD00011F0C295C07F002319F00130C9F022C086
:100BE000DD2371F0112341F0113031F40E942F0DFB
:100BF0008C2B0E94370D47C10E942F0D8C2B1DC0DE
:100C0000112319F0113009F43EC10E94440D25C092
:100C1000DD2321F0163008F036C10EC0153008F083
:100C200032C11BC0DD2361F0112331F0F701858152
:100C300080FF04C18F7085838C2F0E94710523C1B2
:100C4000112359F0093309F00AC1FFEF27EE83E0C1
:100C5000F15020408040E1F700C18C2F0E947805C0
:100C600012C18C2F86958695837019F0813061F0C2
:100C70000AC1DD2321F0802F9C2F937002C080E0F9
:100C800090E00E945D1B07C1DD2321F0802F9C2F87
:100C9000937002C080E090E00E94731BFCC0802F24
:100CA000DD2319F00E94BC1302C00E9417140E9499
:100CB0008E14F1C08C2F837079F5D111E8C0402FCC
:100CC000429546954770440F440F202F2F70042EF5
:100CD00001C0220F0A94EAF704FF08C08FE090E0F9
:100CE00001C0880F4A95EAF7809501C080E0C6955B
:100CF000C695C370822BC23049F058F4C13019F048
:100D00000E943308C4C00E942E08C1C00E94380847
:100D1000BEC00E942C08BBC0DD2319F08C2F81704F
:100D200001C08695882309F4B2C0402F42954695AC
:100D30004770440F440F202F2F70042E01C0220F44
:100D40000A94EAF704FF08C08FE090E001C0880F22
:100D50004A95EAF7809501C080E0C695C695C370B4
:100D6000822BC23049F058F4C13019F00E94770844
:100D70008EC00E9472088BC00E947C0888C00E94AE
:100D80003F0885C0CF70DD2339F08C2F0E945008BA
:100D9000802F0E9471057BC0802F0E9478058C2FC8
:100DA0000E945B0874C0023F01F128F4003F41F04B
:100DB000013FA1F03FC0033FF9F0043F39F13AC0D1
:100DC000DD2341F0153008F05EC08C2F8F710E943A
:100DD000670859C0163008F056C0F7CFDD2339F048
:100DE0008C2F8F710E9450084EC0DD23C9F38C2FC9
:100DF0008F710E945B0847C0DD2329F08C2F8F7113
:100E00000E94480840C00E9445083DC0DD2349F0CB
:100E1000CF718C2F0E94500863E08C2F0E94830DAD
:100E200032C081E00E949E0D123068F182E00E9483
:100E30009E0D29C0DD2331F0112391F2802F0E94F5
:100E4000C70421C0112399F2093349F49FEFE7EE5B
:100E5000F3E09150E040F040E1F700C00000802F47
:100E60000E941D0510C04C2F4F70602FC7010E94BB
:100E7000770F0E943A090FC04C2F4F70602FC701A7
:100E80000E947A0F08C088EF8C0D843020F40E94F5
:100E9000381B0E946E04DD20C9F00E94D00C80FD3A
:100EA00015C0F70112820E94CA0C0E945008C701A7
:100EB0000E9487070E94CA0CDF91CF911F910F916A
:100EC000FF90EF90DF90CF900C945B08DF91CF9173
:100ED0001F910F91FF90EF90DF90CF9008950F93A7
:100EE0001F93CF93DF93EC01688179818A810E94FF
:100EF00017098C010E9481080E942008B801CE01C8
:100F00000E947F05DF91CF911F910F910895CF939C
:100F1000DF93EC01988189812B813C81232B31F077
:100F20008F3F31F481E09F3F19F403C081E001C09D
:100F300080E080FD19C0CE010E94330381110CC0F6
:100F40000E94D40C882381F08A81882369F082E092
:100F5000DF91CF910C949E0DCE010E946F07CE01C0
:100F6000DF91CF910C94E902DF91CF91089580E059
:100F700090E00E945D1B80E090E00E94731B0E9445
:100F80001C0D0E942C0D0E944E0D0E94CD150C943C
:100F90008E1480910001909101010E94CF1B0C944E
:100FA000B7070E940C0D0C94C907E92FE295EF706A
:100FB0004E2F50E0FA013297EE30F105B0F4E65BC7
:100FC000FF4F0C941224803F91F018F4883E68F48F
:100FD0000EC0843F51F40BC0883E48F0813F29F495
:100FE00006C093FB882780F9089580E0089581E08A
:100FF0000895FC01808191810E940C090E94D5070F
:101000000895CF93DF9300D000D01F92CDB7DEB705
:101010000F900F900F900F900F90DF91CF91089548
:10102000CF93DF9300D000D000D0CDB7DEB72696A7
:101030000FB6F894DEBF0FBECDBFDF91CF910895FC
:10104000089508950C9421080C9422080E94240805
:101050008093C1010C94B7070C9426089091C101AC
:10106000892B0C9426089091C10189230C942608A1
:101070009091C10189270C9426080C9421080E94A4
:101080003D088093C0010C94B70780E00C943F08A2
:1010900091E001C0990F8A95EAF7892F0C943F08D7
:1010A00021E030E001C0220F8A95EAF78091C0016B
:1010B000822B0C943F0821E030E001C0220F8A957A
:1010C000EAF720958091C00182230C943F0821E02B
:1010D00030E001C0220F8A95EAF78091C001822793
:1010E0000C943F089091C001892B0C943F0890917B
:1010F000C00189230C943F089091C00189270C946A
:101100003F080895282F362F892F6DE00E94E42391
:10111000820F982F9770A1E001C0AA0F9A95EAF765
:1011200086958695869590E063E070E00E94ED23B9
:10113000FC01E555FE4F40E050E0632F70E09081E8
:101140009B01042E02C0369527950A94E2F7217080
:10115000219529272A23292721934F5F5F4F433069
:10116000510569F70895282F892F6DE00E94E42327
:10117000820FA82FA77086958695869590E063E0EC
:1011800070E00E94ED23FC01E555FE4F40E050E089
:1011900080E0219130E00A2E02C0369527950A940E
:1011A000E2F721703327042E01C0220F0A94EAF7D8
:1011B000822B4F5F5F4F4330510559F70895CF920F
:1011C000DF92FF920F931F93CF93DF936C010091F7
:1011D000C0018091C101082BC7E0D0E010E0C80138
:1011E0000C2E02C0959587950A94E2F780FD04C005
:1011F0002197A8F7F12C07C0FC2EB6018C2F0E9476
:10120000A9100197A9F38F2DDF91CF911F910F9115
:10121000FF90DF90CF900895CF93DF93EC010E9471
:10122000DF08BE010E94A910DF91CF9108951F939E
:10123000CF93DF93EB019091AA01992321F0CB0189
:101240000E940C0913C0882349F0CB010E94DF08DB
:10125000182F682FCE010E94820804C0CB010E9483
:10126000B308182FBE01812F0E94A910DF91CF91E2
:101270001F910895EF92FF920F931F93CF93DF93E7
:101280008C01892B09F46CC0F12CEE24E394E80165
:101290002196F8018491843740F4843008F051C0DD
:1012A000813081F0823019F15BC0853709F444C088
:1012B000A8F19CE7980F903708F052C08F770E94F2
:1012C0001D0541C00E5F1F4FFE01849190E2980FF3
:1012D000983050F48770FE2D01C0FF0F8A95EAF711
:1012E0008F2F0E941F0D14C00E94C7042DC00E5FD7
:1012F0001F4FFE01849190E2980F983060F4877040
:10130000FE2D01C0FF0F8A95EAF78F2F0E94250D51
:101310000E944E0D19C00E941D0516C00E5F1F4F82
:10132000FE01C491CC2381F08FE99FE00197F1F792
:1013300000C00000C150F6CF0E5F1F4FFE01F490B9
:1013400003C00E94C7048E018F2D882309F49FCF0C
:10135000EFE9FFE03197F1F700C000008150F5CFD1
:10136000DF91CF911F910F91FF90EF900895CF9350
:10137000DF93C091C2018091C301C817A1F0D0E0F2
:10138000CE0166E070E00E94ED23FC01EC53FE4FBD
:101390004081518162817381848195810E9410080E
:1013A0002196C770E8CFDF91CF9108954091F40165
:1013B0005091F5016091F6017091F7018091F8016B
:1013C0009091F9010C9410081F93CF93DF938091B3
:1013D000F90182958F7009F05CC08091F601882335
:1013E00009F457C02091C2011091C301C091F401CA
:1013F000D091F501A091F701B091F80181E0CF3FC4
:1014000009F080E0482F211709F443C0109721F01C
:10141000DF3F21F080E003C081E001C0842F30E095
:1014200080FD33C0C90166E070E00E94ED23FC013D
:10143000EC53FE4F81818D1328C080818C1325C011
:101440008281811122C0838194818A1B9B0B883CFD
:101450009105D8F48091F9018F7080618093F90132
:10146000C90166E070E00E94ED23FC01E753FE4FE6
:1014700090819F709061908384EF91E00E94870734
:10148000DF91CF911F910C94B7092F5F3F4F2770C9
:10149000BACFDF91CF911F9108959F92AF92BF92E3
:1014A000CF92DF92EF92FF920F931F93CF93DF9330
:1014B000CDB7DEB761970FB6F894DEBF0FBECDBFD4
:1014C0008C0185E0F801DE011D9601900D928A9550
:1014D000E1F7F801E2809091F4013091F50160911B
:1014E000F7017091F8016115710531F03F3F31F45A
:1014F00081E09F3F19F403C081E001C080E0F82F34
:10150000F1709F2E80FD43C1F80140812181A380AD
:10151000B48084EFC82E81E0D82EF090F601F5015A
:10152000E61BF70BFF2009F4DCC08091F901582F6E
:10153000507FE83CF10508F096C0511155C02313C7
:1015400013C0491311C0FE2CE1100EC08F708061D2
:101550008093F9010E94D609C6010E9487078091F5
:10156000F901F801858350C1AB2831F02F3F31F4E8
:1015700081E04F3F19F403C081E001C080E080FDAD
:1015800003C081E08E2502C080E090E0F82FF1706A
:10159000FF2E80FF1FC0E091C2013091C301E3170D
:1015A00009F410C1F0E0CF0166E070E00E94ED2385
:1015B000DC01AC53BE4F11968C911197281307C0D4
:1015C0008C91481304C012968C91E81203C0319696
:1015D000E770E5CFFE2CEE2009F416C18091F901E9
:1015E00081608093F90154C0231306C0491304C0DD
:1015F000E11002C0F80199C0C8010E94F9078823D0
:1016000061F1EE2051F12091F901822F82958F70C6
:1016100090E0029774F08091F4019091F501988721
:101620008F831986BB86AA862C87CE0107960E94D7
:10163000870786E0F801A4EFB1E001900D928A954A
:10164000E1F70E94E4090E94D6090AC0231711F1AC
:10165000C8010E94F90781112CC0C8010E948707A8
:10166000FF24F394D1C05111F1CF7A2DB98AA88A01
:10167000522F6E2D89890E94010884EF91E00E940B
:10168000870786E0F60111928A95E9F70E94D6094C
:10169000F12CBAC04913DCCFE110DACFF801858311
:1016A000C8010E94870786E0F60111928A95E9F742
:1016B000ABC0EE2091F22091F901822F82958F70BC
:1016C00090E002970CF4B5CF8091F4019091F50170
:1016D0009A8389831B82BD82AC822E83CE010196C0
:1016E000A6CFE83CF10508F044C0FE2CEE2009F43A
:1016F000B4CF231330C049132EC02091F90120FD2F
:1017000021C0822F82958F70482F50E041155105DE
:10171000C9F0F80125834F30510541F08F5F982FB4
:101720009295907F822F8F70892B8583C8010E94AC
:10173000870786E0F801A4EFB1E001900D928A9549
:10174000E1F73DC086E0F801A4EFB1E001900D9211
:101750008A95E1F759C0C8010E94F907811169CF44
:101760008091F90181608093F901C8010E94870787
:101770004BC07A2DB98AA88A522F6E2D89890E9472
:10178000010886E0F60111928A95E9F718C0EE206B
:1017900009F463CFC8010E94F907F82E882309F4E1
:1017A0005CCF86E0F801A4EFB1E001900D928A953C
:1017B000E1F784EF91E00E94C1040E94E4090E94D5
:1017C000D60922C04D872E878D859E850E940C09E3
:1017D000292F22952F70223028F49F7039F0811123
:1017E00005C00BC0243028F49F7049F4805E883017
:1017F00020F0C8010E9487079F2CF92C05C0F80132
:101800009581907F99F7F9CF8F2D61960FB6F89457
:10181000DEBF0FBECDBFDF91CF911F910F91FF9023
:10182000EF90DF90CF90BF90AF909F900895CF93AF
:10183000DF93CDB7DEB72C970FB6F894DEBF0FBE9F
:10184000CDBF4F83588769877A878B879C87CE0166
:1018500007960E944D0A8823D1F09F8188852A85AA
:101860003B85232B31F08F3F31F481E09F3F19F40A
:1018700003C081E001C080E080FD6FC04F815885CA
:1018800069857A858B859C850E94100866C086E0F4
:10189000FE013796DE01119601900D928A95E1F7CF
:1018A000FF81E8856A857B856115710531F0EF3F21
:1018B00031F481E0FF3F19F403C081E001C080E012
:1018C00080FD4BC08091C30190E09C012F5F3F4F92
:1018D000277033274091C20150E02417350709F4DF
:1018E00043C0F983EA837D836C8366E070E00E94E5
:1018F000ED23DC01AC53BE4F96E0FE013196019022
:101900000D929A95E1F72093C3010E94B70925C073
:1019100090E066E070E00E94ED238C539E4F0E94A1
:101920004D0A882371F18091C20190E066E070E079
:101930000E94ED23FC01EC53FE4F408151816281F6
:101940007381848195810E9410088091C20190E08A
:101950000196877099278093C2018091C20190916E
:10196000C3018913D5CF0DC00E94D1071092C301C6
:101970001092C201E4EFF1E086E0DF011D928A954A
:10198000E9F72C960FB6F894DEBF0FBECDBFDF91FE
:10199000CF9108958091FA01859585958595089553
:1019A0008091FA01877008959091FA01977081E013
:1019B00009F480E008959091490292FB222720F9D2
:1019C000281751F080FB92F99093490280914802C8
:1019D000909149020C94E50D08958091490282FB93
:1019E000882780F991E089270C94DB0C81E00C9426
:1019F000DB0C80E00C94DB0C809106020895909142
:101A00000602892B80930602089580959091060224
:101A100089238093060208951092060208959091FA
:101A20000502892B80930502089580959091050207
:101A300089238093050208951092050208959091DC
:101A40000402892B809304020895809590910402EA
:101A500089238093040208951092040208958091CE
:101A6000FB01089508950C94320D0C94330D909160
:101A7000490292FD08C09091FB01981721F08093D4
:101A8000FB010C94350D08958091FB01882329F00A
:101A90001092FB0180E00C94350D0895E091000157
:101AA000F0910101809106028083E0910001F091A4
:101AB0000101908180910502892B8083E0910001D2
:101AC000F0910101908180910402892B80838091A3
:101AD000FB01882381F0E0910001F09101019081E8
:101AE000892B808380910001909101010E94891BC4
:101AF00081110E94440D80910001909101010C948C
:101B0000441B0C94320D9091490292FD10C0982F05
:101B1000990F990F990F692B6093FA010E94500851
:101B20008091FA018595859585950C94810D0C948D
:101B300050081092FA0180E00C94810D2091FA0176
:101B4000809582238093FA01982F977041F430E0BA
:101B5000482F082E000C550B2417350721F49091BF
:101B6000490292FF07C08595859585950E945B087F
:101B70000C94990D08956FEF7FEF80E090E00C9446
:101B80006C2480E090E00E944824893E9E4F11F42E
:101B90000C943D1680E0089582E090E00C9440247F
:101BA00083E090E00C944024CF9384E090E00E9486
:101BB0004024C82F82E290E00E9440242C2F30E085
:101BC000A901582BCA01CF910895CF93C92F682F2F
:101BD00084E090E00E944E246C2F82E290E0CF914E
:101BE0000C944E24AB01BC018FE090E00C94602477
:101BF000AB01BC0183E190E00C94602460E070E0F4
:101C0000CB010C94F80D60E070E0CB010E94F20D66
:101C10000C94FE0D69EE7EEF80E090E00E946C2453
:101C200060E082E090E00E944E2460E083E090E07B
:101C30000E944E241092C10160E084E090E00E9476
:101C40004E2460E082E290E00E944E2460E085E055
:101C500090E00E944E2460E086E090E00E944E24D6
:101C60006FEF87E090E00E944E2440E050E0BA0120
:101C700088E090E00E94602460E08DE090E00E94A7
:101C80004E2440E050E0BA0188E190E00E946024D8
:101C900060E087E190E00E944E2440E050E0BA010D
:101CA0008CE190E00E94602460E070E080E290E0CF
:101CB0000E946C2440E050E0BA0188E190E00E946C
:101CC000602480E00E9456160E9482160C94030E37
:101CD0000C940A0E682F8EE090E00C944E240E9423
:101CE0006B1C609318027093190280931A029093F0
:101CF0001B02609314027093150280931602909356
:101D0000170208950E946B1C6093180270931902C9
:101D100080931A0290931B02609310027093110239
:101D20008093120290931302089581E008950C9419
:101D3000950E08950C94990E0C94990E0C949C0E8B
:101D40000C94990E0C94A00E0C94990E85E891E1D8
:101D50000E94D01C0E94A40E0C94A20E0E949A0E07
:101D60000C94990E0E94561C0E9491160E94831298
:101D70000E94DF150C949E0E6F927F928F929F921D
:101D8000AF92BF92CF92DF92EF92FF920F931F9389
:101D9000CF93DF93CDB7DEB72A970FB6F894DEBFA7
:101DA0000FBECDBF0E94A51281110E946F0E38E0B8
:101DB000832E32E0932E00E010E0C02E802F0E9490
:101DC000B9115C01F401619071904F016826792688
:101DD00061147104B1F40F5F1F4F0430110569F7EE
:101DE0008FEF89838A831B820E945F1C8160782F1A
:101DF0009D838C8349815A816B818D810E947704F8
:101E00003AC080911C0281FD0E94C211D12CEE24A7
:101E1000E394F12CC3018E219F21892B29F10E948B
:101E2000970E8823A9F0DE82CF82AE20BF2081E00A
:101E3000AB2809F480E088870E945F1C8160782FBE
:101E40009A8789874E815F8168858A850E94770499
:101E5000000F111FF801E85FFD4F80819181E82696
:101E6000F926F182E08207C0D394EE0CFF1CFDE05E
:101E7000DF12D0CFB0CF0E94F01581110E94820EE8
:101E80000E94AC140E94381B909107028917D1F070
:101E90000E94381B809307022A960FB6F894DEBF83
:101EA0000FBECDBFDF91CF911F910F91FF90EF90AB
:101EB000DF90CF90BF90AF909F908F907F906F906A
:101EC0000C946E042A960FB6F894DEBF0FBECDBFF9
:101ED000DF91CF911F910F91FF90EF90DF90CF9006
:101EE000BF90AF909F908F907F906F90089580E00B
:101EF00090E008950895880F991FFC01E65CFC4F5F
:101F0000859194910895CF93DF930E94AE10EC01D8
:101F1000811520E5920708F03FC0811540E4940741
:101F200008F0D9C0883E910500F5803E910508F083
:101F30000CC1883A910570F4853A910508F0ADC05E
:101F40008130910509F4A6C008F4FCC0049708F09C
:101F5000FCC0F8C08F3B910508F4A8C0803C9105F7
:101F600008F4F0C0805C9109ACC0811550E295077F
:101F700060F4C11581E0D80708F0E7C0C03FD10583
:101F800008F4E0C0CE019065E1C0811520E392071E
:101F900008F09AC09F7095C0811545E5940708F038
:101FA0004DC0811554E5950708F0AFC0C11582E515
:101FB000D80740F5C11521E5D20708F08FC0CE0142
:101FC000B4E096958795BA95E1F7282F23703C2FBA
:101FD000337081E090E002C0880F991F3A95E2F7D4
:101FE0009C68AC01522B8C2F8F70282F269526953C
:101FF000822F90E0C5E0880F991FCA95E1F7842BE6
:10200000952BA4C0AE01437055279C2F96959695AD
:10201000C115D34508F067C021E030E002C0220FAF
:10202000331F4A95E2F7892F90E0F5E0880F991F5A
:10203000FA95E1F7822B932B9C6888C0811529E5DE
:10204000920790F4811548E5940708F063C0811564
:1020500056E5950708F076C00E9442118F7190E016
:10206000982F8827906272C0C1158AE5D80708F4B6
:1020700056C0CE0190568115904208F063C08D2F56
:102080008F710E9442119E01332730628F71A90126
:10209000582B56C081E090E059C0855AC82FD0E037
:1020A000CC58DE4F888190E0906450C0885AC82F89
:1020B000D0E0CC0FDD1FCA5BDE4F8881998194642C
:1020C00045C00E947B0F42C09927D3FF02C0986C85
:1020D0003DC0906C3BC09F70906A38C09C2F882791
:1020E000816F906A33C021E030E002C0220F331FBD
:1020F0004A95E2F7892F90E0E5E0880F991FEA956D
:10210000E1F7822B932B9A6821C0982F8827846F40
:10211000906A1CC0982F8827806F906A17C08C2FF8
:102120008F700E9442119E0194E0369527959A95F2
:10213000E1F72F7030E0322F22273069A901482BB8
:10214000CA0104C080E090E001C0CE01DF91CF91D0
:1021500008950E9449180E94830F089582389105BE
:1021600069F1B0F48133910509F46DC048F4893206
:10217000910509F463C08A32910509F469C0089594
:102180008533910509F455C089339105B9F0089557
:10219000833E910569F138F4803E9105B1F0823EAD
:1021A000910509F10895863E9105A9F1873E9105B3
:1021B000B9F1843E910509F064C023C02091480222
:1021C00020FD4FC021FD4DC008958091480280FD43
:1021D00044C08091490280FF44C08091480284FD40
:1021E00042C083EE4DC08091480282FF38C0F5CFD7
:1021F0008091480282FD33C08091490280FD31C048
:10220000ECCF8091490281FF32C08091480284FD69
:102210002AC087EE35C08091480283FF26C0F5CFE3
:102220008091480283FD21C08091490281FD1FC039
:10223000ECCF8091480285FD1CC01DC080914802F2
:1022400085FD19C016C08091480286FD16C017C0D2
:102250008091480286FD13C010C089E311C082EE50
:102260000FC080EE0DC080E00BC086EE09C084EE8A
:1022700007C089E205C085E303C08AE201C081E3AB
:1022800090E008959091480292FF0DC0282F287188
:10229000283019F4877F846006C0282F24712430E9
:1022A00011F48B7F886093FF0DC0282F287128318F
:1022B00019F4877E846106C0282F2471243111F41B
:1022C0008B7E88612091490220FF0DC0382F387124
:1022D000383019F4877F816006C0382F3171313072
:1022E00011F48E7F886021FF0DC0282F28712831BE
:1022F00019F4877E816106C0282F2171213111F4E4
:102300008E7E886194FD877E089580E008950C9408
:10231000BB0D0E94A5128FE39CE90197F1F700C065
:1023200000000E94A51280E00E94B91180FF04C045
:102330000E9487110C94AC1C08950C9489110E9482
:10234000C10D811102C00E94680E0E94CC0D8093C5
:102350001C020E94D40D90934902809348020E946F
:102360009D110E94D00D0E942C088091C0010C94F8
:102370003D08E82FF0E0EE0FFF1FEE5AFD4F808181
:1023800091810895089580EA8A95F1F7089500C033
:1023900008950C94C31108950C94CB110C94CC1196
:1023A0000C94CB110C94D011F894E82FE295EF70B7
:1023B000F0E031A1282F2F7081E090E001C0880F5C
:1023C0002A95EAF7982F9095932391A392A1892BB0
:1023D00082A3789408950F931F93CF93DF93C4E85B
:1023E000D1E089918F3F11F00E94D41181E0C8386B
:1023F000D807B9F7C7E7D1E004E811E089918F3F2A
:1024000011F00E94D4110C171D07C1F7DF91CF9175
:102410001F910F910895AF92BF92CF92DF92EF92EA
:10242000FF920F931F93CF93DF938C01C62FD0E0C1
:10243000CE018C579E4F6C01DC019C919F3F09F4AB
:1024400057C0B62EF894E92FE295EF70F0E081A125
:102450009F7021E030E001C0220F9A95EAF7822BAD
:1024600081A382A12095282322A378940E94C711DA
:10247000E7E7F1E020E030E0E12CF12C41E050E032
:1024800081918F3FC1F0A82FA295AF70B0E09096D8
:102490006C9170E08F70DB0102C0B595A7958A95AD
:1024A000E2F7A0FD08C0CA01022E02C0880F991FE2
:1024B0000A94E2F702C080E090E0E82AF92A2F5F50
:1024C0003F4F2D303105E1F6F60180818F3F11F04D
:1024D0000E94D41161E0E114F10409F460E08B2D55
:1024E0000E94C911CC0FDD1FC00FD11FF982E882F5
:1024F000DF91CF911F910F91FF90EF90DF90CF90E0
:10250000BF90AF9008950E94EB11AAE4B2E011963B
:102510001C921E92E2E5F2E01182108213961C9248
:102520001E9212971382128215961C921E92149775
:102530001582148217961C921E9216971782168285
:1025400084E00E94F0120C941B03FF920F931F93E0
:10255000CF93DF93CDB7DEB728970FB6F894DEBFE1
:102560000FBECDBF8E010F5F1F4F88E0F8011192A3
:102570008A95E9F7F12C6F2DC8010E940B12F39494
:10258000F4E0FF12F8CF48E050E0B8018AE492E0AE
:102590000E943324FF24F394009709F4F12C892B33
:1025A00041F088E0F801AAE4B2E001900D928A952A
:1025B000E1F72F2D44E062E572E08AE492E00E94A8
:1025C000F1120E9421038F2D28960FB6F894DEBFDA
:1025D0000FBECDBFDF91CF911F910F91FF90089556
:1025E0000895FF920F931F93CF93DF93F82E092F37
:1025F000162FD72FC42F222349F081E080931F028A
:102600000E945F1C90931E0280931D0280911F0206
:102610008823D9F080911D0290911E020E94771CA0
:10262000059798F0EF2DF02FA12FBD2F80E090E0BF
:102630004C2F50E08417950734F4219131912D935C
:102640003D930196F7CF10921F02DF91CF911F911A
:102650000F91FF9008950E94D61B0E944F1E0E946A
:10266000681E0E947A1E0E94AE0EFBCF8091260249
:1026700080FF0CC08091070190E065E070E00E944F
:10268000ED2395958795959587952EC081FF0AC076
:102690008091070190E065E070E00E94ED23959540
:1026A000879522C082FF08C08091070190E065E015
:1026B00070E00E94ED2318C0209125022223D9F05A
:1026C00030910601231780F78091070190E065E0C3
:1026D00070E00E94ED23622F70E00E94ED23632FD3
:1026E00070E00E94FE23CB018038910538F40097FA
:1026F00039F481E005C085E090E008958FE7089502
:1027000008958091260280FF08C06091030170E067
:10271000759567957595679523C081FF06C0609193
:10272000030170E0759567951BC082FF04C060913E
:10273000030170E012C0609124026623A9F0209189
:1027400002016217A0F78091030170E090E00E94FF
:10275000ED23622F70E00E94FE236038710540F483
:102760006115710519F406C061E070E0862F0895C7
:102770008FE7089581E00895803F21F40E94361389
:10278000819504C0813F29F40E94361380932A0268
:102790000895823F21F40E943613819504C0833F3F
:1027A00029F40E943613809329020895893F19F471
:1027B0000E94811305C08A3F31F40E9481138195E4
:1027C00080932B0208958B3F21F40E948113819501
:1027D00004C08C3F29F40E94811380932C02089539
:1027E0009CE0980F953078F421E030E0A90102C018
:1027F000440F551F9A95E2F7CA0190912802892B40
:102800008093280208958D3F21F4809126028160F3
:102810000BC08E3F21F480912602826005C08F3F5D
:1028200029F4809126028460809326020895803FD7
:1028300039F490912A0297FF35C010922A0259C0AC
:10284000813F29F490912A021916BCF32BC0909174
:102850002902823F29F497FF25C01092290249C01E
:10286000833F19F41916CCF31DC090912B02893FB8
:1028700029F41916BCF410922B023BC08A3F19F4BC
:1028800097FF10C0F8CF8B3F39F490912C0297FF3F
:1028900009C010922C022DC08C3F21F490912C0283
:1028A0001916BCF39CE0980F953080F421E030E0DD
:1028B000A90102C0440F551F9A95E2F7CA018095FD
:1028C0009091280289238093280213C08D3F21F420
:1028D000809126028E7F0BC08E3F21F480912602CC
:1028E0008D7F05C08F3F29F4809126028B7F8093D6
:1028F000260280912902811106C080912A0281114D
:1029000002C01092250280912B02811106C0809195
:102910002C02811102C01092240208950E945F1CB3
:1029200020912902211104C020912A02222321F0A2
:10293000909323028093220220912B02211104C044
:1029400020912C02222321F09093210280932002D7
:1029500087E292E00C944F1BEF92FF920F931F932C
:10296000CF93DF9300D000D000D0CDB7DEB786E0A4
:10297000E7E2F2E0DE01119601900D928A95E1F70F
:10298000E0902902F0902A0200912B0210912C0273
:102990001092290210922A0210922B0210922C02FD
:1029A000E11003C0FF2009F464C0809122029091DD
:1029B00023020E94771CFC0120912502222339F07A
:1029C0008091080190E08E179F0760F052C08091BF
:1029D000090190E06AE070E00E94ED238E179F07E6
:1029E00018F047C02F3F19F02F5F20932502EE20EB
:1029F00061F00E943613682F1E1414F08FEF01C08F
:102A000081E00E94E42380932902FF2061F00E946C
:102A10003613682F1F1414F08FEF01C081E00E945D
:102A2000E42380932A0280912902882311F12091C6
:102A30002A022223F1F0082E000C990B65EB70E0BE
:102A40000E94ED23992319F09093290203C081E09D
:102A500080932902822F220F990B65EB70E00E9470
:102A6000ED23992319F090932A0203C081E080930B
:102A70002A02011103C0112309F464C080912002CD
:102A8000909121020E94771CFC01209124022223B4
:102A900039F08091040190E08E179F0760F052C0DA
:102AA0008091050190E06AE070E00E94ED238E17AE
:102AB0009F0718F047C02F3F19F02F5F2093240283
:102AC000002361F00E948113682F101614F08FEF1D
:102AD00001C081E00E94E42380932B02112361F066
:102AE0000E948113682F111614F08FEF01C081E04E
:102AF0000E94E42380932C0280912B02882311F101
:102B000020912C022223F1F0082E000C990B65EB8A
:102B100070E00E94ED23992319F090932B0203C0DB
:102B200081E080932B02822F220F990B65EB70E0DE
:102B30000E94ED23992319F090932C0203C081E0A9
:102B400080932C028091290281110BC080912A026E
:102B5000811107C080912B02811103C080912C024A
:102B600081110E948E14EB82FC820D831E8386E00D
:102B7000FE013196A7E2B2E001900D928A95E1F74D
:102B800026960FB6F894DEBF0FBECDBFDF91CF9172
:102B90001F910F91FF90EF900895E7E2F2E086E039
:102BA000DF011D928A95E9F7109225021092240206
:102BB00010922602089581E008950C94DB15239865
:102BC0002B9A24982C9A83B183FB882780F91C992F
:102BD00002C090E001C092E0892B80932F020895FB
:102BE000E0912F02EE0FEE0FE0932F0243B143FB73
:102BF000882780F990E043B144FB222720F930E098
:102C000044FF02C022E030E0822B932B8E2B809376
:102C10002F028F70E82FF0E0E857FE4F90818091EF
:102C20002E02890F80932E0284305CF080912D0259
:102C30008F5F80932D0260E080E00E94DD1521E02F
:102C400001C020E080912E028D3F54F480912D022E
:102C5000815080932D0261E080E00E94DD1521E02B
:102C600080912E02082E000C990B64E070E00E9407
:102C7000FE2380932E02822F089583E290E00E942B
:102C80004024813281F484E290E00E94402481312A
:102C900051F485E290E00E94402491E0863209F0F0
:102CA00090E0892F01C080E081700895CF93C82FF4
:102CB000811102C06FEF01C061E283E290E00E94E7
:102CC0004E24C11102C06FEF01C061E184E290E0C7
:102CD0000E944E24C11102C06FEF01C066E285E27E
:102CE00090E0CF910C944E24089586E290E00E94EB
:102CF0004024682F70E080E090E0089586E290E044
:102D00000C944E2480E00E94561660E070E0CB01E7
:102D10000E947E160E94CB170E94A31881E00C949B
:102D200056160E9474160E943D16811102C00C9422
:102D300082160895CF93FB01C281CC23E9F09C0158
:102D400022513F452031310520F482510E94B318B1
:102D50000CC08031FFE59F0751F481E00E945008CC
:102D600043E062E081E00E941203C0E018C08131BC
:102D70009F45A9F482E0F2CF8031EFE59E0711F480
:102D800081E004C081319F4549F482E00E945B08E4
:102D900043E062E081E00E94120301C0C1E08C2F99
:102DA000CF9108952FEFFC0120830895EF92FF92B9
:102DB0000F931F93CF93DF93EC01062FE8818E2FA3
:102DC00090E0FC013197E331F10508F091C0E85A39
:102DD000FF4F0C941224198289E04DC08981823002
:102DE00039F0833061F0813029F50E946B1C02C0FC
:102DF0000E9475169A838B837C836D837BC07E01D2
:102E000010E0812F0E94B911F701928383831F5F25
:102E1000F2E0EF0EF11C1430A1F76CC08981823012
:102E200049F46A817B818C819D810E9418240E94D3
:102E30007E1660C0602FCE010E94D2165BC04B810F
:102E40006A8189810E949D179C838D8353C02C8148
:102E50003D813227232732274B816A8189810E9455
:102E6000B61748C00E94CB1745C00E94561824C010
:102E70000E94581899838A833DC06B8170E08981D4
:102E80009A81AE014C5F5F4F9827892798270E944F
:102E90005B1830C06B8170E089819A81AE014C5F14
:102EA0005F4F9827892798270E94801823C00E9487
:102EB000A31820C00E94841789831CC06B8170E016
:102EC00089819A81AE014C5F5F4F982789279827A7
:102ED0000E9403180FC06B8170E089819A81AE0156
:102EE0004C5F5F4F9827892798270E94271802C0B8
:102EF0008FEF8883602FCE01DF91CF911F910F91CB
:102F0000FF90EF900C94551D84E00895E82F862FD4
:102F100090E06AE170E00E94ED23242F30E0220F60
:102F2000331F280F391F8E2F90E068E670E00E9453
:102F3000ED23820F931F879608950F931F93CF93CE
:102F4000DF930E9486178C010E944024C82FD0E096
:102F5000DC2FCC27C80101960E9440249E01282B1B
:102F6000C901DF91CF911F910F9108950F931F9386
:102F7000CF93DF93122F032F0E948617EC01602F4F
:102F80000E944E24612FCE010196DF91CF911F91B7
:102F90000F910C944E24DF92EF92FF920F931F93A8
:102FA000CF93DF93C0E0D0E0CE0168E670E00E94EE
:102FB000ED237C01D12C00E010E0F801EE0FFF1FA3
:102FC000EE0DFF1DE651FF4F25913491402F6D2DE1
:102FD0008C2F0E94B6170F5F1F4F0D30110569F738
:102FE0008AE1E80EF11CD39484E0D812E4CF219654
:102FF000C430D105C9F6DF91CF911F910F91FF9099
:10300000EF90DF900895EF92FF920F931F93CF936D
:10301000DF93EA017A01E60EF71E8C01C80187965C
:10302000CE15DF0569F0003A21E0120720F40E9476
:103030004024888301C0188221960F5F1F4FEECF76
:10304000DF91CF911F910F91FF90EF900895EF9234
:10305000FF920F931F93CF93DF93EA017A01E60E5D
:10306000F71E8C01C8018796CE15DF0559F0003A8E
:1030700021E0120718F468810E944E2421960F5F08
:103080001F4FF0CFDF91CF911F910F91FF90EF90E5
:103090000895462F843038F4743028F46D3018F4D5
:1030A000672F0C949D1780E090E0089580E10895CB
:1030B00089E392E00895EF92FF920F931F93CF93CD
:1030C000DF93EA017A01E60EF71E8C01C8018953ED
:1030D0009E4FCE15DF0569F0093322E0120720F478
:1030E0000E944024888301C0188221960F5F1F4FE1
:1030F000EDCFDF91CF911F910F91FF90EF90089549
:10310000EF92FF920F931F93CF93DF93EA017A011F
:10311000E60EF71E8C01C80189539E4FCE15DF05C0
:1031200059F0093322E0120718F468810E944E24F6
:1031300021960F5F1F4FEFCFDF91CF911F910F911E
:10314000FF90EF900895CF93DF93C7ECD1E060E05C
:10315000CE010E944E242196C11584E0D807B9F70C
:10316000DF91CF910895DF92EF92FF920F931F931B
:10317000CF93DF9300D000D0CDB7DEB7F82E8FE02D
:103180008F15E8F18FEF93E00E944024811137C042
:1031900007EC11E0FF2069F0011584E0180779F1D0
:1031A000C8010E944024811101C0FA940F5F1F4F93
:1031B000F1CF19821A821B821C82DD24D3947801FC
:1031C0008FEFE81AF80AC8010E94402489831A8206
:1031D0008823A9F09FEF980F933058F48A83D982FF
:1031E0000E5F1F4FC7010E9440248B83882339F054
:1031F0007801CE0101960E9456048701E0CF0F901E
:103200000F900F900F90DF91CF911F910F91FF9032
:10321000EF90DF9008950F931F93CF93DF93C42F08
:10322000D22FFC0182818823C9F0409332020E9490
:103230005F1C909331028093300280E28C0F8830C3
:1032400008F057C0C77081E001C0880FCA95EAF73F
:10325000DF91CF911F910F910C94710580913202F3
:10326000481330C080913002909131020E94771C47
:10327000883C910538F510E21D0FCD17B9F080E2BA
:103280008C0F883040F4C77081E001C0880FCA9568
:10329000EAF70E947805183028F581E09D2F977095
:1032A00001C0880F9A95EAF70E947105802F0E944D
:1032B00068051830F0F4D77081E001C0880FDA9506
:1032C000EAF70AC080E28C0F883098F4C77081E07A
:1032D00001C0880FCA95EAF7DF91CF911F910F9136
:1032E0000C947805802FDF91CF911F910F910C9452
:1032F0006805DF91CF911F910F9108950F939C0165
:10330000CB01233F4CE5340731F188F4283DFCE53F
:103310003F07D9F0293D4CE5340779F1273D3C457D
:10332000A9F506E221EE41EE67ED7CE52BC0253FD5
:10333000FCE53F07E1F0A8F0263F3C4539F507E200
:1033400025EE46EE66EF7CE51DC007E225EE45EE74
:1033500068ED7CE517C006E221EE40EE63EF7CE508
:1033600011C007E225EE44EE64EF7CE50BC006E2F7
:1033700021EE42EE65EF7CE505C008E221E045EE76
:1033800069ED7CE50E940B1980E008C0FC01828198
:10339000882319F01092320201C081E00F91089544
:1033A000CF93DF93EC01FB018281882309F426C1CE
:1033B000C330FDE5DF0760F4CA3F9CE5D90768F438
:1033C0009E0122503C452431310508F018C105C04A
:1033D000C136EDE5DE0709F012C10E94D40D9093CD
:1033E000490280934802C031FCE5DF0709F4CAC0F6
:1033F00008F041C0C8309CE5D90709F4A4C0F0F436
:10340000C430FCE5DF0709F48CC068F4C2309CE5E9
:10341000D90709F482C0C330DC4509F0E5C08091CA
:1034200048028260DFC0C630FCE5DF0709F483C0D4
:1034300008F085C0809148028860D4C0CC309CE5FB
:10344000D90709F490C068F4CA30FCE5DF0709F435
:103450007EC008F084C00E94D10780914802806835
:10346000C1C0CE309CE5D90709F481C008F086C000
:103470008091480294C0CC3FFCE5DF0709F47BC093
:1034800038F5C4319CE5D90709F49AC058F4C23123
:10349000FCE5DF0709F47AC008F07EC0809148029D
:1034A0008F7BA0C0CA3F9CE5D907F1F108F03FC06F
:1034B000C531DC4509F098C08091480282FB222783
:1034C00020F991E0922790FB82F990FB83F98AC062
:1034D000C1158DE5D80709F467C050F48091490201
:1034E000CE3FECE5DE07C1F108F05BC08D7F65C023
:1034F000C2308DE5D80709F471C008F46DC0C1363B
:10350000DD4509F071C08091480284FB222720F933
:1035100091E0922790FB84F965C080914802816018
:1035200061C08091480216C08091490216C0809106
:103530004902826042C080914802806153C08091FC
:10354000480280624FC08091480280644BC08091E5
:1035500048028860846046C0826081602EC080918D
:1035600048028E7F3FC0809148028D7F3BC0809192
:103570004802877F37C08091490214C08091480279
:103580008F7E30C0809148028F7D2CC00E94D10771
:10359000809148028F7726C080914802877F8B7F79
:1035A00021C08D7F8E7F09C080914902982F909510
:1035B00091708E7F892B90FB81F98093490214C012
:1035C0000E94D1078091480287FB222720F991E0D1
:1035D000922790FB87F906C081E001C080E00E943D
:1035E0006A0E02C08093480280914802909149027D
:1035F0000E94E50D0E94D10780E001C081E0DF91CB
:10360000CF910895CF93DF9386319C4541F5EB012F
:103610000E94FC0C982F8A812091000130910101B9
:10362000882379F09A7A81E009F480E0809333026C
:10363000911102C069E201C065E3C9010E94CB1B80
:103640000AC080913302811102C069E201C065E3C2
:10365000C9010E94CD1B0E944E0D80E001C081E097
:10366000DF91CF91089590933902809338020895A5
:10367000E0913802F0913902309721F00190F08109
:10368000E02D099480E00895E0913802F09139022C
:10369000309721F00280F381E02D09940895E091A4
:1036A0003802F0913902309739F022E0DC012C9396
:1036B0000480F581E02D099408952091360230911F
:1036C00037022817390771F090933702809336023A
:1036D000E0913802F0913902309721F00680F781AD
:1036E000E02D099408952091340230913502281775
:1036F000390771F09093350280933402E0913802DB
:10370000F0913902309721F00084F185E02D099481
:103710000895FC01329697E080E0915029F02191C4
:103720002223D9F38F5FF9CF0895662349F0FC0176
:10373000329608962191621729F0E817F907D1F718
:1037400080E0089581E008959C01FC0132969FEF8E
:1037500080E04191461789F09F3F19F4411101C063
:10376000982F8F5F8630A9F79F3F39F0F901E90F55
:10377000F11D97FDFA956283089508959C012A5FD3
:103780003F4FFC014281461301C01282019682170D
:103790009307B9F708950C94A41B0C94BE1B0296D2
:1037A00026E0FC0111922A95E9F7089508950895FD
:1037B0000C94D71B0C94D71BCF930E94DA1B0E944A
:1037C000A5120E94D81BC0E08C2F0E94B911892B32
:1037D00029F4CF5FC430C1F780E001C081E0CF9110
:1037E00008950C94D71B0C94F11B809162028430D5
:1037F00049F10E94F31B80E00E946E0410923A028D
:1038000020E488E190E00FB6F894A89580936000DA
:103810000FBE2093600083B7817F846083BF83B72E
:10382000816083BF7894889583B78E7F83BF0FB6FE
:10383000F894A89580916000886180936000109250
:1038400060000FBE08950C94D71B0E94D1070E9400
:10385000381B0E946E040C94231C1F920F920FB60B
:103860000F9211248F939F93AF93BF9380913A024D
:10387000811113C080915A0290915B02A0915C0269
:10388000B0915D024196A11DB11D80935A029093A3
:103890005B02A0935C02B0935D02BF91AF919F91D8
:1038A0008F910F900FBE0F901F90189582E084BDEE
:1038B00093E095BD9AEF97BD80936E0008952FB762
:1038C000F89480915A0290915B02A0915C02B091B1
:1038D0005D022FBF08952FB7F89460915A0270913E
:1038E0005B0280915C0290915D022FBF08959C0164
:1038F0004FB7F89480915A0290915B02A0915C02BC
:10390000B0915D024FBF821B930B089578941F9274
:103910000F920FB60F9211248F939F93AF93BF9383
:1039200080915A0290915B02A0915C02B0915D027D
:103930000196A11DB11D80935A0290935B02A09342
:103940005C02B0935D02BF91AF919F918F910F90F8
:103950000FBE0F901F90189581E08093E00080E2E9
:103960008093D8001092C9008FE19EE40197F1F78F
:1039700000C0000087E090EBDC0180936B02909325
:103980006C02A0936D02B0936E029CE088E10FB6CA
:10399000F894A895809360000FBE90936000FFCFCD
:1039A0009093A9018093A8010895809146020895FB
:1039B00090916202943029F580933B0270933D020E
:1039C00060933C029093E9008FEF9091E800815062
:1039D00095FD06C095ED9A95F1F700008111F5CFA0
:1039E0008091E80085FF0DC040E050E063E070E0AA
:1039F0008BE392E00E943C1F8091E8008E778093D9
:103A0000E8000895BC0184E00C94D81CBC0183E05C
:103A10000C94D81C24E02093E9002FEF3091E800AB
:103A2000215035FD06C035ED3A95F1F70000211122
:103A3000F5CF2091E80025FF0BC040E050E066E0A4
:103A400070E00E943C1F8091E8008E778093E80030
:103A50000895CF93DF9321E02093E9002FEF309179
:103A6000E800215035FD06C035ED3A95F1F700002C
:103A70002111F5CF2091E80025FF14C0EC0140E0B2
:103A800050E068E070E00E943C1F8091E8008E7773
:103A90008093E80088E0FE01AEE3B2E001900D9271
:103AA0008A95E1F7DF91CF910895CF93603219F5B0
:103AB000209162022430F9F4C091E900CF70309176
:103AC000EC00232F217030FD20E8C22B22E0209350
:103AD000E9002091E80020FF0BC040E050E060E2E8
:103AE00070E00E943C1F8091E8008E778093E80090
:103AF000CF70C093E900CF91089508950895089577
:103B000042E061EC81E00E948B2042E261EC84E0C3
:103B10000E948B2042E261EC82E00E948B2042E214
:103B200060EC83E00C948B2080916402833009F474
:103B30005EC030F4813071F0823009F497C008958E
:103B40008A3009F483C08B3009F469C0893009F0E8
:103B5000A5C020C080916302813A09F09FC0809186
:103B6000E800877F8093E800809167029091680267
:103B7000892B21F468E08EE392E003C060E080E0EE
:103B800090E070E00E94D21F8091E8008B778093D4
:103B9000E800089580916302813209F07FC080912E
:103BA000670290916802009719F0029709F076C0B9
:103BB0008091E800877F8093E8008091E80082FD93
:103BC00005C0809162028111F8CF68C08091F20037
:103BD000823029F48091F1008B7F813021F4809133
:103BE000F100809346028091E8008B7753C080916A
:103BF0006302813A09F052C0809167029091680295
:103C0000892B09F04BC08091E800877F8093E80002
:103C10008091E80080FFFCCF8091140136C0809134
:103C200063028132D9F58091670290916802892BF5
:103C3000A9F58091E800877F8093E8000E94C0206A
:103C400080916502809314010C94D10780916302E6
:103C5000813221F58091E800877F8093E8000E94FF
:103C6000C02080916602809347020895809163028C
:103C7000813AA1F48091E800877F8093E8008091E9
:103C8000E80080FFFCCF809147028093F100809193
:103C9000E8008E778093E8000C94C020089584B7E4
:103CA000877F84BF0FB6F894A895809160008861E3
:103CB00080936000109260000FBE90E080E80FB625
:103CC000F89480936100909361000FBE0C94A60E4F
:103CD0000E9412210E946521E2EEF0E08081846062
:103CE000808378940E94C9230E94B20E8AE091E0FA
:103CF0000C94331BCF93DF93CDB7DEB7A0970FB6ED
:103D0000F894DEBF0FBECDBF809162028530A9F46A
:103D100080916202853079F40E94F51B80916002E7
:103D20008823B1F30E94DC1B882391F30E94261F95
:103D30000E94D107EDCF0E94251C0E94BC0E8091ED
:103D40006202843011F583E08093E9008091E800FD
:103D500082FF1BC08091E80085FF0AC040E050E070
:103D600060E270E0CE0101960E94871F91E001C0E1
:103D700090E08091E8008B778093E800992329F008
:103D800060E2CE0101960E94D616A0960FB6F89476
:103D9000DEBF0FBECDBFDF91CF9108950C94D01E32
:103DA000292F332723303105C9F060F42130310544
:103DB00081F02230310509F041C08BE590E028E622
:103DC00033E040C021323105E1F02232310531F1DA
:103DD00035C082E190E023EC33E034C09927813094
:103DE000910549F028F0029749F5EAE3F3E005C0B0
:103DF000E4E6F3E002C0E4E5F3E0849190E09F01A3
:103E000021C063307105D0F4660F771FFB01EF55B9
:103E1000FE4F2081318189E090E014C0633071054C
:103E200068F4FB01EE0FFF1FE556FE4F2081318144
:103E3000FB01E856FE4F808190E004C080E090E0F6
:103E400020E030E0FA0131832083089584E089BDC9
:103E500086E089BD09B400FEFDCF8091D8008F7D3A
:103E60008093D8008091E00082608093E000809190
:103E7000E00081FDFCCF0895CF92DF92EF92FF9298
:103E80000F931F93CF93DF93EC018B017A010E9474
:103E9000DF20811133C0E114F10439F0F701808192
:103EA0009181081B190BC80FD91FC12CD12C0115EA
:103EB000110519F18091E80085FD16C08091E80098
:103EC0008E778093E800E114F10449F0F7018081D6
:103ED0009181C80ED91ED182C08285E00FC00E9498
:103EE000DF20882321F30AC089918093F1000150DB
:103EF0001109FFEFCF1ADF0ADACF80E0DF91CF910F
:103F00001F910F91FF90EF90DF90CF900895CF9287
:103F1000DF92EF92FF920F931F93CF93DF93EC0109
:103F20008B017A010E94DF20811133C0E114F1047A
:103F300039F0F70180819181081B190BC80FD91F37
:103F4000C12CD12C0115110519F18091E80085FDD6
:103F500016C08091E8008B778093E800E114F104AB
:103F600049F0F70180819181C80ED91ED182C082AB
:103F700085E00FC00E94DF20882321F30AC08091D2
:103F8000F100899301501109FFEFCF1ADF0ADACF50
:103F900080E0DF91CF911F910F91FF90EF90DF9024
:103FA000CF9008952091690230916A022617370751
:103FB00048F06115710539F42091E8002E772093BF
:103FC000E80001C0B901FC0120E06115710561F153
:103FD000809162028823D9F18530D9F18091E8007F
:103FE00083FD39C08091E80082FD2BC08091E800FC
:103FF00080FFEBCF8091F20090E06115710551F0E8
:104000008830910538F421912093F10061507109B5
:104010000196F3CF21E0089709F020E08091E800B5
:104020008E778093E800D1CF2111D2CF0AC0809142
:104030006202882361F0853061F08091E80083FDA1
:104040000AC08091E80082FFF2CF80E0089582E00C
:10405000089583E0089581E00895209169023091E8
:104060006A022617370748F06115710539F4209167
:10407000E8002E772093E80001C0B901FC0120E0A0
:104080006115710579F180916202882309F43DC0C0
:10409000853009F43CC08091E80083FD3AC08091EE
:1040A000E80082FD2CC08091E80080FFE9CF80917C
:1040B000F20090E06115710559F08830910540F4E7
:1040C00024912093F1003196615071090196F2CF4D
:1040D00021E0089709F020E08091E8008E77809336
:1040E000E800CECF2111CFCF0AC080916202882391
:1040F00061F0853061F08091E80083FD0AC0809115
:10410000E80082FFF2CF80E0089582E0089583E026
:10411000089581E00895982F953068F59093E9000F
:10412000981739F07091EC002091ED005091F0005B
:1041300003C0242F762F50E021FD02C09F5FECCFFB
:104140003091EB003E7F3093EB003091ED003D7FEE
:104150003093ED003091EB0031603093EB007093C1
:10416000EC002093ED005093F0002091EE0027FD2D
:10417000E5CF80E008958F708093E90081E0089595
:104180008091630287FF11C08091E80082FD05C025
:10419000809162028111F8CF11C08091E8008B7785
:1041A0000BC080916202882349F08091E80080FF73
:1041B000F8CF8091E8008E778093E80008952091F1
:1041C000E4003091E50095E64091EC00842F817089
:1041D00040FF23C08091E80080FD1DC080916202F5
:1041E000882399F0853099F08091EB0085FD11C00E
:1041F0004091E4005091E5002417350729F39150D0
:1042000011F09A01E1CF84E0089582E0089583E0FF
:10421000089581E0089580E008954091E80042FF0C
:10422000DDCF08950E946F210E947221E0EEF0E040
:10423000808181608083E8EDF0E080818F778083EA
:1042400019BCE3E6F0E08081816080831092610216
:1042500008950E946F210E9472218091D8008F776B
:104260008093D8008091D80080688093D800809196
:10427000D8008F7D8093D80084E089BD86E089BD19
:1042800009B400FEFDCF1092620210925E021092FD
:10429000600210925F0242E060E080E00E948B20AA
:1042A0008091E1008E7F8093E1008091E200816047
:1042B0008093E2008091E20088608093E200809128
:1042C000E0008E7F8093E0000895E3E6F0E08081D7
:1042D0008E7F808381E0809361020C94292110926B
:1042E000E20008951092E10008951F920F920FB618
:1042F0000F9211242F933F934F935F936F937F936C
:104300008F939F93AF93BF93EF93FF938091E100BF
:1043100082FF0BC08091E20082FF07C08091E10024
:104320008B7F8093E1000E94C8238091E10080FF91
:1043300019C08091E20080FF15C08091E2008E7F5D
:104340008093E2008091E20080618093E20080919E
:10435000D80080628093D80019BC85E08093620207
:104360000E947E1D8091E10084FF30C08091E200B8
:1043700084FF2CC084E089BD86E089BD09B400FEBD
:10438000FDCF8091D8008F7D8093D8008091E1008F
:104390008F7E8093E1008091E2008F7E8093E20027
:1043A0008091E20081608093E20080915E02882328
:1043B00011F084E007C08091E30087FD02C081E036
:1043C00001C083E0809362020E947F1D8091E10022
:1043D00083FF29C08091E20083FF25C08091E10026
:1043E000877F8093E10082E08093620210925E02F8
:1043F0008091E1008E7F8093E1008091E2008E7FCA
:104400008093E2008091E20080618093E20042E0CC
:1044100060E080E00E948B208091F00088608093B3
:10442000F0000E947D1DFF91EF91BF91AF919F9190
:104430008F917F916F915F914F913F912F910F904D
:104440000FBE0F901F9018951F920F920FB60F92EC
:1044500011242F933F934F935F936F937F938F9389
:104460009F93AF93BF93CF93DF93EF93FF93C0914D
:10447000E900CF708091EC00D82FD17080FDD0E89A
:104480001092E9008091F000877F8093F00078948B
:104490000E9468221092E9008091F0008860809369
:1044A000F000CD2BCF70C093E900FF91EF91DF9129
:1044B000CF91BF91AF919F918F917F916F915F91BC
:1044C0004F913F912F910F900FBE0F901F90189515
:1044D0001F93CF93DF93CDB7DEB7AA970FB6F894AB
:1044E000DEBF0FBECDBFE3E6F2E08091F100819325
:1044F00022E0EB36F207C9F70E94941D8091E80094
:1045000083FF2EC18091630290916402492F50E095
:104510004A30510508F024C1FA01E559FF4F0C94C7
:104520001224803821F0823809F01AC108C0809125
:104530005F0290916002992389F082600FC08091A0
:1045400067028F70853008F00BC18093E90080917D
:10455000EB0085FB882780F91092E9009091E80034
:10456000977F9093E8008093F1001092F100D1C002
:10457000282F2D7F09F0F4C0882319F0823061F0D4
:10458000EFC080916502813009F0EAC0933009F0F4
:1045900080E0809360022EC08091650281112AC064
:1045A000809167028F702FEF280F243008F0D8C059
:1045B0008093E9002091EB0020FF1CC0933021F490
:1045C0008091EB00806214C09091EB009061909319
:1045D000EB0021E030E0A90102C0440F551F8A958D
:1045E000E2F74093EA001092EA008091EB008860C5
:1045F0008093EB001092E9008091E800877F809320
:10460000E8000E94C020ACC08111AAC010916502D0
:104610001F778091E3008078812B8093E300809165
:10462000E800877F8093E8000E94C0208091E80026
:1046300080FFFCCF8091E30080688093E30011113C
:1046400002C082E001C083E08093620289C080588A
:10465000823008F085C080916502909166028C3DA1
:1046600053E0950779F583E08A838AE289834FB71F
:10467000F894DE01139620E03EE051E2E32FF0E0F3
:1046800050935700E49120FF03C0E295EF703F5F25
:10469000EF708E2F90E0EA3010F0C79601C0C09600
:1046A0008D939D932F5F243149F74FBF8091E80090
:1046B000877F8093E8006AE270E0CE0101960E9455
:1046C000D21F16C06091670270916802AE014F5F01
:1046D0005F4F0E94CE1EBC01892B09F441C090910E
:1046E000E800977F9093E80089819A810E942D20AD
:1046F0008091E8008B778093E80032C0803881F5A4
:104700008091E800877F8093E80080915E0280932B
:10471000F1008091E8008E7772CF811121C08091E5
:1047200065029091660299270297D4F48091E8007F
:10473000877F8093E8008091650280935E020E94EB
:10474000C02080915E02811106C08091E30087FD48
:1047500002C081E001C084E0809362020E94801D5B
:104760008091E80083FF0AC08091E800877F8093F2
:10477000E8008091EB0080628093EB00AA960FB670
:10478000F894DEBF0FBECDBFDF91CF911F9108958A
:104790000895CF93809162028823A1F0C091E9002F
:1047A000CF709091EC00892F817090FD80E8C82B2C
:1047B0001092E9008091E80083FD0E946822CF708A
:1047C000C093E900CF910895002480FD060E660F86
:1047D00011F08695D1F7802D08950024552704C047
:1047E000080E591F880F991F009729F07695679535
:1047F000B8F37105B9F7802D952F089597FB072E13
:1048000016F4009407D077FD09D00E941F2407FCFE
:1048100005D03EF4909581959F4F089570956195D0
:104820007F4F0895EE0FFF1F0590F491E02D09943E
:104830006927962769277827872778270895AA1B4D
:10484000BB1B51E107C0AA1FBB1FA617B70710F07B
:10485000A61BB70B881F991F5A95A9F780959095AD
:10486000BC01CD010895FB01DC0104C08D910190D4
:10487000801921F441505040C8F7881B990B0895C6
:10488000F999FECF92BD81BDF89A992780B5089518
:10489000A8E1B0E042E050E00C947424262FF9998E
:1048A000FECF92BD81BDF89A019700B4021639F08F
:1048B0001FBA20BD0FB6F894FA9AF99A0FBE089560
:1048C0000396272F0E944F240E944E24252F0E94DA
:1048D0004F24242F0C944F240196272F0E944F24FD
:1048E0000C944E24DC01CB01FC01F999FECF06C0EB
:1048F000F2BDE1BDF89A319600B40D92415050409E
:08490000B8F70895F894FFCF09
:10490800FC012808641E140A321ED51C291D0A1D24
:10491800061D021D01E200E900EA00B500B600B775
:1049280000CD008301CC008A019201940121022369
:104938000224022502260227022A02B300B4006FCD
:10494800007000818283E200E900EA00B500B60049
:10495800B700CD008301CC008A01920194012102A5
:10496800230224022502260227022A02B300B400E9
:104978006F00700081828364673736353231309634
:10498800959493929062656600FF0100010000FF14
:10499800FF0000010001FF0040227B7204D503F7ED
:0849A800037A039303B303003B
:00000001FF
