:100000000C94E4030C9428040C9443040C942804EA
:100010000C9428040C9428040C9428040C942804B0
:100020000C9428040C9428040C94C5230C942804E4
:100030000C9428040C9428040C9428040C94280490
:100040000C9428040C9428040C9428040C94280480
:100050000C942804430B430B7E0B7E0BD80BF60B42
:10006000000D000D010C750C860C860CEF10F310C2
:100070001D112F113A115F116211BB11F711AE1250
:10008000AE12061208120D1236125C125F126312C3
:100090008A12FE25FE251126112607261126112675
:1000A0001126FE25FE250C26112611260C26000001
:1000B0000000000000000000000000000000000040
:1000C0000000000000000000000000000000000030
:1000D00000007E0F00D4FFFFFFC700000078000083
:1000E0000000000000002A2B280000000000000093
:1000F00000000000000000000029000000002C1E8D
:100100003420212224342627252E362D3738271E49
:100110001F202122232425263333362E37381F046F
:1001200005060708090A0B0C0D0E0F101112131407
:1001300015161718191A1B1C1D2F3130232D3504C5
:1001400005060708090A0B0C0D0E0F1011121314E7
:1001500015161718191A1B1C1D2F3130354C0004A9
:100160007F3F1F643214643214783C1E1E140A054B
:10017000000101010101010101010202020202026A
:10018000020202030303030303030304040404043D
:100190000404050505050506060606060707070704
:1001A0000708080808090909090A0A0A0B0B0B0CB9
:1001B0000C0C0D0D0D0E0E0E0F0F0F101011111156
:1001C00012121313141415151616171718181919D7
:1001D0001A1A1B1B1C1D1D1E1E1F2020212222233C
:1001E0002424252626272829292A2B2C2D2D2E2F7D
:1001F00030313232333435363738393A3B3C3D3E94
:100200003F404142434445464748494A4C4D4E4F82
:1002100050515354555658595A5B5D5E5F61626444
:10022000656668696B6C6D6F7072737577787A7BD1
:100230007D7E8082838587888A8C8E8F9193959628
:10024000989A9C9EA0A2A3A5A7A9ABADAFB1B3B548
:10025000B7BABCBEC0C2C4C6C9CBCDCFD1D4D6D824
:10026000DBDDDFE2E4E7E9EBEEF0F3F5F8FAFDFFC2
:10027000FFAA7F55402223252628292A2C2D2F30FE
:1002800032333536383A3B3D3E4042434547494A92
:100290004C4E5051535557595A5C5E6062646668C3
:1002A000696B6D6F71737577797B7D7F81838587CE
:1002B000898A8C8E90929496989A9C9E9FA1A3A5D1
:1002C000A7A8AAACAEAFB1B3B4B6B8B9BBBCBEBFF9
:1002D000C1C2C3C5C6C7C9CACBCCCDCED0D1D2D27C
:1002E000D3D4D5D6D7D7D8D9D9DADADBDBDBDCDC87
:1002F000DCDCDCDDDDDDDDDCDCDCDCDCDBDBDBDA3F
:10030000DAD9D9D8D7D7D6D5D4D3D2D2D1D0CECDA9
:10031000CCCBCAC9C7C6C5C3C2C1BFBEBCBBB9B8B6
:10032000B6B4B3B1AFAEACAAA8A7A5A3A19F9E9C3B
:100330009A98969492908E8C8A89878583817F7D06
:100340007B79777573716F6D6B6968666462605EE7
:100350005C5A5957555351504E4C4A4947454342B0
:10036000403E3D3B3A3836353332302F2D2C2A294A
:100370002826252322E000E300E2000000E6000139
:100380005100000000E700E4000000E1001D001B38
:100390000006001900050000000000E5003800001C
:1003A00000390004001600070009000A00280000B8
:1003B000003400330000002B0014001A0008001560
:1003C000001700310030002F001300000000001E55
:1003D000001F0020002100220000002E002D002719
:1003E000002A00165C000000000000000000000071
:1003F000000000000000000000000023001C000BB3
:1004000000110000000D0018002400000010000082
:1004100000260012000F0037002C000E000C0025F3
:100420000000003600010001000100000001000191
:1004300000000000000100010000000100C45CC6D3
:100440005CC85CCA5CCC5C000000000100010000DC
:1004500000C25CC35CC55CC75CC95CCB5C010000CE
:1004600000010001000000BF5CBE5CBD5CC05C0020
:100470005CDE5C0100010001000100000000003AA8
:10048000003B003C003D003E0000004500440043AE
:10049000004C0035000000000000000000000000DB
:1004A00000000000000000000000003F000100010B
:1004B00000010000000100010040000000A8000051
:1004C00000420001000100A90001000100010041FB
:1004D000000000AA0001000100010000000100016D
:1004E0000000000000010001000000010001000107
:1004F00000010001000100000000000100010000F7
:1005000000010001000100010001000100010000E4
:1005100000010001000000010001000100010001D4
:1005200000010001000100010001000000000001C5
:1005300000010001000100010000000100010001B4
:1005400000010001000000000000000000000000A9
:100550000000000000000000000000010001000198
:100560000001000000010001000100000001000086
:100570000001000100010001000100010001000173
:100580000000000100010001000100000001000165
:100590000000000000010001000000010001000156
:1005A0000001000100010000000000010001000046
:1005B0000001000100010001000100010001000034
:1005C0000001000100000001000100010001000124
:1005D0000001000100010001000100000000000115
:1005E0000001000100010001000000010001000104
:1005F00000010001000000000000000000000000F9
:1006000000000000000000000000000100010001E7
:1006100000010000000100010001000000010000D5
:1006200000010001000100010001000100010001C2
:10063000000000010005010902A10185020901A1D4
:100640000005091901290815002501950875018182
:10065000020501093009311581257F950275088150
:100660000609381581257F950175088106050C0A54
:1006700038021581257F950175088106C0C00501E6
:100680000980A101850319012AB700150126B700C9
:10069000950175108100C0050C0901A1018504199F
:1006A000012AA002150126A002950175108100C043
:1006B0000660FF0961A1010962150026FF0095206F
:1006C000750881020963150026FF009520750891C1
:1006D00002C005010906A101050719E029E7150077
:1006E00025019508750181029501750881030507AB
:1006F000190029FF150026FF0095067508810005E1
:100700000819012905950575019102950175039157
:1007100003C01A03450036002D00560032002000A9
:100720004F004500200042004D004300000026031A
:100730004500780063006C00750073006900760066
:10074000650020002F00200045002D0054006500AA
:1007500061006D0000000403090409025B0003014D
:1007600000A0FA09040000010301010009210101B0
:10077000000122400007058103080001090401006F
:1007800002030000000921010100012222000705E7
:10079000840308000107050403080001090402009E
:1007A0000103000000092101010001227B0007056F
:1007B0008303080001120110010000000858452BB6
:1007C000E60100010200010011241FBECFE5D8E0C0
:1007D000DEBFCDBF04B603FE24C08091D802909145
:1007E000D902A091DA02B091DB028730904BA7408A
:1007F000B04BB9F41092D8021092D9021092DA02DA
:100800001092DB0214BE84B7877F84BF0FB6F894C2
:10081000A89581B5886181BD11BC0FBEE0E0F8E309
:10082000099510E0A0E6B0E0E8E4F2E502C005902A
:100830000D92AA3EB107D9F722E0AAEEB0E001C0BE
:100840001D92A83DB207E1F70E94800D0C94222969
:100850000C940000A82FB92F80E090E041E050EA0E
:10086000609530E009C02D9182279795879510F00B
:1008700084279527305EC8F36F5FA8F30895EADFF9
:100880008D939D930895CF93CFB7CF93C395839BBB
:10089000E9F7839B0EC0839B0CC0839B0AC0839B9C
:1008A00008C0839B06C0C0918D02C395C0938D0282
:1008B000A6C0DF93C091B302DD27CA54DD4F839BEE
:1008C00002C0DF91E6CF2F930F931F9300B32FEF5A
:1008D00003FB20F94F933F9310B34FEF012703FB26
:1008E00021F93BE031C04E7F012F10B3216028C0B9
:1008F000102F4D7F2260000000B329C04B7F246081
:10090000012F000010B32BC010B3477F28602AC00E
:100910004F7E00B320612CC04F7D10B320622FC0EA
:100920004F7B00B3206432C0422700B349934FEF9E
:100930000000102713FB20F910B31C70C9F1297FA8
:1009400091F2012703FB21F900B3237F89F2315093
:1009500058F1102713FB22F910B3277E79F20127F3
:1009600003FB23F92F7C81F200B3102713FB24F93A
:100970002F7971F200C010B3012703FB25F92F7303
:1009800059F200C000B3102713FB26F9223040F2C1
:1009900000C010B3012703FB27F9243028F64F7756
:1009A000206810B30000F9CF10E81ABF00271CC060
:1009B0003B503195C31BD04010E81ABF0881033C5F
:1009C00011F10B3401F12091B1021981110F1213B1
:1009D000EDCF4A81441F093669F10D3211F0013E15
:1009E00029F74F7009F0042F00938C023F914F912B
:1009F0001F910F912F91DF91CAB7C7FD47CFCF91BC
:100A0000CFBFCF91189520918C02222379F31091BA
:100A1000B402112309F044C034300AF443C03093C7
:100A2000B4022093B2021091B3023BE0311B309329
:100A3000B30238C00091B402013094F50AE54F705A
:100A400049F430917F0034FD2FC000937F00CEE841
:100A5000D2E02EC0433059F0443091F030919902E9
:100A600034FD22C000939902CAE9D2E021C030913E
:100A7000CC0234FD19C00093CC02CDECD2E018C0FA
:100A80003091A50234FD10C00093A502C6EAD2E061
:100A90000FC02795A8F45150A9F4220F0000F9CFF8
:100AA0004AE503C042ED01C0432FC4E1D0E032E08B
:100AB00011B31C60939A11BB02B320E41CE05F9356
:100AC000012756E002BB279520F4515021F4220F54
:100AD000F9CF012756E000003B5A02BBD0F2279520
:100AE00028F4515029F4220F0000F9CF012756E0D5
:100AF000279502BB20F4515021F4220FF9CF012792
:100B000056E02991332302BB21F6037F1091B502F1
:100B1000110FC651D04002BB11F01093B10210E882
:100B20001ABF086011B3137F402F437F5F9100C04D
:100B300000C002BB11BB42BB59CF1F93CF93DF93C1
:100B4000CDB7DEB767970FB6F894DEBF0FBECDBF47
:100B50004B8B5C8B6D8B7E8B8F8B61111092650143
:100B600086E09E01235F3F4FD901E82F1D92EA9551
:100B7000E9F795E0FE017396D90101900D929A95DF
:100B8000E1F79C894E895F897B897D879E876F8786
:100B9000598B488BF901DE01179601900D928A95C9
:100BA000E1F7CE0107960E946C1681113EC086E0E7
:100BB000FE013796DE01119601900D928A95E1F7BC
:100BC000FF81E8856A857B856115710531F0EF3F0E
:100BD00031F481E0FF3F19F403C081E001C080E0FF
:100BE00080FD23C02091310130E0C901019687705A
:100BF00099274091620150E08417950779F1F983B4
:100C0000EA837D836C8396E0929FD001939FB00D21
:100C10001124AE5CBE4FFE01319601900D929A9563
:100C2000E1F7809331010E94E91516E0809162019D
:100C3000909131018917F9F0189FC00111248E5C41
:100C40009E4F0E946C168823B1F08091620190E063
:100C500001968770992780936201E8CF0E9415263C
:100C60001092310110926201EBE2F1E086E0DF01C7
:100C70001D928A95E9F767960FB6F894DEBF0FBE0E
:100C8000CDBFDF91CF911F91089581FF02C0919A4E
:100C90000895919808953F924F925F926F927F923C
:100CA0008F929F92AF92BF92CF92DF92EF92FF927C
:100CB0000F931F93CF93DF93CDB7DEB729970FB66E
:100CC000F894DEBF0FBECDBFFC01808191812381EE
:100CD0003481232B31F09F3F31F491E08F3F19F4A1
:100CE00003C091E001C090E090FDF2C67F0185E075
:100CF000DE01119601900D928A95E1F7F7012281AC
:100D000089819A81222349F00E944425182F682F57
:100D100089819A810E949F2503C00E947325182F04
:100D200069817A81812F0E94E6248C01F7018281FA
:100D3000882309F4F2C0980122513F452031310542
:100D400008F019C18FEF93E00E9416288111EFC0BF
:100D5000025137EE832E32E0932E002379F0811476
:100D6000F4E09F0609F4E3C0C4010E941628811133
:100D700001C001502FEF821A920AEFCF1E821F820C
:100D800018861986442443942AE0322E84010F5F8A
:100D90001F4FC4010E9416288E831F82882309F4E6
:100DA000C6C09FEF980F933060F48F834E8232E07D
:100DB000830E911CC8010E9416288887811102C0E9
:100DC000B6C048018E010A5F1F4FF801208122231F
:100DD000E9F2213009F04CC08181813049F4680189
:100DE000F2E0CF0ED11CF80182810E940B270AC0CD
:100DF000823051F46801F2E0CF0ED11CF8018281FB
:100E00000E947426860186C0833049F46801F2E0AE
:100E1000CF0ED11CF80182810E943526F3CF843099
:100E200019F00F5F1F4F76C0F80122810E5F1F4F30
:100E300080E090E030E0205331092A30310568F439
:100E4000389EA001399E500D1124C901840F951FB1
:100E50000F5F1F4FF8012081EDCF009709F45AC0B2
:100E6000E7EBFBE03197F1F700C000000197F5CF09
:100E7000E22FF0E0E252FF4F5490822F8695869544
:100E8000869590E0FC01E253FF4F64902770712C2F
:100E9000022E02C0759467940A94E2F7F1E06F2283
:100EA0007724FC01E254FF4FA490B12C022E02C023
:100EB000B594A7940A94E2F731E0A322BB24FC0185
:100EC000E255FF4FC490D12C02C0D594C7942A9507
:100ED000E2F781E0C822DD246114710419F081EE8B
:100EE0000E947426A114B10419F086EE0E947426A3
:100EF000852D0E940B27AB2819F086EE0E9435261F
:100F0000672819F081EE0E943526CD2819F08CE271
:100F10000E940B270F5F1F4F58CF0031EFE51E07D0
:100F200009F0CDC581E00E94CE250E9498218091D4
:100F30006301877009F4CCC5F7018281882309F425
:100F4000C7C582E029960FB6F894DEBF0FBECDBFAD
:100F5000DF91CF911F910F91FF90EF90DF90CF9095
:100F6000BF90AF909F908F907F906F905F904F90C9
:100F70003F900C94CC1500313FE5130711F481E04C
:100F800005C001319FE5190721F482E00E94DA25AE
:100F9000CCCF0D3BFCE51F0781F48091A101982F78
:100FA000969596959695C9F1915E990F990F990F1F
:100FB0008770892B8093A10124C00E3B2CE512077A
:100FC00008F43EC00F3BECE51E0769F108F45AC572
:100FD000003C2CE5120709F045C09091A101892F32
:100FE0008695869586958F5F8F71843008F063C5EE
:100FF000880F880F880F9770892B8093A1018091AB
:10100000A101887F91E009F490E08091A10190FB1B
:1010100080F98093A1010E940A1E8091A10186950A
:10102000869586950AC08091A10180FF20C58E7F9C
:101030008093A1010E940A1E80E00E94AB1D77CF21
:101040000B3B3CE5130711F483E005C00C3B9CE52A
:10105000190741F480E00E940F1E8091A1010E94B7
:101060000A1E65CF033FFCE51F0799F406E221EE57
:1010700040EE63EF7CE509C0073DECE51E0711F586
:1010800006E221EE41EE67ED7CE5C7010E94632494
:101090004ECF043F2CE5120708F046C1083D3CE561
:1010A000130731F407E225EE45EE68ED7CE5EDCF60
:1010B000093D9CE5190701F708E221E045EE69EDDD
:1010C0007CE5E3CF882309F464C11092A4010330C6
:1010D0009DE5190758F40A3FECE51E0760F4C801C6
:1010E00082509C45449708F03EC105C00136FDE59D
:1010F0001F0709F038C10E94F9149093EE00809305
:10110000ED0000312CE5120709F4CAC008F041C017
:1011100008308CE5180709F4A4C0F0F40430ECE5BD
:101120001E0709F48CC068F402302CE5120709F49C
:1011300082C003301C4509F0E7C08091ED00826059
:10114000E1C006308CE5180709F483C008F085C0BB
:101150008091ED008860D6C00C30ECE51E0709F4E4
:1011600090C068F40A302CE5120709F47EC008F03C
:1011700084C00E9415268091ED008068C3C00E30A7
:101180008CE5180709F481C008F086C08091ED0055
:1011900094C00C3FECE51E0709F47BC038F5043120
:1011A0002CE5120709F49AC058F402318CE51807AF
:1011B00009F47AC008F07EC08091ED008F7BA2C058
:1011C0000A3FECE51E07F1F108F03FC005311C4570
:1011D00009F09AC08091ED0082FB222720F991E06E
:1011E000922790FB82F990FB83F98CC001153DE5B5
:1011F000130709F467C050F48091EE000E3F9CE5A0
:101200001907C1F108F05BC08D7F65C00230FDE5B4
:101210001F0709F471C008F46DC001361D4509F0BF
:1012200073C08091ED0084FB222720F991E0922782
:1012300090FB84F967C08091ED00816063C080916C
:10124000ED0016C08091EE0016C08091EE00826025
:1012500042C08091ED00806155C08091ED008062B8
:1012600051C08091ED0080644DC08091ED00886098
:10127000846048C0826081602EC08091ED008E7FC6
:1012800041C08091ED008D7F3DC08091ED00877F52
:1012900039C08091EE0014C08091ED008F7E32C085
:1012A0008091ED008F7D2EC00E9415268091ED006B
:1012B0008F7728C08091ED00877F8B7F23C08D7F43
:1012C0008E7F09C08091EE00982F909591708E7F4F
:1012D000892B90FB81F98093EE0016C00E941526A1
:1012E0008091ED0087FB222720F991E0922790FB67
:1012F00087F908C061E001C060E08EE090E00E94E4
:101300002A2802C08093ED006091ED001091EE005C
:1013100084E090E00E942A28612F82E290E00E94FF
:101320002A280E94152603CE053FFCE51F0731F44D
:1013300006E221EE42EE65EF7CE5A7CE053F2CE507
:10134000120730F407E225EE44EE64EF7CE59DCE13
:10135000063F3CE5130709F0B5CE07E225EE46EE61
:1013600066EF7CE592CE8091660106319CE5190717
:1013700041F58A7A91E009F490E09093EC0088239B
:1013800011F065E301C069E283E291E00E9411245B
:1013900015C006311C4509F02DC18091EC00882351
:1013A00009F494C385E3E3E2F1E09281891301C07B
:1013B0001282319691E0E932F907B9F70E9485155A
:1013C000B6CD82720C3CECE51E0709F4C2C008F0F1
:1013D00045C0063C2CE5120709F4A7C0D8F4033C2D
:1013E0009CE5190709F497C030F4023CFCE51F079F
:1013F00009F46CC0CEC0043C2CE5120709F490C07F
:10140000053C3CE5130709F0C4C048E059E161E13F
:1014100079E1A3C0093C9CE5190709F490C078F470
:10142000073CFCE51F0709F485C0083C2CE51207C2
:1014300009F0AFC04CEF58E160EF78E18EC00A3C94
:101440003CE5130709F480C00B3C9CE5190709F043
:10145000A0C04FE359E160E579E17FC0013DECE5D3
:101460001E0709F486C0A0F40E3C2CE5120709F40F
:101470007AC008F475C00F3C8CE5180709F476C0F3
:10148000003D9CE5190709F084C06EE089E079C051
:10149000043DECE51E0709F472C068F4023D2CE53A
:1014A000120709F469C0033D3CE5130709F071C058
:1014B00061E088E16BC0053D8CE5180709F464C064
:1014C0000D359DE5190709F432CD63C080919C016B
:1014D00080FF1BC08E7F80939C0160919C01709166
:1014E0009D0180919E0190919F010E942D19109263
:1014F0008501EFEBF4ED21E0E150F0402040E1F711
:1015000000C000000E946B1E12CD816080939C0180
:1015100061E086953BC04DED5CE166EE7CE11DC06F
:1015200046EE5CE16DED7CE118C041E159E168E017
:1015300079E113C040EF58E16CEF78E10EC048ED5F
:1015400058E164EE78E109C044EE58E168ED78E1D5
:1015500004C040E559E16FE379E10E94651EE7CCE4
:1015600061E081E013C065E082E00BC068E086E0E6
:1015700008C064E18FE005C067E185E102C062E276
:1015800089E10E94531ED3CC61E083E20E949B1C40
:10159000CECC0A353DE5130741F150F401159CE529
:1015A0001907A9F00E3D1C4529F50E941515BFCC61
:1015B0000B35FDE51F07D9F00C351D45D9F4809199
:1015C000EE0082FB882780F991E0892711C00E94F4
:1015D00015263FEB87E299E0315080409040E1F7DB
:1015E00000C000000E94AC23A2CC81E001C080E0DA
:1015F0000E94B215F701828100811181882349F090
:10160000C8010E944425D82E682FC8010E949F253A
:1016100004C0C8010E947325D82EB8018D2D0E94E8
:10162000E6240E945F13B82E192F982EF70102812D
:10163000A580A2949FE0A92280916301877099F010
:10164000002389F0812F807F803421F080E28B0D90
:10165000883048F082E00E94CC1580916301877049
:10166000DD24D3948111D12CC12EC2948FE0C822E5
:101670008C2D90E08C30910508F0C2C1FC01E65D34
:10168000FF4F0C94E028812F807F1F70882311F07A
:101690001295107F0023B9F0112309F49DC180E257
:1016A0008B0D883010F0911006C080916601182BC8
:1016B0001093660105C080916501182B1093650198
:1016C0000E94851589C18B2D0E943526112309F4AE
:1016D00097C180E28B0D1095883010F0911006C0F4
:1016E0008091660118231093660105C08091650101
:1016F0001823109365010E94851582C1812F807F78
:101700001F70803211F01295107F8B2D992021F0DF
:10171000F1E09F1611F130C00023B1F0AA2081F052
:1017200021E0A2120DC08091EE0082FD69C180917E
:101730006701182B181709F463C11093670160C182
:1017400080916701812B10C0AA2021F031E0A316FF
:1017500009F456C10E947F1527C0002341F085E09F
:101760008A1508F44DC1812F0E942B2649C194E0AF
:101770009A1508F445C118C0002349F0AA2099F32E
:10178000F701858180FF28C18F708583ECCFAA2067
:1017900059F0893309F031C1FFEF2DEE32E0F150FD
:1017A00020403040E1F727C1812F0E94202628C128
:1017B000812F86958695837019F0813061F020C164
:1017C000002321F08B2D912F937002C080E090E0D8
:1017D0000E9441241DC1002321F08B2D912F937075
:1017E00002C080E090E00E942B2412C18B2D0023C8
:1017F00019F00E94191B02C00E94201A0E94F01CBE
:1018000007C1812F8370A9F50111FEC04B2D4295B0
:1018100046954770440F440F8B2D8F7090E09C01CC
:10182000042E01C0220F0A94EAF7B4FE08C08FE02C
:1018300090E001C0880F4A95EAF7809501C080E0EA
:10184000169516951370123069F088F4909168011E
:10185000113019F0822B892302C0922B892B0E9410
:10186000E525D2C0822B909168018927F8CF822B81
:10187000F6CF002319F0812F817001C0869588234F
:1018800009F4C2C04B2D429546954770440F440F52
:101890008B2D8F7090E09C01042E01C0220F0A94C2
:1018A000EAF7B4FE08C08FE090E001C0880F4A95C7
:1018B000EAF7809501C080E01695169513701230F6
:1018C00059F078F490916A02113019F0822B892333
:1018D00009C0922B892B06C0822B90916A0289271E
:1018E00001C0822B0E94CA258FC01F70002339F0CF
:1018F000812F0E94DA258B2D0E942B2685C08B2DEF
:101900000E942026812F0E94CE257EC08B2D92EF33
:10191000991659F1991538F0E0EF9E1659F0F1EF4C
:101920009F16F1F055C023EF921631F134EF931664
:1019300081F14EC0002379F084E08A1508F460C07C
:101940001F7181E090E001C0880F1A95EAF790912D
:101950006A0289271BC095E09A1508F451C0F0CFA0
:10196000002329F0812F8F7126C00023D9F3812F06
:101970008F710E94CE2544C0002339F01F7181E091
:1019800001C0880F1A95EAF701C080E00E94CA25BD
:1019900037C0002399F01F71812F0E94DA258091B2
:1019A000EE0082FD07C0E8E01E9FC00111248360A5
:1019B00080936301812F0E94DA2522C081E00E947A
:1019C000CC15F1E0FA15E0F482E00E94CC1518C0C5
:1019D000002331F0AA2031F28B2D0E94742610C012
:1019E000AA2029F2893349F42FEF3DEE82E02150FD
:1019F00030408040E1F700C000008B2D0E9435266A
:101A000088EF8C0D843020F40E9457240E944506F4
:101A1000DD2009F45DC08091630180FD59C0F701AC
:101A200012828595859585950E94DA25C7010E94C9
:101A30004B068091630185958595859529960FB60E
:101A4000F894DEBF0FBECDBFDF91CF911F910F91F4
:101A5000FF90EF90DF90CF90BF90AF909F908F90CE
:101A60007F906F905F904F903F900C94CE25816057
:101A70008093A101813019F489E08093A1018091C4
:101A8000A101C9CA2091A101822F869586958695CC
:101A9000482F50E04330510554F48F5F982F990F31
:101AA000990F990F822F8770892B8093A1018091C4
:101AB000A1018160AECA97709093A101A0CA0131C3
:101AC000FFE51F0709F0CECA82E02DCA89E26BCC80
:101AD00029960FB6F894DEBF0FBECDBFDF91CF9130
:101AE0001F910F91FF90EF90DF90CF90BF90AF903C
:101AF0009F908F907F906F905F904F903F90089550
:101B0000CF93DF93CDB7DEB760970FB6F894DEBF03
:101B10000FBECDBF0E94FA23909322018093210132
:101B200084B7806884BF84B7806884BF83E093E112
:101B30009093EB008093EA0085B7886085BF8BB7F0
:101B400080688BBF8BE480939A028093CD02809350
:101B5000A6028AE5809399028093CC028093A50225
:101B60008B9A80E0815041F0A895E7EBFBE031973C
:101B7000F1F700C00000F6CF8B9878948BE083BF1C
:101B80008BEB8CBF82E089BF0E94921D811102C045
:101B90000E94831D00E810E0A8E8EA2EA0E0FA2EDB
:101BA000F80181918F018F3F11F00E944813E016D8
:101BB000F106B1F708E810E0F3E9EF2EF0E0FF2EB0
:101BC000F80181918F018F3F11F00E944813E016B8
:101BD000F106B1F7EFEEF0E08FEF90E0A1E1B1E0B8
:101BE000119211921D921D928E179F07C9F70E94A4
:101BF0000A15811102C00E94151582E090E00E9432
:101C0000162880936D010E94F9149093EE00809342
:101C1000ED000E940D18FFE329E131E0F150204072
:101C20003040E1F700C000000E940D1880911101C2
:101C300080FF08C06FEF7FEF80E090E00E944728B0
:101C40000E94AC2383E090E00E9416280E94E525C4
:101C5000899A91988C9A949882E28FBD89E18EBD81
:101C60008FEF9FEF97BD86BD0E94281E0E94281E01
:101C70008091FF00811133C00E940A15811104C0B8
:101C80000E9415150E94611988E090E00E941E28AC
:101C900060939C0170939D0180939E0190939F019E
:101CA0006E7F71F40E94611988E090E00E941E2806
:101CB00060939C0170939D0180939E0190939F017E
:101CC0000E941A191092850180919C0180FF04C026
:101CD00060E086950E949B1C81E08093FF0080E677
:101CE00090E09093A8018093A7014FEB84ED91E0E1
:101CF000415080409040E1F700C0000053E0452E85
:101D0000512C66246A94712C78E4E72E72E0F72E49
:101D1000EEE5CE2EE1E0DE2E80918D028823B9F033
:101D200010928D020E94FA23909322018093210148
:101D30008091AB018823A1F11092AB010E9415267E
:101D40000E94281E0E9457240E94450611C08091BF
:101D5000AB01811111C080912101909122010E945B
:101D6000EB23069728F081E08093AB010E940624C4
:101D70008091AB018823A1F081E08093AB010E94A8
:101D800006240E940D1881E291E0E1E1F1E0219149
:101D90003191232B09F00BC48E179F07C1F7BCCFDD
:101DA0000E94A32180916202882309F4F8C18091E6
:101DB000990284FFF4C10E940D18882359F08FB74F
:101DC000F8944091AC015091AD016091AE017091D9
:101DD000AF018FBFA1E0B1E0E1E1F1E000E010E090
:101DE000702F219131918D919D918227932700979A
:101DF00079F160E0AA24A394B12CAC014A215B21C3
:101E0000452B09F16F8378872A213B2181E0232B21
:101E100009F480E089870E94FA238160782F9B87EC
:101E20008A874F81588569858B850E949D05000FA3
:101E3000111FF801EF5FFE4F80819181A826B9261E
:101E4000B182A0821AC06F5FAA0CBB1C6B30A9F6CE
:101E50000F5F1F4F0830110519F68FEF8C878D87A4
:101E60001E860E94FA238160782F988B8F874C857D
:101E70005D856E8588890E949D05809185018823F6
:101E800009F492C080918401E0919C01E695E81BE1
:101E9000E0938001823059F4F0E0E459FE4FE49180
:101EA0000E2F10E08BE2A82E8DE1B82E58C08630A0
:101EB00059F4F0E0E759FE4FE4910E2F10E0BBE13A
:101EC000AB2EBDE1BB2E4BC0893061F4E695F0E04E
:101ED000EA59FE4FE4910E2F10E0ABE0AA2EA0E2EB
:101EE000BA2E3DC08F3061F4E695F0E0ED59FE4F1B
:101EF000E4910E2F10E0FEE9AF2EFFE1BF2E2FC0C0
:101F0000853159F4F0E0E05AFE4FE4910E2F10E0D5
:101F1000E0E5AE2EEFE1BE2E22C0883199F083328B
:101F200041F4F6010591149176E4A72E70E2B72EE4
:101F300016C0843271F000ED17E06AE1A62E6DE163
:101F4000B62E0DC008E210E057ECA52E5EE1B52ECE
:101F500006C004EF11E04DE8A42E4EE1B42E8091AE
:101F60008101882361F0109281010E94FA239093ED
:101F70007F0180937E0110928301109282010E9462
:101F8000FA23E0917E01F0917F018E1B9F0B8F3F22
:101F90009F4750F40E0F1F1F10937F0100937E0187
:101FA0008EE791E0F501099586E0E8E7F1E0DE01D2
:101FB000119601900D928A95E1F7A0907A01B09068
:101FC0007B0100917C0110917D0110927A011092A9
:101FD0007B0110927C0110927D01A11003C0BB20F7
:101FE00009F45DC080917601909177010E94EB2306
:101FF000AC0190917201992339F020916A0030E090
:102000002417350758F04BC020916B00FAE02F9F42
:10201000900111242417350718F041C09F3F19F093
:102020009F5F90937201AA2061F00E94D01A1A1447
:1020300014F491E001C09FEF899F802D11248093BB
:102040007A01BB2061F00E94D01A1B1414F491E0B5
:1020500001C09FEF899F802D112480937B013091D7
:102060007A013323E1F020917B012223C1F045EB7B
:102070003403C0011124992319F090937A0103C00D
:1020800081E080937A0135EB2303C0011124992369
:1020900019F090937B0103C081E080937B010111D3
:1020A00003C0112309F451C080917401909175010E
:1020B0000E94EB239C0190917101992309F49EC227
:1020C0002536310508F441C09F3F19F09F5F90937A
:1020D0007101002361F00E94971A101614F491E028
:1020E00001C09FEF899F802D112480937C011123D3
:1020F00061F00E94971A111614F491E001C09FEF4D
:10210000899F802D112480937D0130917C013323A0
:10211000E1F020917D012223C1F045EB3403C001A1
:102120001124992319F090937C0103C081E08093DE
:102130007C0135EB2303C0011124992319F09093FE
:102140007D0103C081E080937D0180917A0181113E
:102150000BC080917B01811107C080917C018111AE
:1021600003C080917D0181110E94F01CAB82BC8272
:102170000D831E8386E0FE013196A8E7B1E0019051
:102180000D928A95E1F70E945724909100018917DA
:1021900031F00E945724809300010E9445060E945E
:1021A00051230E94A32180916202882309F4B4CDB7
:1021B0008091CC0284FFB0CD80915802803209F02A
:1021C000ABCDE09138028E2F90E0FC013197E331E6
:1021D000F10508F0C3C1EA5CFF4F0C94E0281092AF
:1021E000390289E0FCC080913902823009F4F9C1DA
:1021F000833099F0813009F0B1C12FB7F894809104
:10220000AC019091AD01A091AE01B091AF012FBF93
:10221000B0933A02A0933B022AC0E8E3F2E0A1E1C6
:10222000B1E08C9111969C911197129692838383C1
:102230003296EE16FF06A9F794C1809139028230DA
:1022400009F08CC160913A0270913B0280913C028E
:1022500090913D020E94E62886E290E02DC04091D8
:102260003B0260913A02809139020E943F1D909397
:102270003C02C1C1A0903C02B0903D02BA24AB2404
:10228000BA2480913B0200913A029091390246E1D2
:10229000049F80011124E0EB9E9F000D111D11246D
:1022A000080F111D080F111D6B2DC80187960E9484
:1022B0002A286A2DC80188960E942A2852C10E94A5
:1022C000F3244FC180913902893061F480913A0240
:1022D000F3E08F9FC0011124B3010E940228862FD2
:1022E0000E940F1E809139028138C9F058F480385D
:1022F00009F037C120E040913A0260919E0180913F
:102300009D0136C0823879F1833809F02AC120E076
:1023100040919F0160913B0280913A0229C060E0A8
:1023200080913A020E949B1C90913A0280919C01FC
:10233000911111C08E7F80939C01109285012FEB2B
:1023400034ED41E0215030404040E1F700C0000052
:102350000E946B1E06C1816080939C0160E086959F
:102360000E949B1CFEC080913A028093A001F9C09C
:102370000E948620F6C080913902893029F08A3087
:1023800091F410923A02EDC08091A1018695869554
:102390008695EFEF8E9FC0011124B2010E940228A2
:1023A00060933A02DEC08138A9F030F4803809F039
:1023B000D8C080919F0113C08238B1F0833809F0F2
:1023C000D0C080919D0180933A0280919E018093BC
:1023D0003B02C7C080919C0180FF04C0869580931A
:1023E0003A02BFC080E0FBCF8091A001F8CF80917E
:1023F000A1010E940A1E60919C0170919D01809133
:102400009E0190919F010E942D19ABC080E158C0A0
:1024100081E08093390289E1E2CF00913902109185
:102420003A0210270127102780903B02912C38E3B5
:10243000A32E32E0B32EC80189519D4F9501285338
:1024400032402815390508F08CC00931F1E01F072A
:1024500028F40E941628F501848302C0F501148235
:102460000F5F1F4FFFEFAF1ABF0AE5CF0091390290
:1024700010913A0210270127102780903B02912CDF
:1024800028E3A22E22E0B22EC80189519D4F95016A
:10249000285332402815390508F063C0093121E07E
:1024A000120720F4F50164810E942A280F5F1F4F54
:1024B000FFEFAF1ABF0AE8CF0E94D62452C084E0D3
:1024C000809339024EC00091390210913A021027D0
:1024D0000127102780903B02912C98E3A92E92E0CF
:1024E000B92EC80187969501285332402815390521
:1024F000C0F5003C22E0120728F40E941628F501DE
:10250000848302C0F50114820F5F1F4FFFEFAF1AE3
:10251000BF0AE7CF0091390210913A021027012734
:10252000102780903B02912C88E3A82E82E0B82EE1
:10253000C80187969501285332402815390588F43B
:10254000003C22E0120720F4F50164810E942A2851
:102550000F5F1F4FFFEFAF1ABF0AEACF8FEF8093D5
:10256000380208E312E08091A50284FD03C00E94B6
:10257000A321F9CF45EA52E068E0C8010E94FA229F
:10258000085F1F4F22E00835120769F78091A50206
:1025900084FD03C00E94A321F9CF45EA52E060E028
:1025A00080E090E00E94FA2210925802B5CBF89495
:1025B00021B3939A822F8C6081BB92B38CE09827D1
:1025C00092BB3FE54AEE90E0315040409040E1F749
:1025D00000C0000092B3892782BB21BB93987894F6
:1025E0009BCB86E290E00E94162810923A0210924D
:1025F0003B0210923C0280933D02B3CF2D3231401A
:1026000008F064CDA2CD80E008959091ED0092FF96
:102610000DC0282F2871283019F4877F846006C0E8
:10262000282F2471243011F48B7F886093FF0DC014
:10263000282F2871283119F4877E846106C0282F3D
:102640002471243111F48B7E88612091EE0020FFEB
:102650000DC0382F3871383019F4877F816006C07B
:10266000382F3171313011F48E7F886021FF0DC019
:10267000282F2871283119F4877E816106C0282F00
:102680002171213111F48E7E886194FD877E089539
:10269000F894E82FE295EF70F0E031A9282F2F7021
:1026A00081E090E001C0880F2A95EAF7982F909575
:1026B000932391AB92A9892B82AB78940895CF9301
:1026C000DF938238910569F1B0F48133910509F403
:1026D0006FC048F48932910509F465C08A329105CA
:1026E00009F46BC08AC08533910509F457C089335A
:1026F0009105B9F082C0833E910571F138F4803EB6
:102700009105B1F0823E910511F177C0863E9105A9
:10271000B9F1873E9105C9F1843E910509F06DC07C
:1027200024C02091ED0020FD53C021FD51C065C0A3
:102730008091ED0080FD46C08091EE0080FF48C092
:102740008091ED0084FD50C183EE90E04FC18091F7
:10275000ED0082FF3AC0F4CF8091ED0082FD35C0DC
:102760008091EE0080FD34C0EBCF8091EE0081FFC0
:1027700035C08091ED0084FD37C187EE90E036C111
:102780008091ED0083FF27C0F4CF8091ED0083FDA1
:1027900022C08091EE0081FD21C0EBCF8091ED0041
:1027A00085FD1FC021C08091ED0085FD1DC019C0B1
:1027B0008091ED0086FD1BC01DC08091ED0086FD5F
:1027C00019C015C089E390E011C182EE90E00EC1FE
:1027D00080EE90E00BC186EE90E008C184EE90E0C0
:1027E00005C189E290E002C185E390E0FFC08AE282
:1027F00090E0FCC081E390E0F9C0811531E59307DA
:1028000008F069C0811540E59407F0F09C0174E080
:10281000369527957A95E1F7922F9370482F43705C
:1028200021E030E002C0220F331F4A95E2F73C68F6
:10283000392B982F9F709695969540E2949FC001F2
:102840001124822B932BD2C0883E910568F5803EDF
:10285000910508F0CBC0883A9105B8F4853A910506
:1028600048F0855AE82FF0E0ED56FF4F808190E068
:102870009064BCC08130910509F4B3C008F4B4C0C1
:102880008430910508F4B0C0B1C08F3B910508F0C9
:10289000ABC0885AE82FF0E0EE0FFF1FEA56FF4F5B
:1028A000808191819464A2C0811520E2920758F43E
:1028B000811531E0930708F099C0803F910508F435
:1028C00093C0906593C0811540E4940708F48CC0D0
:1028D0009F70906A8BC0811525E5920708F042C071
:1028E000811534E5930728F0982F8827846F906A24
:1028F0007DC0811543E59407B0F09C012370332718
:1029000041E050E002C0440F551F2A95E2F7282FFE
:102910002695269580E2289F90011124CA01822BDA
:10292000932B9A6863C0811522E5920728F4982FAB
:102930008827816F906A5AC09C012370332741E039
:1029400050E002C0440F551F2A95E2F7282F269524
:10295000269580E2289F90011124CA01822B932B97
:102960009C6844C0EC01811539E59307A8F48115F2
:10297000984528F09C2F8827806F906A37C0C11532
:1029800086E5D80788F58C2F0E9405138F7190E09B
:10299000982F882790622AC081152AE5920790F423
:1029A0008C2F8F700E94051394E0D695C7959A9549
:1029B000E1F7CF70D0E0DC2FCC27D0699E01282B27
:1029C000C90114C090568115904270F48D2F8F71FB
:1029D0000E940513282F2F71CE0199279062922B08
:1029E00005C081E090E002C080E090E0DF91CF91EF
:1029F0000895CF9384E090E00E941628C82F82E2C9
:102A000090E00E9416282C2F30E0A901582BCA0113
:102A1000CF91089580E090E00E942428893E9E4F47
:102A200011F40C94921D80E0089569EE7EEF80E031
:102A300090E00E94472860E082E090E00E942A280F
:102A400060E083E090E00E942A281092680160E034
:102A500084E090E00E942A2860E082E290E00E94F8
:102A60002A2860E085E090E00E942A2860E086E065
:102A700090E00E942A286FEF87E090E00E942A28C9
:102A800040E050E0BA0188E090E00E943B2860E01E
:102A90008DE090E00E942A2840E050E0BA0188E1F1
:102AA00090E00E943B2860E087E190E00E942A28A5
:102AB00040E050E0BA018CE190E00E943B2860E0E9
:102AC00070E080E290E00E94472840E050E0BA01C8
:102AD00088E190E00E943B2880E00E94651D0E94F2
:102AE000831D40E050E0BA018FE090E00E943B2857
:102AF00040E050E0BA0183E190E00C943B288091E3
:102B0000670181111092670108959091660180918B
:102B10006501892B20916401982F922B90932301BA
:102B200080916701882389F0892B80932301E5E256
:102B3000F1E097E080E0915029F021912223D9F330
:102B40008F5FF9CF81110E947F15E091A701F0916D
:102B5000A801309731F00280F381E02D83E291E00B
:102B600009940895CF93C091EE00C2FB992790F984
:102B7000981781F080FBC2F9C093EE006091ED00E0
:102B800084E090E00E942A286C2F82E290E0CF91AE
:102B90000C942A28CF910895209163018095822377
:102BA00080936301982F977041F430E0482F082EEE
:102BB000000C550B2417350721F49091EE0092FF7D
:102BC00007C08595859585950E94CE251092630155
:102BD00008958091620190913101891719F08F5FFA
:102BE0008770FBCF08950F931F93CF93DF9380914E
:102BF000300182958F7009F05DC080912D0188238E
:102C000009F458C0809162011091310160912B014B
:102C100070912C01C0912E01D0912F0191E06F3F56
:102C200009F090E0292F06E0811709F443C02097AE
:102C300021F07F3F21F030E003C031E001C0322FAE
:102C400090E030FD34C0089FF001099FF00D112481
:102C5000DF01AE5CBE4F11963C911197371327C030
:102C60003C91361324C012963C91129731111FC02B
:102C700013964D915C9114974C1B5D0B483C51058C
:102C8000B0F4809130018F70806180933001E95CF5
:102C9000FE4F80818F70806180838BE291E00E9483
:102CA0004B06DF91CF911F910F910C94E91501967E
:102CB0008770BACFDF91CF911F910F910895CF9375
:102CC000DF93EC010E944425BE010E94E6240E948D
:102CD0005F13DF91CF9108959F92AF92BF92CF92F1
:102CE000DF92EF92FF920F931F93CF93DF93CDB7B5
:102CF000DEB761970FB6F894DEBF0FBECDBF8C0173
:102D000085E0F801DE011D9601900D928A95E1F7AC
:102D1000F801E28090912B0160912C0140912E01ED
:102D200050912F014115510531F06F3F31F481E091
:102D30009F3F19F403C081E001C080E0F82FF170DB
:102D40009F2E80FD1AC1F80130812181C380D4807B
:102D50008BE2A82E81E0B82EF0902D01F601E41B45
:102D6000F50BFF2009F4C6C080913001E83CF10565
:102D700008F091C0482F407F09F050C0621311C085
:102D800093130FC0FE2CE1100CC08F7080618093F4
:102D90003001C5010E944B0680913001F801858306
:102DA00029C1CD2831F02F3F31F481E03F3F19F4A4
:102DB00003C081E001C080E080FD03C081E08E257A
:102DC00002C080E090E0F82FF170FF2E80FF1CC061
:102DD000809162014091310156E0841709F4E8C006
:102DE00090E0589FF001599FF00D1124EE5CFE4FCA
:102DF0006181261306C06081631303C06281E612FD
:102E000003C001968770E9CFFE2CEE2009F4F2C0D2
:102E10008091300181608093300149C0621306C007
:102E2000931304C0E11002C0F80186C0C8010E94DB
:102E3000E925882351F1EE2041F120913001822FC4
:102E400082958F7090E0029774F080912B019091A1
:102E50002C0198878F831986DB86CA862C87CE0142
:102E600007960E944B0686E0F801ABE2B1E00190C4
:102E70000D928A95E1F70E94F3150AC06217C9F016
:102E8000C8010E94E92581111EC0C8010E944B069D
:102E9000FF24F394AFC0482F407F81F78BE291E08D
:102EA0000E944B0686E0F50111928A95E9F7F12C14
:102EB000A1C09313E5CFE110E3CFF8018583C801EA
:102EC0000E944B0654C0EE2001F320913001822F66
:102ED00082958F7090E0029734F280912B0190914F
:102EE0002C019A8389831B82DD82CC822E83CE01C2
:102EF0000196B7CFE83CF105D0F5FE2CEE2029F283
:102F0000621327C0931325C02091300120FD18C003
:102F1000822F82958F70482F50E04115510581F026
:102F2000F80125834F30510541F08F5F982F92951E
:102F3000907F822F8F70892B8583C8010E944B065A
:102F400086E0F801ABE2B1E001900D928A95E1F7DD
:102F500051C0C8010E94E925811185CF80913001BF
:102F6000816080933001C8010E944B0643C086E017
:102F7000F50111928A95E9F73DC0EE2009F485CF5D
:102F8000C8010E94E925F82E882309F47ECF86E047
:102F9000F801ABE2B1E001900D928A95E1F78091E2
:102FA0002B0190912C010E945F160E94F31522C004
:102FB0003D872E878D859E850E945F16292F22953D
:102FC0002F70223028F49F7039F0811105C00BC09A
:102FD000243028F49F7049F4805E883020F0C801C6
:102FE0000E944B069F2CF92C05C0F8019581907F1B
:102FF00099F7F9CF8F2D61960FB6F894DEBF0FBE0B
:10300000CDBFDF91CF911F910F91FF90EF90DF9097
:10301000CF90BF90AF909F9008958F929F92AF9264
:10302000BF92CF92DF92EF92FF920F931F93CF93B5
:10303000DF93CDB7DEB760970FB6F894DEBF0FBE53
:10304000CDBFAE014F5F5F4F7A0180E1DA011D9283
:103050008A95E9F700E810E06A01AA24A394B12C4C
:10306000F80180818F3F09F44DC0F894E82FE29574
:10307000EF70F0E021A98F70A50102C0440F551F29
:103080008A95E2F7CA01922F982B91AB92A980956D
:10309000892382AB789400C0E8E8F0E020E030E0DB
:1030A000812C912C81918F3FC1F0A82FA295AF70F8
:1030B000B0E0D0964C9150E08F70DA0102C0B59527
:1030C000A7958A95E2F7A0FD08C0C501022E02C0AF
:1030D000880F991F0A94E2F702C080E090E0882AE6
:1030E000992A2F5F3F4F2B303105E1F6F80180819F
:1030F0008F3F11F00E944813F8E7FA95F1F7D601D7
:103100008D929C920F5F1F4FB2E0CB0ED11CE0E07E
:1031100008381E0709F0A4CF40E150E0B7018FEE58
:1031200090E00E94152911E0009709F410E0892B26
:1031300089F080E1F701AFEEB0E001900D928A9541
:10314000E1F781E080936B010E94FA2390936A017A
:103150008093690180916B018823B1F080916901AE
:1031600090916A010E94EB23059770F0EFEEF0E07A
:10317000A1E1B1E0819191918D939D9340E0EF3F6A
:10318000F407C1F710926B01812F60960FB6F89487
:10319000DEBF0FBECDBFDF91CF911F910F91FF908A
:1031A000EF90DF90CF90BF90AF909F908F90089559
:1031B000ECE9F1E0438121E1421B08F440E021E029
:1031C000628181810C948620ECE9F1E0438121E168
:1031D000420F08F44FEF21E0628181810C94862038
:1031E000ECE9F1E0628121E1621B08F460E021E09A
:1031F000438181810C948620ECE9F1E0628121E138
:10320000620F08F46FEF21E0438181810C948620E6
:10321000ECE9F1E0818121E04381628188500C94E6
:103220008620ECE9F1E0818121E043816281885FC1
:103230000C94862080919C01282F269530E0211542
:10324000310519F48170826005C02532310524F002
:103250008170886480939C010895CF92DF92EF92F1
:10326000FF926B017C010E941A19B701A60188E048
:1032700090E0FF90EF90DF90CF900C943B288091EE
:10328000A001882319F081508093A00160919C01D6
:1032900070919D0180919E0190919F010C942D1938
:1032A0008091A001833018F48F5F8093A00160911A
:1032B0009C0170919D0180919E0190919F010C94C1
:1032C0002D19ECE9F1E083E0808311828FEF828396
:1032D0008383148260817181828193810C942D1982
:1032E000AF92BF92CF92DF92EF92FF920F931F9314
:1032F000CF93DF93E82EF62EE901E42FF0E0611181
:1033000006C0E059FE4FE4914E2F2E2F71C0062FBC
:1033100010E0E059FE4F4491F42FC42ED12C26E04A
:10332000829FC00111242FEF30E0B9010E940228D2
:103330005BEA5603C001579F900D11248E0D911D1D
:103340008E0D911D582F550F580FD901A01BB10B91
:10335000AC9DC001AD9D900DBC9D900D1124E92F39
:10336000F59ED0011124AB2FBB277901EA1AFB0A85
:10337000EC9CD001ED9CB00DFC9CB00D11245901CA
:10338000A51AB108A09E7001A19EF00CB09EF00C91
:103390001124EF2CFF242E193F092C9D80012D9D17
:1033A000100D3C9D100D1124212F6230710591F0FC
:1033B00048F461157105E1F061307105B9F4242F0D
:1033C0004B2F16C06430710569F040F0663071050E
:1033D00079F00CC0242F492FE12F0AC0492FEF2F7D
:1033E0002B2F06C0292FE42F412F02C0292FEB2FAE
:1033F00049832883EA83DF91CF911F910F91FF903A
:10340000EF90DF90CF90BF90AF900895CF93DF9370
:1034100000D01F92CDB7DEB790919C0190FF0AC0FB
:103420009E012F5F3F4F0E9470194B8169818A81F5
:103430000E9435200F900F900F90DF91CF9108954B
:10344000803F39F490917B0197FF35C010927B014A
:1034500059C0813F29F490917B011916BCF32BC010
:1034600090917A01823F29F497FF25C010927A014A
:1034700049C0833F19F41916CCF31DC090917C010B
:10348000893F29F41916BCF410927C013BC08A3F95
:1034900019F497FF10C0F8CF8B3F39F490917D015C
:1034A00097FF09C010927D012DC08C3F21F49091AF
:1034B0007D011916BCF39CE0980F953080F421E053
:1034C00030E0A90102C0440F551F9A95E2F7CA01E6
:1034D00080959091790189238093790113C08D3F64
:1034E00021F4809173018E7F0BC08E3F21F4809177
:1034F00073018D7F05C08F3F29F4809173018B7F0D
:103500008093730180917A01811106C080917B01C3
:10351000811102C01092720180917C01811106C05C
:1035200080917D01811102C01092710108958091F6
:10353000730180FF08C060916F0070E0759567951A
:103540007595679521C081FF06C060916F0070E09E
:103550007595679519C082FF04C060916F0070E097
:1035600010C090917101992399F060916E009617A7
:10357000A0F780916F00899FC001112470E00E9424
:10358000CC286038710540F46115710519F406C046
:1035900061E070E0862F08958FE7089581E0089537
:1035A0008091730180FF0BC060916D0085E0689F82
:1035B000B001112475956795759567952BC081FFAE
:1035C00009C060916D0085E0689FB0011124759578
:1035D000679520C082FF07C060916D0085E0689FFD
:1035E000B001112417C0909172019923D1F060911C
:1035F0006C00961788F720916D0085E0289F900158
:103600001124929FA001939F500D112470E0CA01D4
:103610000E94CC286038710540F46115710519F4D9
:1036200006C065E070E0862F08958FE7089581E079
:103630000895803F21F40E94D01A819504C0813FF3
:1036400029F40E94D01A80937B010895823F21F4CF
:103650000E94D01A819504C0833F29F40E94D01A99
:1036600080937A010895893F19F40E94971A05C042
:103670008A3F31F40E94971A819580937C010895C6
:103680008B3F21F40E94971A819504C08C3F29F446
:103690000E94971A80937D0108959CE0980F9530C1
:1036A00078F421E030E0A90102C0440F551F9A953B
:1036B000E2F7CA0190917901892B809379010895ED
:1036C0008D3F21F48091730181600BC08E3F21F406
:1036D00080917301826005C08F3F29F4809173014E
:1036E0008460809373010895893289F1F0F4843104
:1036F00071F1B0F4873009F077C08EE180936B00F0
:1037000082E380936A008AE080936D0084E1809375
:103710006C0088E080936F0088E280936E0064C044
:1037200092EE980F9A30F0F05FC0803509F444C0F3
:1037300028F48F3409F058C08AE03FC0813529F061
:10374000823509F051C081E038C08FEF36C08091DA
:103750007001882379F11092700110926F0110921C
:103760006E0142C08D5180937001833099F038F41E
:10377000813069F08230D9F48AE690E00DC085305E
:1037800099F078F0863099F48EE690E005C08BE6EB
:1037900090E002C08DE690E090936F0180936E01FF
:1037A00023C08CE690E0F8CF8FE690E0F5CF109242
:1037B00070011AC080E0089586EFE0916E01F091EB
:1037C0006F01309789F02081082E000C990B820F31
:1037D000911D8F3F910519F014F08FEF04C097FFF2
:1037E00002C0108201C0808381E008958B3109F40A
:1037F00074C058F58B3009F49AC078F4863009F417
:1038000046C020F4853009F44CC093C0873009F4D9
:1038100056C0883009F48BC08CC0803109F470C068
:1038200068F48E3009F085C080916D0182FB2227FB
:1038300020F991E0922790FB82F958C0863109F473
:1038400076C0893109F473C074C08A32E9F060F43B
:10385000873209F467C028F48E3108F46AC08D51AC
:103860005AC08932F1F065C0833450F48A3308F0CD
:1038700051C0853309F456C0883309F458C059C083
:10388000833409F44FC055C00E94151550C0809173
:103890006D01817F8E7F80936D0181E080936C014B
:1038A00008950E9415262FEB87E299E02150804071
:1038B0009040E1F700C000000E94AC2338C0809126
:1038C0006D01982F9095917090FB80F980936D0118
:1038D00091112DC0897F877F10C080916D0181FB80
:1038E000222720F991E0922790FB81F980936D01C6
:1038F0009923E9F080916D01816080936D0117C07B
:1039000080916D0183FB222720F991E0922790FBA3
:1039100083F9ECCF895391E001C0990F8A95EAF7BA
:10392000892F01C081E00E94E5250E94152681E0D3
:10393000089580E0089590919C0190FF3DC09170A2
:10394000811102C0926006C0853210F0986402C0F6
:10395000880F982B90939C01662351F060919C01F5
:1039600070919D0180919E0190919F010E942D195F
:1039700060919C01669570E04BE050E080E790E03C
:103980000E940829892B19F01092850109C081E055
:10399000809385010E94FA2390937F0180937E019A
:1039A00081E08093810120E040919F0160919E0120
:1039B00080919D010C948620089580919C018695AC
:1039C000815009F484E261E00C949B1C80919C017D
:1039D00086958F5F853208F081E061E00C949B1C36
:1039E0000E94FA2320917A01211104C020917B01C9
:1039F000222321F0909377018093760120917C011E
:103A0000211104C020917D01222321F090937501A2
:103A100080937401E091A701F091A801309749F0DB
:103A200082E0809378010480F581E02D88E791E0C1
:103A3000099408950895CF93DF93EC01ECE9F1E048
:103A4000438162818C810E94061A8C818F5F8C83F6
:103A5000DF91CF910895CF93DF93EC01EC81F0E0FB
:103A6000EB58FD4F4491ECE9F1E0628181810E94C5
:103A7000061A8C818F5F8C83DF91CF9108950F930D
:103A80001F93CF93DF93C42FD0E0CC0FDD1F26E12F
:103A9000629FC00DD11D112430EB839FC00DD11D3D
:103AA0001124CE0187960E941628082F10E0102FAF
:103AB0000027CE0188960E9416289801282BC9015C
:103AC000DF91CF911F910F910895CF93C82F81114E
:103AD00002C06FEF01C061E283E290E00E942A28F9
:103AE000C11102C06FEF01C061E184E290E00E9469
:103AF0002A28C11102C06FEF01C066E285E290E0A2
:103B0000CF910C942A2880E00E94651D60E086E237
:103B100090E00E942A280E94F3240E94D62481E08B
:103B20000C94651D83E290E00E941628813281F496
:103B300084E290E00E941628813151F485E290E001
:103B40000E94162891E0863209F090E0892F01C08A
:103B500080E081700895CF92DF92EF92FF928430DF
:103B600038F4811106C09FB59F7D9FBD949804C015
:103B700083E09FB590629FBD282F30E0AFEFBFEF8D
:103B80000E949F2823E030E040E050E00E947D2822
:103B9000B42FA32F922F8827492F5A2F6B2F7727C7
:103BA000CA014C3724E1520728F469E070E00E9412
:103BB000022829C0DB01CA018A50974DAF4FBF4F81
:103BC0006627782F892F9A2F25EF38E241E050E0C1
:103BD0000E947D2869017A01CA01B9010E94AE28BC
:103BE0009B01AC01C701B6010E94AE28BB27A92FDB
:103BF000982F872F009721E0A207B10511F0BC0193
:103C000002C06FEF7FEF79BD68BDFF90EF90DF904E
:103C1000CF900895682F86E090E00C942A28843095
:103C200008F083E09091A1019770282F220F220FB6
:103C3000220F922B9093A101987F21E009F420E0BC
:103C40009091A10120FB90F99093A1010C94AB1DE0
:103C50000E940A1581110AC00E9415158091A101C8
:103C6000847089618093A1010E940A1E86E090E021
:103C70000E9416288093A101282F26952695269527
:103C800030E02430310524F0877088618093A101F1
:103C90008091A10180FF04C086958695869501C01C
:103CA00080E00C94AB1D90919C0190FF04C0969510
:103CB000981740F003C0811105C090E0961710F4EA
:103CC0000C94E61C61E00C949B1C882311F0FA0113
:103CD00001C0FB01099480919C0180FF0AC0809182
:103CE0008601811111C00E94292781E080938601FD
:103CF0000BC0EAE8F1E0118210821282339681E073
:103D0000EC39F807C1F7EBCF24E630E042E150E0B0
:103D10006AE871E080EB0C94DC27EF92FF920F933E
:103D20001F93CF93DF938C01CAE8D1E0E12CF12CF3
:103D3000F8018481F3E0EF16F1041CF4882339F0D4
:103D400002C0811104C09E0140919F0102C09E01EA
:103D500040E060919E0180919D010E9470198FEF5B
:103D6000E81AF80A239696E0E916F10409F70E948A
:103D70006B1EF801848190E00196817099278483FD
:103D8000DF91CF911F910F91FF90EF9008958F9247
:103D90009F92AF92BF92CF92DF92EF92FF920F93DA
:103DA0001F93CF93DF93EC014C81042F10E0980117
:103DB000D8010E949F289B01AC010E946A286B01D8
:103DC0007C01E0E2F0E0E01BF10BA5E5B0E09B0137
:103DD000AC010E946A284B015C019F01DF010E9437
:103DE000ED289B01AC010E9475289B01AC012C0DB4
:103DF0003D1D4E1D5F1DC501B4010E947D28822F0F
:103E0000F22E99E2921728F093E0299F9001112455
:103E10000DC025E530E0281B3109C901880F991F25
:103E2000280F391F37FF02C02F5F3F4F3595279569
:103E3000122F10959AE8C92E91E0D92E00E085E561
:103E4000E82EEF1801FD02C08E2D01C08F2D9601C6
:103E5000412F60919E010E9470190F5F83E0C80E90
:103E6000D11C063079F70E946B1E8C81811102C033
:103E700091E003C0803219F49FEF90937D00909100
:103E80007D00890F8C83DF91CF911F910F91FF905F
:103E9000EF90DF90CF90BF90AF909F908F9008955C
:103EA0000F931F93CF93DF93CAE8D1E0FE011182F5
:103EB00010821282339681E0EC39F807C1F700E0F6
:103EC00010E080918801082E000C990B0817190743
:103ED00094F080917C00082E000C990B80179107BC
:103EE00054F09E0140919F0160919E0180919D013F
:103EF0000E94701903C0198218821A820F5F1F4F27
:103F0000239606301105E9F60E946B1E80917B0016
:103F100090918801980F9093880120917C00280F40
:103F200020937C00121614F495301CF08195809338
:103F30007B00DF91CF911F910F910895BF92CF9297
:103F4000DF92EF92FF920F931F93CF93DF93FC01C9
:103F5000828180FF03C0DD24DA9402C0DD24D39483
:103F60000AE811E0C0E0D0E026E0B22EF8011182AC
:103F70001082128294E0E92EF12CC12C80918701ED
:103F80008C0D87302CF06B2D0E94BE28892F02C02B
:103F900087FD8A5F082E000C990BC817D90791F48A
:103FA00080919F018E9DA0018F9D500D11245595EC
:103FB000479555954795980160919E0180919D0187
:103FC0000E947019CD0CF1E0EF1AF108B9F62196B4
:103FD0000D5F1F4FC630D10549F60E946B1E8091C0
:103FE000870191E0D91206C0811102C085E007C0A7
:103FF000815005C090E00196BE010E94CC288093BC
:104000008701DF91CF911F910F91FF90EF90DF908B
:10401000CF90BF900895EF92FF921F93CF93DF93BD
:10402000EC018AE8E82E81E0F82E10E08C819701FF
:1040300040919F0160919E01810F0E947019165D51
:1040400083E0E80EF11C1C3F89F70E946B1E9A81E9
:104050008C8190FF02C08F5F01C081508C83DF9103
:10406000CF911F91FF90EF90089590919C0190FF48
:104070000CC0EAE8F1E0818360834283339691E0EB
:10408000EC39F907C1F70C946B1E08950F931F9339
:10409000CF93DF9300D01F92CDB7DEB78C01809114
:1040A000890181110AC09E012F5F3F4F4FEF6FEFD3
:1040B0000E9470198A8180938901F801848181307E
:1040C00051F028F0823061F4409189010AC080915A
:1040D000890140E007C06091890140E080E003C0B1
:1040E00040E080E060E00E943520F801848190E0AB
:1040F000019663E070E00E94CC2884830F900F90BB
:104100000F90DF91CF911F910F9108955F926F9261
:104110007F928F929F92AF92BF92CF92DF92EF9257
:10412000FF920F931F93CF93DF9300D01F92CDB7D1
:10413000DEB7182F762E042F622E90919C0190FFEF
:104140006DC0E92FE695AE2FB0E0AC53BF4F8C9118
:10415000809384019E7F923061F49E012F5F3F4FD8
:10416000812F0E9470194B8169818A810E943520BC
:1041700043C0823019F400919F013EC0863019F48B
:1041800010919D0139C08930D9F38931A9F5E951E0
:104190008E2F8170582EE695F0E0E059FD4FA590E6
:1041A000B4908AE8C82E81E0D82EE12CF12CBB24F3
:1041B00096E0892E912CAE9CC001AF9C900DBE9CC8
:1041C000900D1124B4010E940228812F511002C0C9
:1041D000860F01C0861B9601402F672D0E94701923
:1041E0008FEFE81AF80A83E0C80ED11C86E0E816C3
:1041F000F10409F70E946B1E10939D0170929E01BD
:1042000000939F01662051F060919C0170919D0187
:1042100080919E0190919F010E942D190F900F9007
:104220000F90DF91CF911F910F91FF90EF90DF9052
:10423000CF90BF90AF909F908F907F906F905F9046
:104240000895FC0193819330D9F068F4913081F0A6
:10425000923009F068C08AE597E0909369028093F4
:1042600068028BE50895913251F19232E1F15BC021
:1042700085EB97E0909369028093680282E108954C
:1042800082818130A1F058F0823009F04CC082E187
:1042900097E090936902809368028AE1089586E529
:1042A00097E0909369028093680284E008958EE21B
:1042B00097E0909369028093680286E20895828174
:1042C000813049F028F0823071F585EA97E005C029
:1042D0008CE697E002C085E897E0909369028093AE
:1042E000680289E00895848195818130910599F073
:1042F00050F00297C1F485E396E0909369028093B1
:1043000068028BE7089582ED96E0909369028093AE
:10431000680280E4089580EB96E0909369028093B0
:10432000680282E2089580E0089580916302089512
:1043300080916A02982F9670963011F4886001C0BF
:10434000877F0C94CA25CF93DF938091B40283506A
:1043500087FDE4C09091B302CCE0D0E0C91BD10945
:10436000CA54DD4F9091B2029031D0F4883019F0E8
:1043700010925802D1C080915802E82FF0E0E93144
:10438000F105B4F7E85CFD4F9E01285F3F4F99911E
:1043900091932C173D07D9F7885F80935802BCC0D2
:1043A0009D3209F0A0C0883009F0B6C083EC80933C
:1043B0008E028AE580937F00109267028881807662
:1043C000D9F1803209F084C08981813069F48C810F
:1043D0009D81892B09F07CC08AE592E09093690267
:1043E0008093680288E075C0823041F489E592E0EC
:1043F000909369028093680281E06BC08A3021F457
:104400008B818093590264C0893009F061C08A8130
:104410009B818115924009F0DCC08C819D81892BA4
:1044200009F0D7C081E0809366028E819F819093CE
:10443000650280936402CDC09A81109297028981AF
:10444000811106C01092980227E932E082E03BC059
:10445000853019F49093B50233C08630B9F48B815E
:10446000813041F0823031F0833021F0813211F01F
:10447000823221F4CE010E94212101C080E090E42B
:10448000909367028F3F09F4A4C023C0883089F05D
:10449000893019F49093620213C08A3069F08B302E
:1044A00079F48BE480939A028093CD028093A602E4
:1044B00007C022E632E002C027E932E081E003C013
:1044C00027E932E080E0309369022093680201C05E
:1044D00080E09F81911104C09E81981708F4892F74
:1044E00080937E0019C08091670287FF15C080917C
:1044F000640290916502892B09F475C0809166026F
:10450000813009F070C08881809363021092650247
:104510001092640210927E001092B40280917F008B
:1045200084FF4CC080917E008F3F09F447C0C82FA4
:10453000893008F0C8E08C1B80937E0090918E0239
:1045400088E8892780938E02CC2359F180916802F4
:10455000909169022091670226FF12C0AEE8B2E096
:104560002C2FAC014E585240FA01EA0FFB1FE49188
:104570001196EC931197215011962111F5CF08C097
:10458000EFE8F2E0DC012C2F3D9131932150E1F76F
:1045900001962FEF2C0F820F911D9093690280934B
:1045A00068026C2F8FE892E00E943F04CC5FCC3011
:1045B00019F08FEF80937E00C0937F0084E190B369
:1045C0009C70A9F48150D9F71092B5021092B102F3
:1045D0000EC0888187FF05C08E8190E890936702A6
:1045E0007FCF8FEFFACF8EE180937F0095CFDF9161
:1045F000CF9108951F93CF93DF93162FEA0128815F
:1046000024FF05C0398128E82327298302C02AE531
:104610002883212FFC01CE010296DC0131913D93CC
:1046200021501216DCF3612F0E943F041C5F188397
:10463000DF91CF911F9108952091CC0224FF05C0F6
:104640004CEC52E066E00C94FA2208959091370207
:10465000981307C02091350230913602261737078C
:10466000B9F08093370270933602609335028093DD
:10467000320270933402609333028091CC0284FF43
:1046800007C04CEC52E063E082E392E00C94FA2223
:104690000895BC0184E00C942623BC0183E00C94B3
:1046A0002623CF93DF93CAE0D0E08091990284FF64
:1046B0001AC080913002909131029817F1F028E0F1
:1046C000829FC001112449E952E068E080559E4F65
:1046D0000E94FA228091300290E001968F70992713
:1046E000809330020AC00E94A32187EB9BE00197D0
:1046F000F1F700C000002197C1F6DF91CF91089536
:10470000CF93DF93EC01A0913102B0E0CD0101968F
:104710008F70992720913002281779F093E0AA0F23
:10472000BB1F9A95E1F7A055BE4F98E0FE0101909E
:104730000D929A95E1F7809331020E94A3210E9485
:10474000512388E0FE01AAE5B2E001900D928A951E
:10475000E1F7DF91CF91089560E081E090E00E9461
:104760004D2887E090EBDC018093D8029093D9022A
:10477000A093DA02B093DB029CE088E10FB6F894D4
:10478000A89581BD0FBE91BDFFCF78941F920F9267
:104790000FB60F9211248F939F93AF93BF93809185
:1047A000AC019091AD01A091AE01B091AF01019625
:1047B000A11DB11D8093AC019093AD01A093AE01FA
:1047C000B093AF01BF91AF919F918F910F900FBEAA
:1047D0000F901F9018959C014FB7F8948091AC01F1
:1047E0009091AD01A091AE01B091AF014FBF821B7E
:1047F000930B08952FB7F8948091AC019091AD017F
:10480000A091AE01B091AF012FBF08958091AB018F
:10481000882331F080E00E94AB1D80E00C944506B7
:1048200008959C01FC0132969FEF80E0419146176C
:1048300089F09F3F19F4411101C0982F8F5F863096
:10484000A9F79F3F39F0F901E90FF11D97FDFA959E
:104850006283089508952091A9013091AA01281733
:10486000390771F09093AA018093A901E091A70103
:10487000F091A801309721F00084F185E02D099492
:1048800008952091A5013091A6012817390771F0EC
:104890009093A6018093A501E091A701F091A80152
:1048A000309721F00680F781E02D09940895E0917A
:1048B000A701F091A801309721F00190F081E02D3F
:1048C000099480E008950F931F93CF93DF93C42F33
:1048D000D22FFC0182818823C9F04093A4010E9459
:1048E000FA239093A3018093A20180E28C0F883079
:1048F00008F057C0C77081E001C0880FCA95EAF779
:10490000DF91CF911F910F910C942B268091A401E0
:10491000481330C08091A2019091A3010E94EB2323
:10492000883C910538F510E21D0FCD17B9F080E2F3
:104930008C0F883040F4C77081E001C0880FCA95A1
:10494000EAF70E942026183028F581E09D2F977005
:1049500001C0880F9A95EAF70E942B26802F0E94AB
:104960000B271830F0F4D77081E001C0880FDA957A
:10497000EAF70AC080E28C0F883098F4C77081E0B3
:1049800001C0880FCA95EAF7DF91CF911F910F916F
:104990000C942026802FDF91CF911F910F910C94C2
:1049A0000B27DF91CF911F910F910895CF93DF9344
:1049B000C7EED2E060E0CE010E942A282196C11500
:1049C00084E0D807B9F7DF91CF910895462F84305E
:1049D00038F4783028F46B3018F4672F0C943F1DAE
:1049E00080E090E00895CF92DF92EF92FF920F93D4
:1049F0001F93CF93DF93C0E0D0E08E0100551F4F8F
:104A00006E0186E1C80ED11CFE01EB58FC4FE5900B
:104A1000F4906F2DCE0187960E942A286E2DCE012C
:104A200088960E942A282296CC15DD0569F70C1776
:104A30001D0731F7E801003C1240F9F6DF91CF91F4
:104A40001F910F91FF90EF90DF90CF90089580E03D
:104A500090E00E94412480E090E00E942B2410927C
:104A60006501109264010E948515E8E7F1E086E097
:104A7000DF011D928A95E9F710927201109271017F
:104A8000109273010C94F01CCF92DF92FF920F935F
:104A90001F93CF93DF936C0100916A0280916801AC
:104AA000082BC7E0D0E010E0C8010C2E02C095959D
:104AB00087950A94E2F780FD04C02197A8F7F12CAE
:104AC00009C0FC2EB6018C2F0E94E6240E945F13C1
:104AD000019799F38F2DDF91CF911F910F91FF9047
:104AE000DF90CF9008952BE0929F800D1124682FC6
:104AF000669566956695982F977083E0689FB001DC
:104B0000112440E050E080E0FB01E40FF51FE5597F
:104B1000FD4F208130E0092E02C0369527950A947A
:104B2000E2F721703327042E01C0220F0A94EAF71E
:104B3000822B4F5F5F4F4330510531F708952BE0D3
:104B4000929F800D1124E82FE695E695E6958770F3
:104B500051E001C0550F8A95EAF783E0E89FF00124
:104B60001124E559FD4F20E030E070E04081CB0199
:104B7000022E02C0969587950A94E2F7817081957E
:104B800084278523842781932F5F3F4F233031056E
:104B900069F7089580936A020C94272521E030E09C
:104BA00001C0220F8A95EAF7209580916A0282233C
:104BB0000C94CA2521E030E001C0220F8A95EAF763
:104BC00080916A02822B0C94CA25809368010C9410
:104BD0002725FC01808191810E945F16292F2F706B
:104BE000E92FE295EF704E2F50E0FA013297EE3048
:104BF000F105B8F4E75BFF4F0C94E028803F99F093
:104C000018F4883E70F40FC0843F59F40CC0883EFD
:104C100050F0813F31F407C0822F869586958695A6
:104C2000089580E0089581E008951092660186E07D
:104C3000E5E2F1E0DF011D928A95E9F70C94272562
:104C4000882341F0809590916601892380936601C5
:104C50000C9485150895882339F090916601892B6D
:104C6000809366010C94851508958823E1F19CEFEB
:104C7000980F913A60F4E3E2F1E09281891301C068
:104C80001282319641E0E932F407B9F714C090E29C
:104C9000980F983090F4877021E030E0A90102C0AD
:104CA000440F551F8A95E2F7CA01809590916601DD
:104CB0008923809366010C9485159BE5980F9330AA
:104CC00020F480E090E00C94412498E5980F97310F
:104CD00020F480E090E00C942B24803F20F00E9490
:104CE000201A0C94F01C0895CF93882309F491C0E6
:104CF000C82F8CEF8C0F813AB8F580916C01813010
:104D000081F030F0823041F58C2FCF910C94741BE0
:104D100080916601823209F05EC08C2F0E94F61BE2
:104D200020C0809166018232C1F3C43191F060F4F9
:104D3000CB30A9F0C03109F04CC082E080936C0107
:104D400088E30E94741B0BC0C93219F0C83339F0D4
:104D500040C010926C013DC010926C013CC081E0DB
:104D60008170811156C037C080E28C0F883078F492
:104D7000C77081E090E001C0880FCA95EAF7909172
:104D80006601892B80936601CF910C948515EBE524
:104D9000EC0FE33040F4F0E0ED56FF4F808190E0FF
:104DA000CF910C944124E8E5EC0FE73150F4F0E0AA
:104DB000EE0FFF1FEA56FF4F80819181CF910C9437
:104DC0002B24C03F30F18C2F0E94191BCF910C94E3
:104DD000F01C80E0C5CFE5E2F1E08BE291E02191AB
:104DE000C21721F08E179F07D1F70DC0E3E2F1E063
:104DF0008281C81301C01282319681E0E932F8073E
:104E0000B9F70E9485156C2F83E291E00E9411246E
:104E1000BBCFCF9108951F93CF93DF93182F893382
:104E200019F0C0E0D0E002C0C0E5D0E0812F0E94C0
:104E30007426209741F087EB9BE00197F1F700C0C3
:104E400000002197F6CF812FDF91CF911F910C9415
:104E5000352611B887E080B985B3836085BB86B7F6
:104E6000846086BF86B7816086BF86B7806486BF50
:104E700008959F92AF92BF92CF92DF92EF92FF92EE
:104E80000F931F93CF93DF93B82EEB010E94FA2369
:104E90006C01C431D10558F0CF3F8FEFD80759F0DE
:104EA000CE0164E170E00E9402287B0107C0EE247D
:104EB000E394F12C03C025E0E22EF12C84E8A82E27
:104EC00094EA992E16BE96BE0E94FA238C0106B66D
:104ED00007FC08C00E94FA23801B910B8E159F05CA
:104EE000B0F324C081B1887F883039F081B1887FE8
:104EF000803119F00FEF1FEF1BC0B3B8A6BE0E94A0
:104F0000FA238C0106B607FC08C00E94FA23801B16
:104F1000910B8E159F05B0F309C081B1887F883150
:104F200011F0803439F700E010E00DC00EEF1FEFF4
:104F3000CF3F8FEFD80731F2C6010E94EB238C17C9
:104F40009D0708F4BFCFC801DF91CF911F910F914A
:104F5000FF90EF90DF90CF90BF90AF909F9008951B
:104F60000F931F93CF93DF93EB0183B984E886BF40
:104F70000E94FA238C0106B607FC0EC0CF3F8FEFCC
:104F8000D807C9F30E94FA23801B910B8C179D0749
:104F900090F38EEF9FEF0BC021B1287F81E090E06E
:104FA000283211F480E090E0919581959109DF918C
:104FB000CF911F910F910895CF92DF92EF92FF92C0
:104FC0000F931F93CF93DF936B018A017901B9018E
:104FD0000E943927E6010C0D1D1DC017D10759F499
:104FE00024E926BFDF91CF911F910F91FF90EF90A1
:104FF000DF90CF90089597FDF3CFB70189910E947C
:10500000B027EBCFAA1BBB1B51E107C0AA1FBB1FD8
:10501000A617B70710F0A61BB70B881F991F5A9544
:10502000A9F780959095BC01CD010895E199FECF37
:105030009FBB8EBBE09A99278DB30895A6E1B0E09F
:1050400044E050E00C945C28A8E1B0E042E050E07D
:105050000C945C28262FE199FECF9FBB8EBBE09A73
:1050600001970DB2021631F02DBB0FB6F894E29AFB
:10507000E19A0FBE08950396272F0E942B280E94C5
:105080002A28252F0E942B28242F0C942B280196A8
:10509000272F0E942B280C942A28262FE199FECF37
:1050A0009FBB8EBB2DBB0FB6F894E29AE19A0FBE60
:1050B00001960895DC01CB01FC01E199FECF06C009
:1050C000FFBBEEBBE09A31960DB20D9241505040BD
:1050D000B8F708950E949F28A59F900DB49F900D4A
:1050E000A49F800D911D11240895B7FF0C946A2888
:1050F0000E946A28821B930B0895A1E21A2EAA1B14
:10510000BB1BFD010DC0AA1FBB1FEE1FFF1FA21777
:10511000B307E407F50720F0A21BB30BE40BF50B74
:10512000661F771F881F991F1A9469F760957095FD
:10513000809590959B01AC01BD01CF010895A29F80
:10514000B001B39FC001A39F700D811D1124911D5B
:10515000B29F700D811D1124911D0895DB018F9365
:105160009F930E946A28BF91AF91A29F800D911DCD
:10517000A39F900DB29F900D1124089587FB082ED8
:10518000062687FD819567FD61950E94FC280EF437
:10519000919507FC8195089597FB072E16F40094CE
:1051A00007D077FD09D00E94022807FC05D03EF405
:1051B000909581959F4F0895709561957F4F0895C3
:1051C000EE0FFF1F0590F491E02D099469279627B3
:1051D000692778278727782708950E949F283323F7
:1051E00012F48A1B9B0B0C94F7280E949F28B7FF90
:1051F0000895821B930B0895991B79E004C0991FB1
:10520000961708F0961B881F7A95C9F78095089520
:10521000FC014150504030F001900616D1F7319713
:10522000CF010895882799270895FB01DC0104C068
:105230008D910190801921F441505040C8F7881B8E
:08524000990B0895F894FFCFCB
:10524800952180231C234D234923321E140A280844
:1052580001191A1B1C1D1E1F202122010201FF5AC1
:105268006061626364656667909192939495323346
:10527800343507818283E200E900EA00B500B60010
:10528800B700CD008301CC008A019201940121026C
:10529800230224022502260227022A02B300B400B0
:1052A8006F007000000102020202060606090909E1
:1052B8000909090F0F0F0F0F0F15151518191919CF
:0A52C80019191919191919232400E6
:00000001FF
