:100000000C944F030C940C280C9496030C949603B8
:100010000C9496030C9496030C9496030C949603FC
:100020000C9496030C9496030C9440300C9412316B
:100030000C94C72A0C9496030C9496030C94960384
:100040000C9496030C9496030C9496030C949603CC
:100050000C9496030C943C2B0C9496030C949603EE
:100060000C9496030C9496030C9496030C949603AC
:100070000C9496030C9496030C9496030C9496039C
:100080000C9496030C9496030C9496030C9496038C
:100090000C9496030C9496030C9496030C9496037C
:1000A0000C9496030C9496030C9496033107310735
:1000B00063076307B007B708B708B708CE07360865
:1000C00047084708A708B708B708B00853095309F5
:1000D000650965095C0965096509650953095309DD
:1000E0006109650965096109012304232423352376
:1000F0003D2348234B234E235123972397235423F7
:1001000057235C236923762379237D238A237F3138
:10011000A6319E32A6319E32F23115329E326C32B9
:100120007B32290014001A000800150017002B006C
:1001300004001600070009000A00E1001D001B0072
:10014000060019000500E000E300E2004C00015148
:100150002C00A800130012000C0018001C0028003E
:1001600033000F000E000D000B00E50038003700D3
:100170003600100011002D00340030002F00025115
:100180002A0035001E001F0020002100220001006F
:1001900001000100520001000100010001005000B7
:1001A00051004F0001000100010001000100015158
:1001B0000100010027002600250024002300010083
:1001C0000100230022002100010001003100200075
:1001D0001F001E0001002E003100370027002700FD
:1001E00001003A003B003C003D003E003F00C55C82
:1001F000C75CC95CC35C0100C25CC65CC85CCA5C0D
:10020000C45C0100C25C01000100010001000100AA
:10021000010045004400430042004100400001004D
:100220000100010001000100010001005200010075
:100230000100010001004F00510050000100025177
:1002400001000100010001000100010001000100A6
:100250000100010001000100010001000100010096
:100260000100010001000100010001000100010086
:100270000100010001000100010001000100010076
:100280000100010001000100010001000100010066
:100290000100010001000100010001000100010056
:1002A000010000000000000000002A2B28000000D0
:1002B0000000000000000000000000000029000015
:1002C00000002C1E3420212224342627252E362DF2
:1002D0003738271E1F202122232425263333362E8C
:1002E00037381F0405060708090A0B0C0D0E0F10FE
:1002F0001112131415161718191A1B1C1D2F313043
:10030000232D350405060708090A0B0C0D0E0F10E6
:100310001112131415161718191A1B1C1D2F313022
:10032000354C00000000000000000000000000004C
:1003300000000000000000000000000000000000BD
:100340000000000000007E0F00D4FFFFFFC7000088
:10035000007800047F3F1F643214643214783C1E1E
:100360001E140A052223252628292A2C2D2F303257
:10037000333536383A3B3D3E4042434547494A4C87
:100380004E5051535557595A5C5E606264666869B5
:100390006B6D6F71737577797B7D7F8183858789BD
:1003A0008A8C8E90929496989A9C9E9FA1A3A5A7C2
:1003B000A8AAACAEAFB1B3B4B6B8B9BBBCBEBFC1EE
:1003C000C2C3C5C6C7C9CACBCCCDCED0D1D2D2D379
:1003D000D4D5D6D7D7D8D9D9DADADBDBDBDCDCDC8D
:1003E000DCDCDDDDDDDDDCDCDCDCDCDBDBDBDADA50
:1003F000D9D9D8D7D7D6D5D4D3D2D2D1D0CECDCCC7
:10040000CBCAC9C7C6C5C3C2C1BFBEBCBBB9B8B6DB
:10041000B4B3B1AFAEACAAA8A7A5A3A19F9E9C9A66
:1004200098969492908E8C8A89878583817F7D7B34
:1004300079777573716F6D6B6968666462605E5C15
:100440005A5957555351504E4C4A494745434240DB
:100450003E3D3B3A3836353332302F2D2C2A292871
:1004600026252322FFAA7F5540000102030405062A
:10047000070F0E0D0C0B0A09080001010101010113
:10048000010101020202020202020202030303034B
:10049000030303030404040404040405050505051B
:1004A00006060606060707070707080808080909D9
:1004B00009090A0A0A0B0B0B0C0C0C0D0D0D0E0E84
:1004C0000E0F0F0F10101111111212131314141517
:1004D0001516161717181819191A1A1B1B1C1D1D8B
:1004E0001E1E1F20202122222324242526262728E1
:1004F00029292A2B2C2D2D2E2F3031323233343511
:10050000363738393A3B3C3D3E3F40414243444513
:10051000464748494A4C4D4E4F50515354555658F2
:10052000595A5B5D5E5F616264656668696B6C6D9C
:100530006F7072737577787A7B7D7E808283858712
:10054000888A8C8E8F91939596989A9C9EA0A2A350
:10055000A5A7A9ABADAFB1B3B5B7BABCBEC0C2C455
:10056000C6C9CBCDCFD1D4D6D8DBDDDFE2E4E7E915
:10057000EBEEF0F3F5F8FAFDFF0C037A0070006C77
:1005800000690074000000100366006C00750078BC
:10059000006C006100620000000403090409025BB2
:1005A00000030100A0FA0904000001030101000991
:1005B00021110100012240000705810308000A09FA
:1005C00004010002030000000921110100012222A0
:1005D000000705820320000107050303200001092D
:1005E0000402000103000000092111010001223270
:1005F000000705840320000A120100020000000821
:10060000767001000100010200010660FF0961A18E
:10061000010962150026FF00952075088102096313
:10062000150026FF00952075089102C0050109807C
:10063000A101850319012AB700150126B70095010C
:1006400075108100C0050C0901A101850419012A5A
:10065000A002150126A002950175108100C00501B8
:100660000906A101050719E029E7150025019508EC
:10067000750181029501750881010507190029FF9F
:10068000150026FF00950675088100050819012947
:1006900005950575019102950175039101C011241D
:1006A0001FBECFEFDAE0DEBFCDBF04B603FE27C02A
:1006B0008091470390914803A0914903B0914A0368
:1006C0008730904BA740B04BD1F410924703109263
:1006D00048031092490310924A0314BE84B7877FDF
:1006E00084BF0FB6F894A8958091600088618093CC
:1006F0006000109260000FBEE0E0F8E3099512E0A0
:10070000A0E0B1E0E4EAF7E602C005900D92A43162
:10071000B107D9F723E0A4E1B2E001C01D92A734EC
:10072000B207E1F70E94D6170C94D0330C94000066
:1007300023E042E061E00C94F803662311F08AEABA
:1007400001C089EA0E94E70681E0089581E00895EA
:1007500081E008950C94A80308950C94AC031F93B2
:10076000CF93DF9300D000D01F92CDB7DEB749837F
:100770005A836B833091160289819A81311114C09A
:10078000662359F0222349F00E944B0A182F682F44
:1007900089819A810E94F20903C00E941E0A182FC3
:1007A00069817A81812F04C00E944B0A69817A8114
:1007B0000F900F900F900F900F90DF91CF911F919E
:1007C0000C946924FC01262F408151816281738140
:1007D00084810C94AF0381E00895CF93DF93EC0103
:1007E00060E00E94E203BE01DF91CF910C94AD0363
:1007F000E1E0F0E0DF0102C0AA0FBB1F6A95E2F75B
:10080000BD01DF0102C0AA0FBB1F4A95E2F7AD018F
:10081000462B01C0EE0F2A95EAF7942F982349132F
:1008200002C08E2B0895E0958E230895242F462F25
:10083000682F809129020E94F8030C94AF090E944E
:10084000EB120E9470050C941B130C94171308955F
:100850000E9441090E9427042FEF84E39CE021506D
:1008600080409040E1F700C000000C94622B0F9391
:100870001F93CF93DF938C0161E00E94E203EC01B0
:10088000B8010E945922882309F44BC0B801CE0157
:100890000E94AA03882309F444C0B801CE010E9433
:1008A000B6258823F1F1B801CE010E9408268823DD
:1008B000C1F1B801CE010E943A27882391F1B80115
:1008C000CE010E944C20882361F1F80182818823A7
:1008D00009F1CA358DE5D807C1F050F4C115FCE522
:1008E000DF0781F0CE3DDC45A9F40E94D00F19C08E
:1008F000CB35EDE5DE0761F0CC35DD4559F40E94DE
:10090000550E08C00E9428040CC00E945E0E02C052
:100910000E94610EC801DF91CF911F910F910C943D
:10092000A60380E0DF91CF911F910F910895DF9290
:10093000EF92FF920F931F93CF93DF93E82FF0E096
:10094000EE55FD4FD490282F26952695269530E01C
:10095000F901EE5BFC4F0491877010E0082E02C095
:10096000159507950A94E2F701701127F901EE5CDD
:10097000FC4FE490F12C082E02C0F594E7940A9401
:10098000E2F791E0E922FF24F901EE5DFC4FC4910A
:10099000D0E002C0D595C7958A95E2F7C170DD27F2
:1009A0000115110519F081EE0E94CA05E114F10448
:1009B00019F086EE0E94CA058D2D0E94E706EF28E9
:1009C00019F086EE0E947106012B19F081EE0E944B
:1009D0007106CD2B51F08CE2DF91CF911F910F91D9
:1009E000FF90EF90DF900C94E706DF91CF911F917D
:1009F0000F91FF90EF90DF900895EF92FF920F9389
:100A00001F93CF93DF93EC01162F0AE08881882390
:100A100009F455C0813009F043C08981813041F427
:100A20007E0182E0E80EF11C8A810E94E70609C07F
:100A3000823049F47E01E2E0EE0EF11C8A810E94D0
:100A4000CA05E7012FC0833041F47E01F2E0EF0ECA
:100A5000F11C8A810E947106F4CF843011F0219636
:100A600021C02A81229680E090E030E020533109B5
:100A70002A30310558F4089FA001099F500D112418
:100A8000C901840F951F21962881EFCF009751F05F
:100A9000EFE9FFE03197F1F700C000000197F6CFD2
:100AA0000E9497042196812F882309F4AFCFEFE9A4
:100AB000FFE03197F1F700C000008150F5CFDF91E2
:100AC000CF911F910F91FF90EF90089560E00C94EB
:100AD000FD0408950C94690581E008950C946C055B
:100AE0000895CF93C82F0E946A058C2F0E946E052F
:100AF000CF910895CF93DF93CDB7DEB72B970FB685
:100B0000F894DEBF0FBECDBF4F83588769877A87C1
:100B10008B8761110E94840E9E012F5F3F4F86E0FC
:100B2000F90111928A95E9F785E0FE013796D9011E
:100B300001900D928A95E1F789819A814C815D81BE
:100B4000452B31F09F3F31F491E08F3F19F403C002
:100B500091E001C090E090FF09C049815A816B810A
:100B60007C818D819E810E94840D05C0C9010E94F7
:100B7000EB038111F2CF2B960FB6F894DEBF0FBEB8
:100B8000CDBFDF91CF910895FC01808191810E94BA
:100B9000780A0895CF93882309F4A1C0C82F82381A
:100BA000C1F40E94902981FD9AC069E380910001FF
:100BB000909101010E941C2A0E94B60E2FEF81EE37
:100BC00094E0215080409040E1F700C0000069E3CC
:100BD00019C0833801F50E94902980FD80C063E52B
:100BE00080910001909101010E941C2A0E94B60E82
:100BF0002FEF81EE94E0215080409040E1F700C05B
:100C0000000063E580910001909101010E941E2A7D
:100C1000CF910C94B60E8438C1F40E94902982FDC5
:100C20005EC067E480910001909101010E941C2A3E
:100C30000E94B60E2FEF81EE94E02150804090404C
:100C4000E1F700C0000067E4DDCF8CEF8C0F813A44
:100C5000F8F48C2F0E947F18811141C06C2F809175
:100C60000001909101010E94E629882349F06C2F30
:100C700080910001909101010E941E2A0E94B60EEF
:100C80006C2F80910001909101010E941C2AC0CF1D
:100C900080E28C0F883048F4C77081E001C0880F73
:100CA000CA95EAF70E94670EB3CFEBE5EC0FE3308D
:100CB00040F4F0E0E557FE4F808190E0CF910C9436
:100CC000AE29C85AC73158F4EC2FF0E0EE0FFF1FE1
:100CD000E35AFE4F80819181CF910C94C429CF912A
:100CE0000895882309F45BC0682F823879F40E9444
:100CF000902981FF54C069E3809100019091010126
:100D00000E941C2A0E94B60E69E310C08338B1F419
:100D10000E94902980FF43C063E58091000190917B
:100D200001010E941C2A0E94B60E63E58091000119
:100D3000909101010E941E2A0C94B60E843879F419
:100D40000E94902982FF2BC067E48091000190915E
:100D500001010E941C2A0E94B60E67E4E7CF8CEFC7
:100D6000860F813A18F380E2860F883048F4677066
:100D700081E001C0880F6A95EAF70E946D0EDCCF12
:100D80008BE5860F833020F480E090E00C94AE2950
:100D9000685A673120F480E090E00C94C4290895EB
:100DA0001F93CF93DF93182FEB010E94CA05209762
:100DB00041F08FE99FE00197F1F700C00000219713
:100DC000F6CF812FDF91CF911F910C94710689335B
:100DD00019F060E070E002C060E570E00C94D006AD
:100DE000882321F00E94670E0C94B60E0895882384
:100DF00021F00E946D0E0C94B60E0895CF92DF92F2
:100E0000EF92FF920F931F93CF93DF937C01062FF6
:100E1000C72FFC01D281158112951F700E943C0ED4
:100E2000882399F0DD2389F08C2F807F803421F096
:100E300080E2800F883048F082E00E94060F0E9416
:100E40003C0E91E0D82ED92601C0D12CCC2EC294D4
:100E50008FE0C8228C2D90E0FC01EA5AFF4F0C94E1
:100E600027338C2F807FCF70882311F0C295C07FED
:100E7000DD2399F0CC2309F455C180E2800F88303E
:100E800010F0011104C08C2F0E94670E03C08C2F3C
:100E90000E94770E0E94B60E45C1802F0E947106F7
:100EA000CC2309F464C180E2800F883010F0011176
:100EB00004C08C2F0E946D0E03C08C2F0E947D0EEB
:100EC0000E94B60E54C18C2F807FCF70803211F0FB
:100ED000C295C07F002319F00130C9F022C0DD2384
:100EE00071F0112341F0113031F40E94970E8C2BD8
:100EF0000E949F0E3CC10E94970E8C2B1DC0112397
:100F000019F0113009F433C10E94AC0E25C0DD2365
:100F100021F0163008F02BC10EC0153008F027C1A3
:100F20001BC0DD2361F0112331F0F701858180FFC3
:100F3000F9C08F7085838C2F0E94F00618C1112391
:100F400059F0093309F0FFC0FFEF27EE83E0F150BD
:100F500020408040E1F7F5C08C2F0E94F70607C1C2
:100F60008C2F86958695837019F0813061F0FFC0D3
:100F7000DD2321F0802F9C2F937002C080E090E051
:100F80000E94AE29FCC0DD2321F0802F9C2F93709E
:100F900002C080E090E00E94C429F1C08C2F8370D1
:100FA00079F5D111E8C0402F429546954770440F1E
:100FB000440F202F2F70042E01C0220F0A94EAF74D
:100FC00004FF08C08FE090E001C0880F4A95EAF75F
:100FD000809501C080E0C695C695C370822BC23053
:100FE00049F058F4C13019F00E94A309C4C00E940E
:100FF0009E09C1C00E94A809BEC00E949C09BBC036
:10100000DD2319F08C2F817001C08695882309F4A7
:10101000B2C0402F429546954770440F440F202F91
:101020002F70042E01C0220F0A94EAF704FF08C0B3
:101030008FE090E001C0880F4A95EAF7809501C0E3
:1010400080E0C695C695C370822BC23049F058F433
:10105000C13019F00E94E7098EC00E94E2098BC0DE
:101060000E94EC0988C00E94AF0985C0CF70DD23C3
:1010700039F08C2F0E94C009802F0E94F0067BC09F
:10108000802F0E94F7068C2F0E94CB0974C0023F6C
:1010900001F128F4003F41F0013FA1F03FC0033FC0
:1010A000F9F0043F39F13AC0DD2341F0153008F082
:1010B0005EC08C2F8F710E94D70959C0163008F07E
:1010C00056C0F7CFDD2339F08C2F8F710E94C009F5
:1010D0004EC0DD23C9F38C2F8F710E94CB0947C00E
:1010E000DD2329F08C2F8F710E94B80940C00E9427
:1010F000B5093DC0DD2349F0CF718C2F0E94C00996
:1011000063E08C2F0E94EB0E32C081E00E94060F3C
:10111000123068F182E00E94060F29C0DD2331F011
:10112000112391F2802F0E94CA0521C0112399F248
:10113000093349F49FEFE7EEF3E09150E040F040CF
:10114000E1F700C00000802F0E94710610C04C2FF4
:101150004F70602FC7010E94D4100E94A60A0FC0D2
:101160004C2F4F70602FC7010E94D71008C088EF26
:101170008C0D843020F40E9490290E947105DD209E
:10118000C9F00E94380E80FD15C0F70112820E943E
:10119000320E0E94C009C7010E94FB080E94320E55
:1011A000DF91CF911F910F91FF90EF90DF90CF9043
:1011B0000C94CB09DF91CF911F910F91FF90EF908D
:1011C000DF90CF9008950F931F93CF93DF93EC019F
:1011D000688179818A810E94830A8C010E94F109C9
:1011E0000E949009B801CE010E94FE06DF91CF91C6
:1011F0001F910F910895CF93DF93EC01988189811E
:101200002B813C81232B31F08F3F31F481E09F3FD4
:1012100019F403C081E001C080E080FD19C0CE0157
:101220000E94370481110CC00E943C0E882381F07B
:101230008A81882369F082E0DF91CF910C94060FB8
:10124000CE010E94E308CE01DF91CF910C94ED0313
:10125000DF91CF91089580E090E00E94AE2980E078
:1012600090E00E94C4290E94840E0E94940E0C9467
:10127000B60E80910001909101010E94202A0C94E9
:101280002B090E94740E0C943909E92FE295EF7036
:101290004E2F50E0FA013297EE30F105B0F4EA59E2
:1012A000FF4F0C942733803F91F018F4883E68F488
:1012B0000EC0843F51F40BC0883E48F0813F29F4B2
:1012C00006C093FB882780F9089580E0089581E0A7
:1012D0000895FC01808191810E94780A0E9445094D
:1012E0000895CF93DF9300D000D01F92CDB7DEB723
:1012F0000F900F900F900F900F90DF91CF91089566
:10130000CF93DF9300D000D000D0CDB7DEB72696C4
:101310000FB6F894DEBF0FBECDBFDF91CF91089519
:10132000089508950C9491090C9492090E949409CF
:1013300080932A020C942B090C94960990912A020E
:10134000892B0C94960990912A0289230C94960972
:1013500090912A0289270C9496090C9498030E9474
:10136000AD09809329020C942B0980E00C94AF09FD
:1013700091E001C0990F8A95EAF7892F0C94AF0983
:1013800021E030E001C0220F8A95EAF7809129021E
:10139000822B0C94AF0921E030E001C0220F8A9526
:1013A000EAF720958091290282230C94AF0921E06D
:1013B00030E001C0220F8A95EAF780912902822746
:1013C0000C94AF0990912902892B0C94AF0990914C
:1013D000290289230C94AF099091290289270C9442
:1013E000AF090895292F220F920F990F890FE82F27
:1013F000E695E695E695877051E001C0550F8A9510
:10140000EAF783E0E89FF0011124E95EFD4F20E058
:1014100030E070E04081CB01022E02C096958795A6
:101420000A94E2F78170819584278523842781932C
:101430002F5F3F4F2330310569F70895292F220F81
:10144000920F990F890F682F669566956695982F6C
:10145000977083E0689FB001112440E050E080E085
:10146000FB01E40FF51FE95EFD4F208130E0092EFE
:1014700002C0369527950A94E2F721703327042E8F
:1014800001C0220F0A94EAF7822B4F5F5F4F43306F
:10149000510531F70895CF92DF92FF920F931F937A
:1014A000CF93DF936C010091290280912A02082BCF
:1014B000C7E0D0E010E0C8010C2E02C095958795DA
:1014C0000A94E2F780FD04C02197A8F7F12C07C029
:1014D000FC2EB6018C2F0E94F5110197A9F38F2DD8
:1014E000DF91CF911F910F91FF90DF90CF900895E2
:1014F000CF93DF93EC010E944B0ABE010E94F511CD
:10150000DF91CF9108951F93CF93DF93EB019091DB
:101510001602992321F0CB010E94780A13C0882378
:1015200049F0CB010E944B0A182F682FCE010E9470
:10153000F20904C0CB010E941E0A182FBE01812FA0
:101540000E94F511DF91CF911F910895EF92FF92C4
:101550000F931F93CF93DF938C01892B09F46CC0F9
:10156000F12CEE24E394E8012196F801849184376C
:1015700040F4843008F051C0813081F0823019F19C
:101580005BC0853709F444C0A8F19CE7980F9037F9
:1015900008F052C08F770E94710641C00E5F1F4F46
:1015A000FE01849190E2980F983050F48770FE2DE0
:1015B00001C0FF0F8A95EAF78F2F0E94870E14C093
:1015C0000E94CA052DC00E5F1F4FFE01849190E25C
:1015D000980F983060F48770FE2D01C0FF0F8A9538
:1015E000EAF78F2F0E948D0E0E94B60E19C00E943E
:1015F000710616C00E5F1F4FFE01C491CC2381F00F
:101600008FE99FE00197F1F700C00000C150F6CFCD
:101610000E5F1F4FFE01F49003C00E94CA058E01A9
:101620008F2D882309F49FCFEFE9FFE03197F1F781
:1016300000C000008150F5CFDF91CF911F910F9135
:10164000FF90EF9008951F93CF93DF93C0912B02EB
:1016500016E080912C02C81799F0D0E01C9FF00191
:101660001D9FF00D1124E35DFD4F4081518162818A
:101670007381848195810E9480092196C770E9CF8A
:10168000DF91CF911F91089540915D0250915E02CC
:1016900060915F027091600280916102909162029C
:1016A0000C9480090F931F93CF93DF938091620274
:1016B00082958F7009F05DC080915F02882309F4E4
:1016C00058C080912B0210912C0260915D027091A4
:1016D0005E02C0916002D091610291E06F3F09F01B
:1016E00090E0292F06E0811709F443C0209721F0EC
:1016F0007F3F21F030E003C031E001C0322F90E0A5
:1017000030FD34C0089FF001099FF00D1124DF0166
:10171000A35DBD4F11963C911197371327C03C91A3
:10172000361324C012963C91129731111FC01396A4
:101730004D915C9114974C1B5D0B483C5105B0F4E6
:10174000809162028F70806180936202EE5CFD4F37
:1017500080818F70806180838DE592E00E94FB081C
:10176000DF91CF911F910F910C94230B01968770FD
:10177000BACFDF91CF911F910F9108959F92AF92B1
:10178000BF92CF92DF92EF92FF920F931F93CF936E
:10179000DF93CDB7DEB761970FB6F894DEBF0FBE0B
:1017A000CDBF8C0185E0F801DE011D9601900D9200
:1017B0008A95E1F7F801E28090915D0260915E0206
:1017C00020916002309161022115310531F06F3FA7
:1017D00031F481E09F3F19F403C081E001C080E053
:1017E000F82FF1709F2E80FD3FC1F801408151819B
:1017F000A380B4808DE5C82E82E0D82EF0905F02E1
:10180000F501E21BF30BFF2009F4D9C080916202BD
:10181000E83CF10508F095C0282F207F09F052C060
:10182000561313C0491311C0FE2CE1100EC08F7067
:101830008061809362020E94440BC6010E94FB08F3
:1018400080916202F80185834CC1AB2831F05F3F83
:1018500031F481E04F3F19F403C081E001C080E022
:1018600080FD03C081E08E2502C080E090E0F82F6B
:10187000F170FF2E80FF1CC080912B0220912C0262
:1018800036E0821709F40BC190E0389FF001399FD0
:10189000F00D1124E35DFD4F6181561306C0608198
:1018A000461303C06281E61203C001968770E9CF38
:1018B000FE2CEE2009F415C18091620281608093B4
:1018C000620254C0561306C0491304C0E11002C09E
:1018D000F80199C0C8010E946909882361F1EE20CE
:1018E00051F120916202822F82958F7090E00297D1
:1018F00074F080915D0290915E0298878F831986C3
:10190000BB86AA862C87CE0107960E94FB0886E03C
:10191000F801ADE5B2E001900D928A95E1F70E94E1
:10192000520B0E94440B0AC0561711F1C8010E94C5
:10193000690981112CC0C8010E94FB08FF24F3949F
:10194000D0C0282F207F81F77A2DB98AA88A6E2DE2
:1019500089890E9471098DE592E00E94FB0886E06A
:10196000F60111928A95E9F70E94440BF12CB9C057
:101970004913DCCFE110DACFF8018583C8010E945A
:10198000FB0886E0F60111928A95E9F7AAC0EE20DD
:1019900091F220916202822F82958F7090E00297DF
:1019A0000CF4B5CF80915D0290915E029A83898399
:1019B0001B82BD82AC822E83CE010196A6CFE83C6D
:1019C000F10508F044C0FE2CEE2009F4B4CF561304
:1019D00030C049132EC02091620220FD21C0822F09
:1019E00082958F70482F50E041155105C9F0F801DC
:1019F00025834F30510541F08F5F982F9295907F4E
:101A0000822F8F70892B8583C8010E94FB0886E096
:101A1000F801ADE5B2E001900D928A95E1F73CC086
:101A200086E0F801ADE5B2E001900D928A95E1F70C
:101A300058C0C8010E946909811169CF8091620272
:101A4000816080936202C8010E94FB084AC07A2D1F
:101A5000B98AA88A6E2D89890E94710986E0F601EB
:101A600011928A95E9F718C0EE2009F464CFC801F5
:101A70000E946909F82E882309F45DCF86E0F801F9
:101A8000ADE5B2E001900D928A95E1F78DE592E027
:101A90000E94C4050E94520B0E94440B22C04D8735
:101AA0005E878D859E850E94780A292F22952F704A
:101AB000223028F49F7039F0811105C00BC024300A
:101AC00028F49F7049F4805E883020F0C8010E949D
:101AD000FB089F2CF92C05C0F8019581907F99F7A0
:101AE000F9CF8F2D61960FB6F894DEBF0FBECDBF34
:101AF000DF91CF911F910F91FF90EF90DF90CF90EA
:101B0000BF90AF909F9008951F93CF93DF93CDB771
:101B1000DEB72C970FB6F894DEBF0FBECDBF4F8354
:101B2000588769877A878B879C87CE0107960E94A2
:101B3000BE0B8823D1F09F8188852A853B85232B86
:101B400031F08F3F31F481E09F3F19F403C081E011
:101B500001C080E080FD47C04F81588569857A8546
:101B60008B859C850E9480093EC086E0FE013796E9
:101B7000DE01119601900D928A95E1F7FF81E885CB
:101B80006A857B856115710531F0EF3F31F481E0A5
:101B9000FF3F19F403C081E001C080E080FD23C055
:101BA00020912C0230E0C90101968770992740915D
:101BB0002B0250E084179507F1F1F983EA837D83C6
:101BC0006C8396E0929FD001939FB00D1124A35D8A
:101BD000BD4FFE01319601900D929A95E1F78093E9
:101BE0002C020E94230B16E080912B0290912C0274
:101BF000891771F1189FC0011124835D9D4F0E94C8
:101C0000BE0B882329F1E0912B021E9FF0011124C5
:101C1000E35DFD4F408151816281738184819581B3
:101C20000E94800980912B0290E00196877099278D
:101C300080932B02D9CF0E94410910922C0210925E
:101C40002B02EDE5F2E086E0DF011D928A95E9F7CF
:101C50002C960FB6F894DEBF0FBECDBFDF91CF91AB
:101C60001F910895809163028595859585950895C6
:101C7000809163028770089590916302977081E06C
:101C800009F480E008959091E90292FB222720F95F
:101C9000281751F080FB92F99093E9028091E802B5
:101CA0009091E9020C944D0F08958091E90282FB16
:101CB000882780F991E089270C94430E81E00C94E9
:101CC000430E80E00C94430E80916F020895909132
:101CD0006F02892B80936F020895809590916F0217
:101CE000892380936F02089510926F020895909156
:101CF0006E02892B80936E020895809590916E02FA
:101D0000892380936E02089510926E020895909137
:101D10006D02892B80936D020895809590916D02DC
:101D2000892380936D02089510926D020895809129
:101D30006402089508950C949A0E0C949B0E909151
:101D4000E90292FD08C090916402981721F08093F7
:101D500064020C949D0E089580916402882329F0FA
:101D60001092640280E00C949D0E0895E0910001B1
:101D7000F091010180916F028083E0910001F09168
:101D80000101908180916E02892B8083E091000196
:101D9000F0910101908180916D02892B8083809167
:101DA0006402882381F0E0910001F09101019081AB
:101DB000892B808380910001909101010E94DA2992
:101DC00081110E94AC0E80910001909101010C9450
:101DD000A3290C949A0E9091E90292FD10C098E00C
:101DE000899F90011124262B209363020E94C00931
:101DF000809163028595859585950C94E90E0C94E8
:101E0000C0091092630280E00C94E90E20916302F5
:101E10008095822380936302982F977041F430E07D
:101E2000482F082E000C550B2417350721F49091EC
:101E3000E90292FF07C08595859585950E94CB099B
:101E40000C94010F08956FEF7FEF80E090E00C9409
:101E5000BA3380E090E00E949633893E9E4F11F4A1
:101E60000C94FC2180E0089582E090E00C9488338B
:101E700083E090E00C948833CF9384E090E00E945C
:101E80008833C82F82E290E00E9488332C2F30E004
:101E9000A901582BCA01CF910895CF93C92F682F5C
:101EA00084E090E00E949C336C2F82E290E0CF911E
:101EB0000C949C33AB01BC018FE090E00C94AE33EA
:101EC000AB01BC0183E190E00C94AE3360E070E0C4
:101ED000CB010C94600F60E070E0CB010E945A0FC0
:101EE0000C94660F69EE7EEF80E090E00E94BA33BA
:101EF00060E082E090E00E949C3360E083E090E04C
:101F00000E949C3310922A0260E084E090E00E94DC
:101F10009C3360E082E290E00E949C3360E085E0C8
:101F200090E00E949C3360E086E090E00E949C3349
:101F30006FEF87E090E00E949C3340E050E0BA01F0
:101F400088E090E00E94AE3360E08DE090E00E9477
:101F50009C3340E050E0BA0188E190E00E94AE334B
:101F600060E087E190E00E949C3340E050E0BA01DD
:101F70008CE190E00E94AE3360E070E080E290E09F
:101F80000E94BA3340E050E0BA0188E190E00E943C
:101F9000AE3380E00E9415220E9441220C946B0F08
:101FA0000C94720F682F8EE090E00C949C330E948A
:101FB000052B609381027093820280938302909339
:101FC000840260937D0270937E0280937F029093DF
:101FD000800208950E94052B609381027093820213
:101FE00080938302909384026093790270937A02C3
:101FF00080937B0290937C02089585B7806885BFAB
:1020000085B7806885BF08950C94C11408950C9419
:1020100006100C9406100C9409100C9406100C94E5
:102020000D100C9406100E94FD0F81ED92E10E94AC
:10203000862B0E9411100C940F100E9407100C9414
:1020400006100E94F02A0E94272A0E9450220E9415
:10205000C1130E942B250E943C1F0E9448210C9412
:102060000B109F92AF92BF92CF92DF92EF92FF92AE
:102070000F931F93CF93DF93CDB7DEB72A970FB699
:10208000F894DEBF0FBECDBF0E94361481110E94AE
:10209000D70F81E7A82E82E0B82E00E010E0902E46
:1020A000802F0E940513D82EF501C1905F01C8262C
:1020B000B1F40F5F1F4F0830110589F78FEF898347
:1020C0008A831B820E94F92A8160782F9D838C83EA
:1020D00049815A816B818D810E947A052FC0809140
:1020E000850281FD0E940B13E12CFF24F3948C2DBB
:1020F0008F21F1F00E940410882399F0EE829F82D4
:10210000DF2081E009F480E088870E94F92A81605D
:10211000782F9A8789874E815F8168858A850E949A
:102120007A05F801EF58FD4F8081F826F08206C04D
:10213000E394FF0CF6E0EF12DACFBBCF0E94741FDE
:102140000E94602181110E94EA0F0E9490299091C3
:1021500070028917B9F00E949029809370022A9624
:102160000FB6F894DEBF0FBECDBFDF91CF911F91A8
:102170000F91FF90EF90DF90CF90BF90AF909F9026
:102180000C9471052A960FB6F894DEBF0FBECDBF32
:10219000DF91CF911F910F91FF90EF90DF90CF9043
:1021A000BF90AF909F90089580E090E008950895CB
:1021B000880F991FFC01EE5AFC4F85919491089568
:1021C000CF93DF930E94FA11EC01811520E592076D
:1021D00008F041C0811540E4940708F0CBC0803E70
:1021E000910520F5803C910508F0B8C0883A91052A
:1021F00070F4853A910508F0A8C08130910509F482
:10220000A1C008F4EBC0049708F0EBC0E7C08F3B17
:10221000910508F0E3C0885AC82FD0E0CC0FDD1F2D
:10222000C257DE4F888199819464DCC0811550E2E9
:10223000950750F4C11581E0D80708F0D2C0C83E18
:10224000D10508F4CEC0CAC0811520E3920708F07A
:102250008AC09F7085C0811545E5940708F046C087
:10226000811554E5950708F09DC0C11582E5D80792
:1022700018F5C11521E5D20708F07FC0CE01F4E0C2
:1022800096958795FA95E1F7282F23703C2F3370A8
:1022900081E090E002C0880F991F3A95E2F79C68B0
:1022A000922B2C2F2F702695269540E2249F90018B
:1022B0001124822B932B96C09E01237033279C2FD1
:1022C00096959695C115D34508F05CC041E050E065
:1022D00002C0440F551F2A95E2F780E2989F9001B3
:1022E0001124CA01822B932B9C687CC0811559E56F
:1022F000950798F4C11588E5D80708F058C0C115AE
:1023000026E5D20708F06AC08C2F0E948E128F71CA
:1023100090E0982F8827906265C081154AE5940760
:1023200008F44AC090568115904208F057C08D2F8E
:102330008F710E948E129E01332730628F71A90126
:10234000582B4AC081E090E04DC0855AC82FD0E09C
:10235000C454DE4F888190E0906444C0805C910951
:102360000E94D8103FC09927D3FF02C0986C3AC092
:10237000906C38C09F70906A35C09C2F8827816F01
:10238000906A30C041E050E002C0440F551F2A95CA
:10239000E2F780E2989F90011124CA01822B932BCF
:1023A0009A6820C0982F8827846F906A1BC09C2F42
:1023B0008827806F906A16C08F700E948E129E01CF
:1023C00094E0369527959A95E1F72F7030E0322FFB
:1023D00022273069A901482BCA0104C080E090E09F
:1023E00001C0CE01DF91CF9108950E9469240E941F
:1023F000E01008958238910569F1B0F481339105B8
:1024000009F46DC048F48932910509F463C08A3239
:10241000910509F469C008958533910509F455C003
:1024200089339105B9F00895833E910569F138F437
:10243000803E9105B1F0823E910509F10895863EF6
:102440009105A9F1873E9105B9F1843E910509F006
:1024500064C023C02091E80220FD4FC021FD4DC083
:1024600008958091E80280FD44C08091E90280FFD8
:1024700044C08091E80284FD42C083EE4DC080914B
:10248000E80282FF38C0F5CF8091E80282FD33C0B8
:102490008091E90280FD31C0ECCF8091E90281FF9B
:1024A00032C08091E80284FD2AC087EE35C0809159
:1024B000E80283FF26C0F5CF8091E80283FD21C0AA
:1024C0008091E90281FD1FC0ECCF8091E80285FD7B
:1024D0001CC01DC08091E80285FD19C016C0809106
:1024E000E80286FD16C017C08091E80286FD13C081
:1024F00010C089E311C082EE0FC080EE0DC080E0F5
:102500000BC086EE09C084EE07C089E205C085E3F2
:1025100003C08AE201C081E390E008959091E8024F
:1025200092FF0DC0282F2871283019F4877F84600E
:1025300006C0282F2471243011F48B7F886093FF0C
:102540000DC0282F2871283119F4877E846106C0B8
:10255000282F2471243111F48B7E88612091E902A7
:1025600020FF0DC0382F3871383019F4877F816013
:1025700006C0382F3171313011F48E7F886021FF11
:102580000DC0282F2871283119F4877E816106C07B
:10259000282F2171213111F48E7E886194FD877E70
:1025A000089580E008950C94230F0E9436148FE361
:1025B0009CE90197F1F700C000000E94361480E00A
:1025C0000E94051380FF04C00E94D3120C94622B5A
:1025D00008950C94D5120E94290F811102C00E9407
:1025E000D00F0E94340F809385020E943C0F90937D
:1025F000E9028093E8020E94E9120E94380F0E94CB
:102600009C09809129020C94AD09E82FF0E0EE506E
:10261000FD4F80810895089580EA8A95F1F7089525
:1026200000C008950C940C1308950C9414130C948A
:1026300015130C9414130C941913F894E82FE295C5
:10264000EF70F0E031A1282F2F7081E090E001C001
:10265000880F2A95EAF7982F9095932391A392A13A
:10266000892B82A37894089508950C9434130F93C2
:102670001F93CF93DF93C5ECD1E089918F3F11F089
:102680000E941D1381E0C93CD807B9F7CFEBD1E018
:1026900005EC11E089918F3F11F00E941D130C177A
:1026A0001D07C1F7DF91CF911F910F910895CF9230
:1026B000DF92EF92FF920F931F93CF93DF938C01E2
:1026C000C62FD0E0CE018B539E4F7C01FC01908140
:1026D0009F3F09F44DC0D62EF894E92FE295EF7094
:1026E000F0E081A19F7021E030E001C0220F9A95B7
:1026F000EAF7822B81A382A12095282322A3789434
:102700000E941013EFEBF1E020E030E0C12C51E02B
:1027100041914F3FB1F0A42FA295AF70B0E09096D9
:102720008C9190E04F7002C0959587954A95E2F79D
:1027300080FD07C0852F022E01C0880F0A94EAF79A
:1027400001C080E0C82A2F5F3F4F2630310501F7D6
:10275000F70180818F3F11F00E941D1361E0C110CD
:1027600001C060E08D2D0E941213C00FD11FC882DE
:10277000DF91CF911F910F91FF90EF90DF90CF905D
:1027800008950E94E6148091020180910201811156
:1027900002C094E001C090E09093FB0284E0891BAA
:1027A0008093FA020E943713EAEEF2E0A2EFB2E061
:1027B00011921D9282E0E23FF807D1F784E00E9477
:1027C0008A140E941F040C94FA141F93CF93DF9372
:1027D00000D000D0CDB7DEB70E94C1146091FB02DB
:1027E000882371F119821A821B821C82862F90E045
:1027F000BE016F5F7F4F8E509D4F0E940815E09184
:10280000FA029E012B5F3F4FF0E0EE50FD4FDE01DC
:102810001196882361F010E08D919081981711F046
:10282000808311E03196A217B307B1F706C0119269
:102830001D92A217B307D9F711E00E9425040DC01D
:1028400070E06E507D4F8091FA0290E08E509D4F67
:102850000E9498150E94351310E0812F0F900F9061
:102860000F900F90DF91CF911F910895EF92FF92FB
:102870000F931F93CF93DF93CDB7DEB728970FB693
:10288000F894DEBF0FBECDBF8E010F5F1F4F88E0F3
:10289000F80111928A95E9F7F12C6F2DC8010E9479
:1028A0005713F394F4E0FF12F8CF48E050E0B8017A
:1028B0008AEE92E00E9472337C0121E0892B09F4B8
:1028C00020E0E114F10441F088E0F801AAEEB2E062
:1028D00001900D928A95E1F76091FB0270E06E50D5
:1028E0007D4F44E08AEE92E00E948B14EF2819F4A9
:1028F0000E94E51302C081E090E028960FB6F8949C
:10290000DEBF0FBECDBFDF91CF911F910F91FF9022
:10291000EF9008950895FF920F931F93CF93DF9345
:102920008C01F62ED72FC42F222349F081E080930B
:1029300088020E94F92A90938702809386028091F0
:1029400088028823C1F080918602909187020E94BC
:10295000112B059780F0EF2DFD2FD8014C2F50E063
:10296000CD01801B910B841795071CF48D918193E9
:10297000F7CF10928802DF91CF911F910F91FF90B6
:102980000895CF9380918B02811116C0C2E30E94FB
:10299000D73281110AC08FE39CE90197F1F700C09B
:1029A0000000C150A1F782E001C081E080938B025A
:1029B000823011F40E94D23281E090918B029130EA
:1029C00009F080E0CF9108950C94C1140E94E414A2
:1029D000809302018091020168E0882311F080E079
:1029E00001C088E00E9450190E94C11481110C940A
:1029F000401508950E94C114811102C00C94421523
:102A0000089581E090918C029A3008F080E008955A
:102A10000F931F93CF93DF93EC018B0180918C0276
:102A20008A3038F4B801CE010E94961581111DC07C
:102A30000AC08091890290918A020E94112B843FE2
:102A4000914080F715C080918C028F3F19F08F5F05
:102A500080938C0280918C028A3060F00E94F92A67
:102A600090938A028093890203C010928C0202C064
:102A700080E001C081E0DF91CF911F910F91089517
:102A80000C94C6270C94C927EF92FF920F931F93C3
:102A9000CF93DF937901C82F880FDD0B41155105C6
:102AA000A9F08AE08C9FF0018D9FF00D1124ED5F5D
:102AB000FE4F8381948183579D4F228130E04217DE
:102AC000530708F49A01A9010E947F33CE010E94A6
:102AD000D328892B09F50115110501F18AE08C9F96
:102AE000F0018D9FF00D1124ED5FFE4F458150E008
:102AF0000417150708F4A8018AE08C9FF0018D9F48
:102B0000F00D1124ED5FFE4F6681778163577D4F95
:102B1000C7010E947F3302C080E001C081E0DF91E5
:102B2000CF911F910F91FF90EF9008950C9445174E
:102B30000C9471170F931F93CF93DF9300D000D0A5
:102B4000CDB7DEB76091B0027091B1028091B20250
:102B50009091B3020E94202B643671058105910586
:102B600028F10E944D2ADC01CB010296A11DB11D66
:102B700089839A83AB83BC8300E010E020E030E0DF
:102B800044E050E0BE016F5F7F4F84E00E94441537
:102B9000182F882361F00E94052B6093B002709378
:102BA000B1028093B2029093B30201C011E0812F71
:102BB0000F900F900F900F90DF91CF911F910F9179
:102BC00008957F928F929F92AF92BF92CF92DF92A1
:102BD000EF92FF920F931F93CF93DF931F92CDB786
:102BE000DEB7762E4A015901680101E010E09E012E
:102BF0002F5F3F4F40E050E060E070E00E944415DE
:102C0000182F882379F1F401608171818281938189
:102C10000E94202B6436710581059105E0F0870143
:102C2000950140E050E060E070E0872D0E9444157F
:102C3000182FB701C6010E942C2591E02981281385
:102C400090E01923A1F00E94052BF40160837183A9
:102C5000828393830CC0B701C6010E942C25998101
:102C60008913DDCFA701B601C5010E947F33812FF3
:102C70000F90DF91CF911F910F91FF90EF90DF9018
:102C8000CF90BF90AF909F908F907F900895EF92DC
:102C9000FF920F931F93CF93DF931F92CDB7DEB7B1
:102CA0000091CD011091CE010A5F1F4FEE24E394F5
:102CB000F12C9E012F5F3F4F4CEA52E063E082E02F
:102CC0000E94E115182F882321F0CE0101960E9461
:102CD000BD21812F0F90DF91CF911F910F91FF9018
:102CE000EF900895CF92DF92EF92FF920F931F9390
:102CF000CF93DF9300D000D0CDB7DEB76B0100914A
:102D0000CD011091CE010F5F1F4F84E0E82EF12C12
:102D10009E012F5F3F4F48EA52E061E080E00E9451
:102D2000E115882361F049815A816B817C81409350
:102D3000A4025093A5026093A6027093A70240914B
:102D4000A4025091A5026091A6027091A702F6011B
:102D500040835183628373830F900F900F900F9085
:102D6000DF91CF911F910F91FF90EF90DF90CF9067
:102D70000895AF92BF92CF92DF92EF92FF920F939E
:102D80001F93CF93DF937C015B016A010E940115C1
:102D9000811103C001E010E002C00AE010E0C1E0D0
:102DA000D0E0F894B501C701F60109957894811136
:102DB00015C021960C171D0794F0CC9F9001CD9F54
:102DC000300D300D112480E090E045E34A95F1F795
:102DD0000000019682179307C1F7E3CF81E0DF91EE
:102DE000CF911F910F91FF90EF90DF90CF90BF9008
:102DF000AF9008950F931F93CF93DF93CDB7DEB7B6
:102E000028970FB6F894DEBF0FBECDBFCE01019656
:102E10000E94271E18856091B4027091B5028091BE
:102E2000B6029091B7020E94202B6436710581058D
:102E3000910510F41123D9F000E010E020E030E01B
:102E400048E050E0BE016F5F7F4F85E00E9444156F
:102E5000882359F00E94052B6093B4027093B50249
:102E60008093B6029093B70202C080E003C00E9434
:102E7000241E81E028960FB6F894DEBF0FBECDBFAA
:102E8000DF91CF911F910F9108950F931F93CF93CF
:102E9000DF93EC018B0142E756E10E94B9168823CB
:102EA000D1F047E456E1B801CE010E94B91688235B
:102EB00091F04AE955E1B801CE010E94B916882384
:102EC00051F04AEF56E1B801CE01DF91CF911F9149
:102ED0000F910C94B91680E0DF91CF911F910F9163
:102EE0000895CF92DF92EF92FF920F931F93CF93AB
:102EF000DF931F92CDB7DEB7F8940091CD0110910A
:102F0000CE01C801019624E0FB01DC0101900D9285
:102F10002A95E1F764E070E00E942C25F801808397
:102F20007894F894CE0101960E94B4218981F80129
:102F3000868361E070E0CE0101960E942C25F801A5
:102F400085837894F8946781708581859285C09097
:102F5000A002D090A102E090A202F090A3026C1512
:102F60007D058E059F0551F06093A0027093A1022C
:102F70008093A2029093A3020E94302A7894F8943E
:102F8000F8018289882339F060E0C8010B960E941D
:102F9000071FF801128A78940F90DF91CF911F914B
:102FA0000F91FF90EF90DF90CF9008950E94712ACB
:102FB0000E94FC2C0E94152D0E94272D0E941D109E
:102FC000FBCF8B3109F469C058F58B3009F48DC003
:102FD00078F4863009F446C020F4853009F44CC0FA
:102FE00088C0873009F44BC0883009F47EC081C0A6
:102FF000803109F465C068F48E3009F07AC08091A0
:10300000850282FB222720F991E0922790FB82F92A
:103010004DC0863109F469C0893109F466C069C0C0
:103020008A32E9F060F4873209F461C028F48E3105
:1030300008F45FC08D514FC08932F1F05AC083341B
:1030400050F48A3308F046C0853309F450C0883301
:1030500009F44BC04EC0833409F449C04AC00E94F1
:10306000D00F43C080918502817F8E7F809385023F
:1030700081E08093B80208950E94280436C08091B0
:103080008502982F9095917090FB80F9809385022E
:1030900091112BC0897F877F10C08091850281FBB1
:1030A000222720F991E0922790FB81F980938502F5
:1030B0009923D9F08091850281608093850215C0A3
:1030C0008091850283FB222720F991E0922790FBD3
:1030D00083F9ECCF895391E001C0990F8A95EAF703
:1030E000892F0E949C090E94410981E0089581E096
:1030F000F8CF80E0089580E008950C947B18CF937A
:10310000C82F8091B802882319F0813031F02BC08C
:103110000E94640E823249F504C00E94640E82321D
:1031200061F48C2F0E947D18811104C08C2F0E94A5
:10313000E11717C081E090E014C08C2F0E947B182B
:1031400081110EC0C43149F018F4CB3049F00FC0E2
:10315000C93219F0C83321F00AC01092B80207C072
:1031600081E0817006C01092B80280E002C080E069
:10317000F8CFCF910895EF92FF920F931F93CF93C3
:10318000DF938B01682F11110AC0442329F0E82F27
:10319000F0E0E758FB4F6491762F862F75C0212F02
:1031A00030E0E82FF0E0442321F0E758FB4FE491B2
:1031B000F0E046E0049FC0011124CFEFD0E0BE0153
:1031C0000E94DD324BEA4603C001479F900D112457
:1031D000800F911D800F911D982F990F890FAE01BF
:1031E000421B530B4E9FD0014F9FB00D5E9FB00D01
:1031F00011249B2F189FA0011124452F55278E01C4
:10320000041B150B0E9FA0010F9F500D1E9F500D0C
:1032100011247E01E81AF108E29E8001E39E100D60
:10322000F29E100D1124212F3327C21BD30BCE9FEA
:103230009001CF9F300DDE9F300D1124623071055B
:10324000A9F048F46115710569F061307105C9F4A0
:103250008B2F752F0DC06430710581F058F06630EA
:10326000710579F47E2F8B2F932F0DC0832F7B2F29
:103270009E2F09C08E2F7B2F952F05C08E2F732F69
:1032800002C07E2F852F692FDF91CF911F910F9163
:10329000FF90EF90089541E00E94BB1808950895B3
:1032A000E2E4F1E08083618308950E944B19089560
:1032B000CF93DF93762FE901682F842F0E94551951
:1032C000798368838A83DF91CF9108958091FD028D
:1032D000282F269530E02115310519F48170826080
:1032E00005C02532310524F0817088648093FD0289
:1032F000089588E090E00C949033CF92DF92EF92A3
:10330000FF926B017C010E946619B701A60188E05B
:1033100090E0FF90EF90DF90CF900C94AE336091EF
:10332000FD027091FE028091FF02909100030C94C7
:103330007D19EDEFF2E083E0808311828FEF8283CD
:1033400083831482A6ECB2E012968C91129783606C
:1033500012968C9360817181828193810C947D1986
:103360008091FD0280FF02C08695089580E0089557
:1033700090910103933018F49F5F90930103882389
:1033800051F06091FD027091FE028091FF029091D8
:1033900000030C947D19089581E00C94B819909164
:1033A0000103992319F0915090930103882351F060
:1033B0006091FD027091FE028091FF0290910003E6
:1033C0000C947D19089581E00C94CF19809101032C
:1033D000089580930103662351F06091FD0270917E
:1033E000FE028091FF02909100030C947D190895D4
:1033F00060E00C94E9198091FE0208958091FF022B
:10340000089580910003089570E00C941B21CF92E1
:10341000DF92EF920F931F93CF93DF93CDB7DEB779
:10342000E0970FB6F894DEBF0FBECDBF60914301A9
:103430008091FD0280FF0AC0E9E6F4E0AE014F5F33
:103440005F4F8E010F5C1F4FCA0114C08091440171
:1034500090914501891780F7E82FF0E09F01220F36
:10346000331FE20FF31FEE5FFC4F118210821282B6
:103470008F5FF0CF249130E0D901AA0FBB1F2A0F34
:103480003B1FD901AE5FBC4FCD90DD90EC90DA01CF
:10349000CD92DD92ED92AD013196A017B10751F7B3
:1034A00020914201B3E02B9F800D911D11240E94B9
:1034B000041AE0960FB6F894DEBF0FBECDBFDF91C1
:1034C000CF911F910F91EF90DF90CF900895909141
:1034D000FD0290FF16C09091440120914501921782
:1034E00070F4E92FF0E0DF01AA0FBB1FEA0FFB1F0A
:1034F000EE5FFC4F8183608342839F5FF0CF0C942B
:10350000071A0895CF93DF9300D01F92CDB7DEB78F
:103510009091FD0290FF0AC09E012F5F3F4F0E94D5
:1035200058194B8169818A810E94671A0F900F9008
:103530000F90DF91CF910895CF93DF93EC01EC8151
:10354000F0E0EC59FC4F4491EDEFF2E062818181B3
:103550000E94821A8C818F5F8C83DF91CF910895B6
:10356000CF93DF93EC01EDEFF2E0438162818C8138
:103570000E94821A8C818F5F8C83DF91CF91089596
:103580000F931F93CF93DF9300D01F92CDB7DEB779
:103590008C018091B90281110AC09E012F5F3F4FBB
:1035A0004FEF6FEF0E9458198A818093B902F8019A
:1035B0008481813051F028F0823061F44091B90269
:1035C0000AC08091B90240E007C06091B90240E0B2
:1035D00080E003C040E080E060E00E94671AF801EC
:1035E000848190E0019663E070E00E94F132848370
:1035F0000F900F900F90DF91CF911F910F91089531
:10360000AF92BF92CF92DF92EF92FF920F931F93F0
:10361000CF93DF9300D01F92CDB7DEB7182FF62ED1
:10362000042FE22E9091FD0290FF7EC0E92FE695D7
:10363000AE2FB0E0A153BE4F8C918093C6029E7F07
:10364000923061F49E012F5F3F4F812F0E945819E5
:103650004B8169818A810E94671A43C0823019F4C4
:10366000009100033EC0863019F41091FE0239C06B
:103670008930D9F38931A9F5E9518E2F8170D82E7F
:10368000E695F0E0EC59FB4FA590B490C12CBB241B
:1036900060914601C61618F52C2D30E0A29EC0019F
:1036A000A39E900DB29E900D112470E00E94DD3219
:1036B000812FD11002C0860F01C0861B909144015A
:1036C000290F311DA901440F551F240F351F2E5FEF
:1036D0003C4F402F6F2D0E945819C394D9CF0E94A0
:1036E000071A8091FE02181308C08091FF02F81299
:1036F00004C080910003081729F08091C8028260FD
:103700008093C8021093FE02F092FF020093000320
:10371000EE2051F06091FD027091FE028091FF0257
:10372000909100030E947D190F900F900F90DF91F0
:10373000CF911F910F91FF90EF90DF90CF90BF90AE
:10374000AF900895EDEFF2E09181282F43816281DF
:1037500088E0890F0C94001B81E00C94A21BEDEF14
:10376000F2E09181282F4381628188EF890F0C94C8
:10377000001B81E00C94AF1BEDEFF2E0628121E1D0
:10378000620F08F46FEF282F438181810C94001B96
:1037900081E00C94BC1BEDEFF2E0628121E1621B41
:1037A00008F460E0282F438181810C94001B81E0A4
:1037B0000C94CB1BEDEFF2E0438121E1420F08F4C2
:1037C0004FEF282F628181810C94001B81E00C94C3
:1037D000DA1BEDEFF2E0438121E1421B08F440E007
:1037E000282F628181810C94001B81E00C94E91BDD
:1037F00020E00C94001BFF920F931F93CF93DF9355
:10380000EC01F12C0FEF10E060914601F616F0F498
:10381000809144012F2D30E0280F311DC901880F00
:10382000991F280F391F2E5F3C4F70E0C8010E947E
:10383000F132962F8C81409100036091FF02F99E36
:10384000800D11240E945819F394DECF0E94071AAC
:103850009A818C8190FF02C08F5F01C081508C8360
:10386000DF91CF911F910F91FF9008959F92AF929A
:10387000BF92CF92DF92EF92FF920F931F93CF935D
:10388000DF93EC018A8180FF03C0BB24BA9402C09D
:10389000BB24B3948C8181110DC081E0B81206C0A5
:1038A0008091460181508093BB0202C01092BB02FE
:1038B00081E08C83A12C80914601A81608F041C0BC
:1038C00080914401CA2CD12C8601080F111DC8011A
:1038D000880F991F080F191F0E5F1C4FF8011182E6
:1038E0001082128234E0E32EF12C912C8091BB02E5
:1038F000890D813114F08F7005C087FF03C090914E
:103900004601890F082E000C990BC816D90691F4B0
:10391000809100038E9DA0018F9D500D112455951F
:1039200047955595479598016091FF028091FE0259
:103930000E9458199B0CF1E0EF1AF108B9F6A39414
:10394000BACF0E94071A8091BB0291E0B9120EC053
:10395000811107C08091460181508093BB021C8277
:103960000FC081508093BB02BC820AC090E00196D8
:103970006091460170E00E94F1328093BB028C831B
:10398000DF91CF911F910F91FF90EF90DF90CF903B
:10399000BF90AF909F9008951F93CF93DF93EC015A
:1039A0008C81811109C081E08C831092BA0292E06F
:1039B0009093410180934001809144019091450191
:1039C000891770F4E82FF0E09F01220F331FE20FF8
:1039D000F31FEE5FFC4F1182108212828F5FF0CFD7
:1039E00010E0609146011617C0F5E12FF0E070E09D
:1039F000CF010E94F13220914401820F2091BA023E
:103A0000022E000C330B90E0E217F307CCF020916C
:103A10004101022E000C330B2E173F078CF09C0146
:103A2000220F331F820F931F9C012E5F3C4F40914A
:103A300000036091FF028091FE020E9458190BC0A2
:103A4000FC01EE0FFF1F8E0F9F1FFC01EE5FFC4F6E
:103A50001182108212821F5FC4CF0E94071A8091C8
:103A600040012091BA02280F2093BA02909141019F
:103A7000980F9093410119165CF4022E000C330B41
:103A80004091460150E0415051092417350734F068
:103A9000819580934001813009F41C82DF91CF91A0
:103AA0001F9108958F929F92AF92BF92CF92DF9213
:103AB000EF92FF920F931F93CF93DF938C01FC0142
:103AC0004481C42FD0E09E01DE010E943C339B0163
:103AD000AC010E9452336B017C01E0E2F0E0EC1B90
:103AE000FD0BA5E5B0E09B01AC010E9452334B01F8
:103AF0005C019F01DF010E9434339B01AC010E94F5
:103B00005D339B01AC012C0D3D1D4E1D5F1DC5019C
:103B1000B4010E940533C22FD22F2A3228F4F3E0D9
:103B20002F9F900111240DC025E530E02C1B310999
:103B3000C901880F991F280F391F37FF02C02F5F57
:103B40003F4F35952795C22FC095F12C85E5E82E7E
:103B5000ED1A80914601F816C8F4F1FC02C08E2DD2
:103B600001C08D2F909144012F2D30E0290F311D80
:103B7000A901440F551F240F351F2E5F3C4F4C2FBA
:103B80006091FF020E945819F394E3CF0E94071A34
:103B9000F8018481811102C091E003C0803219F4E0
:103BA0009FEF90933F0190913F01890FF80184832B
:103BB000DF91CF911F910F91FF90EF90DF90CF9009
:103BC000BF90AF909F908F9008950F931F93CF93C6
:103BD000DF93EC0100E010E080914601282F30E0F7
:103BE0000217130724F5909144019801290F311D04
:103BF000A901440F551F240F351F2E5F3C4F86959A
:103C000090E04C81081719071CF4442331F002C0DE
:103C1000411103C04091000301C040E06091FF02E8
:103C20008091FE020E9458190F5F1F4FD5CF0E944E
:103C3000071A8C8190E00196817099278C83DF911F
:103C4000CF911F910F9108951092C802089525E019
:103C5000EDEFF2E0DC0101900D922A95E1F7209161
:103C6000C6023091C7024091C802FC012583368309
:103C7000478308956091FD02669570E04BE050E047
:103C800087E491E00E946533892B19F481E08093E9
:103C9000C7020E94682A9093C0028093BF0280915D
:103CA000C80284608093C8020895E6ECF2E01182B5
:103CB00082818460828308959091FD0290FF3AC0D2
:103CC0009170811102C0926006C0853210F0986434
:103CD00002C0880F982B9093FD028091C8028160EA
:103CE0008093C802662351F06091FD027091FE023C
:103CF0008091FF02909100030E947D196091FD0266
:103D0000669570E04BE050E087E491E00E946533F7
:103D1000892B19F00E94551E02C00E943A1E81E0B4
:103D20008093C202409100036091FF028091FE02E5
:103D30000C94F81B0895682F9091FD02969581E0F0
:103D4000890F853208F081E00C945C1E81E00C94B0
:103D50009B1E682F9091FD0296958FEF890F09F4B5
:103D600084E20C945C1E81E00C94A91E61E00C942A
:103D70005C1EEDEFF2E080818160808386950C947B
:103D8000B61E60E00C945C1EEDEFF2E08081816075
:103D9000808386950C94C11EEDEFF2E080818E7FCA
:103DA000808360817181828193810E947D190E944C
:103DB000551EE6ECF2E08281816082832FEF80E77E
:103DC00092E0215080409040E1F700C000000C9448
:103DD000071A8091FD0280FD0C94CC1E0C94B91E34
:103DE000EDEFF2E080818E7F80830E94551EE6EC2D
:103DF000F2E08281816082832FEF80E792E02150A0
:103E000080409040E1F700C000000C94071A1F9317
:103E1000CF93DF93EC01162F8F8180FF0FC0888135
:103E200080FF0AC08091FD0281608093FD0288813D
:103E300086950E945C1E02C00E94F01E8F8181FF49
:103E400006C0212F4B816A8189810E94001B8F81CE
:103E500082FF08C08E81882319F00E943A1E02C09A
:103E60000E94551E8F8183FF03C081E08093C202B0
:103E7000DF91CF911F9108958091C502811133C0C8
:103E80000E94290F811104C00E94D00F0E9499192D
:103E90000E9479196093FD027093FE028093FF02E5
:103EA000909300038091C80283608093C8026E7F64
:103EB00061F40E9499190E9479196093FD02709330
:103EC000FE028093FF02909300030E9466190E94F5
:103ED000551E8091FD0280FF03C086950E94C11E81
:103EE00081E08093C5020895EF92FF920F931F9394
:103EF000CF93DF938091C702882309F4ABC08091F0
:103F0000C602E091FD02E695E81BE093C102823013
:103F100049F4F0E0E05AFC4FE491CE2FD0E00CE9F8
:103F20001AE149C0863049F4F0E0E35AFC4FE491CD
:103F3000CE2FD0E000EB1AE13EC0893051F4E69577
:103F4000F0E0E65AFC4FE491CE2FD0E00BEF1BE1FE
:103F500032C08F3051F4E695F0E0E95AFC4FE4911D
:103F6000CE2FD0E006E31CE126C0853149F4F0E015
:103F7000EC5AFC4FE491CE2FD0E00CEC1CE11BC0BE
:103F8000883181F0833239F4E2E5F3E0C591D491D0
:103F900000EC1AE110C0843251F4C4EFD1E005EE18
:103FA0001DE109C0C8E2D0E002E51DE104C0C0ED9A
:103FB000D7E00FE419E18091C202882361F01092EA
:103FC000C2020E94682A9093C0028093BF0210929E
:103FD000C4021092C3020E94682AE091BF02F091CD
:103FE000C0029C012E1B3F0B2F3F3F4798F52091AD
:103FF000BE022223B1F01092BE022091BC02309189
:10400000BD02821B930B8F3F9F4758F4205D3A48B7
:104010003093BD022093BC028091C80288608093D7
:10402000C802E090C302F090C402EC0FFD1FF093B1
:10403000C002E093BF028FEB92E0F80109958091F6
:10404000C3029091C402892B29F4EF2819F081E072
:104050008093BE02DF91CF911F910F91FF90EF905F
:104060000895882311F0FA0101C0FB010994CF9350
:10407000DF93C82FD62F0E94B0198C1740F00E94F2
:10408000B0198D1720F4DF91CF910C94A61E8C2FC0
:10409000DF91CF910C94B61E1F93CF93DF93FB015A
:1040A00012811111C3C0EC010E94640E8272CC3CDB
:1040B000FCE5DF0709F49AC0A8F5C63CECE5DE078D
:1040C00009F476C0A8F4C33C9CE5D90709F45FC0A5
:1040D00028F4C23CDC4509F457C054C0C43C9CE5FC
:1040E000D90709F459C0C53CDC4509F45CC04AC095
:1040F000C93CFCE5DF0709F46AC050F4C73CECE5B5
:10410000DE0709F45AC0C83CDC4509F45BC03AC07C
:10411000CA3C9CE5D90709F45FC0CB3CDC4509F4F7
:1041200060C030C0C13DFCE5DF0709F46FC088F412
:10413000CE3C9CE5D90709F460C008F45CC0CF3CD4
:10414000FCE5DF0709F45CC0C03DDC4509F45BC059
:1041500019C0C43D9CE5D90709F460C050F4C23DC4
:10416000FCE5DF0709F455C0C33DDC4509F454C044
:1041700009C0C53D9CE5D90709F455C0CD35DD45DD
:1041800009F454C011E052C00E94E91E4FC043EB35
:104190005EE166EA7EE104C046EA5EE163EB7EE151
:1041A0000E94312043C049EB5BE16CEA7BE1F8CF30
:1041B0004CEA5BE169EB7BE1F3CF47ED5BE168EC57
:1041C0007BE1EECF48EC5BE167ED7BE1E9CF45EFCA
:1041D0005BE166EE7BE1E4CF46EE5BE165EF7BE120
:1041E000DFCF43EE59E16CEC79E1DACF4CEC59E1E9
:1041F00063EE79E1D5CF81E017C065E082E010C0C1
:1042000068E086E00DC06EE089E00AC064E18FE0FE
:1042100007C067E185E104C088E106C062E289E188
:104220000E94372003C083E20E94B61E812FDF91D7
:10423000CF911F910895539A2BB1277F3BB13860DE
:104240004FB7F894FC01CB01880F991F680F791FB5
:104250006E0F7F1FE617F70789F0819198E03BB951
:10426000000000C087FF2BB9880F000000C000C00D
:1042700000C02BB900C09A9591F7ECCF4FBF8FE5E6
:1042800094E00197F1F700C0000008950C949D039D
:104290002098289A52985A9A83B181704A9902C0FC
:1042A00090E001C092E0892B8093CE0290910201B0
:1042B00081E098279093CA02891B8093C9020895D0
:1042C000CF93E091CE02EE0FEE0FE093CE0243B11A
:1042D000842F817090E049B142FB222720F930E021
:1042E00042FF02C022E030E0822B932B8E2B809382
:1042F000CE02C091CA028F70E82FF0E0EC50FE4F62
:1043000090818091CD02890F8093CD0284306CF032
:10431000EC2FF0E0E553FD4F80818F5F808360E0FC
:104320008C2F0E94462121E001C020E08091CD0227
:104330008D3F64F4EC2FF0E0E553FD4F8081815018
:10434000808361E08C2F0E94462121E08091CD0284
:10435000082E000C990B64E070E00E94F13280930B
:10436000CD02822FCF910895E091CA02F0E0E5538B
:10437000FD4F2081FC0120830895FF920F931F932E
:10438000CF93DF93D091C9020D2F10E005531D4F3D
:10439000FC01C081F8018081C81BFC2E80E01F1445
:1043A0005CF4FA94F80180818F5F808360E08D2F48
:1043B0000E94462181E0F3CF9C2FC7FD90E0C91BEE
:1043C000CC2359F0CF5FF80180818150808361E078
:1043D0008D2F0E94462181E0F3CF882339F0DF91B1
:1043E000CF911F910F91FF900C94EA0FDF91CF9125
:1043F0001F910F91FF90089583E290E00E9488330F
:10440000813281F484E290E00E948833813151F45A
:1044100085E290E00E94883391E0863209F090E0D6
:10442000892F01C080E081700895CF93C82F81113A
:1044300002C06FEF01C061E283E290E00E949C3312
:10444000C11102C06FEF01C061E184E290E00E94FF
:104450009C33C11102C06FEF01C066E285E290E0BB
:10446000CF910C949C33089586E290E00E948833AB
:10447000682F70E080E090E0089586E290E00C9470
:104480009C3380E00E94152260E070E0CB010E9426
:104490003D220E94E4230E94C32481E00C94152253
:1044A0000E9433220E94FC21811102C00C944122FF
:1044B0000895CF93FB01C281CC23E9F09C012251E6
:1044C0003F452031310520F482510E94D3240CC095
:1044D0008031FFE59F0751F481E00E94C00943E06D
:1044E00062E081E00E941604C0E018C081319F455F
:1044F000A9F482E0F2CF8031EFE59E0711F481E06C
:1045000004C081319F4549F482E00E94CB0943E019
:1045100062E081E00E94160401C0C1E08C2FCF91BF
:1045200008952FEFFC0120830895CF93DF93EC01D2
:104530008881813889F028F48038A1F40E94011A1A
:1045400010C0823861F0833869F40E94FB198983B6
:104550000E94FE198A8306C00E94B01902C00E9400
:10456000E6198983DF91CF910895CF93DF93EC0112
:1045700088818138B1F058F4803851F5D9810E9492
:10458000FE19C82F0E94FB194D2F6C2F1DC08238B9
:10459000B1F08338E9F40E94011A482F6A818981B9
:1045A00013C089810E94C11E8981811104C0DF91DD
:1045B000CF910C94F01EDF91CF910C94C41E898191
:1045C000DF91CF910C94F819DF91CF910C94F81BE7
:1045D000DF91CF910895EF92FF920F931F93CF93A6
:1045E000DF93EC01062F0196E8814E2F50E0FA018F
:1045F0003197E331F10508F09AC0EC58FF4F0C9465
:104600002733198289E056C08981823039F083309E
:1046100061F0813029F50E94052B02C00E943422EE
:104620009A838B837C836D8384C07E0182E0E80E55
:10463000F11C10E0812F0E940513F70181937F0187
:104640001F5F1830B9F775C08981823049F46A81DB
:104650007B818C819D810E942D330E943D2269C007
:10466000602FCE010E94912264C04B816A818981B2
:104670000E94B6239C838D835CC02C813D813227B0
:10468000232732274B816A8189810E94CF2351C021
:104690000E94E4234EC00E94B5224BC00E94952286
:1046A00048C00E948F1945C00E94762424C00E94F1
:1046B000782499838A833DC06B8170E089819A81D7
:1046C000AE014C5F5F4F9827892798270E947B2473
:1046D00030C06B8170E089819A81AE014C5F5F4F81
:1046E0009827892798270E94A02423C00E94C324CA
:1046F00020C00E94A32389831CC06B8170E0898144
:104700009A81AE014C5F5F4F9827892798270E94B6
:1047100023240FC06B8170E089819A81AE014C5FC8
:104720005F4F9827892798270E94472402C08FEF60
:104730008883602FCE01DF91CF911F910F91FF9061
:10474000EF900C94ED2B84E0089550E0440F551F3A
:104750002CE0629F400D511D11249A0160E6869F56
:10476000200D311D1124C901879608950F931F93C1
:10477000CF93DF930E94A5238C010E948833C82F1A
:10478000D0E0DC2FCC27C80101960E9488339E011F
:10479000282BC901DF91CF911F910F9108950F939D
:1047A0001F93CF93DF93122F032F0E94A523EC01B9
:1047B000602F0E949C33612FCE010196DF91CF9133
:1047C0001F910F910C949C33AF92BF92CF92DF92C6
:1047D000EF92FF920F931F93CF93DF93A12CE12CC5
:1047E000F12CB12C00E010E0C0E0D0E06701C00E79
:1047F000D11EFE01EE0FFF1FEC0DFD1DEE5DFE4F05
:10480000259134914C2F6B2D8A2D0E94CF23219618
:10481000C630D10571F7045F1F4FB39488E0B8121A
:10482000E3CF80E6E80EF11CA39484E0A812D9CF70
:10483000DF91CF911F910F91FF90EF90DF90CF907C
:10484000BF90AF900895EF92FF920F931F93CF9375
:10485000DF93EA017A01E60EF71E8C01C801879604
:10486000CE15DF0569F0003821E0120720F40E9420
:104870008833888301C0188221960F5F1F4FEECFC7
:10488000DF91CF911F910F91FF90EF900895EF92DC
:10489000FF920F931F93CF93DF93EA017A01E60E05
:1048A000F71E8C01C8018796CE15DF0559F0003838
:1048B00021E0120718F468810E949C3321960F5F53
:1048C0001F4FF0CFDF91CF911F910F91FF90EF908D
:1048D0000895462F843038F4783028F4663018F480
:1048E000672F0C94B62380E090E0089580E108954E
:1048F00089E592E00895EF92FF920F931F93CF9373
:10490000DF93EA017A01E60EF71E8C01C801895592
:104910009E4FCE15DF0569F0093522E0120720F41D
:104920000E948833888301C0188221960F5F1F4F31
:10493000EDCFDF91CF911F910F91FF90EF900895F0
:10494000EF92FF920F931F93CF93DF93EA017A01C7
:10495000E60EF71E8C01C80189559E4FCE15DF0566
:1049600059F0093522E0120718F468810E949C333F
:1049700021960F5F1F4FEFCFDF91CF911F910F91C6
:10498000FF90EF900895CF93DF93C7EAD1E060E006
:10499000CE010E949C332196C11584E0D807B9F757
:1049A000DF91CF910895DF92EF92FF920F931F93C3
:1049B000CF93DF9300D000D0CDB7DEB7F82E8FE0D5
:1049C0008F15E8F18FEF93E00E948833811137C093
:1049D00007EA11E0FF2069F0011584E0180779F17A
:1049E000C8010E948833811101C0FA940F5F1F4FE4
:1049F000F1CF19821A821B821C82DD24D3947801A4
:104A00008FEFE81AF80AC8010E94883389831A8256
:104A10008823A9F09FEF980F933058F48A83D982A6
:104A20000E5F1F4FC7010E9488338B83882339F0A4
:104A30007801CE0101960E9466058701E0CF0F90B4
:104A40000F900F900F90DF91CF911F910F91FF90DA
:104A5000EF90DF9008950895FC01680F791F8FEFA4
:104A600091E3E617F70771F02191822728E030E003
:104A700087FF03C0880F892701C0880F21503109A3
:104A8000B9F7EFCF08950F931F93CF93DF93C42F00
:104A9000D22FFC0182818823C9F04093D1020E9469
:104AA000F92A9093D0028093CF0280E28C0F883055
:104AB00008F057C0C77081E001C0880FCA95EAF7B7
:104AC000DF91CF911F910F910C94F0068091D1024C
:104AD000481330C08091CF029091D0020E94112BD8
:104AE000883C910538F510E21D0FCD17B9F080E232
:104AF0008C0F883040F4C77081E001C0880FCA95E0
:104B0000EAF70E94F706183028F581E09D2F97708C
:104B100001C0880F9A95EAF70E94F006802F0E9444
:104B2000E7061830F0F4D77081E001C0880FDA95FD
:104B3000EAF70AC080E28C0F883098F4C77081E0F1
:104B400001C0880FCA95EAF7DF91CF911F910F91AD
:104B50000C94F706802FDF91CF911F910F910C9449
:104B6000E706DF91CF911F910F9108950F939C015C
:104B7000CB01233F4CE5340731F188F4283DFCE5B7
:104B80003F07D9F0293D4CE5340779F1273D3C45F5
:104B9000A9F506E221EE41EE67ED7CE52BC0253F4D
:104BA000FCE53F07E1F0A8F0263F3C4539F507E278
:104BB00025EE46EE66EF7CE51DC007E225EE45EEEC
:104BC00068ED7CE517C006E221EE40EE63EF7CE580
:104BD00011C007E225EE44EE64EF7CE50BC006E26F
:104BE00021EE42EE65EF7CE505C008E221E045EEEE
:104BF00069ED7CE50E94432580E008C0FC018281CC
:104C0000882319F01092D10201C081E00F9108951C
:104C1000CF93DF93EC01FB018281882309F426C145
:104C2000C330FDE5DF0760F4CA3F9CE5D90768F4AF
:104C30009E0122503C452431310508F018C105C0C1
:104C4000C136EDE5DE0709F012C10E943C0F9093DA
:104C5000E9028093E802C031FCE5DF0709F4CAC02D
:104C600008F041C0C8309CE5D90709F4A4C0F0F4AD
:104C7000C430FCE5DF0709F48CC068F4C2309CE561
:104C8000D90709F482C0C330DC4509F0E5C0809142
:104C9000E8028260DFC0C630FCE5DF0709F483C0AC
:104CA00008F085C08091E8028860D4C0CC309CE5D3
:104CB000D90709F490C068F4CA30FCE5DF0709F4AD
:104CC0007EC008F084C00E9441098091E80280689B
:104CD000C1C0CE309CE5D90709F481C008F086C078
:104CE0008091E80294C0CC3FFCE5DF0709F47BC06B
:104CF00038F5C4319CE5D90709F49AC058F4C2319B
:104D0000FCE5DF0709F47AC008F07EC08091E80274
:104D10008F7BA0C0CA3F9CE5D907F1F108F03FC0E6
:104D2000C531DC4509F098C08091E80282FB22275A
:104D300020F991E0922790FB82F990FB83F98AC0D9
:104D4000C1158DE5D80709F467C050F48091E902D8
:104D5000CE3FECE5DE07C1F108F05BC08D7F65C09A
:104D6000C2308DE5D80709F471C008F46DC0C136B2
:104D7000DD4509F071C08091E80284FB222720F90B
:104D800091E0922790FB84F965C08091E8028160F0
:104D900061C08091E80216C08091E90216C080913E
:104DA000E902826042C08091E802806153C0809134
:104DB000E80280624FC08091E80280644BC080911D
:104DC000E8028860846046C0826081602EC0809165
:104DD000E8028E7F3FC08091E8028D7F3BC08091CA
:104DE000E802877F37C08091E90214C08091E80211
:104DF0008F7E30C08091E8028F7D2CC00E944109D7
:104E00008091E8028F7726C08091E802877F8B7FB0
:104E100021C08D7F8E7F09C08091E902982F9095E7
:104E200091708E7F892B90FB81F98093E90214C0E9
:104E30000E9441098091E80287FB222720F991E036
:104E4000922790FB87F906C081E001C080E00E94B4
:104E5000D20F02C08093E8028091E8029091E902AB
:104E60000E944D0F0E94410980E001C081E0DF9166
:104E7000CF910895CF93DF9386319C4541F5EB01A7
:104E80000E94640E982F8A812091000130910101C7
:104E9000882379F09A7A81E009F480E08093D20245
:104EA000911102C069E201C065E3C9010E941C2A98
:104EB0000AC08091D202811102C069E201C065E39B
:104EC000C9010E941E2A0E94B60E80E001C081E046
:104ED000DF91CF9108958EE1489B02C08150E1F7A8
:104EE000489BFECF0895589880E28A95F1F7589A2A
:104EF0000895FC012AE02A95F1F728E090E080E08F
:104F000031E040E14A95F1F7880F489B02C081608B
:104F1000932700C0000040E14A95F1F7215089F73E
:104F200020E12A95F1F729B100C0000030E13A955F
:104F3000F1F7217092272081920F90830895EF92CC
:104F4000FF920F931F93CF93DF931F92CDB7DEB7DE
:104F500019828C017C01E60EF11C0E151F0551F023
:104F60000E946B27CE0101960E947927F801819358
:104F70008F01F3CF81E09981911180E00F90DF9153
:104F8000CF911F910F91FF90EF900895509A589AEA
:104F900008955098589AE89AE9E6F0E080818C7F6D
:104FA00080830895615091E001C0990F6A95EAF7F6
:104FB00020E031E0992361F0492F482319F0589AF5
:104FC000232701C0589840E24A95F1F79695F2CF11
:104FD000222311F0589A01C0589880E28A95F1F77F
:104FE00058980895FF920F931F93CF93DF93EC018E
:104FF0008C01060F111DC017D10741F0F9900E94D6
:10500000732768E08F2D0E94D227F5CFDF91CF91D3
:105010001F910F91FF9008951F920F920FB60F925C
:105020001124EF92FF920F931F932F933F934F936F
:105030005F936F937F938F939F93AF93BF93EF9300
:10504000FF93CF93DF931F92CDB7DEB719820E94F3
:105050006B27CE0101960E947927A82FA695A695C9
:10506000A6959A2F969595702A2F2570920F292F25
:10507000237096959695920F877089137CC08981CD
:10508000811179C0A73008F076C080E18A95F1F7E8
:10509000589A509AB2E0BA95F1F700C05898EA2EA3
:1050A000F12CEAE0AE9FD0011124AD5FBE4F1896FF
:1050B000ED91FC9119973097B1F06091CD0170910D
:1050C000CE0116962D913C911797260F371F1396F8
:1050D0008D919C911497680F791F15964C91159797
:1050E00012968C9109958AE08E9DF0018F9DF00DAE
:1050F0001124ED5FFE4F6581662351F08091CD0153
:105100009091CE0126813781820F931F0E94F22752
:105110000E947327F0E1FA95F1F758985098589A41
:1051200080E18A95F1F78AE08E9D80018F9D100DB8
:1051300011240D5F1E4FD80112966C9112976623B1
:1051400099F08091CD019091CE0113962D913C91D3
:105150001497820F931F0E949F27D801ED91FC9115
:10516000811105C082E004C0D801ED91FC9188E076
:1051700080830E946B270F90DF91CF91FF91EF9179
:10518000BF91AF919F918F917F916F915F914F915F
:105190003F912F911F910F91FF90EF900F900FBEB5
:1051A0000F901F9018950F931F93CF93DF93873025
:1051B00091050CF0A9C02AE0289FF001299FF00D6D
:1051C0001124ED5FFE4F20813181232B09F49CC017
:1051D000EC01F894509A589885E08A95F1F7000010
:1051E0008C2F869585709C2F9570890F982F9370C2
:1051F000869586958E0123E0000F111F2A95E1F711
:10520000890F082B0E947327A4E0AA95F1F700C02C
:1052100068E0802F0E94D227B0E1BA95F1F750984C
:10522000589A489902C000C0FCCF87E090E0489BA4
:1052300017C0019799F4509A589A8AE08C9FF00110
:105240008D9FF00D1124ED5FFE4F0190F081E02D58
:1052500081E08083789481E090E058C000C0E7CF7F
:105260008AE08C9F80018D9F100D11240D5F1E4FD1
:10527000F80165816623B9F08091CD019091CE014E
:1052800026813781820F931F0E949F2781110BC0B7
:10529000509A589AD801ED91FC9182E080837894DD
:1052A00082E090E033C00E946B27B0E2BA95F1F73C
:1052B0005898509AE0E1EA95F1F78AE08C9FF00166
:1052C0008D9FF00D1124ED5FFE4F6281662351F03A
:1052D0008091CD019091CE0123813481820F931F63
:1052E0000E94F2270E9473278AE08C9FF0018D9F15
:1052F000F00D1124ED5FFE4F0190F081E02D108242
:10530000789480E090E002C084E090E0DF91CF915B
:105310001F910F9108959093D9028093D802089518
:105320000E94C114811103C08091D3020895E091BD
:10533000D802F091D902309721F00190F081E02D50
:10534000099480E00895E091D802F091D902309755
:1053500021F00280F381E02D099408952091D60276
:105360003091D7022817390771F09093D7028093B4
:10537000D602E091D802F091D902309721F0068050
:10538000F781E02D099408952091D4023091D5023F
:105390002817390771F09093D5028093D402E091D9
:1053A000D802F091D902309721F00084F185E02DE8
:1053B00009940895FC01329697E080E0915029F01D
:1053C00021912223D9F38F5FF9CF0895662349F005
:1053D000FC01329608962191621729F0E817F90727
:1053E000D1F780E0089581E008959C01FC01329698
:1053F0009FEF80E04191461789F09F3F19F44111DA
:1054000001C0982F8F5F8630A9F79F3F39F0F901CF
:10541000E90FF11D97FDFA956283089508959C01A7
:105420002A5F3F4FFC014281461301C01282019660
:1054300082179307B9F708950C94F5290C940F2A55
:10544000029626E0FC0111922A95E9F70895109240
:1054500032031092330310923403109235030895EF
:10546000CF92DF92EF92FF926B017C010E94C114F8
:1054700081110EC00E94052BC61AD70AE80AF90A44
:10548000C0923203D0923303E0923403F09235039A
:10549000FF90EF90DF90CF9008950F931F930E949D
:1054A000C114882321F01F910F910C94052B0E94A9
:1054B000052B009132031091330320913403309176
:1054C0003503600F711F821F931F1F910F91089565
:1054D0000E94C11481110C94F92A0E944D2ACB011B
:1054E0000895089508950C94722A0C94722ACF930B
:1054F0000E94752A0E9436140E94732AC0E08C2FE5
:105500000E940513811104C0CF5FC830C1F701C0EC
:1055100081E0CF9108950C94722A0C948B2A80918B
:105520003E03843049F10E948D2A80E00E9471057B
:105530001092DA0220E488E190E00FB6F894A89582
:10554000809360000FBE2093600083B7817F8460EA
:1055500083BF83B7816083BF7894889583B78E7F3C
:1055600083BF0FB6F894A8958091600088618093FE
:105570006000109260000FBE08950C94722A0E9481
:1055800041090E9490290E9471050C94BD2A1F9226
:105590000F920FB60F9211248F939F93AF93BF93E7
:1055A0008091DA02811113C0809136039091370304
:1055B000A0913803B09139034196A11DB11D80938C
:1055C000360390933703A0933803B0933903BF9108
:1055D000AF919F918F910F900FBE0F901F901895D4
:1055E00082E084BD93E095BD9AEF97BD80936E00F5
:1055F00008952FB7F8948091360390913703A091C6
:105600003803B09139032FBF08952FB7F8946091F4
:1056100036037091370380913803909139032FBF7F
:1056200008959C014FB7F894809136039091370309
:10563000A0913803B09139034FBF821B930B08959B
:10564000CF92DF92EF92FF922FB7F894C09036037B
:10565000D0903703E0903803F09039032FBFA701B3
:105660009601261B370B480B590BCA01B901FF9055
:10567000EF90DF90CF90089578941F920F920FB61D
:105680000F9211248F939F93AF93BF938091360312
:1056900090913703A0913803B09139030196A11D71
:1056A000B11D8093360390933703A0933803B093D2
:1056B0003903BF91AF919F918F910F900FBE0F90C3
:1056C0001F90189581E08093E00080E28093D800DD
:1056D0001092C9008FE19EE40197F1F700C000002D
:1056E00087E090EBDC018093470390934803A093FD
:1056F0004903B0934A039CE088E10FB6F894A8955B
:10570000809360000FBE90936000FFCF90931502CE
:105710008093140208958091E602089590913E03CB
:10572000943029F58093DB027093DD026093DC02F4
:105730009093E9008FEF9091E800815095FD06C0AD
:1057400095ED9A95F1F700008111F5CF8091E80071
:1057500085FF0DC040E050E063E070E08BED92E02B
:105760000E94E92D8091E8008E778093E8000895EB
:10577000BC0184E00C948E2BBC0183E00C948E2B36
:10578000CF93DF9321E02093E9002FEF3091E800E1
:10579000215035FD06C035ED3A95F1F70000211195
:1057A000F5CF2091E80025FF14C0EC0140E050E067
:1057B00068E070E00E94E92D8091E8008E77809388
:1057C000E80088E0FE01AEEDB2E001900D928A950E
:1057D000E1F7DF91CF9108950895CF93603219F5E5
:1057E00020913E032430F9F4C091E900CF7030914C
:1057F000EC00232F217030FD20E8C22B22E0209303
:10580000E9002091E80020FF0BC040E050E060E29A
:1058100070E00E94E92D8091E8008E778093E80087
:10582000CF70C093E900CF91089580913D0381111D
:1058300009C00E94C52F0E9422308091E20084603E
:105840008093E200089510923D030895089508950D
:10585000089542E061EC81E00E943E2F42E261EC5B
:1058600084E00E943E2F42E261EC82E00E943E2FE3
:1058700042E260EC83E00C943E2F80914003833041
:1058800009F462C030F4813071F0823009F49BC0B9
:1058900008958A3009F487C08B3009F46DC08930CF
:1058A00009F0A9C020C080913F03813A09F0A3C04C
:1058B0008091E800877F8093E80080914303909176
:1058C0004403892B21F468E08EED92E003C060E090
:1058D00080E090E070E00E947F2E8091E8008B775E
:1058E0008093E800089580913F03813209F083C0DE
:1058F0008091430390914403009719F0029709F0B7
:105900007AC08091E800877F8093E8008091E8006A
:1059100082FD05C080913E038111F8CF6CC02091BB
:10592000F3008091F20090E0922B029729F480918D
:10593000F1008B7F813021F48091F1008093E602A9
:105940008091E8008B7753C080913F03813A09F042
:1059500052C08091430390914403892B09F04BC0BE
:105960008091E800877F8093E8008091E80080FFC5
:10597000FCCF80915C0136C080913F038132D9F524
:105980008091430390914403892BA9F58091E8000D
:10599000877F8093E8000E94732F8091410380935A
:1059A0005C010C94410980913F03813221F5809183
:1059B000E800877F8093E8000E94732F8091420364
:1059C0008093E702089580913F03813AA1F480918A
:1059D000E800877F8093E8008091E80080FFFCCF9B
:1059E0008091E7028093F1008091E8008E778093A8
:1059F000E8000C94732F089584B7877F84BF0FB697
:105A0000F894A8958091600088618093600010925E
:105A100060000FBE90E080E80FB6F89480936100BC
:105A2000909361000FBE0C9413100E94C52F0E942A
:105A30002230E2EEF0E080818460808378940E94DE
:105A4000B7320E94211082E591E00C948B29CF930C
:105A5000DF93CDB7DEB7A0970FB6F894DEBF0FBEC9
:105A6000CDBF80913E038530A9F480913E038530FF
:105A700079F40E948F2A80913C038823B1F30E941D
:105A8000772A882391F30E94D32D0E944109EDCFFC
:105A90000E94BF2A0E94311080913E03843011F58C
:105AA00083E08093E9008091E80082FF1BC0809131
:105AB000E80085FF0AC040E050E060E270E0CE01FF
:105AC00001960E94342E91E001C090E08091E800A0
:105AD0008B778093E800992329F060E2CE0101964C
