:100000000C94BB020C9402030C9402030C940203A4
:100010000C9402030C9402030C9402030C9402034C
:100020000C9402030C9402030C94130F0C944F0EC7
:100030000C94FB100C9402030C9402030C94020326
:100040000C9402030C9402030C9402030C9402031C
:100050000C9402030C94C9100C9402030C94020338
:100060000C9402030C9402030C9402030C940203FC
:100070000C9402030C9402030C9402030C940203EC
:100080000C9402030C9402030C9402030C94391C8C
:100090000C9402030C9402030C9402030C940203CC
:1000A0000C9402030C9402030C940203AD07AD07F9
:1000B000E907E9073F08D6096609D6096108D408A7
:1000C000E708E7087309A0097B097E098709810908
:1000D0008A09290A2B0A330A6B0A840A430A910AFD
:1000E000630C8A0C310E8A0C310ED60CF90C310ED1
:1000F000EE0DFE0D27192A194D195A19611981198A
:100100008419A019BF19561A561AC419BA19C61952
:10011000EB190D1A101A131A361A2D1E2D1E401E19
:10012000401E361E401E401E401E2D1E2D1E3B1E14
:10013000401E401E3B1E000401040204030404048C
:100140000504000501050205030504050505000673
:10015000010602060306040605060007010702075A
:100160000307040705070000010002000300040064
:100170000500000101010201030104010501000263
:10018000010202020302040205020003010302034A
:10019000030304030503000000000000000000004A
:1001A000000000000000000000000000000000004F
:1001B000000000000000000000007E0F00D4FFFFE0
:1001C000FFC70000007800000000000000002A2B9C
:1001D00028000000000000000000000000000000F7
:1001E0000029000000002C1E342021222434262760
:1001F000252E362D3738271E1F2021222324252681
:100200003333362E37381F0405060708090A0B0C4E
:100210000D0E0F101112131415161718191A1B1C96
:100220001D2F3130232D350405060708090A0B0C54
:100230000D0E0F101112131415161718191A1B1C76
:100240001D2F3130354C05010980A10185031901AD
:100250002AB700150126B700950175108100C00569
:100260000C0901A101850419012AA002150126A08B
:1002700002950175108100C00660FF0961A10109A6
:1002800062150026FF00952075088102096315009C
:1002900026FF00952075089102C005010906A101FD
:1002A000050719E029E71500250195087501810268
:1002B0009501750881010507190029FF150026FF22
:1002C0000095067508810005081901290595057531
:1002D000019102950175039101C009025B000301C0
:1002E00000A03209040000010301010009211101ED
:1002F00000012240000705810308000A09040100EB
:10030000020300000009211101000122220007055B
:1003100082032000010705030320000109040200F5
:10032000010300000009211101000122320007052C
:10033000840320000A1201000200000008DEC0371A
:10034000131002010200010A03480075006D0061EC
:100350000000001C034B0067004F0066004800656A
:100360000064006700650068006F006700730000AC
:100370000004030904000000000000000000000069
:1003800001010203040506080A0C0F1114181C20B1
:1003900024292E33393F464C535B626A7179818A36
:1003A000929AA2AAB2B9C1C8CFD5DCE1E7EBF0F4CA
:1003B000F7FAFCFDFEFFFEFDFCFAF7F4F0EBE7E1D7
:1003C000DCD5CFC8C1B9B2AAA29A928A8179716AE2
:1003D000625B534C463F39332E2924201C181411DC
:1003E0000F0C0A08060504030201010000000000CA
:1003F0000000000000350014000800150017000A76
:1004000000E00004001A00070009000500E300E214
:10041000001600060019002C62000000001D001BE1
:10042000002B4228412F0013000C0018001C000B69
:10043000003471330012000E000D001100307831CD
:10044000740F00360010002A7200000000380037D8
:10045000004C4229412D023A003C003D003E002262
:10046000022E611E023B00200221022200010057E1
:10047000641F02200021000100000000001E001F78
:10048000002B43010044004300410040003F002393
:10049000022D712702420025022402230045780123
:1004A000002602250024000100000000002700268D
:1004B000004C430100530054006000610056005797
:1004C000002E6155005F005D005E008500010001A7
:1004D000005C005A005B000100000000006200594F
:1004E00000010028433900470046004A00A900A83F
:1004F00000657149004B0052005000AA0001000144
:10050000004F0051004D0001000000000048004E67
:100510000001002943015C0000C95CC65CC55CC7E2
:100520005C00000000BE5CCA5CC85CC35C005C0090
:1005300000BD5CC25CC45CF05600000000C15CBF42
:100540005C01000100015C0000C95CC65CC55CC7C1
:100550005C00000000BE5CCA5CC85CC35C005C0060
:1005600000BD5CC25CC45CF05600000000C15CBF12
:100570005C010001000011241FBECFEFDAE0DEBFF6
:10058000CDBF04B603FE27C080910D0290910E02EC
:10059000A0910F02B09110028730904BA740B04B52
:1005A000D1F410920D0210920E0210920F021092CE
:1005B000100214BE84B7877F84BF0FB6F894A89545
:1005C00080916000886180936000109260000FBE8F
:1005D000E0E0F8E3099511E0A0E0B1E0E2EAFFE332
:1005E00002C005900D92AA35B107D9F722E0AAE51D
:1005F000B1E001C01D92AD30B207E1F70E942F17A4
:100600000C94CF1F0C940000EF92FF920F931F9356
:10061000CF93DF93CDB7DEB767970FB6F894DEBF01
:100620000FBECDBF4B8B5C8B6D8B7E8B8F8B242F46
:100630000E891F8961111092CE010115110531F04B
:100640005F3F31F481E02F3F19F403C081E001C026
:1006500080E080FD37C0A22FB0E081E090E07C0117
:10066000022E01C0EE0C0A94EAF7852F90E0662373
:1006700019F03091930105C0FC01E45AFE4F30811E
:100680003E213323C1F046E0489F9001499F300D41
:1006900011242A0F3B1F220F331FF901E95CFE4F83
:1006A0005491F901EA5CFE4F2491FC01E45AFE4F9B
:1006B0009081E92A06C0FC01E45AFE4FE094808153
:1006C000E822E08286E0FE013D96DF01982F1D9230
:1006D0009A95E9F72D875E876F87198B088BDE0166
:1006E000179601900D928A95E1F7CE0107960E9428
:1006F000801581113EC086E0FE013796DE0111961D
:1007000001900D928A95E1F7FF81E8856A857B85E6
:100710006115710531F0EF3F31F481E0FF3F19F4CD
:1007200003C081E001C080E080FD23C020919A01D8
:1007300030E0C9010196877099274091CB0150E0C4
:100740008417950779F1F983EA837D836C8396E0BA
:10075000929FD001939FB00D1124A556BE4FFE016C
:10076000319601900D929A95E1F780939A010E943B
:10077000FD1416E08091CB0190919A018917F9F050
:10078000189FC001112485569E4F0E948015882312
:10079000B1F08091CB0190E001968770992780930A
:1007A000CB01E8CF0E94441E10929A011092CB0117
:1007B000E4E9F1E086E0DF011D928A95E9F76796AA
:1007C0000FB6F894DEBF0FBECDBFDF91CF911F9162
:1007D0000F91FF90EF90089581FB992790F980FD8C
:1007E00002C02E9A01C02E98911102C02D9A089530
:1007F0002D9808953F924F925F926F927F928F92C1
:100800009F92AF92BF92CF92DF92EF92FF920F939F
:100810001F93CF93DF93CDB7DEB729970FB6F89428
:10082000DEBF0FBECDBFFC01808191812381348169
:10083000232B31F09F3F31F491E08F3F19F403C037
:1008400091E001C090E090FD7FC67F0185E0DE0170
:10085000119601900D928A95E1F7F7012281898125
:100860009A81222349F00E94711D182F682F8981D7
:100870009A810E94CD1D03C00E94A01D182F69817E
:100880007A81812F0E94E61B8C01F70182818823E7
:1008900009F4F2C0980122513F452031310508F09A
:1008A00019C18FEF93E00E94131F8111EFC0025115
:1008B00057EA852E99249394002379F08114F4E06B
:1008C0009F0609F4E3C0C4010E94131F811101C0F7
:1008D00001502FEF821A920AEFCF1E821F821886D4
:1008E0001986442443944AE0342E84010F5F1F4F3D
:1008F000C4010E94131F8E831F82882309F4C6C07F
:100900009FEF980F933060F48F834E8232E0830E16
:10091000911CC8010E94131F8887811102C0B6C0B4
:1009200048018E010A5F1F4FF80120812223E9F25E
:10093000213009F04CC08181813049F46801F2E036
:10094000CF0ED11CF80182810E94F51E0AC08230B0
:1009500051F46801F2E0CF0ED11CF80182810E94AF
:100960009C1E860186C0833049F46801F2E0CF0EF8
:10097000D11CF80182810E94641EF3CF843019F0EB
:100980000F5F1F4F76C0F80122810E5F1F4F80E07E
:1009900090E030E0205331092A30310568F4389E68
:1009A000A001399E500D1124C901840F951F0F5FBE
:1009B0001F4FF8012081EDCF009709F45AC0EFE9ED
:1009C000FFE03197F1F700C000000197F5CFE22F6B
:1009D000F0E0EA53FE4F5490822F869586958695D7
:1009E00090E0FC01EA54FE4F64902770712C022EB7
:1009F00002C0759467940A94E2F7F1E06F227724BD
:100A0000FC01EA55FE4FA490B12C022E02C0B59411
:100A1000A7940A94E2F731E0A322BB24FC01EA5632
:100A2000FE4FC490D12C02C0D594C7942A95E2F70A
:100A300081E0C822DD246114710419F081EE0E9466
:100A40009C1EA114B10419F086EE0E949C1E852DF7
:100A50000E94F51EAB2819F086EE0E94641E6728DE
:100A600019F081EE0E94641ECD2819F08CE20E94DC
:100A7000F51E0F5F1F4F58CF00313FE5130709F0F8
:100A80005AC581E00E94FD1D0E94720B8091CC012D
:100A9000877009F459C5F7018281882309F454C588
:100AA00082E029960FB6F894DEBF0FBECDBFDF916E
:100AB000CF911F910F91FF90EF90DF90CF90BF905B
:100AC000AF909F908F907F906F905F904F903F90EE
:100AD0000C94E0140031FFE51F0711F481E005C01C
:100AE00001312FE5120721F482E00E94091ECCCFCC
:100AF000F801EB5BFC45E730F10508F4A6C4033FC1
:100B0000FCE51F0799F406E221EE40EE63EF7CE579
:100B100009C0073DECE51E0711F506E221EE41EEA6
:100B200067ED7CE5C7010E94FD1AB0CF043F2CE5BC
:100B3000120708F046C1083D3CE5130731F407E20F
:100B400025EE45EE68ED7CE5EDCF093D9CE5190706
:100B500001F708E221E045EE69ED7CE5E3CF88236B
:100B600009F464C11092F80103309DE5190758F4A7
:100B70000A3FECE51E0760F4C80182509C4544978B
:100B800008F03EC105C00136FDE51F0709F038C178
:100B90000E940D149093D6018093D50100312CE56D
:100BA000120709F4CAC008F041C008308CE51807E4
:100BB00009F4A4C0F0F40430ECE51E0709F48CC07D
:100BC00068F402302CE5120709F482C003301C459A
:100BD00009F0E7C08091D5018260E1C006308CE564
:100BE000180709F483C008F085C08091D50188609A
:100BF000D6C00C30ECE51E0709F490C068F40A304A
:100C00002CE5120709F47EC008F084C00E94441E3F
:100C10008091D5018068C3C00E308CE5180709F4B7
:100C200081C008F086C08091D50194C00C3FECE5EE
:100C30001E0709F47BC038F504312CE5120709F4CE
:100C40009AC058F402318CE5180709F47AC008F00C
:100C50007EC08091D5018F7BA2C00A3FECE51E07C4
:100C6000F1F108F03FC005311C4509F09AC08091B0
:100C7000D50182FB222720F991E0922790FB82F98F
:100C800090FB83F98CC001153DE5130709F467C09B
:100C900050F48091D6010E3F9CE51907C1F108F090
:100CA0005BC08D7F65C00230FDE51F0709F471C090
:100CB00008F46DC001361D4509F073C08091D5015F
:100CC00084FB222720F991E0922790FB84F967C0EA
:100CD0008091D501816063C08091D50116C080915B
:100CE000D60116C08091D601826042C08091D501A4
:100CF000806155C08091D501806251C08091D5013D
:100D000080644DC08091D5018860846048C0826055
:100D100081602EC08091D5018E7F41C08091D50128
:100D20008D7F3DC08091D501877F39C08091D601EC
:100D300014C08091D5018F7E32C08091D5018F7D06
:100D40002EC00E94441E8091D5018F7728C08091CB
:100D5000D501877F8B7F23C08D7F8E7F09C08091D7
:100D6000D601982F909591708E7F892B90FB81F9F9
:100D70008093D60116C00E94441E8091D50187FB46
:100D8000222720F991E0922790FB87F908C061E0C3
:100D900001C060E08EE090E00E94211F02C08093BD
:100DA000D5016091D5011091D60184E090E00E94B8
:100DB000211F612F82E290E00E94211F0E94441EA9
:100DC00065CE053FFCE51F0731F406E221EE42EE59
:100DD00065EF7CE5A7CE053F2CE5120730F407E26E
:100DE00025EE44EE64EF7CE59DCE063F3CE513071F
:100DF00009F0B5CE07E225EE46EE66EF7CE592CE31
:100E000006318CE5180751F58091CF018A7A91E07F
:100E100009F490E090936401882311F065E301C028
:100E200069E28AE891E00E94241115C006311C4550
:100E300009F045C080916401882309F483C385E3E8
:100E4000EAE8F1E09281891301C01282319691E0C3
:100E5000E039F907B9F70E94991418CE0A35EDE583
:100E60001E0741F150F401152CE51207A9F00E3DC3
:100E70001C4529F50E94291409CE0B358DE518076C
:100E8000D9F00C351D45D9F48091D60182FB882715
:100E900080F991E0892711C00E94441EEFEFF4E32E
:100EA0002CE0E150F0402040E1F700C000000E943B
:100EB000A510ECCD81E001C080E00E94C614F701CE
:100EC000828100811181882349F0C8010E94711D2F
:100ED000D82E682FC8010E94CD1D04C0C8010E94F1
:100EE000A01DD82EB8018D2D0E94E61B0E947C12F9
:100EF000082FD92EB82EF7011281C580C2943FE089
:100F0000C3228091CC018770C1F01123B1F0892FE9
:100F1000807F803449F090E2900F983070F08036F6
:100F200019F4F6EF0F1749F082E00E94E014809167
:100F3000CC018770AA24A3948111A12C9D2C92949A
:100F40002FE09222892D90E08C30910508F02EC27E
:100F5000FC01EA5AFF4F0C949B1F9D2D9F708D2D15
:100F6000807FC92E19F0C29490EFC9221123B9F0E5
:100F7000CC2009F496C180E2800F883010F0B110C7
:100F800006C08091CF01C82AC092CF0105C08091D0
:100F9000CE01C82AC092CE010E94991482C1802F2E
:100FA0000E94641ECC2009F401C2005EC094083087
:100FB00010F0B11006C08091CF01C822C092CF01BD
:100FC00005C08091CE01C822C092CE010E94991422
:100FD000EDC19D2D9F708D2D807F892E803219F05F
:100FE000829480EF8822BB2021F021E0B21611F11B
:100FF00030C01123B1F0CC2081F031E0C3120DC01C
:101000008091D60182FDD2C18091D001882A8816B4
:1010100009F4CCC18092D001C9C18091D001882946
:1010200010C0CC2021F081E0C81609F4BFC10E9495
:10103000931421C0112341F095E09C1508F4B6C12A
:10104000882D0E945A1EB2C1E4E0EC1508F4AEC12E
:1010500012C0112319F0CC2099F323C1CC2059F0F0
:10106000F9E3BF122FC12FEF37EE83E0215030405C
:101070008040E1F725C1882D0E944F1E97C18D2D1C
:1010800086958695837019F0813071F08FC1112398
:1010900031F0802F9D2D93700E94DB1A8FC180E06C
:1010A00090E00E94DB1AA2C1112331F0802F9D2D08
:1010B00093700E943E1182C180E090E00E943E1138
:1010C00095C18D2D8370A1F5111174C1402F4295EA
:1010D00046954770440F440F202F2F7030E0C90110
:1010E000042E01C0880F0A94EAF704FF08C02FE01D
:1010F00030E001C0220F4A95EAF7209501C020E0B8
:101100003D2D369536953370323069F040F440917C
:10111000D101313019F0822B842302C0842B822B21
:101120000E94141E47C1282B8091D1018227F8CF3D
:10113000112319F08D2D817001C08695882309F443
:1011400039C1402F429546954770440F440F202FD8
:101150002F7030E0C901042E01C0880F0A94EAF70D
:1011600004FF08C02FE030E001C0220F4A95EAF7E3
:10117000209501C020E03D2D3695369533703230F4
:1011800051F070F440918901313019F0822B8423A1
:1011900008C0842B05C0282B80918901822701C0BB
:1011A000822B0E94F91D06C19D2D9F70C92E11230F
:1011B00039F0892F0E94091E802F0E945A1EFAC002
:1011C000802F0E944F1E8C2D0E94FD1DF3C0802F8A
:1011D000E2EFBE1661F1EB1538F0F0EFBF1659F0F3
:1011E00021EFB216F9F059C033EFB31639F194EF8D
:1011F000B91691F152C0112381F0E4E0EC1508F426
:10120000D5C02D2D2F7181E090E001C0880F2A9567
:10121000EAF79091890189271CC0F5E0FC1508F4D4
:10122000C5C0EFCF112329F08D2D8F7128C0112358
:10123000D9F38D2D8F710E94FD1DB8C0112341F08F
:1012400081E09D2D9F7101C0880F9A95EAF701C03A
:1012500080E00E94F91DAAC01123A1F00D2D0F718D
:10126000802F0E94091E8091D60182FD07C028E0D0
:10127000029FC001112483608093CC01802F0E94C3
:10128000091E94C081E00E94E01431E03C1508F092
:101290008DC082E00E94E01489C0112331F0CC207F
:1012A00019F2802F0E949C1E81C0CC2011F289333C
:1012B00049F48FEF97EEE3E081509040E040E1F792
:1012C00000C00000802F0E94641E70C08B2D90E033
:1012D000FC01E05FF109E730F10508F03EC0EE598E
:1012E000FF4F0C949B1F112309F480C09091930130
:1012F00081E0892715C01093930160C081E08127A8
:101300000FC011115BC081E0809393016FC0111178
:1013100055C06AC0112339F082E08093650181E0F5
:10132000809393014BC080916501823019F481E074
:101330008093650180916501833009F057C052C0E8
:10134000112339F080919201882381F21092920149
:1013500035C0F4E0FC1550F649C080919201CC20D4
:10136000C1F0882341F09091930181E08927809317
:10137000930110929201802F112319F00E949C1E5C
:101380001DC00E94641E86E0F70111928A95E9F75C
:101390002DC0882399F0111111C09091930181E023
:1013A0008927809393011092920120C088EF890DC4
:1013B000843020F40E94F11A0E94EC031123B1F052
:1013C0008D2D807F803619F4F6EFBF1679F080916D
:1013D0006501823019F483E0809365018091650195
:1013E000813021F41092650110929301AA2009F432
:1013F000ABC08091CC0180FDA7C0F701128285951A
:10140000859585950E94091EC7010E94FA03809167
:10141000CC0185958595859529960FB6F894DEBF04
:101420000FBECDBFDF91CF911F910F91FF90EF9035
:10143000DF90CF90BF90AF909F908F907F906F90F4
:101440005F904F903F900C94FD1DE759FF4F0C9417
:101450009B1F85E001C080E00E94FA1C8091F20190
:101460000E94CA1C13CB8091F201982F96959695F5
:10147000969549F1915E990F990F990F8770892B75
:101480008093F20114C09091F201892F8695869580
:1014900086958F5F8F719770863008F03FC0880FF8
:1014A000880F880F892B8093F2018091F201887F49
:1014B00091E009F490E08091F20190FB80F9809333
:1014C000F2010E94CA1C8091F2018695869586954C
:1014D0000E949E1CDBCA2091F201822F8695869580
:1014E0008695482F50E04530510554F48F5F982F72
:1014F000990F990F990F822F8770892B8093F20192
:101500008091F2018160DBCF8091F20180FF03C006
:101510000E94131DBBCA0E94201DB8CA9093F201FD
:10152000C4CF8091F20181FF03C00E94CF1CAECADC
:101530000E94E51CABCA01319FE5190709F0DFCA1B
:1015400082E0A0CA89E27CCC29960FB6F894DEBF6F
:101550000FBECDBFDF91CF911F910F91FF90EF9004
:10156000DF90CF90BF90AF909F908F907F906F90C3
:101570005F904F903F9008958091810187FF11C047
:101580008091E80082FD05C080917F018111F8CF34
:1015900011C08091E8008B770BC080917F01882378
:1015A00049F08091E80080FFF8CF8091E8008E77C5
:1015B0008093E8000895982F973068F59093E9009C
:1015C000981739F07091EC002091ED005091F000E7
:1015D00003C0242F762F50E021FD02C09F5FECCF87
:1015E0003091EB003E7F3093EB003091ED003D7F7A
:1015F0003093ED003091EB0031603093EB0070934D
:10160000EC002093ED005093F0002091EE0027FDB8
:10161000E5CF80E008958F708093E90081E0089520
:1016200020918701309188012617370748F061150E
:10163000710539F42091E8002E772093E80001C06D
:10164000B901FC0120E06115710579F180917F01FC
:101650008823F1F18530F1F18091E80083FD3CC0F1
:101660008091E80082FD2EC08091E80080FFEBCFE2
:101670002091F3008091F20090E0922B61157105AA
:1016800051F08830910538F421912093F100615098
:1016900071090196F3CF21E0089709F020E08091CD
:1016A000E8008E778093E800CECF2111CFCF0AC01B
:1016B00080917F01882361F0853061F08091E8009E
:1016C00083FD0AC08091E80082FFF2CF80E0089598
:1016D00082E0089583E0089581E00895089580915F
:1016E0007401089580918901982F9670963011F4B5
:1016F000886001C0877F0C94F91D1F93CF93DF93FF
:10170000CDB7DEB7AA970FB6F894DEBF0FBECDBF38
:10171000E1E8F1E08091F100819341E0E938F407DC
:10172000C9F780918201833009F462C030F48130BE
:1017300071F0823009F49CC0B3C08A3009F488C0CB
:101740008B3009F46DC0893009F0AAC020C08091A7
:101750008101813A09F0A4C08091E800877F8093DD
:10176000E8008091850190918601892B21F468E041
:1017700085E791E003C060E080E090E070E00E94C7
:10178000100B8091E8008B778093E80089C08091EE
:101790008101813209F084C0809185019091860198
:1017A000009719F0029709F07BC08091E800877FCD
:1017B0008093E8008091E80082FD05C080917F0160
:1017C0008111F8CF6DC02091F3008091F20090E07C
:1017D000922B029729F48091F1008B7F813021F4C4
:1017E0008091F100809374018091E8008B7754C060
:1017F00080918101813A09F053C0809185019091D7
:101800008601892B09F04CC08091E800877F809386
:10181000E8008091E80080FFFCCF8091000137C094
:10182000809181018132E1F580918501909186015D
:10183000892BB1F58091E800877F8093E8000E94B2
:10184000BC0A80918301809300010E94441E28C03D
:1018500080918101813221F58091E800877F80931A
:10186000E8000E94BC0A809184018093730118C033
:1018700080918101813AA1F48091E800877F809373
:10188000E8008091E80080FFFCCF80917301809395
:10189000F1008091E8008E778093E8000E94BC0AF6
:1018A0008091E80083FFDDC18091810190918201E8
:1018B000492F50E04A30510508F0D3C1FA01E059F0
:1018C000FF4F0C949B1F803821F0823809F0C9C16A
:1018D00008C080917D0190917E01992389F08260FA
:1018E0000FC0809185018F70873008F0BAC1809356
:1018F000E9008091EB0085FB882780F91092E900D0
:101900009091E800977F9093E8008093F100109207
:10191000F10070C1282F2D7F09F0A3C1882319F091
:10192000823061F09EC180918301813009F099C1BC
:10193000933009F080E080937E012EC08091830176
:1019400081112AC0809185018F702FEF280F2630DA
:1019500008F087C18093E9002091EB0020FF1CC0B4
:10196000933021F48091EB00806214C09091EB00E1
:1019700090619093EB0021E030E0A90102C0440F98
:10198000551F8A95E2F74093EA001092EA00809191
:10199000EB0088608093EB001092E9008091E800F2
:1019A000877F8093E8000E94BC0A5BC1811159C106
:1019B000109183011F778091E3008078812B8093C1
:1019C000E3008091E800877F8093E8000E94BC0AD2
:1019D0008091E80080FFFCCF8091E30080688093D5
:1019E000E300111102C082E001C083E080937F0117
:1019F00038C18058823008F034C120918301309181
:101A000084012C3D53E0350779F583E08A838AE22F
:101A100089834FB7F894DE01139620E03EE051E24F
:101A2000E32FF0E050935700E49120FF03C0E295CC
:101A3000EF703F5FEF708E2F90E0EA3010F0C796A6
:101A400001C0C0968D939D932F5F243149F74FBFFE
:101A50008091E800877F8093E8006AE270E0CE0121
:101A600001960E94100BB4C080918501909186016F
:101A7000432F552743305105A9F068F441305105F3
:101A800009F4FEC04230510509F0EBC08BE590E04F
:101A9000EAEDF2E04BC04132510529F142325105E5
:101AA00089F1DFC0C901992781309105A1F058F073
:101AB000029709F0D6C0E7E4F3E0E4918E2F90E0BE
:101AC000E7E4F3E030C0E1E7F3E0E4918E2F90E04B
:101AD000E1E7F3E028C0E3E5F3E0E4918E2F90E046
:101AE000E3E5F3E020C08330910508F0BAC0880F29
:101AF000991FFC01EC5EFE4F0190F081E02D89E022
:101B000090E014C08330910508F0ABC0FC01EE0FEB
:101B1000FF1FE25FFE4F0190F081E02DDC01A55F29
:101B2000BE4F8C9190E0009709F49BC02091E80093
:101B3000277F2093E80020918701309188012817A2
:101B4000390708F4C90140E0009789F120917F012D
:101B5000222309F43DC02530D9F12091E80023FD6E
:101B600037C02091E80022FD2FC02091E80020FF1F
:101B7000EBCF4091F3002091F20030E0342B00973E
:101B800059F02830310540F444914093F1003196EA
:101B900001972F5F3F4FF3CF41E02830310509F027
:101BA00040E02091E8002E772093E800CDCF41114E
:101BB000CDCF0AC080917F01882351F0853041F05C
:101BC0008091E80083FD04C08091E80082FFF2CF9D
:101BD0008091E8008B778093E80043C0803809F05B
:101BE00040C08091E800877F8093E8008091800169
:101BF0008093F1008091E8008E77D3CE811131C0BF
:101C000080918301909184019927029754F58091E6
:101C1000E800877F8093E800109183011093800192
:101C20000E94BC0A111106C08091E30087FD02C02A
:101C300081E001C084E080937F0142E061EC81E0BB
:101C40000E94DB0A42E261EC84E00E94DB0A42E28D
:101C500061EC82E00E94DB0A42E260EC83E00E94D9
:101C6000DB0A8091E80083FF10C08091E800877F45
:101C70008093E8008091EB0080628093EB0005C0C8
:101C800082E190E0E5E3F3E051CFAA960FB6F89435
:101C9000DEBF0FBECDBFDF91CF911F9108951F9280
:101CA0000F920FB60F9211242F933F934F935F9390
:101CB0006F937F938F939F93AF93BF93CF93DF9354
:101CC000EF93FF93C091E900CF708091EC00D82F83
:101CD000D17080FDD0E81092E9008091F000877FFC
:101CE0008093F00078940E947D0B1092E90080911F
:101CF000F00088608093F000CD2BCF70C093E90096
:101D0000FF91EF91DF91CF91BF91AF919F918F9113
:101D10007F916F915F914F913F912F910F900FBEE7
:101D20000F901F901895E8EDF0E080818E7F808302
:101D30001092E2001092DA001092E100A0EEB0E002
:101D40008C9181608C9380818F77808319BCA7ED03
:101D5000B0E08C918E7F8C9380818F7E80831092F7
:101D600072010895CF92DF92EF92FF920F931F932B
:101D7000CF93DF93C8EDD0E088818F7E8883E7ED35
:101D8000F0E080818160808384E082BF81E0809385
:101D9000720188818E7F888302EE10E0F801108244
:101DA0001092DA0081EEC82ED12CF60110828881C3
:101DB0008F77888388818068888388818F7D8883F6
:101DC00019BC10927F011092800110927E01109236
:101DD0007D0190EEE92EF12CF70180818B7F8083CD
:101DE00088818160888342E060E080E00E94DB0AB5
:101DF000F60180818E7F8083F801808181608083FD
:101E0000808188608083F70180818E7F80838881D4
:101E100080618883DF91CF911F910F91FF90EF90A8
:101E2000DF90CF9008951F920F920FB60F9211245A
:101E30002F933F934F935F936F937F938F939F93D2
:101E4000AF93BF93EF93FF938091E10082FF09C0AE
:101E50008091E20082FF05C08091E1008B7F80933A
:101E6000E1008091DA0080FF2AC08091D80080FFD5
:101E700026C08091DA008E7F8093DA008091D900AD
:101E800080FF18C080E189BD82E189BD09B400FEF0
:101E9000FDCF81E080937F018091720181110FC09D
:101EA0000E94930E0E94B20E8091E20084608093A3
:101EB000E20005C019BC10927F011092720180915E
:101EC000E10080FF17C08091E20080FF13C0809185
:101ED000E2008E7F8093E2008091E2008061809337
:101EE000E2008091D80080628093D80019BC85E020
:101EF00080937F018091E10084FF2EC08091E200F9
:101F000084FF2AC080E189BD82E189BD09B400FE59
:101F1000FDCF8091D8008F7D8093D8008091E10023
:101F20008F7E8093E1008091E2008F7E8093E200BB
:101F30008091E20081608093E2008091800188239B
:101F400011F084E007C08091E30087FD02C081E0CA
:101F500001C083E080937F018091E10083FF27C06F
:101F60008091E20083FF23C08091E100877F80930E
:101F7000E10082E080937F01109280018091E10076
:101F80008E7F8093E1008091E2008E7F8093E2005B
:101F90008091E20080618093E20042E060E080E0B6
:101FA0000E94DB0A8091F00088608093F000FF912E
:101FB000EF91BF91AF919F918F917F916F915F91C1
:101FC0004F913F912F910F900FBE0F901F9018953A
:101FD0002091E4003091E50095E64091EC00842FDB
:101FE000817040FF23C08091E80080FD1DC080917A
:101FF0007F01882399F0853099F08091EB0085FD71
:1020000011C04091E4005091E5002417350729F3F1
:10201000915011F09A01E1CF84E0089582E0089593
:1020200083E0089581E0089580E008954091E800FC
:1020300042FFDDCF0895EF92FF920F931F93CF934E
:10204000DF937C018B010E94E80F811119C0E70129
:1020500001151105A1F08091E80085FD0AC080916D
:10206000E8008E778093E8000E94E80F882381F3D0
:1020700007C089918093F10001501109E9CF80E0F8
:10208000DF91CF911F910F91FF90EF900895909164
:102090007F01943029F580936F01709371016093F3
:1020A00070019093E9008FEF9091E800815095FDC9
:1020B00006C095ED9A95F1F700008111F5CF80915A
:1020C000E80085FF0DC040E050E063E070E08FE67F
:1020D00091E00E941B108091E8008E778093E800C9
:1020E0000895BC0184E00C944710BC0183E00C947B
:1020F0004710CF93DF9321E02093E9002FEF309139
:10210000E800215035FD06C035ED3A95F1F70000A5
:102110002111F5CF2091E80025FF14C0EC0140E02B
:1021200050E068E070E00E941B108091E8008E771C
:102130008093E80088E0FE01A5E7B1E001900D92F0
:102140008A95E1F7DF91CF91089581E08093E000D7
:1021500080E28093D8001092C9008FE19EE401973D
:10216000F1F700C0000087E090EBDC0180930D02E6
:1021700090930E02A0930F02B09310029CE088E1AE
:102180000FB6F894A895809360000FBE90936000FE
:10219000FFCF78941F920F920FB60F9211248F9356
:1021A0009F93AF93BF9380916B0190916C01A0912D
:1021B0006D01B0916E010196A11DB11D80936B015F
:1021C00090936C01A0936D01B0936E01BF91AF919C
:1021D0009F918F910F900FBE0F901F9018952FB762
:1021E000F89480916B0190916C01A0916D01B09178
:1021F0006E012FBF08951F920F920FB60F921124F8
:102200008F939F93AF93BF9380916A01811113C005
:1022100080916B0190916C01A0916D01B0916E0164
:102220004196A11DB11D80936B0190936C01A09309
:102230006D01B0936E01BF91AF919F918F910F90FF
:102240000FBE0F901F9018959C01FC0132969FEFD6
:1022500080E04191461789F09F3F19F4411101C078
:10226000982F8F5F8630A9F79F3F39F0F901E90F6A
:10227000F11D97FDFA9562830895089520916801F4
:10228000309169012817390771F0909369018093A3
:102290006801E0916601F0916701309721F00084B8
:1022A000F185E02D0994089580E008959091D5017D
:1022B00092FF0DC0282F2871283019F4877F846081
:1022C00006C0282F2471243011F48B7F886093FF7F
:1022D0000DC0282F2871283119F4877E846106C02B
:1022E000282F2471243111F48B7E88612091D6012E
:1022F00020FF0DC0382F3871383019F4877F816086
:1023000006C0382F3171313011F48E7F886021FF83
:102310000DC0282F2871283119F4877E816106C0ED
:10232000282F2171213111F48E7E886194FD877EE2
:102330000895F894E82FE295EF70F0E031A1282F8E
:102340002F7081E090E001C0880F2A95EAF7982F5E
:102350009095932391A392A1892B82A378940895B9
:102360009F92AF92BF92CF92DF92EF92FF920F9324
:102370001F93CF93DF93CDB7DEB728970FB6F894AE
:10238000DEBF0FBECDBFAE014F5F5F4F7A0188E069
:10239000FA0111928A95E9F70BE411E05A01CC2475
:1023A000C394D12CF80180818F3F09F447C0F89481
:1023B000E82FE295EF70F0E021A18F70A60102C036
:1023C000440F551F8A95E2F7CA01922F982B91A3CB
:1023D00092A18095892382A3789400C0E3E5F1E07F
:1023E00020E030E0912C41914F3FB1F0A42FA29515
:1023F000AF70B0E090968C9190E04F7002C09595D0
:1024000087954A95E2F780FD07C08C2D022E01C00A
:10241000880F0A94EAF701C080E0982A2F5F3F4FA7
:102420002630310501F7F80180818F3F11F00E94BD
:102430009911F0EAFA95F1F7F50190820F5F1F4FBD
:10244000FFEFAF1ABF0A41E00335140709F0AACF26
:1024500048E050E0B70187ED91E00E94C21F11E013
:10246000009709F410E0892B89F088E0F701A7EDC7
:10247000B1E001900D928A95E1F781E08093D4015B
:102480000E94EF109093D3018093D2018091D401E8
:102490008823F9F02091D2013091D3014FB7F894FD
:1024A00080916B0190916C01A0916D01B0916E01D2
:1024B0004FBF821B930B059760F0E7EDF1E0AAEEAA
:1024C000B1E081918D9351E0EF3DF507D1F7109286
:1024D000D401812F28960FB6F894DEBF0FBECDBF72
:1024E000DF91CF911F910F91FF90EF90DF90CF90F0
:1024F000BF90AF909F900895CF93DF93823891055E
:1025000069F1B0F48133910509F46FC048F4893260
:10251000910509F465C08A32910509F46BC08AC03F
:102520008533910509F457C089339105B9F082C00C
:10253000833E910571F138F4803E9105B1F0823E01
:10254000910511F177C0863E9105B9F1873E91055D
:10255000C9F1843E910509F06DC024C02091D501D8
:1025600020FD53C021FD51C065C08091D50180FD83
:1025700046C08091D60180FF48C08091D50184FD7E
:1025800047C183EE90E046C18091D50182FF3AC0F9
:10259000F4CF8091D50182FD35C08091D60180FDB8
:1025A00034C0EBCF8091D60181FF35C08091D50139
:1025B00084FD2EC187EE90E02DC18091D50183FF6F
:1025C00027C0F4CF8091D50183FD22C08091D60130
:1025D00081FD21C0EBCF8091D50185FD1FC021C0B9
:1025E0008091D50185FD1DC019C08091D50186FD62
:1025F0001BC01DC08091D50186FD19C015C089E39F
:1026000090E008C182EE90E005C180EE90E002C14A
:1026100086EE90E0FFC084EE90E0FCC089E290E09E
:10262000F9C085E390E0F6C08AE290E0F3C081E370
:1026300090E0F0C0811532E5930708F069C081157C
:1026400041E5940728F0982F8827816F906AE2C0AF
:10265000883E910568F5803E910508F0DBC0883A18
:102660009105B8F4853A910548F0855AE82FF0E0D5
:10267000E65EFE4F808190E09064CCC08130910591
:1026800009F4C3C008F4C4C08430910508F4C0C084
:10269000C1C08F3B910508F0BBC0885AE82FF0E01D
:1026A000EE0FFF1FE35EFE4F808191819464B2C004
:1026B000811520E59207F0F09C0174E0369527958E
:1026C0007A95E1F7922F9370482F437021E030E024
:1026D00002C0220F331F4A95E2F73C68392B8F70F6
:1026E000982F9695969540E2949FC0011124822BD5
:1026F000932B90C0811530E4930718F09F70906A77
:1027000089C09C013A9521153F4108F483C080C0DF
:10271000EC01C11586E5D807E8F5C11525E5D20716
:1027200048F08C2F0E9456118F7190E0982F8827C7
:10273000906270C0C11534E5D30728F09C2F88271C
:10274000846F906A67C0AE01437055272C2F269581
:102750002695C115D34578F481E090E002C0880F3A
:10276000991F4A95E2F740E2249F90011124822BA1
:10277000932B9C684FC081E090E002C0880F991FA6
:102780004A95E2F740E2249F90011124822B932B7B
:102790009A6840C0C11529E5D20788F4C11538E50B
:1027A000D30728F09C2F8827806F906A33C0C1150B
:1027B00047E5D40768F5CE01992790662BC0C1156F
:1027C0008AE5D80790F48C2F8F700E94561194E000
:1027D000D695C7959A95E1F7CF70D0E0DC2FCC273E
:1027E000D0699E01282BC90115C0CE0190568115D4
:1027F000904270F48D2F8F710E945611282F2F71E7
:10280000CE0199279062922B05C081E090E002C032
:1028100080E090E0DF91CF910895CF9384E090E045
:102820000E94131FC82F82E290E00E94131F2C2FDA
:1028300030E0A901582BCA01CF91089580E090E0C3
:102840000E941B1F893E9E4F11F40C94201C80E0B7
:10285000089569EE7EEF80E090E00E943F1F60E007
:1028600082E090E00E94211F60E083E090E00E94FF
:10287000211F1092D10160E084E090E00E94211FAE
:1028800060E082E290E00E94211F60E085E090E03D
:102890000E94211F60E086E090E00E94211F6FEF00
:1028A00087E090E00E94211F40E050E0BA0188E0FC
:1028B00090E00E94331F60E08DE090E00E94211FB5
:1028C00040E050E0BA0188E190E00E94331F60E0F0
:1028D00087E190E00E94211F40E050E0BA018CE1C6
:1028E00090E00E94331F60E070E080E290E00E9480
:1028F0003F1F40E050E0BA0188E190E00E94331FA2
:1029000080E00E94F31B0E94111C40E050E0BA01DD
:102910008FE090E00E94331F40E050E0BA0183E175
:1029200090E00C94331F8091D00181111092D0015E
:1029300008959091CF018091CE01892B2091CD01F6
:10294000982F922B90938A018091D001882389F04F
:10295000892B80938A01ECE8F1E097E080E09150C8
:1029600029F021912223D9F38F5FF9CF81110E94A1
:102970009314E0916601F0916701309731F0028085
:10298000F381E02D8AE891E009940895CF93C091F6
:10299000D601C2FB992790F9981781F080FBC2F904
:1029A000C093D6016091D50184E090E00E94211F80
:1029B0006C2F82E290E0CF910C94211FCF9108956B
:1029C0002091CC01809582238093CC01982F977021
:1029D00041F430E0482F082E000C550B2417350722
:1029E00021F49091D60192FF07C085958595859534
:1029F0000E94FD1D1092CC0108958091CB01909111
:102A00009A01891719F08F5F8770FBCF08950F9394
:102A10001F93CF93DF938091990182958F7009F076
:102A20005DC080919601882309F458C08091CB0144
:102A300010919A016091940170919501C091970154
:102A4000D091980191E06F3F09F090E0292F06E0C6
:102A5000811709F443C0209721F07F3F21F030E037
:102A600003C031E001C0322F90E030FD34C0089F38
:102A7000F001099FF00D1124DF01A556BE4F1196FC
:102A80003C911197371327C03C91361324C01296FE
:102A90003C91129731111FC013964D915C91149780
:102AA0004C1B5D0B483C5105B0F4809199018F702F
:102AB000806180939901E056FE4F80818F70806124
:102AC000808384E991E00E94FA03DF91CF911F9106
:102AD0000F910C94FD1401968770BACFDF91CF91BE
:102AE0001F910F910895CF93DF93EC010E94711D08
:102AF000BE010E94E61B0E947C12DF91CF910895D7
:102B00009F92AF92BF92CF92DF92EF92FF920F937C
:102B10001F93CF93DF93CDB7DEB761970FB6F894CD
:102B2000DEBF0FBECDBF8C0185E0F801DE011D9632
:102B300001900D928A95E1F7F801E280909194015D
:102B4000609195014091970150919801411551056F
:102B500031F06F3F31F481E09F3F19F403C081E011
:102B600001C080E0F82FF1709F2E80FD1AC1F8019E
:102B700030812181C380D48084E9A82E81E0B82EE1
:102B8000F0909601F601E41BF50BFF2009F4C6C096
:102B900080919901E83CF10508F091C0482F407FF1
:102BA00009F050C0621311C093130FC0FE2CE11046
:102BB0000CC08F70806180939901C5010E94FA0357
:102BC00080919901F801858337C1CD2831F02F3FDD
:102BD00031F481E03F3F19F403C081E001C080E09F
:102BE00080FD03C081E08E2502C080E090E0F82FD8
:102BF000F170FF2E80FF1CC08091CB0140919A01A3
:102C000056E0841709F4F6C090E0589FF001599FF0
:102C1000F00D1124E556FE4F6181261306C0608138
:102C2000631303C06281E61203C001968770E9CF87
:102C3000FE2CEE2009F400C18091990181608093FF
:102C4000990149C0621306C0931304C0E11002C089
:102C5000F80186C0C8010E94181E882351F1EE2099
:102C600041F120919901822F82958F7090E0029717
:102C700074F0809194019091950198878F831986C3
:102C8000DB86CA862C87CE0107960E94FA0386E06F
:102C9000F801A4E9B1E001900D928A95E1F70E9454
:102CA00007150AC06217C9F0C8010E94181E8111D9
:102CB0001EC0C8010E94FA03FF24F394BDC0482F30
:102CC000407F81F784E991E00E94FA0386E0F501F4
:102CD00011928A95E9F7F12CAFC09313E5CFE1107B
:102CE000E3CFF8018583C8010E94FA0354C0EE20A7
:102CF00001F320919901822F82958F7090E00297C5
:102D000034F280919401909195019A8389831B827A
:102D1000DD82CC822E83CE010196B7CFE83CF1054F
:102D2000D0F5FE2CEE2029F2621327C0931325C0A4
:102D30002091990120FD18C0822F82958F70482F15
:102D400050E04115510581F0F80125834F305105C0
:102D500041F08F5F982F9295907F822F8F70892BF3
:102D60008583C8010E94FA0386E0F801A4E9B1E076
:102D700001900D928A95E1F75FC0C8010E94181E6C
:102D8000811185CF80919901816080939901C8015B
:102D90000E94FA0351C086E0F50111928A95E9F785
:102DA0004BC0EE2009F485CFC8010E94181EF82EF2
:102DB000882309F47ECF86E0F801A4E9B1E0019010
:102DC0000D928A95E1F780919401909195010E946E
:102DD000731592959F70963051F4863F41F0809123
:102DE000930191E0892780939301909392010E942F
:102DF000071522C03D872E878D859E850E947315FD
:102E0000292F22952F70223028F49F7039F08111DC
:102E100005C00BC0243028F49F7049F4805E8830D0
:102E200020F0C8010E94FA039F2CF92C05C0F8017C
:102E30009581907F99F7F9CF8F2D61960FB6F89411
:102E4000DEBF0FBECDBFDF91CF911F910F91FF90DD
:102E5000EF90DF90CF90BF90AF909F900895CF9369
:102E6000DF93CDB7DEB7AA970FB6F894DEBF0FBEDB
:102E7000CDBF84B7877F84BF0FB6F894A8958091A3
:102E80006000886180936000109260000FBE90E047
:102E900080E80FB6F89480936100909361000FBEB4
:102EA00085B7806885BF85B7806885BF84E591E177
:102EB00090935B0180935A010E94930E0E94B20E80
:102EC0008091E20084608093E200789480917F0199
:102ED0008823A1F01091E9001F709091EC00892FD8
:102EE000817090FD80E8182B1092E9008091E80035
:102EF00083FD0E947D0B1F701093E90082E084BD6A
:102F000093E095BD9AEF97BD80936E000E94201CC0
:102F1000811102C00E94111C0BE411E063E5E62E52
:102F200061E0F62EF80181918F018F3F11F00E9430
:102F30009911E016F106B1F703E511E059E5E52E28
:102F400051E0F52EF80181918F018F3F11F00E9421
:102F50009911E016F106B1F7E7EDF1E08FED91E0A0
:102F6000AAEEB1E011921D928E179F07D9F70E9429
:102F70001E14811102C00E94291482E090E00E9478
:102F8000131F8093E1010E940D149093D60180934A
:102F9000D5010E94B0118FE39CE90197F1F700C0C1
:102FA00000000E94B0118091EA0180FF08C06FEF1D
:102FB0007FEF80E090E00E943F1F0E94A51083E019
:102FC00090E00E94131F0E94141E3E9A469882E8C9
:102FD0008093900089E1809391008FEF9FEF909311
:102FE0009700809396000E94381D8091F20181FF26
:102FF0000BC01092F5011092F4011092F301809130
:103000007100816080937100269A2E9A259A2D9ADC
:103010000E94381D81E091E09093670180936601E2
:1030200038E1C32ED12C40E4842E992493948E0150
:103030000F5F1F4F80917F01853009F05EC090E1E6
:10304000E92E22E1F22E80917F01853009F045C002
:1030500080917F01843009F42FC08091F20180FFBC
:1030600004C00E94131D9092DF0180E00E949E1C0C
:1030700080E00E94EC0310926A010FB6F894A895C4
:10308000C09260000FBE8092600083B7817F846031
:1030900083BF83B7816083BF7894889583B78E7F21
:1030A00083BF0FB6F894A8958091600088618093E3
:1030B0006000109260000FBE80917E01882309F4A9
:1030C000C2CF0E94B011EAEEF1E08191811118C2E5
:1030D00091E0E23FF907C9F7B6CF0E94441E0E9473
:1030E000381D0E94F11A0E94EC038091DF018823B1
:1030F00021F00E94201D1092DF010E94B011882350
:1031000059F08FB7F89440916B0150916C01609128
:103110006D0170916E018FBFA2EEB1E0EAEEF1E0B9
:10312000E12CF12C3E2D21919D91922721F180E0FF
:10313000BB24B394492F4B21D1F089A33AA32B216F
:1031400081E009F480E08BA30E94EF108160782F6A
:103150009DA38CA349A15AA16BA18DA10E94040338
:10316000F701EE51FE4F8081B826B0821BC08F5F01
:10317000BB0C8630F9F62FEFE21AF20A88E0E81667
:10318000F10481F68FEF8EA38FA318A60E94EF1093
:103190008160782F9AA789A74EA15FA168A58AA50B
:1031A0000E9404030E94F11A9091E001891731F006
:1031B0000E94F11A8093E0010E94EC0380917F014C
:1031C000843009F037CF83E08093E9008091E800F4
:1031D00082FF30CF8091E80085FF23C00E94E80F76
:1031E00081111DC080E2E82EF12CFE0131965F01B5
:1031F00009C08091F100F50181935F01F1E0EF1AC0
:10320000F10869F08091E80085FDF3CF8091E80036
:103210008B778093E8000E94E80F882399F391E070
:1032200001C090E08091E8008B778093E8009923BB
:1032300009F400CFE9818E2F90E0FC013197E33152
:10324000F10508F033C1E658FF4F0C949B1F1A821A
:1032500089E093C08A81823009F468C1833089F0A3
:10326000813009F023C12FB7F89480916B019091C0
:103270006C01A0916D01B0916E012FBFBB83AC8337
:103280001EC0FE013396CE010B96AAEEB1E02D9141
:1032900021938E179F07D9F70BC18A81823009F0DD
:1032A00005C16B817C818D819E810E94A11F86E278
:1032B00090E024C04C816B818A810E94C01B9D8359
:1032C0003CC1AD80BE80BA24AB24BA248C81EB8093
:1032D0009A812CE0E29E70011124E0E69E9FE00CB2
:1032E000F11C1124E80EF11CE80EF11C6B2DC70136
:1032F00087960E94211F6A2DC70188960E94211F70
:10330000D7C00E948C1BD4C08A81893019F08A30C2
:1033100071F0CEC08B81F5E08F9FC00111246FEF5B
:1033200070E00E94651F862F0E94FA1CC1C08B812D
:10333000811103C00E94CF1CBBC00E94E51CB8C015
:103340008A81893041F08A3009F0B2C08091F2015F
:103350008695817012C08091F2018695869586953A
:103360002FEF829FC001112465E070E00E94651F6D
:103370006B839EC082E08A8389E58B8399C08091AC
:10338000F2010E94CA1C94C080E14BC0EA80FB801D
:10339000FE24EF24FE24AC80B12C3801C7018955EE
:1033A0009E4F9301201B310B2A153B0508F080C06E
:1033B000E9E5EE16E2E0FE0628F40E94131FF30191
:1033C000848302C0F3011482FFEFEF1AFF0A2FEF8C
:1033D000621A720AE3CFEA80FB80FE24EF24FE2407
:1033E000AC80B12C3801C70189559E4F9301201B39
:1033F000310B2A153B0508F05BC0E9E5EE16E2E06B
:10340000FE0620F4F30164810E94211FFFEFEF1AF2
:10341000FF0A2FEF621A720AE6CF0E947C1B48C097
:1034200084E08A8345C0EA80FB80FE24EF24FE24EA
:10343000AC80B12C3801C70187969301201B310B5A
:103440002A153B05A8F5E0E8EE16E1E0FE0628F4B3
:103450000E94131FF301848302C0F3011482FFEF63
:10346000EF1AFF0A2FEF621A720AE5CFEA80FB809B
:10347000FE24EF24FE24AC80B12C3801C7018796CE
:103480009301201B310B2A153B0590F4E0E8EE1662
:10349000E1E0FE0620F4F30164810E94211FFFEFAA
:1034A000EF1AFF0A2FEF621A720AE8CF8FEF8983B3
:1034B00080917F01843009F0BDCD8091E9008F704B
:1034C0002091EC00922F917020FD90E8F92EF82ABF
:1034D00082E08093E9008091E80080FF0CC040E02A
:1034E00050E060E270E0C8010E941B108091E8008B
:1034F0008E778093E8008F2D8F708093E9009ACDAE
:10350000E9BCF9BC09B400FEFDCF8091D8008F7DE5
:103510008093D8008091E00082608093E0008091E9
:10352000E00081FDFCCF0E94441E8DCD86E290E03C
:103530000E94131F1B821C821D828E83B9CFCF92E3
:10354000DF92EF92FF928C3724E1920728F469E032
:1035500070E00E94651F29C0A0E0B0E08A50974D3E
:10356000AF4FBF4F6627782F892F9A2F25EF38E26C
:1035700041E050E00E94791F69017A01CA01B90156
:103580000E94551F9B01AC01C701B6010E94551F47
:10359000BB27A92F982F872F009721E0A207B105FD
:1035A00011F0BC0102C06FEF7FEFCB01FF90EF90F5
:1035B000DF90CF9008952091F9013091FA012817FA
:1035C000390771F09093FA018093F901E091660157
:1035D000F0916701309721F00680F781E02D099482
:1035E0000895E0916601F0916701309721F0019014
:1035F000F081E02D099480E008950F931F93CF93FD
:10360000DF93C42F122FFC0182818823C9F04093DD
:10361000F8010E94EF109093F7018093F60180E289
:103620008C0F883008F063C0C77081E001C0880F3C
:10363000CA95EAF7DF91CF911F910F910C945A1E12
:103640008091F80148133CC02091F6013091F701B8
:103650004FB7F89480916B0190916C01A0916D012E
:10366000B0916E014FBF821B930B883C910540F5D2
:10367000D0E2D10FC117B9F080E28C0F883040F44E
:10368000C77081E001C0880FCA95EAF70E944F1EFB
:10369000D83030F581E0912F977001C0880F9A954E
:1036A000EAF70E945A1E802F0E94F51ED830F8F4C7
:1036B000212F277081E001C0880F2A95EAF70AC000
:1036C00080E28C0F883098F4C77081E001C0880FC9
:1036D000CA95EAF7DF91CF911F910F910C944F1E7D
:1036E000802FDF91CF911F910F910C94F51EDF91E8
:1036F000CF911F910F910895CF93DF93C7EAD1E047
:1037000060E0CE010E94211F2196C11584E0D807F8
:10371000B9F7DF91CF910895CF92DF92EF92FF92A8
:103720000F931F93CF93DF93C0E0D0E08E01005A38
:103730001F4F6E018CE0C80ED11CFE01EB50FC4FF8
:10374000E590F4906F2DCE0187960E94211F6E2D7B
:10375000CE0188960E94211F2296CC15DD0569F7BF
:103760000C171D0731F7E80100381140F9F6DF9119
:10377000CF911F910F91FF90EF90DF90CF90089520
:103780000F931F93CF93DF93C42FD0E0CC0FDD1F97
:103790002CE0629FC00DD11D112430E6839FC00D27
:1037A000D11D1124CE0187960E94131F082F10E00F
:1037B000102F0027CE0188960E94131F9801282BF6
:1037C000C901DF91CF911F910F910895462F843049
:1037D00038F4783028F4663018F4672F0C94C01B46
:1037E00080E090E00895CF93C82F811102C06FEF61
:1037F00001C061E283E290E00E94211FC11102C07A
:103800006FEF01C061E184E290E00E94211FC111CD
:1038100002C06FEF01C066E285E290E0CF910C94A8
:10382000211F80E00E94F31B60E086E290E00E948E
:10383000211F0E948C1B0E947C1B81E00C94F31BB7
:1038400083E290E00E94131F813281F484E290E0D1
:103850000E94131F813151F485E290E00E94131FF2
:1038600091E0863209F090E0892F01C080E08170FC
:1038700008951F920F920FB60F9211242F933F932A
:103880004F935F936F937F938F939F93AF93BF9368
:10389000EF93FF938091F4019091F501019668EB0D
:1038A00075E00E94651F9093F5018093F4016BE031
:1038B00070E00E94651F6F778091F301823019F4E8
:1038C000603451F404C0813039F46F3729F48091A9
:1038D00071008E7F80937100E62FF0E0EB58FC4F73
:1038E000E49121E031E0E29FC001E39F900D1124BB
:1038F00065E070E00E94651F8091F20186958695D3
:103900008695282F269FC001279F900D11240E9485
:103910009F1A9093990080939800FF91EF91BF9127
:10392000AF919F918F917F916F915F914F913F9157
:103930002F910F900FBE0F901F901895863048F46E
:10394000811108C0909190009F77909390004698C5
:1039500006C085E090919000906890939000282F89
:1039600030E0AFEFBFEF0E94A81F25E030E040E05D
:1039700050E00E94791FB42FA32F922F8827892F00
:103980009A2FAB2FBB270E949F1A90939900809388
:1039900098000895682F86E090E00C94211F809194
:1039A000F20181FF11C08D7F8093F2010E94CA1C39
:1039B000809171008E7F809371008091F2018695D5
:1039C000869586950C949E1C08958091F20181FD48
:1039D00010C082608093F2010E94CA1C1092F5010F
:1039E0001092F4011092F301809171008160809334
:1039F00071000895863008F085E09091F20197708B
:103A0000282F220F220F220F922B9093F201987FE2
:103A100021E009F420E09091F20120FB90F99093CD
:103A2000F2010C949E1C8091F20180FF08C08E7FF1
:103A30008093F2010E94CA1C80E00C949E1C0895A1
:103A40008091F20180FD13C081608093F20181308A
:103A500019F489E08093F2018091F2010E94CA1C5E
:103A60008091F2018695869586950C949E1C08950A
:103A70000E941E1481110AC00E9429148091F20133
:103A8000847089628093F2010E94CA1C86E090E0F3
:103A90000E94131F8093F201282F269526952695C4
:103AA00030E02630310524F0877088628093F2017F
:103AB0008091F20180FF04C086958695869501C0AD
:103AC00080E00C949E1C80E090E00E94DB1A80E075
:103AD00090E00E943E111092CE011092CD010C9404
:103AE0009914CF92DF92FF920F931F93CF93DF939E
:103AF0006C01009189018091D101082BC7E0D0E0D1
:103B000010E0C8010C2E02C0959587950A94E2F743
:103B100080FD04C02197A8F7F12C09C0FC2EB60146
:103B20008C2F0E94E61B0E947C12019799F38F2D27
:103B3000DF91CF911F910F91FF90DF90CF9008956B
:103B4000292F220F920F990F890F682F669566957E
:103B50006695982F977083E0689FB001112440E02C
:103B600050E080E0FB01E40FF51FE550FE4F20819F
:103B700030E0092E02C0369527950A94E2F72170AD
:103B80003327042E01C0220F0A94EAF7822B4F5FDD
:103B90005F4F4330510531F70895292F220F920FBF
:103BA000990F890FE82FE695E695E695877051E025
:103BB00001C0550F8A95EAF783E0E89FF0011124D0
:103BC000E550FE4F20E030E070E04081CB01022E56
:103BD00002C0969587950A94E2F7817081958427B3
:103BE0008523842781932F5F3F4F2330310569F769
:103BF0000895809389010C94631D21E030E001C099
:103C0000220F8A95EAF720958091890182230C94EE
:103C1000F91D21E030E001C0220F8A95EAF780917A
:103C20008901822B0C94F91D8093D1010C94631DA2
:103C3000FC01808191810E947315292F2F70E92F3B
:103C4000E295EF704E2F50E0FA013297EE30F10519
:103C5000B8F4E357FF4F0C949B1F803F99F018F482
:103C6000883E70F40FC0843F59F40CC0883E50F079
:103C7000813F31F407C0822F8695869586950895F9
:103C800080E0089581E008951092CF0186E0ECE88D
:103C9000F1E0DF011D928A95E9F70C94631D8823FA
:103CA00041F080959091CF0189238093CF010C94AE
:103CB00099140895882339F09091CF01892B80932E
:103CC000CF010C94991408958823A9F19CEF980FC3
:103CD000913A60F4EAE8F1E09281891301C012821E
:103CE000319641E0E039F407B9F714C090E2980F3B
:103CF000983090F4877021E030E0A90102C0440FB1
:103D0000551F8A95E2F7CA0180959091CF018923CA
:103D10008093CF010C9499149BE5980F933020F475
:103D200080E090E00C94DB1A885A873120F480E020
:103D300090E00C943E110895CF93882309F453C06A
:103D40009CEF980F913AF8F4C82FECE8F1E082E983
:103D500091E02191C21721F08E179F07D1F70DC076
:103D6000EAE8F1E08281C81301C01282319641E095
:103D7000E039F407B9F70E9499146C2F8AE891E0B2
:103D80000E94241113C090E2980F983090F487702D
:103D900021E030E0A90102C0440F551F8A95E2F7E7
:103DA000CA019091CF01892B8093CF01CF910C94C0
:103DB0009914EBE5E80FE33040F4F0E0E65EFE4FE7
:103DC000808190E0CF910C94DB1A885A873158F4A7
:103DD000E82FF0E0EE0FFF1FE35EFE4F8081918140
:103DE000CF910C943E11CF9108951F93CF93DF9301
:103DF000182F893319F0C0E0D0E002C0C0E5D0E050
:103E0000812F0E949C1E209741F08FE99FE001972F
:103E1000F1F700C000002197F6CF812FDF91CF91FD
:103E20001F910C94641EF999FECF92BD81BDF89A42
:103E3000992780B50895A8E1B0E042E050E00C94E5
:103E4000471F262FF999FECF92BD81BDF89A0197A1
:103E500000B4021639F01FBA20BD0FB6F894FA9AD2
:103E6000F99A0FBE08950396272F0E94221F0E94E1
:103E7000211F252F0E94221F242F0C94221F019600
:103E8000272F0E94221F0C94211FDC01CB01FC0173
:103E9000F999FECF06C0F2BDE1BDF89A319600B4A3
:103EA0000D9241505040B8F70895DB018F939F93D6
:103EB0000E94B71FBF91AF91A29F800D911DA39F3C
:103EC000900DB29F900D11240895AA1BBB1B51E1C8
:103ED00007C0AA1FBB1FA617B70710F0A61BB70B7A
:103EE000881F991F5A95A9F780959095BC01CD011F
:103EF0000895A1E21A2EAA1BBB1BFD010DC0AA1F2B
:103F0000BB1FEE1FFF1FA217B307E407F50720F042
:103F1000A21BB30BE40BF50B661F771F881F991FBD
:103F20001A9469F760957095809590959B01AC0106
:103F3000BD01CF010895EE0FFF1F0590F491E02D14
:103F4000099469279627692778278727782708956E
:103F5000A29FB001B39FC001A39F700D811D1124CA
:103F6000911DB29F700D811D1124911D08950E9415
:103F7000A81FA59F900DB49F900DA49F800D911D2B
:103F800011240895FB01DC0104C08D91019080197A
:103F900021F441505040C8F7881B990B0895F894BC
:023FA000FFCF51
:103FA200016F0B79106E0B751071104022329A025C
:103FB20078024602EC0205032503818283E200E9CE
:103FC20000EA00B500B600B700CD008301CC008A3C
:103FD20001920194012102230224022502260227D2
:103FE200022A02B300B4006F007000F4F53133917D
:0A3FF2009097C6939234F6F7320060
:00000001FF
