:100000000C94F6030C943D040C943D040C943D04B4
:100010000C943D040C943D040C943D040C943D045C
:100020000C943D040C943D040C94F8220C94AD21E6
:100030000C949C240C943D040C943D040C943D04BD
:100040000C943D040C943D040C943D040C943D042C
:100050000C943D040C944F240C943D040C943D04EA
:100060000C943D040C943D040C943D040C943D040C
:100070000C943D040C943D040C943D040C943D04FC
:100080000C943D040C943D040C943D040C943D04EC
:100090000C943D040C943D040C943D040C943D04DC
:1000A0000C943D040C943D040C943D041F091F095D
:1000B0005A095A09B409D209DC0ADC0ADD09510AD5
:1000C000620A620A4F0F520F730F800F870FA70F3C
:1000D00044104410441044104410AA0FAC0FB00F49
:1000E000D60FF90FFC0FFF0F23102C1F531FFA2000
:1000F000531FFA209F1FC21FFA20B720C720AD2927
:10010000AD29C029C029B629C029C029C029AD29D7
:10011000AD29BB29C029C029BB290000000000006F
:1001200000000000000000000000000000000000CF
:1001300000000000000000000000000000007E0F32
:1001400000D4FFFFFFC7000000780000000000009F
:1001500000002A2B28000000000000000000000022
:10016000000000000029000000002C1E3420212285
:1001700024342627252E362D3738271E1F202122EE
:10018000232425263333362E37381F040506070867
:10019000090A0B0C0D0E0F10111213141516171857
:1001A000191A1B1C1D2F3130232D35040506070895
:1001B000090A0B0C0D0E0F10111213141516171837
:1001C000191A1B1C1D2F3130354C00010101010192
:1001D0000101010102020202020202020203030300
:1001E00003030303030404040404040405050505D0
:1001F0000506060606060707070707080808080990
:100200000909090A0A0A0B0B0B0C0C0C0D0D0D0E3B
:100210000E0E0F0F0F1010111111121213131414D0
:10022000151516161717181819191A1A1B1B1C1D45
:100230001D1E1E1F2020212222232424252626279E
:100240002829292A2B2C2D2D2E2F303132323334D0
:1002500035363738393A3B3C3D3E3F4041424344D6
:1002600045464748494A4C4D4E4F505153545556B8
:1002700058595A5B5D5E5F616264656668696B6C64
:100280006D6F7072737577787A7B7D7E80828385DF
:1002900087888A8C8E8F91939596989A9C9EA0A21F
:1002A000A3A5A7A9ABADAFB1B3B5B7BABCBEC0C229
:1002B000C4C6C9CBCDCFD1D4D6D8DBDDDFE2E4E7ED
:1002C000E9EBEEF0F3F5F8FAFDFF05010902A101F3
:1002D00085020901A1000509190129081500250158
:1002E0009508750181020501093009311581257FC5
:1002F00095027508810609381581257F95017508D5
:100300008106050C0A38021581257F950175088143
:1003100006C0C005010980A101850319012AB700A3
:10032000150126B700950175108100C0050C090163
:10033000A101850419012AA002150126A002950138
:1003400075108100C005010906A101850505071981
:10035000E029E715002501950875018102050719B7
:100360000029EF1500250195F07501810205081996
:10037000012905950575019102950175039101C04B
:100380000660FF0961A1010962150026FF009520A2
:10039000750881020963150026FF009520750891F4
:1003A00002C005010906A101050719E029E71500AA
:1003B00025019508750181029501750881010507E0
:1003C000190029FF150026FF009506750881000514
:1003D000081901290595057501910295017503918B
:1003E00001C009025B00030100A0FA09040000013A
:1003F00003010100092111010001224000070581CC
:100400000308000A09040100020300000009211189
:1004100001000122220007058203200001070503D5
:10042000032000010904020001030000000921115A
:1004300001000122B6000705840320000A12010012
:100440000200000008424B251202000102000120B8
:10045000036B0062006400360037006D006B0069BA
:100460000069007200670062002000760032000020
:100470000010034B0042004400660061006E0073F0
:1004800000000004030904009B8B7B00AB8A7A0008
:10049000AA9A7900A9998900A8988800A797870047
:1004A000A6968600A5958500A49484003C4C5C002B
:1004B0002C4D5D002D3D5E002E3E4E003040500024
:1004C000314151002A3A4A00293949002838480068
:1004D0002737470026364600253556002445550067
:1004E00034445400AC9C8C00AD9D8D00AE9E8E00BB
:1004F000AF9F8F00B0A09000B1A191003242520096
:100500002B3B4B01A9998901A8988801A7978701DE
:10051000A6968601A5958501A49484013C4C5C01B6
:100520002C4D5D012D3D5E012E3E4E012F3F4F01B2
:100530003040500033435301AB8A7A0128384801D8
:1005400027374701263646012535560124455501F2
:10055000AC9C8C01AD9D8D01AE9E8E01AF9F8F0135
:10056000314151013242520133435300B2A2810161
:100570009B8B7B012B3B4B012A3A4A0134445401AB
:10058000B1A19101B2A28101A3938300A39383003F
:10059000B39282165C1E001F00200021002200235F
:1005A0000024002500260027002D002E002A004AE6
:1005B000002B0014001A000800150017001C00187A
:1005C000000C00120013002F00300031004B0039E6
:1005D0000004001600070009000A000B000D000EC1
:1005E000000F0033003400000028004E00E1001D21
:1005F000001B00060019000500110010003600372E
:10060000003800E500000052004D00E000E300E289
:1006100000000000002C0000000000E600000001C7
:10062000515000000051004F00165C3A003B003C66
:10063000003D003E003F00400041004200430044B6
:100640000045004C004A000100C25CC35CC55CC6AA
:100650005CC75CC85CC95CCA5C01004600470048D6
:1006600000005C4B000100CB5CCC5C010001000190
:10067000000100010001000100010001000000DE96
:100680005C4E00E1000100010001000100010001D9
:1006900000010001000100010001000000A900A804
:1006A0000001000100010000000000010000000046
:1006B00000010000000100AC000000AA00AB000136
:1006C0000001000100010001000100010001000122
:1006D0000001000100010001000100010001000112
:1006E0000001000100010001000100010001000102
:1006F00000010001000100010001000100010001F2
:1007000000010001000100010001000100010001E1
:1007100000010000000100010001000100010001D2
:1007200000010001000100010001000100010001C1
:1007300000000001000100010001000100000000B4
:1007400000010000000000010000000100010000A5
:100750000001000100010001000100010001000191
:100760000001000100010001000100010001000181
:100770000001000100010001000100010001000171
:100780000001000100010001000100010001000161
:100790000001000100010001000100010001000151
:1007A0000001000100010001000000010001000142
:1007B0000001000100010001000100010001000131
:1007C0000001000100010000000100010001000122
:1007D0000001000000000001000000000001000016
:1007E00000010001000000010001000011241FBEF3
:1007F000CFEFDAE0DEBFCDBF04B603FE27C08091A5
:10080000340590913505A0913605B09137058730B4
:10081000904BA740B04BD1F410923405109235059F
:10082000109236051092370514BE84B7877F84BFB7
:100830000FB6F894A895809160008861809360005D
:10084000109260000FBEE0E0F8E3099512E0A0E02E
:10085000B1E0EEE1FBE502C005900D92A438B107CE
:10086000D9F725E0A4E8B2E001C01D92A433B20795
:10087000E1F70E94310B0C948D2D0C9400001F9316
:10088000CF93DF93CDB7DEB767970FB6F894DEBF8F
:100890000FBECDBF4B8B5C8B6D8B7E8B8F8B6111B5
:1008A00010922F0386E09E01235F3F4FD901E82F6E
:1008B0001D92EA95E9F795E0FE017396D901019042
:1008C0000D929A95E1F79C894E895F897B897D8796
:1008D0009E876F87598B488BF901DE01179601902F
:1008E0000D928A95E1F7CE0107960E9419148111A5
:1008F0003EC086E0FE013796DE01119601900D9212
:100900008A95E1F7FF81E8856A857B856115710528
:1009100031F0EF3F31F481E0FF3F19F403C081E093
:1009200001C080E080FD23C02091FB0230E0C901BE
:1009300001968770992740912C0350E08417950702
:1009400079F1F983EA837D836C8396E0929FD001ED
:10095000939FB00D1124A450BD4FFE01319601901C
:100960000D929A95E1F78093FB020E94961316E090
:1009700080912C039091FB028917F9F0189FC00118
:10098000112484509D4F0E9419148823B1F0809146
:100990002C0390E001968770992780932C03E8CF71
:1009A0000E94C4291092FB0210922C03E5EFF2E0A2
:1009B00086E0DF011D928A95E9F767960FB6F894F5
:1009C000DEBF0FBECDBFDF91CF911F9108953F9243
:1009D0004F925F926F927F928F929F92AF92BF924F
:1009E000CF92DF92EF92FF920F931F93CF93DF93FB
:1009F000CDB7DEB729970FB6F894DEBF0FBECDBFD7
:100A0000FC018081918123813481232B31F09F3F30
:100A100031F491E08F3F19F403C091E001C090E000
:100A200090FD07C67F0185E0DE01119601900D92D1
:100A30008A95E1F7F701228189819A81222349F081
:100A40000E94F328182F682F89819A810E944E29CD
:100A500003C00E942229182F69817A81812F0E9468
:100A60000A288C01F7018281882309F4F2C09801D9
:100A700022513F452031310508F019C18FEF93E035
:100A80000E94D32C8111EFC002513FE7832E32E048
:100A9000932E002379F08114F4E09F0609F4E3C05B
:100AA000C4010E94D32C811101C001502FEF821A82
:100AB000920AEFCF1E821F8218861986442443941F
:100AC0002AE0322E84010F5F1F4FC4010E94D32CF5
:100AD0008E831F82882309F4C6C09FEF980F93303E
:100AE00060F48F834E8232E0830E911CC8010E9415
:100AF000D32C8887811102C0B6C048018E010A5FDD
:100B00001F4FF80120812223E9F2213009F04CC067
:100B10008181813049F46801F2E0CF0ED11CF801E7
:100B200082810E949F2A0AC0823051F46801F2E05B
:100B3000CF0ED11CF80182810E94272A860186C02F
:100B4000833049F46801F2E0CF0ED11CF8018281B4
:100B50000E94EE29F3CF843019F00F5F1F4F76C04B
:100B6000F80122810E5F1F4F80E090E030E02053BB
:100B700031092A30310568F4389EA001399E500DA4
:100B80001124C901840F951F0F5F1F4FF8012081A9
:100B9000EDCF009709F45AC0EFE9FFE03197F1F784
:100BA00000C000000197F5CFE22FF0E0E65BFE4FBA
:100BB0005490822F86958695869590E0FC01E65CA0
:100BC000FE4F64902770712C022E02C075946794BA
:100BD0000A94E2F7F1E06F227724FC01E65DFE4F14
:100BE000A490B12C022E02C0B594A7940A94E2F707
:100BF00031E0A322BB24FC01E65EFE4FC490D12C61
:100C000002C0D594C7942A95E2F781E0C822DD247A
:100C10006114710419F081EE0E94272AA114B10415
:100C200019F086EE0E94272A852D0E949F2AAB2864
:100C300019F086EE0E94EE29672819F081EE0E94D5
:100C4000EE29CD2819F08CE20E949F2A0F5F1F4FDA
:100C500058CF00313FE5130709F0E2C481E00E945C
:100C60007D290E946B1C80912D03877009F4E1C4DB
:100C7000F7018281882309F4DCC482E029960FB64B
:100C8000F894DEBF0FBECDBFDF91CF911F910F91C2
:100C9000FF90EF90DF90CF90BF90AF909F908F909C
:100CA0007F906F905F904F903F900C94791300313C
:100CB000FFE51F0711F481E005C001312FE51207A0
:100CC00021F482E00E948929CCCF033FFCE51F0775
:100CD00049F406E221EE40EE63EF7CE5C7010E9495
:100CE0006328C1CF043F2CE5120708F050C1083D2E
:100CF0003CE5130731F407E225EE45EE68ED7CE5AF
:100D0000EDCF093D9CE5190731F408E221E045EEFD
:100D100069ED7CE5E3CF073DECE51E0731F406E223
:100D200021EE41EE67ED7CE5D9CF882309F464C15B
:100D30001092120503309DE5190758F40A3FECE5BF
:100D40001E0760F4C80182509C45449708F03EC1DC
:100D500005C00136FDE51F0709F038C10E948D125C
:100D60009093AF038093AE0300312CE5120709F492
:100D7000CAC008F041C008308CE5180709F4A4C0C7
:100D8000F0F40430ECE51E0709F48CC068F402307E
:100D90002CE5120709F482C003301C4509F0E7C0B6
:100DA0008091AE038260E1C006308CE5180709F43B
:100DB00083C008F085C08091AE038860D6C00C3037
:100DC000ECE51E0709F490C068F40A302CE5120720
:100DD00009F47EC008F084C00E94C4298091AE034B
:100DE0008068C3C00E308CE5180709F481C008F094
:100DF00086C08091AE0394C00C3FECE51E0709F459
:100E00007BC038F504312CE5120709F49AC058F478
:100E100002318CE5180709F47AC008F07EC0809191
:100E2000AE038F7BA2C00A3FECE51E07F1F108F08C
:100E30003FC005311C4509F09AC08091AE0382FB8A
:100E4000222720F991E0922790FB82F990FB83F909
:100E50008CC001153DE5130709F467C050F480917B
:100E6000AF030E3F9CE51907C1F108F05BC08D7F11
:100E700065C00230FDE51F0709F471C008F46DC0BC
:100E800001361D4509F073C08091AE0384FB222713
:100E900020F991E0922790FB84F967C08091AE031E
:100EA000816063C08091AE0316C08091AF0316C00D
:100EB0008091AF03826042C08091AE03806155C0D3
:100EC0008091AE03806251C08091AE0380644DC0BA
:100ED0008091AE038860846048C0826081602EC0CB
:100EE0008091AE038E7F41C08091AE038D7F3DC067
:100EF0008091AE03877F39C08091AF0314C0809189
:100F0000AE038F7E32C08091AE038F7D2EC00E94D3
:100F1000C4298091AE038F7728C08091AE03877F6C
:100F20008B7F23C08D7F8E7F09C08091AF03982F68
:100F3000909591708E7F892B90FB81F98093AF0300
:100F400016C00E94C4298091AE0387FB222720F996
:100F500091E0922790FB87F908C061E001C060E052
:100F60008EE090E00E94F12C02C08093AE0360916D
:100F7000AE031091AF0384E090E00E94F12C612F4A
:100F800082E290E00E94F12C0E94C4296CCE053FC1
:100F9000FCE51F0731F406E221EE42EE65EF7CE549
:100FA0009DCE053F2CE5120730F407E225EE44EE16
:100FB00064EF7CE593CE063F3CE5130709F0B5CE20
:100FC00007E225EE46EE66EF7CE588CE80913003A1
:100FD00006319CE5190709F58A7A91E009F490E059
:100FE00090938602882311F065E301C069E285EDE4
:100FF00092E00E94ED240EC006311C4509F0D6C0D7
:1010000080918602882309F412C365E385ED92E09E
:101010000E94C5240E94191326CE82720A3C9CE5C8
:10102000190709F47BC098F5053CFCE51F0709F496
:1010300061C0B8F4033C3CE5130709F451C008F063
:1010400054C0023CECE51E0709F07FC080919C0370
:1010500091E0892780939C031092100190939B0349
:1010600002CE073CFCE51F0709F44EC008F447C058
:10107000083C3CE5130709F44CC0093C9CE5190702
:1010800009F063C04BE457E267E577E255C00F3CD7
:10109000ECE51E0709F455C098F40C3C2CE512074A
:1010A00009F446C008F43FC00D3C8CE5180709F46C
:1010B00046C00E3C9CE5190709F047C084E042C0D9
:1010C000063DECE51E0730F4013D1C4508F0CBCD94
:1010D0008EE038C00D352DE5120709F4C4CD35C0BA
:1010E0004DE857E266E977E227C046E957E26DE846
:1010F00077E222C04BE757E264E877E21DC044E89C
:1011000057E26BE777E218C043E657E26FE677E213
:1011100013C04FE657E263E677E20EC047E557E2B9
:101120006BE477E209C047EA55E263EB75E204C07D
:1011300043EB55E267EA75E20E945D2894CD81E0B9
:1011400001C089E00E94761C8ECD0A353DE513076B
:1011500041F150F401159CE51907A9F00E3D1C451D
:1011600029F50E94A9127FCD0B35FDE51F07D9F0A7
:101170000C351D45D9F48091AF0382FB882780F997
:1011800091E0892711C00E94C4293FEF84E39CE0CD
:10119000315080409040E1F700C000000E942B24B5
:1011A00062CD81E001C080E00E945F13F70182817F
:1011B00000811181882349F0C8010E94F328D82EAC
:1011C000682FC8010E944E2904C0C8010E9422292C
:1011D000D82EB8018D2D0E940A280E94F310B82E37
:1011E000192F982EF7010281A580A2949FE0A922D1
:1011F00080912D03877099F0002389F0812F807FE3
:10120000803421F080E28B0D883048F082E00E942B
:10121000791380912D038770DD24D3948111D12C13
:10122000C12EC2948FE0C8228C2D90E08C309105A5
:1012300008F0C2C1FC01EA5AFF4F0C94482D812FDF
:10124000807F1F70882311F01295107F0023B9F062
:10125000112309F49DC180E28B0D883010F09110AC
:1012600006C080913003182B1093300305C0809185
:101270002F03182B10932F030E94191389C18B2D54
:101280000E94EE29112309F497C180E28B0D10957D
:10129000883010F0911006C080913003182310930D
:1012A000300305C080912F03182310932F030E9451
:1012B000191382C1812F807F1F70803211F0129527
:1012C000107F8B2D992021F0F1E09F1611F130C095
:1012D0000023B1F0AA2081F021E0A2120DC080917C
:1012E000AF0382FD69C180913103182B181709F4EF
:1012F00063C11093310360C180913103812B10C011
:10130000AA2021F031E0A31609F456C10E9413135C
:1013100027C0002341F085E08A1508F44DC1812FD4
:101320000E94E42949C194E09A1508F445C118C007
:10133000002349F0AA2099F3F701858180FF28C195
:101340008F708583ECCFAA2059F0893309F031C121
:10135000FFEF27EE33E0F15020403040E1F727C1A6
:10136000812F0E94D92928C1812F86958695837067
:1013700019F0813061F020C1002321F08B2D912FD5
:10138000937002C080E090E00E9438251BC10023CA
:1013900021F08B2D912F937002C080E090E00E948D
:1013A000222510C18B2D002319F00E94762B02C03C
:1013B0000E94BD2A0E94411C05C1812F8370A9F59E
:1013C0000111FEC04B2D429546954770440F440FC6
:1013D0008B2D8F7090E09C01042E01C0220F0A9487
:1013E000EAF7B4FE08C08FE090E001C0880F4A958C
:1013F000EAF7809501C080E01695169513701230BB
:1014000069F088F490913203113019F0822B89230E
:1014100002C0922B892B0E949429D2C0822B9091DA
:1014200032038927F8CF822BF6CF002319F0812FC2
:10143000817001C08695882309F4C2C04B2D429566
:1014400046954770440F440F8B2D8F7090E09C01A0
:10145000042E01C0220F0A94EAF7B4FE08C08FE000
:1014600090E001C0880F4A95EAF7809501C080E0BE
:10147000169516951370123059F078F49091A203D6
:10148000113019F0822B892309C0922B892B06C0B9
:10149000822B9091A203892701C0822B0E94792977
:1014A0008FC01F70002339F0812F0E9489298B2D56
:1014B0000E94E42985C08B2D0E94D929812F0E948A
:1014C0007D297EC08B2D92EF991659F1991538F030
:1014D000E0EF9E1659F0F1EF9F16F1F055C023EFA3
:1014E000921631F134EF931681F14EC0002379F05A
:1014F00084E08A1508F460C01F7181E090E001C0AB
:10150000880F1A95EAF79091A20389271BC095E0EE
:101510009A1508F451C0F0CF002329F0812F8F7164
:1015200026C00023D9F3812F8F710E947D2944C0EA
:10153000002339F01F7181E001C0880F1A95EAF786
:1015400001C080E00E94792937C0002399F01F7103
:10155000812F0E9489298091AF0382FD07C0E8E0B6
:101560001E9FC0011124836080932D03812F0E9450
:10157000892922C081E00E947913F1E0FA15E0F494
:1015800082E00E94791318C0002331F0AA2031F2C2
:101590008B2D0E94272A10C0AA2029F2893349F4F2
:1015A0002FEF37EE83E0215030408040E1F700C05C
:1015B00000008B2D0E94EE2988EF8C0D843010F4F2
:1015C0000E944E25DD20A9F180912D0380FD31C0C0
:1015D000F70112828595859585950E948929C70115
:1015E0000E94E70480912D03859585958595299620
:1015F0000FB6F894DEBF0FBECDBFDF91CF911F9124
:101600000F91FF90EF90DF90CF90BF90AF909F90A1
:101610008F907F906F905F904F903F900C947D29BA
:1016200001319FE5190709F050CB82E018CB69E240
:10163000EDCC29960FB6F894DEBF0FBECDBFDF917B
:10164000CF911F910F91FF90EF90DF90CF90BF90BF
:10165000AF909F908F907F906F905F904F903F9052
:101660000895CF93DF93CDB7DEB7AA970FB6F8945E
:10167000DEBF0FBECDBF84B7877F84BF0FB6F8949F
:10168000A89580916000886180936000109260004E
:101690000FBE90E080E80FB6F894809361009093BD
:1016A00061000FBE85B7806885BF85B7806885BF3C
:1016B00087E990E190938502809384020E94F12152
:1016C0000E9497228091E20084608093E2007894E7
:1016D00080918D038823A1F01091E9001F709091F3
:1016E000EC00892F817090FD80E8182B1092E900A2
:1016F0008091E80083FD0E94461E1F701093E90050
:1017000082E084BD93E095BD9AEF97BD80936E0013
:101710000E944428811102C00E94352804E111E092
:1017200079E1E72E71E0F72ED8018D918D018F3F81
:1017300011F00E94DC10E016F106B1F709E111E0AA
:1017400068E2E62E61E0F62EF80181918F018F3F6D
:1017500011F00E94DC10E016F106B1F7E7E8F2E0C4
:1017600081E992E0ABECB2E0119211921D921D92D0
:101770008E179F07C9F70E949E12811102C00E9416
:10178000A91282E090E00E94D32C8093C0020E94B4
:101790008D129093AF038093AE030E94BA158FEB26
:1017A0009DE50197F1F700C000000E94BA158091F5
:1017B000CB0280FF08C06FEF7FEF80E090E00E94D7
:1017C0000F2D0E942B2483E090E00E94D32C0E94D6
:1017D00094290E94892610924003E9E5F3E089E606
:1017E00093E02FEF3FEF219331938E179F07D9F7A7
:1017F00010929102EAEAF2E08FEF9FEF81939193CA
:10180000A2E0EA3BFA07D1F70E949E12811104C0C0
:101810000E94A9120E945E1846E050E06CE170E060
:101820008CE993E00E94C32C80919C038C7F11F47F
:101830000E945E1880E091E09093A6038093A50338
:1018400058E1252E312CDD24D39480918D038530F1
:1018500009F05DC043E0F42E00E112E180918D03B8
:10186000853009F04EC080918D03843009F436C074
:101870008091BE0281110DC00E94AF1910920B0120
:1018800080919C03837080930A010E94E425F0926A
:101890001001B1E0B093BE021092A903E0E40FB6CC
:1018A000F894A895209260000FBEE093600083B783
:1018B000817F846083BF83B7816083BF789488957C
:1018C00083B78E7F83BF0FB6F894A8958091600090
:1018D000886180936000109260000FBE80918C033D
:1018E000882309F4BBCF0E94BA15EBECF2E081919A
:1018F0009191892B09F0F2C322E0E53DF207B9F797
:10190000ADCF0E94C4290E944E251092BE020E94B3
:10191000BA1581110E948424A1ECB2E0EBECF2E054
:1019200000E010E0402F819091908D919D9188254D
:101930009925009709F4AEC0F12CAA24A394B12CE8
:101940009C012A213B21232B09F49EC0F9A24AA322
:101950008A209B2081E08114910409F480E08BA30C
:101960000E9490248160782F9DA38CA349A15AA145
:101970006BA18DA10E943F04F801EE0FFF1FEF53F2
:10198000FD4F80819181A826B926B182A082892845
:1019900089F08FE0809FF001819FF00D1124E059C4
:1019A000FE4FEF0DF11D80818F3F21F0C82EBB242B
:1019B000B39401C0B12C0B2D10E080919102D8019D
:1019C000A80FB11D1997ACF188E090E07C01E01AF6
:1019D000F10AB8016F5F7F4F6F567D4FA70182E913
:1019E00092E00E94842DB801675F7F4F6F567D4F54
:1019F000A7018AE992E00E94842DA701440F551F98
:101A0000B801660F771F675E7F4F6F567D4F8AEA7A
:101A100092E00E94842DB8016F5E7F4F6F567D4F1C
:101A2000A70182EA92E00E94842D88E08B198093BE
:101A300091028091910290E0AC2DB0E09D01220FC7
:101A4000331F25543E4FAA0FBB1FBD0164547E4F68
:101A500041E0480F9B15A8F490E0FC01EF56FD4FC4
:101A6000D9015C915183DB015C915187C18A880F58
:101A7000991FFC01EF56FD4F128E118E91E0842FBD
:101A8000E7CF809391021CC0F394AA0CBB1C2FE0FB
:101A9000F21256CF0F5F1F4F0530110509F042CFEC
:101AA0008FEF8EA38FA318A60E9490248160782FB9
:101AB0009AA789A74EA15FA168A58AA50E943F04A5
:101AC0008091BA029091BB02A091BC02B091BD027C
:101AD0002FB7F8948090AA039090AB03A090AC032A
:101AE000B090AD032FBF881A990AAA0ABB0A0E94B8
:101AF00084246093BA027093BB028093BC029093DB
:101B0000BD02A0919102E1E9F2E02A2F30E04424E5
:101B10004A94542C612C712C481859086A087B0887
:101B2000A31799F0418D528D7A0100E010E04E1418
:101B30005F046006710610F4215004C0480D591D61
:101B4000528F418F3F5F3296EBCF209391022091CD
:101B5000BE02211108C010919C03212F237019F09F
:101B60001695169501C010E0209110012130E1F08A
:101B700028F0223059F12330B1F160C010920D01EC
:101B800060939703709398038093990390939A03BB
:101B900089E2E1E9F2E0A0E4B3E001900D928A95D8
:101BA000E1F7D09210014AC0812F0E94AF19112392
:101BB00009F444C00E944E2581FF40C02FEF4FEF33
:101BC0006FEF8EE190E00E945C1838C010930B011B
:101BD00080919C03837080930A010E94E42583E036
:101BE000809310012BC080919B03882341F046E035
:101BF00050E06CE170E08CE993E00E94E12C1092DF
:101C00009B034091970350919803609199037091C1
:101C10009A032FB7F8948091AA039091AB03A091F7
:101C2000AC03B091AD032FBF841B950BA60BB70B74
:101C30004A97A105B10510F01092100186E0EAE381
:101C4000F3E08E010F5F1F4FD80101900D928A952E
:101C5000E1F7B0903C03E0903D03A0903E03F0908C
:101C60003F0310923C0310923D0310923E031092EA
:101C70003F03B11003C0EE2009F44FC08091380338
:101C8000909139030E9475249C019091320599230B
:101C900009F443C22333310508F43FC09F3F19F0D4
:101CA0009F5F90933205BB2061F00E94562B1B145E
:101CB00014F491E001C09FEF899F802D112480933F
:101CC0003C03EE2061F00E94562B1E1414F491E0A8
:101CD00001C09FEF899F802D112480933D03309197
:101CE0003C033323D1F020913D032223B1F045EB97
:101CF0003403C0011124992319F090933C0302C0CE
:101D0000D0923C0335EB2303C0011124992319F031
:101D100090933D0302C0D0923D03A11003C0FF2069
:101D200009F44FC080913603909137030E947524C7
:101D30009C0190913105992309F4F4C125363105B0
:101D400008F43FC09F3F19F09F5F90933105AA2090
:101D500061F00E94342B1A1414F491E001C09FEF3B
:101D6000899F802D112480933E03FF2061F00E9403
:101D7000342B1F1414F491E001C09FEF899F802D34
:101D8000112480933F0330913E033323D1F02091FF
:101D90003F032223B1F045EB3403C0011124992302
:101DA00019F090933E0302C0D0923E0335EB23031B
:101DB000C0011124992319F090933F0302C0D092DF
:101DC0003F0380913C0381110BC080913D03811141
:101DD00007C080913E03811103C080913F038111B0
:101DE0000E94411CBB82EC82AD82FE8286E0F8013B
:101DF000AAE3B3E001900D928A95E1F70E944E2587
:101E00009091BF02891721F00E944E258093BF0256
:101E100080918D03843009F018CD83E08093E90030
:101E20008091E80082FF11CD8091E80085FF21C0FC
:101E30000E94102281111BC080E2E82EF12C580173
:101E400009C08091F100D5018D935D01B1E0EB1ADD
:101E5000F10869F08091E80085FDF3CF8091E800FA
:101E60008B778093E8000E941022882399F391E0F9
:101E700001C090E08091E8008B778093E80099237F
:101E800009F4E3CCE9818E2F90E0FC013197E33136
:101E9000F10508F0F9C0EE59FF4F0C94482D1A8255
:101EA00089E05CC08A81823009F42EC1833051F010
:101EB000813009F0E9C00E9484249B838C837D8358
:101EC0006E83E4C0F801CE010B96ABECB2E02C912E
:101ED00011963C91119712963283238332968E1776
:101EE0009F07A9F7D3C08A81823009F0CDC06B81EA
:101EF0007C818D819E810E944E2D86E290E024C0DF
:101F00004C816B818A810E94E4279D8304C1AD804E
:101F1000BE80BA24AB24BA248C81EB809A81EEE196
:101F2000EE9E70011124F6E99F9FE00CF11C112434
:101F3000E80EF11CE80EF11C6B2DC70187960E947C
:101F4000F12C6A2DC70188960E94F12C9FC00E9437
:101F5000B0279CC080E151C0DA8281E88B8396C0B3
:101F6000EA80FB80FE24EF24FE248C80912C580113
:101F7000C70181589D4F9501201B310B281539054C
:101F800008F084C021E8E21621E0F20630F40E9455
:101F9000D32CD50114968C9302C0F5011482FFEF67
:101FA000EF1AFF0A2FEFA21AB20AE2CFEA80FB80F3
:101FB000FE24EF24FE248C80912C5801C701815807
:101FC0009D4F9501201B310B2815390508F05EC087
:101FD00031E8E31631E0F30628F4D50114966C914C
:101FE0000E94F12CBFEFEB1AFB0AEFEFAE1ABE0A0C
:101FF000E5CF0E94A0274AC084E08A8347C0EA80D8
:10200000FB80FE24EF24FE248C80912C5801C70114
:1020100087969501201B310B28153905B8F5F8E591
:10202000EF16F2E0FF0630F40E94D32CD50114968F
:102030008C9302C0F5011482FFEFEF1AFF0A2FEF15
:10204000A21AB20AE4CFEA80FB80FE24EF24FE2429
:102050008C80912C5801C70187969501201B310B6C
:102060002815390598F438E5E31632E0F30628F42C
:10207000D50114966C910E94F12CBFEFEB1AFB0A6C
:10208000EFEFAE1ABE0AE7CF8FEF898380918D0301
:10209000843009F0DACB8091E9008F702091EC0058
:1020A000922F917020FD90E8F92EF82A82E080931B
:1020B000E9008091E80080FF0CC040E050E060E261
:1020C00070E0C8010E940C1E8091E8008E7780931A
:1020D000E8008F2D8F708093E900B7CB09BD19BD43
:1020E00009B400FEFDCF8091D8008F7D8093D80089
:1020F0008091E00082608093E0008091E00081FDAB
:10210000FCCF0E94C429AACB86E290E00E94D32C87
:102110001B821C821D828E83B9CF2D32314008F084
:10212000BFCDFBCD2D32314008F00ECE4ACE80E03F
:1021300008959091AE0392FF0DC0282F287128308A
:1021400019F4877F846006C0282F2471243011F48D
:102150008B7F886093FF0DC0282F2871283119F4D8
:10216000877E846106C0282F2471243111F48B7E70
:1021700088612091AF0320FF0DC0382F38713830AF
:1021800019F4877F816006C0382F3171313011F426
:102190008E7F886021FF0DC0282F2871283119F407
:1021A000877E816106C0282F2171213111F48E7E36
:1021B000886194FD877E0895F894E82FE295EF708A
:1021C000F0E031A1282F2F7081E090E001C0880F4E
:1021D0002A95EAF7982F9095932391A392A1892BA2
:1021E00082A378940895CF93DF938238910569F1A3
:1021F000B0F48133910509F46FC048F48932910538
:1022000009F465C08A32910509F46BC08AC0853330
:10221000910509F457C089339105B9F082C0833E16
:10222000910571F138F4803E9105B1F0823E91053F
:1022300011F177C0863E9105B9F1873E9105C9F14C
:10224000843E910509F06DC024C02091AE0320FDAD
:1022500053C021FD51C065C08091AE0380FD46C0D2
:102260008091AF0380FF48C08091AE0384FD50C1D0
:1022700083EE90E04FC18091AE0382FF3AC0F4CF6D
:102280008091AE0382FD35C08091AF0380FD34C0E4
:10229000EBCF8091AF0381FF35C08091AE0384FD09
:1022A00037C187EE90E036C18091AE0383FF27C02F
:1022B000F4CF8091AE0383FD22C08091AF0381FDF6
:1022C00021C0EBCF8091AE0385FD1FC021C080915E
:1022D000AE0385FD1DC019C08091AE0386FD1BC0F5
:1022E0001DC08091AE0386FD19C015C089E390E042
:1022F00011C182EE90E00EC180EE90E00BC186EE3F
:1023000090E008C184EE90E005C189E290E002C14E
:1023100085E390E0FFC08AE290E0FCC081E390E0BA
:10232000F9C0811531E5930708F069C0811540E5D2
:102330009407F0F09C0174E0369527957A95E1F7C3
:10234000922F9370482F437021E030E002C0220F9B
:10235000331F4A95E2F73C68392B982F9F7096956A
:10236000969540E2949FC0011124822B932BD2C0FA
:10237000883E910568F5803E910508F0CBC0883A0B
:102380009105B8F4853A910548F0855AE82FF0E0B8
:10239000E85DFE4F808190E09064BCC08130910583
:1023A00009F4B3C008F4B4C08430910508F4B0C097
:1023B000B1C08F3B910508F0ABC0885AE82FF0E020
:1023C000EE0FFF1FE55DFE4F808191819464A2C0F6
:1023D000811520E2920758F4811531E0930708F047
:1023E00099C0803F910508F493C0906593C0811512
:1023F00040E4940708F48CC09F70906A8BC08115EC
:1024000025E5920708F042C0811534E5930728F0CE
:10241000982F8827846F906A7DC0811543E59407C3
:10242000B0F09C012370332741E050E002C0440F1C
:10243000551F2A95E2F7282F2695269580E2289F9A
:1024400090011124CA01822B932B9A6863C08115D5
:1024500022E5920728F4982F8827816F906A5AC046
:102460009C012370332741E050E002C0440F551F08
:102470002A95E2F7282F2695269580E2289F90013D
:102480001124CA01822B932B9C6844C0EC01811556
:1024900039E59307A8F48115984528F09C2F8827E3
:1024A000806F906A37C0C11586E5D80788F58C2FF4
:1024B0000E9499108F7190E0982F882790622AC00F
:1024C00081152AE5920790F48C2F8F700E94991045
:1024D00094E0D695C7959A95E1F7CF70D0E0DC2FC0
:1024E000CC27D0699E01282BC90114C090568115B4
:1024F000904270F48D2F8F710E949910282F2F71A8
:10250000CE0199279062922B05C081E090E002C035
:1025100080E090E0DF91CF910895CF9384E090E048
:102520000E94D32CC82F82E290E00E94D32C2C2F43
:1025300030E0A901582BCA01CF91089580E090E0C6
:102540000E94DB2C893E9E4F11F40C94442880E0BD
:10255000089569EE7EEF80E090E00E940F2D60E02C
:1025600082E090E00E94F12C60E083E090E00E9425
:10257000F12C1092320360E084E090E00E94F12C94
:1025800060E082E290E00E94F12C60E085E090E063
:102590000E94F12C60E086E090E00E94F12C6FEF49
:1025A00087E090E00E94F12C40E050E0BA0188E022
:1025B00090E00E94032D60E08DE090E00E94F12CFD
:1025C00040E050E0BA0188E190E00E94032D60E015
:1025D00087E190E00E94F12C40E050E0BA018CE1EC
:1025E00090E00E94032D60E070E080E290E00E94A5
:1025F0000F2D40E050E0BA0188E190E00E94032DE9
:1026000080E00E9417280E94352840E050E0BA017F
:102610008FE090E00E94032D40E050E0BA0183E19A
:1026200090E00C94032D80913103811110923103BD
:1026300008959091300380912F03892B20912E03D0
:10264000982F922B9093D502809131038823D9F053
:10265000892B8093D50280910C01882331F08091E1
:10266000AE0387FF02C08EE101C086E0E7EDF2E035
:1026700090E0815028F021912223D9F39F5FF9CF78
:1026800091110E941313E091A503F091A6033097D6
:10269000A9F080910C01882359F08091AE0387FF47
:1026A00007C08091D5028093D60285E08093D50241
:1026B0000280F381E02D85ED92E009940895CF9397
:1026C000C091AF03C2FB992790F9981781F080FB66
:1026D000C2F9C093AF036091AE0384E090E00E9422
:1026E000F12C6C2F82E290E0CF910C94F12CCF91E1
:1026F000089520912D038095822380932D03982F98
:10270000977041F430E0482F082E000C550B241729
:10271000350721F49091AF0392FF07C08595859509
:1027200085950E947D2910922D03089580912C0398
:102730009091FB02891719F08F5F8770FBCF089586
:102740000F931F93CF93DF938091FA0282958F703E
:1027500009F05DC08091F702882309F458C0809188
:102760002C031091FB026091F5027091F602C0916A
:10277000F802D091F90291E06F3F09F090E0292F23
:1027800006E0811709F443C0209721F07F3F21F034
:1027900030E003C031E001C0322F90E030FD34C0A2
:1027A000089FF001099FF00D1124DF01A450BD4FD7
:1027B00011963C911197371327C03C91361324C0D2
:1027C00012963C91129731111FC013964D915C9156
:1027D00014974C1B5D0B483C5105B0F48091FA02F4
:1027E0008F7080618093FA02EF5FFC4F80818F7061
:1027F0008061808385EF92E00E94E704DF91CF91B2
:102800001F910F910C94961301968770BACFDF91A8
:10281000CF911F910F910895CF93DF93EC010E9408
:10282000F328BE010E940A280E94F310DF91CF9185
:1028300008959F92AF92BF92CF92DF92EF92FF9254
:102840000F931F93CF93DF93CDB7DEB761970FB68A
:10285000F894DEBF0FBECDBF8C0185E0F801DE012C
:102860001D9601900D928A95E1F7F801E280909112
:10287000F5026091F6024091F8025091F90241157B
:10288000510531F06F3F31F481E09F3F19F403C0EF
:1028900081E001C080E0F82FF1709F2E80FD1AC109
:1028A000F80130812181C380D48085EFA82E82E099
:1028B000B82EF090F702F601E41BF50BFF2009F4A7
:1028C000C6C08091FA02E83CF10508F091C0482F9B
:1028D000407F09F050C0621311C093130FC0FE2C4B
:1028E000E1100CC08F7080618093FA02C5010E94D4
:1028F000E7048091FA02F801858329C1CD2831F0DF
:102900002F3F31F481E03F3F19F403C081E001C063
:1029100080E080FD03C081E08E2502C080E090E071
:10292000F82FF170FF2E80FF1CC080912C03409186
:10293000FB0256E0841709F4E8C090E0589FF001CC
:10294000599FF00D1124E450FD4F6181261306C0FC
:102950006081631303C06281E61203C00196877031
:10296000E9CFFE2CEE2009F4F2C08091FA028160DA
:102970008093FA0249C0621306C0931304C0E110A9
:1029800002C0F80186C0C8010E949829882351F12D
:10299000EE2041F12091FA02822F82958F7090E013
:1029A000029774F08091F5029091F60298878F83D8
:1029B0001986DB86CA862C87CE0107960E94E7041B
:1029C00086E0F801A5EFB2E001900D928A95E1F75B
:1029D0000E94A0130AC06217C9F0C8010E9498297A
:1029E00081111EC0C8010E94E704FF24F394AFC008
:1029F000482F407F81F785EF92E00E94E70486E050
:102A0000F50111928A95E9F7F12CA1C09313E5CF56
:102A1000E110E3CFF8018583C8010E94E70454C0A8
:102A2000EE2001F32091FA02822F82958F7090E0C0
:102A3000029734F28091F5029091F6029A8389838D
:102A40001B82DD82CC822E83CE010196B7CFE83C7B
:102A5000F105D0F5FE2CEE2029F2621327C0931366
:102A600025C02091FA0220FD18C0822F82958F7018
:102A7000482F50E04115510581F0F80125834F3072
:102A8000510541F08F5F982F9295907F822F8F7024
:102A9000892B8583C8010E94E70486E0F801A5EF31
:102AA000B2E001900D928A95E1F751C0C8010E94F1
:102AB0009829811185CF8091FA0281608093FA0272
:102AC000C8010E94E70443C086E0F50111928A958F
:102AD000E9F73DC0EE2009F485CFC8010E9498298E
:102AE000F82E882309F47ECF86E0F801A5EFB2E046
:102AF00001900D928A95E1F78091F5029091F6028E
:102B00000E940C140E94A01322C03D872E878D8541
:102B10009E850E940C14292F22952F70223028F4B4
:102B20009F7039F0811105C00BC0243028F49F70CC
:102B300049F4805E883020F0C8010E94E7049F2C91
:102B4000F92C05C0F8019581907F99F7F9CF8F2D69
:102B500061960FB6F894DEBF0FBECDBFDF91CF9167
:102B60001F910F91FF90EF90DF90CF90BF90AF90AB
:102B70009F9008956F927F928F929F92AF92BF9293
:102B8000CF92DF92EF92FF920F931F93CF93DF9339
:102B9000CDB7DEB72A970FB6F894DEBF0FBECDBF14
:102BA000AE014F5F5F4F7A018AE0DA011D928A958C
:102BB000E9F704E111E06A0189E1682E81E0782EED
:102BC00088248394912CF80180818F3F09F44DC0B3
:102BD000F894E82FE295EF70F0E021A18F70A40146
:102BE00002C0440F551F8A95E2F7CA01922F982B15
:102BF00091A392A18095892382A3789400C0E9E1F2
:102C0000F1E020E030E0A12CB12C81918F3FC1F0A8
:102C1000A82FA295AF70B0E090964C9150E08F70C5
:102C2000DA0102C0B595A7958A95E2F7A0FD08C024
:102C3000C401022E02C0880F991F0A94E2F702C055
:102C400080E090E0A82AB92A2F5F3F4F2F3031054E
:102C5000E1F6F80180818F3F11F00E94DC10F0EA6C
:102C6000FA95F1F7D601AD92BC920F5F1F4FB2E01B
:102C7000CB0ED11C6016710609F0A5CF4AE050E0DA
:102C8000B70187E892E00E94772D11E0009709F4E0
:102C900010E0892B89F08AE0F701A7E8B2E0019003
:102CA0000D928A95E1F781E0809335030E9490248C
:102CB000909334038093330380913503882391F1FB
:102CC00080913303909134030E947524039750F14F
:102CD00080918702909188029093CC028093CB02DE
:102CE0008091890290918A029093CE028093CD02C6
:102CF00080918B0290918C029093D0028093CF02AE
:102D000080918D0290918E029093D2028093D10295
:102D100080918F02909190029093D4028093D3027D
:102D200010923503812F2A960FB6F894DEBF0FBE9E
:102D3000CDBFDF91CF911F910F91FF90EF90DF906A
:102D4000CF90BF90AF909F908F907F906F9008959D
:102D5000E42FF0E0EE0FFF1FE554FE4F9081921B31
:102D600097FD9195292F38E1239F212D1124620F82
:102D700008950F931F9310E0F801EE0FFF1FE55425
:102D8000FE4F9081905797FD9195000F111FF8010C
:102D9000E454FE4FE081F0E0B097DF01AA0FBB1FC3
:102DA0008D010E0F1F1F2003D001219FB00D112494
:102DB000E8E3F0E0E91BF10997FDF3959F01220F8D
:102DC000331F89010E0F1F1F40039001419F300DDB
:102DD00011242A0F3B1F37FF02C021583F4F220FFB
:102DE000232F221F330B620F1F910F9108950F9312
:102DF0001F93522F10E0F801EE0FFF1FE454FE4F17
:102E0000E081F0E0B097EE0FFF1F9F015203D00169
:102E1000539FB00D1124000F111FF801E554FE4F10
:102E2000008110E000571109000F111F40039001AD
:102E3000419F300D11242A0F3B1F37FF02C021583C
:102E40003F4F220F232F221F330B620F1F910F9131
:102E500008950F931F93522F10E0F801EE0FFF1FFC
:102E6000E454FE4FE081F0E0B0979F015203D0019F
:102E7000539FB00D1124000F111FF801E554FE4FB0
:102E8000008110E00057110940039001419F300D6F
:102E900011242A0F3B1F37FF02C021583F4F220F3A
:102EA000232F221F330B620F1F910F910895EF9272
:102EB0000F931F9393E0099F8001112415950795A7
:102EC0006E2D600F1F910F91EF900895A22F50E08B
:102ED000FA01EE0FFF1FE454FE4F9081905297FDD0
:102EE0009195440F551FFA01E554FE4F3081232F71
:102EF00030E02A1B3109290F311D97FD3A95620FE9
:102F00000895E42FF0E0EE0FFF1FE454FE4F6081C0
:102F1000621B0895E42FF0E0EE0FFF1FE554FE4F13
:102F20006081621B0895622F0895E42FF0E0EE0F98
:102F3000FF1FE554FE4F408134EE439F412D112485
:102F4000E82FF0E050E0445E5F4FDA01A21BB109C8
:102F50009D01B7FF03C031952195310993E0220F00
:102F6000331F9A95E1F7AF01421B530B9A0157FFAC
:102F700002C020E030E0582F259F212D1124822F00
:102F800008950C948D2522E8241B08F420E0620F9C
:102F90000895FC019B01009721F477FF2BC080E886
:102FA0000895AC0197FF04C044275527481B590BCF
:102FB000B901640F751F37FD0CC0241B350BC90107
:102FC000A5E0880F991FAA95E1F70E94152D80E2D0
:102FD0000CC0CB0165E0880F991F6A95E1F7BA0133
:102FE000621B730B0E94152D80E6861BF7FF03C042
:102FF0008195089580E00895EF920F93CF93DF932A
:10300000D72FC82FC9010E19BA010E94C917602F06
:10301000681B7D2F8C2FDF91CF910F91EF9008953A
:103020000F93CF93DF93D72FC82FC901BA010E9406
:10303000C917682F600F7D2F8C2FDF91CF910F91D3
:103040000895EF920F931F93CF93DF93D62FC72F3F
:10305000182FC9010E19010FBA010E94C917081BC8
:10306000202F219F212D1124822F6D2F7C2FDF9166
:10307000CF911F910F91EF900895FF920F931F939F
:10308000CF93DF93F62ED72F182FC901C12FC01B66
:10309000BA010E94C917982F990F890FC81B2C2FAE
:1030A000219F212D1124822F6F2D7D2FDF91CF9114
:1030B0001F910F91FF9008950C945A25ECE9F3E0CD
:1030C00081E280838091110190911201A0911301FE
:1030D00081839283A3838FE784838FEF858346E088
:1030E00050E06CE170E0CF010C94E12C482F982F58
:1030F00046FD9095E92FEF739F7046FD9F5FE29527
:10310000EF70EE0FF0E0E75AFE4F2181299F802DEE
:10311000212D112482958F702295207F822B308162
:10312000982F930F892F47FD8195805808950F930D
:103130001F93CF93DF93D62F072F182FC42F822FE3
:103140000E947618EC2FF0E0EE0FFF1FE554FE4FC3
:1031500090819058890F87FD8195880F682F2CE00A
:10316000629F612D11246D0F702F812FDF91CF9100
:103170001F910F910895BC018230910508F40895C4
:10318000613E8EE1780748F49B0195E036952795DE
:103190009A95E1F748E0420F01C04FEF91E0242FEC
:1031A00030E0290F311D35952795229FF001239F8F
:1031B000F00DF00D11246E177F0718F44FEF420F3A
:1031C00004C02F3F39F091E0920F491740F78FEF7D
:1031D000890F08958FEF08950F93CF93DF93D72F23
:1031E000C82F47FD4195E8E3F0E0CF01841B91092A
:1031F00047FD9395889FB001899F700D700D112434
:10320000229FC001239F900D900D1124860F971FC0
:103210000E94BB18682F660F860F682F600F7D2FE6
:103220008C2FDF91CF910F91089520E030E0869FA1
:10323000212D969F200D311D1124C9010895CF9293
:10324000DF92EF92FF920F931F93CF93DF93F62EAF
:10325000472FE82FF0E0711106C0E653FE4F84912E
:10326000782F682F73C0272F30E0E653FE4FE4918C
:10327000FE2F0E2F10E056E0659FC0011124CFEF06
:10328000D0E0BE010E94AF2C5BEA5603C001579FFD
:10329000900D11248F0D911D8F0D911D982F990F59
:1032A000980F7E01E21AF30AE09ED001E19EB00D74
:1032B000F09EB00D11248B2F499FA0011124452FA2
:1032C00055277E01E41AF50AE09EA001E19E500D0B
:1032D000F09E500D11246E01C91AD108C29E7001D2
:1032E000C39EF00CD29EF00C11242F2D3327C21B4D
:1032F000D30BC09F9001C19F300DD09F300D112482
:10330000932F6230710591F048F461157105E1F079
:1033100061307105B9F49E2FE52F16C06430710538
:1033200069F040F06630710579F00CC09E2FEB2FEC
:10333000832F0AC0EB2F8F2F952F06C09B2F8E2F28
:10334000E32F02C09B2F852F7E2F692FDF91CF9116
:103350001F910F91FF90EF90DF90CF900895BF9253
:10336000CF92DF92EF92FF920F931F93CF93DF9351
:10337000C82F80910B018C130DC020919C032370EA
:1033800030E040910A0150E081E02417350719F43C
:1033900080E001C081E0817080930F018091A103E2
:1033A00090910E01981739F080930E0140E060E093
:1033B00080E00E94C117CB3019F486E697E107C080
:1033C000CC3008F04AC1C53019F585E997E10E9473
:1033D0008D1C0AC0C93008F035C1C63009F023C1C0
:1033E0008DE398E10E94B21D90910D019F5F909333
:1033F0000D0181113CC282E08093100180910F0188
:10340000811135C2C11133C283E0809310012FC2F4
:10341000C63008F002C1C230C9F5D0910D01DD0FF0
:10342000DD0F14E01D0F143408F013E4F0909E0338
:1034300000919F03E0909D03B701802F0E941F1908
:10344000D62EC72EB82E6091A0036E0D7F2D802F33
:103450000E941F19062FF72EE82ED117A0F58D2FE9
:1034600090E0FC01EF5BFD4F308120910E012323A2
:1034700059F030FF04C02E2D402F6F2D03C02B2D8F
:103480004D2D6C2D0E945C18DF5FE7CFC330E8F54F
:10349000CC23F1F0C13009F03FC0D0910D01DD0F18
:1034A000DD0F14E01D0F143408F013E460919D0348
:1034B00070919E0380919F030E941F19062FF72E83
:1034C000E82ED11780F081E0133408F48DCF09C0C5
:1034D00080910F01882329F040E060E080E00E94A5
:1034E000C11780E081CFED2FF0E0DF01AF5BBD4F72
:1034F0008C9190910E01982331F02E2D402F6F2D3D
:10350000CF010E945C18DF5FDCCFD0910D01C3308A
:1035100049F0C43009F441C080910D018F5F809360
:103520000D0169CFDD0FDD0F14E01D0F143408F01D
:1035300013E4D0909E03C0909F032091A00300E469
:10354000029F012D1124D11708F0BDCFED2EF12CD3
:10355000F701EF5BFD4F908180910E018923D9F037
:10356000F701EE0FFF1FE554FE4F6081069FB0018B
:10357000112455E0759567955A95E1F780919D0363
:10358000680F7D2D8C2D0E941F19462F282F672F25
:10359000C7010E945C18DF5FD6CFDD0FDD0F14E09E
:1035A0001D0F143408F013E4F0909D0300919E0366
:1035B000E0909F036091A003669566956695809163
:1035C0009703909198030E9415190E9476188058CD
:1035D00087FD8195880F282F3E2D239F212D1124B3
:1035E000822F6F2D702F0E941F19062FF72EE82EA5
:1035F000D11708F068CFED2FF0E0DF01AF5BBD4FD2
:103600008C9190910E01982331F02E2D402F6F2D2B
:10361000CF010E945C18DF5FEBCFC83009F0DACE33
:1036200083E997E1D4CEC73009F076CF81E298E103
:1036300006C0CF3060F5CC3021F587E597E10E94D8
:10364000381DD2CEC93019F48AE897E1C0CECA300D
:1036500009F062CF81E897E1BACEC13159F487EF22
:1036600096E105C0C03109F057CF89E297E10E9489
:10367000D91CBACEC23180F4CE30D9F680E198E1BF
:10368000B1CECD3009F048CF8CEE98E1ABCECF3043
:1036900049F78CEF97E1D3CFC43119F487E998E16A
:1036A00096CEC53108F04AC0C23119F489EB96E1D3
:1036B000DECFC33109F030CFD0910D01DD0FDD0F2A
:1036C00014E01D0F143408F013E4F0909E030091F1
:1036D0009F03E0909D036091A003669566956695B3
:1036E00080919703909198030E9415190E94761873
:1036F000805887FD8195880F682F2CE0629F612D8F
:1037000011246E0D7F2D802F0E941F19062FF72E7A
:10371000E82ED11708F0D7CEED2FF0E0DF01AF5B38
:10372000BD4F8C9190910E01982331F02E2D402F9A
:103730006F2DCF010E945C18DF5FEBCFC63109F01F
:103740005DC0D0910D01DD0FDD0F14E01D0F1434AD
:1037500008F013E42091A00331E0230F08F42FEFC9
:1037600030E040E050E06FEF7FEF80E090E00E94BB
:10377000292D790101E0D11708F0A5CECD2ED12C4D
:10378000F601EF5BFD4F908180910E018923A1F13D
:1037900090914003915097FD15C0492F092E000CC0
:1037A000550BFA01E05CFC4F8189D813F3CF440F2D
:1037B000551FFA01E05CFC4F218D328D2E153F051F
:1037C00048F701C097016091A003600F08F46FEF04
:1037D000C9010E941519AC0160919D0370919E036F
:1037E00080919F030E94C3170E941F19462F282F04
:1037F000672FC6010E945C18DF5FBDCFC63118F489
:1038000088EA96E1E4CDCF3F09F086CE8091970318
:1038100090919803A0919903B0919A0388279C7086
:10382000AA27BB272AE0B695A795979587952A954D
:10383000D1F782309105A105B10571F08330910572
:10384000A105B10569F040E00197A105B10511F0AE
:1038500060E008C064E102C044E160E080E003C0D1
:1038600044E164E184E10E94C11782E0CECDDF91A2
:10387000CF911F910F91FF90EF90DF90CF90BF906D
:1038800008950E94902420913C03211104C02091AE
:103890003D03222321F09093390380933803209134
:1038A0003E03211104C020913F03222321F0909375
:1038B000370380933603E091A503F091A603309778
:1038C00049F082E080933A030480F581E02D8AE399
:1038D00093E0099408958091A203982F96709630F2
:1038E00011F4886001C0877F0C94792990919C0322
:1038F000937091F0811102C0946007C0873110F07D
:10390000986503C0880F880F982B90939C031092A2
:10391000100181E080939B030895DF92EF92FF9264
:103920000F931F93CF93DF938C01C0910D01CC0FA8
:10393000CC0FD4E0DC0FD43408F0D3E46091A003C2
:103940006695669521E0620F08F46FEF809197030A
:10395000909198030E941519D82ECD17F0F4EC2EF3
:10396000F12CF701EF5BFD4F908180910E018923CF
:1039700091F060919D0370919E0380919F032D2D86
:103980004C2FF80109950E941F19462F282F672FE9
:10399000C7010E945C18CF5FE0CF81E0D33408F00C
:1039A00080E0DF91CF911F910F91FF90EF90DF901A
:1039B00008959F92AF92BF92CF92DF92EF92FF92C3
:1039C0000F931F93CF93DF936C01C0910D01CC0F28
:1039D000CC0FD4E0DC0FD43408F0D3E46091A00322
:1039E0006695669580919703909198030E941519AA
:1039F000182F80E4810F0E94761890E8F92EF80EB7
:103A0000812F0E94761820E8922E980ECD1700F58F
:103A1000AC2EB12CF501EF5BFD4F908180910E0132
:103A20008923A1F060919D0370919E0380919F0373
:103A3000E12E0C2F292D4F2DF60109950E941F19FB
:103A4000462F282F672FC5010E945C18CF5FDECF5D
:103A500081E0D33408F080E0DF91CF911F910F9186
:103A6000FF90EF90DF90CF90BF90AF909F90089520
:103A70006F927F928F929F92AF92BF92CF92DF927E
:103A8000EF920F931F93CF93DF933C01C0910D01F1
:103A9000CC0FCC0FD4E0DC0FD43408F0D3E4609129
:103AA000A003669580919703909198030E94151941
:103AB000182FCD1708F044C08C2E912CF401EF5B29
:103AC000FD4F908180910E018923C1F1F401EE0F29
:103AD000FF1FE554FE4FC080D12C80E7C81AD108E3
:103AE000F401EE0FFF1FE454FE4FA080B12CE0E282
:103AF000AE1AB108CC9C9001CD9C300D300D112434
:103B0000AA9CC001AB9C900D900D1124820F931FB5
:103B10000E94BB18082F60919D0370919E038091B5
:103B20009F03E12E9501A601F30109950E941F193B
:103B3000462F282F672FC4010E945C18CF5FB9CF92
:103B400081E0D33408F080E0DF91CF911F910F9195
:103B5000EF90DF90CF90BF90AF909F908F907F902D
:103B60006F900895CF92DF92EF92FF920F931F9381
:103B7000CF93DF936C01C0910D01CC0FCC0FD4E03B
:103B8000DC0FD43408F0D3E46091A00366958091F3
:103B90009703909198030E941519182FCD1778F567
:103BA000EC2EF12CF701EF5BFD4F908180910E011F
:103BB000892319F1F701EE0FFF1FE454FE4F208116
:103BC00030E020523109F701EE0FFF1FE554FE4FA0
:103BD000408150E04057510960919D0370919E03D0
:103BE00080919F03012FF60109950E941F19462F0E
:103BF000282F672FC7010E945C18CF5FCFCF81E0CD
:103C0000D33408F080E0DF91CF911F910F91FF90A6
:103C1000EF90DF90CF900895EF92FF920F931F9354
:103C2000CF93DF937C018B010E941022811119C078
:103C3000E70101151105A1F08091E80085FD0AC09A
:103C40008091E8008E778093E8000E9410228823FC
:103C500081F307C089918093F10001501109E9CFE8
:103C600080E0DF91CF911F910F91FF90EF90089529
:103C700090919C03937049F080939D0360939E0301
:103C800040939F0381E080939B0308951F93CF93FC
:103C9000DF93CDB7DEB7AA970FB6F894DEBF0FBE9D
:103CA000CDBFEFE8F3E08091F100819343E0E73985
:103CB000F407C9F780919003833009F462C030F4AF
:103CC000813071F0823009F49CC0B3C08A3009F4AD
:103CD00088C08B3009F46DC0893009F0AAC020C0BB
:103CE00080918F03813A09F0A4C08091E800877F1A
:103CF0008093E8008091930390919403892B21F4A1
:103D000060E28BE693E003C060E080E090E070E06A
:103D10000E94CD238091E8008B778093E80089C0D2
:103D200080918F03813209F084C080919303909138
:103D30009403009719F0029709F07BC08091E80086
:103D4000877F8093E8008091E80082FD05C0809124
:103D50008D038111F8CF6DC02091F3008091F200A6
:103D600090E0922B029729F48091F1008B7F8130B3
:103D700021F48091F10080936A038091E8008B77B1
:103D800054C080918F03813A09F053C0809193030E
:103D900090919403892B09F04CC08091E800877FB3
:103DA0008093E8008091E80080FFFCCF80910C01B7
:103DB00037C080918F038132E1F580919303909118
:103DC0009403892BB1F58091E800877F8093E80008
:103DD0000E9443228091910380930C010E94C42988
:103DE00028C080918F03813221F58091E800877F80
:103DF0008093E8000E94432280919203809369039C
:103E000018C080918F03813AA1F48091E800877FE8
:103E10008093E8008091E80080FFFCCF80916903E7
:103E20008093F1008091E8008E778093E8000E94F3
:103E300043228091E80083FFDDC180918F03909140
:103E40009003492F50E04A30510508F0D3C1FA01E0
:103E5000EB58FF4F0C94482D803821F0823809F040
:103E6000C9C108C080918B0390918C03992389F07C
:103E700082600FC0809193038F70873008F0BAC1C1
:103E80008093E9008091EB0085FB882780F91092F0
:103E9000E9009091E800977F9093E8008093F1000B
:103EA0001092F10070C1282F2D7F09F0A3C1882343
:103EB00019F0823061F09EC180919103813009F048
:103EC00099C1933009F080E080938C032EC08091DB
:103ED000910381112AC0809193038F702FEF280FD7
:103EE000263008F087C18093E9002091EB0020FF85
:103EF0001CC0933021F48091EB00806214C090913B
:103F0000EB0090619093EB0021E030E0A90102C04A
:103F1000440F551F8A95E2F74093EA001092EA0099
:103F20008091EB0088608093EB001092E900809113
:103F3000E800877F8093E8000E9443225BC18111E3
:103F400059C1109191031F778091E3008078812BF4
:103F50008093E3008091E800877F8093E8000E94CF
:103F600043228091E80080FFFCCF8091E3008068CD
:103F70008093E300111102C082E001C083E08093CE
:103F80008D0338C18058823008F034C120919103EC
:103F9000309192032C3D53E0350779F583E08A8315
:103FA0008AE289834FB7F894DE01139620E03EE061
:103FB00051E2E32FF0E050935700E49120FF03C05B
:103FC000E295EF703F5FEF708E2F90E0EA3010F0D7
:103FD000C79601C0C0968D939D932F5F243149F7FA
:103FE0004FBF8091E800877F8093E8006AE270E02D
:103FF000CE0101960E94CD23B4C08091930390918D
:104000009403432F552743305105A9F068F44130FC
:10401000510509F4FEC04230510509F0EBC08BE5B3
:1040200090E0E2EEF3E04BC04132510529F142321B
:10403000510589F1DFC0C901992781309105A1F0AF
:1040400058F0029709F0D6C0EFE4F4E0E4918E2F27
:1040500090E0EFE4F4E030C0E3E8F4E0E4918E2F88
:1040600090E0E3E8F4E028C0E1E7F4E0E4918E2F8B
:1040700090E0E1E7F4E020C08330910508F0BAC099
:10408000880F991FFC01E659FE4F0190F081E02D49
:1040900089E090E014C08330910508F0ABC0FC01CA
:1040A000EE0FFF1FEC59FE4F0190F081E02DDC0177
:1040B000AF59BE4F8C9190E0009709F49BC02091BE
:1040C000E800277F2093E800209195033091960324
:1040D0002817390708F4C90140E0009789F12091B9
:1040E0008D03222309F43DC02530D9F12091E80049
:1040F00023FD37C02091E80022FD2FC02091E80069
:1041000020FFEBCF4091F3002091F20030E0342B00
:10411000009759F02830310540F444914093F10064
:10412000319601972F5F3F4FF3CF41E028303105A3
:1041300009F040E02091E8002E772093E800CDCFF1
:104140004111CDCF0AC080918D03882351F0853075
:1041500041F08091E80083FD04C08091E80082FF77
:10416000F2CF8091E8008B778093E80043C08038DD
:1041700009F040C08091E800877F8093E80080913B
:104180008E038093F1008091E8008E77D3CE811169
:1041900031C080919103909192039927029754F531
:1041A0008091E800877F8093E8001091910310933D
:1041B0008E030E944322111106C08091E30087FD07
:1041C00002C081E001C084E080938D0342E061EC95
:1041D00081E00E94622242E261EC84E00E9462225D
:1041E00042E261EC82E00E94622242E260EC83E003
:1041F0000E9462228091E80083FF10C08091E80055
:10420000877F8093E8008091EB0080628093EB00D1
:1042100005C082E190E0EDE3F4E051CFAA960FB63D
:10422000F894DEBF0FBECDBFDF91CF911F910895EF
:1042300080916A03089590918D03943029F58093BD
:10424000B0037093B2036093B1039093E9008FEFD2
:104250009091E800815095FD06C095ED9A95F1F793
:1042600000008111F5CF8091E80085FF0DC040E08E
:1042700050E063E070E080EB93E00E940C1E8091C0
:10428000E8008E778093E8000895BC0184E00C94E8
:104290001B21BC0183E00C941B2124E02093E90046
:1042A0002FEF3091E800215035FD06C035ED3A95ED
:1042B000F1F700002111F5CF2091E80025FF0BC098
:1042C00040E050E066E070E00E940C1E8091E80043
:1042D0008E778093E8000895CF93DF9320910C01AF
:1042E000222339F02091AE0327FF03C060E224E0CF
:1042F00002C068E021E02093E9002FEF3091E80050
:10430000215035FD06C035ED3A95F1F70000211139
:10431000F5CF2091E80025FF1DC0EC0180910C0134
:10432000811105C040E050E068E070E003C070E03B
:1043300040E050E0CE010E940C1E8091E8008E7794
:104340008093E80080E2FE01ABE6B3E001900D92BD
:104350008A95E1F7DF91CF9108951F920F920FB6E2
:104360000F9211242F933F934F935F936F937F93FB
:104370008F939F93AF93BF93CF93DF93EF93FF936D
:10438000C091E900CF708091EC00D82FD17080FDF2
:10439000D0E81092E9008091F000877F8093F000D0
:1043A00078940E94461E1092E9008091F000886087
:1043B0008093F000CD2BCF70C093E900FF91EF9177
:1043C000DF91CF91BF91AF919F918F917F916F912D
:1043D0005F914F913F912F910F900FBE0F901F90C3
:1043E0001895E8EDF0E080818E7F80831092E200E6
:1043F0001092DA001092E100A0EEB0E08C918160A2
:104400008C9380818F77808319BCA7EDB0E08C916D
:104410008E7F8C9380818F7E80831092B30308956A
:104420002091E4003091E50095E64091EC00842F66
:10443000817040FF23C08091E80080FD1DC0809105
:104440008D03882399F0853099F08091EB0085FDEC
:1044500011C04091E4005091E5002417350729F37D
:10446000915011F09A01E1CF84E0089582E008951F
:1044700083E0089581E0089580E008954091E80088
:1044800042FFDDCF089580918F0387FF11C0809197
:10449000E80082FD05C080918D038111F8CF11C025
:1044A0008091E8008B770BC080918D03882349F0C1
:1044B0008091E80080FFF8CF8091E8008E778093AC
:1044C000E8000895982F973068F59093E9009817C1
:1044D00039F07091EC002091ED005091F00003C094
:1044E000242F762F50E021FD02C09F5FECCF30914A
:1044F000EB003E7F3093EB003091ED003D7F309339
:10450000ED003091EB0031603093EB007093EC00E4
:104510002093ED005093F0002091EE0027FDE5CFB1
:1045200080E008958F708093E90081E00895CF9234
:10453000DF92EF92FF920F931F93CF93DF93C8ED1B
:10454000D0E088818F7E8883E7EDF0E08081816014
:10455000808384E082BF81E08093B30388818E7F73
:10456000888302EE10E0F80110821092DA0081EEEA
:10457000C82ED12CF601108288818F77888388819C
:104580008068888388818F7D888319BC10928D0311
:1045900010928E0310928C0310928B0390EEE92EF2
:1045A000F12CF70180818B7F8083888181608883F3
:1045B00042E060E080E00E946222F60180818E7F0E
:1045C0008083F8018081816080838081886080831E
:1045D000F70180818E7F8083888180618883DF916D
:1045E000CF911F910F91FF90EF90DF90CF900895A2
:1045F0001F920F920FB60F9211242F933F934F9358
:104600005F936F937F938F939F93AF93BF93EF933A
:10461000FF938091E10082FF09C08091E20082FF58
:1046200005C08091E1008B7F8093E1008091DA00EA
:1046300080FF2AC08091D80080FF26C08091DA00D8
:104640008E7F8093DA008091D90080FF18C080E1CE
:1046500089BD82E189BD09B400FEFDCF81E0809370
:104660008D038091B30381110FC00E94F1210E943C
:1046700097228091E20084608093E20005C019BC1B
:1046800010928D031092B3038091E10080FF17C058
:104690008091E20080FF13C08091E2008E7F8093C2
:1046A000E2008091E20080618093E2008091D80076
:1046B00080628093D80019BC85E080938D0380913F
:1046C000E10084FF2EC08091E20084FF2AC080E1D7
:1046D00089BD82E189BD09B400FEFDCF8091D8007B
:1046E0008F7D8093D8008091E1008F7E8093E100E0
:1046F0008091E2008F7E8093E2008091E2008160F1
:104700008093E20080918E03882311F084E007C03B
:104710008091E30087FD02C081E001C083E08093C7
:104720008D038091E10083FF27C08091E20083FF29
:1047300023C08091E100877F8093E10082E0809335
:104740008D0310928E038091E1008E7F8093E100B3
:104750008091E2008E7F8093E2008091E200806190
:104760008093E20042E060E080E00E94622280915B
:10477000F00088608093F000FF91EF91BF91AF91BE
:104780009F918F917F916F915F914F913F912F9169
:104790000F900FBE0F901F901895209195033091A8
:1047A00096032617370748F06115710539F42091F3
:1047B000E8002E772093E80001C0B901FC0120E059
:1047C0006115710579F180918D038823F1F18530B0
:1047D000F1F18091E80083FD3CC08091E80082FD0A
:1047E0002EC08091E80080FFEBCF2091F3008091F4
:1047F000F20090E0922B6115710551F0883091051F
:1048000038F421912093F100615071090196F3CFA2
:1048100021E0089709F020E08091E8008E778093EE
:10482000E800CECF2111CFCF0AC080918D0388231D
:1048300061F0853061F08091E80083FD0AC08091CD
:10484000E80082FFF2CF80E0089582E0089583E0DF
:10485000089581E0089581E08093E00080E28093F4
:10486000D8001092C9008FE19EE40197F1F700C0D3
:10487000000087E090EBDC018093340590933505D0
:10488000A0933605B09337059CE088E10FB6F89405
:10489000A895809360000FBE90936000FFCF78943E
:1048A0001F920F920FB60F9211248F939F93AF9385
:1048B000BF938091AA039091AB03A091AC03B091F8
:1048C000AD030196A11DB11D8093AA039093AB0384
:1048D000A093AC03B093AD03BF91AF919F918F9123
:1048E0000F900FBE0F901F9018959C014FB7F89432
:1048F0008091AA039091AB03A091AC03B091AD035A
:104900004FBF821B930B08952FB7F8946091AA03B1
:104910007091AB038091AC039091AD032FBF0895CC
:104920002FB7F8948091AA039091AB03A091AC03A8
:10493000B091AD032FBF08951F920F920FB60F9243
:1049400011248F939F93AF93BF938091A9038111FB
:1049500013C08091AA039091AB03A091AC03B091D6
:10496000AD034196A11DB11D8093AA039093AB03A3
:10497000A093AC03B093AD03BF91AF919F918F9182
:104980000F900FBE0F901F90189520910C012223BD
:10499000C9F02091AE0327FF15C0262F2695269536
:1049A00026952E31C8F4FC01E20FF11D677081E0FD
:1049B00090E001C0880F6A95EAF78095928189237B
:1049C00082830895FC0106962281621301C012823F
:1049D0003196E817F907C1F7089520910C012223B9
:1049E000C1F02091AE0327FF14C0262F26952695EF
:1049F00026952E3130F5FC01E20FF11D677081E044
:104A000090E001C0880F6A95EAF79281892B828332
:104A10000895FC0132962FEF30E04191641789F040
:104A20002F3F19F4411101C0232F3F5F3630A9F702
:104A30002F3F39F0FC01E20FF11D27FDFA9562834B
:104A4000089508952091A7033091A80328173907E6
:104A500071F09093A8038093A703E091A503F091D0
:104A6000A603309721F00084F185E02D0994089584
:104A70002091A3033091A4032817390771F0909374
:104A8000A4038093A303E091A503F091A6033097BC
:104A900021F00680F781E02D09940895E091A503A7
:104AA000F091A603309721F00190F081E02D099458
:104AB00080E008958334910578F5FC01EE0FFF1F27
:104AC000EE0FFF1FDF01A957BB4FCD010296FC017E
:104AD00054910196FC013491FD018591837074918C
:104AE000A82FB0E0F0E98F9FC001112486539C4F9E
:104AF000FC01E70FF11DB4976083FC01E50FF11D88
:104B0000B4974083830F911DFC01B4972083FD016E
:104B1000E853FC4F81E080830895FF920F931F9329
:104B2000CF93DF93182F062FF42EC0E0D0E02F2D67
:104B3000402F612FCE010E945A252196C334D10502
:104B4000B1F7DF91CF911F910F91FF900895ECE99C
:104B5000F3E0248130E1231B08F420E0248381E08A
:104B600080939B030895ECE9F3E0248130E1230F67
:104B700008F42FEF248381E080939B0308950F9323
:104B80001F93CF93DF93082F000FEB0114E21093D4
:104B9000B403E5EBF3E0DE018D91819383E0E53C26
:104BA000F807D1F724E630E041E150E064EB73E030
:104BB000802F0E94882C105F6096143B41F7DF9194
:104BC000CF911F910F9108958091C803882329F0F8
:104BD0006AEC73E084E70E94BF251092C8038091BD
:104BE000C903882329F06AE574E087E70E94BF259E
:104BF0001092C9030895E4EBF3E06083418324E657
:104C000030E042E050E0BF01880F0C94882CDF9226
:104C1000EF92FF920F931F93CF93DF93262F30E0F5
:104C2000A901425F5A4F7A01FA01908191110AC09D
:104C3000F7011082DF91CF911F910F91FF90EF90BC
:104C4000DF900895D82EF2E16F9FE001112400E07B
:104C500010E0F801EC0FFD1FE651FB4F4081602F83
:104C60008D2D0E94FB250F5F1F4F0231110589F723
:104C7000DFCFCF93DF93C82F4BE06DEF0E94FB2572
:104C800040E06AE08C2F0E94FB258FE39CE90197AE
:104C9000F1F700C0000040E060E08C2F0E94FB258F
:104CA00040E061E08C2F0E94FB2540E066E08C2F05
:104CB0000E94FB2540E06DEF8C2F0E94FB25D0E089
:104CC00040E06D2F8C2F0E94FB25DF5FD231C1F7B2
:104CD00040E06D2F8C2F0E94FB25DF5FD432C1F79F
:104CE00040E06D2F8C2F0E94FB25DF5FD43BC1F786
:104CF0004BE06DEF8C2F0E94FB2541E06AE08C2F8A
:104D00000E94FB2540E06DEF8C2FDF91CF910C943A
:104D1000FB257F928F929F92AF92BF92CF92DF92AC
:104D2000EF92FF920F931F93CF93DF930E94D12BAB
:104D300084E70E94392687E70E943926E12CF12C6E
:104D4000C12CD12C42E1B8E08B2E912CAA24A39443
:104D5000B12C77247394F701E857FB4F208130E0A2
:104D6000C9018497F701E757FB4F008110E0045217
:104D70001109F701E657FB4FC081D0E0A497BC01B1
:104D800097FF02C0695F7F4FE3E075956795EA95ED
:104D9000E1F7F601EE0FFF1FEE0FFF1FE957FB4F84
:104DA0002491237030E0429FF001439FF00D1124C5
:104DB000E651FB4FE60FF11DB4010E94152DB50120
:104DC00002C0660F771F8A95E2F7CB019081892B8D
:104DD0008083C80117FD079663E0959587956A95CE
:104DE000E1F7429FF001439FF00D1124E651FB4F84
:104DF000E80FF11DC801B4010E94152DB50102C0D4
:104E0000660F771F8A95E2F7CB019081892B80830B
:104E1000CE01D7FD079653E0959587955A95E1F712
:104E2000429FF001439FF00D1124E651FB4FE80F24
:104E3000F11DCE01B4010E94152DB50102C0660F0F
:104E4000771F8A95E2F7CB019081892B8083F90146
:104E5000E25FFA4F70827FEFC71AD70A84E0E80E4C
:104E6000F11C63E4C616D10409F075CF60E084E755
:104E70000E94072661E087E7DF91CF911F910F9194
:104E8000FF90EF90DF90CF90BF90AF909F908F906A
:104E90007F900C940726ECE9F3E0438120E1421B6C
:104EA00008F440E08181628190E00C94381EECE9C6
:104EB000F3E0438120E1420F08F44FEF81816281EA
:104EC00090E00C94381EECE9F3E0628120E1621B73
:104ED00008F460E08181438190E00C94381EECE995
:104EE000F3E0628120E1620F08F46FEF818143817A
:104EF00090E00C94381EECE9F3E0818190E043816E
:104F0000628108970C94381EECE9F3E0818190E00F
:104F10004381628108960C94381E80919C0386958B
:104F20008695815009F486E10C94761C80919C034F
:104F3000869586958F5F873108F081E00C94761C0A
:104F4000CF93DF93CFE7D2E060E0CE010E94F12C57
:104F50002196C11584E0D807B9F7DF91CF91089564
:104F6000CF92DF92EF92FF920F931F93CF93DF9335
:104F7000C0E0D0E08E010A561F4F6E018EE1C80ED0
:104F8000D11CFE01ED56FA4FE590F4906F2DCE0145
:104F900087960E94F12C6E2DCE0188960E94F12CEE
:104FA0002296CC15DD0569F70C171D0731F7E801CE
:104FB00008351240F9F6DF91CF911F910F91FF90C4
:104FC000EF90DF90CF9008950F931F93CF93DF93CF
:104FD000C42FD0E0CC0FDD1F2EE1629FC00DD11D8C
:104FE000112436E9839FC00DD11D1124CE0187966F
:104FF0000E94D32C082F10E0102F0027CE01889696
:105000000E94D32C9801282BC901DF91CF911F91C9
:105010000F910895462F843038F4753028F46F309E
:1050200018F4672F0C94E42780E090E00895CF9364
:10503000C82F811102C06FEF01C061E283E290E0EE
:105040000E94F12CC11102C06FEF01C061E184E246
:1050500090E00E94F12CC11102C06FEF01C066E226
:1050600085E290E0CF910C94F12C80E00E9417280B
:1050700060E086E290E00E94F12C0E94B0270E943E
:10508000A02781E00C94172883E290E00E94D32CA3
:10509000813281F484E290E00E94D32C813151F47A
:1050A00085E290E00E94D32C91E0863209F090E0F6
:1050B000892F01C080E081700895882311F0FA01E2
:1050C00001C0FB0109940F931F93CF93DF93C42F6B
:1050D000D22FFC0182818823C9F0409312050E94DF
:1050E0009024909311058093100580E28C0F8830F6
:1050F00008F057C0C77081E001C0880FCA95EAF771
:10510000DF91CF911F910F910C94E42980911205AA
:10511000481330C080911005909111050E947524AC
:10512000883C910538F510E21D0FCD17B9F080E2EB
:105130008C0F883040F4C77081E001C0880FCA9599
:10514000EAF70E94D929183028F581E09D2F977041
:1051500001C0880F9A95EAF70E94E429802F0E94E7
:105160009F2A1830F0F4D77081E001C0880FDA95DB
:10517000EAF70AC080E28C0F883098F4C77081E0AB
:1051800001C0880FCA95EAF7DF91CF911F910F9167
:105190000C94D929802FDF91CF911F910F910C94FE
:1051A0009F2ADF91CF911F910F91089580E090E0A9
:1051B0000E94382580E090E00E94222510922F0363
:1051C00010922E030E941913EAE3F3E086E0DF0158
:1051D0001D928A95E9F710923205109231051092CE
:1051E00033050C94411CCF92DF92FF920F931F93D3
:1051F000CF93DF936C010091A20380913203082BBF
:10520000C7E0D0E010E0C8010C2E02C0959587954C
:105210000A94E2F780FD04C02197A8F7F12C09C099
:10522000FC2EB6018C2F0E940A280E94F3100197D1
:1052300099F38F2DDF91CF911F910F91FF90DF9008
:10524000CF9008952FE0929F800D1124682F6695CE
:1052500066956695982F977083E0689FB00111243A
:1052600040E050E080E0FB01E40FF51FED5EFA4FF7
:10527000208130E0092E02C0369527950A94E2F786
:1052800021703327042E01C0220F0A94EAF7822BE3
:105290004F5F5F4F4330510531F708952FE0929FE4
:1052A000800D1124E82FE695E695E695877051E08C
:1052B00001C0550F8A95EAF783E0E89FF0011124B9
:1052C000ED5EFA4F20E030E070E04081CB01022E2D
:1052D00002C0969587950A94E2F78170819584279C
:1052E0008523842781932F5F3F4F2330310569F752
:1052F00008958093A2030C94D62821E030E001C0E9
:10530000220F8A95EAF720958091A20382230C94BC
:10531000792921E030E001C0220F8A95EAF78091D7
:10532000A203822B0C947929809332030C94D62803
:10533000FC01808191810E940C14292F2F70E92F8C
:10534000E295EF704E2F50E0FA013297EE30F10502
:10535000B8F4E158FF4F0C94482D803F99F018F4B1
:10536000883E70F40FC0843F59F40CC0883E50F062
:10537000813F31F407C0822F8695869586950895E2
:1053800080E0089581E008951092300380910C012F
:10539000882331F08091AE0387FF02C08EE101C007
:1053A00086E0E7EDF2E0DF011D928A95E9F70C94C3
:1053B000D628882341F080959091300389238093EB
:1053C00030030C9419130895882339F09091300319
:1053D000892B809330030C94191308958823B1F11D
:1053E0009CEF980F913A30F4682F85ED92E00E947F
:1053F000C52414C090E2980F983090F4877021E093
:1054000030E0A90102C0440F551F8A95E2F7CA0196
:105410008095909130038923809330030C94191365
:105420009BE5980F933020F480E090E00C943825B1
:1054300098E5980F973120F480E090E00C942225B5
:10544000803F20F00E94BD2A0C94411C0895CF9308
:10545000882309F472C0C82F8CEF8C0F813AC0F5F5
:1054600080910C018823E1F08091AE0387FF18C082
:10547000EC2FE695E695E695F0E0EB52FD4F828144
:10548000282F30E04C2F477081E090E002C0880F59
:10549000991F4A95E2F782239323892B61F412C066
:1054A000E7EDF2E08DED92E02191C21721F08E1729
:1054B0009F07D1F707C06C2F85ED92E00E94C524AD
:1054C0000E9419136C2F85ED92E00E94ED2410C00C
:1054D00080E28C0F883078F4C77081E090E001C0E2
:1054E000880FCA95EAF790913003892B8093300397
:1054F000CF910C941913EBE5EC0FE33040F4F0E09E
:10550000E85DFE4F808190E0CF910C943825E8E56E
:10551000EC0FE73150F4F0E0EE0FFF1FE55DFE4FBA
:1055200080819181CF910C942225C03F30F08C2F47
:105530000E94762BCF910C94411CCF9108951F931C
:10554000CF93DF93182F893319F0C0E0D0E002C069
:10555000C0E5D0E0812F0E94272A209741F08FE9F3
:105560009FE00197F1F700C000002197F6CF812F4F
:10557000DF91CF911F910C94EE29803F39F49091E7
:105580003D0397FF35C010923D0359C0813F29F478
:1055900090913D031916BCF32BC090913C03823FC0
:1055A00029F497FF25C010923C0349C0833F19F4AA
:1055B0001916CCF31DC090913E03893F29F41916AA
:1055C000BCF410923E033BC08A3F19F497FF10C011
:1055D000F8CF8B3F39F490913F0397FF09C01092A9
:1055E0003F032DC08C3F21F490913F031916BCF36B
:1055F0009CE0980F953080F421E030E0A90102C0D2
:10560000440F551F9A95E2F7CA01809590913B038C
:10561000892380933B0313C08D3F21F48091330590
:105620008E7F0BC08E3F21F4809133058D7F05C0A6
:105630008F3F29F4809133058B7F809333058091D0
:105640003C03811106C080913D03811102C010927C
:10565000320580913E03811106C080913F03811184
:1056600002C01092310508958091330580FD16C067
:1056700081FD16C082FD18C080913105882391F00C
:10568000883290F428E0829FC001112468E270E023
:105690000E94152D862F672B29F007C082E0089500
:1056A00084E0089581E0089588E0089580913305AD
:1056B00080FD14C081FD14C082FD16C080913205AA
:1056C000882381F0843180F422E3829FC001112479
:1056D00064E170E00E94152D862F08958CE00895F6
:1056E00089E1089585E0089582E30895803F21F4DB
:1056F0000E94562B819504C0813F29F40E94562BAD
:1057000080933D030895823F21F40E94562B81959A
:1057100004C0833F29F40E94562B80933C030895D4
:10572000893F19F40E94342B05C08A3F31F40E944E
:10573000342B819580933E0308958B3F21F40E9482
:10574000342B819504C08C3F29F40E94342B809324
:105750003F0308959CE0980F953078F421E030E005
:10576000A90102C0440F551F9A95E2F7CA01909112
:105770003B03892B80933B0308958D3F21F4809157
:10578000330581600BC08E3F21F480913305826028
:1057900005C08F3F29F480913305846080933305E1
:1057A00008951092B9008CE08093B80008959F92FC
:1057B000AF92BF92CF92DF92EF92FF920F931F931F
:1057C000CF93DF93B82EEB010E9490246C01C4317B
:1057D000D10558F0CF3F8FEFD80759F0CE0164E1E3
:1057E00070E00E94AF2C7B0107C0EE24E394F12C03
:1057F00003C025E0E22EF12C84E8A82E94EA992E2D
:105800001092BC009092BC000E9490248C01809168
:10581000BC0087FD08C00E949024801B910B8E1550
:105820009F05A8F32AC08091B900887F883041F095
:105830008091B900887F803119F00FEF1FEF1FC0F2
:10584000B092BB00A092BC000E9490248C01809179
:10585000BC0087FD08C00E949024801B910B8E1510
:105860009F05A8F30AC08091B900887F883111F0A4
:10587000803419F700E010E00EC00EEF1FEFCF3FAD
:105880008FEFD80709F4BCCFC6010E9475248C178E
:105890009D0708F4B5CFC801DF91CF911F910F91FB
:1058A000FF90EF90DF90CF90BF90AF909F900895C2
:1058B0000F931F93CF93DF93EB018093BB0084E89A
:1058C0008093BC000E9490248C018091BC0087FDD5
:1058D0000EC0CF3F8FEFD807C1F30E949024801BEA
:1058E000910B8C179D0788F38EEF9FEF0CC02091D2
:1058F000B900287F81E090E0283211F480E090E048
:10590000919581959109DF91CF911F910F91089504
:10591000CF92DF92EF92FF920F931F93CF93DF937B
:105920006B018A017901B9010E94D72BE6010C0DA8
:105930001D1DC017D10761F424E92093BC00DF913D
:10594000CF911F910F91FF90EF90DF90CF9008952E
:1059500097FDF2CFB70189910E94582CEACFAA1B7C
:10596000BB1B51E107C0AA1FBB1FA617B70710F04A
:10597000A61BB70B881F991F5A95A9F7809590957C
:10598000BC01CD010895DC01CB01FC01F999FECFEA
:1059900006C0F2BDE1BDF89A319600B40D924150B7
:1059A0005040B8F70895F999FECF92BD81BDF89A9D
:1059B000992780B50895A8E1B0E042E050E00C944A
:1059C000C52CDC01A40FB51F4150504048F0CB015D
:1059D000840F951F2E910E94F22C41505040D0F719
:1059E0000895262FF999FECF92BD81BDF89A0197AF
:1059F00000B4021639F01FBA20BD0FB6F894FA9A17
:105A0000F99A0FBE08950396272F0E94F22C0E9448
:105A1000F12C252F0E94F22C242F0C94F22C0196AD
:105A2000272F0E94F22C0C94F12C97FB072E16F4D2
:105A3000009407D077FD09D00E94AF2C07FC05D059
:105A40003EF4909581959F4F0895709561957F4F95
:105A50000895052E97FB1EF400940E94402D57FDDB
:105A600007D00E94552D07FC03D04EF40C94402D16
:105A700050954095309521953F4F4F4F5F4F08957A
:105A800090958095709561957F4F8F4F9F4F0895AA
:105A9000EE0FFF1F0590F491E02D099469279627DA
:105AA00069277827872778270895A1E21A2EAA1B4D
:105AB000BB1BFD010DC0AA1FBB1FEE1FFF1FA217BE
:105AC000B307E407F50720F0A21BB30BE40BF50BBB
:105AD000661F771F881F991F1A9469F76095709544
