:100000000C9400050C9447050C9447050C94470587
:100010000C9447050C9447050C9447050C94470530
:100020000C9447050C9447050C9440170C947C16CF
:100030000C94FA1F0C9447050C9447050C94470543
:100040000C9447050C9447050C9447050C94470500
:100050000C94E8210C942A190C9447050C9447053C
:100060000C9447050C9447050C9447050C944705E0
:100070000C9447050C9447050C9447050C944705D0
:100080000C9447050C9447050C9447050C944705C0
:100090000C9447050C9447050C9447050C944705B0
:1000A0000C9447050C9447050C9447058C0A8C0A60
:1000B000C70AC70A210B3F0B490C490C4A0BBE0B60
:1000C000CF0BCF0B840C860C8E0CC40CDD0C9E0C5D
:1000D000F80C011104112C11391140116011631138
:1000E000C011FA119C129C1209120B120E1232123C
:1000F0005312561259127C129014B7145E16B7148C
:100100005E16031526155E161B162B1675296B2910
:100110008329D529D729D729D529D729D729A4296A
:10012000D729AE29B829D729D729D729D729D52919
:10013000D729D729D529D7299129D729D729C82916
:10014000C829C829C829C829C829C829C829C82927
:10015000D029D72975296829D729D729D729D72977
:10016000D729D729D729D729D729D729D029D72996
:10017000D729D529D729C629C629C629C629C629D6
:10018000C629C629C629C629D029B02AB02AC32A19
:10019000C32AB92AC32AC32AC32AB02AB02ABE2A2C
:1001A000C32AC32ABE2A000000000000000000008D
:1001B000000000000000000000000000000000003F
:1001C000000000000000000000007E0F00D4FFFFD0
:1001D000FFC70000007800000000000000002A2B8C
:1001E00028000000000000000000000000000000E7
:1001F0000029000000002C1E342021222434262750
:10020000252E362D3738271E1F2021222324252670
:100210003333362E37381F0405060708090A0B0C3E
:100220000D0E0F101112131415161718191A1B1C86
:100230001D2F3130232D350405060708090A0B0C44
:100240000D0E0F101112131415161718191A1B1C66
:100250001D2F3130354C00047F3F1F64321464324F
:1002600014783C1E1E140A0505010902A10185022D
:100270000901A100050919012908150025019508A2
:10028000750181020501093009311581257F95022B
:100290007508810609381581257F95017508810645
:1002A000050C0A38021581257F950175088106C065
:1002B000C005010980A101850319012AB7001501B4
:1002C00026B700950175108100C0050C0901A10138
:1002D000850419012AA002150126A00295017510B6
:1002E0008100C005010906A1018505050719E0295E
:1002F000E7150025019508750181020507190029F8
:10030000EF1500250195F0750181020508190129F5
:1003100005950575019102950175039101C006606F
:10032000FF0961A1010962150026FF0095207508EB
:1003300081020963150026FF00952075089102C00F
:1003400005010906A101050719E029E715002501A6
:10035000950875018102950175088101050719004D
:1003600029FF150026FF009506750881000508196C
:10037000012905950575019102950175039101C04B
:1003800009025B00030100A0FA0904000001030157
:100390000100092111010001224000070581030825
:1003A000000A0904010002030000000921110100F4
:1003B0000122220007058203200001070503032014
:1003C00000010904020001030000000921110100DD
:1003D0000122B6000705840320000A120100020072
:1003E00000000803A1050001000102000116034BF3
:1003F0000042004400380058002D004D004B0049D9
:10040000004900000010034B0042004400660061F8
:10041000006E00730000000403090422232526282F
:10042000292A2C2D2F3032333536383A3B3D3E4089
:1004300042434547494A4C4E5051535557595A5CCF
:100440005E6062646668696B6D6F71737577797BE6
:100450007D7F81838587898A8C8E90929496989AE5
:100460009C9E9FA1A3A5A7A8AAACAEAFB1B3B4B6FA
:10047000B8B9BBBCBEBFC1C2C3C5C6C7C9CACBCC55
:10048000CDCED0D1D2D2D3D4D5D6D7D7D8D9D9DA28
:10049000DADBDBDBDCDCDCDCDCDDDDDDDDDCDCDC9D
:1004A000DCDCDBDBDBDADAD9D9D8D7D7D6D5D4D3C5
:1004B000D2D2D1D0CECDCCCBCAC9C7C6C5C3C2C19A
:1004C000BFBEBCBBB9B8B6B4B3B1AFAEACAAA8A7F7
:1004D000A5A3A19F9E9C9A98969492908E8C8A89AF
:1004E000878583817F7D7B79777573716F6D6B698C
:1004F00068666462605E5C5A5957555351504E4C61
:100500004A4947454342403E3D3B3A38363533320F
:10051000302F2D2C2A292826252322000000000018
:1005200000000000000001010203040506080A0C97
:100530000F1114181C2024292E33393F464C535BCD
:10054000626A7179818A929AA2AAB2B9C1C8CFD5DA
:10055000DCE1E7EBF0F4F7FAFCFDFEFFFEFDFCFA50
:10056000F7F4F0EBE7E1DCD5CFC8C1B9B2AAA29AA3
:10057000928A8179716A625B534C463F39332E29E6
:1005800024201C1814110F0C0A080605040302018C
:10059000010000000000000000000029003A003CBB
:1005A000003E004000420044004600480000003B7E
:1005B000003D003F0041004300450047000000357A
:1005C000001F0021002300250027002E0049004BBA
:1005D000001E0020002200240026002D002A004AD0
:1005E0000000002B001A0015001C000C0013003046
:1005F000004C004E00140008001700180012002FD5
:100600000031004D0000003900160009000B000EFB
:100610000033004C0000000000040007000A000D39
:10062000000F003400280000000000E1001D00065B
:1006300000050010003700E5000000000031001B3D
:100640000019001100360038004C0052000000E094
:1006500000E20000002C000000E600650050004FA2
:1006600000E3000000000000000000E700E400518B
:100670000000000100010001000100010001000173
:100680000001000100000001000100010001000163
:100690000001000100000001000100010001000153
:1006A0000001000100010001000100010001000142
:1006B0000001000100010001000000010001000133
:1006C0000001000100010001000100010001000122
:1006D0000001000100010001000100010000000113
:1006E0000001000100010001000100010000000004
:1006F00000010001000100010001000100010000F3
:1007000000000001000100010001000100010001E2
:1007100000000000000100010001000100010001D3
:1007200000010001000000010001000000010000C4
:1007300000010001000100010001000000000000B4
:1007400000000001000100010000000100010001A3
:100750000001000100010001000100010000000192
:100760000001000100010001000100010000000182
:100770000001000100010001000100010001000171
:100780000001000100010001000100010001000161
:100790000000000100010001000100010001000152
:1007A0000001000100010001000100010001000141
:1007B0000001000100000001000100010001000132
:1007C0000001000100000000000100010001000123
:1007D0000001000100010000000000010001000113
:1007E0000001000100010001000000000001000103
:1007F00000010001000100010001000100000001F2
:1008000000010000000100000001000100010001E2
:1008100000010000000000000000000100010001D4
:1008200000000001000100010001000100010001C1
:1008300000010001000000010001000100010001B1
:1008400000010001000000010001000100010001A1
:100850000001000100010001000100010001000190
:100860000001000100010001000000010001000181
:100870000001000100010001000100010001000170
:100880000001000100010001000100010000000161
:100890000001000100010001000100010000000052
:1008A0000001000100010001000100010001000041
:1008B0000000000100010001000100010001000131
:1008C0000000000000010001000100010001000122
:1008D0000001000100000001000100000001000013
:1008E0000001000100010001000100000000000003
:1008F00000000001000100010000000001010101F1
:1009000001010101010202020202020202020303CA
:10091000030303030303040404040404040505059A
:10092000050506060606060707070707080808085C
:10093000090909090A0A0A0B0B0B0C0C0C0D0D0D09
:100940000E0E0E0F0F0F101011111112121313149F
:1009500014151516161717181819191A1A1B1B1C17
:100960001D1D1E1E1F202021222223242425262671
:10097000272829292A2B2C2D2D2E2F3031323233A6
:100980003435363738393A3B3C3D3E3F40414243AF
:100990004445464748494A4C4D4E4F505153545593
:1009A0005658595A5B5D5E5F616264656668696B43
:1009B0006C6D6F7072737577787A7B7D7E808283C1
:1009C0008587888A8C8E8F91939596989A9C9EA005
:1009D000A2A3A5A7A9ABADAFB1B3B5B7BABCBEC012
:1009E000C2C4C6C9CBCDCFD1D4D6D8DBDDDFE2E4DB
:1009F000E7E9EBEEF0F3F5F8FAFDFFFFAA7F5540CB
:100A000011241FBECFEFDAE0DEBFCDBF04B603FE78
:100A100027C08091190390911A03A0911B03B091F4
:100A20001C038730904BA740B04BD1F410921903B0
:100A300010921A0310921B0310921C0314BE84B769
:100A4000877F84BF0FB6F894A89580916000886175
:100A500080936000109260000FBEE0E0F8E309951B
:100A600011E0A0E0B1E0E6E1FBE502C005900D92E7
:100A7000AA39B107D9F723E0AAE9B1E001C01D9274
:100A8000A931B207E1F70E94230D0C94892D0C9433
:100A900000001F93CF93DF93CDB7DEB767970FB6F4
:100AA000F894DEBF0FBECDBF4B8B5C8B6D8B7E8B06
:100AB0008F8B611110927C0286E09E01235F3F4F75
:100AC000D901E82F1D92EA95E9F795E0FE017396AA
:100AD000D90101900D929A95E1F79C894E895F8921
:100AE0007B897D879E876F87598B488BF901DE0153
:100AF000179601900D928A95E1F7CE0107960E9414
:100B0000B81D81113EC086E0FE013796DE011196C8
:100B100001900D928A95E1F7FF81E8856A857B85D2
:100B20006115710531F0EF3F31F481E0FF3F19F4B9
:100B300003C081E001C080E080FD23C02091480215
:100B400030E0C9010196877099274091790250E001
:100B50008417950779F1F983EA837D836C8396E0A6
:100B6000929FD001939FB00D1124A75BBD4FFE0152
:100B7000319601900D929A95E1F7809348020E9478
:100B8000351D16E080917902909148028917F9F09D
:100B9000189FC0011124875B9D4F0E94B81D8823B8
:100BA000B1F08091790290E0019687709927809347
:100BB0007902E8CF0E94C72A109248021092790267
:100BC000E2E4F2E086E0DF011D928A95E9F767969C
:100BD0000FB6F894DEBF0FBECDBFDF91CF911F914E
:100BE0000895809581FF02C0769A01C0769882FFB1
:100BF00002C02A9A08952A9808953F924F925F92D0
:100C00006F927F928F929F92AF92BF92CF92DF921C
:100C1000EF92FF920F931F93CF93DF93CDB7DEB781
:100C200029970FB6F894DEBF0FBECDBFFC018081BF
:100C3000918123813481232B31F09F3F31F491E066
:100C40008F3F19F403C091E001C090E090FDE3C62E
:100C50007F0185E0DE01119601900D928A95E1F702
:100C6000F701228189819A81222349F00E94F62985
:100C7000182F682F89819A810E94512A03C00E94EF
:100C8000252A182F69817A81812F0E9495218C0154
:100C9000F7018281882309F4F2C0980122513F456F
:100CA0002031310508F019C18FEF93E00E94752CB7
:100CB0008111EFC0025137E8832E33E0932E0023D9
:100CC00079F08114F4E09F0609F4E3C0C4010E94A6
:100CD000752C811101C001502FEF821A920AEFCFBB
:100CE0001E821F8218861986442443942AE0322EDD
:100CF00084010F5F1F4FC4010E94752C8E831F82D9
:100D0000882309F4C6C09FEF980F933060F48F8357
:100D10004E8232E0830E911CC8010E94752C888798
:100D2000811102C0B6C048018E010A5F1F4FF80151
:100D300020812223E9F2213009F04CC081818130E9
:100D400049F46801F2E0CF0ED11CF80182810E94C3
:100D5000572C0AC0823051F46801F2E0CF0ED11C4A
:100D6000F80182810E94582B860186C0833049F4A5
:100D70006801F2E0CF0ED11CF80182810E94F12AB5
:100D8000F3CF843019F00F5F1F4F76C0F801228136
:100D90000E5F1F4F80E090E030E0205331092A3091
:100DA000310568F4389EA001399E500D1124C90107
:100DB000840F951F0F5F1F4FF8012081EDCF009723
:100DC00009F45AC0EFE9FFE03197F1F700C00000E5
:100DD0000197F5CFE22FF0E0EA52FE4F5490822FB8
:100DE00086958695869590E0FC01EA53FE4F6490C7
:100DF0002770712C022E02C0759467940A94E2F752
:100E0000F1E06F227724FC01EA54FE4FA490B12C4C
:100E1000022E02C0B594A7940A94E2F731E0A3220F
:100E2000BB24FC01EA55FE4FC490D12C02C0D594DE
:100E3000C7942A95E2F781E0C822DD246114710489
:100E400019F081EE0E94582BA114B10419F086EE1E
:100E50000E94582B852D0E94572CAB2819F086EE46
:100E60000E94F12A672819F081EE0E94F12ACD280C
:100E700019F08CE20E94572C0F5F1F4F58CF0031A2
:100E80003FE5130709F0BEC581E00E94802A0E9459
:100E90009F1380917A02877009F4BDC5F7018281A2
:100EA000882309F4B8C582E029960FB6F894DEBF0E
:100EB0000FBECDBFDF91CF911F910F91FF90EF90AB
:100EC000DF90CF90BF90AF909F908F907F906F906A
:100ED0005F904F903F900C94181D0031FFE51F0765
:100EE00011F481E005C001312FE5120721F482E001
:100EF0000E948C2ACCCFF801EB5BFC45E730F10572
:100F000008F4FEC4033FFCE51F0799F406E221EE56
:100F100040EE63EF7CE509C0073DECE51E0711F5E7
:100F200006E221EE41EE67ED7CE5C7010E94B820A4
:100F3000B0CF043F2CE5120708F046C1083D3CE560
:100F4000130731F407E225EE45EE68ED7CE5EDCFC1
:100F5000093D9CE5190701F708E221E045EE69ED3E
:100F60007CE5E3CF882309F464C11092D5020330F5
:100F70009DE5190758F40A3FECE51E0760F4C80127
:100F800082509C45449708F03EC105C00136FDE5FE
:100F90001F0709F038C10E942C1C9093EE0180932A
:100FA000ED0100312CE5120709F4CAC008F041C078
:100FB00008308CE5180709F4A4C0F0F40430ECE51F
:100FC0001E0709F48CC068F402302CE5120709F4FE
:100FD00082C003301C4509F0E7C08091ED018260BA
:100FE000E1C006308CE5180709F483C008F085C01D
:100FF0008091ED018860D6C00C30ECE51E0709F445
:1010000090C068F40A302CE5120709F47EC008F09D
:1010100084C00E94C72A8091ED018068C3C00E3051
:101020008CE5180709F481C008F086C08091ED01B5
:1010300094C00C3FECE51E0709F47BC038F5043181
:101040002CE5120709F49AC058F402318CE5180710
:1010500009F47AC008F07EC08091ED018F7BA2C0B8
:101060000A3FECE51E07F1F108F03FC005311C45D1
:1010700009F09AC08091ED0182FB222720F991E0CE
:10108000922790FB82F990FB83F98CC001153DE516
:10109000130709F467C050F48091EE010E3F9CE500
:1010A0001907C1F108F05BC08D7F65C00230FDE516
:1010B0001F0709F471C008F46DC001361D4509F021
:1010C00073C08091ED0184FB222720F991E09227E3
:1010D00090FB84F967C08091ED01816063C08091CD
:1010E000ED0116C08091EE0116C08091EE01826084
:1010F00042C08091ED01806155C08091ED01806218
:1011000051C08091ED0180644DC08091ED018860F7
:10111000846048C0826081602EC08091ED018E7F26
:1011200041C08091ED018D7F3DC08091ED01877FB1
:1011300039C08091EE0114C08091ED018F7E32C0E4
:101140008091ED018F7D2EC00E94C72A8091ED0114
:101150008F7728C08091ED01877F8B7F23C08D7FA3
:101160008E7F09C08091EE01982F909591708E7FAF
:10117000892B90FB81F98093EE0116C00E94C72A4B
:101180008091ED0187FB222720F991E0922790FBC7
:1011900087F908C061E001C060E08EE090E00E9445
:1011A000892C02C08093ED016091ED011091EE0158
:1011B00084E090E00E94892C612F82E290E00E94FE
:1011C000892C0E94C72A65CE053FFCE51F0731F434
:1011D00006E221EE42EE65EF7CE5A7CE053F2CE569
:1011E000120730F407E225EE44EE64EF7CE59DCE75
:1011F000063F3CE5130709F0B5CE07E225EE46EEC3
:1012000066EF7CE592CE80917D0206319CE5190760
:1012100009F58A7A91E009F490E090939C01882383
:1012200011F065E301C069E282E292E00E944B2086
:101230000EC006311C4509F026C180919C0188230F
:1012400009F4E7C365E382E292E00E9423200E9452
:10125000B81C1FCE82720C3C9CE5190709F4C2C071
:1012600008F045C0063CFCE51F0709F4A7C0D8F408
:10127000033C3CE5130709F497C030F4023CECE56D
:101280001E0709F46CC0CEC0043CFCE51F0709F43E
:1012900090C0053C2CE5120709F0C4C04CEF56E2A3
:1012A00065E077E2A3C0093C3CE5130709F490C070
:1012B00078F4073CECE51E0709F485C0083CFCE522
:1012C0001F0709F0AFC040EF56E264EE76E28EC031
:1012D0000A3C2CE5120709F480C00B3C3CE51307DF
:1012E00009F0A0C045E455E266E575E27FC0013D26
:1012F0008CE5180709F486C0A0F40E3CECE51E0747
:1013000009F47AC008F475C00F3C2CE5120709F403
:1013100076C0003D3CE5130709F084C06EE089E02B
:1013200079C0043D8CE5180709F472C068F4023DE9
:10133000ECE51E0709F469C0033DFCE51F0709F051
:1013400071C061E088E16BC0053D2CE5120709F42E
:1013500064C00D353DE5130709F49BCD63C0809152
:10136000CA0280FF1BC08E7F8093CA026091CA02AE
:101370007091CB028091CC029091CD020E943325D6
:1013800010928A028FEF90E7E2E081509040E040B7
:10139000E1F700C000000E941B237BCD8160809399
:1013A000CA0261E086953BC049E457E262E577E214
:1013B0001DC042E557E269E477E218C045E057E214
:1013C0006CEF76E213C044EE56E260EF76E20EC0B8
:1013D0004CEC56E268ED76E209C048ED56E26CEC62
:1013E00076E204C046E555E265E475E20E94FF221C
:1013F00050CD61E081E013C065E082E00BC068E0A1
:1014000086E008C064E18FE005C067E185E102C0C5
:1014100062E289E10E94ED223CCD61E083E20E941C
:101420000E2737CD0A35FDE51F0741F150F40115B0
:101430003CE51307A9F00E3D1C4529F50E94481C08
:1014400028CD0B359DE51907D9F00C351D45D9F48C
:101450008091EE0182FB882780F991E0892711C0F5
:101460000E94C72AFFEF24E33CE0F15020403040C7
:10147000E1F700C000000E9406190BCD81E001C019
:1014800080E00E94FE1CF701828100811181882387
:1014900049F0C8010E94F629D82E682FC8010E9481
:1014A000512A04C0C8010E94252AD82EB8018D2DCA
:1014B0000E9495210E94921AB82E192F982EF7019A
:1014C0000281A580A2949FE0A92280917A02877070
:1014D00099F0002389F0812F807F803421F080E211
:1014E0008B0D883048F082E00E94181D80917A02AE
:1014F0008770DD24D3948111D12CC12EC2948FE04A
:10150000C8228C2D90E08C30910508F0C2C1FC01FE
:10151000EA5AFF4F0C94252D812F807F1F7088235E
:1015200011F01295107F0023B9F0112309F49DC129
:1015300080E28B0D883010F0911006C080917D0202
:10154000182B10937D0205C080917C02182B1093FC
:101550007C020E94B81C89C18B2D0E94F12A1123A4
:1015600009F497C180E28B0D1095883010F091102E
:1015700006C080917D02182310937D0205C08091E2
:101580007C02182310937C020E94B81C82C1812F18
:10159000807F1F70803211F01295107F8B2D992063
:1015A00021F0F1E09F1611F130C00023B1F0AA2024
:1015B00081F021E0A2120DC08091EE0182FD69C18F
:1015C00080917E02182B181709F463C110937E02D4
:1015D00060C180917E02812B10C0AA2021F031E0F1
:1015E000A31609F456C10E94B21C27C0002341F083
:1015F00085E08A1508F44DC1812F0E94E72A49C170
:1016000094E09A1508F445C118C0002349F0AA20B7
:1016100099F3F701858180FF28C18F708583ECCF16
:10162000AA2059F0893309F031C1FFEF27EE33E0EA
:10163000F15020403040E1F727C1812F0E94DC2A81
:1016400028C1812F86958695837019F0813061F0CD
:1016500020C1002321F08B2D912F937002C080E0D8
:1016600090E00E9496201DC1002321F08B2D912F28
:10167000937002C080E090E00E94802012C18B2D08
:10168000002319F00E947F2802C00E9486270E9432
:101690005C2707C1812F8370A9F50111FEC04B2D76
:1016A000429546954770440F440F8B2D8F7090E004
:1016B0009C01042E01C0220F0A94EAF7B4FE08C070
:1016C0008FE090E001C0880F4A95EAF7809501C04D
:1016D00080E0169516951370123069F088F4909199
:1016E0007F02113019F0822B892302C0922B892BA3
:1016F0000E94972AD2C0822B90917F028927F8CF2F
:10170000822BF6CF002319F0812F817001C08695BE
:10171000882309F4C2C04B2D429546954770440F6B
:10172000440F8B2D8F7090E09C01042E01C0220F7E
:101730000A94EAF7B4FE08C08FE090E001C0880F79
:101740004A95EAF7809501C080E0169516951370CA
:10175000123059F078F490912102113019F0822B57
:10176000892309C0922B892B06C0822B90912102DC
:10177000892701C0822B0E947C2A8FC01F70002302
:1017800039F0812F0E948C2A8B2D0E94E72A85C078
:101790008B2D0E94DC2A812F0E94802A7EC08B2DF7
:1017A00092EF991659F1991538F0E0EF9E1659F01D
:1017B000F1EF9F16F1F055C023EF921631F134EF9F
:1017C000931681F14EC0002379F084E08A1508F465
:1017D00060C01F7181E090E001C0880F1A95EAF7A0
:1017E0009091210289271BC095E09A1508F451C0F9
:1017F000F0CF002329F0812F8F7126C00023D9F369
:10180000812F8F710E94802A44C0002339F01F71FC
:1018100081E001C0880F1A95EAF701C080E00E94BC
:101820007C2A37C0002399F01F71812F0E948C2AD7
:101830008091EE0182FD07C0E8E01E9FC0011124E7
:10184000836080937A02812F0E948C2A22C081E0DB
:101850000E94181DF1E0FA15E0F482E00E94181DC4
:1018600018C0002331F0AA2031F28B2D0E94582B92
:1018700010C0AA2029F2893349F42FEF37EE83E014
:10188000215030408040E1F700C000008B2D0E94C5
:10189000F12A88EF8C0D843020F40E94AC200E9445
:1018A000F105DD2009F4B7C080917A0280FDB3C054
:1018B000F70112828595859585950E948C2AC7012E
:1018C0000E94FD0580917A028595859585952996DA
:1018D0000FB6F894DEBF0FBECDBFDF91CF911F9141
:1018E0000F91FF90EF90DF90CF90BF90AF909F90BF
:1018F0008F907F906F905F904F903F900C94802AD4
:10190000EE59FF4F0C94252D83E001C080E00E942A
:10191000A9228091CF020E947922BBCA8091CF0276
:10192000982F96959695969549F1915E990F990FF6
:10193000990F8770892B8093CF0214C09091CF02AA
:10194000892F8695869586958F5F8F7197708430E5
:1019500008F04BC0880F880F880F892B8093CF0227
:101960008091CF02887F91E009F490E08091CF02CE
:1019700090FB80F98093CF020E9479228091CF0260
:1019800086958695869523C02091CF02822F8695D5
:1019900086958695482F50E04330510554F48F5F6B
:1019A000982F990F990F990F822F8770892B809309
:1019B000CF028091CF028160DDCF8091CF0280FF86
:1019C00009C08E7F8093CF020E94792280E00E941E
:1019D0004D225FCA81608093CF02813019F489E083
:1019E0008093CF028091CF02C7CF9093CF02B8CF20
:1019F0008091CF0281FF03C00E947E224ACA0E94CA
:101A0000942247CA01319FE5190709F07BCA82E099
:101A10003CCA69E218CC29960FB6F894DEBF0FBE17
:101A2000CDBFDF91CF911F910F91FF90EF90DF908D
:101A3000CF90BF90AF909F908F907F906F905F906E
:101A40004F903F900895CF93DF93CDB7DEB7AA971D
:101A50000FB6F894DEBF0FBECDBF84B7877F84BFBB
:101A60000FB6F894A895809160008861809360001B
:101A7000109260000FBE90E080E80FB6F89480935B
:101A80006100909361000FBE85B7806885BF85B700
:101A9000806885BF8BE699E190939B0180939A01C2
:101AA0000E94C0160E94DF168091E200846080933D
:101AB000E2007894809117028823A1F01091E90048
:101AC0001F709091EC00892F817090FD80E8182B99
:101AD0001092E9008091E80083FD0E94AA131F7014
:101AE0001093E90082E084BD93E095BD9AEF97BD25
:101AF00080936E000E94CF21811102C00E94C021FC
:101B00000FE111E0F80181918F018F3F11F00E94E8
:101B1000B019F1E00B321F07A9F70BE211E0F80151
:101B200081918F018F3F11F00E94B019F1E00433D1
:101B30001F07A9F7EDE9F1E0A1EDB1E011921192D3
:101B40001D921D9221E0E53BF207C1F70E943D1C6A
:101B5000811102C00E94481C82E090E00E94752C16
:101B60008093DE020E942C1C9093EE018093ED0185
:101B70000E94C7198FE39CE90197F1F700C00000AC
:101B80000E94C7198091D10180FF08C06FEF7FEFDD
:101B900080E090E00E94A72C0E94061983E090E06C
:101BA0000E94752C0E94972A6E9A769A229A2A9AF7
:101BB000279A2F988AE08093800089E180938100A2
:101BC0008FEF9FEF90938700809386000E94C22240
:101BD0008091CF0281FF0BC01092D2021092D102ED
:101BE0001092D00280916F00816080936F000E94FC
:101BF000C2228091B501811133C00E943D1C811128
:101C000004C00E94481C0E94672588E090E00E9462
:101C10007D2C6093CA027093CB028093CC02909388
:101C2000CD026E7F71F40E94672588E090E00E94EB
:101C30007D2C6093CA027093CB028093CC02909368
:101C4000CD020E94192510928A028091CA0280FF5B
:101C500004C060E086950E940E2781E08093B50164
:101C600080E091E09093D9028093D80278E1C72E6A
:101C7000D12CE0E45E2EBB24B394AA24A3948E015D
:101C80000F5F1F4F80911702853009F07DC050E132
:101C9000E52E62E1F62E80911702853009F05BC0D7
:101CA00080911702843009F443C080E00E944D22E5
:101CB00080E00E94F10510928A028091B7018111A3
:101CC00016C0A092B7018091CA02982F917090938C
:101CD000B6018E7F8093CA029FEFE0E7F2E0915059
:101CE000E040F040E1F700C000000E941B2310928A
:101CF000DC020FB6F894A895C09260000FBE509217
:101D0000600083B7817F846083BF83B7816083BFB6
:101D10007894889583B78E7F83BF0FB6F894A89583
:101D200080916000886180936000109260000FBE17
:101D300080911602882309F4AECF0E94C719E1ED05
:101D4000F1E081919191892B09F020C421E0E93ED5
:101D5000F207B9F7A0CF0E94C72A0E94C2220E94B0
:101D6000AC200E94F1051092B7018091B601882342
:101D700049F08091CA0281608093CA0260E0869532
:101D80000E940E270E9405230E94C719882359F03C
:101D90008FB7F8944091E9015091EA016091EB010D
:101DA0007091EC018FBFA9EBB1E0E1EDF1E0E12C26
:101DB000F12C7E2D219131918D919D918227932738
:101DC000009779F160E088248394912CAC0148213C
:101DD0005921452B09F169A37AA32821392181E0F2
:101DE000232B09F480E08BA30E945F198160782F78
:101DF0009DA38CA349A15AA16BA18DA10E94490565
:101E0000F701EE0FFF1FE754FE4F80819181882676
:101E10009926918280821CC06F5F880C991C693062
:101E2000A9F63FEFE31AF30A4CE0E416F10409F6D1
:101E30008FEF8EA38FA318A60E945F198160782F61
:101E40009AA789A74EA15FA168A58AA50E94490506
:101E500080918A02882309F498C080918902E091D8
:101E6000CA02E695E81BE0938502823059F4F0E05F
:101E7000EC59FD4FE491EE2EF12C86EE882E8FE189
:101E8000982E5EC0863059F4F0E0EF59FD4FE49192
:101E9000EE2EF12CB6ED8B2EBFE19B2E51C089307A
:101EA00061F4E695F0E0E25AFD4FE491EE2EF12C5C
:101EB000ABED8A2EA4E29A2E43C08F3061F4E695F2
:101EC000F0E0E55AFD4FE491EE2EF12CFBE68F2E6B
:101ED000F4E29F2E35C0853159F4F0E0E85AFD4F09
:101EE000E491EE2EF12CEAE18E2EE4E29E2E28C043
:101EF0008831B1F0833249F4E6E5F2E0E590F49000
:101F000076E9872E7FE1972E1BC0843289F050ED51
:101F1000E52E57E0F52E65E9862E6FE1962E10C06E
:101F200038E2E32EF12C4EE8842E43E2942E08C0D2
:101F300094EFE92EFF24F39421E5822E23E2922EE2
:101F400080918602882361F0109286020E945F19B8
:101F500090938402809383021092880210928702E9
:101F60000E945F19E0918302F09184028E1B9F0B07
:101F70008F3F9F4750F4EE0EFF1EF0928402E092D6
:101F8000830283E892E0F401099586E0E9EEF2E04D
:101F9000D80101900D928A95E1F78090EB02909024
:101FA000EC02E090ED02F090EE021092EB02109243
:101FB000EC021092ED021092EE02811003C0992003
:101FC00009F45BC08091E7029091E8020E945019E9
:101FD000AC019091E302992339F02091190130E08E
:101FE0002417350758F049C020911A01FAE02F9FB5
:101FF000900111242417350718F03FC09F3F19F0B6
:102000009F5F9093E302882061F00E9436281814A5
:1020100014F491E001C09FEF899F802D11248093DB
:10202000EB02992061F00E943628191414F491E013
:1020300001C09FEF899F802D11248093EC02309185
:10204000EB023323D1F02091EC022223B1F045EBD7
:102050003403C0011124992319F09093EB0202C0BC
:10206000B092EB0235EB2303C0011124992319F040
:102070009093EC0202C0B092EC02E11003C0FF208A
:1020800009F44FC08091E5029091E6020E94501938
:102090009C019091E202992309F497C225363105FB
:1020A00008F43FC09F3F19F09F5F9093E202EE203B
:1020B00061F00E94FD271E1414F491E001C09FEF0F
:1020C000899F802D11248093ED02FF2061F00E94F2
:1020D000FD271F1414F491E001C09FEF899F802D0C
:1020E00011248093EE023091ED023323D1F0209140
:1020F000EE022223B1F045EB3403C00111249923F1
:1021000019F09093ED0202C0B092ED0235EB23037B
:10211000C0011124992319F09093EE0202C0B092ED
:10212000EE028091EB0281110BC08091EC028111D3
:1021300007C08091ED02811103C08091EE028111F0
:102140000E945C278B829C82ED82FE8286E0F801F1
:10215000A9EEB2E001900D928A95E1F70E94AC20C1
:102160009091B801891731F00E94AC208093B8019A
:102170000E94F10580911702843009F083CD83E03D
:102180008093E9008091E80082FF7CCD8091E80097
:1021900085FF21C00E94151881111BC080E2E82E26
:1021A000F12C480109C08091F100F40181934F01A5
:1021B000F1E0EF1AF10869F08091E80085FDF3CFB6
:1021C0008091E8008B778093E8000E94151888239F
:1021D00099F391E001C090E08091E8008B778093C3
:1021E000E800992309F44ECDE9818E2F90E0FC019F
:1021F0003197E331F10508F09FC1E759FF4F0C9487
:10220000252D1A8289E0F4C08A81823009F4D4C174
:10221000833089F0813009F08FC12FB7F894809115
:10222000E9019091EA01A091EB01B091EC012FBF7F
:10223000BB83AC8323C0F801CE014996A1EDB1E088
:102240002C9111963C9111971296328323833296EA
:102250008E179F07A9F772C18A81823009F06CC17D
:102260006B817C818D819E810E942B2D86E290E086
:1022700024C04C816B818A810E946F219D83A3C100
:102280008D809E809824892498248C81EB809A816B
:1022900022E1E29E7001112438ED939FE00CF11CC5
:1022A0001124E80EF11CE80EF11C692DC701879678
:1022B0000E94892C682DC70188960E94892C3EC1F6
:1022C0000E943B213BC18A81893019F08A3071F02C
:1022D00015C08B8143E0849FC00111246FEF70E033
:1022E0000E94DB2C862F0E94A92208C08B818111BD
:1022F00003C00E947E2202C00E9494228A818138FB
:10230000B1F050F4803809F019C120E04B816091A0
:10231000CC028091CB0231C0823859F1833809F068
:102320000DC120E04091CD026C818B8126C060E020
:102330008B810E940E279B818091CA02911111C04E
:102340008E7F8093CA0210928A028FEF90E7E2E0BC
:1023500081509040E040E1F700C000000E941B2344
:10236000EDC081608093CA0260E086950E940E27CE
:10237000E5C08B818093CE02E1C00E942A26DEC098
:102380008A81893039F08A30A1F48091CF02869514
:1023900081702EC08091CF02869586958695FFEF3D
:1023A0008F9FC001112463E070E00E94DB2C6B83DF
:1023B000C5C0813899F030F4803809F0BFC08091F1
:1023C000CD0216C0823891F0833809F0B7C08091F1
:1023D000CB028B838091CC028C83B0C08091CA02E7
:1023E00080FF02C0869504C080E002C08091CE02CA
:1023F0008B83A4C08091CF020E9479226091CA028F
:102400007091CB028091CC029091CD020E94332535
:1024100095C080E14CC01A8289E7EACFEA80FB8050
:10242000FE24EF24FE248C80912C3801C7018957AB
:102430009C4F9301201B310B2815390508F07EC0F5
:1024400029E7E216F10428F40E94752CF301848335
:1024500002C0F3011482FFEFEF1AFF0A2FEF621A96
:10246000720AE4CFEA80FB80FE24EF24FE248C80F5
:10247000912C3801C70189579C4F9301201B310BC8
:102480002815390508F05AC039E7E316F10420F49D
:10249000F30164810E94892CFFEFEF1AFF0A2FEFEE
:1024A000621A720AE7CF0E942B2148C084E08A8317
:1024B00045C0EA80FB80FE24EF24FE248C80912C12
:1024C0003801C70187969301201B310B2815390568
:1024D000A8F530E6E31633E0F30628F40E94752CE5
:1024E000F301848302C0F3011482FFEFEF1AFF0AA5
:1024F0002FEF621A720AE5CFEA80FB80FE24EF24F8
:10250000FE248C80912C3801C70187969301201BF3
:10251000310B2815390590F430E6E31633E0F30665
:1025200020F4F30164810E94892CFFEFEF1AFF0A67
:102530002FEF621A720AE8CF8FEF8983809117021A
:10254000843009F09FCB8091E9008F702091EC00DE
:10255000922F917020FD90E8F92EF82A82E0809366
:10256000E9008091E80080FF0CC040E050E060E2AC
:1025700070E0C8010E9448188091E8008E7780932F
:10258000E8008F2D8F708093E9007CCBE9BCF9BC0B
:1025900009B400FEFDCF8091D8008F7D8093D800D4
:1025A0008091E00082608093E0008091E00081FDF6
:1025B000FCCF0E94C72A6FCB86E290E00E94752C68
:1025C0001B821C821D828E83B9CF2D32314008F0D0
:1025D0006BCDA7CD8091190287FF11C08091E800D3
:1025E00082FD05C0809117028111F8CF11C0809142
:1025F000E8008B770BC080911702882349F0809107
:10260000E80080FFF8CF8091E8008E778093E800A3
:102610000895982F973068F59093E900981739F04E
:102620007091EC002091ED005091F00003C0242F38
:10263000762F50E021FD02C09F5FECCF3091EB0080
:102640003E7F3093EB003091ED003D7F3093ED0005
:102650003091EB0031603093EB007093EC002093ED
:10266000ED005093F0002091EE0027FDE5CF80E0D3
:1026700008958F708093E90081E0089520911F02F2
:10268000309120022617370748F06115710539F49B
:102690002091E8002E772093E80001C0B901FC01E9
:1026A00020E06115710579F1809117028823F1F11D
:1026B0008530F1F18091E80083FD3CC08091E80015
:1026C00082FD2EC08091E80080FFEBCF2091F300C7
:1026D0008091F20090E0922B6115710551F08830E5
:1026E000910538F421912093F10061507109019610
:1026F000F3CF21E0089709F020E08091E8008E7781
:102700008093E800CECF2111CFCF0AC0809117026D
:10271000882361F0853061F08091E80083FD0AC074
:102720008091E80082FFF2CF80E0089582E0089572
:1027300083E0089581E008958091F40108958091E7
:102740002102982F9670963011F4886001C0877F1F
:102750000C947C2A1F93CF93DF93CDB7DEB7AA9753
:102760000FB6F894DEBF0FBECDBFE9E1F2E0809175
:10277000F100819342E0E132F407C9F780911A0237
:10278000833009F462C030F4813071F0823009F492
:102790009CC0B3C08A3009F488C08B3009F46DC086
:1027A000893009F0AAC020C080911902813A09F04D
:1027B000A4C08091E800877F8093E80080911D028B
:1027C00090911E02892B21F460E285EF91E003C015
:1027D00060E080E090E070E00E943E138091E800AD
:1027E0008B778093E80089C080911902813209F0CB
:1027F00084C080911D0290911E02009719F00297EB
:1028000009F07BC08091E800877F8093E800809189
:10281000E80082FD05C0809117028111F8CF6DC0DC
:102820002091F3008091F20090E0922B029729F41E
:102830008091F1008B7F813021F48091F1008093B1
:10284000F4018091E8008B7754C080911902813A9D
:1028500009F053C080911D0290911E02892B09F04E
:102860004CC08091E800877F8093E8008091E80069
:1028700080FFFCCF80910A0137C08091190281321C
:10288000E1F580911D0290911E02892BB1F5809196
:10289000E800877F8093E8000E94EA1280911B0283
:1028A00080930A010E94C72A28C0809119028132B0
:1028B00021F58091E800877F8093E8000E94EA126A
:1028C00080911C028093F30118C080911902813A13
:1028D000A1F48091E800877F8093E8008091E80070
:1028E00080FFFCCF8091F3018093F1008091E8009C
:1028F0008E778093E8000E94EA128091E80083FFBF
:10290000DDC18091190290911A02492F50E04A309E
:10291000510508F0D3C1FA01E458FF4F0C94252D5E
:10292000803821F0823809F0C9C108C080911502B1
:1029300090911602992389F082600FC080911D0248
:102940008F70873008F0BAC18093E9008091EB0066
:1029500085FB882780F91092E9009091E800977F25
:102960009093E8008093F1001092F10070C1282F3D
:102970002D7F09F0A3C1882319F0823061F09EC138
:1029800080911B02813009F099C1933009F080E0F9
:10299000809316022EC080911B0281112AC0809163
:1029A0001D028F702FEF280F263008F087C180930B
:1029B000E9002091EB0020FF1CC0933021F48091AE
:1029C000EB00806214C09091EB0090619093EB005B
:1029D00021E030E0A90102C0440F551F8A95E2F7BB
:1029E0004093EA001092EA008091EB0088608093A7
:1029F000EB001092E9008091E800877F8093E80067
:102A00000E94EA125BC1811159C110911B021F770C
:102A10008091E3008078812B8093E3008091E8002F
:102A2000877F8093E8000E94EA128091E80080FF8F
:102A3000FCCF8091E30080688093E300111102C015
:102A400082E001C083E08093170238C18058823051
:102A500008F034C120911B0230911C022C3D53E040
:102A6000350779F583E08A838AE289834FB7F89442
:102A7000DE01139620E03EE051E2E32FF0E05093B8
:102A80005700E49120FF03C0E295EF703F5FEF70C5
:102A90008E2F90E0EA3010F0C79601C0C0968D935B
:102AA0009D932F5F243149F74FBF8091E800877FC6
:102AB0008093E8006AE270E0CE0101960E943E1326
:102AC000B4C080911D0290911E02432F55274330C0
:102AD0005105A9F068F44130510509F4FEC04230B7
:102AE000510509F0EBC08BE590E0E0E8F3E04BC066
:102AF0004132510529F14232510589F1DFC0C90146
:102B0000992781309105A1F058F0029709F0D6C0BD
:102B1000EDEEF3E0E4918E2F90E0EDEEF3E030C0C7
:102B2000E7E1F4E0E4918E2F90E0E7E1F4E028C0E3
:102B3000E5E0F4E0E4918E2F90E0E5E0F4E020C0E1
:102B40008330910508F0BAC0880F991FFC01E35C3F
:102B5000FE4F0190F081E02D89E090E014C08330B9
:102B6000910508F0ABC0FC01EE0FFF1FE95CFE4FC2
:102B70000190F081E02DDC01AC5CBE4F8C9190E0C7
:102B8000009709F49BC02091E800277F2093E8007C
:102B900020911F02309120022817390708F4C9013B
:102BA00040E0009789F120911702222309F43DC0EB
:102BB0002530D9F12091E80023FD37C02091E800AD
:102BC00022FD2FC02091E80020FFEBCF4091F300C1
:102BD0002091F20030E0342B009759F02830310575
:102BE00040F444914093F100319601972F5F3F4F9D
:102BF000F3CF41E02830310509F040E02091E800B2
:102C00002E772093E800CDCF4111CDCF0AC080911F
:102C10001702882351F0853041F08091E80083FD50
:102C200004C08091E80082FFF2CF8091E8008B77AA
:102C30008093E80043C0803809F040C08091E800EC
:102C4000877F8093E800809118028093F100809143
:102C5000E8008E77D3CE811131C080911B02909114
:102C60001C029927029754F58091E800877F809392
:102C7000E80010911B02109318020E94EA12111131
:102C800006C08091E30087FD02C081E001C084E0BE
:102C90008093170242E061EC81E00E94091342E256
:102CA00061EC84E00E94091342E261EC82E00E9440
:102CB000091342E260EC83E00E9409138091E8006E
:102CC00083FF10C08091E800877F8093E8008091A7
:102CD000EB0080628093EB0005C082E190E0EBEDB9
:102CE000F3E051CFAA960FB6F894DEBF0FBECDBF6A
:102CF000DF91CF911F9108951F920F920FB60F92FF
:102D000011242F933F934F935F936F937F938F93F0
:102D10009F93AF93BF93CF93DF93EF93FF93C091B4
:102D2000E900CF708091EC00D82FD17080FDD0E801
:102D30001092E9008091F000877F8093F0007894F2
:102D40000E94AA131092E9008091F000886080939D
:102D5000F000CD2BCF70C093E900FF91EF91DF9190
:102D6000CF91BF91AF919F918F917F916F915F9123
:102D70004F913F912F910F900FBE0F901F9018957C
:102D8000E8EDF0E080818E7F80831092E200109267
:102D9000DA001092E100A0EEB0E08C9181608C939B
:102DA00080818F77808319BCA7EDB0E08C918E7FF6
:102DB0008C9380818F7E80831092F2010895CF9250
:102DC000DF92EF92FF920F931F93CF93DF93C8EDA3
:102DD000D0E088818F7E8883E7EDF0E0808181609C
:102DE000808384E082BF81E08093F20188818E7FBE
:102DF000888302EE10E0F80110821092DA0081EE72
:102E0000C82ED12CF601108288818F778883888123
:102E10008068888388818F7D888319BC109217020F
:102E200010921802109216021092150290EEE92EDE
:102E3000F12CF70180818B7F80838881816088837A
:102E400042E060E080E00E940913F60180818E7FFD
:102E50008083F801808181608083808188608083A5
:102E6000F70180818E7F8083888180618883DF91F4
:102E7000CF911F910F91FF90EF90DF90CF90089529
:102E80001F920F920FB60F9211242F933F934F93DF
:102E90005F936F937F938F939F93AF93BF93EF93C2
:102EA000FF938091E10082FF09C08091E20082FFE0
:102EB00005C08091E1008B7F8093E1008091DA0072
:102EC00080FF2AC08091D80080FF26C08091DA0060
:102ED0008E7F8093DA008091D90080FF18C080E156
:102EE00089BD82E189BD09B400FEFDCF81E08093F8
:102EF00017028091F20181110FC00E94C0160E943A
:102F0000DF168091E20084608093E20005C019BC66
:102F1000109217021092F2018091E10080FF17C019
:102F20008091E20080FF13C08091E2008E7F809349
:102F3000E2008091E20080618093E2008091D800FD
:102F400080628093D80019BC85E08093170280913D
:102F5000E10084FF2EC08091E20084FF2AC080E15E
:102F600089BD82E189BD09B400FEFDCF8091D80002
:102F70008F7D8093D8008091E1008F7E8093E10067
:102F80008091E2008F7E8093E2008091E200816078
:102F90008093E20080911802882311F084E007C03A
:102FA0008091E30087FD02C081E001C083E080934F
:102FB00017028091E10083FF27C08091E20083FF28
:102FC00023C08091E100877F8093E10082E08093BD
:102FD0001702109218028091E1008E7F8093E10029
:102FE0008091E2008E7F8093E2008091E200806118
:102FF0008093E20042E060E080E00E94091380914B
:10300000F00088608093F000FF91EF91BF91AF9145
:103010009F918F917F916F915F914F913F912F91F0
:103020000F900FBE0F901F9018952091E4003091E3
:10303000E50095E64091EC00842F817040FF23C0AD
:103040008091E80080FD1DC080911702882399F0CF
:10305000853099F08091EB0085FD11C04091E4002E
:103060005091E5002417350729F3915011F09A018A
:10307000E1CF84E0089582E0089583E0089581E03F
:10308000089580E008954091E80042FFDDCF089563
:10309000EF92FF920F931F93CF93DF937C018B01ED
:1030A0000E941518811119C0E70101151105A1F041
:1030B0008091E80085FD0AC08091E8008E778093BA
:1030C000E8000E941518882381F307C08991809336
:1030D000F10001501109E9CF80E0DF91CF911F91FC
:1030E0000F91FF90EF90089590911702943029F579
:1030F0008093EF017093F1016093F0019093E900E8
:103100008FEF9091E800815095FD06C095ED9A955E
:10311000F1F700008111F5CF8091E80085FF0DC027
:1031200040E050E063E070E08FEE91E00E944818CC
:103130008091E8008E778093E8000895BC0184E0D8
:103140000C947418BC0183E00C94741824E0209350
:10315000E9002FEF3091E800215035FD06C035ED34
:103160003A95F1F700002111F5CF2091E80025FFF5
:103170000BC040E050E066E070E00E94481880918B
:10318000E8008E778093E8000895CF93DF93209135
:103190000A01222339F02091ED0127FF03C060E2EC
:1031A00024E002C068E021E02093E9002FEF309195
:1031B000E800215035FD06C035ED3A95F1F70000E5
:1031C0002111F5CF2091E80025FF1DC0EC01809171
:1031D0000A01811105C040E050E068E070E003C0E2
:1031E00070E040E050E0CE010E9448188091E80075
:1031F0008E778093E80080E2FE01A5EFB1E00190B8
:103200000D928A95E1F7DF91CF91089581E0809347
:10321000E00080E28093D8001092C9008FE19EE424
:103220000197F1F700C0000087E090EBDC0180938C
:10323000190390931A03A0931B03B0931C039CE003
:1032400088E10FB6F894A895809360000FBE909324
:103250006000FFCF78941F920F920FB60F92112447
:103260008F939F93AF93BF938091E9019091EA016F
:10327000A091EB01B091EC010196A11DB11D8093CD
:10328000E9019093EA01A093EB01B093EC01BF91A7
:10329000AF919F918F910F900FBE0F901F90189537
:1032A0009C014FB7F8948091E9019091EA01A091B7
:1032B000EB01B091EC014FBF821B930B08952FB728
:1032C000F8948091E9019091EA01A091EB01B0910D
:1032D000EC012FBF089580E008959091ED0192FFD9
:1032E0000DC0282F2871283019F4877F846006C00C
:1032F000282F2471243011F48B7F886093FF0DC038
:10330000282F2871283119F4877E846106C0282F60
:103310002471243111F48B7E88612091EE0120FF0D
:103320000DC0382F3871383019F4877F816006C09E
:10333000382F3171313011F48E7F886021FF0DC03C
:10334000282F2871283119F4877E816106C0282F23
:103350002171213111F48E7E886194FD877E08955C
:10336000F894E82FE295EF70F0E031A1282F2F704C
:1033700081E090E001C0880F2A95EAF7982F909598
:10338000932391A392A1892B82A3789408958F927D
:103390009F92AF92BF92CF92DF92EF92FF920F93E4
:1033A0001F93CF93DF93CDB7DEB768970FB6F8942E
:1033B000DEBF0FBECDBFAE014F5F5F4F7A0188E128
:1033C000DA011D928A95E9F70FE111E06A01AA245A
:1033D000A394B12CF80180818F3F09F44DC0F8947B
:1033E000E82FE295EF70F0E021A18F70A50102C0F7
:1033F000440F551F8A95E2F7CA01922F982B91A38B
:1034000092A18095892382A3789400C0EBE2F1E039
:1034100020E030E0812C912C81918F3FC1F0A82FCA
:10342000A295AF70B0E090964C9150E08F70DA01A9
:1034300002C0B595A7958A95E2F7A0FD08C0C50121
:10344000022E02C0880F991F0A94E2F702C080E0A2
:1034500090E0882A992A2F5F3F4F29303105E1F605
:10346000F80180818F3F11F00E94B019F0EAFA95BF
:10347000F1F7D6018D929C920F5F1F4FB2E0CB0EF9
:10348000D11CE1E00B321E0709F0A4CF48E150E067
:10349000B7018DE991E00E947C2D11E0009709F4BD
:1034A00010E0892B89F088E1F701ADE9B1E00190E6
:1034B0000D928A95E1F781E0809382020E945F1964
:1034C0009093810280938002809182028823B1F0E0
:1034D00080918002909181020E945019059770F0AE
:1034E000EDE9F1E0A1EDB1E0819191918D939D9392
:1034F00041E0E53BF407C1F710928202812F689604
:103500000FB6F894DEBF0FBECDBFDF91CF911F91F4
:103510000F91FF90EF90DF90CF90BF90AF909F9072
:103520008F900895CF93DF938238910569F1B0F4BD
:103530008133910509F46FC048F48932910509F48B
:1035400065C08A32910509F46BC08AC08533910544
:1035500009F457C089339105B9F082C0833E9105C3
:1035600071F138F4803E9105B1F0823E910511F180
:1035700077C0863E9105B9F1873E9105C9F1843E39
:10358000910509F06DC024C02091ED0120FD53C0CC
:1035900021FD51C065C08091ED0180FD46C0809144
:1035A000EE0180FF48C08091ED0184FD50C183EEA3
:1035B00090E04FC18091ED0182FF3AC0F4CF80913D
:1035C000ED0182FD35C08091EE0180FD34C0EBCF6E
:1035D0008091EE0181FF35C08091ED0184FD37C1FE
:1035E00087EE90E036C18091ED0183FF27C0F4CFD4
:1035F0008091ED0183FD22C08091EE0181FD21C00B
:10360000EBCF8091ED0185FD1FC021C08091ED01C0
:1036100085FD1DC019C08091ED0186FD1BC01DC038
:103620008091ED0186FD19C015C089E390E011C1BC
:1036300082EE90E00EC180EE90E00BC186EE90E04D
:1036400008C184EE90E005C189E290E002C185E303
:1036500090E0FFC08AE290E0FCC081E390E0F9C016
:10366000811531E5930708F069C0811540E594079D
:10367000F0F09C0174E0369527957A95E1F7922F4A
:103680009370482F437021E030E002C0220F331FB7
:103690004A95E2F73C68392B982F9F70969596953E
:1036A00040E2949FC0011124822B932BD2C0883E0C
:1036B000910568F5803E910508F0CBC0883A9105E8
:1036C000B8F4853A910548F0855AE82FF0E0ED5BB3
:1036D000FE4F808190E09064BCC08130910509F478
:1036E000B3C008F4B4C08430910508F4B0C0B1C0D0
:1036F0008F3B910508F0ABC0885AE82FF0E0EE0F41
:10370000FF1FEA5BFE4F808191819464A2C0811506
:1037100020E2920758F4811531E0930708F099C030
:10372000803F910508F493C0906593C0811540E4F3
:10373000940708F48CC09F70906A8BC0811525E5B2
:10374000920708F042C0811534E5930728F0982FBE
:103750008827846F906A7DC0811543E59407B0F097
:103760009C012370332741E050E002C0440F551FF5
:103770002A95E2F7282F2695269580E2289F90012A
:103780001124CA01822B932B9A6863C0811522E50C
:10379000920728F4982F8827816F906A5AC09C015D
:1037A0002370332741E050E002C0440F551F2A9593
:1037B000E2F7282F2695269580E2289F9001112474
:1037C000CA01822B932B9C6844C0EC01811539E51A
:1037D0009307A8F48115984528F09C2F8827806FBF
:1037E000906A37C0C11586E5D80788F58C2F0E94EE
:1037F0006D198F7190E0982F882790622AC08115EB
:103800002AE5920790F48C2F8F700E946D1994E036
:10381000D695C7959A95E1F7CF70D0E0DC2FCC27ED
:10382000D0699E01282BC90114C090568115904281
:1038300070F48D2F8F710E946D19282F2F71CE017A
:1038400099279062922B05C081E090E002C080E051
:1038500090E0DF91CF910895CF9384E090E00E94B3
:10386000752CC82F82E290E00E94752C2C2F30E03E
:10387000A901582BCA01CF91089580E090E00E94E1
:10388000832C893E9E4F11F40C94CF2180E0089543
:1038900069EE7EEF80E090E00E94A72C60E082E07D
:1038A00090E00E94892C60E083E090E00E94892CE7
:1038B00010927F0260E084E090E00E94892C60E03A
:1038C00082E290E00E94892C60E085E090E00E9416
:1038D000892C60E086E090E00E94892C6FEF87E001
:1038E00090E00E94892C40E050E0BA0188E090E02E
:1038F0000E949B2C60E08DE090E00E94892C40E0CB
:1039000050E0BA0188E190E00E949B2C60E087E1E2
:1039100090E00E94892C40E050E0BA018CE190E0F8
:103920000E949B2C60E070E080E290E00E94A72C57
:1039300040E050E0BA0188E190E00E949B2C80E0DA
:103940000E94A2210E94C02140E050E0BA018FE015
:1039500090E00E949B2C40E050E0BA0183E190E0AF
:103960000C949B2C80917E02811110927E0208950E
:1039700090917D0280917C02892B20917B02982F6F
:10398000922B9093220280917E028823D9F0892B7A
:103990008093220280910A01882331F08091ED0109
:1039A00087FF02C08EE101C086E0E4E2F2E090E031
:1039B000815028F021912223D9F39F5FF9CF9111F3
:1039C0000E94B21CE091D802F091D9023097A9F080
:1039D00080910A01882359F08091ED0187FF07C08B
:1039E000809122028093230285E08093220202804C
:1039F000F381E02D82E292E009940895CF93C09183
:103A0000EE01C2FB992790F9981781F080FBC2F96B
:103A1000C093EE016091ED0184E090E00E94892C5A
:103A20006C2F82E290E0CF910C94892CCF91089575
:103A300020917A028095822380937A02982F977042
:103A400041F430E0482F082E000C550B24173507A1
:103A500021F49091EE0192FF07C08595859585959B
:103A60000E94802A10927A020895809179029091A2
:103A70004802891719F08F5F8770FBCF08950F9365
:103A80001F93CF93DF938091470282958F7009F047
:103A90005DC080914402882309F458C08091790266
:103AA000109148026091420270914302C091450218
:103AB000D091460291E06F3F09F090E0292F06E097
:103AC000811709F443C0209721F07F3F21F030E0B7
:103AD00003C031E001C0322F90E030FD34C0089FB8
:103AE000F001099FF00D1124DF01A75BBD4F119676
:103AF0003C911197371327C03C91361324C012967E
:103B00003C91129731111FC013964D915C911497FF
:103B10004C1B5D0B483C5105B0F4809147028F70FF
:103B2000806180934702E25BFD4F80818F708061EE
:103B3000808382E492E00E94FD05DF91CF911F9186
:103B40000F910C94351D01968770BACFDF91CF91FC
:103B50001F910F910895CF93DF93EC010E94F629F6
:103B6000BE010E9495210E94921ADF91CF91089583
:103B70009F92AF92BF92CF92DF92EF92FF920F93FC
:103B80001F93CF93DF93CDB7DEB761970FB6F8944D
:103B9000DEBF0FBECDBF8C0185E0F801DE011D96B2
:103BA00001900D928A95E1F7F801E280909142022E
:103BB00060914302409145025091460241155105E2
:103BC00031F06F3F31F481E09F3F19F403C081E091
:103BD00001C080E0F82FF1709F2E80FD1AC1F8011E
:103BE00030812181C380D48082E4A82E82E0B82E67
:103BF000F0904402F601E41BF50BFF2009F4C6C067
:103C000080914702E83CF10508F091C0482F407FC1
:103C100009F050C0621311C093130FC0FE2CE110C5
:103C20000CC08F70806180934702C5010E94FD0522
:103C300080914702F801858329C1CD2831F02F3FBB
:103C400031F481E03F3F19F403C081E001C080E01E
:103C500080FD03C081E08E2502C080E090E0F82F57
:103C6000F170FF2E80FF1CC08091790240914802C4
:103C700056E0841709F4E8C090E0589FF001599F7E
:103C8000F00D1124E75BFD4F6181261306C06081B2
:103C9000631303C06281E61203C001968770E9CF07
:103CA000FE2CEE2009F4F2C08091470281608093DF
:103CB000470249C0621306C0931304C0E11002C05A
:103CC000F80186C0C8010E949B2A882351F1EE208A
:103CD00041F120914702822F82958F7090E00297E8
:103CE00074F0809142029091430298878F831986E5
:103CF000DB86CA862C87CE0107960E94FD0586E0EA
:103D0000F801A2E4B2E001900D928A95E1F70E94D9
:103D10003F1D0AC06217C9F0C8010E949B2A811189
:103D20001EC0C8010E94FD05FF24F394AFC0482FB8
:103D3000407F81F782E492E00E94FD0586E0F50174
:103D400011928A95E9F7F12CA1C09313E5CFE11008
:103D5000E3CFF8018583C8010E94FD0554C0EE2021
:103D600001F320914702822F82958F7090E0029795
:103D700034F280914202909143029A8389831B829C
:103D8000DD82CC822E83CE010196B7CFE83CF105CF
:103D9000D0F5FE2CEE2029F2621327C0931325C024
:103DA0002091470220FD18C0822F82958F70482FE6
:103DB00050E04115510581F0F80125834F30510540
:103DC00041F08F5F982F9295907F822F8F70892B73
:103DD0008583C8010E94FD0586E0F801A2E4B2E0F7
:103DE00001900D928A95E1F751C0C8010E949B2A6B
:103DF000811185CF80914702816080934702C8017D
:103E00000E94FD0543C086E0F50111928A95E9F70D
:103E10003DC0EE2009F485CFC8010E949B2AF82EF0
:103E2000882309F47ECF86E0F801A2E4B2E0019095
:103E30000D928A95E1F780914202909143020E948F
:103E4000AB1D0E943F1D22C03D872E878D859E851C
:103E50000E94AB1D292F22952F70223028F49F70CD
:103E600039F0811105C00BC0243028F49F7049F44B
:103E7000805E883020F0C8010E94FD059F2CF92C3F
:103E800005C0F8019581907F99F7F9CF8F2D619644
:103E90000FB6F894DEBF0FBECDBFDF91CF911F915B
:103EA0000F91FF90EF90DF90CF90BF90AF909F90D9
:103EB0000895CF92DF92EF92FF928C3724E1920720
:103EC00028F469E070E00E94DB2C29C0A0E0B0E09B
:103ED0008A50974DAF4FBF4F6627782F892F9A2F63
:103EE00025EF38E241E050E00E94032D69017A019C
:103EF000CA01B9010E94BD2C9B01AC01C701B601EA
:103F00000E94BD2CBB27A92F982F872F009721E057
:103F1000A207B10511F0BC0102C06FEF7FEFCB012A
:103F2000FF90EF90DF90CF90089508950F931F9327
:103F3000CF93DF9300D01F92CDB7DEB78C01809175
:103F40008D0281110AC09E012F5F3F4F48EC6FEF39
:103F50000E9477258A8180938D02F80184818130C7
:103F600051F028F0823061F440918D020AC08091B6
:103F70008D0240E007C060918D0240E080E003C008
:103F800040E080E060E00E940825F801848190E034
:103F9000019663E070E00E94EF2C84830F900F90F5
:103FA0000F90DF91CF911F910F910895CF93DF93E1
:103FB000EC01EAECF2E0438162818C810E940D26E3
:103FC0008C818F5F8C83DF91CF910895CF93DF93A6
:103FD000EC01EC81F0E0E55EFB4F4491EAECF2E0AD
:103FE000628181810E940D268C818F5F8C83DF919D
:103FF000CF9108951F920F920FB60F9211248F93B5
:104000009F93AF93BF938091DC02811113C0809185
:10401000E9019091EA01A091EB01B091EC01419688
:10402000A11DB11D8093E9019093EA01A093EB01DA
:10403000B093EC01BF91AF919F918F910F900FBE04
:104040000F901F90189520910A012223C9F020910A
:10405000ED0127FF15C0262F2695269526952E3192
:10406000C8F4FC01E20FF11D677081E090E001C02F
:10407000880F6A95EAF78095928189238283089553
:10408000FC0106962281621301C012823196E81764
:10409000F907C1F7089520910A012223C1F0209168
:1040A000ED0127FF14C0262F2695269526952E3143
:1040B00030F5FC01E20FF11D677081E090E001C076
:1040C000880F6A95EAF79281892B82830895FC0113
:1040D00032962FEF30E04191641789F02F3F19F4A9
:1040E000411101C0232F3F5F3630A9F72F3F39F030
:1040F000FC01E20FF11D27FDFA95628308950895F2
:104100002091DA023091DB022817390771F0909381
:10411000DB028093DA02E091D802F091D902309765
:1041200021F00084F185E02D099408952091D602B4
:104130003091D7022817390771F09093D7028093F6
:10414000D602E091D802F091D902309721F0068092
:10415000F781E02D09940895E091D802F091D902F9
:10416000309721F00190F081E02D099480E00895CE
:104170000F931F93CF93DF93C42FD22FFC01828123
:104180008823C9F04093D5020E945F199093D4020E
:104190008093D30280E28C0F883008F057C0C7703C
:1041A00081E001C0880FCA95EAF7DF91CF911F9196
:1041B0000F910C94E72A8091D502481330C080916A
:1041C000D3029091D4020E945019883C910538F591
:1041D00010E21D0FCD17B9F080E28C0F883040F44B
:1041E000C77081E001C0880FCA95EAF70E94DC2AF7
:1041F000183028F581E09D2F977001C0880F9A959F
:10420000EAF70E94E72A802F0E94572C1830F0F41A
:10421000D77081E001C0880FDA95EAF70AC080E222
:104220008C0F883098F4C77081E001C0880FCA9560
:10423000EAF7DF91CF911F910F910C94DC2A802F28
:10424000DF91CF911F910F910C94572CDF91CF915B
:104250001F910F910895CF93DF93C7E8D3E060E0FB
:10426000CE010E94892C2196C11584E0D807B9F7A8
:10427000DF91CF910895CF92DF92EF92FF920F934B
:104280001F93CF93DF93C0E0D0E08E0108521F4F01
:104290006E0182E1C80ED11CFE01E556FA4FE59091
:1042A000F4906F2DCE0187960E94892C6E2DCE0141
:1042B00088960E94892C2296CC15DD0569F70C178B
:1042C0001D0731F7E80100361340F9F6DF91CF9171
:1042D0001F910F91FF90EF90DF90CF9008950F9373
:1042E0001F93CF93DF93C42FD0E0CC0FDD1F22E1CB
:1042F000629FC00DD11D112438ED839FC00DD11DCB
:104300001124CE0187960E94752C082F10E0102FE3
:104310000027CE0188960E94752C9801282BC90190
:10432000DF91CF911F910F910895462F843038F47B
:104330007C3028F4693018F4672F0C946F2180E0EA
:1043400090E00895CF93C82F811102C06FEF01C094
:1043500061E283E290E00E94892CC11102C06FEFFC
:1043600001C061E184E290E00E94892CC11102C089
:104370006FEF01C066E285E290E0CF910C94892C4A
:1043800080E00E94A22160E086E290E00E94892CF9
:104390000E943B210E942B2181E00C94A22183E208
:1043A00090E00E94752C813281F484E290E00E94BA
:1043B000752C813151F485E290E00E94752C91E0DA
:1043C000863209F090E0892F01C080E08170089565
:1043D0001F920F920FB60F9211242F933F934F937A
:1043E0005F936F937F938F939F93AF93BF93EF935D
:1043F000FF938091D1029091D202019668EB75E013
:104400000E94DB2C9093D2028093D1026BE070E08B
:104410000E94DB2C6F778091D002823019F46034D7
:1044200051F404C0813039F46F3729F480916F0062
:104430008E7F80936F00E62FF0E0E55EFA4FE49107
:1044400021E031E0E29FC001E39F900D112463E081
:1044500070E00E94DB2C8091CF0286958695869530
:10446000282F269FC001279F900D11240E94591FBD
:1044700090938D0080938C00FF91EF91BF91AF914D
:104480009F918F917F916F915F914F913F912F916C
:104490000F900FBE0F901F901895843048F4811133
:1044A00008C090918000977F909380002F9806C05D
:1044B00083E090918000986090938000282F30E0F6
:1044C000AFEFBFEF0E943A2D23E030E040E050E034
:1044D0000E94032DB42FA32F922F8827892F9A2F64
:1044E000AB2FBB270E94591F90938D0080938C00A7
:1044F0000895682F86E090E00C94892C8091CF027B
:1045000081FF11C08D7F8093CF020E94792280911C
:104510006F008E7F80936F008091CF028695869585
:1045200086950C944D2208958091CF0281FD10C094
:1045300082608093CF020E9479221092D202109260
:10454000D1021092D00280916F00816080936F0041
:104550000895843008F083E09091CF029770282F5F
:10456000220F220F220F922B9093CF02987F21E0EF
:1045700009F420E09091CF0220FB90F99093CF02B4
:104580000C944D220E943D1C81110AC00E94481CBF
:104590008091CF02847089618093CF020E9479223A
:1045A00086E090E00E94752C8093CF02282F2695FC
:1045B0002695269530E02430310524F087708861F7
:1045C0008093CF028091CF0280FF04C086958695AC
:1045D000869501C080E00C944D229091CA0290FF14
:1045E00004C09695981740F003C0811105C090E073
:1045F000961710F40C94522761E00C940E27882330
:1046000011F0FA0101C0FB0109946091CA0266959C
:1046100070E04BE050E08BE091E00E946F2D892B21
:1046200019F481E080938A020E945F1990938402BA
:104630008093830208958091CA0280FF0AC0239A62
:1046400085B1877F95B198602FB7F894EEE8F2E0D6
:104650000BC0EEE8F2E0118210821282339632E053
:10466000EA3CF307C1F7EBCF32E0EA3CF30789F00D
:10467000319148E095B9000000C037FF85B9330F8C
:10468000000000C000C000C085B900C04A9591F785
:10469000EBCF2FBF8FE594E00197F1F700C000004A
:1046A0000895EF92FF920F931F93CF93DF938C01A6
:1046B000CEE8D2E0E12CF12CF8018481FAE0EF168B
:1046C000F1041CF4882351F002C0811107C040910D
:1046D000CD02493C08F048EC9E0102C09E0140E03A
:1046E0006091CC028091CB020E9477258FEFE81A6F
:1046F000F80A239694E1E916F104F1F60E941B23CF
:10470000F801848190E00196817099278483DF917C
:10471000CF911F910F91FF90EF9008958F929F92EC
:10472000AF92BF92CF92DF92EF92FF920F931F93BF
:10473000CF93DF93EC014C81042F10E09801D80156
:104740000E943A2D9B01AC010E94502D6B017C010F
:10475000E0E2F0E0E01BF10BA5E5B0E09B01AC016D
:104760000E94502D4B015C019F01DF010E94322D00
:104770009B01AC010E945B2D9B01AC012C0D3D1DEA
:104780004E1D5F1DC501B4010E94032D822FF22E24
:1047900099E2921728F093E0299F900111240DC00F
:1047A00025E530E0281B3109C901880F991F280F22
:1047B000391F37FF02C02F5F3F4F35952795122FC6
:1047C00010959EE8C92E92E0D92E00E085E5E82EEE
:1047D000EF1801FD02C08E2D01C08F2D412F193C15
:1047E00008F048EC96016091CC020E9477250F5F9B
:1047F00083E0C80ED11C043161F70E941B238C8119
:10480000811102C091E003C0803219F49FEF9093B0
:10481000180190911801890F8C83DF91CF911F911E
:104820000F91FF90EF90DF90CF90BF90AF909F904F
:104830008F9008950F931F93CF93DF93CEE8D2E02C
:10484000FE01118210821282339682E0EA3CF80760
:10485000C1F700E010E080918C02082E000C990B4B
:1048600008171907ACF080911701082E000C990B5E
:10487000801791076CF04091CD02493C08F048EC5C
:104880009E016091CC028091CB020E94772503C0EB
:10489000198218821A820F5F1F4F23960431110567
:1048A000D1F60E941B238091160190918C02980FE3
:1048B00090938C0220911701280F20931701121654
:1048C00014F493311CF0819580931601DF91CF9100
:1048D0001F910F910895BF92CF92DF92EF92FF92B6
:1048E0000F931F93CF93DF93FC01828180FF03C05E
:1048F000DD24DA9402C0DD24D3940EE812E0C0E097
:10490000D0E024E1B22EF80111821082128294E0EC
:10491000E92EF12CC12C80918B028C0D85312CF06D
:104920006B2D0E94CD2C892F02C087FD8C5E082E36
:10493000000C990BC817D907A9F48091CD028E9D60
:10494000A0018F9D500D112455954795559547957C
:10495000493C08F048EC98016091CC028091CB0270
:104960000E947725CD0CF1E0EF1AF108A1F621960F
:104970000D5F1F4FC431D10531F60E941B2380917A
:104980008B0291E0D91206C0811102C083E107C0F9
:10499000815005C090E00196BE010E94EF2C8093EB
:1049A0008B02DF91CF911F910F91FF90EF90DF90DD
:1049B000CF90BF900895EF92FF921F93CF93DF9314
:1049C000EC018EE8E82E82E0F82E10E04091CD0256
:1049D000493C08F048EC8C8197016091CC02810F32
:1049E0000E947725145F83E0E80EF11C103F71F7F9
:1049F0000E941B239A818C8190FF02C08F5F01C0AF
:104A000081508C83DF91CF911F91FF90EF9008959B
:104A10009091CA0290FF0CC0EEE8F2E081836083BF
:104A20004283339692E0EA3CF907C1F70C941B23CA
:104A300008958091CA02282F269530E0211531056E
:104A400019F48170826005C02532310524F081702F
:104A500088648093CA028091CD02893C18F088EC6A
:104A60008093CD020895CF92DF92EF92FF926B0177
:104A70007C010E941925B701A60188E090E0FF9013
:104A8000EF90DF90CF900C949B2C8091CE028823E6
:104A900019F081508093CE026091CA027091CB02CE
:104AA0008091CC029091CD020C9433258091CE025E
:104AB000833018F48F5F8093CE026091CA027091A8
:104AC000CB028091CC029091CD020C943325EAEC7C
:104AD000F2E083E0808311828FEF828388EC83830E
:104AE000148260817181828193810C943325AF920D
:104AF000BF92CF92DF92EF92FF920F931F93CF93CB
:104B0000DF93E82EF62EE901E42FF0E0611106C0F4
:104B1000E550F74FE4914E2F2E2F71C0062F10E075
:104B2000E550F74F4491F42FC42ED12C26E0829FFC
:104B3000C00111242FEF30E0B9010E94DB2C5BEAA9
:104B40005603C001579F900D11248E0D911D8E0D9F
:104B5000911D582F550F580FD901A01BB10BAC9DBB
:104B6000C001AD9D900DBC9D900D1124E92FF59EC7
:104B7000D0011124AB2FBB277901EA1AFB0AEC9C68
:104B8000D001ED9CB00DFC9CB00D11245901A51A6B
:104B9000B108A09E7001A19EF00CB09EF00C1124F3
:104BA000EF2CFF242E193F092C9D80012D9D100D07
:104BB0003C9D100D1124212F6230710591F048F4B5
:104BC00061157105E1F061307105B9F4242F4B2FA7
:104BD00016C06430710569F040F06630710579F0F7
:104BE0000CC0242F492FE12F0AC0492FEF2F2B2F64
:104BF00006C0292FE42F412F02C0292FEB2F498314
:104C00002883EA83DF91CF911F910F91FF90EF905E
:104C1000DF90CF90BF90AF900895CF93DF9300D0F7
:104C20001F92CDB7DEB79091CA0290FF0DC0493CEC
:104C300008F048EC9E012F5F3F4F0E9477254B8183
:104C400069818A810E9408250F900F900F90DF9153
:104C5000CF9108955F926F927F928F929F92AF92C1
:104C6000BF92CF92DF92EF92FF920F931F93CF9359
:104C7000DF9300D01F92CDB7DEB7082F762E142F0A
:104C8000622E9091CA0290FF74C0E92FE695AE2F74
:104C9000B0E0AC58BE4F8C91809389029E7F9230D9
:104CA00081F4493C08F048EC9E012F5F3F4F672D8F
:104CB000802F0E9477254B8169818A810E94082577
:104CC00046C0823019F41091CD0241C0863019F4EB
:104CD0000091CB023CC08930D9F38931C1F5E9514B
:104CE0008E2F8170582EE695F0E0E550F64FA59096
:104CF000B4908EE8C82E82E0D82EE12CF12CBB2493
:104D000094E1892E912CAE9CC001AF9C900DBE9C6D
:104D1000900D1124B4010E94DB2C802F511002C091
:104D2000860F01C0861B412F193C08F048EC960104
:104D3000672D0E9477258FEFE81AF80A83E0C80EE6
:104D4000D11C84E1E816F104F1F60E941B230093C4
:104D5000CB027092CC021093CD02662051F060918C
:104D6000CA027091CB028091CC029091CD020E9438
:104D700033250F900F900F90DF91CF911F910F91DE
:104D8000FF90EF90DF90CF90BF90AF909F908F906B
:104D90007F906F905F900895EAECF2E0438128E005
:104DA000421B08F440E021E0628181810C942A26B4
:104DB000EAECF2E0438128E0420F08F44FEF21E0F3
:104DC000628181810C942A26EAECF2E0628128E07B
:104DD000621B08F460E021E0438181810C942A2663
:104DE000EAECF2E0628128E0620F08F46FEF21E064
:104DF000438181810C942A26EAECF2E0818121E052
:104E00004381628188500C942A26EAECF2E0818189
:104E100021E043816281885F0C942A269091CA0226
:104E200090FF36C09170811102C0926006C0853239
:104E300010F0986402C0880F982B9093CA026623E2
:104E400051F06091CA027091CB028091CC02909196
:104E5000CD020E9433256091CA02669570E04BE056
:104E600050E08BE091E00E946F2D892B19F0109299
:104E70008A0202C00E94052381E08093860220E01E
:104E80004091CD026091CC028091CB020C942A26F5
:104E900008958091CA028695815009F484E261E008
:104EA0000C940E278091CA0286958F5F853208F098
:104EB00081E061E00C940E270E945F192091EB02C3
:104EC000211104C02091EC02222321F09093E802EA
:104ED0008093E7022091ED02211104C02091EE029F
:104EE000222321F09093E6028093E502E091D8021C
:104EF000F091D902309749F082E08093E902048072
:104F0000F581E02D89EE92E009940895803F39F40F
:104F10009091EC0297FF35C01092EC0259C0813F8E
:104F200029F49091EC021916BCF32BC09091EB027E
:104F3000823F29F497FF25C01092EB0249C0833FBE
:104F400019F41916CCF31DC09091ED02893F29F494
:104F50001916BCF41092ED023BC08A3F19F497FF7A
:104F600010C0F8CF8B3F39F49091EE0297FF09C043
:104F70001092EE022DC08C3F21F49091EE02191692
:104F8000BCF39CE0980F953080F421E030E0A9015B
:104F900002C0440F551F9A95E2F7CA01809590917F
:104FA000EA0289238093EA0213C08D3F21F48091A5
:104FB000E4028E7F0BC08E3F21F48091E4028D7F4E
:104FC00005C08F3F29F48091E4028B7F8093E40237
:104FD0008091EB02811106C08091EC02811102C028
:104FE0001092E3028091ED02811106C08091EE02E1
:104FF000811102C01092E20208958091E40280FFC4
:1050000008C060911E0170E075956795759567956C
:1050100021C081FF06C060911E0170E07595679503
:1050200019C082FF04C060911E0170E010C0909111
:10503000E202992399F060911D019617A0F78091E3
:105040001E01899FC001112470E00E94EF2C60387E
:10505000710540F46115710519F406C061E070E056
:10506000862F08958FE7089581E008958091E402E6
:1050700080FF0BC060911C0185E0689FB001112486
:1050800075956795759567952BC081FF09C06091EF
:105090001C0185E0689FB00111247595679520C0BB
:1050A00082FF07C060911C0185E0689FB001112458
:1050B00017C09091E3029923D1F060911B019617DC
:1050C00088F720911C0185E0289F90011124929F70
:1050D000A001939F500D112470E0CA010E94EF2C93
:1050E0006038710540F46115710519F406C065E07A
:1050F00070E0862F08958FE7089581E00895803F3E
:1051000021F40E943628819504C0813F29F40E9431
:1051100036288093EC020895823F21F40E943628BD
:10512000819504C0833F29F40E9436288093EB02C6
:105130000895893F19F40E94FD2705C08A3F31F484
:105140000E94FD2781958093ED0208958B3F21F405
:105150000E94FD27819504C08C3F29F40E94FD2701
:105160008093EE0208959CE0980F953078F421E04A
:1051700030E0A90102C0440F551F9A95E2F7CA0119
:105180009091EA02892B8093EA0208958D3F21F4E1
:105190008091E40281600BC08E3F21F48091E40293
:1051A000826005C08F3F29F48091E402846080937F
:1051B000E4020895893289F1F0F4843171F1B0F498
:1051C000873009F077C08EE180931A0182E38093E3
:1051D00019018AE080931C0184E180931B0188E01F
:1051E00080931E0188E280931D0164C092EE980FA7
:1051F0009A30F0F05FC0803509F444C028F48F3451
:1052000009F058C08AE03FC0813529F0823509F0A5
:1052100051C081E038C08FEF36C08091E102882311
:1052200079F11092E1021092E0021092DF0242C086
:105230008D518093E102833099F038F4813069F028
:105240008230D9F489E191E00DC0853099F078F091
:10525000863099F48DE191E005C08AE191E002C0C9
:105260008CE191E09093E0028093DF0223C08BE118
:1052700091E0F8CF8EE191E0F5CF1092E1021AC0F3
:1052800080E0089586EFE091DF02F091E002309730
:1052900089F02081082E000C990B820F911D8F3F01
:1052A000910519F014F08FEF04C097FF02C010822F
:1052B00001C0808381E00895482F50E0FA013597BE
:1052C000EF33F10508F073C0EA57FF4F0C94252D1A
:1052D0000E94481C6AC08091DE02817F8E7F80938D
:1052E000DE0281E08093DD0208950E94C72A2FEF3D
:1052F00084E39CE0215080409040E1F700C0000032
:105300000E94061952C08091DE02982F90959170EC
:1053100090FB80F98093DE02911147C0897F877FDF
:1053200010C08091DE0281FB222720F991E09227B4
:1053300090FB81F98093DE029923B9F18091DE021E
:1053400081608093DE0231C08091DE0282FB2227E1
:1053500020F991E0922790FB82F9ECCF8091DE0258
:1053600083FB222720F991E0922790FB83F9E2CF7B
:105370000E94C72A8091ED0187FB222720F991E046
:10538000922790FB87F98093ED010FC0895301C0EC
:105390008D5191E001C0990F8A95EAF7892F01C0DC
:1053A00081E00E94972A0E94C72A81E0089580E048
:1053B000089580E090E00E94962080E090E00E94B6
:1053C000802010927C0210927B020E94B81CE9EEB1
:1053D000F2E086E0DF011D928A95E9F71092E30280
:1053E0001092E2021092E4020C945C27CF92DF92BA
:1053F000FF920F931F93CF93DF936C0100912102D3
:1054000080917F02082BC7E0D0E010E0C8010C2E8D
:1054100002C0959587950A94E2F780FD04C0219714
:10542000A8F7F12C09C0FC2EB6018C2F0E94952103
:105430000E94921A019799F38F2DDF91CF911F91BE
:105440000F91FF90DF90CF90089529E0929F800DFB
:105450001124682F669566956695982F977083E05E
:10546000689FB001112440E050E080E0FB01E40FB0
:10547000F51FE151FD4F208130E0092E02C0369525
:1054800027950A94E2F721703327042E01C0220FDA
:105490000A94EAF7822B4F5F5F4F4330510531F793
:1054A000089529E0929F800D1124E82FE695E69556
:1054B000E695877051E001C0550F8A95EAF783E0C1
:1054C000E89FF0011124E151FD4F20E030E070E051
:1054D0004081CB01022E02C0969587950A94E2F78F
:1054E0008170819584278523842781932F5F3F4F87
:1054F0002330310569F70895809321020C94D9294E
:1055000021E030E001C0220F8A95EAF720958091D2
:10551000210282230C947C2A21E030E001C0220F7A
:105520008A95EAF780912102822B0C947C2A809341
:105530007F020C94D929FC01808191810E94AB1DCE
:10554000292F2F70E92FE295EF704E2F50E0FA01CE
:105550003297EE30F105B8F4EB53FF4F0C94252D44
:10556000803F99F018F4883E70F40FC0843F59F4DE
:105570000CC0883E50F0813F31F407C0822F8695E1
:1055800086958695089580E0089581E008951092AB
:105590007D0280910A01882331F08091ED0187FF1F
:1055A00002C08EE101C086E0E4E2F2E0DF011D927C
:1055B0008A95E9F70C94D929882341F08095909138
:1055C0007D02892380937D020C94B81C0895882362
:1055D00039F090917D02892B80937D020C94B81C48
:1055E0000895882309F463C0823869F40E94AC20CE
:1055F00081FF5DC069E382E292E00E944B200E943D
:10560000B81C69E30EC0833891F40E94AC2080FF7F
:105610004EC063E582E292E00E944B200E94B81CDB
:1056200063E582E292E00E9423200C94B81C843847
:1056300069F40E94AC2082FF3AC067E482E292E003
:105640000E944B200E94B81C67E4EBCF9CEF980FA0
:10565000913A10F4682FE5CF90E2980F983088F4D3
:10566000877021E030E0A90102C0440F551F8A95E0
:10567000E2F7CA01809590917D02892380937D0293
:10568000D4CF9BE5980F933020F480E090E00C9409
:10569000962098E5980F973120F480E090E00C94E4
:1056A0008020803F20F00E9486270C945C2708957C
:1056B000CF93882309F4F9C0C82F8238B1F40E942F
:1056C000AC2081FDF2C069E382E292E00E944B20AF
:1056D0000E94B81C2FEF81EE94E021508040904052
:1056E000E1F700C0000069E317C08338E1F40E94CD
:1056F000AC2080FDDAC063E582E292E00E944B209C
:105700000E94B81C2FEF81EE94E021508040904021
:10571000E1F700C0000063E582E292E00E942320EE
:10572000CF910C94B81C8438B1F40E94AC2082FD57
:10573000BCC067E482E292E00E944B200E94B81C49
:105740002FEF81EE94E0215080409040E1F700C0BF
:10575000000067E4E1CF8CEF8C0F813A98F58091DF
:10576000DD02813081F030F0823049F58C2FCF910D
:105770000C94DA2880917D02823209F05EC08C2F71
:105780000E945C2958C080917D028232C1F3C431ED
:1057900099F068F4CB3009F44CC0C03109F046C030
:1057A00082E08093DD0288E30E94DA2842C0C93299
:1057B00019F0C833F1F13AC01092DD0237C01092EF
:1057C000DD023BC080E28C0F883068F4C77081E056
:1057D00090E001C0880FCA95EAF790917D02892B6D
:1057E00080937D029DCFEBE5EC0FE33040F4F0E0D9
:1057F000ED5BFE4F808190E0CF910C949620E8E520
:10580000EC0FE73150F4F0E0EE0FFF1FEA5BFE4FC4
:1058100080819181CF910C948020C03F08F445C0D5
:105820008C2F0E947F28CF910C945C2780E08170A0
:1058300002C081E0FCCF811138C080910A01882329
:10584000E1F08091ED0187FF18C0EC2FE695E69519
:10585000E695F0E0EE5DFD4F8281282F30E04C2F81
:10586000477081E090E002C0880F991F4A95E2F7E7
:1058700082239323892B61F412C0E4E2F2E08AE2EE
:1058800092E02191C21721F08E179F07D1F707C030
:105890006C2F82E292E00E9423200E94B81C6C2FA1
:1058A00082E292E00E944B203BCFCF9108951F935C
:1058B000CF93DF93182F893319F0C0E0D0E002C0F6
:1058C000C0E5D0E0812F0E94582B209741F08FE94E
:1058D0009FE00197F1F700C000002197F6CF812FDC
:1058E000DF91CF911F910C94F12AF999FECF92BDCF
:1058F00081BDF89A992780B50895A6E1B0E044E00B
:1059000050E00C94AF2CA8E1B0E042E050E00C94E1
:10591000AF2C262FF999FECF92BD81BDF89A019741
:1059200000B4021639F01FBA20BD0FB6F894FA9AE7
:10593000F99A0FBE08950396272F0E948A2C0E9481
:10594000892C252F0E948A2C242F0C948A2C0196B6
:10595000272F0E948A2C0C94892CDC01CB01FC019E
:10596000F999FECF06C0F2BDE1BDF89A319600B4B8
:105970000D9241505040B8F70895DB018F939F93EB
:105980000E94502DBF91AF91A29F800D911DA39FAA
:10599000900DB29F900D1124089587FB082E0626C6
:1059A00087FD819567FD61950E94632D0EF49195A9
:1059B00007FC81950895AA1BBB1B51E107C0AA1FD4
:1059C000BB1FA617B70710F0A61BB70B881F991FA0
:1059D0005A95A9F780959095BC01CD01089597FB44
:1059E000072E16F4009407D077FD09D00E94DB2C17
:1059F00007FC05D03EF4909581959F4F08957095D2
:105A000061957F4F0895A1E21A2EAA1BBB1BFD01D1
:105A10000DC0AA1FBB1FEE1FFF1FA217B307E4078D
:105A2000F50720F0A21BB30BE40BF50B661F771FE5
:105A3000881F991F1A9469F76095709580959095C5
:105A40009B01AC01BD01CF010895EE0FFF1F059032
:105A5000F491E02D099469279627692778278727ED
:105A6000782708950E943A2D332312F48A1B9B0B4A
:105A70000C944B2DA29FB001B39FC001A39F700D4A
:105A8000811D1124911DB29F700D811D1124911D46
:105A900008950E943A2DB7FF0895821B930B089535
:105AA0000E943A2DA59F900DB49F900DA49F800D4C
:105AB000911D11240895B7FF0C94502D0E94502D74
:105AC000821B930B0895991B79E004C0991F9617C8
:105AD00008F0961B881F7A95C9F780950895FC01F8
