:100000000C9469030C94B0030C94B0030C94B003EB
:100010000C94B0030C94B0030C94B0030C94B00394
:100020000C94B0030C94B0030C941F270C94D425AB
:100030000C94C3280C94B0030C94B0030C94B0033C
:100040000C94B0030C94B0030C94B0030C94B00364
:100050000C94B0030C9476280C94B0030C94B00369
:100060000C94B0030C94B0030C94B0030C94B00344
:100070000C94B0030C94B0030C94B0030C94B00334
:100080000C94B0030C94B0030C94B0030C94B00324
:100090000C94B0030C94B0030C94B0030C94B00314
:1000A0000C94B0030C94B0030C94B003D107D407A4
:1000B000F307000807082708C508C508C508C508CC
:1000C000C5082A082C08310857087A087D088008D6
:1000D000A408280933096609AB09EC09360A810A24
:1000E000840A890A8C0A910A940A990A9C0A9F0A2E
:1000F000A20AA50AA80AAB0AAE0AB10AB40AB70A4C
:10010000BC0A020B480B940B970B9A0B9D0BA20B8E
:10011000AD0BB00BBB0BBE0BC90BCC0BD70BDA0B6B
:10012000E50BE410E4101F111F1179119711A112B2
:10013000A112A21116122712271268238F23362527
:100140008F233625DB23FE233625F3240325152AAA
:10015000152A282A282A1E2A282A282A282A152A3F
:10016000152A232A282A282A232A00000000000012
:10017000000000000000000000000000000000007F
:1001800000000000000000000000000000007E0FE2
:1001900000D4FFFFFFC7000000780000000000004F
:1001A00000002A2B280000000000000000000000D2
:1001B000000000000029000000002C1E3420212235
:1001C00024342627252E362D3738271E1F2021229E
:1001D000232425263333362E37381F040506070817
:1001E000090A0B0C0D0E0F10111213141516171807
:1001F000191A1B1C1D2F3130232D35040506070845
:10020000090A0B0C0D0E0F101112131415161718E6
:10021000191A1B1C1D2F3130354C00010101010141
:1002200001010101020202020202020202030303AF
:10023000030303030304040404040404050505057F
:10024000050606060606070707070708080808093F
:100250000909090A0A0A0B0B0B0C0C0C0D0D0D0EEB
:100260000E0E0F0F0F101011111112121313141480
:10027000151516161717181819191A1A1B1B1C1DF5
:100280001D1E1E1F2020212222232424252626274E
:100290002829292A2B2C2D2D2E2F30313232333480
:1002A00035363738393A3B3C3D3E3F404142434486
:1002B00045464748494A4C4D4E4F50515354555668
:1002C00058595A5B5D5E5F616264656668696B6C14
:1002D0006D6F7072737577787A7B7D7E808283858F
:1002E00087888A8C8E8F91939596989A9C9EA0A2CF
:1002F000A3A5A7A9ABADAFB1B3B5B7BABCBEC0C2D9
:10030000C4C6C9CBCDCFD1D4D6D8DBDDDFE2E4E79C
:10031000E9EBEEF0F3F5F8FAFDFF29001E001F00EF
:1003200020002100220023002400250026002700B1
:100330002D002E002A002B0014001A0008001500C2
:1003400017001C0018000C00120013002F003000D2
:1003500031003900000004001600070009000A00FF
:100360000B000D000E000F003300340028000000C9
:10037000E1001D001B00060019000500110010001F
:100380003600370038000000E500E000E300E2003E
:100390000000000000002C0000000000E600E70064
:1003A0000000E4000151005C3A003B003C003D00CD
:1003B0003E003F0040004100420043004400450031
:1003C0004C000100C25CC35CC55CC65CC75CC85C19
:1003D000C95CCA5C010001000100010001000100CC
:1003E0000000010001000100010001000100010006
:1003F00001000100010001000100000001000100F6
:1004000001000100010001000100010001000100E4
:100410005200000001000100010001000000000086
:1004200000000100000000005000510000004F00DB
:1004300001000100010001000100010001000100B4
:1004400001000100010001000100010001000100A4
:100450000100010001000100010001000100010094
:100460000100010001000100010001000000010085
:100470000100010001000100010001000100010074
:100480000100010001000000010001000100010065
:100490000100010001000100010001000100000055
:1004A0000100010001000100000000000000010047
:1004B0000000000001000100000001000100010037
:1004C0000100010001000100010001000100010024
:1004D0000100010001000100010001000100010014
:1004E0000100010001000100010001000100010004
:1004F00001000100010001000000010001000100F5
:1005000001000100010001000100010001000100E3
:1005100001000000010001000100010001000100D4
:1005200001000100010001000100000001000100C4
:1005300001000100000000000000010000000000B8
:100540000100010000000100010005010902A101F4
:1005500085020901A10005091901290815002501D5
:100560009508750181020501093009311581257F42
:1005700095027508810609381581257F9501750852
:100580008106050C0A38021581257F9501750881C1
:1005900006C0C005010980A101850319012AB70021
:1005A000150126B700950175108100C0050C0901E1
:1005B000A101850419012AA002150126A0029501B6
:1005C00075108100C00660FF0961A1010962150074
:1005D00026FF009520750881020963150026FF009B
:1005E000952075089102C005010906A101050719AA
:1005F000E029E7150025019508750181029501752F
:100600000881010507190029FF150026FF0095063E
:1006100075088100050819012905950575019102E4
:10062000950175039101C009025B00030100A0FA66
:100630000904000001030101000921110100012248
:1006400040000705810308000A09040100020300B5
:100650000000092111010001222200070582032068
:100660000001070503032000010904020001030043
:100670000000092111010001227B000705840320ED
:10068000000A1201000200000008504B8DEF01002B
:10069000010200011E0342004D0036003000200020
:1006A000520047004200200050004F004B00450020
:1006B0005200000018034B0050002000520065005B
:1006C0007000750062006C006900630000000403A4
:1006D000090411241FBECFEFDAE0DEBFCDBF04B6A0
:1006E00003FE27C080916B0490916C04A0916D046F
:1006F000B0916E048730904BA740B04BD1F410926C
:100700006B0410926C0410926D0410926E0414BE6F
:1007100084B7877F84BF0FB6F894A8958091600056
:10072000886180936000109260000FBEE0E0F8E303
:10073000099512E0A0E0B1E0E8E4FBE502C0059015
:100740000D92A238B107D9F724E0A2E8B2E001C0C7
:100750001D92AB36B207E1F70E94B2030C94A22DB2
:100760000C940000CF93DF93CDB7DEB7AB970FB6F5
:10077000F894DEBF0FBECDBF84B7877F84BF0FB6AE
:10078000F894A89580916000886180936000109231
:1007900060000FBE90E080E80FB6F894809361008F
:1007A000909361000FBE85B7806885BF85B780686C
:1007B00085BF87E699E190938302809382020E942D
:1007C00018260E94BE268091E20084608093E20099
:1007D00078948091F5038823A1F01091E9001F70AF
:1007E0009091EC00892F817090FD80E8182B109279
:1007F000E9008091E80083FD0E9482221F7010931F
:10080000E90082E084BD93E095BD9AEF97BD8093A7
:100810006E000E948617811102C00E94771708E1BE
:1008200011E06DE1E62E61E0F62ED8018D918D018B
:100830008F3F11F00E94AC19E016F106B1F70DE1FF
:1008400011E05BE2E52E51E0F52EF80181918F0178
:100850008F3F11F00E94AC19E016F106B1F7E6E8FF
:10086000F2E080E992E0A9ECB2E0119211921D92BF
:100870001D928E179F07C9F70E945C1C811102C050
:100880000E94671C82E090E00E94B22C8093BE021E
:100890000E944B1C90938502809384020E94C3198E
:1008A000FFEF26E731E0F15020403040E1F700C093
:1008B00000000E94C3198091C90280FF08C06FEF39
:1008C0007FEF80E090E00E94EE2C0E94522883E0AF
:1008D00090E00E94B22C0E94FC2910920304ECE1EB
:1008E000F4E08CE294E02FEF3FEF219331938E17E9
:1008F0009F07D9F710929002E9EAF2E08FEF9FEF9D
:100900008193919342E0E93BF407D1F70E945C1C8C
:10091000811104C00E94671C0E94A91746E050E0A4
:100920006CE170E08DE294E00E94A22C80912D0495
:100930008C7F11F40E94A91784E091E09093370412
:10094000809336048E010F5F1F4F3E015BE0650E02
:10095000711C8091F503853009F048C030E1E32E29
:1009600042E1F42E8091F503853009F03BC080917F
:10097000F503843021F110923A0488E190E0A0E47C
:100980000FB6F894A895809360000FBEA093600006
:1009900083B7817F846083BF83B7816083BF78948E
:1009A000889583B78E7F83BF0FB6F894A895809102
:1009B0006000886180936000109260000FBE80919B
:1009C000F403882309F4CECF0E94C319E9ECF2E0C6
:1009D00081919191892B09F002C4B2E0E33DFB07BC
:1009E000B9F7C0CF0E942C2A0E9432290E94C31955
:1009F00081110E94AB28AFEBB2E0E9ECF2E0E12C10
:100A0000F12C4E2D819091908D919D918825992565
:100A1000009709F4B0C0D12CAA24A394B12C9C0156
:100A20002A213B21232B09F4A0C0D9A24AA38A2062
:100A30009B2081E08114910409F480E08BA30E9443
:100A4000B7288160782F9DA38CA349A15AA16BA1DF
:100A50008DA10E94FD0BF701EE0FFF1FE154FD4F2A
:100A600080819181A826B926B182A082892889F047
:100A70008EE08E9DF0018F9DF00D1124ED58FE4FFC
:100A8000ED0DF11D80818F3F21F08BA7DD24D394E4
:100A900001C0D12CED2CF12C80919002F701E80FD0
:100AA000F11D3997ACF1E8E0AE2EB12CAE18BF08BD
:100AB000B7016F5F7F4F60577D4FA50181E992E0DD
:100AC0000E94992DB701675F7F4F60577D4FA50149
:100AD00089E992E00E94992DA501440F551FB701A5
:100AE000660F771F675E7F4F60577D4F89EA92E000
:100AF0000E94992DB7016F5E7F4F60577D4FA50112
:100B000081EA92E00E94992D88E08D1980939002ED
:100B10008091900290E0FBA5AF2FB0E09D01220FE5
:100B2000331F27543E4FAA0FBB1FBD0166547E4F93
:100B300041E0480F9D15B0F490E0FC01E057FD4FF7
:100B4000D9015C915183DB015C915187BBA5B18BCD
:100B5000880F991FFC01E057FD4F128E118E91E016
:100B6000842FE6CF809390021EC0D394AA0CBB1CA6
:100B70002EE0D21254CF3FEFE31AF30A45E0E41619
:100B8000F10409F03ECF8FEF8EA38FA318A60E9429
:100B9000B7288160782F9AA789A74EA15FA168A581
:100BA0008AA50E94FD0B8091B9029091BA02A09192
:100BB000BB02B091BC022FB7F89480903B04909098
:100BC0003C04A0903D04B0903E042FBF881A990ABF
:100BD000AA0ABB0A0E94AB286093B9027093BA02BA
:100BE0008093BB029093BC02A0919002E0E9F2E0F6
:100BF0002A2F30E0CC24CA94DC2CE12CF12CC8182C
:100C0000D908EA08FB08A31799F0418D528D1A0103
:100C1000412C512CC214D304E404F50410F42150E7
:100C200004C0480D591D528F418F3F5F3296EBCF64
:100C30002093900230912D04232F237021F0D32E86
:100C4000D694D69401C0D12C209114012130E1F02A
:100C500030F02230E9F1233009F446C070C0109220
:100C600011016093FF03709300048093010490933B
:100C7000020489E2E0E9F2E0A3E0B4E001900D9221
:100C80008A95E1F781E02DC090910F01D9120DC036
:100C9000832F837090E040910E0150E021E0841793
:100CA000950709F420E0822F01C081E081708093D4
:100CB00013018091320490911201981709F4AEC289
:100CC0008093120140E060E080E00E94A517A6C278
:100CD000D0920F01832F837080930E010E94F41530
:100CE00083E0809314012BC080912C04882341F071
:100CF00046E050E06CE170E08DE294E00E94C02C90
:100D000010922C044091FF03509100046091010463
:100D1000709102042FB7F89480913B0490913C04A9
:100D2000A0913D04B0913E042FBF841B950BA60BF0
:100D3000B70B4097A105B10510F01092140186E0A1
:100D4000E5E6F4E0D80101900D928A95E1F7F09084
:100D50006704B0906804E0906904D0906A0410922F
:100D60006704109268041092690410926A04F110EA
:100D700003C0BB2009F451C08091630490916404C6
:100D80000E949C289C0190915F04992309F42BC533
:100D90002333310508F441C09F3F19F09F5F9093C2
:100DA0005F04FF2061F00E94CB2B1F1414F491E02C
:100DB00001C09FEF899F802D112480936704BB2081
:100DC00061F00E94CB2B1B1414F491E001C09FEF43
:100DD000899F802D11248093680430916704332308
:100DE000E1F0209168042223C1F055EB3503C001E6
:100DF0001124992319F09093670403C081E0809334
:100E0000670435EB2303C0011124992319F0909353
:100E1000680403C081E080936804E11003C0DD2012
:100E200009F451C080916104909162040E949C2851
:100E30009C0190915E04992309F4DAC425363105AA
:100E400008F441C09F3F19F09F5F90935E04EE202D
:100E500061F00E94A92B1E1414F491E001C09FEFD1
:100E6000899F802D112480936904DD2061F00E9408
:100E7000A92B1D1414F491E001C09FEF899F802DD0
:100E8000112480936A04309169043323E1F02091A6
:100E90006A042223C1F045EB3403C00111249923D5
:100EA00019F09093690403C081E08093690455EBC5
:100EB0002503C0011124992319F090936A0403C0FB
:100EC00081E080936A048091670481110BC0809156
:100ED0006804811107C080916904811103C0809169
:100EE0006A0481110E94082BFB82BC82ED82DE82A3
:100EF00086E0F801A5E6B4E001900D928A95E1F74D
:100F00000E9432299091BD02891721F00E94322956
:100F10008093BD028091F503843009F01ACD83E0FF
:100F20008093E9008091E80082FF13CD8091E80072
:100F300085FF21C00E94372681111BC080E2E82E68
:100F4000F12C580109C08091F100D5018D935D010C
:100F5000B1E0EB1AF10869F08091E80085FDF3CF6C
:100F60008091E8008B778093E8000E9437268823E1
:100F700099F391E001C090E08091E8008B77809335
:100F8000E800992309F4E5CCE9818E2F90E0FC017B
:100F90003197E331F10508F0F8C0EA5AFF4F0C949D
:100FA0007F2D1A8289E05BC08A81823009F42DC1CD
:100FB000833051F0813009F0E8C00E94AB289B8358
:100FC0008C837D836E83E3C0F801A9ECB2E08C9141
:100FD00011969C91119712969283838332966E1686
:100FE0007F06A9F7D4C08A81823009F0CEC06B8118
:100FF0007C818D819E810E94852D86E290E024C0B7
:101000004C816B818A810E9426179D8305C1AD802A
:10101000BE80BA24AB24BA248C81EB809A81ECE1A7
:10102000EE9E70011124FCE89F9FE00CF11C11243E
:10103000E80EF11CE80EF11C6B2DC70187960E948B
:10104000D02C6A2DC70188960E94D02CA0C00E9487
:10105000F2169DC080E152C081E08A8389EA8B83C9
:1010600096C0EA80FB80FE24EF24FE248C80912C25
:101070005801C701895A9D4F9501201B310B281536
:10108000390508F084C029EAE21621E0F20630F4BE
:101090000E94B22CD50114968C9302C0F5011482E3
:1010A000FFEFEF1AFF0A2FEFA21AB20AE2CFEA808F
:1010B000FB80FE24EF24FE248C80912C5801C70174
:1010C000895A9D4F9501201B310B2815390508F0D1
:1010D0005EC039EAE31631E0F30628F4D501149630
:1010E0006C910E94D02CBFEFEB1AFB0AEFEFAE1A07
:1010F000BE0AE5CF0E94E2164AC084E08A8347C058
:10110000EA80FB80FE24EF24FE248C80912C580181
:10111000C70187969501201B310B28153905B8F5B5
:10112000F0E3EF16F2E0FF0630F40E94B22CD50196
:1011300014968C9302C0F5011482FFEFEF1AFF0A98
:101140002FEFA21AB20AE4CFEA80FB80FE24EF243C
:10115000FE248C80912C5801C70187969501201B95
:10116000310B2815390598F430E3E31632E0F30625
:1011700028F4D50114966C910E94D02CBFEFEB1A85
:10118000FB0AEFEFAE1ABE0AE7CF8FEF898380919B
:10119000F503843009F0DDCB8091E9008F70209158
:1011A000EC00922F917020FD90E8F92EF82A82E051
:1011B0008093E9008091E80080FF0CC040E050E09F
:1011C00060E270E0C8010E9445228091E8008E77BD
:1011D0008093E8008F2D8F708093E900BACBE9BC33
:1011E000F9BC09B400FEFDCF8091D8008F7D8093BB
:1011F000D8008091E00082608093E0008091E00060
:1012000081FDFCCF0E942C2AADCB86E290E00E94AB
:10121000B22C1B821C821D828E83B9CF8D2D90E053
:101220008832910580F0809111018F5F80931101C8
:1012300082E08093140180911301811180CDDD2023
:1012400009F44ECD7CCDFC01E759FF4F0C947F2D66
:1012500080911301882329F040E060E080E00E9443
:10126000A51780E0B7C2F09011018EE0F89EF02C37
:101270001124AEE0EA2EEF0C53E45E1510F4F3E413
:10128000EF2E60912E0470912F04809130040E9403
:101290006A18B62EA72E982EFE1490F4EF2DF0E0CB
:1012A000DF01A15CBD4F8C9190911201982331F028
:1012B000292D4B2D6A2DCF010E94A717F394ECCF57
:1012C00081E092E49E1508F085C2CBCFF090110129
:1012D0008EE0F89EF02C1124EEE0EE2EEF0CA3E44D
:1012E000AE1510F473E4E72EA0902F04B0903004F4
:1012F00090902E04692D7A2D8B2D0E946A18862ECF
:10130000572E482E60913104690D7A2D8B2D0E9445
:101310006A18B62EA72E982EFE14B8F48F2D90E0E2
:10132000FC01E15CFD4F308120911201232359F033
:1013300030FF04C0292D4B2D6A2D03C0242D482DCC
:10134000652D0E94A717F394E7CF81E0B2E4BE15A4
:1013500008F040C286CFB09011018EE0B89EB02C4C
:1013600011246EE0A62EAB0CE3E4EA1510F453E46E
:10137000A52E80902F04509030042091310440E439
:10138000942E392D329F312D1124932EBA1408F04A
:1013900067C0EB2CF12CF701E15CFD4F908180914F
:1013A00012018923B9F0F701EE0FFF1FE654FE4F3B
:1013B000808182958F7060912E04899D600D11242B
:1013C000782D852D0E946A18462F282F672FC70178
:1013D0000E94A717B394DACFB09011018EE0B89EA7
:1013E000B02C11242EE0A22EAB0C53E45A1510F4AD
:1013F00093E4A92E80902F04509030042091310462
:1014000080E4982E392D329F312D1124932EBA1459
:1014100038F5EB2CF12CF701E15CFD4F90818091C8
:1014200012018923D9F0F701EE0FFF1FE754FE4F99
:101430006081969EB0011124B5E075956795BA95C7
:10144000E1F780912E04680F782D852D0E946A188F
:10145000462F282F672FC7010E94A717B394D7CF15
:1014600081E042E44A1508F0B5C1FBCEF0901101CD
:101470008EE0F89EF02C1124EEE0EE2EEF0C53E4FB
:101480005E1510F473E4E72EA0902E04B0902F04A4
:1014900090903004609131046695669566958091D0
:1014A000FF03909100040E9460180E94C1178058A9
:1014B00087FD8195880F282F392D239F212D1124F9
:1014C000822FB5010E946A18B62EA72E982EFE1400
:1014D00090F4EF2DF0E0DF01A15CBD4F8C91909175
:1014E0001201982331F0292D4B2D6A2DCF010E9436
:1014F000A717F394ECCF81E042E44E1508F06AC1DF
:10150000B0CE8DEF94E102C081ED94E10E94BE2047
:1015100061C186ED95E102C087EB95E10E94E9216A
:1015200059C18CE995E102C080E895E10E946D21E6
:1015300051C18FEC94E1EACF86EC94E1E7CF8DEBDB
:1015400094E1E4CF82EA94E1E1CF83E994E1EECF44
:1015500087E398E1E3CF8FE695E1E0CF8BE595E176
:10156000E5CF85E694E105C083E394E102C085EF11
:1015700093E10E940C212EC18091130181111EC0A4
:101580006091310420E1620F08F46FEF8091FF0356
:10159000909100040E9460186AE070E00E94572D4C
:1015A000892B09F05ECE0E94922C63E470E00E94C9
:1015B0006B2D609112010E94FA1853CE8091110197
:1015C0009EE0899F802D11246EE0962E980E53E4A4
:1015D000591510F453E4952EE82EF12CA92CB12CBA
:1015E000EA14FB044CF460911201C7010E94FA183E
:1015F0008FEFE81AF80AF4CF81E092E4991508F029
:10160000E9C02FCE8091130181111EC06091310479
:1016100020E1620F08F46FEF8091FF0390910004C6
:101620000E94601865E070E00E94572D892B09F038
:1016300018CE0E94922C63E470E00E946B2D6091A2
:1016400012010E9440190DCE809111019EE0899FE8
:10165000802D11244EE0942E980EA3E4A91510F4C9
:1016600033E4932EE82EF12CA92CB12CEA14FB04C0
:101670004CF460911201C7010E944019BFEFEB1AB0
:10168000FB0AF4CF81E0E2E4E91508F0A3C0E9CD5C
:10169000F09011018EE0F89EF02C11242EE0E22E45
:1016A000EF0CF3E4FE1510F493E4E92EA0902F0460
:1016B000B090300490902E04609131046695669548
:1016C00066958091FF03909100040E9460180E942B
:1016D000C117805887FD8195880F682F2CE0629F85
:1016E000612D1124690D7A2D8B2D0E946A18B62E5A
:1016F000A72E982EFE1490F4EF2DF0E0DF01A15CF0
:10170000BD4F8C9190911201982331F0292D4B2DD2
:101710006A2DCF010E94A717F394ECCF81E022E459
:101720002E1508F057C09DCD82EE97E1EFCE84EEE6
:1017300093E1ECCE8DED93E102C087ED93E10E9441
:10174000492048C08091030421E0382F321B08F45F
:1017500030E0832F6EEB73E13BC06EEB73E137C07B
:101760008091030421E0482F421B08F440E0842FBD
:1017700066E873E12DC066E873E129C08091030437
:1017800021E0582F521B08F450E0852F64E573E1E7
:101790001FC064E573E11BC08091030421E0382F72
:1017A000321B08F430E0832F6CE373E111C06CE36B
:1017B00073E10DC08091030421E0482F421B08F41F
:1017C00040E0842F66E273E103C066E273E180E0EB
:1017D0000E94811F909111019F5F909311018823B6
:1017E00009F426CDACCA2D32314008F0D7CA15CB4A
:1017F0002D32314008F028CB66CB1F93CF93DF9377
:10180000CDB7DEB767970FB6F894DEBF0FBECDBF7A
:101810004B8B5C8B6D8B7E8B8F8B61111092E203F7
:1018200086E09E01235F3F4FD901E82F1D92EA9584
:10183000E9F795E0FE017396D90101900D929A9512
:10184000E1F79C894E895F897B897D879E876F87B9
:10185000598B488BF901DE01179601900D928A95FC
:10186000E1F7CE0107960E94BE1D81113EC086E0C1
:10187000FE013796DE01119601900D928A95E1F7EF
:10188000FF81E8856A857B856115710531F0EF3F41
:1018900031F481E0FF3F19F403C081E001C080E032
:1018A00080FD23C02091AE0330E0C901019687700E
:1018B00099274091DF0350E08417950779F1F98368
:1018C000EA837D836C8396E0929FD001939FB00D55
:1018D0001124A155BC4FFE01319601900D929A95AD
:1018E000E1F78093AE030E943B1D16E08091DF0379
:1018F0009091AE038917F9F0189FC001112481550A
:101900009C4F0E94BE1D8823B1F08091DF0390E0C0
:101910000196877099278093DF03E8CF0E942C2AD5
:101920001092AE031092DF03E8EAF3E086E0DF01F5
:101930001D928A95E9F767960FB6F894DEBF0FBE41
:10194000CDBFDF91CF911F9108953F924F925F924B
:101950006F927F928F929F92AF92BF92CF92DF92BF
:10196000EF92FF920F931F93CF93DF93CDB7DEB724
:1019700029970FB6F894DEBF0FBECDBFFC01808162
:10198000918123813481232B31F09F3F31F491E009
:101990008F3F19F403C091E001C090E090FD0EC6A6
:1019A0007F0185E0DE01119601900D928A95E1F7A5
:1019B000F701228189819A81222349F00E945B29C3
:1019C000182F682F89819A810E94B62903C00E942E
:1019D0008A29182F69817A81812F0E944C178C01E6
:1019E000F7018281882309F4F2C0980122513F4512
:1019F0002031310508F019C18FEF93E00E94B22C1D
:101A00008111EFC0025137E5832E32E0932E00237F
:101A100079F08114F4E09F0609F4E3C0C4010E9448
:101A2000B22C811101C001502FEF821A920AEFCF20
:101A30001E821F8218861986442443942AE0322E7F
:101A400084010F5F1F4FC4010E94B22C8E831F823E
:101A5000882309F4C6C09FEF980F933060F48F83FA
:101A60004E8232E0830E911CC8010E94B22C8887FE
:101A7000811102C0B6C048018E010A5F1F4FF801F4
:101A800020812223E9F2213009F04CC0818181308C
:101A900049F46801F2E0CF0ED11CF80182810E9466
:101AA000EA2A0AC0823051F46801F2E0CF0ED11C5C
:101AB000F80182810E948B2A860186C0833049F416
:101AC0006801F2E0CF0ED11CF80182810E944C2AFD
:101AD000F3CF843019F00F5F1F4F76C0F8012281D9
:101AE0000E5F1F4F80E090E030E0205331092A3034
:101AF000310568F4389EA001399E500D1124C901AA
:101B0000840F951F0F5F1F4FF8012081EDCF0097C5
:101B100009F45AC0EFE9FFE03197F1F700C0000087
:101B20000197F5CFE22FF0E0E656FE4F5490822F5A
:101B300086958695869590E0FC01E657FE4F649069
:101B40002770712C022E02C0759467940A94E2F7F4
:101B5000F1E06F227724FC01E658FE4FA490B12CEF
:101B6000022E02C0B594A7940A94E2F731E0A322B2
:101B7000BB24FC01E659FE4FC490D12C02C0D59481
:101B8000C7942A95E2F781E0C822DD24611471042C
:101B900019F081EE0E948B2AA114B10419F086EE8F
:101BA0000E948B2A852D0E94EA2AAB2819F086EE26
:101BB0000E944C2A672819F081EE0E944C2ACD28F9
:101BC00019F08CE20E94EA2A0F5F1F4F58CF0031B4
:101BD0003FE5130709F0E9C481E00E94E5290E946E
:101BE0005F1F8091E003877009F4E8C4F7018281E8
:101BF000882309F4E3C482E029960FB6F894DEBF87
:101C00000FBECDBFDF91CF911F910F91FF90EF904D
:101C1000DF90CF90BF90AF909F908F907F906F900C
:101C20005F904F903F900C941E1D0031FFE51F0701
:101C300011F481E005C001312FE5120721F482E0A3
:101C40000E94F129CCCF033FFCE51F0749F406E2CF
:101C500021EE40EE63EF7CE5C7010E946F16C1CF15
:101C6000043F2CE5120708F050C1083D3CE513077E
:101C700031F407E225EE45EE68ED7CE5EDCF093D58
:101C80009CE5190731F408E221E045EE69ED7CE5B9
:101C9000E3CF073DECE51E0731F406E221EE41EE0D
:101CA00067ED7CE5D9CF882309F464C110929F03C6
:101CB00003309DE5190758F40A3FECE51E0760F470
:101CC000C80182509C45449708F03EC105C00136CA
:101CD000FDE51F0709F038C10E944B1C9093850257
:101CE0008093840200312CE5120709F4CAC008F081
:101CF00041C008308CE5180709F4A4C0F0F40430A2
:101D0000ECE51E0709F48CC068F402302CE51207DC
:101D100009F482C003301C4509F0E7C080918402B9
:101D20008260E1C006308CE5180709F483C008F032
:101D300085C0809184028860D6C00C30ECE51E0717
:101D400009F490C068F40A302CE5120709F47EC04B
:101D500008F084C00E942C2A809184028068C3C04D
:101D60000E308CE5180709F481C008F086C0809118
:101D7000840294C00C3FECE51E0709F47BC038F5E3
:101D800004312CE5120709F49AC058F402318CE5AD
:101D9000180709F47AC008F07EC0809184028F7B16
:101DA000A2C00A3FECE51E07F1F108F03FC0053183
:101DB0001C4509F09AC08091840282FB222720F9F9
:101DC00091E0922790FB82F990FB83F98CC001157A
:101DD0003DE5130709F467C050F4809185020E3F7A
:101DE0009CE51907C1F108F05BC08D7F65C002302A
:101DF000FDE51F0709F471C008F46DC001361D45EB
:101E000009F073C08091840284FB222720F991E0BD
:101E1000922790FB84F967C080918402816063C03F
:101E20008091840216C08091850216C0809185023F
:101E3000826042C080918402806155C0809184029A
:101E4000806251C08091840280644DC08091840280
:101E50008860846048C0826081602EC08091840266
:101E60008E7F41C0809184028D7F3DC0809184022D
:101E7000877F39C08091850214C0809184028F7E53
:101E800032C0809184028F7D2EC00E942C2A8091C6
:101E900084028F7728C080918402877F8B7F23C044
:101EA0008D7F8E7F09C080918502982F90959170CB
:101EB0008E7F892B90FB81F98093850216C00E944A
:101EC0002C2A8091840287FB222720F991E0922717
:101ED00090FB87F908C061E001C060E08EE090E00F
:101EE0000E94D02C02C080938402609184021091E1
:101EF000850284E090E00E94D02C612F82E290E085
:101F00000E94D02C0E942C2A6CCE053FFCE51F07B6
:101F100031F406E221EE42EE65EF7CE59DCE053F11
:101F20002CE5120730F407E225EE44EE64EF7CE581
:101F300093CE063F3CE5130709F0B5CE07E225EE48
:101F400046EE66EF7CE588CE8091E30306319CE5A2
:101F5000190741F58A7A91E009F490E09093D30251
:101F6000882311F065E301C069E280EA93E00E94F2
:101F7000EC2815C006311C4509F0DDC08091D30264
:101F8000882309F419C385E3E0EAF3E09281891319
:101F900001C01282319693E0E63AF907B9F70E9440
:101FA000D71C1FCE82720A3CECE51E0709F47BC0E9
:101FB00098F5053C2CE5120709F461C0B8F4033C20
:101FC0009CE5190709F451C008F054C0023CFCE537
:101FD0001F0709F07FC080912D0491E0892780932D
:101FE0002D041092140190932C04FBCD073C2CE59A
:101FF000120709F44EC008F447C0083C9CE51907D5
:1020000009F44CC0093CECE51E0709F063C04AE145
:1020100056E166E276E155C00F3CFCE51F0709F486
:1020200055C098F40C3C3CE5130709F446C008F48D
:102030003FC00D3CECE51E0709F446C00E3CFCE534
:102040001F0709F047C085E042C0063D2CE5120796
:1020500030F4013D1C4508F0C4CD82E138C00D3597
:102060008DE5180709F4BDCD35C04CE556E165E6B0
:1020700076E127C045E656E16CE576E122C04AE408
:1020800056E163E576E11DC043E556E16AE476E199
:1020900018C042E356E16EE376E113C04EE356E129
:1020A00062E376E10EC046E256E16AE176E109C0FC
:1020B0004EE053E16AE173E104C04AE153E16EE0AE
:1020C00073E10E949F178DCD81E001C08DE00E94D9
:1020D0006A1F87CD0A359DE5190741F150F40115B6
:1020E000FCE51F07A9F00E3D1C4529F50E94671C61
:1020F00078CD0B353DE51307D9F00C351D45D9F4E6
:102100008091850282FB882780F991E0892711C0A0
:102110000E942C2A9FEFE4E3FCE09150E040F04065
:10212000E1F700C000000E9452285BCD81E001C0B1
:1021300080E00E94041DF7018281008111818823C3
:1021400049F0C8010E945B29D82E682FC8010E945F
:10215000B62904C0C8010E948A29D82EB8018D2D45
:102160000E944C170E94B11AB82E192F982EF70111
:102170000281A580A2949FE0A9228091E00387704C
:1021800099F0002389F0812F807F803421F080E254
:102190008B0D883048F082E00E941E1D8091E00384
:1021A0008770DD24D3948111D12CC12EC2948FE08D
:1021B000C8228C2D90E08C30910508F0C2C1FC0142
:1021C000EF56FF4F0C947F2D812F807F1F70882347
:1021D00011F01295107F0023B9F0112309F49DC16D
:1021E00080E28B0D883010F0911006C08091E303DF
:1021F000182B1093E30305C08091E203182B109372
:10220000E2030E94D71C89C18B2D0E944C2A112306
:1022100009F497C180E28B0D1095883010F0911071
:1022200006C08091E30318231093E30305C0809157
:10223000E20318231093E2030E94D71C82C1812F6E
:10224000807F1F70803211F01295107F8B2D9920A6
:1022500021F0F1E09F1611F130C00023B1F0AA2067
:1022600081F021E0A2120DC08091850282FD69C13A
:102270008091E403182B181709F463C11093E40349
:1022800060C18091E403812B10C0AA2021F031E0CD
:10229000A31609F456C10E94D11C27C0002341F0A7
:1022A00085E08A1508F44DC1812F0E94422A49C158
:1022B00094E09A1508F445C118C0002349F0AA20FB
:1022C00099F3F701858180FF28C18F708583ECCF5A
:1022D000AA2059F0893309F031C1FFEF27EE33E02E
:1022E000F15020403040E1F727C1812F0E94372A6A
:1022F00028C1812F86958695837019F0813061F011
:1023000020C1002321F08B2D912F937002C080E01B
:1023100090E00E941C291BC1002321F08B2D912FDE
:10232000937002C080E090E00E94062910C18B2DBE
:10233000002319F00E94EB2B02C00E94322B0E9456
:10234000082B05C1812F8370A9F50111FEC04B2D0B
:10235000429546954770440F440F8B2D8F7090E047
:102360009C01042E01C0220F0A94EAF7B4FE08C0B3
:102370008FE090E001C0880F4A95EAF7809501C090
:1023800080E0169516951370123069F088F49091DC
:10239000E503113019F0822B892302C0922B892B7F
:1023A0000E94FC29D2C0822B9091E5038927F8CFA7
:1023B000822BF6CF002319F0812F817001C0869502
:1023C000882309F4C2C04B2D429546954770440FAF
:1023D000440F8B2D8F7090E09C01042E01C0220FC2
:1023E0000A94EAF7B4FE08C08FE090E001C0880FBD
:1023F0004A95EAF7809501C080E01695169513700E
:10240000123059F078F490913304113019F0822B86
:10241000892309C0922B892B06C0822B909133040B
:10242000892701C0822B0E94E1298FC01F700023E1
:1024300039F0812F0E94F1298B2D0E94422A85C0FC
:102440008B2D0E94372A812F0E94E5297EC08B2D7B
:1024500092EF991659F1991538F0E0EF9E1659F060
:10246000F1EF9F16F1F055C023EF921631F134EFE2
:10247000931681F14EC0002379F084E08A1508F4A8
:1024800060C01F7181E090E001C0880F1A95EAF7E3
:102490009091330489271BC095E09A1508F451C028
:1024A000F0CF002329F0812F8F7126C00023D9F3AC
:1024B000812F8F710E94E52944C0002339F01F71DC
:1024C00081E001C0880F1A95EAF701C080E00E9400
:1024D000E12937C0002399F01F71812F0E94F12953
:1024E0008091850282FD07C0E8E01E9FC001112493
:1024F00083608093E003812F0E94F12922C081E054
:102500000E941E1DF1E0FA15E0F482E00E941E1DFB
:1025100018C0002331F0AA2031F28B2D0E948B2AA3
:1025200010C0AA2029F2893349F42FEF37EE83E057
:10253000215030408040E1F700C000008B2D0E9408
:102540004C2A88EF8C0D843010F40E943229DD2053
:10255000A9F18091E00380FD31C0F70112828595D9
:10256000859585950E94F129C7010E94A50C80914F
:10257000E00385958595859529960FB6F894DEBF7D
:102580000FBECDBFDF91CF911F910F91FF90EF90C4
:10259000DF90CF90BF90AF909F908F907F906F9083
:1025A0005F904F903F900C94E52901319FE519070A
:1025B00009F049CB82E011CB89E2E6CC29960FB62F
:1025C000F894DEBF0FBECDBFDF91CF911F910F9169
:1025D000FF90EF90DF90CF90BF90AF909F908F9043
:1025E0007F906F905F904F903F900895E4EDF2E000
:1025F00093E0ED39F90729F08183608342833396B4
:10260000F7CF0895FC01EE0FFF1F8E0F9F1FFC01F7
:10261000EC52FD4F6183408322830895EDE2F4E0A4
:10262000248130E1231B08F420E0248381E080939F
:102630002C040895EDE2F4E0248130E1230F08F446
:102640002FEF248381E080932C040895EF92FF9272
:102650000F939701201B31092F3F310519F010F01E
:102660002FEF30E02095382F320F08F43FEF832F03
:102670000F91FF90EF900895EF92FF920F939701C3
:10268000201B31092F3F310519F010F02FEF30E0FA
:10269000322F3095482F430F08F44FEF842F620FED
:1026A0000F91FF90EF900895EF92FF920F93972F65
:1026B000093438F4B701601B71096F3F710519F0D7
:1026C00010F06FEF70E0485F5F4F4131510540F00F
:1026D000A901485F5F4F4131510510F06FEF70E085
:1026E0006095482F460F08F44FEF842F37FF02C044
:1026F0002D5F3F4F359527953595279560912E0491
:10270000620F792F0F91FF90EF900895EF92FF9253
:102710000F93E00EF11CF90137FF03C0F195E1952D
:10272000F10924E0EE0FFF1F2A95E1F7EF3FF105D5
:1027300019F014F0EFEFF0E09A0157FF03C0319564
:102740002195310994E0220F331F9A95E1F72E1756
:102750003F070CF4F901EE0DFF1DEF3FF10519F0F5
:1027600010F0EFEFF0E02E2F2095382F320F08F405
:102770003FEF832F0F91FF90EF900895EF92FF921C
:102780000F93970195E0099F200D311D11242F3FD4
:10279000310519F010F02FEF30E02095382F320F6F
:1027A00008F43FEF832F0F91FF90EF90089522E8F8
:1027B000241B08F420E0620F08954095282F429FC3
:1027C000412D1124842F0895E42FF0E0EE0FFF1F18
:1027D000E754FE4F9081921B97FD9195292F38E188
:1027E000239F212D1124620F08950F931F9310E052
:1027F000F801EE0FFF1FE754FE4F9081905797FDB1
:102800009195000F111FF801E654FE4FE081F0E0B2
:10281000B097DF01AA0FBB1F8D010E0F1F1F2003F2
:10282000D001219FB00D1124E8E3F0E0E91BF1098C
:1028300097FDF3959F01220F331F89010E0F1F1F74
:1028400040039001419F300D11242A0F3B1F37FF99
:1028500002C021583F4F220F232F221F330B620F3C
:102860001F910F9108950F931F93522F10E0F801BD
:10287000EE0FFF1FE654FE4FE081F0E0B097EE0F41
:10288000FF1F9F015203D001539FB00D1124000F71
:10289000111FF801E754FE4F008110E000571109A5
:1028A000000F111F40039001419F300D11242A0F8A
:1028B0003B1F37FF02C021583F4F220F232F221FFB
:1028C000330B620F1F910F9108950F931F93522F97
:1028D00010E0F801EE0FFF1FE654FE4FE081F0E03C
:1028E000B0979F015203D001539FB00D1124000FE8
:1028F000111FF801E754FE4F008110E00057110945
:1029000040039001419F300D11242A0F3B1F37FFD8
:1029100002C021583F4F220F232F221F330B620F7B
:102920001F910F910895EF920F931F9393E0099FCA
:1029300080011124159507956E2D600F1F910F9141
:10294000EF900895A22F50E0FA01EE0FFF1FE6541A
:10295000FE4F9081905297FD9195440F551FFA01BB
:10296000E754FE4F3081232F30E02A1B3109290F15
:10297000311D97FD3A95620F0895E42FF0E0EE0FB8
:10298000FF1FE654FE4F6081621B0895E42FF0E0C4
:10299000EE0FFF1FE754FE4F6081621B0895622F08
:1029A0000895E42FF0E0EE0FFF1FE754FE4F408143
:1029B00034EE439F412D1124E82FF0E050E0445EB7
:1029C0005F4FDA01A21BB1099D01B7FF03C031952A
:1029D0002195310993E0220F331F9A95E1F7AF015A
:1029E000421B530B9A0157FF02C020E030E0582FE2
:1029F000259F212D1124822F0895E42FF0E0EE0F62
:102A0000FF1FE754FE4F408134EE439F412D1124B8
:102A1000E72FF0E050E0445E5F4FDA01A21BB109FE
:102A20009D01B7FF03C031952195310993E0220F35
:102A3000331F9A95E1F7AF01421B530B9A0157FFE1
:102A400002C020E030E0279F212D1124722F08952D
:102A5000FC019B01009721F477FF2BC080E80895CB
:102A6000AC0197FF04C044275527481B590BB901F7
:102A7000640F751F37FD0CC0241B350BC901A5E081
:102A8000880F991FAA95E1F70E946B2D80E20CC078
:102A9000CB0165E0880F991F6A95E1F7BA01621BC7
:102AA000730B0E946B2D80E6861BF7FF03C0819598
:102AB000089580E00895EF920F93CF93DF93D72F7F
:102AC000C82FC9010E19BA010E942815602F681B72
:102AD0007D2F8C2FDF91CF910F91EF9008950F9361
:102AE000CF93DF93D72FC82FC901BA010E942815B1
:102AF000682F600F7D2F8C2FDF91CF910F9108955C
:102B0000EF920F931F93CF93DF93D62FC72F182FDA
:102B1000C9010E19010FBA010E942815081B202FA8
:102B2000219F212D1124822F6D2F7C2FDF91CF919A
:102B30001F910F91EF900895EF920F931F93CF93F2
:102B4000DF93D62F172FC82FC9010E19070FBA010F
:102B50000E942815702F781B719F712D11246D2FE5
:102B60008C2FDF91CF911F910F91EF900895FF92DD
:102B70000F931F93CF93DF93F62ED72F182FC901F2
:102B8000C12FC01BBA010E942815982F990F890FD9
:102B9000C81B2C2F219F212D1124822F6F2D7D2FBB
:102BA000DF91CF911F910F91FF900895FF920F93A6
:102BB0001F93CF93DF93F62E172FD82FC901C72F5E
:102BC000C01BBA010E942815982F990F890F7C2FDE
:102BD000781B719F712D11246F2D8D2FDF91CF9157
:102BE0001F910F91FF9008956A9A8EB18B7F9EB1CD
:102BF00094602FB7F894E4EDF2E033E0ED39F30799
:102C000089F0319148E09EB9000000C037FF8EB9CD
:102C1000330F000000C000C000C08EB900C04A954C
:102C200091F7EBCF2FBF8FE594E00197F1F700C04C
:102C300000000895EDE2F4E0438120E1421B08F436
:102C400040E08181628190E00C947122EDE2F4E039
:102C5000438120E1420F08F44FEF8181628190E0CF
:102C60000C947122EDE2F4E0628120E1621B08F431
:102C700060E08181438190E00C947122EDE2F4E008
:102C8000628120E1620F08F46FEF8181438190E05F
:102C90000C947122EDE2F4E0818190E04381628145
:102CA00008970C947122EDE2F4E0818190E0438179
:102CB000628108960C94712280912D0486958695E8
:102CC000815009F487E20C946A1F80912D04869547
:102CD00086958F5F883208F081E00C946A1F0F930D
:102CE0001F93CF93DF93C42FD22FFC0182818823BF
:102CF000C9F040939F030E94B72890939E0380934E
:102D00009D0380E28C0F883008F057C0C77081E0C7
:102D100001C0880FCA95EAF7DF91CF911F910F91FB
:102D20000C94422A80919F03481330C080919D03E8
:102D300090919E030E949C28883C910538F510E2F2
:102D40001D0FCD17B9F080E28C0F883040F4C770AA
:102D500081E001C0880FCA95EAF70E94372A18302F
:102D600028F581E09D2F977001C0880F9A95EAF7AA
:102D70000E94422A802F0E94EA2A1830F0F4D7706D
:102D800081E001C0880FDA95EAF70AC080E28C0F73
:102D9000883098F4C77081E001C0880FCA95EAF7BF
:102DA000DF91CF911F910F910C94372A802FDF91E3
:102DB000CF911F910F910C94EA2ADF91CF911F912F
:102DC0000F910895CF93DF93C7E5D2E060E0CE0185
:102DD0000E94D02C2196C11584E0D807B9F7DF9165
:102DE000CF910895CF92DF92EF92FF920F931F93AE
:102DF000CF93DF93C0E0D0E08E0104571F4F6E01E8
:102E00008CE1C80ED11CFE01E65EFC4FE590F4900B
:102E10006F2DCE0187960E94D02C6E2DCE01889604
:102E20000E94D02C2296CC15DD0569F70C171D07E2
:102E300031F7E80100331240F9F6DF91CF911F918D
:102E40000F91FF90EF90DF90CF9008950F931F9315
:102E5000CF93DF93C42FD0E0CC0FDD1F2CE1629F16
:102E6000C00DD11D11243CE8839FC00DD11D11243C
:102E7000CE0187960E94B22C082F10E0102F002759
:102E8000CE0188960E94B22C9801282BC901DF91AF
:102E9000CF911F910F910895462F843038F47530EB
:102EA00028F46E3018F4672F0C94261780E090E019
:102EB0000895CF93C82F811102C06FEF01C061E266
:102EC00083E290E00E94D02CC11102C06FEF01C0DC
:102ED00061E184E290E00E94D02CC11102C06FEF4A
:102EE00001C066E285E290E0CF910C94D02C80E0A6
:102EF0000E94591760E086E290E00E94D02C0E9468
:102F0000F2160E94E21681E00C94591783E290E0D9
:102F10000E94B22C813281F484E290E00E94B22CB3
:102F2000813151F485E290E00E94B22C91E086322A
:102F300009F090E0892F01C080E081700895882316
:102F400011F0FA0101C0FB0109940C94F6120C94E3
:102F50000213EDE2F4E085E3808380911501909106
:102F60001601A091170181839283A3838FE7848345
:102F70008FEF858346E050E06CE170E0CF010C9468
:102F8000C02C482F982F46FD9095E92FEF739F7026
:102F900046FD9F5FE295EF70EE0FF0E0E55DFE4FBE
:102FA0002181299F802D212D112482958F702295BA
:102FB000207F822B3081982F930F892F47FD819599
:102FC000805808950F931F93CF93DF93D62F072F29
:102FD000182FC42F822F0E94C117EC2FF0E0EE0FA4
:102FE000FF1FE754FE4F90819058890F87FD819510
:102FF000880F682F2CE0629F612D11246D0F702FB8
:10300000812FDF91CF911F910F910895BC018230E4
:10301000910508F40895613E8EE1780748F49B011C
:1030200095E0369527959A95E1F748E0420F01C063
:103030004FEF91E0242F30E0290F311D3595279572
:10304000229FF001239FF00DF00D11246E177F07D2
:1030500018F44FEF420F04C02F3F39F091E0920F68
:10306000491740F78FEF890F08958FEF08950F9359
:10307000CF93DF93D72FC82F47FD4195E8E3F0E0CA
:10308000CF01841B910947FD9395889FB001899FCB
:10309000700D700D1124229FC001239F900D900D83
:1030A0001124860F971F0E940618682F660F860F3F
:1030B000682F600F7D2F8C2FDF91CF910F91089596
:1030C00020E030E0869F212D969F200D311D112498
:1030D000C9010895CF92DF92EF92FF920F931F9351
:1030E000CF93DF93F62E472FE82FF0E0711106C043
:1030F000E65EFD4F8491782F682F73C0272F30E054
:10310000E65EFD4FE491FE2F0E2F10E056E0659F26
:10311000C0011124CFEFD0E0BE010E94572D5BEA21
:103120005603C001579F900D11248F0D911D8F0DD7
:10313000911D982F990F980F7E01E21AF30AE09ED5
:10314000D001E19EB00DF09EB00D11248B2F499F50
:10315000A0011124452F55277E01E41AF50AE09EAF
:10316000A001E19E500DF09E500D11246E01C91A70
:10317000D108C29E7001C39EF00CD29EF00C1124A7
:103180002F2D3327C21BD30BC09F9001C19F300D41
:10319000D09F300D1124932F6230710591F048F4C7
:1031A00061157105E1F061307105B9F49E2FE52FCD
:1031B00016C06430710569F040F06630710579F031
:1031C0000CC09E2FEB2F832F0AC0EB2F8F2F952F34
:1031D00006C09B2F8E2FE32F02C09B2F852F7E2FA3
:1031E000692FDF91CF911F910F91FF90EF90DF90AA
:1031F000CF900895DF92EF92FF920F931F93CF939A
:10320000DF93EC01FC01E15CFD4F9081692381F1CA
:10321000D0902F040091300410912E04E12EF12C57
:103220000E94922C282FC7018C549F4F68E671E0B2
:103230000E946B2D8E199F0997FD03969595879592
:10324000959587952370612F289F600D11247D2D02
:10325000802F0E946A18462F282F672FCE01DF91FA
:10326000CF911F910F91FF90EF90DF900C94A717D3
:10327000DF91CF911F910F91FF90EF90DF90089514
:103280001F93CF93DF93FC01E15CFD4F208162230C
:10329000D1F0EC010E94922C182F0E94922C8F7773
:1032A000782F20E8720F08F47FEF612F80913004AF
:1032B0000E946A18462F282F672FCE01DF91CF91E9
:1032C0001F910C94A717DF91CF911F91089580E073
:1032D00008959091840292FF0DC0282F2871283004
:1032E00019F4877F846006C0282F2471243011F4DC
:1032F0008B7F886093FF0DC0282F2871283119F427
:10330000877E846106C0282F2471243111F48B7EBE
:1033100088612091850220FF0DC0382F3871383028
:1033200019F4877F816006C0382F3171313011F474
:103330008E7F886021FF0DC0282F2871283119F455
:10334000877E816106C0282F2171213111F48E7E84
:10335000886194FD877E0895F894E82FE295EF70D8
:10336000F0E031A1282F2F7081E090E001C0880F9C
:103370002A95EAF7982F9095932391A392A1892BF0
:1033800082A3789408956F927F928F929F92AF92CA
:10339000BF92CF92DF92EF92FF920F931F93CF9342
:1033A000DF93CDB7DEB72A970FB6F894DEBF0FBE16
:1033B000CDBFAE014F5F5F4F7A018AE0DA011D9207
:1033C0008A95E9F708E111E06A018DE1682E81E054
:1033D000782E88248394912CF80180818F3F09F402
:1033E0004DC0F894E82FE295EF70F0E021A18F70C6
:1033F000A40102C0440F551F8A95E2F7CA01922F1B
:10340000982B91A392A18095892382A3789400C0E0
:10341000EDE1F1E020E030E0A12CB12C81918F3F73
:10342000C1F0A82FA295AF70B0E090964C9150E0FB
:103430008F70DA0102C0B595A7958A95E2F7A0FDD5
:1034400008C0C401022E02C0880F991F0A94E2F737
:1034500002C080E090E0A82AB92A2F5F3F4F2E30AB
:103460003105E1F6F80180818F3F11F00E94AC191F
:10347000F0EAFA95F1F7D601AD92BC920F5F1F4FBB
:10348000B2E0CB0ED11C6016710609F0A5CF4AE060
:1034900050E0B70186E892E00E948C2D11E0009781
:1034A00009F410E0892B89F08AE0F701A6E8B2E080
:1034B00001900D928A95E1F781E08093E8030E94E4
:1034C000B7289093E7038093E6038091E80388236D
:1034D00091F18091E6039091E7030E949C28059763
:1034E00050F180918602909187029093CA02809356
:1034F000C90280918802909189029093CC028093B6
:10350000CB0280918A0290918B029093CE0280939D
:10351000CD0280918C0290918D029093D002809385
:10352000CF0280918E0290918F029093D20280936D
:10353000D1021092E803812F2A960FB6F894DEBFCD
:103540000FBECDBFDF91CF911F910F91FF90EF90F4
:10355000DF90CF90BF90AF909F908F907F906F90B3
:103560000895CF93DF938238910569F1B0F48133E8
:10357000910509F46FC048F48932910509F465C0DA
:103580008A32910509F46BC08AC08533910509F42C
:1035900057C089339105B9F082C0833E910571F11E
:1035A00038F4803E9105B1F0823E910511F177C06B
:1035B000863E9105B9F1873E9105C9F1843E91059A
:1035C00009F06DC024C02091840220FD53C021FD6C
:1035D00051C065C08091840280FD46C08091850203
:1035E00080FF48C08091840284FD50C183EE90E04A
:1035F0004FC18091840282FF3AC0F4CF809184024F
:1036000082FD35C08091850280FD34C0EBCF809172
:10361000850281FF35C08091840284FD37C187EE29
:1036200090E036C18091840283FF27C0F4CF80915F
:10363000840283FD22C08091850281FD21C0EBCFF1
:103640008091840285FD1FC021C08091840285FD88
:103650001DC019C08091840286FD1BC01DC08091D1
:10366000840286FD19C015C089E390E011C182EE85
:1036700090E00EC180EE90E00BC186EE90E008C1B4
:1036800084EE90E005C189E290E002C185E390E01C
:10369000FFC08AE290E0FCC081E390E0F9C08115B0
:1036A00031E5930708F069C0811540E59407F0F013
:1036B0009C0174E0369527957A95E1F7922F9370E7
:1036C000482F437021E030E002C0220F331F4A959B
:1036D000E2F73C68392B982F9F709695969540E2BB
:1036E000949FC0011124822B932BD2C0883E910558
:1036F00068F5803E910508F0CBC0883A9105B8F492
:10370000853A910548F0855AE82FF0E0ED5CFE4FD0
:10371000808190E09064BCC08130910509F4B3C011
:1037200008F4B4C08430910508F4B0C0B1C08F3B38
:10373000910508F0ABC0885AE82FF0E0EE0FFF1FAC
:10374000EA5CFE4F808191819464A2C0811520E2E1
:10375000920758F4811531E0930708F099C0803F33
:10376000910508F493C0906593C0811540E49407D7
:1037700008F48CC09F70906A8BC0811525E5920774
:1037800008F042C0811534E5930728F0982F882768
:10379000846F906A7DC0811543E59407B0F09C0169
:1037A0002370332741E050E002C0440F551F2A9593
:1037B000E2F7282F2695269580E2289F9001112474
:1037C000CA01822B932B9A6863C0811522E5920768
:1037D00028F4982F8827816F906A5AC09C01237023
:1037E000332741E050E002C0440F551F2A95E2F70D
:1037F000282F2695269580E2289F90011124CA0142
:10380000822B932B9C6844C0EC01811539E593070A
:10381000A8F48115984528F09C2F8827806F906A1E
:1038200037C0C11586E5D80788F58C2F0E94691925
:103830008F7190E0982F882790622AC081152AE521
:10384000920790F48C2F8F700E94691994E0D6959E
:10385000C7959A95E1F7CF70D0E0DC2FCC27D069DF
:103860009E01282BC90114C090568115904270F416
:103870008D2F8F710E946919282F2F71CE019927E2
:103880009062922B05C081E090E002C080E090E061
:10389000DF91CF910895CF9384E090E00E94B22C05
:1038A000C82F82E290E00E94B22C2C2F30E0A901B8
:1038B000582BCA01CF91089580E090E00E94BA2C65
:1038C000893E9E4F11F40C94861780E0089569EEAE
:1038D0007EEF80E090E00E94EE2C60E082E090E0DD
:1038E0000E94D02C60E083E090E00E94D02C1092E7
:1038F000E50360E084E090E00E94D02C60E082E28A
:1039000090E00E94D02C60E085E090E00E94D02CF6
:1039100060E086E090E00E94D02C6FEF87E090E0BE
:103920000E94D02C40E050E0BA0188E090E00E9474
:10393000E22C60E08DE090E00E94D02C40E050E06E
:10394000BA0188E190E00E94E22C60E087E190E01B
:103950000E94D02C40E050E0BA018CE190E00E943F
:10396000E22C60E070E080E290E00E94EE2C40E00B
:1039700050E0BA0188E190E00E94E22C80E00E94D1
:1039800059170E94771740E050E0BA018FE090E0AD
:103990000E94E22C40E050E0BA0183E190E00C94F8
:1039A000E22C8091E40381111092E4030895909138
:1039B000E3038091E203892B2091E103982F922B5E
:1039C0009093A0038091E403882389F0892B80934E
:1039D000A003E2EAF3E097E080E0915029F0219122
:1039E0002223D9F38F5FF9CF81110E94D11CE0917E
:1039F0003604F0913704309731F00280F381E02DE6
:103A000080EA93E009940895CF93C0918502C2FBA8
:103A1000992790F9981781F080FBC2F9C09385022D
:103A20006091840284E090E00E94D02C6C2F82E2AE
:103A300090E0CF910C94D02CCF9108952091E00389
:103A4000809582238093E003982F977041F430E0B3
:103A5000482F082E000C550B2417350721F49091A0
:103A6000850292FF07C08595859585950E94E52979
:103A70001092E00308958091DF039091AE038917BF
:103A800019F08F5F8770FBCF08950F931F93CF932B
:103A9000DF938091AD0382958F7009F05DC08091B6
:103AA000AA03882309F458C08091DF031091AE0364
:103AB0006091A8037091A903C091AB03D091AC03AE
:103AC00091E06F3F09F090E0292F06E0811709F49B
:103AD00043C0209721F07F3F21F030E003C031E068
:103AE00001C0322F90E030FD34C0089FF001099FE3
:103AF000F00D1124DF01A155BC4F11963C91119797
:103B0000371327C03C91361324C012963C9112976C
:103B100031111FC013964D915C9114974C1B5D0B96
:103B2000483C5105B0F48091AD038F708061809363
:103B3000AD03EC54FC4F80818F708061808388EAF4
:103B400093E00E94A50CDF91CF911F910F910C94EF
:103B50003B1D01968770BACFDF91CF911F910F91D6
:103B60000895CF93DF93EC010E945B29BE010E9470
:103B70004C170E94B11ADF91CF9108959F92AF9296
:103B8000BF92CF92DF92EF92FF920F931F93CF934A
:103B9000DF93CDB7DEB761970FB6F894DEBF0FBEE7
:103BA000CDBF8C0185E0F801DE011D9601900D92DC
:103BB0008A95E1F7F801E2809091A8036091A9034A
:103BC0004091AB035091AC034115510531F06F3F6B
:103BD00031F481E09F3F19F403C081E001C080E02F
:103BE000F82FF1709F2E80FD1AC1F80130812181DC
:103BF000C380D48088EAA82E83E0B82EF090AA0370
:103C0000F601E41BF50BFF2009F4C6C08091AD035B
:103C1000E83CF10508F091C0482F407F09F050C002
:103C2000621311C093130FC0FE2CE1100CC08F70F3
:103C300080618093AD03C5010E94A50C8091AD0306
:103C4000F801858329C1CD2831F02F3F31F481E07F
:103C50003F3F19F403C081E001C080E080FD03C054
:103C600081E08E2502C080E090E0F82FF170FF2EF9
:103C700080FF1CC08091DF034091AE0356E08417A3
:103C800009F4E8C090E0589FF001599FF00D11240D
:103C9000E155FC4F6181261306C06081631303C0A8
:103CA0006281E61203C001968770E9CFFE2CEE20F8
:103CB00009F4F2C08091AD0381608093AD0349C0E7
:103CC000621306C0931304C0E11002C0F80186C05D
:103CD000C8010E94002A882351F1EE2041F1209171
:103CE000AD03822F82958F7090E0029774F08091DF
:103CF000A8039091A90398878F831986DB86CA86CB
:103D00002C87CE0107960E94A50C86E0F801A8EA50
:103D1000B3E001900D928A95E1F70E94451D0AC01B
:103D20006217C9F0C8010E94002A81111EC0C80193
:103D30000E94A50CFF24F394AFC0482F407F81F769
:103D400088EA93E00E94A50C86E0F50111928A951D
:103D5000E9F7F12CA1C09313E5CFE110E3CFF8010F
:103D60008583C8010E94A50C54C0EE2001F3209168
:103D7000AD03822F82958F7090E0029734F280918C
:103D8000A8039091A9039A8389831B82DD82CC8248
:103D90002E83CE010196B7CFE83CF105D0F5FE2C7D
:103DA000EE2029F2621327C0931325C02091AD03A2
:103DB00020FD18C0822F82958F70482F50E041154A
:103DC000510581F0F80125834F30510541F08F5F97
:103DD000982F9295907F822F8F70892B8583C801B1
:103DE0000E94A50C86E0F801A8EAB3E001900D92CC
:103DF0008A95E1F751C0C8010E94002A811185CF40
:103E00008091AD0381608093AD03C8010E94A50C31
:103E100043C086E0F50111928A95E9F73DC0EE2096
:103E200009F485CFC8010E94002AF82E882309F4DE
:103E30007ECF86E0F801A8EAB3E001900D928A9562
:103E4000E1F78091A8039091A9030E94B11D0E94FF
:103E5000451D22C03D872E878D859E850E94B11D00
:103E6000292F22952F70223028F49F7039F081116C
:103E700005C00BC0243028F49F7049F4805E883060
:103E800020F0C8010E94A50C9F2CF92C05C0F80158
:103E90009581907F99F7F9CF8F2D61960FB6F894A1
:103EA000DEBF0FBECDBFDF91CF911F910F91FF906D
:103EB000EF90DF90CF90BF90AF909F90089580914A
:103EC0003304982F9670963011F4886001C0877F74
:103ED0000C94E12990912D04937091F0811102C00E
:103EE000946007C0883210F09C6903C0880F880F67
:103EF000982B90932D041092140181E080932C0450
:103F000008952F923F924F925F926F927F928F927D
:103F10009F92AF92BF92CF92DF92EF92FF920F9358
:103F20001F93CF93DF93CDB7DEB727970FB6F894E3
:103F3000DEBF0FBECDBF282E4B01209111018EE0B8
:103F4000289F802D11248E83182F125F143408F0BF
:103F500013E43091030439839E81911708F07CC0EB
:103F60008E81682E712CF301E15CFD4F9081809170
:103F70001201892309F46CC030902E0440902F0464
:103F8000522C1F82C301880F991FDC01A754BE4F1A
:103F9000BB83AA83C301880F991FFC01E654FE4F1F
:103FA000FD83EC83F9815F1608F040C0E52CF12C0D
:103FB000AA81BB81CC90D12CF701ED5FFB4F8181B1
:103FC000C81AD108AC81BD81AC90B12C8185A81AEA
:103FD000B108CC9C9001CD9C300D300D1124AA9CD1
:103FE000C001AB9C900D900D1124820F931F0E9475
:103FF0000618082F6091310421E0620F08F46FEF7A
:10400000F701EE0FFF1FED5FFB4F818D928D0E9438
:1040100060187C019501A601632D742D8F81F40138
:104020000995362E472E8F835394BCCF20913004B0
:104030008F81382F329F312D1124832F632D742DC2
:104040000E946A18462F282F672FC3010E94A717C6
:104050008E818F5F8E8380CF81E0133408F080E003
:1040600027960FB6F894DEBF0FBECDBFDF91CF917C
:104070001F910F91FF90EF90DF90CF90BF90AF9086
:104080009F908F907F906F905F904F903F902F9078
:104090000895CF92DF92EF92FF920F931F93CF93E9
:1040A000DF938C01C09111018EE0C89FC02D1124B7
:1040B000DEE0DC0FD43408F0D3E42091310431E0A9
:1040C000230F08F42FEF30E040E050E06FEF7FEF78
:1040D00080E090E00E94F42C7901CD1708F041C0F7
:1040E000CC2ED12CF601E15CFD4F90818091120124
:1040F0008923A9F190910304915097FD15C0492F90
:10410000092E000C550BFA01ED5FFB4F8189C81396
:10411000F3CF440F551FFA01ED5FFB4F218D328D18
:104120002E153F0548F701C097016091310441E029
:10413000640F08F46FEFC9010E946018AC01609130
:104140002E0470912F0480913004F80109950E948B
:104150006A18462F282F672FC6010E94A717CF5F26
:10416000BCCF81E0D33408F080E0DF91CF911F9184
:104170000F91FF90EF90DF90CF900895DF92EF9234
:10418000FF920F931F93CF93DF938C01C091110186
:104190008EE0C89FC02D1124DEE0DC0FD43408F07F
:1041A000D3E4609131046695669521E0620F08F4CE
:1041B0006FEF8091FF03909100040E946018D82E49
:1041C000CD17F0F4EC2EF12CF701E15CFD4F90815E
:1041D00080911201892391F060912E0470912F0437
:1041E000809130042D2D4C2FF80109950E946A18FA
:1041F000462F282F672FC7010E94A717CF5FE0CF58
:1042000081E0D33408F080E0DF91CF911F910F91CE
:10421000FF90EF90DF9008959F92AF92BF92CF9260
:10422000DF92EF92FF920F931F93CF93DF936C0176
:10423000C09111018EE0C89FC02D1124DEE0DC0F7B
:10424000D43408F0D3E4609131046695669580918A
:10425000FF03909100040E946018182F80E4810FE2
:104260000E94C11790E8F92EF80E812F0E94C11705
:1042700020E8922E980ECD1700F5AC2EB12CF5014A
:10428000E15CFD4F9081809112018923A1F0609142
:104290002E0470912F0480913004E12E0C2F292DD3
:1042A0004F2DF60109950E946A18462F282F672F77
:1042B000C5010E94A717CF5FDECF81E0D33408F09D
:1042C00080E0DF91CF911F910F91FF90EF90DF90F1
:1042D000CF90BF90AF909F9008956F927F928F92F2
:1042E0009F92AF92BF92CF92DF92EF920F931F9364
:1042F000CF93DF933C01C09111018EE0C89FC02D88
:104300001124DEE0DC0FD43408F0D3E460913104F2
:1043100066958091FF03909100040E946018182F09
:10432000CD1708F044C08C2E912CF401E15CFD4FB8
:104330009081809112018923C1F1F401EE0FFF1FDA
:10434000E754FE4FC080D12C80E7C81AD108F40191
:10435000EE0FFF1FE654FE4FA080B12CE0E2AE1A34
:10436000B108CC9C9001CD9C300D300D1124AA9C3D
:10437000C001AB9C900D900D1124820F931F0E94E1
:104380000618082F60912E0470912F04809130043C
:10439000E12E9501A601F30109950E946A18462FA6
:1043A000282F672FC4010E94A717CF5FB9CF81E0E4
:1043B000D33408F080E0DF91CF911F910F91EF90FF
:1043C000DF90CF90BF90AF909F908F907F906F9035
:1043D0000895CF92DF92EF92FF920F931F93CF93A6
:1043E000DF936C01C09111018EE0C89FC02D112494
:1043F000DEE0DC0FD43408F0D3E46091310466953C
:104400008091FF03909100040E946018182FCD172F
:1044100078F5EC2EF12CF701E15CFD4F9081809155
:104420001201892319F1F701EE0FFF1FE654FE4F29
:10443000208130E020523109F701EE0FFF1FE754D1
:10444000FE4F408150E04057510960912E04709119
:104450002F0480913004012FF60109950E946A18FB
:10446000462F282F672FC7010E94A717CF5FCFCFF6
:1044700081E0D33408F080E0DF91CF911F910F915C
:10448000FF90EF90DF90CF900895EF92FF920F93FF
:104490001F93CF93DF937C018B010E9437268111FC
:1044A00019C0E70101151105A1F08091E80085FD13
:1044B0000AC08091E8008E778093E8000E9437263A
:1044C000882381F307C089918093F100015011097D
:1044D000E9CF80E0DF91CF911F910F91FF90EF9096
:1044E000089590912D04937061F080932E04609351
:1044F0002F04453B08F044EB4093300481E0809367
:104500002C0408951F93CF93DF93CDB7DEB7AA97FE
:104510000FB6F894DEBF0FBECDBFE7EFF3E080919A
:10452000F100819343E0EF3FF407C9F78091F8036E
:10453000833009F462C030F4813071F0823009F4C4
:104540009CC0B3C08A3009F488C08B3009F46DC0B8
:10455000893009F0AAC020C08091F703813A09F0A0
:10456000A4C08091E800877F8093E8008091FB03DE
:104570009091FC03892B21F468E08BEE93E003C05B
:1045800060E080E090E070E00E94F4278091E80015
:104590008B778093E80089C08091F703813209F01E
:1045A00084C08091FB039091FC03009719F002975F
:1045B00009F07BC08091E800877F8093E8008091BC
:1045C000E80082FD05C08091F5038111F8CF6DC030
:1045D0002091F3008091F20090E0922B029729F451
:1045E0008091F1008B7F813021F48091F1008093E4
:1045F000EA038091E8008B7754C08091F703813AF9
:1046000009F053C08091FB039091FC03892B09F0C2
:104610004CC08091E800877F8093E8008091E8009B
:1046200080FFFCCF8091100137C08091F703813269
:10463000E1F58091FB039091FC03892BB1F580910A
:10464000E800877F8093E8000E946A268091F90342
:10465000809310010E942C2A28C08091F703813298
:1046600021F58091E800877F8093E8000E946A2608
:104670008091FA038093E90318C08091F703813A8F
:10468000A1F48091E800877F8093E8008091E800A2
:1046900080FFFCCF8091E9038093F1008091E800D6
:1046A0008E778093E8000E946A268091E80083FF5D
:1046B000DDC18091F7039091F803492F50E04A3013
:1046C000510508F0D3C1FA01E356FF4F0C947F2D3A
:1046D000803821F0823809F0C9C108C08091F30305
:1046E0009091F403992389F082600FC08091FB03BD
:1046F0008F70873008F0BAC18093E9008091EB0099
:1047000085FB882780F91092E9009091E800977F57
:104710009093E8008093F1001092F10070C1282F6F
:104720002D7F09F0A3C1882319F0823061F09EC16A
:104730008091F903813009F099C1933009F080E04C
:104740008093F4032EC08091F90381112AC08091D7
:10475000FB038F702FEF280F263008F087C180935E
:10476000E9002091EB0020FF1CC0933021F48091E0
:10477000EB00806214C09091EB0090619093EB008D
:1047800021E030E0A90102C0440F551F8A95E2F7ED
:104790004093EA001092EA008091EB0088608093D9
:1047A000EB001092E9008091E800877F8093E80099
:1047B0000E946A265BC1811159C11091F9031F77CC
:1047C0008091E3008078812B8093E3008091E80062
:1047D000877F8093E8000E946A268091E80080FF2E
:1047E000FCCF8091E30080688093E300111102C048
:1047F00082E001C083E08093F50338C180588230A5
:1048000008F034C12091F9033091FA032C3D53E0B4
:10481000350779F583E08A838AE289834FB7F89474
:10482000DE01139620E03EE051E2E32FF0E05093EA
:104830005700E49120FF03C0E295EF703F5FEF70F7
:104840008E2F90E0EA3010F0C79601C0C0968D938D
:104850009D932F5F243149F74FBF8091E800877FF8
:104860008093E8006AE270E0CE0101960E94F4278E
:10487000B4C08091FB039091FC03432F5527433034
:104880005105A9F068F44130510509F4FEC04230E9
:10489000510509F0EBC08BE590E0E7E2F6E04BC094
:1048A0004132510529F14232510589F1DFC0C90178
:1048B000992781309105A1F058F0029709F0D6C0F0
:1048C000E4E9F6E0E4918E2F90E0E4E9F6E030C010
:1048D000EEECF6E0E4918E2F90E0EEECF6E028C0EE
:1048E000E4EBF6E0E4918E2F90E0E4EBF6E020C0FC
:1048F0008330910508F0BAC0880F991FFC01E35975
:10490000FE4F0190F081E02D89E090E014C08330EB
:10491000910508F0ABC0FC01EE0FFF1FE959FE4FF7
:104920000190F081E02DDC01AC59BE4F8C9190E0FC
:10493000009709F49BC02091E800277F2093E800AE
:104940002091FD033091FE032817390708F4C901AF
:1049500040E0009789F12091F503222309F43DC03E
:104960002530D9F12091E80023FD37C02091E800DF
:1049700022FD2FC02091E80020FFEBCF4091F300F3
:104980002091F20030E0342B009759F028303105A7
:1049900040F444914093F100319601972F5F3F4FCF
:1049A000F3CF41E02830310509F040E02091E800E4
:1049B0002E772093E800CDCF4111CDCF0AC0809152
:1049C000F503882351F0853041F08091E80083FDA4
:1049D00004C08091E80082FFF2CF8091E8008B77DD
:1049E0008093E80043C0803809F040C08091E8001F
:1049F000877F8093E8008091F6038093F100809197
:104A0000E8008E77D3CE811131C08091F903909167
:104A1000FA039927029754F58091E800877F8093E5
:104A2000E8001091F9031093F6030E946A26111111
:104A300006C08091E30087FD02C081E001C084E0F0
:104A40008093F50342E061EC81E00E94892642E216
:104A500061EC84E00E94892642E261EC82E00E94DF
:104A6000892642E260EC83E00E9489268091E8007A
:104A700083FF10C08091E800877F8093E8008091D9
:104A8000EB0080628093EB0005C082E190E0E2E8F9
:104A9000F6E051CFAA960FB6F894DEBF0FBECDBF99
:104AA000DF91CF911F9108958091EA03089590912D
:104AB000F503943029F580933F047093410460938B
:104AC00040049093E9008FEF9091E800815095FDAC
:104AD00006C095ED9A95F1F700008111F5CF809110
:104AE000E80085FF0DC040E050E063E070E08FE338
:104AF00094E00E9445228091E8008E778093E80040
:104B00000895BC0184E00C945725BC0183E00C940B
:104B1000572524E02093E9002FEF3091E800215041
:104B200035FD06C035ED3A95F1F700002111F5CFBE
:104B30002091E80025FF0BC040E050E066E070E007
:104B40000E9445228091E8008E778093E8000895C6
:104B5000CF93DF9321E02093E9002FEF3091E8001D
:104B6000215035FD06C035ED3A95F1F700002111D1
:104B7000F5CF2091E80025FF14C0EC0140E050E0A3
:104B800068E070E00E9445228091E8008E77809373
:104B9000E80088E0FE01ABEEB3E001900D928A954B
:104BA000E1F7DF91CF9108951F920F920FB60F9208
:104BB00011242F933F934F935F936F937F938F9322
:104BC0009F93AF93BF93CF93DF93EF93FF93C091E6
:104BD000E900CF708091EC00D82FD17080FDD0E833
:104BE0001092E9008091F000877F8093F000789424
:104BF0000E9482221092E9008091F00088608093E8
:104C0000F000CD2BCF70C093E900FF91EF91DF91C1
:104C1000CF91BF91AF919F918F917F916F915F9154
:104C20004F913F912F910F900FBE0F901F901895AD
:104C3000E8EDF0E080818E7F80831092E200109298
:104C4000DA001092E100A0EEB0E08C9181608C93CC
:104C500080818F77808319BCA7EDB0E08C918E7F27
:104C60008C9380818F7E80831092420408952091DE
:104C7000E4003091E50095E64091EC00842F8170CE
:104C800040FF23C08091E80080FD1DC08091F503A6
:104C9000882399F0853099F08091EB0085FD11C053
:104CA0004091E4005091E5002417350729F3915015
:104CB00011F09A01E1CF84E0089582E0089583E045
:104CC000089581E0089580E008954091E80042FF52
:104CD000DDCF08958091F70387FF11C08091E80030
:104CE00082FD05C08091F5038111F8CF11C080913C
:104CF000E8008B770BC08091F503882349F0809101
:104D0000E80080FFF8CF8091E8008E778093E8007C
:104D10000895982F973068F59093E900981739F027
:104D20007091EC002091ED005091F00003C0242F11
:104D3000762F50E021FD02C09F5FECCF3091EB0059
:104D40003E7F3093EB003091ED003D7F3093ED00DE
:104D50003091EB0031603093EB007093EC002093C6
:104D6000ED005093F0002091EE0027FDE5CF80E0AC
:104D700008958F708093E90081E00895CF92DF92CB
:104D8000EF92FF920F931F93CF93DF93C8EDD0E084
:104D900088818F7E8883E7EDF0E080818160808369
:104DA00084E082BF81E08093420488818E7F888383
:104DB00002EE10E0F80110821092DA0081EEC82EA7
:104DC000D12CF601108288818F7788838881806852
:104DD000888388818F7D888319BC1092F503109297
:104DE000F6031092F4031092F30390EEE92EF12CE7
:104DF000F70180818B7F808388818160888342E096
:104E000060E080E00E948926F60180818E7F8083A9
:104E1000F801808181608083808188608083F701D0
:104E200080818E7F8083888180618883DF91CF91AC
:104E30001F910F91FF90EF90DF90CF9008951F92F8
:104E40000F920FB60F9211242F933F934F935F93BE
:104E50006F937F938F939F93AF93BF93EF93FF9342
:104E60008091E10082FF09C08091E20082FF05C0CD
:104E70008091E1008B7F8093E1008091DA0080FFD8
:104E80002AC08091D80080FF26C08091DA008E7FF2
:104E90008093DA008091D90080FF18C080E189BD3D
:104EA00082E189BD09B400FEFDCF81E08093F50366
:104EB0008091420481110FC00E9418260E94BE26D4
:104EC0008091E20084608093E20005C019BC1092DA
:104ED000F503109242048091E10080FF17C0809199
:104EE000E20080FF13C08091E2008E7F8093E20099
:104EF0008091E20080618093E2008091D80080621E
:104F00008093D80019BC85E08093F5038091E1007F
:104F100084FF2EC08091E20084FF2AC080E189BD19
:104F200082E189BD09B400FEFDCF8091D8008F7D5C
:104F30008093D8008091E1008F7E8093E100809182
:104F4000E2008F7E8093E2008091E2008160809396
:104F5000E2008091F603882311F084E007C080917D
:104F6000E30087FD02C081E001C083E08093F50388
:104F70008091E10083FF27C08091E20083FF23C07E
:104F80008091E100877F8093E10082E08093F503C8
:104F90001092F6038091E1008E7F8093E100809172
:104FA000E2008E7F8093E2008091E2008061809336
:104FB000E20042E060E080E00E9489268091F000FB
:104FC00088608093F000FF91EF91BF91AF919F9126
:104FD0008F917F916F915F914F913F912F910F90A2
:104FE0000FBE0F901F9018952091FD033091FE0386
:104FF0002617370748F06115710539F42091E8004C
:105000002E772093E80001C0B901FC0120E0611572
:10501000710579F18091F5038823F1F18530F1F183
:105020008091E80083FD3CC08091E80082FD2EC0A5
:105030008091E80080FFEBCF2091F3008091F20097
:1050400090E0922B6115710551F08830910538F48C
:1050500021912093F100615071090196F3CF21E075
:10506000089709F020E08091E8008E778093E800AF
:10507000CECF2111CFCF0AC08091F503882361F0F4
:10508000853061F08091E80083FD0AC08091E800DE
:1050900082FFF2CF80E0089582E0089583E00895D2
:1050A00081E0089581E08093E00080E28093D80061
:1050B0001092C9008FE19EE40197F1F700C0000053
:1050C00087E090EBDC0180936B0490936C04A093D9
:1050D0006D04B0936E049CE088E10FB6F894A89537
:1050E000809360000FBE90936000FFCF78941F9272
:1050F0000F920FB60F9211248F939F93AF93BF938C
:1051000080913B0490913C04A0913D04B0913E04F9
:105110000196A11DB11D80933B0490933C04A09384
:105120003D04B0933E04BF91AF919F918F910F903A
:105130000FBE0F901F9018959C014FB7F894809167
:105140003B0490913C04A0913D04B0913E044FBFBC
:10515000821B930B08952FB7F89460913B047091D4
:105160003C0480913D0490913E042FBF08952FB7D9
:10517000F89480913B0490913C04A0913D04B0913F
:105180003E042FBF08951F920F920FB60F92112465
:105190008F939F93AF93BF9380913A04811113C073
:1051A00080913B0490913C04A0913D04B0913E0459
:1051B0004196A11DB11D80933B0490933C04A093A4
:1051C0003D04B0933E04BF91AF919F918F910F909A
:1051D0000FBE0F901F9018959C01FC0132969FEF17
:1051E00080E04191461789F09F3F19F4411101C0B9
:1051F000982F8F5F8630A9F79F3F39F0F901E90FAB
:10520000F11D97FDFA956283089508952091380461
:10521000309139042817390771F09093390480933D
:105220003804E0913604F0913704309721F000847F
:10523000F185E02D099408952091340430913504CE
:105240002817390771F09093350480933404E09166
:105250003604F0913704309721F00680F781E02D75
:1052600009940895E0913604F0913704309721F0C5
:105270000190F081E02D099480E0089580E090E0B5
:105280000E941C2980E090E00E9406291092E2030F
:105290001092E1030E94D71CE5E6F4E086E0DF010E
:1052A0001D928A95E9F710925F0410925E041092A5
:1052B00060040C94082BCF92DF92FF920F931F9300
:1052C000CF93DF936C01009133048091E503082BA9
:1052D000C7E0D0E010E0C8010C2E02C0959587957C
:1052E0000A94E2F780FD04C02197A8F7F12C09C0C9
:1052F000FC2EB6018C2F0E944C170E94B11A019708
:1053000099F38F2DDF91CF911F910F91FF90DF9037
:10531000CF9008952EE0929F800D1124682F6695FE
:1053200066956695982F977083E0689FB001112469
:1053300040E050E080E0FB01E40FF51FED5BFB4F28
:10534000208130E0092E02C0369527950A94E2F7B5
:1053500021703327042E01C0220F0A94EAF7822B12
:105360004F5F5F4F4330510531F708952EE0929F14
:10537000800D1124E82FE695E695E695877051E0BB
:1053800001C0550F8A95EAF783E0E89FF0011124E8
:10539000ED5BFB4F20E030E070E04081CB01022E5E
:1053A00002C0969587950A94E2F7817081958427CB
:1053B0008523842781932F5F3F4F2330310569F781
:1053C0000895809333040C943E2921E030E001C01D
:1053D000220F8A95EAF720958091330482230C945A
:1053E000E12921E030E001C0220F8A95EAF780919F
:1053F0003304822B0C94E1298093E5030C943E291D
:10540000FC01808191810E94B11D292F2F70E92F0D
:10541000E295EF704E2F50E0FA013297EE30F10531
:10542000B8F4E955FF4F0C947F2D803F99F018F4A4
:10543000883E70F40FC0843F59F40CC0883E50F091
:10544000813F31F407C0822F869586958695089511
:1054500080E0089581E008951092E30386E0E2EA97
:10546000F3E0DF011D928A95E9F70C943E29882329
:1054700041F080959091E30389238093E3030C949A
:10548000D71C0895882339F09091E303892B8093EA
:10549000E3030C94D71C08958823E1F19CEF980F47
:1054A000913A60F4E0EAF3E09281891301C012823C
:1054B000319643E0E63AF407B9F714C090E2980F4A
:1054C000983090F4877021E030E0A90102C0440FC9
:1054D000551F8A95E2F7CA0180959091E3038923CD
:1054E0008093E3030C94D71C9BE5980F933020F432
:1054F00080E090E00C941C2998E5980F973120F4F7
:1055000080E090E00C940629803F20F00E94322B2E
:105510000C94082B0895CF93882309F459C0C82F01
:105520008CEF8C0F813AF8F4E2EAF3E088EA93E03A
:105530002191C21721F08E179F07D1F70EC0E0EA24
:10554000F3E086EA93E02281C21301C01282319611
:105550008E179F07C1F70E94D71C6C2F80EA93E03B
:105560000E94EC2810C080E28C0F883078F4C7705D
:1055700081E090E001C0880FCA95EAF79091E303BB
:10558000892B8093E303CF910C94D71CEBE5EC0FB0
:10559000E33040F4F0E0ED5CFE4F808190E0CF918D
:1055A0000C941C29E8E5EC0FE73150F4F0E0EE0F25
:1055B000FF1FEA5CFE4F80819181CF910C940629F8
:1055C000C03F30F08C2F0E94EB2BCF910C94082B16
:1055D000CF9108951F93CF93DF93182F893319F03C
:1055E000C0E0D0E002C0C0E5D0E0812F0E948B2A4D
:1055F000209741F08FE99FE00197F1F700C000008C
:105600002197F6CF812FDF91CF911F910C944C2AD7
:105610000E94B72820916704211104C020916804DA
:10562000222321F090936404809363042091690401
:10563000211104C020916A04222321F09093620476
:1056400080936104E0913604F0913704309749F07B
:1056500082E0809365040480F581E02D85E694E086
:1056600009940895803F39F49091680497FF35C0FC
:105670001092680459C0813F29F49091680419166A
:10568000BCF32BC090916704823F29F497FF25C09B
:105690001092670449C0833F19F41916CCF31DC05A
:1056A00090916904893F29F41916BCF41092690499
:1056B0003BC08A3F19F497FF10C0F8CF8B3F39F4F5
:1056C00090916A0497FF09C010926A042DC08C3F24
:1056D00021F490916A041916BCF39CE0980F953060
:1056E00080F421E030E0A90102C0440F551F9A95D3
:1056F000E2F7CA018095909166048923809366043D
:1057000013C08D3F21F4809160048E7F0BC08E3FCB
:1057100021F4809160048D7F05C08F3F29F4809132
:1057200060048B7F8093600480916704811106C0C0
:1057300080916804811102C010925F048091690415
:10574000811106C080916A04811102C010925E042A
:1057500008958091600480FD16C081FD16C082FD11
:1057600018C080915E04882391F0883290F428E07C
:10577000829FC001112468E270E00E946B2D862F89
:10578000672B29F007C082E0089584E0089581E046
:10579000089588E008958091600480FD14C081FD23
:1057A00014C082FD16C080915F04882381F084318B
:1057B00080F422E3829FC001112464E170E00E9422
:1057C0006B2D862F08958CE0089589E1089585E07A
:1057D000089582E30895803F21F40E94CB2B8195A8
:1057E00004C0813F29F40E94CB2B80936804089564
:1057F000823F21F40E94CB2B819504C0833F29F482
:105800000E94CB2B809367040895893F19F40E946E
:10581000A92B05C08A3F31F40E94A92B8195809362
:10582000690408958B3F21F40E94A92B819504C03F
:105830008C3F29F40E94A92B80936A0408959CE070
:10584000980F953078F421E030E0A90102C0440FB0
:10585000551F9A95E2F7CA0190916604892B8093AF
:10586000660408958D3F21F48091600481600BC02F
:105870008E3F21F480916004826005C08F3F29F43F
:105880008091600484608093600408958F929F9259
:10589000AF92BF92CF92DF92EF92FF92CF93DF93BE
:1058A000EC01688179818A819B816115710581058F
:1058B000910521F464E279ED8BE597E02DE133EF7A
:1058C00041E050E00E94F42C49015A019B01AC01D7
:1058D000A7EAB1E40E94132D6B017C01ACEEB4EF9A
:1058E000A50194010E94212DDC01CB018C0D9D1D91
:1058F000AE1DBF1DB7FF03C00197A109B048888343
:105900009983AA83BB839F77DF91CF91FF90EF901C
:10591000DF90CF90BF90AF909F908F9008950E949E
:10592000462C089580E091E00E94462C0895A0E066
:10593000B0E08093000190930101A0930201B09325
:1059400003010895DC01CB01FC01F999FECF06C0EB
:10595000F2BDE1BDF89A319600B40D92415050402D
:10596000B8F70895F999FECF92BD81BDF89A9927AD
:1059700080B50895A8E1B0E042E050E00C94A42C7A
:10598000DC01A40FB51F4150504048F0CB01840FFB
:10599000951F2E910E94D12C41505040D0F7089570
:1059A000262FF999FECF92BD81BDF89A019700B4D8
:1059B000021639F01FBA20BD0FB6F894FA9AF99A78
:1059C0000FBE08950396272F0E94D12C0E94D02C41
:1059D000252F0E94D12C242F0C94D12C0196272FF7
:1059E0000E94D12C0C94D02C052E97FB1EF4009411
:1059F0000E940B2D57FD07D00E94262D07FC03D0D7
:105A00004EF40C940B2D50954095309521953F4FB9
:105A10004F4F5F4F089590958095709561957F4F9A
:105A20008F4F9F4F08950E94482DA59F900DB49FC2
:105A3000900DA49F800D911D11240895B7FF0C9423
:105A4000132D0E94132D821B930B0895A1E21A2E91
:105A5000AA1BBB1BFD010DC0AA1FBB1FEE1FFF1F12
:105A6000A217B307E407F50720F0A21BB30BE40B62
:105A7000F50B661F771F881F991F1A9469F76095A9
:105A80007095809590959B01AC01BD01CF01089563
:105A9000A29FB001B39FC001A39F700D811D11246F
:105AA000911DB29F700D811D1124911D0895AA1B97
:105AB000BB1B51E107C0AA1FBB1FA617B70710F0F9
:105AC000A61BB70B881F991F5A95A9F7809590952B
:105AD000BC01CD01089597FB072E16F4009407D062
