:100000000C946D030C94B4030C94B4030C94B403DB
:100010000C94B4030C94B4030C94B4030C94B40384
:100020000C94B4030C94B4030C94D5140C941114D4
:100030000C94401D0C94B4030C94B4030C94B403BE
:100040000C94B4030C94B4030C94B4030C94B40354
:100050000C94B4030C94AA160C94B4030C94B4033B
:100060000C94B4030C94B4030C94B4030C94B40334
:100070000C94B4030C94B4030C94B4030C94B40324
:100080000C94B4030C94B4030C94B4030C94B40314
:100090000C94B4030C94B4030C94B4030C94B40304
:1000A0000C94B4030C94B4030C94B403ED08ED0861
:1000B000280928098209A009AA0AAA0AAB091F0A65
:1000C000300A300ABD0EC00EF00EFD0E040F240FD4
:1000D000270F690F8A0F2C102C10950F970F9C0F6C
:1000E000C10FE30FE60FE90F0C1025124C12F313AA
:1000F0004C12F3139812BB12F313B013C0134E2516
:100100004E256125612557256125612561254E25EF
:100110004E255C25612561255C250000000000005E
:1001200000000000000000000000000000000000CF
:1001300000000000000000000000000000007E0F32
:1001400000D4FFFFFFC7000000780000000000009F
:1001500000002A2B28000000000000000000000022
:10016000000000000029000000002C1E3420212285
:1001700024342627252E362D3738271E1F202122EE
:10018000232425263333362E37381F040506070867
:10019000090A0B0C0D0E0F10111213141516171857
:1001A000191A1B1C1D2F3130232D35040506070895
:1001B000090A0B0C0D0E0F10111213141516171837
:1001C000191A1B1C1D2F3130354C00047F3F1F6452
:1001D0003214643214783C1E1E140A05050109020B
:1001E000A10185020901A1000509190129081500CD
:1001F0002501950875018102050109300931158134
:10020000257F95027508810609381581257F95019E
:1002100075088106050C0A38021581257F95017540
:10022000088106C0C005010980A101850319012AC2
:10023000B700150126B700950175108100C0050CA7
:100240000901A101850419012AA002150126A002B5
:10025000950175108100C00660FF0961A101096266
:10026000150026FF009520750881020963150026F8
:10027000FF00952075089102C005010906A101053E
:100280000719E029E71500250195087501810295F8
:1002900001750881010507190029FF150026FF00D7
:1002A0009506750881000508190129059505750150
:1002B0009102950175039101C009025B00030100E1
:1002C000A0FA090400000103010100092111010045
:1002D000012240000705810308000A090401000209
:1002E00003000000092111010001222200070582FC
:1002F0000320000107050303200001090402000197
:1003000003000000092111010001227B0007058480
:100310000320000A1201000200000008444C4100C2
:100320000100010200010A0342006F006C0074002A
:1003300000001C034C0041005A00590044004500D5
:100340005300490047004E00450052005300000092
:10035000040309042223252628292A2C2D2F303294
:10036000333536383A3B3D3E4042434547494A4C97
:100370004E5051535557595A5C5E606264666869C5
:100380006B6D6F71737577797B7D7F8183858789CD
:100390008A8C8E90929496989A9C9E9FA1A3A5A7D2
:1003A000A8AAACAEAFB1B3B4B6B8B9BBBCBEBFC1FE
:1003B000C2C3C5C6C7C9CACBCCCDCED0D1D2D2D389
:1003C000D4D5D6D7D7D8D9D9DADADBDBDBDCDCDC9D
:1003D000DCDCDDDDDDDDDCDCDCDCDCDBDBDBDADA60
:1003E000D9D9D8D7D7D6D5D4D3D2D2D1D0CECDCCD7
:1003F000CBCAC9C7C6C5C3C2C1BFBEBCBBB9B8B6EC
:10040000B4B3B1AFAEACAAA8A7A5A3A19F9E9C9A76
:1004100098969492908E8C8A89878583817F7D7B44
:1004200079777573716F6D6B6968666462605E5C25
:100430005A5957555351504E4C4A494745434240EB
:100440003E3D3B3A3836353332302F2D2C2A292881
:1004500026252322165C14001A0008001500170038
:100460001C0018000C00120013002A002B000400CE
:100470001600070009000A000B000D000E000F0017
:1004800033002800E1001D001B00060019000500D4
:10049000050011001000360037005200E000E200B5
:1004A0000000E3002C0000002C000151500051001E
:1004B0004F000251005C1E001F002000210022009E
:1004C00023002400250026002700000049003A00F0
:1004D0003B003C003D003E003F002D002E002F0061
:1004E0003000310000004000410042004300440061
:1004F000450000000000000000000000AA00A80065
:100500000000A90001000000010000000000000040
:1005100000000000005C000000000000000000007F
:1005200000000000000000000000000000000000CB
:1005300000000000000000000000000000000000BB
:1005400000000000000000000000000000000000AB
:10055000000000000000000000000000000000009B
:10056000000000000000000000000000000000008B
:10057000000000000000000000000000000000007B
:10058000000000000000000000000000000000006B
:10059000000000000000000000000000000000005B
:1005A000000000000000000000000000000000004B
:1005B000000000000000000000000000000000003B
:1005C000000000000000000000000000000000002B
:1005D000000000000001010101010101010102020E
:1005E00002020202020202030303030303030304E1
:1005F00004040404040405050505050606060606AC
:10060000070707070708080808090909090A0A0A65
:100610000B0B0B0C0C0C0D0D0D0E0E0E0F0F0F1007
:100620001011111112121313141415151616171791
:10063000181819191A1A1B1B1C1D1D1E1E1F2020FD
:10064000212222232424252626272829292A2B2C47
:100650002D2D2E2F30313232333435363738393A6A
:100660003B3C3D3E3F404142434445464748494A62
:100670004C4D4E4F50515354555658595A5B5D5E30
:100680005F616264656668696B6C6D6F70727375CB
:1006900077787A7B7D7E8082838587888A8C8E8F2F
:1006A00091939596989A9C9EA0A2A3A5A7A9ABAD5D
:1006B000AFB1B3B5B7BABCBEC0C2C4C6C9CBCDCF4B
:1006C000D1D4D6D8DBDDDFE2E4E7E9EBEEF0F3F5F9
:1006D000F8FAFDFFFFAA7F55400011241FBECFEF9F
:1006E000DAE0DEBFCDBF04B603FE27C080917802FA
:1006F00090917902A0917A02B0917B028730904B61
:10070000A740B04BD1F41092780210927902109267
:100710007A0210927B0214BE84B7877F84BF0FB623
:10072000F894A89580916000886180936000109291
:1007300060000FBEE0E0F8E3099511E0A0E0B1E051
:10074000EEE8FEE402C005900D92AE38B107D9F78D
:1007500022E0AEE8B1E001C01D92A837B207E1F790
:100760000E94FF0A0C9445270C9400001F93CF931E
:10077000DF93CDB7DEB767970FB6F894DEBF0FBE35
:10078000CDBF4B8B5C8B6D8B7E8B8F8B61111092F1
:10079000110286E09E01235F3F4FD901E82F1D9291
:1007A000EA95E9F795E0FE017396D90101900D9263
:1007B0009A95E1F79C894E895F897B897D879E8721
:1007C0006F87598B488BF901DE01179601900D92C6
:1007D0008A95E1F7CE0107960E943A1B81113EC02F
:1007E00086E0FE013796DE01119601900D928A9502
:1007F000E1F7FF81E8856A857B856115710531F038
:10080000EF3F31F481E0FF3F19F403C081E001C004
:1008100080E080FD23C02091DD0130E0C901019618
:100820008770992740910E0250E08417950779F15F
:10083000F983EA837D836C8396E0929FD001939F36
:10084000B00D1124A252BE4FFE01319601900D92BF
:100850009A95E1F78093DD010E94B71A16E0809126
:100860000E029091DD018917F9F0189FC001112443
:1008700082529E4F0E943A1B8823B1F080910E0253
:1008800090E001968770992780930E02E8CF0E942E
:1008900065251092DD0110920E02E7EDF1E086E091
:1008A000DF011D928A95E9F767960FB6F894DEBFCF
:1008B0000FBECDBFDF91CF911F9108953F924F9210
:1008C0005F926F927F928F929F92AF92BF92CF92E0
:1008D000DF92EF92FF920F931F93CF93DF93CDB7E9
:1008E000DEB729970FB6F894DEBF0FBECDBFFC016F
:1008F0008081918123813481232B31F09F3F31F41A
:1009000091E08F3F19F403C091E001C090E090FDA9
:100910005EC67F0185E0DE01119601900D928A95F9
:10092000E1F7F701228189819A81222349F00E940F
:100930009424182F682F89819A810E94EF2403C084
:100940000E94C324182F69817A81812F0E94981EEA
:100950008C01F7018281882309F4F2C098012251A9
:100960003F452031310508F019C18FEF93E00E9417
:1009700041268111EFC0025137EA832E99249394C6
:10098000002379F08114F4E09F0609F4E3C0C40168
:100990000E944126811101C001502FEF821A920A54
:1009A000EFCF1E821F8218861986442443942AE0C2
:1009B000322E84010F5F1F4FC4010E9441268E8397
:1009C0001F82882309F4C6C09FEF980F933060F40C
:1009D0008F834E8232E0830E911CC8010E94412613
:1009E0008887811102C0B6C048018E010A5F1F4F7F
:1009F000F80120812223E9F2213009F04CC08181E5
:100A0000813049F46801F2E0CF0ED11CF8018281F7
:100A10000E9423260AC0823051F46801F2E0CF0E12
:100A2000D11CF80182810E94C425860186C08330D2
:100A300049F46801F2E0CF0ED11CF80182810E94D6
:100A40008525F3CF843019F00F5F1F4F76C0F80172
:100A500022810E5F1F4F80E090E030E0205331098B
:100A60002A30310568F4389EA001399E500D1124BA
:100A7000C901840F951F0F5F1F4FF8012081EDCF33
:100A8000009709F45AC0EFE9FFE03197F1F700C091
:100A900000000197F5CFE22FF0E0E65BFE4F5490A7
:100AA000822F86958695869590E0FC01E65CFE4F48
:100AB00064902770712C022E02C0759467940A947A
:100AC000E2F7F1E06F227724FC01E65DFE4FA4908F
:100AD000B12C022E02C0B594A7940A94E2F731E03B
:100AE000A322BB24FC01E65EFE4FC490D12C02C0C1
:100AF000D594C7942A95E2F781E0C822DD246114D9
:100B0000710419F081EE0E94C425A114B10419F0FA
:100B100086EE0E94C425852D0E942326AB2819F05D
:100B200086EE0E948525672819F081EE0E948525B2
:100B3000CD2819F08CE20E9423260F5F1F4F58CF5B
:100B400000313FE5130709F039C581E00E941E25F9
:100B50000E94341180910F02877009F438C5F701A3
:100B60008281882309F433C582E029960FB6F89470
:100B7000DEBF0FBECDBFDF91CF911F910F91FF90D0
:100B8000EF90DF90CF90BF90AF909F908F907F902D
:100B90006F905F904F903F900C949A1A0031FFE550
:100BA0001F0711F481E005C001312FE5120721F480
:100BB00082E00E942A25CCCF033FFCE51F0749F4C1
:100BC00006E221EE40EE63EF7CE5C7010E94BB1D0B
:100BD000C1CF043F2CE5120708F050C1083D3CE5A9
:100BE000130731F407E225EE45EE68ED7CE5EDCF25
:100BF000093D9CE5190731F408E221E045EE69ED75
:100C00007CE5E3CF073DECE51E0731F406E221EE7B
:100C100041EE67ED7CE5D9CF882309F464C11092D9
:100C2000510203309DE5190758F40A3FECE51E0711
:100C300060F4C80182509C45449708F03EC105C04D
:100C40000136FDE51F0709F038C10E94C7199093CE
:100C500092018093910100312CE5120709F4CAC07A
:100C600008F041C008308CE5180709F4A4C0F0F47E
:100C70000430ECE51E0709F48CC068F402302CE562
:100C8000120709F482C003301C4509F0E7C08091C7
:100C900091018260E1C006308CE5180709F483C039
:100CA00008F085C0809191018860D6C00C30ECE5D9
:100CB0001E0709F490C068F40A302CE5120709F405
:100CC0007EC008F084C00E946525809191018068F3
:100CD000C3C00E308CE5180709F481C008F086C047
:100CE0008091910194C00C3FECE51E0709F47BC094
:100CF00038F504312CE5120709F49AC058F4023192
:100D00008CE5180709F47AC008F07EC08091910143
:100D10008F7BA2C00A3FECE51E07F1F108F03FC04F
:100D200005311C4509F09AC08091910182FB222770
:100D300020F991E0922790FB82F990FB83F98CC017
:100D400001153DE5130709F467C050F48091920145
:100D50000E3F9CE51907C1F108F05BC08D7F65C0AF
:100D60000230FDE51F0709F471C008F46DC00136BB
:100D70001D4509F073C08091910184FB222720F961
:100D800091E0922790FB84F967C080919101816086
:100D900063C08091910116C08091920116C080912C
:100DA0009201826042C080919101806155C0809122
:100DB0009101806251C08091910180644DC0809109
:100DC00091018860846048C0826081602EC08091FB
:100DD00091018E7F41C0809191018D7F3DC08091B6
:100DE0009101877F39C08091920114C08091910157
:100DF0008F7E32C0809191018F7D2EC00E9465252B
:100E0000809191018F7728C080919101877F8B7F9E
:100E100023C08D7F8E7F09C080919201982F90957D
:100E200091708E7F892B90FB81F98093920116C07F
:100E30000E9465258091910187FB222720F991E08E
:100E4000922790FB87F908C061E001C060E08EE066
:100E500090E00E94552602C080939101609191011B
:100E60001091920184E090E00E945526612F82E269
:100E700090E00E9455260E9465256CCE053FFCE55A
:100E80001F0731F406E221EE42EE65EF7CE59DCED0
:100E9000053F2CE5120730F407E225EE44EE64EF3F
:100EA0007CE593CE063F3CE5130709F0B5CE07E29B
:100EB00025EE46EE66EF7CE588CE80911202063183
:100EC0009CE5190741F58A7A91E009F490E0909346
:100ED0009001882311F065E301C069E28FEC91E095
:100EE0000E94691D15C006311C4509F02DC1809175
:100EF0009001882309F469C385E3EFECF1E0928166
:100F0000891301C01282319691E0E53DF907B9F7E6
:100F10000E94531A1FCE82720C3CECE51E0709F4A6
:100F2000C2C008F045C0063C2CE5120709F4A7C072
:100F3000D8F4033C9CE5190709F497C030F4023C4F
:100F4000FCE51F0709F46CC0CEC0043C2CE5120779
:100F500009F490C0053C3CE5130709F0C4C049ED15
:100F600052E262EE72E2A3C0093C9CE5190709F463
:100F700090C078F4073CFCE51F0709F485C0083CE5
:100F80002CE5120709F0AFC04DEC52E261EC72E2C1
:100F90008EC00A3C3CE5130709F480C00B3C9CE57D
:100FA000190709F0A0C04DE251E26EE371E27FC083
:100FB000013DECE51E0709F486C0A0F40E3C2CE5CB
:100FC000120709F47AC008F475C00F3C8CE51807C5
:100FD00009F476C0003D9CE5190709F084C06EE075
:100FE00089E079C0043DECE51E0709F472C068F49D
:100FF000023D2CE5120709F469C0033D3CE51307E7
:1010000009F071C061E088E16BC0053D8CE518070F
:1010100009F464C00D359DE5190709F49BCD63C043
:1010200080914A0280FF1BC08E7F80934A026091AC
:101030004A0270914B0280914C0290914D020E94A5
:101040001B2110921F02EFEFF0E722E0E150F04089
:101050002040E1F700C000000E94191F7BCD816095
:1010600080934A0261E086953BC046E253E26FE21C
:1010700073E21DC04FE253E266E273E218C042EE33
:1010800052E269ED72E213C041EC52E26DEC72E2A1
:101090000EC049EA52E265EB72E209C045EB52E24A
:1010A00069EA72E204C04EE351E26DE271E20E942D
:1010B000FD1E50CD61E081E013C065E082E00BC011
:1010C00068E086E008C064E18FE005C067E185E183
:1010D00002C062E289E10E94EB1E3CCD61E083E246
:1010E0000E94EB2237CD0A353DE5130741F150F45C
:1010F00001159CE51907A9F00E3D1C4529F50E9434
:10110000E31928CD0B35FDE51F07D9F00C351D453A
:10111000D9F48091920182FB882780F991E0892798
:1011200011C00E9465253FEF84E39CE03150804070
:101130009040E1F700C000000E9486160BCD81E0D0
:1011400001C080E00E94801AF70182810081118134
:10115000882349F0C8010E949424D82E682FC80122
:101160000E94EF2404C0C8010E94C324D82EB801F5
:101170008D2D0E94981E0E942D18B82E192F982E82
:10118000F7010281A580A2949FE0A92280910F021D
:10119000877099F0002389F0812F807F803421F0BF
:1011A00080E28B0D883048F082E00E949A1A80918C
:1011B0000F028770DD24D3948111D12CC12EC294EB
:1011C0008FE0C8228C2D90E08C30910508F0C2C1D0
:1011D000FC01EA5AFF4F0C94E126812F807F1F709B
:1011E000882311F01295107F0023B9F0112309F420
:1011F0009DC180E28B0D883010F0911006C0809167
:101200001202182B1093120205C080911102182BA4
:10121000109311020E94531A89C18B2D0E948525BB
:10122000112309F497C180E28B0D1095883010F0DE
:10123000911006C08091120218231093120205C06B
:10124000809111021823109311020E94531A82C137
:10125000812F807F1F70803211F01295107F8B2DAF
:10126000992021F0F1E09F1611F130C00023B1F078
:10127000AA2081F021E0A2120DC08091920182FD8E
:1012800069C180911302182B181709F463C11093D8
:10129000130260C180911302812B10C0AA2021F09B
:1012A00031E0A31609F456C10E944D1A27C000234D
:1012B00041F085E08A1508F44DC1812F0E947B25FD
:1012C00049C194E09A1508F445C118C0002349F0BB
:1012D000AA2099F3F701858180FF28C18F7085834B
:1012E000ECCFAA2059F0893309F031C1FFEF27EE86
:1012F00033E0F15020403040E1F727C1812F0E94B8
:10130000702528C1812F86958695837019F08130CC
:1013100061F020C1002321F08B2D912F937002C02A
:1013200080E090E00E94991D1BC1002321F08B2DCD
:10133000912F937002C080E090E00E94831D10C145
:101340008B2D002319F00E941C2402C00E946323ED
:101350000E94392305C1812F8370A9F50111FEC0B8
:101360004B2D429546954770440F440F8B2D8F703F
:1013700090E09C01042E01C0220F0A94EAF7B4FE0B
:1013800008C08FE090E001C0880F4A95EAF7809589
:1013900001C080E0169516951370123069F088F43C
:1013A00090911402113019F0822B892302C0922BE4
:1013B000892B0E943525D2C0822B90911402892757
:1013C000F8CF822BF6CF002319F0812F817001C056
:1013D0008695882309F4C2C04B2D429546954770E7
:1013E000440F440F8B2D8F7090E09C01042E01C0A0
:1013F000220F0A94EAF7B4FE08C08FE090E001C023
:10140000880F4A95EAF7809501C080E016951695F9
:101410001370123059F078F49091CE01113019F018
:10142000822B892309C0922B892B06C0822B909195
:10143000CE01892701C0822B0E941A258FC01F7000
:10144000002339F0812F0E942A258B2D0E947B25B5
:1014500085C08B2D0E947025812F0E941E257EC085
:101460008B2D92EF991659F1991538F0E0EF9E16F1
:1014700059F0F1EF9F16F1F055C023EF921631F1BC
:1014800034EF931681F14EC0002379F084E08A1581
:1014900008F460C01F7181E090E001C0880F1A95C8
:1014A000EAF79091CE0189271BC095E09A1508F4C0
:1014B00051C0F0CF002329F0812F8F7126C0002367
:1014C000D9F3812F8F710E941E2544C0002339F06B
:1014D0001F7181E001C0880F1A95EAF701C080E012
:1014E0000E941A2537C0002399F01F71812F0E9496
:1014F0002A258091920182FD07C0E8E01E9FC0016D
:101500001124836080930F02812F0E942A2522C01C
:1015100081E00E949A1AF1E0FA15E0F482E00E945C
:101520009A1A18C0002331F0AA2031F28B2D0E94A4
:10153000C42510C0AA2029F2893349F42FEF37EED1
:1015400083E0215030408040E1F700C000008B2D47
:101550000E94852588EF8C0D843010F40E94AF1D09
:10156000DD20A9F180910F0280FD31C0F7011282C8
:101570008595859585950E942A25C7010E945E0460
:1015800080910F0285958595859529960FB6F894DB
:10159000DEBF0FBECDBFDF91CF911F910F91FF90A6
:1015A000EF90DF90CF90BF90AF909F908F907F9003
:1015B0006F905F904F903F900C941E2501319FE5F6
:1015C000190709F0F9CA82E0C1CA89E296CC2996C6
:1015D0000FB6F894DEBF0FBECDBFDF91CF911F9144
:1015E0000F91FF90EF90DF90CF90BF90AF909F90C2
:1015F0008F907F906F905F904F903F900895CF9322
:10160000DF93CDB7DEB7AA970FB6F894DEBF0FBE53
:10161000CDBF84B7877F84BF0FB6F894A89580911B
:101620006000886180936000109260000FBE90E0BF
:1016300080E80FB6F89480936100909361000FBE2C
:1016400085B7806885BF85B7806885BF8BEE96E1DA
:1016500090938F0180938E010E9455140E94741400
:101660008091E20084608093E20078948091C401CC
:101670008823A1F01091E9001F709091EC00892F50
:10168000817090FD80E8182B1092E9008091E800AD
:1016900083FD0E943F111F701093E90082E084BD1A
:1016A00093E095BD9AEF97BD80936E000E94D21E85
:1016B000811102C00E94C31E09E111E0ADE1EA2ED2
:1016C000A1E0FA2EF80181918F018F3F11F00E9465
:1016D0003017E016F106B1F70DE111E0F9E2EF2E57
:1016E000F1E0FF2EF80181918F018F3F11F00E94F0
:1016F0003017E016F106B1F71092940110929301A1
:101700001092A9011092A8011092960110929501D1
:101710001092AB011092AA011092980110929701B9
:101720001092AD011092AC0110929A0110929901A1
:101730001092AF011092AE010E94D819811102C01F
:101740000E94E31982E090E00E94412680939F016D
:101750000E94C71990939201809391010E944717AC
:10176000FFEF26E731E0F15020403040E1F700C0C4
:1017700000000E9447178091A80180FF08C06FEF0A
:101780007FEF80E090E00E9473260E94861683E03F
:1017900090E00E9441260E94352580919B01811195
:1017A00033C00E94D819811104C00E94E3190E941D
:1017B0004F2188E090E00E94492660934A0270938E
:1017C0004B0280934C0290934D026E7F71F40E9405
:1017D0004F2188E090E00E94492660934A0270936E
:1017E0004B0280934C0290934D020E94082110926C
:1017F0001F0280914A0280FF04C060E086950E942B
:10180000EB2281E080939B0180E091E09093550270
:101810008093540278E1C72ED12CE0E45E2EBB24E5
:10182000B394AA24A3948E010F5F1F4F8091C4012B
:10183000853009F073C050E1E52E62E1F62E80910B
:10184000C401853009F055C08091C401843009F489
:101850003DC010921F0280919D01811116C0A0927F
:101860009D0180914A02982F917090939C018E7FE8
:1018700080934A024FEF80E792E0415080409040D1
:10188000E1F700C000000E94191F109258020FB625
:10189000F894A895C09260000FBE5092600083B784
:1018A000817F846083BF83B7816083BF789488958C
:1018B00083B78E7F83BF0FB6F894A89580916000A0
:1018C000886180936000109260000FBE8091C30118
:1018D000882309F4B4CF0E944717E8EAF1E0819128
:1018E0009191892B09F0E2C321E0E03BF207B9F7BF
:1018F000A6CF0E9465250E94AF1D10929D01809188
:101900009C01882349F080914A02816080934A02B9
:1019100060E086950E94EB220E94031F0E944717F9
:10192000882359F08FB7F8944091B0015091B101DC
:101930006091B2017091B3018FBFE8EAF1E0A0EAD3
:10194000B1E0E12CF12C7E2D219131918D919D9171
:1019500082279327009779F160E088248394912C63
:10196000AC0148215921452B09F169A37AA328210B
:10197000392181E0232B09F480E08BA30E94DF163C
:101980008160782F9DA38CA349A15AA16BA18DA141
:101990000E94B603F701EE0FFF1FE056FE4F808155
:1019A000918188269926918280821CC06F5F880C65
:1019B000991C6C30A9F63FEFE31AF30A44E0E416F1
:1019C000F10409F68FEF8EA38FA318A60E94DF16ED
:1019D0008160782F9AA789A74EA15FA168A58AA5E3
:1019E0000E94B60380911F02882309F498C0809159
:1019F0001E02E0914A02E695E81BE0931A0282304B
:101A000059F4F0E0E852FE4FE491EE2EF12C8CE216
:101A1000882E8DE1982E5EC0863059F4F0E0EB52AE
:101A2000FE4FE491EE2EF12CBCE18B2EBDE19B2EFE
:101A300051C0893061F4E695F0E0EE52FE4FE4913A
:101A4000EE2EF12CADEC8A2EA0E29A2E43C08F3000
:101A500061F4E695F0E0E153FE4FE491EE2EF12CB7
:101A6000F0E68F2EF0E29F2E35C0853159F4F0E07C
:101A7000E453FE4FE491EE2EF12CE2E18E2EE0E2F3
:101A80009E2E28C08831B1F0833249F4EAECF1E0AF
:101A9000E590F4907CED872E7CE1972E1BC084327C
:101AA00089F050EDE52E57E0F52E6BED862E6CE1BA
:101AB000962E10C038E2E32EF12C49E8842E4FE137
:101AC000942E08C094EFE92EFF24F3942FE4822E85
:101AD0002FE1922E80911B02882361F010921B024D
:101AE0000E94DF16909319028093180210921D0233
:101AF00010921C020E94DF16E0911802F091190268
:101B00008E1B9F0B8F3F9F4750F4EE0EFF1EF092EF
:101B10001902E092180288E192E0F401099586E04A
:101B2000E0E6F2E0D80101900D928A95E1F780900D
:101B3000620290906302E0906402F090650210925D
:101B40006202109263021092640210926502811088
:101B500003C0992009F44FC080915E0290915F020A
:101B60000E94D0169C0190915A02992309F4BDC29B
:101B70002333310508F43FC09F3F19F09F5F9093D6
:101B80005A02882061F00E94FC23181414F491E09A
:101B900001C09FEF899F802D1124809362029920BC
:101BA00061F00E94FC23191414F491E001C09FEF2E
:101BB000899F802D11248093630230916202332328
:101BC000D1F0209163022223B1F045EB3403C00130
:101BD0001124992319F09093620202C0B09262021C
:101BE00035EB2303C0011124992319F0909363026C
:101BF00002C0B0926302E11003C0FF2009F44FC09D
:101C000080915C0290915D020E94D0169C0190919F
:101C10005902992309F46EC22536310508F43FC0F4
:101C20009F3F19F09F5F90935902EE2061F00E9450
:101C3000DA231E1414F491E001C09FEF899F802DD8
:101C4000112480936402FF2061F00E94DA231F14A4
:101C500014F491E001C09FEF899F802D112480939F
:101C60006502309164023323D1F020916502222372
:101C7000B1F045EB3403C0011124992319F090937E
:101C8000640202C0B092640235EB2303C001112448
:101C9000992319F09093650202C0B0926502809179
:101CA000620281110BC080916302811107C0809193
:101CB0006402811103C08091650281110E94392361
:101CC0008B829C82ED82FE8286E0F801A0E6B2E083
:101CD00001900D928A95E1F70E94AF1D90919E01AF
:101CE000891721F00E94AF1D80939E018091C4014D
:101CF000843009F09BCD83E08093E9008091E80077
:101D000082FF94CD8091E80085FF21C00E94AA1532
:101D100081111BC080E2E82EF12C480109C080919E
:101D2000F100F40181934F01F1E0EF1AF10869F03D
:101D30008091E80085FDF3CF8091E8008B77809358
:101D4000E8000E94AA15882399F391E001C090E071
:101D50008091E8008B778093E800992309F466CDA1
:101D6000E9818E2F90E0FC013197E331F10508F015
:101D700073C1EE59FF4F0C94E1261A8289E0DAC054
:101D80008A81823009F4A8C1833089F0813009F05A
:101D900063C12FB7F8948091B0019091B101A091E7
:101DA000B201B091B3012FBFBB83AC832BC0809134
:101DB000A8019091A9019B838C838091AA019091A5
:101DC000AB019D838E838091AC019091AD019F8387
:101DD00088878091AE019091AF0199878A873EC133
:101DE0008A81823009F038C16B817C818D819E812E
:101DF0000E94E72686E290E024C04C816B818A81B4
:101E00000E94721E9D836FC18D809E8098248924BC
:101E100098248C81EB809A8128E1E29E7001112444
:101E200030E6939FE00CF11C1124E80EF11CE80E43
:101E3000F11C692DC70187960E945526682DC701A0
:101E400088960E9455260AC10E943E1E07C18A81BB
:101E50008138B1F050F4803809F000C120E04B81A6
:101E600060914C0280914B0231C0823859F1833825
:101E700009F0F4C020E040914D026C818B8126C0B6
:101E800060E08B810E94EB229B8180914A0291113C
:101E900011C08E7F80934A0210921F024FEF80E79D
:101EA00092E0415080409040E1F700C000000E9465
:101EB000191FD4C0816080934A0260E086950E9419
:101EC000EB22CCC08B8180934E02C8C00E940E22B0
:101ED000C5C08A81813899F030F4803809F0BEC0DD
:101EE00080914D0227C0823891F0833809F0B6C046
:101EF00080914B028B8380914C028C83AFC0809188
:101F00004A0280FF02C0869515C080E013C0809110
:101F10004E0210C060914A0270914B0280914C02B7
:101F200090914D020E941B2199C080E150C082E037
:101F30008A8389E58B8392C0EA80FB80FE24EF24AC
:101F4000FE248C80912C3801C70189559E4F930146
:101F5000201B310B2815390508F080C0E9E5EE1685
:101F6000E2E0FE0628F40E944126F301848302C0C9
:101F7000F3011482FFEFEF1AFF0A2FEF621A720AC1
:101F8000E3CFEA80FB80FE24EF24FE248C80912C9A
:101F90003801C70189559E4F9301201B310B28152D
:101FA000390508F05BC039E5E31632E0F30620F4AA
:101FB000F30164810E945526FFEFEF1AFF0A2FEF0D
:101FC000621A720AE6CF0E942E1E48C084E08A83FD
:101FD00045C0EA80FB80FE24EF24FE248C80912CF7
:101FE0003801C70187969301201B310B281539054D
:101FF000A8F530E8E31631E0F30628F40E94412604
:10200000F301848302C0F3011482FFEFEF1AFF0A89
:102010002FEF621A720AE5CFEA80FB80FE24EF24DC
:10202000FE248C80912C3801C70187969301201BD8
:10203000310B2815390590F430E8E31631E0F3064A
:1020400020F4F30164810E945526FFEFEF1AFF0A86
:102050002FEF621A720AE8CF8FEF89838091C40153
:10206000843009F0E3CB8091E9008F702091EC007F
:10207000922F917020FD90E8F92EF82A82E080934B
:10208000E9008091E80080FF0CC040E050E060E291
:1020900070E0C8010E94DD158091E8008E77809382
:1020A000E8008F2D8F708093E900C0CBE9BCF9BCAC
:1020B00009B400FEFDCF8091D8008F7D8093D800B9
:1020C0008091E00082608093E0008091E00081FDDB
:1020D000FCCF0E946525B3CB86E290E00E944126AA
:1020E0001B821C821D828E83B9CF2D32314008F0B5
:1020F00045CD81CD2D32314008F094CDD0CD8091A9
:10210000C60187FF11C08091E80082FD05C0809163
:10211000C4018111F8CF11C08091E8008B770BC00A
:102120008091C401882349F08091E80080FFF8CFB6
:102130008091E8008E778093E8000895982F97307B
:1021400068F59093E900981739F07091EC002091B0
:10215000ED005091F00003C0242F762F50E021FDB8
:1021600002C09F5FECCF3091EB003E7F3093EB00DD
:102170003091ED003D7F3093ED003091EB00316008
:102180003093EB007093EC002093ED005093F0003F
:102190002091EE0027FDE5CF80E008958F708093B9
:1021A000E90081E008952091CC013091CD012617FE
:1021B000370748F06115710539F42091E8002E7752
:1021C0002093E80001C0B901FC0120E06115710510
:1021D00079F18091C4018823F1F18530F1F180918A
:1021E000E80083FD3CC08091E80082FD2EC0809114
:1021F000E80080FFEBCF2091F3008091F20090E0A7
:10220000922B6115710551F08830910538F42191B8
:102210002093F100615071090196F3CF21E00897F6
:1022200009F020E08091E8008E778093E800CECF1F
:102230002111CFCF0AC08091C401882361F085307D
:1022400061F08091E80083FD0AC08091E80082FF80
:10225000F2CF80E0089582E0089583E0089581E060
:1022600008958091B90108958091CE01982F9670BC
:10227000963011F4886001C0877F0C941A251F9353
:10228000CF93DF93CDB7DEB7AA970FB6F894DEBF32
:102290000FBECDBFE6ECF1E08091F100819341E00B
:1022A000EE3CF407C9F78091C701833009F462C09E
:1022B00030F4813071F0823009F49CC0B3C08A30B0
:1022C00009F488C08B3009F46DC0893009F0AAC0C8
:1022D00020C08091C601813A09F0A4C08091E80035
:1022E000877F8093E8008091CA019091CB01892B70
:1022F00021F468E08AEB91E003C060E080E090E0C8
:1023000070E00E94D3108091E8008B778093E80002
:1023100089C08091C601813209F084C08091CA01D0
:102320009091CB01009719F0029709F07BC0809142
:10233000E800877F8093E8008091E80082FD05C077
:102340008091C4018111F8CF6DC02091F30080917C
:10235000F20090E0922B029729F48091F1008B7F9C
:10236000813021F48091F1008093B9018091E800DF
:102370008B7754C08091C601813A09F053C0809197
:10238000CA019091CB01892B09F04CC08091E800E3
:10239000877F8093E8008091E80080FFFCCF8091E8
:1023A0000A0137C08091C6018132E1F58091CA01EE
:1023B0009091CB01892BB1F58091E800877F8093C4
:1023C000E8000E947F108091C80180930A010E945A
:1023D000652528C08091C601813221F58091E800F1
:1023E000877F8093E8000E947F108091C9018093CD
:1023F000B80118C08091C601813AA1F48091E8002B
:10240000877F8093E8008091E80080FFFCCF809177
:10241000B8018093F1008091E8008E778093E80006
:102420000E947F108091E80083FFDDC18091C6018A
:102430009091C701492F50E04A30510508F0D3C1AF
:10244000FA01EB58FF4F0C94E126803821F08238D6
:1024500009F0C9C108C08091C2019091C3019923BC
:1024600089F082600FC08091CA018F70873008F0B8
:10247000BAC18093E9008091EB0085FB882780F941
:102480001092E9009091E800977F9093E800809384
:10249000F1001092F10070C1282F2D7F09F0A3C127
:1024A000882319F0823061F09EC18091C80181308B
:1024B00009F099C1933009F080E08093C3012EC0E8
:1024C0008091C80181112AC08091CA018F702FEFBD
:1024D000280F263008F087C18093E9002091EB0097
:1024E00020FF1CC0933021F48091EB00806214C067
:1024F0009091EB0090619093EB0021E030E0A90116
:1025000002C0440F551F8A95E2F74093EA001092EB
:10251000EA008091EB0088608093EB001092E90064
:102520008091E800877F8093E8000E947F105BC164
:10253000811159C11091C8011F778091E300807803
:10254000812B8093E3008091E800877F8093E800EF
:102550000E947F108091E80080FFFCCF8091E30013
:1025600080688093E300111102C082E001C083E023
:102570008093C40138C18058823008F034C1209162
:10258000C8013091C9012C3D53E0350779F583E04E
:102590008A838AE289834FB7F894DE01139620E09C
:1025A0003EE051E2E32FF0E050935700E49120FF2A
:1025B00003C0E295EF703F5FEF708E2F90E0EA303E
:1025C00010F0C79601C0C0968D939D932F5F243164
:1025D00049F74FBF8091E800877F8093E8006AE267
:1025E00070E0CE0101960E94D310B4C08091CA0160
:1025F0009091CB01432F552743305105A9F068F442
:102600004130510509F4FEC04230510509F0EBC0DC
:102610008BE590E0E9EBF2E04BC04132510529F146
:102620004232510589F1DFC0C901992781309105F6
:10263000A1F058F0029709F0D6C0E6E2F3E0E49189
:102640008E2F90E0E6E2F3E030C0E0E5F3E0E491C5
:102650008E2F90E0E0E5F3E028C0E2E3F3E0E491C0
:102660008E2F90E0E2E3F3E020C08330910508F084
:10267000BAC0880F991FFC01EE5CFE4F0190F081FB
:10268000E02D89E090E014C08330910508F0ABC0E4
:10269000FC01EE0FFF1FE45DFE4F0190F081E02D85
:1026A000DC01A75DBE4F8C9190E0009709F49BC0C0
:1026B0002091E800277F2093E8002091CC01309101
:1026C000CD012817390708F4C90140E0009789F1C6
:1026D0002091C401222309F43DC02530D9F1209175
:1026E000E80023FD37C02091E80022FD2FC0209193
:1026F000E80020FFEBCF4091F3002091F20030E0A2
:10270000342B009759F02830310540F44491409320
:10271000F100319601972F5F3F4FF3CF41E0283012
:10272000310509F040E02091E8002E772093E80081
:10273000CDCF4111CDCF0AC08091C401882351F083
:10274000853041F08091E80083FD04C08091E8006D
:1027500082FFF2CF8091E8008B778093E80043C03E
:10276000803809F040C08091E800877F8093E800BE
:102770008091C5018093F1008091E8008E77D3CEDF
:10278000811131C08091C8019091C90199270297A8
:1027900054F58091E800877F8093E8001091C8018C
:1027A0001093C5010E947F10111106C08091E300B3
:1027B00087FD02C081E001C084E08093C40142E053
:1027C00061EC81E00E949E1042E261EC84E00E9494
:1027D0009E1042E261EC82E00E949E1042E260ECB8
:1027E00083E00E949E108091E80083FF10C08091DA
:1027F000E800877F8093E8008091EB0080628093FF
:10280000EB0005C082E190E0E4E1F3E051CFAA964D
:102810000FB6F894DEBF0FBECDBFDF91CF911F91F1
:1028200008951F920F920FB60F9211242F933F938A
:102830004F935F936F937F938F939F93AF93BF93C8
:10284000CF93DF93EF93FF93C091E900CF70809116
:10285000EC00D82FD17080FDD0E81092E900809173
:10286000F000877F8093F00078940E943F111092CF
:10287000E9008091F00088608093F000CD2BCF704C
:10288000C093E900FF91EF91DF91CF91BF91AF919C
:102890009F918F917F916F915F914F913F912F9178
:1028A0000F900FBE0F901F901895E8EDF0E080811B
:1028B0008E7F80831092E2001092DA001092E10085
:1028C000A0EEB0E08C9181608C9380818F778083C3
:1028D00019BCA7EDB0E08C918E7F8C9380818F7EA8
:1028E00080831092B7010895CF92DF92EF92FF920A
:1028F0000F931F93CF93DF93C8EDD0E088818F7E35
:102900008883E7EDF0E080818160808384E082BF8E
:1029100081E08093B70188818E7F888302EE10E08A
:10292000F80110821092DA0081EEC82ED12CF60147
:10293000108288818F7788838881806888838881E6
:102940008F7D888319BC1092C4011092C50110922A
:10295000C3011092C20190EEE92EF12CF7018081A3
:102960008B7F808388818160888342E060E080E0A3
:102970000E949E10F60180818E7F8083F801808105
:1029800081608083808188608083F70180818E7F71
:102990008083888180618883DF91CF911F910F911F
:1029A000FF90EF90DF90CF9008951F920F920FB697
:1029B0000F9211242F933F934F935F936F937F93C5
:1029C0008F939F93AF93BF93EF93FF938091E10019
:1029D00082FF09C08091E20082FF05C08091E10082
:1029E0008B7F8093E1008091DA0080FF2AC0809184
:1029F000D80080FF26C08091DA008E7F8093DA00B5
:102A00008091D90080FF18C080E189BD82E189BD35
:102A100009B400FEFDCF81E08093C4018091B7012D
:102A200081110FC00E9455140E9474148091E2001D
:102A300084608093E20005C019BC1092C40110921A
:102A4000B7018091E10080FF17C08091E20080FF14
:102A500013C08091E2008E7F8093E2008091E200BB
:102A600080618093E2008091D80080628093D800DA
:102A700019BC85E08093C4018091E10084FF2EC0E1
:102A80008091E20084FF2AC080E189BD82E189BD96
:102A900009B400FEFDCF8091D8008F7D8093D800CF
:102AA0008091E1008F7E8093E1008091E2008F7E33
:102AB0008093E2008091E20081608093E200809147
:102AC000C501882311F084E007C08091E30087FDF1
:102AD00002C081E001C083E08093C4018091E100E5
:102AE00083FF27C08091E20083FF23C08091E10033
:102AF000877F8093E10082E08093C4011092C5013A
:102B00008091E1008E7F8093E1008091E2008E7FD2
:102B10008093E2008091E20080618093E20042E0D5
:102B200060E080E00E949E108091F00088608093B9
:102B3000F000FF91EF91BF91AF919F918F917F91A5
:102B40006F915F914F913F912F910F900FBE0F901A
:102B50001F9018952091E4003091E50095E6409192
:102B6000EC00842F817040FF23C08091E80080FD3D
:102B70001DC08091C401882399F0853099F080911F
:102B8000EB0085FD11C04091E4005091E500241751
:102B9000350729F3915011F09A01E1CF84E00895AF
:102BA00082E0089583E0089581E0089580E008952B
:102BB0004091E80042FFDDCF0895EF92FF920F931E
:102BC0001F93CF93DF937C018B010E94AA15811183
:102BD00019C0E70101151105A1F08091E80085FDFC
:102BE0000AC08091E8008E778093E8000E94AA15C1
:102BF000882381F307C089918093F1000150110966
:102C0000E9CF80E0DF91CF911F910F91FF90EF907E
:102C100008959091C401943029F58093B401709384
:102C2000B6016093B5019093E9008FEF9091E800B1
:102C3000815095FD06C095ED9A95F1F70000811140
:102C4000F5CF8091E80085FF0DC040E050E063E0E3
:102C500070E084EB91E00E94DD158091E8008E77B2
:102C60008093E8000895BC0184E00C940916BC012F
:102C700083E00C94091624E02093E9002FEF3091B3
:102C8000E800215035FD06C035ED3A95F1F700001A
:102C90002111F5CF2091E80025FF0BC040E050E066
:102CA00066E070E00E94DD158091E8008E778093E9
:102CB000E8000895CF93DF9321E02093E9002FEF00
:102CC0003091E800215035FD06C035ED3A95F1F719
:102CD00000002111F5CF2091E80025FF14C0EC0180
:102CE00040E050E068E070E00E94DD158091E8006F
:102CF0008E778093E80088E0FE01AAEBB1E00190B6
:102D00000D928A95E1F7DF91CF91089581E080934C
:102D1000E00080E28093D8001092C9008FE19EE429
:102D20000197F1F700C0000087E090EBDC01809391
:102D3000780290937902A0937A02B0937B029CE090
:102D400088E10FB6F894A895809360000FBE909329
:102D50006000FFCF78941F920F920FB60F9211244C
:102D60008F939F93AF93BF938091B0019091B101E6
:102D7000A091B201B091B3010196A11DB11D809344
:102D8000B0019093B101A093B201B093B301BF9190
:102D9000AF919F918F910F900FBE0F901F9018953C
:102DA0009C014FB7F8948091B0019091B101A0912E
:102DB000B201B091B3014FBF821B930B08952FB79F
:102DC000F8948091B0019091B101A091B201B091BD
:102DD000B3012FBF089580E008959091910192FF73
:102DE0000DC0282F2871283019F4877F846006C011
:102DF000282F2471243011F48B7F886093FF0DC03D
:102E0000282F2871283119F4877E846106C0282F65
:102E10002471243111F48B7E88612091920120FF6E
:102E20000DC0382F3871383019F4877F816006C0A3
:102E3000382F3171313011F48E7F886021FF0DC041
:102E4000282F2871283119F4877E816106C0282F28
:102E50002171213111F48E7E886194FD877E089561
:102E6000F894E82FE295EF70F0E031A1282F2F7051
:102E700081E090E001C0880F2A95EAF7982F90959D
:102E8000932391A392A1892B82A3789408956F92A2
:102E90007F928F929F92AF92BF92CF92DF92EF92EA
:102EA000FF920F931F93CF93DF93CDB7DEB7289791
:102EB0000FB6F894DEBF0FBECDBFAE014F5F5F4FC0
:102EC0007A0188E0DA011D928A95E9F709E111E0BB
:102ED0006A018DE1682E81E0782E88248394912CFC
:102EE000F80180818F3F09F44DC0F894E82FE295F6
:102EF000EF70F0E021A18F70A40102C0440F551FB4
:102F00008A95E2F7CA01922F982B91A392A18095FE
:102F1000892382A3789400C0EDE1F1E020E030E065
:102F2000A12CB12C81918F3FC1F0A82FA295AF7039
:102F3000B0E090964C9150E08F70DA0102C0B595E8
:102F4000A7958A95E2F7A0FD08C0C401022E02C031
:102F5000880F991F0A94E2F702C080E090E0A82A47
:102F6000B92A2F5F3F4F2C303105E1F6F8018081FF
:102F70008F3F11F00E943017F0EAFA95F1F7D60171
:102F8000AD92BC920F5F1F4FB2E0CB0ED11C60160A
:102F9000710609F0A5CF48E050E0B70183E991E060
:102FA0000E94382711E0009709F410E0892B89F07E
:102FB00088E0F701A3E9B1E001900D928A95E1F76D
:102FC00081E0809317020E94DF169093160280938F
:102FD000150280911702882351F18091150290917A
:102FE00016020E94D016059710F1809193019091DE
:102FF00094019093A9018093A801809195019091EB
:1030000096019093AB018093AA01809197019091D2
:1030100098019093AD018093AC01809199019091BA
:103020009A019093AF018093AE0110921702812F05
:1030300028960FB6F894DEBF0FBECDBFDF91CF91BB
:103040001F910F91FF90EF90DF90CF90BF90AF90C6
:103050009F908F907F906F900895CF93DF938238E9
:10306000910569F1B0F48133910509F46FC048F41A
:103070008932910509F465C08A32910509F46BC063
:103080008AC08533910509F457C089339105B9F099
:1030900082C0833E910571F138F4803E9105B1F014
:1030A000823E910511F177C0863E9105B9F1873EC8
:1030B0009105C9F1843E910509F06DC024C02091AD
:1030C000910120FD53C021FD51C065C08091910147
:1030D00080FD46C08091920180FF48C0809191019F
:1030E00084FD50C183EE90E04FC18091910182FF39
:1030F0003AC0F4CF8091910182FD35C08091920158
:1031000080FD34C0EBCF8091920181FF35C080916A
:10311000910184FD37C187EE90E036C18091910125
:1031200083FF27C0F4CF8091910183FD22C080915D
:10313000920181FD21C0EBCF8091910185FD1FC0DF
:1031400021C08091910185FD1DC019C08091910120
:1031500086FD1BC01DC08091910186FD19C015C060
:1031600089E390E011C182EE90E00EC180EE90E024
:103170000BC186EE90E008C184EE90E005C189E2C3
:1031800090E002C185E390E0FFC08AE290E0FCC0DD
:1031900081E390E0F9C0811531E5930708F069C03B
:1031A000811540E59407F0F09C0174E03695279571
:1031B0007A95E1F7922F9370482F437021E030E029
:1031C00002C0220F331F4A95E2F73C68392B982F33
:1031D0009F709695969540E2949FC0011124822B92
:1031E000932BD2C0883E910568F5803E910508F08A
:1031F000CBC0883A9105B8F4853A910548F0855AD4
:10320000E82FF0E0E85CFE4F808190E09064BCC065
:103210008130910509F4B3C008F4B4C0843091053D
:1032200008F4B0C0B1C08F3B910508F0ABC0885A1C
:10323000E82FF0E0EE0FFF1FE55CFE4F80819181EB
:103240009464A2C0811520E2920758F4811531E000
:10325000930708F099C0803F910508F493C09065EA
:1032600093C0811540E4940708F48CC09F70906A65
:103270008BC0811525E5920708F042C0811534E521
:10328000930728F0982F8827846F906A7DC0811556
:1032900043E59407B0F09C012370332741E050E0F0
:1032A00002C0440F551F2A95E2F7282F2695269530
:1032B00080E2289F90011124CA01822B932B9A68E7
:1032C00063C0811522E5920728F4982F8827816F23
:1032D000906A5AC09C012370332741E050E002C03D
:1032E000440F551F2A95E2F7282F2695269580E250
:1032F000289F90011124CA01822B932B9C6844C003
:10330000EC01811539E59307A8F48115984528F05B
:103310009C2F8827806F906A37C0C11586E5D80733
:1033200088F58C2F0E94ED168F7190E0982F8827DA
:1033300090622AC081152AE5920790F48C2F8F7035
:103340000E94ED1694E0D695C7959A95E1F7CF7057
:10335000D0E0DC2FCC27D0699E01282BC90114C0F6
:1033600090568115904270F48D2F8F710E94ED164A
:10337000282F2F71CE0199279062922B05C081E0F2
:1033800090E002C080E090E0DF91CF910895CF936C
:1033900084E090E00E944126C82F82E290E00E94E3
:1033A00041262C2F30E0A901582BCA01CF91089556
:1033B00080E090E00E944F26893E9E4F11F40C94CD
:1033C000D21E80E0089569EE7EEF80E090E00E94DA
:1033D000732660E082E090E00E94552660E083E082
:1033E00090E00E9455261092140260E084E090E084
:1033F0000E94552660E082E290E00E94552660E03F
:1034000085E090E00E94552660E086E090E00E9412
:1034100055266FEF87E090E00E94552640E050E08F
:10342000BA0188E090E00E94672660E08DE090E0BD
:103430000E94552640E050E0BA0188E190E00E94E9
:10344000672660E087E190E00E94552640E050E06A
:10345000BA018CE190E00E94672660E070E080E2B3
:1034600090E00E94732640E050E0BA0188E190E0CD
:103470000E94672680E00E94A51E0E94C31E40E0B5
:1034800050E0BA018FE090E00E94672640E050E0F3
:10349000BA0183E190E00C946726809113028111B8
:1034A0001092130208959091120280911102892BBB
:1034B00020911002982F922B9093CF0180911302AC
:1034C000882389F0892B8093CF01E1EDF1E097E02B
:1034D00080E0915029F021912223D9F38F5FF9CF19
:1034E00081110E944D1AE0915402F09155023097DB
:1034F00031F00280F381E02D8FEC91E00994089582
:10350000CF93C0919201C2FB992790F9981781F04F
:1035100080FBC2F9C09392016091910184E090E038
:103520000E9455266C2F82E290E0CF910C94552694
:10353000CF91089520910F028095822380930F02EE
:10354000982F977041F430E0482F082E000C550B4F
:103550002417350721F49091920192FF07C08595B9
:10356000859585950E941E2510920F0208958091E1
:103570000E029091DD01891719F08F5F8770FBCFE4
:1035800008950F931F93CF93DF938091DC01829571
:103590008F7009F05DC08091D901882309F458C06B
:1035A00080910E021091DD016091D7017091D801D8
:1035B000C091DA01D091DB0191E06F3F09F090E01A
:1035C000292F06E0811709F443C0209721F07F3F9F
:1035D00021F030E003C031E001C0322F90E030FD37
:1035E00034C0089FF001099FF00D1124DF01A252A1
:1035F000BE4F11963C911197371327C03C9136135B
:1036000024C012963C91129731111FC013964D9110
:103610005C9114974C1B5D0B483C5105B0F48091B4
:10362000DC018F7080618093DC01ED51FE4F808161
:103630008F708061808387ED91E00E945E04DF914E
:10364000CF911F910F910C94B71A01968770BACF42
:10365000DF91CF911F910F910895CF93DF93EC01EC
:103660000E949424BE010E94981E0E942D18DF9192
:10367000CF9108959F92AF92BF92CF92DF92EF9237
:10368000FF920F931F93CF93DF93CDB7DEB7619770
:103690000FB6F894DEBF0FBECDBF8C0185E0F801F8
:1036A000DE011D9601900D928A95E1F7F801E28006
:1036B0009091D7016091D8014091DA015091DB01DE
:1036C0004115510531F06F3F31F481E09F3F19F40E
:1036D00003C081E001C080E0F82FF1709F2E80FDD3
:1036E0001AC1F80130812181C380D48087EDA82ED2
:1036F00081E0B82EF090D901F601E41BF50BFF2014
:1037000009F4C6C08091DC01E83CF10508F091C0E5
:10371000482F407F09F050C0621311C093130FC0AF
:10372000FE2CE1100CC08F7080618093DC01C5011C
:103730000E945E048091DC01F801858329C1CD28B7
:1037400031F02F3F31F481E03F3F19F403C081E0B5
:1037500001C080E080FD03C081E08E2502C080E0D2
:1037600090E0F82FF170FF2E80FF1CC080910E02B8
:103770004091DD0156E0841709F4E8C090E0589FBD
:10378000F001599FF00D1124E252FE4F6181261382
:1037900006C06081631303C06281E61203C0019614
:1037A0008770E9CFFE2CEE2009F4F2C08091DC0195
:1037B00081608093DC0149C0621306C0931304C08A
:1037C000E11002C0F80186C0C8010E943925882393
:1037D00051F1EE2041F12091DC01822F82958F7012
:1037E00090E0029774F08091D7019091D80198876A
:1037F0008F831986DB86CA862C87CE0107960E94A6
:103800005E0486E0F801A7EDB1E001900D928A9583
:10381000E1F70E94C11A0AC06217C9F0C8010E94EC
:10382000392581111EC0C8010E945E04FF24F39453
:10383000AFC0482F407F81F787ED91E00E945E0482
:1038400086E0F50111928A95E9F7F12CA1C0931356
:10385000E5CFE110E3CFF8018583C8010E945E0443
:1038600054C0EE2001F32091DC01822F82958F70ED
:1038700090E0029734F28091D7019091D8019A8319
:1038800089831B82DD82CC822E83CE010196B7CF45
:10389000E83CF105D0F5FE2CEE2029F2621327C09A
:1038A000931325C02091DC0120FD18C0822F829542
:1038B0008F70482F50E04115510581F0F8012583A4
:1038C0004F30510541F08F5F982F9295907F822F56
:1038D0008F70892B8583C8010E945E0486E0F80101
:1038E000A7EDB1E001900D928A95E1F751C0C801B2
:1038F0000E943925811185CF8091DC018160809300
:10390000DC01C8010E945E0443C086E0F50111920B
:103910008A95E9F73DC0EE2009F485CFC8010E94E1
:103920003925F82E882309F47ECF86E0F801A7ED2B
:10393000B1E001900D928A95E1F78091D7019091C5
:10394000D8010E942D1B0E94C11A22C03D872E87DC
:103950008D859E850E942D1B292F22952F70223048
:1039600028F49F7039F0811105C00BC0243028F471
:103970009F7049F4805E883020F0C8010E945E0488
:103980009F2CF92C05C0F8019581907F99F7F9CF0C
:103990008F2D61960FB6F894DEBF0FBECDBFDF91BD
:1039A000CF911F910F91FF90EF90DF90CF90BF903C
:1039B000AF909F90089508950F931F93CF93DF9337
:1039C00000D01F92CDB7DEB78C0180912202811109
:1039D0000AC09E012F5F3F4F4FEF6FEF0E945E21A5
:1039E0008A8180932202F8018481813051F028F08D
:1039F000823061F4409122020AC08091220240E0AC
:103A000007C06091220240E080E003C040E080E017
:103A100060E00E94F720F801848190E0019663E065
:103A200070E00E94AB2684830F900F900F90DF917F
:103A3000CF911F910F910895CF93DF93EC01EAE4AA
:103A4000F2E0438162818C810E94F4218C818F5F3E
:103A50008C83DF91CF910895CF93DF93EC01EC81BC
:103A6000F0E0EC5AFC4F4491EAE4F2E0628181819B
:103A70000E94F4218C818F5F8C83DF91CF91089518
:103A80001F920F920FB60F9211248F939F93AF93B3
:103A9000BF9380915802811113C08091B001909121
:103AA000B101A091B201B091B3014196A11DB11D28
:103AB0008093B0019093B101A093B201B093B30190
:103AC000BF91AF919F918F910F900FBE0F901F905C
:103AD00018959C01FC0132969FEF80E041914617BA
:103AE00089F09F3F19F4411101C0982F8F5F8630F4
:103AF000A9F79F3F39F0F901E90FF11D97FDFA95FC
:103B00006283089508952091560230915702281734
:103B1000390771F09093570280935602E091540256
:103B2000F0915502309721F00084F185E02D099441
:103B3000089520915202309153022817390771F0ED
:103B40009093530280935202E0915402F0915502F7
:103B5000309721F00680F781E02D09940895E091D7
:103B60005402F0915502309721F00190F081E02D40
:103B7000099480E008950F931F93CF93DF93C42F90
:103B8000D22FFC0182818823C9F0409351020E9408
:103B9000DF169093500280934F0280E28C0F8830A2
:103BA00008F057C0C77081E001C0880FCA95EAF7D6
:103BB000DF91CF911F910F910C947B258091510241
:103BC000481330C080914F02909150020E94D0164D
:103BD000883C910538F510E21D0FCD17B9F080E251
:103BE0008C0F883040F4C77081E001C0880FCA95FF
:103BF000EAF70E947025183028F581E09D2F977014
:103C000001C0880F9A95EAF70E947B25802F0E94B9
:103C100023261830F0F4D77081E001C0880FDA95C0
:103C2000EAF70AC080E28C0F883098F4C77081E010
:103C300001C0880FCA95EAF7DF91CF911F910F91CC
:103C40000C947025802FDF91CF911F910F910C94D0
:103C50002326DF91CF911F910F910895CF93DF938A
:103C6000C7EAD1E060E0CE010E9455262196C11539
:103C700084E0D807B9F7DF91CF910895CF92DF9212
:103C8000EF92FF920F931F93CF93DF93C0E0D0E0AA
:103C90008E01005A1F4F6E0188E1C80ED11CFE0133
:103CA000EC5AFB4FE590F4906F2DCE0187960E9461
:103CB00055266E2DCE0188960E9455262296CC154B
:103CC000DD0569F70C171D0731F7E80100381140D1
:103CD000F9F6DF91CF911F910F91FF90EF90DF9058
:103CE000CF9008950F931F93CF93DF93C42FD0E00D
:103CF000CC0FDD1F28E1629FC00DD11D112430E6DD
:103D0000839FC00DD11D1124CE0187960E944126AC
:103D1000082F10E0102F0027CE0188960E94412620
:103D20009801282BC901DF91CF911F910F91089520
:103D3000462F843038F4743028F46C3018F4672F30
:103D40000C94721E80E090E00895CF93C82F8111EB
:103D500002C06FEF01C061E283E290E00E9455264D
:103D6000C11102C06FEF01C061E184E290E00E94E6
:103D70005526C11102C06FEF01C066E285E290E0F6
:103D8000CF910C94552680E00E94A51E60E086E24B
:103D900090E00E9455260E943E1E0E942E1E81E049
:103DA0000C94A51E83E290E00E944126813281F4AA
:103DB00084E290E00E944126813151F485E290E056
:103DC0000E94412691E0863209F090E0892F01C0DF
:103DD00080E08170089590914A0290FF04C096950A
:103DE000981740F003C0811105C090E0961710F4B9
:103DF0000C942F2361E00C94EB22882311F0FA013C
:103E000001C0FB01099460914A02669570E04BE0A5
:103E100050E08BE091E00E942B27892B19F481E080
:103E200080931F020E94DF1690931902809318025C
:103E3000089580914A0280FF0AC06E9A8EB18F7BEE
:103E40009EB190642FB7F894E3E2F2E00BC0E3E296
:103E5000F2E0118210821282339632E0EA34F307E4
:103E6000C1F7EBCF32E0EA34F30789F0319148E053
:103E70009EB9000000C037FF8EB9330F000000C0AC
:103E800000C000C08EB900C04A9591F7EBCF2FBF9C
:103E90008FE594E00197F1F700C000000895EF92DC
:103EA000FF920F931F93CF93DF938C01C3E2D2E075
:103EB000E12CF12CF8018481F6E0EF16F1041CF4FA
:103EC000882339F002C0811104C09E0140914D0247
:103ED00002C09E0140E060914C0280914B020E9422
:103EE0005E218FEFE81AF80A23969DE0E916F104A7
:103EF00009F70E94191FF801848190E001968170F2
:103F000099278483DF91CF911F910F91FF90EF90BC
:103F100008958F929F92AF92BF92CF92DF92EF92CD
:103F2000FF920F931F93CF93DF93EC014C81042FEB
:103F300010E09801D8010E94F6269B01AC010E9476
:103F40000C276B017C01E0E2F0E0E01BF10BA5E542
:103F5000B0E09B01AC010E940C274B015C019F016A
:103F6000DF010E94EE269B01AC010E9417279B01F6
:103F7000AC012C0D3D1D4E1D5F1DC501B4010E94FD
:103F8000BF26822FF22E99E2921728F093E0299F04
:103F9000900111240DC025E530E0281B3109C9012D
:103FA000880F991F280F391F37FF02C02F5F3F4F1F
:103FB00035952795122F109593E2C92E92E0D92EB0
:103FC00000E085E5E82EEF1801FD02C08E2D01C04E
:103FD0008F2D9601412F60914C020E945E210F5F50
:103FE00083E0C80ED11C0D3079F70E94191F8C8117
:103FF000811102C091E003C0803219F49FEF9093C9
:10400000180190911801890F8C83DF91CF911F9136
:104010000F91FF90EF90DF90CF90BF90AF909F9067
:104020008F9008950F931F93CF93DF93C3E2D2E055
:10403000FE01118210821282339682E0EA34F80780
:10404000C1F700E010E080912102082E000C990BCE
:104050000817190794F080911701082E000C990B8E
:104060008017910754F09E0140914D0260914C02DF
:1040700080914B020E945E2103C0198218821A822D
:104080000F5F1F4F23960D301105E9F60E94191F8F
:104090008091160190912102980F90932102209116
:1040A0001701280F20931701121614F49C301CF0EE
:1040B000819580931601DF91CF911F910F91089503
:1040C000BF92CF92DF92EF92FF920F931F93CF9305
:1040D000DF93FC01828180FF03C0DD24DA9402C0FB
:1040E000DD24D39403E212E0C0E0D0E02DE0B22E54
:1040F000F80111821082128294E0E92EF12CC12C79
:10410000809120028C0D8E302CF06B2D0E94892620
:10411000892F02C087FD835F082E000C990BC817FA
:10412000D90791F480914D028E9DA0018F9D500D75
:1041300011245595479555954795980160914C02E6
:1041400080914B020E945E21CD0CF1E0EF1AF10844
:10415000B9F621960D5F1F4FCD30D10549F60E946B
:10416000191F8091200291E0D91206C0811102C06E
:104170008CE007C0815005C090E00196BE010E940E
:10418000AB2680932002DF91CF911F910F91FF907A
:10419000EF90DF90CF90BF900895EF92FF921F9322
:1041A000CF93DF93EC0183E2E82E82E0F82E10E05B
:1041B0008C81970140914D0260914C02810F0E94C9
:1041C0005E211D5E83E0E80EF11C173F89F70E9417
:1041D000191F9A818C8190FF02C08F5F01C08150AE
:1041E0008C83DF91CF911F91FF90EF900895909174
:1041F0004A0290FF0CC0E3E2F2E0818360834283D5
:10420000339692E0EA34F907C1F70C94191F089528
:1042100080914A02282F269530E02115310519F4A6
:104220008170826005C02532310524F08170886478
:1042300080934A020895CF92DF92EF92FF926B0132
:104240007C010E940821B701A60188E090E0FF9060
:10425000EF90DF90CF900C94672680914E028823D8
:1042600019F0815080934E0260914A0270914B0286
:1042700080914C0290914D020C941B2180914E0232
:10428000833018F48F5F80934E0260914A027091E0
:104290004B0280914C0290914D020C941B21EAE458
:1042A000F2E083E0808311828FEF82838383148224
:1042B00060817181828193810C941B21AF92BF92A6
:1042C000CF92DF92EF92FF920F931F93CF93DF93E2
:1042D000E82EF62EE901E42FF0E0611106C0EC5261
:1042E000FA4FE4914E2F2E2F71C0062F10E0EC52A2
:1042F000FA4F4491F42FC42ED12C26E0829FC001A6
:1043000011242FEF30E0B9010E9497265BEA560393
:10431000C001579F900D11248E0D911D8E0D911D82
:10432000582F550F580FD901A01BB10BAC9DC001E0
:10433000AD9D900DBC9D900D1124E92FF59ED001EF
:104340001124AB2FBB277901EA1AFB0AEC9CD001A0
:10435000ED9CB00DFC9CB00D11245901A51AB108BB
:10436000A09E7001A19EF00CB09EF00C1124EF2CC9
:10437000FF242E193F092C9D80012D9D100D3C9D81
:10438000100D1124212F6230710591F048F4611550
:104390007105E1F061307105B9F4242F4B2F16C07F
:1043A0006430710569F040F06630710579F00CC039
:1043B000242F492FE12F0AC0492FEF2F2B2F06C0A2
:1043C000292FE42F412F02C0292FEB2F4983288367
:1043D000EA83DF91CF911F910F91FF90EF90DF90D3
:1043E000CF90BF90AF900895CF93DF9300D01F92EE
:1043F000CDB7DEB790914A0290FF0AC09E012F5FB1
:104400003F4F0E945E214B8169818A810E94F72083
:104410000F900F900F90DF91CF9108955F926F9260
:104420007F928F929F92AF92BF92CF92DF92EF9244
:10443000FF920F931F93CF93DF9300D01F92CDB7BE
:10444000DEB7182F762E042F622E90914A0290FF2D
:104450006DC0E92FE695AE2FB0E0A759BE4F8C9105
:1044600080931E029E7F923061F49E012F5F3F4F2A
:10447000812F0E945E214B8169818A810E94F720F1
:1044800043C0823019F400914D023EC0863019F4C9
:1044900010914B0239C08930D9F38931A9F5E9511E
:1044A0008E2F8170582EE695F0E0EC52F94FA590D2
:1044B000B49083E2C82E82E0D82EE12CF12CBB24EC
:1044C0009DE0892E912CAE9CC001AF9C900DBE9CAE
:1044D000900D1124B4010E949726812F511002C023
:1044E000860F01C0861B9601402F672D0E945E211A
:1044F0008FEFE81AF80A83E0C80ED11C8DE0E816A9
:10450000F10409F70E94191F10934B0270924C029C
:1045100000934D02662051F060914A0270914B0267
:1045200080914C0290914D020E941B210F900F90A0
:104530000F90DF91CF911F910F91FF90EF90DF903F
:10454000CF90BF90AF909F908F907F906F905F9033
:104550000895EAE4F2E0438121E1421B08F440E0DF
:1045600021E0628181810C940E22EAE4F2E0438131
:1045700021E1420F08F44FEF21E0628181810C9428
:104580000E22EAE4F2E0628121E1621B08F460E0BD
:1045900021E0438181810C940E22EAE4F2E0628101
:1045A00021E1620F08F46FEF21E0438181810C94D7
:1045B0000E22EAE4F2E0818121E0438162818850A9
:1045C0000C940E22EAE4F2E0818121E043816281D1
:1045D000885F0C940E2290914A0290FF36C0917031
:1045E000811102C0926006C0853210F0986402C04A
:1045F000880F982B90934A02662351F060914A02EB
:1046000070914B0280914C0290914D020E941B21AF
:1046100060914A02669570E04BE050E08BE091E0DB
:104620000E942B27892B19F010921F0202C00E94B2
:10463000031F81E080931B0220E040914D026091B6
:104640004C0280914B020C940E22089580914A02F4
:104650008695815009F484E261E00C94EB2280910C
:104660004A0286958F5F853208F081E061E00C9404
:10467000EB220E94DF1620916202211104C02091DA
:104680006302222321F090935F0280935E022091C7
:104690006402211104C020916502222321F090932D
:1046A0005D0280935C02E0915402F09155023097D4
:1046B00049F082E0809360020480F581E02D80E67D
:1046C00092E009940895803F39F49091630297FF36
:1046D00035C01092630259C0813F29F49091630262
:1046E0001916BCF32BC090916202823F29F497FF08
:1046F00025C01092620249C0833F19F41916CCF309
:104700001DC090916402893F29F41916BCF41092DF
:1047100064023BC08A3F19F497FF10C0F8CF8B3F6B
:1047200039F49091650297FF09C0109265022DC07F
:104730008C3F21F4909165021916BCF39CE0980F10
:10474000953080F421E030E0A90102C0440F551FEC
:104750009A95E2F7CA01809590916102892380932E
:10476000610213C08D3F21F480915B028E7F0BC0EC
:104770008E3F21F480915B028D7F05C08F3F29F42D
:1047800080915B028B7F80935B028091620281113A
:1047900006C080916302811102C010925A0280917A
:1047A0006402811106C080916502811102C01092DD
:1047B0005902089580915B0280FD16C081FD16C0EC
:1047C00082FD18C080915902882391F0883290F4BC
:1047D00028E0829FC001112468E270E00E94AB26AD
:1047E000862F672B29F007C082E0089584E00895A2
:1047F00081E0089588E0089580915B0280FD14C0F7
:1048000081FD14C082FD16C080915A02882381F078
:10481000843180F422E3829FC001112464E170E0BE
:104820000E94AB26862F08958CE0089589E10895B3
:1048300085E0089582E30895803F21F40E94FC23DF
:10484000819504C0813F29F40E94FC238093630278
:104850000895823F21F40E94FC23819504C0833F88
:1048600029F40E94FC23809362020895893F19F481
:104870000E94DA2305C08A3F31F40E94DA23819531
:104880008093640208958B3F21F40E94DA2381957E
:1048900004C08C3F29F40E94DA23809365020895B6
:1048A0009CE0980F953078F421E030E0A90102C037
:1048B000440F551F9A95E2F7CA0190916102892B26
:1048C0008093610208958D3F21F480915B028160A5
:1048D0000BC08E3F21F480915B02826005C08F3F48
:1048E00029F480915B02846080935B02089580E0EC
:1048F00090E00E94991D80E090E00E94831D10923C
:104900001102109210020E94531AE0E6F2E086E0D3
:10491000DF011D928A95E9F710925A02109259020E
:1049200010925B020C943923CF92DF92FF920F9387
:104930001F93CF93DF936C010091CE0180911402FD
:10494000082BC7E0D0E010E0C8010C2E02C09595FE
:1049500087950A94E2F780FD04C02197A8F7F12C0F
:1049600009C0FC2EB6018C2F0E94981E0E942D18A3
:10497000019799F38F2DDF91CF911F910F91FF90A8
:10498000DF90CF9008952CE0929F800D1124682F26
:10499000669566956695982F977083E0689FB0013D
:1049A000112440E050E080E0FB01E40FF51FEA59DC
:1049B000FD4F208130E0092E02C0369527950A94DC
:1049C000E2F721703327042E01C0220F0A94EAF780
:1049D000822B4F5F5F4F4330510531F708952CE034
:1049E000929F800D1124E82FE695E695E695877055
:1049F00051E001C0550F8A95EAF783E0E89FF00186
:104A00001124EA59FD4F20E030E070E04081CB01F5
:104A1000022E02C0969587950A94E2F781708195DF
:104A200084278523842781932F5F3F4F23303105CF
:104A300069F708958093CE010C94772421E030E04B
:104A400001C0220F8A95EAF720958091CE0182233A
:104A50000C941A2521E030E001C0220F8A95EAF774
:104A60008091CE01822B0C941A25809314020C9411
:104A70007724FC01808191810E942D1B292F2F70AA
:104A8000E92FE295EF704E2F50E0FA013297EE30A9
:104A9000F105B8F4E158FF4F0C94E126803F99F0FE
:104AA00018F4883E70F40FC0843F59F40CC0883E5F
:104AB00050F0813F31F407C0822F86958695869508
:104AC000089580E0089581E008951092120286E032
:104AD000E1EDF1E0DF011D928A95E9F70C9477246E
:104AE000882341F0809590911202892380931202CD
:104AF0000C94531A0895882339F090911202892B4F
:104B0000809312020C94531A08958823E1F19CEFCC
:104B1000980F913A60F4EFECF1E09281891301C0B3
:104B20001282319641E0E53DF407B9F714C090E2F6
:104B3000980F983090F4877021E030E0A90102C00E
:104B4000440F551F8A95E2F7CA0180959091120291
:104B50008923809312020C94531A9BE5980F93308B
:104B600020F480E090E00C94991D98E5980F97311F
:104B700020F480E090E00C94831D803F20F00E94A0
:104B800063230C9439230895CF93882309F459C0E3
:104B9000C82F8CEF8C0F813AF8F4E1EDF1E087ED4E
:104BA00091E02191C21721F08E179F07D1F70EC017
:104BB000EFECF1E085ED91E02281C21301C0128299
:104BC00031968E179F07C1F70E94531A6C2F8FECF6
:104BD00091E00E94691D10C080E28C0F883078F44B
:104BE000C77081E090E001C0880FCA95EAF7909104
:104BF0001202892B80931202CF910C94531AEBE589
:104C0000EC0FE33040F4F0E0E85CFE4F808190E090
:104C1000CF910C94991DE8E5EC0FE73150F4F0E0EA
:104C2000EE0FFF1FE55CFE4F80819181CF910C94C8
:104C3000831DC03F30F08C2F0E941C24CF910C9418
:104C40003923CF9108951F93CF93DF93182F893382
:104C500019F0C0E0D0E002C0C0E5D0E0812F0E9492
:104C6000C425209741F08FE99FE00197F1F700C03C
:104C700000002197F6CF812FDF91CF911F910C94E7
:104C80008525F999FECF92BD81BDF89A992780B507
:104C90000895A6E1B0E044E050E00C947B26A8E142
:104CA000B0E042E050E00C947B26262FF999FECF2D
:104CB00092BD81BDF89A019700B4021639F01FBA6F
:104CC00020BD0FB6F894FA9AF99A0FBE089503968C
:104CD000272F0E9456260E945526252F0E945626D1
:104CE000242F0C9456260196272F0E9456260C94AA
:104CF0005526DC01CB01FC01F999FECF06C0F2BDBF
:104D0000E1BDF89A319600B40D9241505040B8F789
:104D1000089587FB082E062687FD819567FD61951E
:104D20000E941F270EF4919507FC81950895AA1BF8
:104D3000BB1B51E107C0AA1FBB1FA617B70710F086
:104D4000A61BB70B881F991F5A95A9F780959095B8
:104D5000BC01CD01089597FB072E16F4009407D0EF
:104D600077FD09D00E94972607FC05D03EF4909568
:104D700081959F4F0895709561957F4F0895A1E2A9
:104D80001A2EAA1BBB1BFD010DC0AA1FBB1FEE1FC5
:104D9000FF1FA217B307E407F50720F0A21BB30B10
:104DA000E40BF50B661F771F881F991F1A9469F78C
:104DB00060957095809590959B01AC01BD01CF01E8
:104DC0000895EE0FFF1F0590F491E02D09946927D7
:104DD0009627692778278727782708950E94F6263F
:104DE000332312F48A1B9B0B0C940727A29FB0015C
:104DF000B39FC001A39F700D811D1124911DB29F0F
:104E0000700D811D1124911D08950E94F626B7FF93
:104E10000895821B930B08950E94F626A59F900D7E
:104E2000B49F900DA49F800D911D11240895B7FF8C
:104E30000C940C270E940C27821B930B0895991B3E
:104E400079E004C0991F961708F0961B881F7A9581
:104E5000C9F780950895FC014150504030F0019011
:104E60000616D1F73197CF0108958827992708951D
:104E7000FB01DC0104C08D910190801921F44150A7
:0E4E80005040C8F7881B990B0895F894FFCF97
:104E8E0031115A163B16371633160101191A1B1C0F
:104E9E001D1E1F202122010201F0673695F1F4F547
:104EAE00F6F76633379093929140227B7902570240
:104EBE00DC01CB02E4020403818283E200E900EA12
:104ECE0000B500B600B700CD008301CC008A019278
:104EDE000194012102230224022502260227022A1E
:104EEE0002B300B4006F007000000102020202065D
:104EFE0006060909090909090F0F0F0F0F0F1515DE
:0E4F0E00151819191919191919191919232427
:00000001FF
