:100000000C94DA040C9421050C9421050C94210520
:100010000C9421050C9421050C9421050C942105C8
:100020000C9421050C9421050C9477170C94B316AD
:100030000C94431A0C9421050C9421050C94210571
:100040000C9421050C9421050C9421050C94210598
:100050000C94311C0C9461190C9421050C9421050D
:100060000C9421050C9421050C9421050C94210578
:100070000C9421050C9421050C9421050C94210568
:100080000C9421050C9421050C9421050C94210558
:100090000C9421050C9421050C9421050C94210548
:1000A0000C9421050C9421050C942105730A730A04
:1000B000AE0AAE0A080B260B300C300C310BA50B28
:1000C000B60BB60B6B0C6D0C750CAB0CC40C850C25
:1000D000DF0C2C112F115A1167116E118E11911115
:1000E000EE112812CE12CE12371239123C126112C2
:1000F000831286128912AD12C714EE149516EE14EF
:1001000095163A155D159516521662164F20512018
:10011000552057205A205D205F20642066206820EB
:100120006A206C206F20722076207B20E720E92057
:10013000ED20EF20F220F520F720FC20FE2000210A
:100140000221042107210A210E211321EA24EA2495
:10015000FD24FD24F324FD24FD24FD24EA24EA24C7
:10016000F824FD24FD24F824000000000000000015
:10017000000000000000000000000000000000007F
:100180000000000000000000000000007E0F00D40E
:10019000FFFFFFC700000078000000000000000023
:1001A0002A2B2800000000000000000000000000D2
:1001B00000000029000000002C1E342021222434DD
:1001C0002627252E362D3738271E1F2021222324AF
:1001D00025263333362E37381F0405060708090A4B
:1001E0000B0C0D0E0F101112131415161718191AE7
:1001F0001B1C1D2F3130232D350405060708090A65
:100200000B0C0D0E0F101112131415161718191AC6
:100210001B1C1D2F3130354C1E0F0500047F3F1F66
:10022000643214643214783C1E1E140A0505010958
:1002300002A10185020901A100050919012908157A
:100240000025019508750181020501093009311564
:1002500081257F95027508810609381581257F95CE
:100260000175088106050C0A38021581257F950164
:1002700075088106C0C005010980A1018503190127
:100280002AB700150126B700950175108100C00539
:100290000C0901A101850419012AA002150126A05B
:1002A00002950175108100C005010906A1018505AF
:1002B000050719E029E71500250195087501810258
:1002C0000507190029EF1500250195F07501810238
:1002D0000508190129059505750191029501750318
:1002E0009101C00660FF0961A1010962150026FFA6
:1002F000009520750881020963150026FF009520EE
:1003000075089102C005010906A101050719E02938
:10031000E715002501950875018102950175088191
:10032000010507190029FF150026FF00950675082D
:1003300081000508190129059505750191029501AE
:1003400075039101C009025B00030100A0FA0904D2
:1003500000000103010100092111010001224000F8
:1003600007058103080001090401000203000000E1
:10037000092111010001222200070582032000014A
:100380000705030320000109040200010300000027
:1003900009211101000122B6000705840320000194
:1003A00012010002000000084C4D0287010001020A
:1003B0000001220349006E00660069006E006900BA
:1003C0007400790038003700200072006500760064
:1003D0002E003200000022034D006500630068001B
:1003E0006C006F00760069006E002E0053007400F0
:1003F0007500640069006F000000040309042223F3
:10040000252628292A2C2D2F3032333536383A3BF1
:100410003D3E4042434547494A4C4E505153555743
:10042000595A5C5E6062646668696B6D6F71737562
:1004300077797B7D7F81838587898A8C8E90929462
:1004400096989A9C9E9FA1A3A5A7A8AAACAEAFB16F
:10045000B3B4B6B8B9BBBCBEBFC1C2C3C5C6C7C9B9
:10046000CACBCCCDCED0D1D2D2D3D4D5D6D7D7D873
:10047000D9D9DADADBDBDBDCDCDCDCDCDDDDDDDDC5
:10048000DCDCDCDCDCDBDBDBDADAD9D9D8D7D7D6CD
:10049000D5D4D3D2D2D1D0CECDCCCBCAC9C7C6C584
:1004A000C3C2C1BFBEBCBBB9B8B6B4B3B1AFAEACCA
:1004B000AAA8A7A5A3A19F9E9C9A98969492908E75
:1004C0008C8A89878583817F7D7B79777573716F4E
:1004D0006D6B6968666462605E5C5A59575553512A
:1004E000504E4C4A4947454342403E3D3B3A3836E0
:1004F000353332302F2D2C2A29282625232200009F
:1005000000000000000000000001010203040506D5
:10051000080A0C0F1114181C2024292E33393F46C9
:100520004C535B626A7179818A929AA2AAB2B9C16C
:10053000C8CFD5DCE1E7EBF0F4F7FAFCFDFEFFFEF7
:10054000FDFCFAF7F4F0EBE7E1DCD5CFC8C1B9B2B6
:10055000AAA29A928A8179716A625B534C463F39AA
:10056000332E2924201C1814110F0C0A0806050428
:10057000030201010000000000000000000029004B
:100580003A003B003C003D003E003F00400041007F
:1005900042004300440045004C004600470048002C
:1005A00035001E001F00200021002200230024002F
:1005B0002500260027002D002E002A0049004A00B1
:1005C0004B002B0014001A000800150017001C0037
:1005D00018000C00120013002F00300031004C00F6
:1005E0004D004E00390004001600070009000A0003
:1005F0000B000D000E000F00330034002002280015
:10060000000000000000E10031001D001B0006009A
:100610001900050011001000360037003800E10015
:10062000E100000052000000E000E300E2000000F2
:10063000000000002C00000000000000E200E300C9
:100640000151E000500051004F0001000100010085
:100650000100010001000100010001000100010092
:100660000100010001000100010001000100010082
:100670000100010001000100010001000100010072
:100680000100010001000100010001000100010062
:100690000100010001000100010001000100010052
:1006A0000100010001000100010001000100010042
:1006B0000100010001000100010001000100010032
:1006C0000100010001000100010001000000000024
:1006D0000000010001000100010001000100010013
:1006E0000100010001000100010001000100000003
:1006F00001000000010001000100000000000000F6
:1007000001000000000000000100010001000100E4
:1007100001000100010001000100010001000100D1
:1007200001000100010001000100010001000100C1
:1007300001000100010001000100010001000100B1
:1007400001000100010001000100010001000100A1
:100750000100010001000100010001000100010091
:100760000100010001000100010001000100010081
:100770000100010001000100010001000100010071
:100780000100010001000100010001000100010061
:100790000100010001000100000000000000010054
:1007A0000100010001000100010001000100010041
:1007B0000100010001000100010000000100000033
:1007C0000100010001000000000000000100000025
:1007D0000000000001000100010001000100010013
:1007E0000100010001000100010001000100010001
:1007F00001000100010001000100010001000100F1
:1008000001000100010001000100010001000100E0
:1008100001000100010001000100010001000100D0
:1008200001000100010001000100010001000100C0
:1008300001000100010001000100010001000100B0
:1008400001000100010001000100010001000100A0
:100850000100010001000100010001000100010090
:100860000100010000000000000001000100010083
:100870000100010001000100010001000100010070
:100880000100010001000000010000000100010062
:100890000100000000000000010000000000000056
:1008A0000100010001000100010001000100000140
:1008B0000101010101010101020202020202020220
:1008C00002030303030303030304040404040404F2
:1008D00005050505050606060606070707070708B6
:1008E000080808090909090A0A0A0B0B0B0C0C0C69
:1008F0000D0D0D0E0E0E0F0F0F1010111111121203
:1009000013131414151516161717181819191A1A7F
:100910001B1B1C1D1D1E1E1F2020212222232424E0
:10092000252626272829292A2B2C2D2D2E2F30311C
:100930003232333435363738393A3B3C3D3E3F402E
:100940004142434445464748494A4C4D4E4F505119
:100950005354555658595A5B5D5E5F6162646566D3
:1009600068696B6C6D6F7072737577787A7B7D7E5A
:100970008082838587888A8C8E8F91939596989AAA
:100980009C9EA0A2A3A5A7A9ABADAFB1B3B5B7BAC2
:10099000BCBEC0C2C4C6C9CBCDCFD1D4D6D8DBDD96
:1009A000DFE2E4E7E9EBEEF0F3F5F8FAFDFFFFAA8A
:1009B0007F55400011241FBECFEFDAE0DEBFCDBF70
:1009C00004B603FE27C080918A0390918B03A09107
:1009D0008C03B0918D038730904BA740B04BD1F47E
:1009E00010928A0310928B0310928C0310928D0345
:1009F00014BE84B7877F84BF0FB6F894A895809102
:100A00006000886180936000109260000FBEE0E09B
:100A1000F8E3099511E0A0E0B1E0EAE2FAE502C0EE
:100A200005900D92AE38B107D9F723E0AEE8B1E0FA
:100A300001C01D92AA38B207E1F70E940A0D0C947A
:100A4000132D0C9400001F93CF93DF93CDB7DEB727
:100A500067970FB6F894DEBF0FBECDBF4B8B5C8B94
:100A60006D8B7E8B8F8B611110924F0386E09E0100
:100A7000235F3F4FD901E82F1D92EA95E9F795E0F2
:100A8000FE017396D90101900D929A95E1F79C8928
:100A90004E895F897B897D879E876F87598B488BBD
:100AA000F901DE01179601900D928A95E1F7CE01CA
:100AB00007960E94012581113EC086E0FE0137960F
:100AC000DE01119601900D928A95E1F7FF81E8858C
:100AD0006A857B856115710531F0EF3F31F481E066
:100AE000FF3F19F403C081E001C080E080FD23C016
:100AF00020911B0330E0C90101968770992740912E
:100B00004C0350E08417950779F1F983EA837D83DC
:100B10006C8396E0929FD001939FB00D1124A45E48
:100B2000BC4FFE01319601900D929A95E1F78093AA
:100B30001B030E94062416E080914C0390911B0336
:100B40008917F9F0189FC0011124845E9C4F0E9400
:100B500001258823B1F080914C0390E001968770C5
:100B6000992780934C03E8CF0E94182710921B030B
:100B700010924C03E5E1F3E086E0DF011D928A95D7
:100B8000E9F767960FB6F894DEBF0FBECDBFDF91D1
:100B9000CF911F91089581FB222720F982FB99278D
:100BA00090F980FF02C05F9A01C05F98222311F084
:100BB0005E9A01C05E98992311F02C9A08952C98A2
:100BC00008953F924F925F926F927F928F929F9281
:100BD000AF92BF92CF92DF92EF92FF920F931F934B
:100BE000CF93DF93CDB7DEB729970FB6F894DEBF6A
:100BF0000FBECDBFFC018081918123813481232BE5
:100C000031F09F3F31F491E08F3F19F403C091E040
:100C100001C090E090FDE6C67F0185E0DE011196FF
:100C200001900D928A95E1F7F701228189819A81DD
:100C3000222349F00E949924182F682F89819A81D4
:100C40000E94CE2603C00E94A226182F69817A81B5
:100C5000812F0E94DE1B8C01F7018281882309F419
:100C6000F2C0980122513F452031310508F019C1E9
:100C70008FEF93E00E94ED2B8111EFC0025137E519
:100C8000832E33E0932E002379F08114F4E09F0645
:100C900009F4E3C0C4010E94ED2B811101C0015091
:100CA0002FEF821A920AEFCF1E821F8218861986B2
:100CB000442443942AE0322E84010F5F1F4FC40165
:100CC0000E94ED2B8E831F82882309F4C6C09FEFFC
:100CD000980F933060F48F834E8232E0830E911C24
:100CE000C8010E94ED2B8887811102C0B6C048015F
:100CF0008E010A5F1F4FF80120812223E9F2213083
:100D000009F04CC08181813049F46801F2E0CF0ED6
:100D1000D11CF80182810E94F3270AC0823051F46D
:100D20006801F2E0CF0ED11CF80182810E947B277E
:100D3000860186C0833049F46801F2E0CF0ED11CF1
:100D4000F80182810E944227F3CF843019F00F5FAF
:100D50001F4F76C0F80122810E5F1F4F80E090E0A8
:100D600030E0205331092A30310568F4389EA00163
:100D7000399E500D1124C901840F951F0F5F1F4F1D
:100D8000F8012081EDCF009709F45AC0EFE9FFE0A8
:100D90003197F1F700C000000197F5CFE22FF0E0A6
:100DA000E856FE4F5490822F86958695869590E062
:100DB000FC01E857FE4F64902770712C022E02C090
:100DC000759467940A94E2F7F1E06F227724FC01AE
:100DD000E858FE4FA490B12C022E02C0B594A794FF
:100DE0000A94E2F731E0A322BB24FC01E859FE4F4C
:100DF000C490D12C02C0D594C7942A95E2F781E023
:100E0000C822DD246114710419F081EE0E947B2751
:100E1000A114B10419F086EE0E947B27852D0E9453
:100E2000F327AB2819F086EE0E944227672819F0B5
:100E300081EE0E944227CD2819F08CE20E94F32710
:100E40000F5F1F4F58CF00313FE5130709F0C1C5B1
:100E500081E00E94FD260E94D61380914D03877089
:100E600009F4C0C5F7018281882309F4BBC582E07B
:100E700029960FB6F894DEBF0FBECDBFDF91CF919C
:100E80001F910F91FF90EF90DF90CF90BF90AF90A8
:100E90009F908F907F906F905F904F903F900C94B9
:100EA000E9230031FFE51F0711F481E005C001319E
:100EB0002FE5120721F482E00E940927CCCFF80128
:100EC000EB5BFC45E730F10508F401C5033FFCE5A9
:100ED0001F0799F406E221EE40EE63EF7CE509C0BE
:100EE000073DECE51E0711F506E221EE41EE67ED48
:100EF0007CE5C7010E94011BB0CF043F2CE512071F
:100F000008F046C1083D3CE5130731F407E225EE41
:100F100045EE68ED7CE5EDCF093D9CE5190701F74D
:100F200008E221E045EE69ED7CE5E3CF882309F492
:100F300064C11092ED0203309DE5190758F40A3F91
:100F4000ECE51E0760F4C80182509C45449708F008
:100F50003EC105C00136FDE51F0709F038C10E94FA
:100F6000FD229093E3018093E20100312CE512070A
:100F700009F4CAC008F041C008308CE5180709F42C
:100F8000A4C0F0F40430ECE51E0709F48CC068F44A
:100F900002302CE5120709F482C003301C4509F029
:100FA000E7C08091E2018260E1C006308CE518075D
:100FB00009F483C008F085C08091E2018860D6C042
:100FC0000C30ECE51E0709F490C068F40A302CE5FB
:100FD000120709F47EC008F084C00E94182780918F
:100FE000E2018068C3C00E308CE5180709F481C0A7
:100FF00008F086C08091E20194C00C3FECE51E072A
:1010000009F47BC038F504312CE5120709F49AC0C5
:1010100058F402318CE5180709F47AC008F07EC054
:101020008091E2018F7BA2C00A3FECE51E07F1F13F
:1010300008F03FC005311C4509F09AC08091E201DB
:1010400082FB222720F991E0922790FB82F990FB06
:1010500083F98CC001153DE5130709F467C050F40E
:101060008091E3010E3F9CE51907C1F108F05BC0D8
:101070008D7F65C00230FDE51F0709F471C008F4DB
:101080006DC001361D4509F073C08091E20184FBFB
:10109000222720F991E0922790FB84F967C0809184
:1010A000E201816063C08091E20116C08091E3019A
:1010B00016C08091E301826042C08091E2018061AC
:1010C00055C08091E201806251C08091E20180644C
:1010D0004DC08091E2018860846048C08260816078
:1010E0002EC08091E2018E7F41C08091E2018D7F10
:1010F0003DC08091E201877F39C08091E30114C037
:101100008091E2018F7E32C08091E2018F7D2EC0FE
:101110000E9418278091E2018F7728C08091E20118
:10112000877F8B7F23C08D7F8E7F09C08091E301F5
:10113000982F909591708E7F892B90FB81F98093E9
:10114000E30116C00E9418278091E20187FB222745
:1011500020F991E0922790FB87F908C061E001C077
:1011600060E08EE090E00E94012C02C08093E201DA
:101170006091E2011091E30184E090E00E94012C73
:10118000612F82E290E00E94012C0E94182765CE18
:10119000053FFCE51F0731F406E221EE42EE65EF64
:1011A0007CE5A7CE053F2CE5120730F407E225EEDB
:1011B00044EE64EF7CE59DCE063F3CE5130709F065
:1011C000B5CE07E225EE46EE66EF7CE592CE809145
:1011D000500306319CE5190709F58A7A91E009F474
:1011E00090E090939001882311F065E301C069E2DB
:1011F00085EF92E00E94941A0EC006311C4509F05A
:1012000029C180919001882309F4EAC365E385EF41
:1012100092E00E946C1A0E9489231FCE82720C3CBD
:101220009CE5190709F4C4C008F045C0063CFCE57C
:101230001F0709F4A9C0D8F4033C3CE5130709F4DF
:1012400099C030F4023CECE51E0709F46EC0D1C031
:10125000043CFCE51F0709F492C0053C2CE512078D
:1012600009F0C7C043EF59E26CEF79E2A5C0093C31
:101270003CE5130709F492C078F4073CECE51E073F
:1012800009F487C0083CFCE51F0709F0B2C047EE2F
:1012900059E26BED79E290C00A3C2CE5120709F4A3
:1012A00082C00B3C3CE5130709F0A3C047E458E2B9
:1012B00068E578E281C0013D8CE5180709F488C033
:1012C000A0F40E3CECE51E0709F47CC008F477C0DE
:1012D0000F3C2CE5120709F478C0003D3CE51307EC
:1012E00009F087C06EE089E081C0043D8CE51807F5
:1012F00009F474C068F4023DECE51E0709F46BC004
:10130000033DFCE51F0709F074C061E088E16BC094
:10131000053D2CE5120709F464C00D353DE51307C2
:1013200009F067C06AE285E261C08091E20280FF55
:101330001BC08E7F8093E2026091E2027091E30213
:101340008091E4029091E5020E94352810921E02DD
:101350008FEF90E7E2E081509040E040E1F700C07D
:1013600000000E94641D79CD81608093E20261E0FB
:10137000869539C040E45AE269E47AE21DC049E446
:101380005AE260E47AE218C04CEF59E263EF79E286
:1013900013C04BED59E267EE79E20EC043EC59E21F
:1013A0006FEC79E209C04FEC59E263EC79E204C0DA
:1013B00048E558E267E478E20E94481D4ECD61E0BE
:1013C00081E011C065E082E011C068E086E00EC0F7
:1013D00064E18FE00BC067E185E108C062E289E16A
:1013E00005C061E083E20E94052A37CD0E94361DC8
:1013F00034CD0A35FDE51F0741F150F401153CE5F8
:101400001307A9F00E3D1C4529F50E94192325CD8F
:101410000B359DE51907D9F00C351D45D9F48091A0
:10142000E30182FB882780F991E0892711C00E949F
:101430001827FFEF24E33CE0F15020403040E1F773
:1014400000C000000E943D1908CD81E001C080E08D
:101450000E94CF23F701828100811181882349F006
:10146000C8010E949924D82E682FC8010E94CE2658
:1014700004C0C8010E94A226D82EB8018D2D0E945A
:10148000DE1B0E946321B82E192F982EF7010281CE
:10149000A580A2949FE0A92280914D03877099F0C6
:1014A000002389F0812F807F803421F080E28B0D32
:1014B000883048F082E00E94E92380914D038770D4
:1014C000DD24D3948111D12CC12EC2948FE0C82287
:1014D0008C2D90E08C30910508F0C2C1FC01EA5AD5
:1014E000FF4F0C94EA2C812F807F1F70882311F00E
:1014F0001295107F0023B9F0112309F49DC180E2F9
:101500008B0D883010F0911006C080915003182B7D
:101510001093500305C080914F03182B10934F0375
:101520000E94892389C18B2D0E944227112309F42F
:1015300097C180E28B0D1095883010F0911006C095
:101540008091500318231093500305C080914F03DE
:10155000182310934F030E94892382C1812F807F1B
:101560001F70803211F01295107F8B2D992021F081
:10157000F1E09F1611F130C00023B1F0AA2081F0F4
:1015800021E0A2120DC08091E30182FD69C180912A
:101590005103182B181709F463C11093510360C14C
:1015A00080915103812B10C0AA2021F031E0A316B5
:1015B00009F456C10E94832327C0002341F085E02F
:1015C0008A1508F44DC1812F0E94382749C194E043
:1015D0009A1508F445C118C0002349F0AA2099F3D0
:1015E000F701858180FF28C18F708583ECCFAA2009
:1015F00059F0893309F031C1FFEF27EE33E0F150A4
:1016000020403040E1F727C1812F0E942D2728C1BB
:10161000812F86958695837019F0813061F020C105
:10162000002321F08B2D912F937002C080E090E079
:101630000E94DF1A1DC1002321F08B2D912F937082
:1016400002C080E090E00E94C91A12C18B2D0023D5
:1016500019F00E94362B02C00E947D2A0E94532A54
:1016600007C1812F8370A9F50111FEC04B2D429552
:1016700046954770440F440F8B2D8F7090E09C016E
:10168000042E01C0220F0A94EAF7B4FE08C08FE0CE
:1016900090E001C0880F4A95EAF7809501C080E08C
:1016A000169516951370123069F088F490915203D4
:1016B000113019F0822B892302C0922B892B0E94B2
:1016C0001427D2C0822B909152038927F8CF822B06
:1016D000F6CF002319F0812F817001C086958823F1
:1016E00009F4C2C04B2D429546954770440F440FF4
:1016F0008B2D8F7090E09C01042E01C0220F0A9464
:10170000EAF7B4FE08C08FE090E001C0880F4A9568
:10171000EAF7809501C080E0169516951370123097
:1017200059F078F490911602113019F0822B892328
:1017300009C0922B892B06C0822B90911602892713
:1017400001C0822B0E94F9268FC01F70002339F040
:10175000812F0E9409278B2D0E94382785C08B2D51
:101760000E942D27812F0E94FD267EC08B2D92EF97
:10177000991659F1991538F0E0EF9E1659F0F1EFEE
:101780009F16F1F055C023EF921631F134EF931606
:1017900081F14EC0002379F084E08A1508F460C01E
:1017A0001F7181E090E001C0880F1A95EAF79091CF
:1017B000160289271BC095E09A1508F451C0F0CF96
:1017C000002329F0812F8F7126C00023D9F3812FA8
:1017D0008F710E94FD2644C0002339F01F7181E003
:1017E00001C0880F1A95EAF701C080E00E94F9262F
:1017F00037C0002399F01F71812F0E940927809123
:10180000E30182FD07C0E8E01E9FC0011124836050
:1018100080934D03812F0E94092722C081E00E94FE
:10182000E923F1E0FA15E0F482E00E94E92318C010
:10183000002331F0AA2031F28B2D0E947B2710C0AB
:10184000AA2029F2893349F42FEF37EE83E02150A3
:1018500030408040E1F700C000008B2D0E944227FD
:1018600088EF8C0D843020F40E94F51A0E94CB057D
:10187000DD2009F4B7C080914D0380FDB3C0F701AE
:1018800012828595859585950E940927C7010E943A
:10189000E10580914D0385958595859529960FB62F
:1018A000F894DEBF0FBECDBFDF91CF911F910F9196
:1018B000FF90EF90DF90CF90BF90AF909F908F9070
:1018C0007F906F905F904F903F900C94FD26EE5963
:1018D000FF4F0C94EA2C83E001C080E00E94F21CD0
:1018E0008091E7020E94C21CB8CA8091E702982F3B
:1018F00096959695969549F1915E990F990F990F46
:101900008770892B8093E70214C09091E702892F9A
:101910008695869586958F5F8F719770843008F0D5
:101920004BC0880F880F880F892B8093E702809126
:10193000E702887F91E009F490E08091E70290FB54
:1019400080F98093E7020E94C21C8091E70286958D
:101950008695869523C02091E702822F86958695ED
:101960008695482F50E04330510554F48F5F982FEF
:10197000990F990F990F822F8770892B8093E70217
:101980008091E7028160DDCF8091E70280FF09C08E
:101990008E7F8093E7020E94C21C80E00E94961C0A
:1019A0005CCA81608093E702813019F489E08093FA
:1019B000E7028091E702C7CF9093E702B8CF80910A
:1019C000E70281FF03C00E94C71C47CA0E94DD1CBA
:1019D00044CA01319FE5190709F078CA82E039CA83
:1019E00069E215CC29960FB6F894DEBF0FBECDBFC5
:1019F000DF91CF911F910F91FF90EF90DF90CF90EB
:101A0000BF90AF909F908F907F906F905F904F901E
:101A10003F900895CF93DF93CDB7DEB7E0970FB631
:101A2000F894DEBF0FBECDBF84B7877F84BF0FB6EB
:101A3000F894A8958091600088618093600010926E
:101A400060000FBE90E080E80FB6F89480936100CC
:101A5000909361000FBE85B7806885BF85B78068A9
:101A600085BF83EE9FE190938F0180938E010E944A
:101A7000F7160E9416178091E20084608093E200BE
:101A8000789480910C028823A1F01091E9001F70D6
:101A90009091EC00892F817090FD80E8182B1092B6
:101AA000E9008091E80083FD0E94E1131F7010930C
:101AB000E90082E084BD93E095BD9AEF97BD8093E5
:101AC0006E000E94181C811102C00E94091C769AA7
:101AD000289889982D9A2F9A889AADE1B1E041E033
:101AE00050E08D91E82FE295EF70F0E021A18F702A
:101AF0006A0102C0CC0CDD1C8A95E2F7C6019C2D60
:101B00009095922391A392A1892B82A321E0A332E5
:101B1000B20739F7259A279A809A209A819A6E9A65
:101B2000E1E9F1E0A6ECB1E011921192119211926B
:101B30001D921D921D921D9231E0E93AF307A1F723
:101B40000E940E23811102C00E94192382E090E0BE
:101B50000E94ED2B8093AD010E94FD229093E30142
:101B60008093E2010E9428208FE39CE90197F1F71E
:101B700000C000000E9428208091C60180FF08C09C
:101B80006FEF7FEF80E090E00E941F2C0E943D19D4
:101B900083E090E00E94ED2B0E941427579A5F98F3
:101BA000569A5E98249A2C98269A2E9882E28093D0
:101BB000800089E1809381008FEF9FEF90938700F1
:101BC000809386000E940B1D8091E70281FF0BC06D
:101BD0001092EA021092E9021092E80280916F00DE
:101BE000816080936F000E940B1D8091A90181117B
:101BF00033C00E940E23811104C00E9419230E9449
:101C0000692888E090E00E94F52B6093E2027093CF
:101C1000E3028093E4029093E5026E7F71F40E94E8
:101C2000692888E090E00E94F52B6093E2027093AF
:101C3000E3028093E4029093E5020E94222810922E
:101C40001E028091E20280FF04C060E086950E943F
:101C5000052A81E08093A90184E091E09093F1024C
:101C60008093F00258E1252E312C8E010F5F1F4F1B
:101C700080910C02853009F083C030E1E32E42E10F
:101C8000F42E80910C02853009F061C080910C0225
:101C9000843009F445C080E00E94961C80E00E94D8
:101CA000CB0510921E028091AB01811117C091E00B
:101CB0009093AB018091E202982F91709093AA01CA
:101CC0008E7F8093E202AFEFB0E7E2E0A150B04038
:101CD000E040E1F700C000000E94641D1092F40291
:101CE000F0E40FB6F894A895209260000FBEF09330
:101CF000600083B7817F846083BF83B7816083BFC7
:101D00007894889583B78E7F83BF0FB6F894A89593
:101D100080916000886180936000109260000FBE27
:101D200080910B02882309F4ACCF0E942820E6ECB6
:101D3000F1E081919191A191B191892B8A2B8B2B0B
:101D400009F056C421E0EE3DF20799F79ACF0E94C0
:101D500018270E940B1D0E94F51A0E94CB051092B5
:101D6000AB018091AA01882349F08091E202816051
:101D70008093E20260E086950E94052A0E944E1D33
:101D80000E942820882359F08FB7F8944091DE01F3
:101D90005091DF016091E0017091E1018FBFAEEAE7
:101DA000B1E0E6ECF1E018AA1FA69FA58190919002
:101DB000A190B1904D915D916D917D9148255925EE
:101DC0006A257B25411551056105710509F447C058
:101DD00080E0412C512C320143946A017B01C420E4
:101DE000D520E620F720CD28CE28CF2881F189A361
:101DF0009AA3B501A401442155216621772181E0F0
:101E0000452B462B472B09F480E08BA30E949619A3
:101E10008160782F9DA38CA349A15AA16BA18DA1AC
:101E20000E942305EFA5F8A9EE0FFF1FEE0FFF1F7D
:101E3000E255FE4F80819181A281B38148265926C7
:101E40006A267B26408251826282738222C08F5F23
:101E5000440C551C661C771C813109F0BECF2FA5A0
:101E600038A92F5F3F4F38AB2FA72630310509F037
:101E70009CCF8FEF8EA38FA318A60E949619816026
:101E8000782F9AA789A74EA15FA168A58AA50E946D
:101E9000230580911E02882309F4AAC080911D02A7
:101EA000E091E202E695E81BE0931902823059F4D2
:101EB000F0E0E75DFD4FE491EE2EF12C9FE2C92E9C
:101EC0009AE1D92E70C0863059F4F0E0EA5DFD4FFA
:101ED000E491EE2EF12C8FE1C82E8AE1D82E63C05A
:101EE000893061F4E695F0E0ED5DFD4FE491EE2E72
:101EF000F12CB9EBCB2EBFE1DB2E55C08F3061F456
:101F0000E695F0E0E05EFD4FE491EE2EF12CACE4BE
:101F1000CA2EAFE1DA2E47C0853159F4F0E0E35E16
:101F2000FD4FE491EE2EF12CFEEFCF2EFEE1DF2EE1
:101F30003AC08831F9F0833249F4EBE1F2E0E59000
:101F4000F490EFEDCE2EE9E1DE2E2DC08432D1F0FB
:101F5000853209F58E2F63E00E94A82CE92FF0E06E
:101F6000E85EFD4FE491EE2EF12C7AE9C72E7DE17B
:101F7000D72E19C058E2E52EF12C65E7C62E6EE18A
:101F8000D62E11C034EFE32EFF24F3944BE3C42E7E
:101F90004EE1D42E08C090EDE92E97E0F92E2EEDFB
:101FA000C22E29E1D22E80911A02882361F010926C
:101FB0001A020E94961990931802809317021092A9
:101FC0001C0210921B020E949619E0911702F091D8
:101FD00018028E1B9F0B8F3F9F4750F4EE0EFF1E83
:101FE000F0921802E092170287E192E0F60109955B
:101FF00086E0E4E8F3E0D80101900D928A95E1F7DC
:10200000C0908603D0908703E0908803F090890306
:10201000109286031092870310928803109289030E
:10202000C11003C0DD2009F451C08091820390915A
:1020300083030E9487199C0190917E03992309F4E0
:10204000F6C22333310508F441C09F3F19F09F5F6A
:1020500090937E03CC2061F00E94162B1C1414F484
:1020600091E001C09FEF899F802D1124809386030A
:10207000DD2061F00E94162B1D1414F491E001C0C4
:102080009FEF899F802D11248093870330918603D1
:102090003323E1F0209187032223C1F045EB340381
:1020A000C0011124992319F09093860303C061E0C5
:1020B0006093860375EB2703C0011124992319F05F
:1020C0009093870303C081E080938703E11003C0EE
:1020D000FF2009F451C080918003909181030E94F8
:1020E00087199C0190917D03992309F4A5C2253697
:1020F000310508F441C09F3F19F09F5F90937D0325
:10210000EE2061F00E94F42A1E1414F491E001C044
:102110009FEF899F802D112480938803FF2061F019
:102120000E94F42A1F1414F491E001C09FEF899FCC
:10213000802D112480938903309188033323E1F0AB
:10214000209189032223C1F045EB3403C0011124FF
:10215000992319F09093880303C061E0609388038A
:1021600075EB2703C0011124992319F0909389037B
:1021700003C081E0809389038091860381110BC0A5
:1021800080918703811107C080918803811103C06A
:102190008091890381110E94532ACB82DC82ED82D7
:1021A000FE8286E0F801A4E8B3E001900D928A95E2
:1021B000E1F70E94F51A9091AC01891731F00E9465
:1021C000F51A8093AC010E94CB0580910C028430FB
:1021D00009F04ECD83E08093E9008091E80082FF12
:1021E00047CD8091E80085FF21C00E944C188111E5
:1021F0001BC080E2E82EF12C680109C08091F1003B
:10220000D6018D936D01B1E0EB1AF10869F0809170
:10221000E80085FDF3CF8091E8008B778093E8009C
:102220000E944C18882399F391E001C090E08091BE
:10223000E8008B778093E800992309F419CDE981B0
:102240008E2F90E0FC013197E331F10508F0A6C133
:10225000E759FF4F0C94EA2C1A8289E0F7C08A8173
:10226000823009F4DBC1833089F0813009F096C1F6
:102270002FB7F8948091DE019091DF01A091E001E9
:10228000B091E1012FBFBB83AC8326C0F801AE0142
:102290004D5E5F4F26EC31E0D901CD90DD90ED90A1
:1022A000FD909D01E282D382C48233964E175F0770
:1022B00099F776C18A81823009F070C16B817C8187
:1022C0008D819E810E94F02C86E290E024C04C819A
:1022D0006B818A810E94B81B9D83A7C1CD80DE805F
:1022E000DC24CD24DC248C81EB809A81B2E2EB9E4D
:1022F00070011124ECEC9E9FE00CF11C1124E80EFF
:10230000F11CE80EF11C6D2DC70187960E94012C6F
:102310006C2DC70188960E94012C42C10E94841B2B
:102320003FC18A81893019F08A3071F015C08B81E4
:10233000F3E08F9FC00111246FEF70E00E94C22C68
:10234000862F0E94F21C08C08B81811103C00E945D
:10235000C71C02C00E94DD1C8A818138B1F050F494
:10236000803809F01DC120E04B816091E40280912A
:10237000E30231C0823859F1833809F011C120E0FD
:102380004091E5026C818B8126C060E08B810E94C8
:10239000052A9B818091E202911111C08E7F80936A
:1023A000E20210921E022FEF30E742E0215030404F
:1023B0004040E1F700C000000E94641DF1C0816050
:1023C0008093E20260E086950E94052AE9C08B8135
:1023D0008093E602E5C00E942829E2C08A81893004
:1023E00039F08A30A1F48091E702869581702EC081
:1023F0008091E7028695869586956FEF869FC0014E
:10240000112463E070E00E94C22C6B83C9C0813844
:1024100099F030F4803809F0C3C08091E50216C00D
:10242000823891F0833809F0BBC08091E3028B833E
:102430008091E4028C83B4C08091E20280FF02C0EC
:10244000869504C080E002C08091E6028B83A8C01C
:102450008091E7020E94C21C6091E2027091E30247
:102460008091E4029091E5020E94352899C080E1B4
:102470004EC01A8289EAEACFEA80FB80FE24EF246C
:10248000FE246C80712C6801C701895A9C4F96010B
:10249000201B310B2615370508F082C079EAE716B4
:1024A000F10430F40E94ED2BD60114968C9302C0F7
:1024B000F6011482FFEFEF1AFF0A2FEFC21AD20AB9
:1024C000E3CFEA80FB80FE24EF24FE246C80712C95
:1024D0006801C701895A9C4F9601201B310B2615B4
:1024E000370508F05DC039EAE316F10428F4D60197
:1024F00014966C910E94012CBFEFEB1AFB0AEFEFD0
:10250000CE1ADE0AE6CF0E94741B4AC084E08A839A
:1025100047C0EA80FB80FE24EF24FE246C80712CEF
:102520006801C70187969601201B310B26153705D8
:10253000B8F5F0E3EF16F3E0FF0630F40E94ED2B60
:10254000D60114968C9302C0F6011482FFEFEF1AA5
:10255000FF0A2FEFC21AD20AE4CFEA80FB80FE24E2
:10256000EF24FE246C80712C6801C70187969601C8
:10257000201B310B2615370598F430E3E31633E0C2
:10258000F30628F4D60114966C910E94012CBFEF3B
:10259000EB1AFB0AEFEFCE1ADE0AE7CF8FEF898343
:1025A00080910C02843009F063CB8091E9008F7038
:1025B0002091EC00922F917020FD90E8F92EF82ADE
:1025C00082E08093E9008091E80080FF0CC040E049
:1025D00050E060E270E0C8010E947F188091E8003E
:1025E0008E778093E8008F2D8F708093E90040CB29
:1025F000E9BCF9BC09B400FEFDCF8091D8008F7D05
:102600008093D8008091E00082608093E000809108
:10261000E00081FDFCCF0E94182733CB86E290E0DA
:102620000E94ED2B1B821C821D828E83B9CF2D321E
:10263000314008F00CCD4ACD2D32314008F05DCD4F
:102640009BCD80910E0287FF11C08091E80082FD32
:1026500005C080910C028111F8CF11C08091E80073
:102660008B770BC080910C02882349F08091E800A1
:1026700080FFF8CF8091E8008E778093E80008957E
:10268000982F973068F59093E900981739F070917A
:10269000EC002091ED005091F00003C0242F762F24
:1026A00050E021FD02C09F5FECCF3091EB003E7FF8
:1026B0003093EB003091ED003D7F3093ED00309191
:1026C000EB0031603093EB007093EC002093ED0051
:1026D0005093F0002091EE0027FDE5CF80E00895B3
:1026E0008F708093E90081E0089520911402309169
:1026F00015022617370748F06115710539F4209146
:10270000E8002E772093E80001C0B901FC0120E029
:102710006115710579F180910C028823F1F1853002
:10272000F1F18091E80083FD3CC08091E80082FDDA
:102730002EC08091E80080FFEBCF2091F3008091C4
:10274000F20090E0922B6115710551F088309105EF
:1027500038F421912093F100615071090196F3CF73
:1027600021E0089709F020E08091E8008E778093BF
:10277000E800CECF2111CFCF0AC080910C02882370
:1027800061F0853061F08091E80083FD0AC080919E
:10279000E80082FFF2CF80E0089582E0089583E0B0
:1027A000089581E008958091E901089580911602CD
:1027B000982F9670963011F4886001C0877F0C9432
:1027C000F9261F93CF93DF93CDB7DEB7AA970FB645
:1027D000F894DEBF0FBECDBFEEE0F2E08091F100D5
:1027E000819342E0E631F407C9F780910F0283300C
:1027F00009F462C030F4813071F0823009F49CC079
:10280000B3C08A3009F488C08B3009F46DC08930B8
:1028100009F0AAC020C080910E02813A09F0A4C03C
:102820008091E800877F8093E80080911202909168
:102830001302892B21F460E28AEE91E003C060E08C
:1028400080E090E070E00E9475138091E8008B7743
:102850008093E80089C080910E02813209F084C023
:102860008091120290911302009719F0029709F0DB
:102870007BC08091E800877F8093E8008091E8002A
:1028800082FD05C080910C028111F8CF6DC02091AE
:10289000F3008091F20090E0922B029729F480914E
:1028A000F1008B7F813021F48091F1008093E90168
:1028B0008091E8008B7754C080910E02813A09F034
:1028C00053C08091120290911302892B09F04CC0E1
:1028D0008091E800877F8093E8008091E80080FF86
:1028E000FCCF80910E0137C080910E028132E1F55C
:1028F0008091120290911302892BB1F58091E8002A
:10290000877F8093E8000E942113809110028093BA
:102910000E010E94182728C080910E02813221F5F5
:102920008091E800877F8093E8000E9421138091C6
:1029300011028093E80118C080910E02813AA1F43F
:102940008091E800877F8093E8008091E80080FF15
:10295000FCCF8091E8018093F1008091E8008E77B0
:102960008093E8000E9421138091E80083FFDDC17D
:1029700080910E0290910F02492F50E04A3051058C
:1029800008F0D3C1FA01E458FF4F0C94EA2C8038C8
:1029900021F0823809F0C9C108C080910A029091E3
:1029A0000B02992389F082600FC0809112028F7010
:1029B000873008F0BAC18093E9008091EB0085FB75
:1029C000882780F91092E9009091E800977F909312
:1029D000E8008093F1001092F10070C1282F2D7F44
:1029E00009F0A3C1882319F0823061F09EC1809163
:1029F0001002813009F099C1933009F080E0809392
:102A00000B022EC08091100281112AC08091120207
:102A10008F702FEF280F263008F087C18093E900D0
:102A20002091EB0020FF1CC0933021F48091EB003B
:102A3000806214C09091EB0090619093EB0021E0D4
:102A400030E0A90102C0440F551F8A95E2F7409378
:102A5000EA001092EA008091EB0088608093EB001E
:102A60001092E9008091E800877F8093E8000E943F
:102A700021135BC1811159C1109110021F77809100
:102A8000E3008078812B8093E3008091E800877FCA
:102A90008093E8000E9421138091E80080FFFCCF22
:102AA0008091E30080688093E300111102C082E00E
:102AB00001C083E080930C0238C18058823008F056
:102AC00034C120911002309111022C3D53E03507A2
:102AD00079F583E08A838AE289834FB7F894DE012F
:102AE000139620E03EE051E2E32FF0E050935700D0
:102AF000E49120FF03C0E295EF703F5FEF708E2FEF
:102B000090E0EA3010F0C79601C0C0968D939D9377
:102B10002F5F243149F74FBF8091E800877F809372
:102B2000E8006AE270E0CE0101960E947513B4C01D
:102B30008091120290911302432F55274330510583
:102B4000A9F068F44130510509F4FEC04230510546
:102B500009F0EBC08BE590E0E5E4F3E04BC04132D7
:102B6000510529F14232510589F1DFC0C901992788
:102B700081309105A1F058F0029709F0D6C0E2EB40
:102B8000F3E0E4918E2F90E0E2EBF3E030C0EAEF67
:102B9000F3E0E4918E2F90E0EAEFF3E028C0E6ED59
:102BA000F3E0E4918E2F90E0E6EDF3E020C0833077
:102BB000910508F0BAC0880F991FFC01E45DFE4F33
:102BC0000190F081E02D89E090E014C08330910500
:102BD00008F0ABC0FC01EE0FFF1FEA5DFE4F019055
:102BE000F081E02DDC01AD5DBE4F8C9190E000974F
:102BF00009F49BC02091E800277F2093E8002091F2
:102C00001402309115022817390708F4C90140E071
:102C1000009789F120910C02222309F43DC0253050
:102C2000D9F12091E80023FD37C02091E80022FD72
:102C30002FC02091E80020FFEBCF4091F3002091BE
:102C4000F20030E0342B009759F02830310540F481
:102C500044914093F100319601972F5F3F4FF3CF9E
:102C600041E02830310509F040E02091E8002E775E
:102C70002093E800CDCF4111CDCF0AC080910C0246
:102C8000882351F0853041F08091E80083FD04C035
:102C90008091E80082FFF2CF8091E8008B778093EB
:102CA000E80043C0803809F040C08091E800877F89
:102CB0008093E80080910D028093F1008091E800FC
:102CC0008E77D3CE811131C0809110029091110284
:102CD0009927029754F58091E800877F8093E80058
:102CE0001091100210930D020E942113111106C0C1
:102CF0008091E30087FD02C081E001C084E0809301
:102D00000C0242E061EC81E00E94401342E261EC7F
:102D100084E00E94401342E261EC82E00E94401392
:102D200042E260EC83E00E9440138091E80083FF60
:102D300010C08091E800877F8093E8008091EB00CD
:102D400080628093EB0005C082E190E0E0EAF3E06E
:102D500051CFAA960FB6F894DEBF0FBECDBFDF915C
:102D6000CF911F9108951F920F920FB60F921124C9
:102D70002F933F934F935F936F937F938F939F9383
:102D8000AF93BF93CF93DF93EF93FF93C091E9008D
:102D9000CF708091EC00D82FD17080FDD0E81092D8
:102DA000E9008091F000877F8093F00078940E9482
:102DB000E1131092E9008091F00088608093F000A8
:102DC000CD2BCF70C093E900FF91EF91DF91CF91B0
:102DD000BF91AF919F918F917F916F915F914F9133
:102DE0003F912F910F900FBE0F901F901895E8ED17
:102DF000F0E080818E7F80831092E2001092DA00F2
:102E00001092E100A0EEB0E08C9181608C93808103
:102E10008F77808319BCA7EDB0E08C918E7F8C9367
:102E200080818F7E80831092E7010895CF92DF9298
:102E3000EF92FF920F931F93CF93DF93C8EDD0E0F3
:102E400088818F7E8883E7EDF0E0808181608083D8
:102E500084E082BF81E08093E70188818E7F888350
:102E600002EE10E0F80110821092DA0081EEC82E16
:102E7000D12CF601108288818F77888388818068C1
:102E8000888388818F7D888319BC10920C021092F0
:102E90000D0210920B0210920A0290EEE92EF12C14
:102EA000F70180818B7F808388818160888342E005
:102EB00060E080E00E944013F60180818E7F808375
:102EC000F801808181608083808188608083F70140
:102ED00080818E7F8083888180618883DF91CF911C
:102EE0001F910F91FF90EF90DF90CF9008951F9268
:102EF0000F920FB60F9211242F933F934F935F932E
:102F00006F937F938F939F93AF93BF93EF93FF93B1
:102F10008091E10082FF09C08091E20082FF05C03C
:102F20008091E1008B7F8093E1008091DA0080FF47
:102F30002AC08091D80080FF26C08091DA008E7F61
:102F40008093DA008091D90080FF18C080E189BDAC
:102F500082E189BD09B400FEFDCF81E080930C02BF
:102F60008091E70181110FC00E94F7160E94161789
:102F70008091E20084608093E20005C019BC109249
:102F80000C021092E7018091E10080FF17C0809150
:102F9000E20080FF13C08091E2008E7F8093E20008
:102FA0008091E20080618093E2008091D80080628D
:102FB0008093D80019BC85E080930C028091E100D9
:102FC00084FF2EC08091E20084FF2AC080E189BD89
:102FD00082E189BD09B400FEFDCF8091D8008F7DCC
:102FE0008093D8008091E1008F7E8093E1008091F2
:102FF000E2008F7E8093E2008091E2008160809306
:10300000E20080910D02882311F084E007C08091D6
:10301000E30087FD02C081E001C083E080930C02E1
:103020008091E10083FF27C08091E20083FF23C0ED
:103030008091E100877F8093E10082E080930C0221
:1030400010920D028091E1008E7F8093E1008091CB
:10305000E2008E7F8093E2008091E20080618093A5
:10306000E20042E060E080E00E9440138091F000C6
:1030700088608093F000FF91EF91BF91AF919F9195
:103080008F917F916F915F914F913F912F910F9011
:103090000FBE0F901F9018952091E4003091E5002D
:1030A00095E64091EC00842F817040FF23C0809111
:1030B000E80080FD1DC080910C02882399F08530C6
:1030C00099F08091EB0085FD11C04091E400509192
:1030D000E5002417350729F3915011F09A01E1CF4B
:1030E00084E0089582E0089583E0089581E00895E2
:1030F00080E008954091E80042FFDDCF0895EF920F
:10310000FF920F931F93CF93DF937C018B010E945B
:103110004C18811119C0E70101151105A1F080912A
:10312000E80085FD0AC08091E8008E778093E80072
:103130000E944C18882381F307C089918093F10085
:1031400001501109E9CF80E0DF91CF911F910F91DC
:10315000FF90EF90089590910C02943029F58093A0
:10316000E4017093E6016093E5019093E9008FEF2D
:103170009091E800815095FD06C095ED9A95F1F784
:1031800000008111F5CF8091E80085FF0DC040E07F
:1031900050E063E070E084EE91E00E947F1880913F
:1031A000E8008E778093E8000895BC0184E00C94D9
:1031B000AB18BC0183E00C94AB1824E02093E90029
:1031C0002FEF3091E800215035FD06C035ED3A95DE
:1031D000F1F700002111F5CF2091E80025FF0BC089
:1031E00040E050E066E070E00E947F188091E800C7
:1031F0008E778093E8000895CF93DF9320910E019E
:10320000222339F02091E20127FF03C060E224E08D
:1032100002C068E021E02093E9002FEF3091E80040
:10322000215035FD06C035ED3A95F1F7000021112A
:10323000F5CF2091E80025FF1DC0EC0180910E0123
:10324000811105C040E050E068E070E003C070E02C
:1032500040E050E0CE010E947F188091E8008E7718
:103260008093E80080E2FE01AAEEB1E001900D92A9
:103270008A95E1F7DF91CF91089581E08093E00096
:1032800080E28093D8001092C9008FE19EE40197FC
:10329000F1F700C0000087E090EBDC0180938A0327
:1032A00090938B03A0938C03B0938D039CE088E1F3
:1032B0000FB6F894A895809360000FBE90936000BD
:1032C000FFCF78941F920F920FB60F9211248F9315
:1032D0009F93AF93BF938091DE019091DF01A09106
:1032E000E001B091E1010196A11DB11D8093DE01C5
:1032F0009093DF01A093E001B093E101BF91AF9102
:103300009F918F910F900FBE0F901F9018959C0169
:103310004FB7F8948091DE019091DF01A091E00118
:10332000B091E1014FBF821B930B08952FB7F89422
:103330008091DE019091DF01A091E001B091E10167
:103340002FBF0895CF92DF92EF92FF928C3724E146
:10335000920728F469E070E00E94C22C29C0A0E026
:10336000B0E08A50974DAF4FBF4F6627782F892F17
:103370009A2F25EF38E241E050E00E94672C690166
:103380007A01CA01B9010E94982C9B01AC01C701C6
:10339000B6010E94982CBB27A92F982F872F009742
:1033A00021E0A207B10511F0BC0102C06FEF7FEF71
:1033B000CB01FF90EF90DF90CF90089508950F9389
:1033C0001F93CF93DF9300D01F92CDB7DEB78C0150
:1033D0008091210281110AC09E012F5F3F4F4FEF64
:1033E0006FEF0E9478288A8180932102F8018481FE
:1033F000813051F028F0823061F4409121020AC0FE
:103400008091210240E007C06091210240E080E00D
:1034100003C040E080E060E00E941128F801848150
:1034200090E0019663E070E00E94D62C84830F90B8
:103430000F900F90DF91CF911F910F910895CF932F
:10344000DF93EC01E2EEF2E0438162818C810E9425
:103450000E298C818F5F8C83DF91CF910895CF935C
:10346000DF93EC01EC81F0E0E250FC4F4491E2EE9E
:10347000F2E0628181810E940E298C818F5F8C83B2
:10348000DF91CF9108951F920F920FB60F921124E2
:103490008F939F93AF93BF938091F402811113C0D8
:1034A0008091DE019091DF01A091E001B091E101F6
:1034B0004196A11DB11D8093DE019093DF01A09381
:1034C000E001B093E101BF91AF919F918F910F9077
:1034D0000FBE0F901F90189520910E012223C9F066
:1034E0002091E20127FF15C0262F269526952695C7
:1034F0002E31C8F4FC01E20FF11D677081E090E00D
:1035000001C0880F6A95EAF78095928189238283AA
:103510000895FC0106962281621301C01282319641
:10352000E817F907C1F7089520910E012223C1F091
:103530002091E20127FF14C0262F26952695269577
:103540002E3130F5FC01E20FF11D677081E090E053
:1035500001C0880F6A95EAF79281892B82830895CA
:10356000FC0132962FEF30E04191641789F02F3F34
:1035700019F4411101C0232F3F5F3630A9F72F3FC7
:1035800039F0FC01E20FF11D27FDFA9562830895E1
:1035900008952091F2023091F3022817390771F053
:1035A0009093F3028093F202E091F002F091F10225
:1035B000309721F00084F185E02D09940895209141
:1035C000EE023091EF022817390771F09093EF0265
:1035D0008093EE02E091F002F091F102309721F039
:1035E0000680F781E02D09940895E091F002F091B2
:1035F000F102309721F00190F081E02D099480E0F4
:1036000008950F931F93CF93DF93C42FD22FFC0104
:1036100082818823C9F04093ED020E94961990930D
:10362000EC028093EB0280E28C0F883008F057C0E8
:10363000C77081E001C0880FCA95EAF7DF91CF918A
:103640001F910F910C9438278091ED02481330C0E0
:103650008091EB029091EC020E948719883C9105C1
:1036600038F510E21D0FCD17B9F080E28C0F8830CD
:1036700040F4C77081E001C0880FCA95EAF70E9444
:103680002D27183028F581E09D2F977001C0880FF5
:103690009A95EAF70E943827802F0E94F327183066
:1036A000F0F4D77081E001C0880FDA95EAF70AC01C
:1036B00080E28C0F883098F4C77081E001C0880FD9
:1036C000CA95EAF7DF91CF911F910F910C942D27A6
:1036D000802FDF91CF911F910F910C94F327DF91F1
:1036E000CF911F910F910895CF93DF93C7E5D3E05A
:1036F00060E0CE010E94012C2196C11584E0D8071C
:10370000B9F7DF91CF910895CF92DF92EF92FF92B8
:103710000F931F93CF93DF93C0E0D0E08E0104534B
:103720001F4F6E0182E2C80ED11CFE01E258FA4F13
:10373000E590F4906F2DCE0187960E94012C6E2D9E
:10374000CE0188960E94012C2296CC15DD0569F7E2
:103750000C171D0731F7E80100331340F9F6DF912C
:10376000CF911F910F91FF90EF90DF90CF90089530
:103770000F931F93CF93DF93C42FD0E0CC0FDD1FA7
:1037800022E2629FC00DD11D11243CEC839FC00D2D
:10379000D11D1124CE0187960E94ED2B082F10E039
:1037A000102F0027CE0188960E94ED2B9801282B20
:1037B000C901DF91CF911F910F910895462F843059
:1037C00038F4763028F4613118F4672F0C94B81B64
:1037D00080E090E00895CF93C82F811102C06FEF71
:1037E00001C061E283E290E00E94012CC11102C09D
:1037F0006FEF01C061E184E290E00E94012CC111F1
:1038000002C06FEF01C066E285E290E0CF910C94B8
:10381000012C80E00E94EB1B60E086E290E00E94B9
:10382000012C0E94841B0E94741B81E00C94EB1BF2
:1038300083E290E00E94ED2B813281F484E290E0FB
:103840000E94ED2B813151F485E290E00E94ED2B36
:1038500091E0863209F090E0892F01C080E081700C
:1038600008951F920F920FB60F9211242F933F933A
:103870004F935F936F937F938F939F93AF93BF9378
:10388000EF93FF938091E9029091EA02019668EB31
:1038900075E00E94C22C9093EA028093E9026BE0EB
:1038A00070E00E94C22C6F778091E802823019F498
:1038B000603451F404C0813039F46F3729F48091B9
:1038C0006F008E7F80936F00E62FF0E0E250FB4F99
:1038D000E49121E031E0E29FC001E39F900D1124CB
:1038E00063E070E00E94C22C8091E7028695869585
:1038F0008695282F269FC001279F900D11240E9496
:10390000A21990938B0080938A00FF91EF91BF9151
:10391000AF919F918F917F916F915F914F913F9167
:103920002F910F900FBE0F901F901895843048F480
:10393000811108C0909180009F7D909380002E9807
:1039400006C083E090918000906290938000282FC1
:1039500030E0AFEFBFEF0E94892C23E030E040E081
:1039600050E00E94672CB42FA32F922F8827892F15
:103970009A2FAB2FBB270E94A21990938B008093A4
:103980008A000895682F86E090E00C94012C8091C5
:10399000E70281FF11C08D7F8093E7020E94C21C65
:1039A00080916F008E7F80936F008091E7028695F3
:1039B000869586950C94961C08958091E70281FD6A
:1039C00010C082608093E7020E94C21C1092EA023B
:1039D0001092E9021092E80280916F00816080935A
:1039E0006F000895843008F083E09091E7029770AB
:1039F000282F220F220F220F922B9093E702987FFD
:103A000021E009F420E09091E70220FB90F99093E7
:103A1000E7020C94961C0E940E2381110AC00E949A
:103A200019238091E702847089618093E7020E94E4
:103A3000C21C86E090E00E94ED2B8093E702282FC5
:103A400026952695269530E02430310524F08770A0
:103A500088618093E7028091E70280FF04C0869529
:103A60008695869501C080E00C94961C9091E202A8
:103A700090FF04C09695981740F003C0811105C0CF
:103A800090E0961710F40C94492A61E00C94052AF2
:103A9000882311F0FA0101C0FB0109946091E20250
:103AA000669570E04BE050E08FE091E00E94062DBB
:103AB000892B19F481E080931E020E94961990933D
:103AC00018028093170208958091E20280FF0AC0D5
:103AD0006A9A8EB18B7F9EB194602FB7F894E2E220
:103AE000F2E00BC0E2E2F2E0118210821282339621
:103AF00032E0EA36F307C1F7EBCF32E0EA36F307FC
:103B000089F0319148E09EB9000000C037FF8EB9BE
:103B1000330F000000C000C000C08EB900C04A953D
:103B200091F7EBCF2FBF8FE594E00197F1F700C03D
:103B3000000008959F92AF92BF92CF92DF92EF92D2
:103B4000FF920F931F93CF93DF93FC01A280948089
:103B500081E08483EEEFF3E0B490EDE7F4E0E491EC
:103B6000CAE6D2E0F2E2EF2EF2E0FF2ECC24CA94B5
:103B7000D12CEB190E2F10E022E02A1530F08091A5
:103B8000E30288838091E4028983911003C01B8241
:103B90001A8255C08B818823F9F081508B832FEFD7
:103BA000829FC00111246C8170E00E94C22CFB0135
:103BB000FF27E250FC4F8491E82FEB192FEFE29F93
:103BC000C0011124B8010E94C22C8091E502689FB7
:103BD000B00111247A8333C00E94DD2B2091E502CD
:103BE0002695215830E0A901440F551F322F222776
:103BF000240F351F232F33278217930704F582E004
:103C00008A1588F40E94DD2BB6010E94D62C888389
:103C10000E94DD2B2091E4022695622F70E00E9425
:103C2000D62C280F29831A828091E502843120F056
:103C3000893C18F088EC01C084E18C838B83970168
:103C40004A81698188810E947828259623E0E20EC6
:103C5000F11C82E0C23ED80709F08ECFDF91CF91F0
:103C60001F910F91FF90EF90DF90CF90BF90AF909A
:103C70009F900C94641DEF92FF920F931F93CF932C
:103C8000DF938C01C2E2D2E0E12CF12CF8018481B7
:103C9000FCE0EF16F1041CF4882339F002C0811116
:103CA00004C09E014091E50202C09E0140E0609187
:103CB000E4028091E3020E9478288FEFE81AF80A64
:103CC000239698E1E916F10409F70E94641DF801B2
:103CD000848190E00196817099278483DF91CF9150
:103CE0001F910F91FF90EF9008958F929F92AF9246
:103CF000BF92CF92DF92EF92FF920F931F93CF93D9
:103D0000DF93EC014C81042F10E09801D8010E9450
:103D1000892C9B01AC010E94542C6B017C01E0E2D8
:103D2000F0E0E01BF10BA5E5B0E09B01AC010E94C7
:103D3000542C4B015C019F01DF010E94F72C9B0179
:103D4000AC010E945F2C9B01AC012C0D3D1D4E1D52
:103D50005F1DC501B4010E94672C822FF22E99E2EB
:103D6000921728F093E0299F900111240DC025E5BA
:103D700030E0281B3109C901880F991F280F391F0E
:103D800037FF02C02F5F3F4F35952795122F1095B3
:103D900092E2C92E92E0D92E00E085E5E82EEF18D8
:103DA00001FD02C08E2D01C08F2D9601412F609123
:103DB000E4020E9478280F5F83E0C80ED11C08310E
:103DC00079F70E94641D8C81811102C091E003C0CB
:103DD000803219F49FEF90931C0190911C01890F80
:103DE0008C83DF91CF911F910F91FF90EF90DF9027
:103DF000CF90BF90AF909F908F9008950F931F9397
:103E0000CF93DF93C2E2D2E0FE01118210821282D0
:103E1000339682E0EA36F807C1F700E010E08091BF
:103E20002002082E000C990B0817190794F08091B6
:103E30001B01082E000C990B8017910754F09E016E
:103E40004091E5026091E4028091E3020E947828AB
:103E500003C0198218821A820F5F1F4F2396083100
:103E60001105E9F60E94641D80911A0190912002CB
:103E7000980F9093200220911B01280F20931B0183
:103E8000121614F497311CF0819580931A01DF917A
:103E9000CF911F910F910895BF92CF92DF92EF9231
:103EA000FF920F931F93CF93DF93FC01828180FFDA
:103EB00003C0DD24DA9402C0DD24D39402E212E0D0
:103EC000C0E0D0E028E1B22EF80111821082128207
:103ED00094E0E92EF12CC12C80911F028C0D8931C8
:103EE0002CF06B2D0E94B42C892F02C087FD885EB8
:103EF000082E000C990BC817D90791F48091E502A0
:103F00008E9DA0018F9D500D112455954795559577
:103F1000479598016091E4028091E3020E9478281D
:103F2000CD0CF1E0EF1AF108B9F621960D5F1F4FA5
:103F3000C831D10549F60E94641D80911F0291E0AD
:103F4000D91206C0811102C087E107C0815005C0A7
:103F500090E00196BE010E94D62C80931F02DF9153
:103F6000CF911F910F91FF90EF90DF90CF90BF9076
:103F70000895EF92FF921F93CF93DF93EC0182E2BB
:103F8000E82E82E0F82E10E08C8197014091E50246
:103F90006091E402810F0E947828165F83E0E80EAA
:103FA000F11C103F89F70E94641D9A818C8190FF5B
:103FB00002C08F5F01C081508C83DF91CF911F9130
:103FC000FF90EF90089580E008959091E20192FFB4
:103FD0000DC0282F2871283019F4877F846006C00F
:103FE000282F2471243011F48B7F886093FF0DC03B
:103FF000282F2871283119F4877E846106C0282F64
:104000002471243111F48B7E88612091E30120FF1B
:104010000DC0382F3871383019F4877F816006C0A1
:10402000382F3171313011F48E7F886021FF0DC03F
:10403000282F2871283119F4877E816106C0282F26
:104040002171213111F48E7E886194FD877E08955F
:104050002F923F924F925F926F927F928F929F9298
:10406000AF92BF92CF92DF92EF92FF920F931F9386
:10407000CF93DF9300D000D000D0CDB7DEB780E083
:1040800090E01D82882E912CF4013197E031F105EA
:1040900020F4EA57FF4F0C94EA2C2D9809C02D9874
:1040A0000AC02D982F9A88980DC02D9809C02D9A76
:1040B0002F98F9CF2D9A2F9804C02D9AF3CF2D9ACF
:1040C0002F9A889A289A18C02D9807C02D9808C052
:1040D0002D980DC02D9807C02D9A2F9809C02D9AA4
:1040E0002F9802C02D9A2F9A889A03C02D9A2F9A42
:1040F0008898899A01C0769820EA2A95F1F701E01C
:1041000010E020E030E0082E04C0000F111F221F35
:10411000331F0A94D2F768017901C094D094E094D7
:10412000F0944DE151E05A83498341E9242E41E066
:10413000342EF1011E82FC83EB8340815181628128
:104140007381A981BA817D90BA83A983A72DA29595
:10415000AF70B0E09096AC914A2E512CB72DBF7045
:104160007B2ED20102C0B595A7957A94E2F72A0179
:104170003B01A0FD05C0402A512A622A732A04C0CF
:104180004C205D206E207F204082518262827382AB
:104190003496AB81BC814D905D906D907C904415C0
:1041A00055056605770511F0B1E0BE8349EA51E097
:1041B0004E175F0709F0BFCFF4013197E031F105E9
:1041C00020F4EA56FF4F0C94EA2C2D9A09C02D9A40
:1041D0000AC02D9A2F98889A0DC02D9A09C02D9843
:1041E0002F9AF9CF2D982F9A04C02D98F3CF2D98A0
:1041F0002F988898289818C02D9A07C02D9A08C023
:104200002D9A0DC02D9A07C02D982F9A09C02D9870
:104210002F9A02C02D982F98889803C02D982F9818
:10422000889A899801C0769A5D81AE815A2B5D8308
:1042300001968131910509F025CF552349F081E0A0
:10424000809355030E9496199093540380935303CF
:10425000809155038823E9F0809153039091540392
:104260000E9487190597A8F026EC31E0F1018191B1
:104270009191A191B1911F01F90181939193A19322
:10428000B1939F01F9EA2F16F1E03F0679F71092FA
:1042900055038D8126960FB6F894DEBF0FBECDBFB5
:1042A000DF91CF911F910F91FF90EF90DF90CF9012
:1042B000BF90AF909F908F907F906F905F904F9046
:1042C0003F902F900895CF93DF938238910569F145
:1042D000B0F48133910509F46FC048F48932910537
:1042E00009F465C08A32910509F46BC08AC0853330
:1042F000910509F457C089339105B9F082C0833E16
:10430000910571F138F4803E9105B1F0823E91053E
:1043100011F177C0863E9105B9F1873E9105C9F14B
:10432000843E910509F06DC024C02091E20120FD7A
:1043300053C021FD51C065C08091E20180FD46C09F
:104340008091E30180FF48C08091E20184FD50C16B
:1043500083EE90E04FC18091E20182FF3AC0F4CF3A
:104360008091E20182FD35C08091E30180FD34C07F
:10437000EBCF8091E30181FF35C08091E20184FDA4
:1043800037C187EE90E036C18091E20183FF27C0FC
:10439000F4CF8091E20183FD22C08091E30181FD91
:1043A00021C0EBCF8091E20185FD1FC021C080912B
:1043B000E20185FD1DC019C08091E20186FD1BC090
:1043C0001DC08091E20186FD19C015C089E390E00F
:1043D00011C182EE90E00EC180EE90E00BC186EE3E
:1043E00090E008C184EE90E005C189E290E002C14E
:1043F00085E390E0FFC08AE290E0FCC081E390E0BA
:10440000F9C0811531E5930708F069C0811540E5D1
:104410009407F0F09C0174E0369527957A95E1F7C2
:10442000922F9370482F437021E030E002C0220F9A
:10443000331F4A95E2F73C68392B982F9F70969569
:10444000969540E2949FC0011124822B932BD2C0F9
:10445000883E910568F5803E910508F0CBC0883A0A
:104460009105B8F4853A910548F0855AE82FF0E0B7
:10447000EE5CFE4F808190E09064BCC0813091057D
:1044800009F4B3C008F4B4C08430910508F4B0C096
:10449000B1C08F3B910508F0ABC0885AE82FF0E01F
:1044A000EE0FFF1FEB5CFE4F808191819464A2C0F0
:1044B000811520E2920758F4811531E0930708F046
:1044C00099C0803F910508F493C0906593C0811511
:1044D00040E4940708F48CC09F70906A8BC08115EB
:1044E00025E5920708F042C0811534E5930728F0CE
:1044F000982F8827846F906A7DC0811543E59407C3
:10450000B0F09C012370332741E050E002C0440F1B
:10451000551F2A95E2F7282F2695269580E2289F99
:1045200090011124CA01822B932B9A6863C08115D4
:1045300022E5920728F4982F8827816F906A5AC045
:104540009C012370332741E050E002C0440F551F07
:104550002A95E2F7282F2695269580E2289F90013C
:104560001124CA01822B932B9C6844C0EC01811555
:1045700039E59307A8F48115984528F09C2F8827E2
:10458000806F906A37C0C11586E5D80788F58C2FF3
:104590000E94E51F8F7190E0982F882790622AC0B3
:1045A00081152AE5920790F48C2F8F700E94E51FE9
:1045B00094E0D695C7959A95E1F7CF70D0E0DC2FBF
:1045C000CC27D0699E01282BC90114C090568115B3
:1045D000904270F48D2F8F710E94E51F282F2F714C
:1045E000CE0199279062922B05C081E090E002C035
:1045F00080E090E0DF91CF910895CF9384E090E048
:104600000E94ED2BC82F82E290E00E94ED2B2C2F10
:1046100030E0A901582BCA01CF91089580E090E0C5
:104620000E94FB2B893E9E4F11F40C94181C80E0D5
:10463000089569EE7EEF80E090E00E941F2C60E01C
:1046400082E090E00E94012C60E083E090E00E9414
:10465000012C1092520360E084E090E00E94012C53
:1046600060E082E290E00E94012C60E085E090E052
:104670000E94012C60E086E090E00E94012C6FEF28
:1046800087E090E00E94012C40E050E0BA0188E011
:1046900090E00E94132C60E08DE090E00E94012CDD
:1046A00040E050E0BA0188E190E00E94132C60E005
:1046B00087E190E00E94012C40E050E0BA018CE1DB
:1046C00090E00E94132C60E070E080E290E00E9495
:1046D0001F2C40E050E0BA0188E190E00E94132CCA
:1046E00080E00E94EB1B0E94091C40E050E0BA01F0
:1046F0008FE090E00E94132C40E050E0BA0183E18B
:1047000090E00C94132C809151038111109251036D
:1047100008959091500380914F03892B20914E036F
:10472000982F922B9093F502809151038823D9F012
:10473000892B8093F50280910E01882331F08091BE
:10474000E20187FF02C08EE101C086E0E7EFF2E000
:1047500090E0815028F021912223D9F39F5FF9CF77
:1047600091110E948323E091F002F091F1023097C1
:10477000A9F080910E01882359F08091E20187FF12
:1047800007C08091F5028093F60285E08093F502E0
:104790000280F381E02D85EF92E009940895CF9394
:1047A000C091E301C2FB992790F9981781F080FB33
:1047B000C2F9C093E3016091E20184E090E00E94BD
:1047C000012C6C2F82E290E0CF910C94012CCF91C0
:1047D000089520914D038095822380934D03982F57
:1047E000977041F430E0482F082E000C550B241729
:1047F000350721F49091E30192FF07C085958595D7
:1048000085950E94FD2610924D03089580914C03DA
:1048100090911B03891719F08F5F8770FBCF089564
:104820000F931F93CF93DF9380911A0382958F701C
:1048300009F05DC080911703882309F458C0809166
:104840004C0310911B036091150370911603C091E6
:104850001803D091190391E06F3F09F090E0292FE0
:1048600006E0811709F443C0209721F07F3F21F033
:1048700030E003C031E001C0322F90E030FD34C0A1
:10488000089FF001099FF00D1124DF01A45EBC4FC9
:1048900011963C911197371327C03C91361324C0D1
:1048A00012963C91129731111FC013964D915C9155
:1048B00014974C1B5D0B483C5105B0F480911A03D2
:1048C0008F70806180931A03EF5DFC4F80818F7041
:1048D0008061808385E193E00E94E105DF91CF91C3
:1048E0001F910F910C94062401968770BACFDF9127
:1048F000CF911F910F91089580E090E00E94DF1A00
:1049000080E090E00E94C91A10924F0310924E036B
:104910000E948923E4E8F3E086E0DF011D928A9596
:10492000E9F710927E0310927D0310927F030C949E
:10493000532ACF92DF92FF920F931F93CF93DF936F
:104940006C010091160280915203082BC7E0D0E061
:1049500010E0C8010C2E02C0959587950A94E2F7E5
:1049600080FD04C02197A8F7F12C09C0FC2EB601E8
:104970008C2F0E94DE1B0E946321019799F38F2DDB
:10498000DF91CF911F910F91FF90DF90CF9008950D
:10499000CF93DF93EC010E949924BE010E94DE1B9D
:1049A0000E946321DF91CF910895FC018081918164
:1049B0000E94C824292F2F70E92FE295EF704E2F07
:1049C00050E0FA013297EE30F105B8F4EA55FF4FA6
:1049D0000C94EA2C803F99F018F4883E70F40FC0D4
:1049E000843F59F40CC0883E50F0813F31F407C039
:1049F000822F869586958695089580E0089581E0BA
:104A000008959F92AF92BF92CF92DF92EF92FF9262
:104A10000F931F93CF93DF93CDB7DEB761970FB698
:104A2000F894DEBF0FBECDBF8C0185E0F801DE013A
:104A30001D9601900D928A95E1F7F801E280909120
:104A40001503609116034091180350911903411505
:104A5000510531F06F3F31F481E09F3F19F403C0FD
:104A600081E001C080E0F82FF1709F2E80FD1AC117
:104A7000F80130812181C380D48085E1A82E83E0B4
:104A8000B82EF0901703F601E41BF50BFF2009F494
:104A9000C6C080911A03E83CF10508F091C0482F88
:104AA000407F09F050C0621311C093130FC0FE2C59
:104AB000E1100CC08F70806180931A03C5010E94C1
:104AC000E10580911A03F801858329C1CD2831F0D1
:104AD0002F3F31F481E03F3F19F403C081E001C072
:104AE00080E080FD03C081E08E2502C080E090E080
:104AF000F82FF170FF2E80FF1CC080914C03409175
:104B00001B0356E0841709F4E8C090E0589FF001B9
:104B1000599FF00D1124E45EFC4F6181261306C0FD
:104B20006081631303C06281E61203C0019687703F
:104B3000E9CFFE2CEE2009F4F2C080911A038160C7
:104B400080931A0349C0621306C0931304C0E11096
:104B500002C0F80186C0C8010E94D524882351F103
:104B6000EE2041F120911A03822F82958F7090E000
:104B7000029774F0809115039091160398878F83A4
:104B80001986DB86CA862C87CE0107960E94E1052E
:104B900086E0F801A5E1B3E001900D928A95E1F776
:104BA0000E9410240AC06217C9F0C8010E94D524CF
:104BB00081111EC0C8010E94E105FF24F394AFC01B
:104BC000482F407F81F785E193E00E94E10586E070
:104BD000F50111928A95E9F7F12CA1C09313E5CF65
:104BE000E110E3CFF8018583C8010E94E10554C0BC
:104BF000EE2001F320911A03822F82958F7090E0AE
:104C0000029734F280911503909116039A83898359
:104C10001B82DD82CC822E83CE010196B7CFE83C89
:104C2000F105D0F5FE2CEE2029F2621327C0931374
:104C300025C020911A0320FD18C0822F82958F7005
:104C4000482F50E04115510581F0F80125834F3080
:104C5000510541F08F5F982F9295907F822F8F7032
:104C6000892B8583C8010E94E10586E0F801A5E152
:104C7000B3E001900D928A95E1F751C0C8010E94FE
:104C8000D524811185CF80911A03816080931A0306
:104C9000C8010E94E10543C086E0F50111928A95A2
:104CA000E9F73DC0EE2009F485CFC8010E94D52464
:104CB000F82E882309F47ECF86E0F801A5E1B3E061
:104CC00001900D928A95E1F780911503909116035A
:104CD0000E94C8240E94102422C03D872E878D8503
:104CE0009E850E94C824292F22952F70223028F4F7
:104CF0009F7039F0811105C00BC0243028F49F70DB
:104D000049F4805E883020F0C8010E94E1059F2CA4
:104D1000F92C05C0F8019581907F99F7F9CF8F2D77
:104D200061960FB6F894DEBF0FBECDBFDF91CF9175
:104D30001F910F91FF90EF90DF90CF90BF90AF90B9
:104D40009F90089521E1929F800D1124682F669510
:104D500066956695982F977083E0689FB00111243F
:104D600040E050E080E0FB01E40FF51FEA5AFC4F01
:104D7000208130E0092E02C0369527950A94E2F78B
:104D800021703327042E01C0220F0A94EAF7822BE8
:104D90004F5F5F4F4330510531F7089521E1929FF6
:104DA000800D1124E82FE695E695E695877051E091
:104DB00001C0550F8A95EAF783E0E89FF0011124BE
:104DC000EA5AFC4F20E030E070E04081CB01022E37
:104DD00002C0969587950A94E2F7817081958427A1
:104DE0008523842781932F5F3F4F2330310569F757
:104DF0000895809316020C947C2421E030E001C0D9
:104E0000220F8A95EAF720958091160282230C944E
:104E1000F92621E030E001C0220F8A95EAF780915F
:104E20001602822B0C94F926809352030C947C2456
:104E30001092500380910E01882331F08091E2019D
:104E400087FF02C08EE101C086E0E7EFF2E0DF01FC
:104E50001D928A95E9F70C947C24882341F0809573
:104E6000909150038923809350030C9489230895D3
:104E7000882339F090915003892B809350030C9430
:104E8000892308958823B1F19CEF980F913A30F46B
:104E9000682F85EF92E00E946C1A14C090E2980F80
:104EA000983090F4877021E030E0A90102C0440FEF
:104EB000551F8A95E2F7CA01809590915003892386
:104EC000809350030C9489239BE5980F933020F432
:104ED00080E090E00C94DF1A98E5980F973120F469
:104EE00080E090E00C94C91A803F20F00E947D2A57
:104EF0000C94532A0895CF93882309F472C0C82FC5
:104F00008CEF8C0F813AC0F580910E018823E1F07F
:104F10008091E20187FF18C0EC2FE695E695E695B3
:104F2000F0E0EB50FD4F8281282F30E04C2F47708E
:104F300081E090E002C0880F991F4A95E2F7822332
:104F40009323892B61F412C0E7EFF2E08DEF92E03A
:104F50002191C21721F08E179F07D1F707C06C2F40
:104F600085EF92E00E946C1A0E9489236C2F85EFD6
:104F700092E00E94941A10C080E28C0F883078F47E
:104F8000C77081E090E001C0880FCA95EAF7909160
:104F90005003892B80935003CF910C948923EBE528
:104FA000EC0FE33040F4F0E0EE5CFE4F808190E0E7
:104FB000CF910C94DF1AE8E5EC0FE73150F4F0E004
:104FC000EE0FFF1FEB5CFE4F80819181CF910C941F
:104FD000C91AC03F30F08C2F0E94362BCF910C9411
:104FE000532ACF9108951F93CF93DF93182F8933BE
:104FF00019F0C0E0D0E002C0C0E5D0E0812F0E94EF
:105000007B27209741F08FE99FE00197F1F700C0DF
:1050100000002197F6CF812FDF91CF911F910C9443
:1050200042279091E20290FF0CC0E2E2F2E081831D
:1050300060834283339692E0EA36F907C1F70C9415
:10504000641D08958091E202282F269530E02115F5
:10505000310519F48170826005C02B32310524F0CE
:10506000817084658093E2020895CF92DF92EF927F
:10507000FF926B017C010E942228B701A60188E003
:1050800090E0FF90EF90DF90CF900C94132C8091E4
:10509000E602882319F081508093E6026091E202D3
:1050A0007091E3028091E4029091E5020C9435281E
:1050B0008091E602833018F48F5F8093E60260915E
:1050C000E2027091E3028091E4029091E5020C9477
:1050D0003528E2EEF2E083E0808311828FEF828355
:1050E0008383148260817181828193810C9435283D
:1050F000AF92BF92CF92DF92EF92FF920F931F93E6
:10510000CF93DF93E82EF62EE901E42FF0E0611152
:1051100006C0E255F74FE4914E2F2E2F71C0062F97
:1051200010E0E255F74F4491F42FC42ED12C26E025
:10513000829FC00111242FEF30E0B9010E94C22CE0
:105140005BEA5603C001579F900D11248E0D911DEF
:105150008E0D911D582F550F580FD901A01BB10B63
:10516000AC9DC001AD9D900DBC9D900D1124E92F0B
:10517000F59ED0011124AB2FBB277901EA1AFB0A57
:10518000EC9CD001ED9CB00DFC9CB00D112459019C
:10519000A51AB108A09E7001A19EF00CB09EF00C63
:1051A0001124EF2CFF242E193F092C9D80012D9DE9
:1051B000100D3C9D100D1124212F6230710591F0CE
:1051C00048F461157105E1F061307105B9F4242FDF
:1051D0004B2F16C06430710569F040F066307105E0
:1051E00079F00CC0242F492FE12F0AC0492FEF2F4F
:1051F0002B2F06C0292FE42F412F02C0292FEB2F80
:1052000049832883EA83DF91CF911F910F91FF900B
:10521000EF90DF90CF90BF90AF900895CF93DF9342
:1052200000D01F92CDB7DEB79091E20290FF0AC086
:105230009E012F5F3F4F0E9478284B8169818A81B0
:105240000E9411280F900F900F90DF91CF91089539
:105250005F926F927F928F929F92AF92BF92CF9206
:10526000DF92EF92FF920F931F93CF93DF9300D0C3
:105270001F92CDB7DEB7182F762E042F622E909195
:10528000E20290FF6DC0E92FE695AE2FB0E0AD5978
:10529000BE4F8C9180931D029E7F923061F49E01DF
:1052A0002F5F3F4F812F0E9478284B8169818A812F
:1052B0000E94112843C0823019F40091E5023EC0DB
:1052C000863019F41091E30239C08930D9F389315D
:1052D000A9F5E9518E2F8170582EE695F0E0E25540
:1052E000F64FA590B49082E2C82E82E0D82EE12C31
:1052F000F12CBB2498E1892E912CAE9CC001AF9C6F
:10530000900DBE9C900D1124B4010E94C22C812FDF
:10531000511002C0860F01C0861B9601402F672DD9
:105320000E9478288FEFE81AF80A83E0C80ED11C93
:1053300088E1E816F10409F70E94641D1093E30266
:105340007092E4020093E502662051F06091E2025F
:105350007091E3028091E4029091E5020E94352869
:105360000F900F900F90DF91CF911F910F91FF90B1
:10537000EF90DF90CF90BF90AF909F908F907F90F5
:105380006F905F900895E2EEF2E0438128E0421BC7
:1053900008F440E021E0628181810C942829E2EE4A
:1053A000F2E0438128E0420F08F44FEF21E06281F0
:1053B00081810C942829E2EEF2E0628128E0621BF0
:1053C00008F460E021E0438181810C942829E2EE19
:1053D000F2E0628128E0620F08F46FEF21E0438180
:1053E00081810C942829E2EEF2E0818121E0438161
:1053F000628188500C942829E2EEF2E0818121E05C
:1054000043816281885F0C9428299091E20290FF89
:1054100036C09170811102C0926006C08B3210F0CC
:10542000946502C0880F982B9093E202662351F096
:105430006091E2027091E3028091E4029091E502B2
:105440000E9435286091E202669570E04BE050E0E2
:105450008FE091E00E94062D892B19F010921E0218
:1054600002C00E944E1D81E080931A0220E040910C
:10547000E5026091E4028091E3020C9428290895EA
:105480008091E2028695815009F48AE261E00C94F1
:10549000052A8091E20286958F5F8B3208F081E0C9
:1054A00061E00C94052A0E9496192091860321112F
:1054B00004C020918703222321F0909383038093DB
:1054C000820320918803211104C0209189032223A3
:1054D00021F09093810380938003E091F002F0919A
:1054E000F102309749F082E0809384030480F581D3
:1054F000E02D84E893E009940895803F39F4909179
:10550000870397FF35C01092870359C0813F29F464
:10551000909187031916BCF32BC090918603823FAC
:1055200029F497FF25C01092860349C0833F19F4E0
:105530001916CCF31DC090918803893F29F41916E0
:10554000BCF4109288033BC08A3F19F497FF10C047
:10555000F8CF8B3F39F49091890397FF09C01092DF
:1055600089032DC08C3F21F4909189031916BCF357
:105570009CE0980F953080F421E030E0A90102C052
:10558000440F551F9A95E2F7CA01809590918503C3
:1055900089238093850313C08D3F21F480917F037D
:1055A0008E7F0BC08E3F21F480917F038D7F05C0DD
:1055B0008F3F29F480917F038B7F80937F038091BD
:1055C0008603811106C080918703811102C0109269
:1055D0007E0380918803811106C080918903811127
:1055E00002C010927D03089580917F0380FD16C054
:1055F00081FD16C082FD18C080917D03882391F043
:10560000883290F428E0829FC001112468E270E0A3
:105610000E94D62C862F672B29F007C082E00895C0
:1056200084E0089581E0089588E0089580917F03E3
:1056300080FD14C081FD14C082FD16C080917E03E0
:10564000882381F0843180F422E3829FC0011124F9
:1056500064E170E00E94D62C862F08958CE00895B6
:1056600089E1089585E0089582E30895803F21F45B
:105670000E94162B819504C0813F29F40E94162BAD
:10568000809387030895823F21F40E94162B819511
:1056900004C0833F29F40E94162B8093860308954B
:1056A000893F19F40E94F42A05C08A3F31F40E9410
:1056B000F42A81958093880308958B3F21F40E94FA
:1056C000F42A819504C08C3F29F40E94F42A809327
:1056D000890308959CE0980F953078F421E030E03C
:1056E000A90102C0440F551F9A95E2F7CA01909193
:1056F0008503892B8093850308958D3F21F4809144
:105700007F0381600BC08E3F21F480917F03826014
:1057100005C08F3F29F480917F03846080937F03CD
:1057200008958F929F92AF92BF92CF92DF92EF92A5
:10573000FF92CF93DF93EC01688179818A819B810D
:10574000611571058105910521F464E279ED8BE520
:1057500097E02DE133EF41E050E00E94352C490104
:105760005A019B01AC01A7EAB1E40E94542C6B01E1
:105770007C01ACEEB4EFA50194010E94622CDC0127
:10578000CB018C0D9D1DAE1DBF1DB7FF03C0019742
:10579000A109B04888839983AA83BB839F77DF914F
:1057A000CF91FF90EF90DF90CF90BF90AF909F9000
:1057B0008F9008950E94912B089580E091E00E94BF
:1057C000912B0895A0E0B0E0809300019093010137
:1057D000A0930201B09303010895F999FECF92BD01
:1057E00081BDF89A992780B50895A6E1B0E044E01C
:1057F00050E00C94272CA8E1B0E042E050E00C947B
:10580000272C262FF999FECF92BD81BDF89A0197DA
:1058100000B4021639F01FBA20BD0FB6F894FA9AF8
:10582000F99A0FBE08950396272F0E94022C0E941A
:10583000012C252F0E94022C242F0C94022C01965F
:10584000272F0E94022C0C94012CDC01CB01FC01BF
:10585000F999FECF06C0F2BDE1BDF89A319600B4C9
:105860000D9241505040B8F70895052E97FB1EF455
:1058700000940E944C2C57FD07D00E94672C07FC17
:1058800003D04EF40C944C2C5095409530952195B6
:105890003F4F4F4F5F4F089590958095709561955C
:1058A0007F4F8F4F9F4F08950E94892CA59F900D89
:1058B000B49F900DA49F800D911D11240895B7FFF2
:1058C0000C94542C0E94542C821B930B0895A1E23B
:1058D0001A2EAA1BBB1BFD010DC0AA1FBB1FEE1F6A
:1058E000FF1FA217B307E407F50720F0A21BB30BB5
:1058F000E40BF50B661F771F881F991F1A9469F731
:1059000060957095809590959B01AC01BD01CF018C
:105910000895A29FB001B39FC001A39F700D811D88
:105920001124911DB29F700D811D1124911D0895A8
:10593000DB018F939F930E94542CBF91AF91A29F44
:10594000800D911DA39F900DB29F900D112408957D
:10595000991B79E004C0991F961708F0961B881FC1
:105960007A95C9F78095089587FB082E062687FD4E
:10597000819567FD61950E94A82C0EF4919507FC16
:1059800081950895AA1BBB1B51E107C0AA1FBB1F2D
:10599000A617B70710F0A61BB70B881F991F5A95BB
:1059A000A9F780959095BC01CD01089597FB072E2E
:1059B00016F4009407D077FD09D00E94C22C07FC92
:1059C00005D03EF4909581959F4F0895709561950F
:1059D0007F4F0895EE0FFF1F0590F491E02D09947D
:1059E00069279627692778278727782708950E94AF
:1059F000892C332312F48A1B9B0B0C94012D0E94DB
:105A0000892CB7FF0895821B930B0895FC01415028
:105A1000504030F001900616D1F73197CF0108952C
:0A5A2000882799270895F894FFCF16
:105A2A0001000000D313FC18DD18D918D51801019C
:105A3A00191A1B1C1D1E1F20212201020195929476
:105A4A009390914022B60503E3022D025703700397
:105A5A009003818283E200E900EA00B500B600B74C
:105A6A0000CD008301CC008A019201940121022316
:105A7A000224022502260227022A02B300B4006F7A
:105A8A00007000000102020202060606090909095D
:105A9A0009090F0F0F0F0F0F1515151819191919D5
:0E5AAA00191919191919232425252525252533
:00000001FF
