:100000000C9460030C94A7030C94A7030C94A7030F
:100010000C94A7030C94A7030C94A7030C94A703B8
:100020000C94A7030C94A7030C94A7030C94F12938
:100030000C94A02A0C94A9240C94A7030C94A70355
:100040000C94A7030C94A7030C94A7030C9402250B
:100050000C94A7030C94A7030C94A7030C94A70378
:100060000C94A7030C94A7030C94A7030C94A70368
:100070000C94A703B306B306E506E506320750075E
:10008000440844085B07C307D407D407340844086E
:1000900044083D08E408E408F608F608ED08F60808
:1000A000F608F608E408E408F208F608F608F2088C
:1000B0005A1F5D1F7D1F8E1F961FA11FA41FA71F04
:1000C000AA1FF01FF01FAD1FB01FB51FC21FCF1F0B
:1000D000D21FD61FE31F0D2B342B2C2C342B2C2C92
:1000E000802BA32B2C2CFA2B092C290014001A008E
:1000F0000800150017001C0018000C001200130067
:100100002A002B0004001600070009000A000B005B
:100110000D000E000F0033003400E1001D001B0035
:1001200006001900050011001000360037003800E5
:1001300028000100E000E200E300CD002C002C00CC
:10014000D7005000510052004F0035001E001F0024
:100150002000210022002300240025002600270083
:100160004C0035023A003B003C003D003E003F00A1
:100170002D002E002F003000310001004000410012
:100180004200430044004500010001004B004E00C6
:10019000010049004A004D004C000100010001002F
:1001A00001000100AA00A9000100010001000100F6
:1001B0000100010001000100010001000100010037
:1001C00001000100C25CC35CC55CC75CC95C010086
:1001D0000100010001000100010001000100C45CF8
:1001E000C65CC85CCA5C010001000100010001009E
:1001F00001000100010001000100010001000100F7
:1002000001000100010001000100010001000100E6
:1002100001000100010001000100010001000100D6
:1002200001000100010001000100010001000100C6
:1002300001000100010001000100010001000100B6
:1002400001000100010001000100010001000100A6
:100250000100010001000100010001000100010096
:100260000100010001000100010000000000000089
:1002700000002A2B28000000000000000000000001
:10028000000000000029000000002C1E3420212264
:1002900024342627252E362D3738271E1F202122CD
:1002A000232425263333362E37381F040506070846
:1002B000090A0B0C0D0E0F10111213141516171836
:1002C000191A1B1C1D2F3130232D35040506070874
:1002D000090A0B0C0D0E0F10111213141516171816
:1002E000191A1B1C1D2F3130354C00000000000076
:1002F00000000000000000000000000000000000FE
:1003000000000000000000000000000000007E0F60
:1003100000D4FFFFFFC70000007800047F3F1F6488
:100320003214643214783C1E1E140A05222325263A
:1003300028292A2C2D2F3032333536383A3B3D3E92
:100340004042434547494A4C4E5051535557595ADC
:100350005C5E6062646668696B6D6F7173757779F6
:100360007B7D7F81838587898A8C8E9092949698F5
:100370009A9C9E9FA1A3A5A7A8AAACAEAFB1B3B407
:10038000B6B8B9BBBCBEBFC1C2C3C5C6C7C9CACB5C
:10039000CCCDCED0D1D2D2D3D4D5D6D7D7D8D9D927
:1003A000DADADBDBDBDCDCDCDCDCDDDDDDDDDCDC90
:1003B000DCDCDCDBDBDBDADAD9D9D8D7D7D6D5D4AD
:1003C000D3D2D2D1D0CECDCCCBCAC9C7C6C5C3C279
:1003D000C1BFBEBCBBB9B8B6B4B3B1AFAEACAAA8CE
:1003E000A7A5A3A19F9E9C9A98969492908E8C8A82
:1003F00089878583817F7D7B79777573716F6D6B5D
:100400006968666462605E5C5A5957555351504E34
:100410004C4A4947454342403E3D3B3A38363533E6
:1004200032302F2D2C2A292826252322FFAA7F555A
:100430004000010101010101010101020202020269
:10044000020202020303030303030303040404047C
:100450000404040505050505060606060607070744
:10046000070708080808090909090A0A0A0B0B0BFB
:100470000C0C0C0D0D0D0E0E0E0F0F0F1010111198
:10048000111212131314141515161617171818191C
:10049000191A1A1B1B1C1D1D1E1E1F202021222283
:1004A000232424252626272829292A2B2C2D2D2EC6
:1004B0002F30313232333435363738393A3B3C3DE0
:1004C0003E3F404142434445464748494A4C4D4ED1
:1004D0004F50515354555658595A5B5D5E5F616297
:1004E00064656668696B6C6D6F7072737577787A26
:1004F0007B7D7E8082838587888A8C8E8F91939581
:1005000096989A9C9EA0A2A3A5A7A9ABADAFB1B3A4
:10051000B5B7BABCBEC0C2C4C6C9CBCDCFD1D4D684
:10052000D8DBDDDFE2E4E7E9EBEEF0F3F5F8FAFD26
:10053000FF2403550044005F003400300020004FCA
:10054000007200740068006F006C0069006E006546
:100550000061007200000018034D00650063006830
:10056000002000530074007500640069006F0000F3
:10057000000403090409025B00030100A0FA090456
:1005800000000103010100092111010001224000C6
:100590000705810308000A090401000203000000A6
:1005A0000921110100012222000705820320000118
:1005B00007050303200001090402000103000000F5
:1005C000092111010001227B000705840320000A94
:1005D0001201000200000008534D02000200010257
:1005E00000010660FF0961A1010962150026FF00F4
:1005F0009520750881020963150026FF0095207576
:10060000089102C005010902A10185020901A100AA
:1006100005091901290815002501950875018102B0
:100620000501093009311581257F9502750881067C
:1006300009381581257F950175088106050C0A3852
:10064000021581257F950175088106C0C005010945
:1006500080A101850319012AB700150126B700956D
:100660000175108100C0050C0901A1018504190163
:100670002AA002150126A002950175108100C0056F
:10068000010906A101050719E029E71500250195D3
:100690000875018102950175088101050719002976
:1006A000FF150026FF009506750881000508190151
:1006B0002905950575019102950175039101C00009
:1006C00011241FBECFEFD4E0DEBFCDBF04B603FEC2
:1006D00027C08091B8029091B902A091BA02B0915E
:1006E000BB028730904BA740B04BD1F41092B802B8
:1006F0001092B9021092BA021092BB0214BE84B7D3
:10070000877F84BF0FB6F894A895809160008861B8
:1007100080936000109260000FBEE0E0F8E309955E
:1007200011E0A0E0B1E0E0EDFAE502C005900D9225
:10073000AE3CB107D9F722E0AEECB1E001C01D92AA
:10074000A83BB207E1F70E9416140C94662D0C9496
:10075000000081E0089581E008950C94AB030895B2
:100760000C94AF031F93CF93DF9300D000D01F9260
:10077000CDB7DEB749835A836B833091D00189812D
:100780009A81311114C0662359F0222349F00E9446
:10079000E009182F682F89819A810E94830903C07C
:1007A0000E94B409182F69817A81812F04C00E94A8
:1007B000E00969817A810F900F900F900F900F9050
:1007C000DF91CF911F910C94C120FC01262F408115
:1007D00051816281738184810C94B20381E0089518
:1007E000CF93DF93EC0160E00E94E503BE01DF914F
:1007F000CF910C94B003E1E0F0E0DF0102C0AA0F5A
:10080000BB1F6A95E2F7BD01DF0102C0AA0FBB1F43
:100810004A95E2F7AD01462B01C0EE0F2A95EAF7A3
:10082000942F9823491302C08E2B0895E0958E23B0
:100830000895242F462F682F8091E3010E94FB0327
:100840000C9440090E948A120E946E050C94BD12FD
:100850000C94B91208950E94D2080E942A042FEF26
:1008600084E39CE0215080409040E1F700C000000C
:100870000C9428250F931F93CF93DF938C0161E095
:100880000E94E503EC01B8010E94B21E882309F41E
:100890004BC0B801CE010E94AD03882309F444C0C7
:1008A000B801CE010E94F6218823F1F1B801CE01F2
:1008B0000E9448228823C1F1B801CE010E947A2308
:1008C000882391F1B801CE010E945E1D882361F159
:1008D000F8018281882309F1CA358DE5D807C1F076
:1008E00050F4C115FCE5DF0781F0CE3DDC45A9F4ED
:1008F0000E94690F19C0CB35EDE5DE0761F0CC35FC
:10090000DD4559F40E94EE0D08C00E942B040CC076
:100910000E94F70D02C00E94FA0DC801DF91CF912D
:100920001F910F910C94A90380E0DF91CF911F914B
:100930000F910895DF92EF92FF920F931F93CF9341
:10094000DF93E82FF0E0E659FD4FD490282F26954D
:100950002695269530E0F901E65FFC4F04918770FB
:1009600010E0082E02C0159507950A94E2F7017071
:100970001127F901E650FD4FE490F12C082E02C03A
:10098000F594E7940A94E2F791E0E922FF24F90153
:10099000E651FD4FC491D0E002C0D595C7958A9528
:1009A000E2F7C170DD270115110519F081EE0E94F3
:1009B000C805E114F10419F086EE0E94C8058D2DDA
:1009C0000E946906EF2819F086EE0E941E06012B90
:1009D00019F081EE0E941E06CD2B51F08CE2DF91C2
:1009E000CF911F910F91FF90EF90DF900C946906CB
:1009F000DF91CF911F910F91FF90EF90DF900895BD
:100A0000EF92FF921F93CF93DF93EC01162F888113
:100A1000882309F453C0813009F041C089818130B5
:100A200041F47E0182E0E80EF11C8A810E94690691
:100A300009C0823049F47E01E2E0EE0EF11C8A81A9
:100A40000E94C805E7012DC0833041F47E01F2E029
:100A5000EF0EF11C8A810E941E06F4CF843011F043
:100A600021961FC02A81229680E090E030E020533A
:100A700031092A30310548F46AE070E00E94692C9F
:100A8000820F931F21962881F1CF009751F0EFE953
:100A9000FFE03197F1F700C000000197F6CF0E9408
:100AA0009A042196812F882309F4B1CFEFE9FFE062
:100AB0003197F1F700C000008150F5CFDF91CF9161
:100AC0001F91FF90EF90089560E00C940005089549
:100AD0000C94670581E008950C946A050895CF93FE
:100AE000C82F0E9468058C2F0E946C05CF91089535
:100AF000CF93DF93CDB7DEB72B970FB6F894DEBF59
:100B00000FBECDBF4F83588769877A878B87611166
:100B10000E941D0E9E012F5F3F4F86E0F90111924A
:100B20008A95E9F785E0FE013796D90101900D928B
:100B30008A95E1F789819A814C815D81452B31F05D
:100B40009F3F31F491E08F3F19F403C091E001C061
:100B500090E090FF09C049815A816B817C818D8131
:100B60009E810E94180D05C0C9010E94EE038111EB
:100B7000F2CF2B960FB6F894DEBF0FBECDBFDF913C
:100B8000CF910895FC01808191810E940D0A089502
:100B9000CF93882309F450C0C82F8CEF8C0F813A73
:100BA000D0F46C2F80910001909101010E940D24DE
:100BB000882349F06C2F80910001909101010E94DF
:100BC00045240E944F0E6C2F8091000190910101ED
:100BD0000E9443240CC080E28C0F883058F4C77008
:100BE00081E001C0880FCA95EAF70E94000ECF91FC
:100BF0000C944F0EEBE5EC0FE33040F4F0E0EA5AD2
:100C0000FE4F808190E0CF910C94D523E8E5EC0F66
:100C1000E73150F4F0E0EE0FFF1FE85DFE4F8081FA
:100C20009181CF910C94EB23C03F30F08C2F0E9428
:100C3000A714CF910C947915CF910895882389F149
:100C40009CEF980F913A40F4682F809100019091A9
:100C500001010E9445240DC090E2980F983058F48D
:100C6000877091E001C0990F8A95EAF7892F0E9459
:100C7000060E0C944F0E9BE5980F933020F480E005
:100C800090E00C94D52398E5980F973120F480E0FC
:100C900090E00C94EB23803F20F00E9402150C940E
:100CA000791508951F93CF93DF93182FEB010E94BE
:100CB000C805209741F08FE99FE00197F1F700C048
:100CC00000002197F6CF812FDF91CF911F910C94D7
:100CD0001E06893319F060E070E002C060E570E044
:100CE0000C945206882321F00E94000E0C944F0EA3
:100CF0000895882321F00E94060E0C944F0E08954B
:100D0000CF92DF92EF92FF920F931F93CF93DF93D7
:100D10007C01062FC72FFC01D281158112951F700F
:100D20000E94D50D882399F0DD2389F08C2F807FD8
:100D3000803421F080E2800F883048F082E00E9409
:100D40009F0E0E94D50D91E0D82ED92601C0D12C3E
:100D5000CC2EC2948FE0C8228C2D90E0FC01E65C82
:100D6000FF4F0C94EB2C8C2F807FCF70882311F0D9
:100D7000C295C07FDD2399F0CC2309F460C180E2E5
:100D8000800F883010F0011104C08C2F0E94000EDB
:100D900003C08C2F0E94100E0E944F0E50C1802F56
:100DA0000E941E06CC2309F46FC180E2800F8830B8
:100DB00010F0011104C08C2F0E94060E03C08C2F6E
:100DC0000E94160E0E944F0E5FC18C2F807FCF7045
:100DD000803211F0C295C07F002319F00130C9F0B4
:100DE00022C0DD2371F0112341F0113031F40E9453
:100DF000300E8C2B0E94380E47C10E94300E8C2B77
:100E00001DC0112319F0113009F43EC10E94450E96
:100E100025C0DD2321F0163008F036C10EC0153094
:100E200008F032C11BC0DD2361F0112331F0F7015E
:100E3000858180FF04C18F7085838C2F0E9472068C
:100E400023C1112359F0093309F00AC1FFEF27EE3E
:100E500083E0F15020408040E1F700C18C2F0E94D8
:100E6000790612C18C2F86958695837019F0813092
:100E700061F00AC1DD2321F0802F9C2F937002C006
:100E800080E090E00E94D52307C1DD2321F0802F70
:100E90009C2F937002C080E090E00E94EB23FCC086
:100EA000802FDD2319F00E94A71402C00E940215B2
:100EB0000E947915F1C08C2F837079F5D111E8C0AB
:100EC000402F429546954770440F440F202F2F70B6
:100ED000042E01C0220F0A94EAF704FF08C08FE035
:100EE00090E001C0880F4A95EAF7809501C080E044
:100EF000C695C695C370822BC23049F058F4C130F4
:100F000019F00E943409C4C00E942F09C1C00E9478
:100F10003909BEC00E942D09BBC0DD2319F08C2FFA
:100F2000817001C08695882309F4B2C0402F429594
:100F300046954770440F440F202F2F70042E01C098
:100F4000220F0A94EAF704FF08C08FE090E001C086
:100F5000880F4A95EAF7809501C080E0C695C6954E
:100F6000C370822BC23049F058F4C13019F00E948E
:100F700078098EC00E9473098BC00E947D0988C0C9
:100F80000E94400985C0CF70DD2339F08C2F0E946C
:100F90005109802F0E9472067BC0802F0E94790623
:100FA0008C2F0E945C0974C0023F01F128F4003FBD
:100FB00041F0013FA1F03FC0033FF9F0043F39F198
:100FC0003AC0DD2341F0153008F05EC08C2F8F71E0
:100FD0000E94680959C0163008F056C0F7CFDD23CB
:100FE00039F08C2F8F710E9451094EC0DD23C9F357
:100FF0008C2F8F710E945C0947C0DD2329F08C2F54
:101000008F710E94490940C00E9446093DC0DD23FE
:1010100049F0CF718C2F0E94510963E08C2F0E9400
:10102000840E32C081E00E949F0E123068F182E08F
:101030000E949F0E29C0DD2331F0112391F2802FF1
:101040000E94C80521C0112399F2093349F49FEF8A
:10105000E7EEF3E09150E040F040E1F700C000001F
:10106000802F0E941E0610C04C2F4F70602FC701AA
:101070000E9462100E943B0A0FC04C2F4F70602FDD
:10108000C7010E94651008C088EF8C0D843020F4E1
:101090000E94B0230E946F05DD20C9F00E94D10D8F
:1010A00080FD15C0F70112820E94CB0D0E945109EC
:1010B000C7010E9488080E94CB0DDF91CF911F913C
:1010C0000F91FF90EF90DF90CF900C945C09DF912F
:1010D000CF911F910F91FF90EF90DF90CF900895E7
:1010E0000F931F93CF93DF93EC01688179818A81FD
:1010F0000E94180A8C010E9482090E942109B801ED
:10110000CE010E948006DF91CF911F910F9108952B
:10111000CF93DF93EC01988189812B813C81232B34
:1011200031F08F3F31F481E09F3F19F403C081E03B
:1011300001C080E080FD19C0CE010E943A048111F7
:101140000CC00E94D50D882381F08A81882369F024
:1011500082E0DF91CF910C949F0ECE010E94700827
:10116000CE01DF91CF910C94F003DF91CF910895E0
:1011700080E090E00E94D52380E090E00E94EB2385
:101180000E941D0E0E942D0E0E944F0E0E94B81646
:101190000C94791580910001909101010E944724DF
:1011A0000C94B8080E940D0E0C94CA08E92FE29521
:1011B000EF704E2F50E0FA013297EE30F105B0F4A7
:1011C000E65BFF4F0C94EB2C803F91F018F4883EC7
:1011D00068F40EC0843F51F40BC0883E48F0813F54
:1011E00029F406C093FB882780F9089580E00895CC
:1011F00081E00895FC01808191810E940D0A0E9486
:10120000D6080895CF93DF9300D000D01F92CDB7BA
:10121000DEB70F900F900F900F900F90DF91CF914E
:101220000895CF93DF9300D000D000D0CDB7DEB7C4
:1012300026960FB6F894DEBF0FBECDBFDF91CF91DB
:101240000895089508950C9422090C9423090E948E
:1012500025098093E4010C94B8080C942709909117
:10126000E401892B0C9427099091E40189230C94C3
:1012700027099091E40189270C9427090C942209ED
:101280000E943E098093E3010C94B80880E00C941E
:10129000400991E001C0990F8A95EAF7892F0C94D3
:1012A000400921E030E001C0220F8A95EAF78091E1
:1012B000E301822B0C94400921E030E001C0220FB1
:1012C0008A95EAF720958091E30182230C944009E6
:1012D00021E030E001C0220F8A95EAF78091E30116
:1012E00082270C9440099091E301892B0C944009CA
:1012F0009091E30189230C9440099091E30189279F
:101300000C9440090895282F362F892F6CE00E94F5
:10131000602C820F982F9770A1E001C0AA0F9A95B8
:10132000EAF786958695869590E063E070E00E94E6
:10133000692CFC01EF52FE4F40E050E0632F70E05B
:1013400090819B01042E02C0369527950A94E2F7FE
:101350002170219529272A23292721934F5F5F4F49
:101360004330510569F70895282F892F6CE00E94BA
:10137000602C820FA82FA77086958695869590E0A1
:1013800063E070E00E94692CFC01EF52FE4F40E0E8
:1013900050E080E0219130E00A2E02C0369527957A
:1013A0000A94E2F721703327042E01C0220F0A9419
:1013B000EAF7822B4F5F5F4F4330510559F708958D
:1013C000CF92DF92FF920F931F93CF93DF936C0125
:1013D0000091E3018091E401082BC7E0D0E010E028
:1013E000C8010C2E02C0959587950A94E2F780FDFE
:1013F00004C02197A8F7F12C07C0FC2EB6018C2F52
:101400000E9494110197A9F38F2DDF91CF911F9125
:101410000F91FF90DF90CF900895CF93DF93EC0171
:101420000E94E009BE010E949411DF91CF910895BE
:101430001F93CF93DF93EB019091D001992321F07B
:10144000CB010E940D0A13C0882349F0CB010E94F2
:10145000E009182F682FCE010E94830904C0CB0138
:101460000E94B409182FBE01812F0E949411DF91B0
:10147000CF911F910895EF92FF920F931F93CF93F7
:10148000DF938C01892B09F46CC0F12CEE24E394DA
:10149000E8012196F8018491843740F4843008F003
:1014A00051C0813081F0823019F15BC0853709F479
:1014B00044C0A8F19CE7980F903708F052C08F778E
:1014C0000E941E0641C00E5F1F4FFE01849190E2F4
:1014D000980F983050F48770FE2D01C0FF0F8A9549
:1014E000EAF78F2F0E94200E14C00E94C8052DC05D
:1014F0000E5F1F4FFE01849190E2980F983060F4C8
:101500008770FE2D01C0FF0F8A95EAF78F2F0E948A
:10151000260E0E944F0E19C00E941E0616C00E5FB6
:101520001F4FFE01C491CC2381F08FE99FE001970A
:10153000F1F700C00000C150F6CF0E5F1F4FFE0153
:10154000F49003C00E94C8058E018F2D882309F4F2
:101550009FCFEFE9FFE03197F1F700C00000815025
:10156000F5CFDF91CF911F910F91FF90EF900895EC
:10157000CF93DF93C091E5018091E601C817A1F0F8
:10158000D0E0CE0166E070E00E94692CFC01E951D8
:10159000FE4F4081518162817381848195810E94D7
:1015A00011092196C770E8CFDF91CF91089540913E
:1015B0001702509118026091190270911A028091DD
:1015C0001B0290911C020C9411091F93CF93DF937F
:1015D00080911C0282958F7009F05CC08091190285
:1015E000882309F457C02091E5011091E601C091CC
:1015F0001702D0911802A0911A02B0911B0281E04B
:10160000CF3F09F080E0482F211709F443C010971D
:1016100021F0DF3F21F080E003C081E001C0842F92
:1016200030E080FD33C0C90166E070E00E94692CA3
:10163000FC01E951FE4F81818D1328C080818C13FC
:1016400025C08281811122C0838194818A1B9B0BDA
:10165000883C9105D8F480911C028F708061809342
:101660001C02C90166E070E00E94692CFC01E45193
:10167000FE4F90819F709061908387E192E00E947D
:101680008808DF91CF911F910C94B80A2F5F3F4FCC
:101690002770BACFDF91CF911F9108959F92AF929B
:1016A000BF92CF92DF92EF92FF920F931F93CF934F
:1016B000DF93CDB7DEB761970FB6F894DEBF0FBEEC
:1016C000CDBF8C0185E0F801DE011D9601900D92E1
:1016D0008A95E1F7F801E2809091170230911802A3
:1016E00060911A0270911B026115710531F03F3F44
:1016F00031F481E09F3F19F403C081E001C080E034
:10170000F82FF1709F2E80FD43C1F80140812181A7
:10171000A380B48087E1C82E82E0D82EF090190211
:10172000F501E61BF70BFF2009F4DCC080911C02D9
:10173000582F507FE83CF10508F096C0511155C074
:10174000231313C0491311C0FE2CE1100EC08F707B
:10175000806180931C020E94D70AC6010E948808FB
:1017600080911C02F801858350C1AB2831F02F3FD6
:1017700031F481E04F3F19F403C081E001C080E003
:1017800080FD03C081E08E2502C080E090E0F82F4C
:10179000F170FF2E80FF1FC0E091E5013091E6015E
:1017A000E31709F410C1F0E0CF0166E070E00E9499
:1017B000692CDC01A951BE4F11968C911197281309
:1017C00007C08C91481304C012968C91E81203C094
:1017D0003196E770E5CFFE2CEE2009F416C180911A
:1017E0001C02816080931C0254C0231306C049135D
:1017F00004C0E11002C0F80199C0C8010E94FA08B3
:10180000882361F1EE2051F120911C02822F8295F4
:101810008F7090E0029774F08091170290911802F7
:1018200098878F831986BB86AA862C87CE01079658
:101830000E94880886E0F801A7E1B2E001900D92CD
:101840008A95E1F70E94E50A0E94D70A0AC0231789
:1018500011F1C8010E94FA0881112CC0C8010E9430
:101860008808FF24F394D1C05111F1CF7A2DB98AA1
:10187000A88A522F6E2D89890E94020987E192E081
:101880000E94880886E0F60111928A95E9F70E9485
:10189000D70AF12CBAC04913DCCFE110DACFF80136
:1018A0008583C8010E94880886E0F60111928A9516
:1018B000E9F7ABC0EE2091F220911C02822F8295B5
:1018C0008F7090E002970CF4B5CF80911702909141
:1018D00018029A8389831B82BD82AC822E83CE013B
:1018E0000196A6CFE83CF10508F044C0FE2CEE209E
:1018F00009F4B4CF231330C049132EC020911C0229
:1019000020FD21C0822F82958F70482F50E0411515
:101910005105C9F0F80125834F30510541F08F5F23
:10192000982F9295907F822F8F70892B8583C80185
:101930000E94880886E0F801A7E1B2E001900D92CC
:101940008A95E1F73DC086E0F801A7E1B2E0019099
:101950000D928A95E1F759C0C8010E94FA088111D9
:1019600069CF80911C02816080931C02C8010E9493
:1019700088084BC07A2DB98AA88A522F6E2D898982
:101980000E94020986E0F60111928A95E9F718C0D3
:10199000EE2009F463CFC8010E94FA08F82E8823CC
:1019A00009F45CCF86E0F801A7E1B2E001900D9266
:1019B0008A95E1F787E192E00E94C2050E94E50A5C
:1019C0000E94D70A22C04D872E878D859E850E9452
:1019D0000D0A292F22952F70223028F49F7039F09C
:1019E000811105C00BC0243028F49F7049F4805E3B
:1019F000883020F0C8010E9488089F2CF92C05C06F
:101A0000F8019581907F99F7F9CF8F2D61960FB6E8
:101A1000F894DEBF0FBECDBFDF91CF911F910F9124
:101A2000FF90EF90DF90CF90BF90AF909F90089580
:101A3000CF93DF93CDB7DEB72C970FB6F894DEBF08
:101A40000FBECDBF4F83588769877A878B879C8766
:101A5000CE0107960E944E0B8823D1F09F81888586
:101A60002A853B85232B31F08F3F31F481E09F3F66
:101A700019F403C081E001C080E080FD6FC04F8198
:101A8000588569857A858B859C850E94110966C079
:101A900086E0FE013796DE01119601900D928A953F
:101AA000E1F7FF81E8856A857B856115710531F075
:101AB000EF3F31F481E0FF3F19F403C081E001C042
:101AC00080E080FD4BC08091E60190E09C012F5F9B
:101AD0003F4F277033274091E50150E02417350729
:101AE00009F443C0F983EA837D836C8366E070E088
:101AF0000E94692CDC01A951BE4F96E0FE0131968F
:101B000001900D929A95E1F72093E6010E94B80AA0
:101B100025C090E066E070E00E94692C89519E4FDC
:101B20000E944E0B882371F18091E50190E066E000
:101B300070E00E94692CFC01E951FE4F4081518107
:101B400062817381848195810E9411098091E501F0
:101B500090E00196877099278093E5018091E501D7
:101B60009091E6018913D5CF0DC00E94D208109242
:101B7000E6011092E501E7E1F2E086E0DF011D9267
:101B80008A95E9F72C960FB6F894DEBF0FBECDBF4D
:101B9000DF91CF91089580911D028595859585955A
:101BA000089580911D028770089590911D0297708D
:101BB00081E009F480E008959091730292FB22275E
:101BC00020F9281751F080FB92F9909373028091CD
:101BD0007202909173020C94E60E08958091730244
:101BE00082FB882780F991E089270C94DC0D81E045
:101BF0000C94DC0D80E00C94DC0D8091290208959A
:101C000090912902892B80932902089580959091C3
:101C100029028923809329020895109229020895A8
:101C200090912802892B80932802089580959091A5
:101C3000280289238093280208951092280208958B
:101C400090912702892B8093270208958095909187
:101C5000270289238093270208951092270208956E
:101C600080911E02089508950C94330E0C94340E46
:101C70009091730292FD08C090911E02981721F076
:101C800080931E020C94360E089580911E028823C4
:101C900029F010921E0280E00C94360E0895E09117
:101CA0000001F0910101809129028083E0910001FF
:101CB000F0910101908180912802892B8083E0912D
:101CC0000001F0910101908180912702892B80838E
:101CD00080911E02882381F0E0910001F0910101C2
:101CE0009081892B808380910001909101010E9455
:101CF000012481110E94450E809100019091010103
:101D00000C94BC230C94330E9091730292FD10C07E
:101D1000982F990F990F990F692B60931D020E94BC
:101D2000510980911D028595859585950C94820EAB
:101D30000C94510910921D0280E00C94820E2091A7
:101D40001D028095822380931D02982F977041F485
:101D500030E0482F082E000C550B2417350721F4CE
:101D60009091730292FF07C08595859585950E9495
:101D70005C090C949A0E08956FEF7FEF80E090E07D
:101D80000C94502D80E090E00E942C2D893E9E4FB7
:101D900011F40C94551E80E0089582E090E00C94BC
:101DA0001E2D83E090E00C941E2DCF9384E090E0F4
:101DB0000E941E2DC82F82E290E00E941E2D2C2F23
:101DC00030E0A901582BCA01CF910895CF93C92FB4
:101DD000682F84E090E00E94322D6C2F82E290E028
:101DE000CF910C94322DAB01BC018FE090E00C94AC
:101DF000442DAB01BC0183E190E00C94442D60E0E4
:101E000070E0CB010C94F90E60E070E0CB010E9411
:101E1000F30E0C94FF0E69EE7EEF80E090E00E94DE
:101E2000502D60E082E090E00E94322D60E083E07F
:101E300090E00E94322D1092E40160E084E090E096
:101E40000E94322D60E082E290E00E94322D60E03C
:101E500085E090E00E94322D60E086E090E00E94F4
:101E6000322D6FEF87E090E00E94322D40E050E08D
:101E7000BA0188E090E00E94442D60E08DE090E09F
:101E80000E94322D40E050E0BA0188E190E00E94CB
:101E9000442D60E087E190E00E94322D40E050E068
:101EA000BA018CE190E00E94442D60E070E080E295
:101EB00090E00E94502D40E050E0BA0188E190E0AF
:101EC0000E94442D80E00E946E1E0E949A1E0C9477
:101ED000040F0C940B0F682F8EE090E00C94322DC1
:101EE0000E94E7246093370270933802809339028E
:101EF00090933A02609333027093340280933502D8
:101F000090933602089581E008950C94830F08950C
:101F10000C94870F0C94870F0C948A0F0C94870FE6
:101F20000C948E0F0C94870F80E792E10E944C2551
:101F30000E94920F0C94900F0E94880F0C94870FB0
:101F40000E94D2240E94A91E0E946E130E946C1C43
:101F50000C948C0F6F927F928F929F92AF92BF9250
:101F6000CF92DF92EF92FF920F931F93CF93DF9365
:101F7000CDB7DEB72A970FB6F894DEBF0FBECDBF40
:101F80000E94901381110E94700F3BE2832E32E079
:101F9000932E00E010E0C02E802F0E94A4125C015E
:101FA000F401619071904F016826792661147104E3
:101FB000B1F40F5F1F4F0430110569F78FEF89836C
:101FC0008A831B820E94DB248160782F9D838C830F
:101FD00049815A816B818D810E9478053AC0809138
:101FE0003B0281FD0E94AD12D12CEE24E394F12C32
:101FF000C3018E219F21892B29F10E94850F8823FF
:10200000A9F0DE82CF82AE20BF2081E0AB2809F4A8
:1020100080E088870E94DB248160782F9A878987F7
:102020004E815F8168858A850E947805000F111FA7
:10203000F801E55DFD4F80819181E826F926F18266
:10204000E08207C0D394EE0CFF1CFCE0DF12D0CF7F
:10205000B0CF0E94B01C0E9497150E94B0239091AF
:102060002A028917D1F00E94B02380932A022A966F
:102070000FB6F894DEBF0FBECDBFDF91CF911F9199
:102080000F91FF90EF90DF90CF90BF90AF909F9017
:102090008F907F906F900C946F052A960FB6F894EE
:1020A000DEBF0FBECDBFDF91CF911F910F91FF908B
:1020B000EF90DF90CF90BF90AF909F908F907F90E8
:1020C0006F90089580E090E008950895880F991F1B
:1020D000FC01E65EFC4F859194910895CF93DF93C8
:1020E0000E949911EC01811520E5920708F03FC08C
:1020F000811540E4940708F0D9C0883E910500F5A9
:10210000803E910508F00CC1883A910570F4853A3B
:10211000910508F0ADC08130910509F4A6C008F41E
:10212000FCC0049708F0FCC0F8C08F3B910508F490
:10213000A8C0803C910508F4F0C0805C9109ACC057
:10214000811550E2950760F4C11581E0D80708F0C9
:10215000E7C0C03FD10508F4E0C0CE019065E1C002
:10216000811520E3920708F09AC09F7095C08115F1
:1021700045E5940708F04DC0811554E5950708F032
:10218000AFC0C11582E5D80740F5C11521E5D207DA
:1021900008F08FC0CE01B4E096958795BA95E1F727
:1021A000282F23703C2F337081E090E002C0880F0D
:1021B000991F3A95E2F79C68AC01522B8C2F8F70D7
:1021C000282F26952695822F90E0C5E0880F991F2D
:1021D000CA95E1F7842B952BA4C0AE014370552717
:1021E0009C2F96959695C115D34508F067C021E0C0
:1021F00030E002C0220F331F4A95E2F7892F90E0AA
:10220000F5E0880F991FFA95E1F7822B932B9C68D4
:1022100088C0811529E5920790F4811548E5940757
:1022200008F063C0811556E5950708F076C00E9456
:102230002D128F7190E0982F8827906272C0C1157F
:102240008AE5D80708F456C0CE0190568115904211
:1022500008F063C08D2F8F710E942D129E013327CD
:1022600030628F71A901582B56C081E090E059C0AF
:10227000855AC82FD0E0C957DE4F888190E090641E
:1022800050C0885AC82FD0E0CC0FDD1FC75ADE4F90
:1022900088819981946445C00E94661042C0992744
:1022A000D3FF02C0986C3DC0906C3BC09F70906A99
:1022B00038C09C2F8827816F906A33C021E030E0BE
:1022C00002C0220F331F4A95E2F7892F90E0E5E024
:1022D000880F991FEA95E1F7822B932B9A6821C00A
:1022E000982F8827846F906A1CC0982F8827806F4A
:1022F000906A17C08C2F8F700E942D129E0194E05F
:10230000369527959A95E1F72F7030E0322F2227E6
:102310003069A901482BCA0104C080E090E001C0E7
:10232000CE01DF91CF9108950E94C1200E946E10CE
:1023300008958238910569F1B0F48133910509F46B
:102340006DC048F48932910509F463C08A32910561
:1023500009F469C008958533910509F455C089339E
:102360009105B9F00895833E910569F138F4803EF6
:102370009105B1F0823E910509F10895863E9105DF
:10238000A9F1873E9105B9F1843E910509F064C039
:1023900023C02091720220FD4FC021FD4DC0089541
:1023A0008091720280FD44C08091730280FF44C01E
:1023B0008091720284FD42C083EE4DC08091720212
:1023C00082FF38C0F5CF8091720282FD33C08091C8
:1023D000730280FD31C0ECCF8091730281FF32C067
:1023E0008091720284FD2AC087EE35C0809172020E
:1023F00083FF26C0F5CF8091720283FD21C08091BA
:10240000730281FD1FC0ECCF8091720285FD1CC05C
:102410001DC08091720285FD19C016C080917202A4
:1024200086FD16C017C08091720286FD13C010C0D1
:1024300089E311C082EE0FC080EE0DC080E00BC0BA
:1024400086EE09C084EE07C089E205C085E303C0BB
:102450008AE201C081E390E008959091720292FFB8
:102460000DC0282F2871283019F4877F846006C09A
:10247000282F2471243011F48B7F886093FF0DC0C6
:10248000282F2871283119F4877E846106C0282FEF
:102490002471243111F48B7E88612091730220FF16
:1024A0000DC0382F3871383019F4877F816006C02D
:1024B000382F3171313011F48E7F886021FF0DC0CB
:1024C000282F2871283119F4877E816106C0282FB2
:1024D0002171213111F48E7E886194FD877E0895EB
:1024E00080E008950C94BC0E0E9490138FE39CE949
:1024F0000197F1F700C000000E94901380E00E9455
:10250000A41280FF04C00E9472120C942825089522
:102510000C9474120E94C20E811102C00E94690FB5
:102520000E94CD0E80933B020E94D50E90937302C1
:10253000809372020E9488120E94D10E0E942D097F
:102540008091E3010C943E09E82FF0E0EE0FFF1FAD
:10255000E458FD4F808191810895089580EA8A951D
:10256000F1F7089500C008950C94AE1208950C94EC
:10257000B6120C94B7120C94B6120C94BB12F894C9
:10258000E82FE295EF70F0E031A1282F2F7081E065
:1025900090E001C0880F2A95EAF7982F9095932331
:1025A00091A392A1892B82A3789408950F931F93EE
:1025B000CF93DF93C6E9D1E089918F3F11F00E945C
:1025C000BF1281E0CA39D807B9F7CAE8D1E006E9F5
:1025D00011E089918F3F11F00E94BF120C171D0767
:1025E000C1F7DF91CF911F910F910895AF92BF92E4
:1025F000CF92DF92EF92FF920F931F93CF93DF93CF
:102600008C01C62FD0E0CE018A569E4F6C01DC01B2
:102610009C919F3F09F457C0B62EF894E92FE2959C
:10262000EF70F0E081A19F7021E030E001C0220F47
:102630009A95EAF7822B81A382A12095282322A3D1
:1026400078940E94B212EAE8F1E020E030E0E12C58
:10265000F12C41E050E081918F3FC1F0A82FA2956D
:10266000AF70B0E090966C9170E08F70DB0102C0AB
:10267000B595A7958A95E2F7A0FD08C0CA01022E7C
:1026800002C0880F991F0A94E2F702C080E090E030
:10269000E82AF92A2F5F3F4F2C303105E1F6F60189
:1026A00080818F3F11F00E94BF1261E0E114F104BC
:1026B00009F460E08B2D0E94B412CC0FDD1FC00F17
:1026C000D11FF982E882DF91CF911F910F91FF9086
:1026D000EF90DF90CF90BF90AF9008950E94D612F8
:1026E000A4E7B2E011961C921E92ECE7F2E0118290
:1026F000108213961C921E921297138212821596C4
:102700001C921E9214971582148217961C921E9288
:1027100016971782168284E00E94DB130C94220421
:10272000FF920F931F93CF93DF93CDB7DEB7289718
:102730000FB6F894DEBF0FBECDBF8E010F5F1F4FE7
:1027400088E0F80111928A95E9F7F12C6F2DC80104
:102750000E94F612F394F4E0FF12F8CF48E050E044
:10276000B80184E792E00E94112DFF24F3940097B2
:1027700009F4F12C892B41F088E0F801A4E7B2E0DC
:1027800001900D928A95E1F72F2D44E06CE772E0FD
:1027900084E792E00E94DC130E9428048F2D289683
:1027A0000FB6F894DEBF0FBECDBFDF91CF911F9162
:1027B0000F91FF9008950895FF920F931F93CF9369
:1027C000DF93F82E092F162FD72FC42F222349F07D
:1027D00081E080933E020E94DB2490933D0280932F
:1027E0003C0280913E028823D9F080913C02909176
:1027F0003D020E94F324059798F0EF2DF02FA12FB2
:10280000BD2F80E090E04C2F50E08417950734F402
:10281000219131912D933D930196F7CF10923E0275
:10282000DF91CF911F910F91FF9008950E944E2448
:102830000E94CB260E94E4260E94F6260E949C0F4E
:10284000FBCF8091450280FF0CC08091070190E092
:1028500065E070E00E94692C959587959595879520
:102860002EC081FF0AC08091070190E065E070E012
:102870000E94692C9595879522C082FF08C080919F
:10288000070190E065E070E00E94692C18C020917B
:1028900044022223D9F030910601231780F780915A
:1028A000070190E065E070E00E94692C622F70E003
:1028B0000E94692C632F70E00E94B52CCB018038F8
:1028C000910538F4009739F481E005C085E090E087
:1028D00008958FE7089508958091450280FF08C00C
:1028E0006091030170E0759567957595679523C0B4
:1028F00081FF06C06091030170E0759567951BC06C
:1029000082FF04C06091030170E012C06091430235
:102910006623A9F0209102016217A0F780910301BC
:1029200070E090E00E94692C622F70E00E94B52C4C
:102930006038710540F46115710519F406C061E055
:1029400070E0862F08958FE7089581E00895803F15
:1029500021F40E942114819504C0813F29F40E9432
:102960002114809349020895823F21F40E9421148A
:10297000819504C0833F29F40E942114809348026A
:102980000895893F19F40E946C1405C08A3F31F400
:102990000E946C14819580934A0208958B3F21F424
:1029A0000E946C14819504C08C3F29F40E946C1421
:1029B00080934B0208959CE0980F953078F421E0C5
:1029C00030E0A90102C0440F551F9A95E2F7CA01F1
:1029D00090914702892B8093470208958D3F21F4FF
:1029E0008091450281600BC08E3F21F480914502A9
:1029F000826005C08F3F29F48091450284608093F6
:102A000045020895803F39F49091490297FF35C0FF
:102A10001092490259C0813F29F490914902191638
:102A2000BCF32BC090914802823F29F497FF25C048
:102A30001092480249C0833F19F41916CCF31DC007
:102A400090914A02893F29F41916BCF410924A0267
:102A50003BC08A3F19F497FF10C0F8CF8B3F39F481
:102A600090914B0297FF09C010924B022DC08C3FF2
:102A700021F490914B021916BCF39CE0980F95300D
:102A800080F421E030E0A90102C0440F551F9A955F
:102A9000E2F7CA018095909147028923809347020B
:102AA00013C08D3F21F4809145028E7F0BC08E3F75
:102AB00021F4809145028D7F05C08F3F29F48091DC
:102AC00045028B7F8093450280914802811106C0A8
:102AD00080914902811102C01092440280914A0201
:102AE000811106C080914B02811102C010924302F5
:102AF00008950E94DB2420914802211104C02091F6
:102B00004902222321F090934202809341022091B6
:102B10004A02211104C020914B02222321F09093FC
:102B2000400280933F0286E492E00C94C723EF9228
:102B3000FF920F931F93CF93DF9300D000D000D06C
:102B4000CDB7DEB786E0E6E4F2E0DE011196019053
:102B50000D928A95E1F7E0904802F09049020091C9
:102B60004A0210914B0210924802109249021092B0
:102B70004A0210924B02E11003C0FF2009F464C026
:102B800080914102909142020E94F324FC01209125
:102B90004402222339F08091080190E08E179F07AC
:102BA00060F052C08091090190E06AE070E00E94FC
:102BB000692C8E179F0718F047C02F3F19F02F5F21
:102BC00020934402EE2061F00E942114682F1E140D
:102BD00014F08FEF01C081E00E94602C80934802C6
:102BE000FF2061F00E942114682F1F1414F08FEF52
:102BF00001C081E00E94602C8093490280914802CC
:102C0000882311F1209149022223F1F0082E000CB3
:102C1000990B65EB70E00E94692C992319F0909351
:102C2000480203C081E080934802822F220F990B53
:102C300065EB70E00E94692C992319F0909349028A
:102C400003C081E080934902011103C0112309F4FC
:102C500064C080913F02909140020E94F324FC01E5
:102C600020914302222339F08091040190E08E17D5
:102C70009F0760F052C08091050190E06AE070E02B
:102C80000E94692C8E179F0718F047C02F3F19F03C
:102C90002F5F20934302002361F00E946C14682F81
:102CA000101614F08FEF01C081E00E94602C809319
:102CB0004A02112361F00E946C14682F111614F05F
:102CC0008FEF01C081E00E94602C80934B028091C5
:102CD0004A02882311F120914B022223F1F0082EA1
:102CE000000C990B65EB70E00E94692C992319F098
:102CF00090934A0203C081E080934A02822F220F00
:102D0000990B65EB70E00E94692C992319F0909360
:102D10004B0203C081E080934B02809148028111F5
:102D20000BC080914902811107C080914A02811134
:102D300003C080914B0281110E947915EB82FC82C5
:102D40000D831E8386E0FE013196A6E4B2E0019079
:102D50000D928A95E1F726960FB6F894DEBF0FBE66
:102D6000CDBFDF91CF911F910F91FF90EF9008950C
:102D7000E6E4F2E086E0DF011D928A95E9F7109221
:102D8000440210924302109245020895EF92FF927E
:102D90000F931F93CF93DF93E82F71110AC0442341
:102DA00021F0F0E0EF5CFB4FE4916E2F7E2F8E2F31
:102DB0006CC0C62FD0E0072F10E0282F30E044234E
:102DC00029F0F901EF5CFB4F249130E0CE0166E081
:102DD00070E00E94692CEE24EA94F12CB7010E9465
:102DE000A12CDB01CC0FDD1FCB016BEA7FEF0E9432
:102DF000692C8C0F9D1FC82FCC0FC80FC701801BDB
:102E0000910BB9010E94692CE92F492FD0E0CE0126
:102E1000B8010E94692C692F70E0C701861B970BCF
:102E2000B9010E94692CF92FC7018C1B9D0BB801B9
:102E30000E94692C692F70E0C701861B970BB901AE
:102E40000E94692CA230B10591F038F4109759F026
:102E50001197C1F48E2F7F2F0CC0A430B10579F0EB
:102E600050F0169779F4722F842FE92F0DC0892F17
:102E70007E2FE22F09C0822F7E2FEF2F05C0822FD9
:102E8000792F02C0722F8F2F6E2FDF91CF911F915C
:102E90000F91FF90EF90089541E00E94C6160895AB
:102EA00008950E944C170895CF93DF93762FE90180
:102EB000682F842F0E945117798368838A83DF915A
:102EC000CF91089580918402282F269530E0211516
:102ED000310519F48170826005C02532310524F076
:102EE0008170886480938402089588E090E00C9457
:102EF000262DCF92DF92EF92FF926B017C010E9410
:102F00006217B701A60188E090E0FF90EF90DF9094
:102F1000CF900C94442D6091840270918502809131
:102F20008602909187020C947917E4E8F2E083E03E
:102F3000808311828FEF8283838314826081718109
:102F4000828193810C9479178091840280FF02C062
:102F50008695089580E0089590918802933018F442
:102F60009F5F90938802882351F060918402709152
:102F7000850280918602909187020C9479170895BA
:102F800081E00C94AC1790918802992319F091502C
:102F900090938802882351F0609184027091850299
:102FA00080918602909187020C947917089581E0B0
:102FB0000C94C31780918802089580938802662339
:102FC00051F0609184027091850280918602909107
:102FD00087020C947917089560E00C94DD178091B6
:102FE0008502089580918602089580918702089550
:102FF00070E00C942A1E30910E018091840280FFB3
:103000000CC080910D0190E063E070E00E94692C9B
:10301000632F87579D4F0C94F81720910F01409113
:103020001001241770F7822F90E063E070E00E9497
:10303000692CFC01E757FD4F1182108212822F5F2D
:10304000F0CFA82FB62F8091840280FF16C0209168
:103050000F0130911001231770F4822F90E063E08C
:1030600070E00E94692CFC01E757FD4FA183B083FB
:1030700042832F5FF0CF0C94FB170895CF93DF931B
:1030800000D01F92CDB7DEB79091840290FF0AC0A6
:103090009E012F5F3F4F0E9454174B8169818A81A7
:1030A0000E9421180F900F900F90DF91CF910895FB
:1030B000CF93DF93EC01EC81F0E0E45DFC4F4491B1
:1030C000E4E8F2E0628181810E943E188C818F5F8A
:1030D0008C83DF91CF910895CF93DF93EC01E4E8E7
:1030E000F2E0438162818C810E943E188C818F5F67
:1030F0008C83DF91CF9108950F931F93CF93DF932C
:1031000000D01F92CDB7DEB78C0180914C028111A7
:103110000AC09E012F5F3F4F4FEF6FEF0E94541781
:103120008A8180934C02F8018481813051F028F02B
:10313000823061F440914C020AC080914C0240E020
:1031400007C060914C0240E080E003C040E080E0B6
:1031500060E00E942118F801848190E0019663E00C
:1031600070E00E94B52C84830F900F900F90DF9138
:10317000CF911F910F910895AF92BF92CF92DF929E
:10318000EF92FF920F931F93CF93DF9300D01F9284
:10319000CDB7DEB7182FF62E042FE22E90918402C1
:1031A00090FF6EC0E92FE695AE2FB0E0A656BE4F59
:1031B0008C91809358029E7F923061F49E012F5F24
:1031C0003F4F812F0E9454174B8169818A810E9451
:1031D000211844C0823019F4009187023FC0863024
:1031E00019F4109185023AC08930D9F38931B1F5CB
:1031F000E9514E2F4170D42EE695F0E0E45DFB4F8F
:10320000A590B490C12CBB2440911101C41620F5A7
:103210002C2D30E0C501B9010E94692C642F70E0AB
:103220000E94A12CE12FD11002C0E60F01C0E61BC5
:1032300080910F01A901480F511DCA0163E070E0A0
:103240000E94692C9C0127573D4F402F6F2D8E2FD8
:103250000E945417C394D8CF0E94FB171093850285
:10326000F092860200938702EE2051F06091840272
:103270007091850280918602909187020E94791751
:103280000F900F900F90DF91CF911F910F91FF90B2
:10329000EF90DF90CF90BF90AF900895E4E8F2E018
:1032A0009181282F4381628188E0890F0C94BC189A
:1032B00081E00C944E19E4E8F2E09181282F4381DB
:1032C000628188EF890F0C94BC1881E00C945B1923
:1032D000E4E8F2E0628128E0620F08F46FEF282F43
:1032E000438181810C94BC1881E00C946819E4E856
:1032F000F2E0628128E0621B08F460E0282F43813D
:1033000081810C94BC1881E00C947719E4E8F2E018
:10331000438128E0420F08F44FEF282F628181811A
:103320000C94BC1881E00C948619E4E8F2E0438127
:1033300028E0421B08F440E0282F628181810C9430
:10334000BC1881E00C94951920E00C94BC18EF9205
:10335000FF921F93CF93DF93EC0110E0EE24EA94E9
:10336000F12C30911101131700F520910F01812FDD
:1033700090E0820F911D63E070E00E94692CFC01D7
:10338000E757FD4F632F70E0C7010E94B52C812FD6
:103390000E94602C9C819F0140918702609186026F
:1033A000890F0E9454171F5FDCCF0E94FB179A8180
:1033B0008C8190FF02C08F5F01C081508C83DF91B0
:1033C000CF911F91FF90EF900895AF92BF92CF924F
:1033D000DF92EF92FF920F931F93CF93DF93FC0145
:1033E000828180FF02C0DFEF01C0D1E0C0E03AE09F
:1033F000A32E80911101C81708F043C080910F01DE
:10340000CC2ED12C9601280F311DC90163E070E04C
:103410000E94692C87579D4F7C01FC01118210820C
:10342000128204E010E0B12C80914E028B0D8B30A3
:103430002CF06A2D0E94932C892F05C087FF03C0B2
:1034400090911101890F082E000C990BC816D9060E
:1034500091F48091870290E0B8010E94692C9595C3
:103460008795959587959701482F60918602809161
:1034700085020E945417BD0E01501109A9F6CF5FB5
:10348000B8CF0E94FB1780914E02D13031F48111E8
:1034900002C080911101815007C090E001966091B7
:1034A000110170E00E94B52C80934E02DF91CF9104
:1034B0001F910F91FF90EF90DF90CF90BF90AF9052
:1034C0000895CF9320910F0130911001231770F4CC
:1034D000822F90E063E070E00E94692CFC01E757C6
:1034E000FD4F1182108212822F5FF0CFC0E06091F9
:1034F0001101C61790F5EC2FF0E070E0CF010E94AB
:10350000B52C90910F01890F20914D02022E000CD5
:10351000330B90E063E070E00E94692CE217F30740
:10352000A4F020910C01022E000C330B2E173F0744
:1035300064F09C0127573D4F4091870260918602BD
:10354000809185020E94541706C0FC01E757FD4F89
:10355000118210821282CF5FCACF0E94FB17209186
:103560000B0180914D02820F80934D0290910C01CE
:10357000920F90930C0119165CF4082E000C990B15
:103580004091110150E041505109841795071CF0FA
:10359000219520930B01CF9108954F925F926F92E6
:1035A0007F928F929F92AF92BF92CF92DF92EF92D3
:1035B000FF920F931F93CF93DF938C01FC01C48183
:1035C000CC2ED12CE12CF12CA7019601C701B6011C
:1035D0000E947A2CA70196010E947A2C4B015C0173
:1035E00080E290E06C01CC1AD1080D2C000CEE08A2
:1035F000FF0825E530E040E050E0C501B4010E943D
:103600007A2C2B013C01A7019601C701B6010E944B
:103610007A2CA70196010E947A2C9B01AC01280DFF
:10362000391D4A1D5B1DC301B2010E94C92CD22F56
:10363000822F90E02A3230F025E530E0A901481BC6
:10364000590BCA0163E070E00E94692C97FD019656
:1036500095958795C82FC095F12C85E5E82EED1A34
:1036600080911101F816D0F4F1FC02C0EE2D01C0DA
:10367000ED2F20910F018F2D90E0820F911D63E0BF
:1036800070E00E94692C9C0127573D4F4C2F6091A0
:1036900086028E2F0E945417F394E2CF0E94FB17EC
:1036A000F8018481811102C091E003C0803219F4D5
:1036B0009FEF90930A0190910A01890FF80184838A
:1036C000DF91CF911F910F91FF90EF90DF90CF90FE
:1036D000BF90AF909F908F907F906F905F904F9032
:1036E00008950F931F93CF93DF93EC0100E010E058
:1036F00040911101842F90E0081719072CF5809153
:103700000F019801280F311DC90163E070E00E948C
:10371000692C9C0127573D4F469550E08C8104173A
:1037200015071CF4882331F002C0811103C04091B9
:10373000870201C040E060918602809185020E946C
:1037400054170F5F1F4FD4CF0E94FB178C8190E05E
:103750000196817099278C83DF91CF911F910F91F2
:103760000895E4E8F2E080818E7F8083608171813A
:10377000828193810E947917109259022FEF80E77E
:1037800092E0215080409040E1F700C000000C948E
:10379000FB17E4E8F2E080818E7F8083109259026B
:1037A0002FEF80E792E0215080409040E1F700C089
:1037B00000000C94FB17109259028091560281115F
:1037C0000AC081E0809356028091840281708093C8
:1037D00055020C94C91B089560918402669570E0AF
:1037E0004BE050E082E191E00E94042D892B19F416
:1037F00081E0809359020E94DB24909350028093D1
:103800004F0208959091840290FF35C0917081110C
:1038100002C0926006C0853210F0986402C0880F22
:10382000982B90938402662351F0609184027091EA
:10383000850280918602909187020E94791760919B
:103840008402669570E04BE050E082E191E00E94D6
:10385000042D892B19F01092590202C00E94EC1B12
:1038600081E08093520240918702609186028091AC
:1038700085020C94A4190895682F9091840296955E
:1038800081E0890F853208F081E00C94021C81E010
:103890000C943C1C682F9091840296958FEF890FB1
:1038A00009F484E20C94021C81E00C944A1C61E04F
:1038B0000C94021CE4E8F2E08081816080838695AC
:1038C0000C94571C8091840280FD0C94B11B0C94C5
:1038D0005A1C60E00C94021C8091570281112EC08A
:1038E0000E94C20E811104C00E94690F0E949517A8
:1038F0000E947517609384027093850280938602FC
:10390000909387026E7F61F40E9495170E9475174D
:10391000609384027093850280938602909387025D
:103920000E946217109259028091840280FF03C0A6
:1039300086950E94691C81E0809357020895E4E80F
:10394000F2E080818160808386950C94691C1092DE
:1039500056028091550281110E949F1C0C94EC1B11
:103960000F931F93CF93DF9380915902882309F41B
:1039700085C080915802E0918402E695E81BE093AF
:103980005102823049F4F0E0E85DFC4FE491CE2F23
:10399000D0E008E518E149C0863049F4F0E0EB5D7D
:1039A000FC4FE491CE2FD0E00CE618E13EC0893008
:1039B00051F4E695F0E0EE5DFC4FE491CE2FD0E0BF
:1039C00007EA19E132C08F3051F4E695F0E0E15E8C
:1039D000FC4FE491CE2FD0E005EE19E126C08531F1
:1039E00049F4F0E0E45EFC4FE491CE2FD0E001E634
:1039F0001AE11BC0883181F0833239F4EAE1F3E047
:103A0000C591D4910CE718E110C0843251F4C4EF91
:103A1000D1E001E71BE109C0C8E2D0E00DEC1AE1FA
:103A200004C0C0EDD7E000E517E180915202882381
:103A300061F0109252020E94DB2490935002809316
:103A40004F0210925402109253020E94DB24E09124
:103A50004F02F09150028E1B9F0B8F3F9F4770F4D7
:103A6000EC0FFD1FF0935002E0934F028FE492E0C1
:103A7000F801DF91CF911F910F910994DF91CF91C0
:103A80001F910F910895882311F0FA0101C0FB01E5
:103A90000994CF93DF93C82FD62F0E94A4178C17B9
:103AA00040F00E94A4178D1720F4DF91CF910C9461
:103AB000471C8C2FDF91CF910C94571C1F93CF93F1
:103AC000DF93FB011281112309F4BCC0EC010E94B9
:103AD000FD0D8272CC3CFCE5DF0709F497C008F0CD
:103AE00043C0C63CECE5DE0709F47CC0D8F4C33C17
:103AF0009CE5D90709F46AC038F4C23CDC4509F0FA
:103B0000A4C00E94621CA0C0C43C9CE5D90709F473
:103B100062C0C53CDC4509F098C045E659E168E55E
:103B200079E15DC0C93CFCE5DF0709F465C070F4CC
:103B3000C73CECE5DE0709F45AC0C83CDC4509F097
:103B400084C044E759E163E879E149C0CA3C9CE597
:103B5000D90709F456C0CB3CDC4509F076C047EDE7
:103B600057E160EC77E13BC0C13DFCE5DF0709F4BC
:103B70005AC098F4CE3C9CE5D90709F44EC008F42D
:103B80004AC0CF3CFCE5DF0709F44AC0C03DDC4534
:103B900009F05BC06EE089E04EC0C43D9CE5D907EA
:103BA00009F447C050F4C23DFCE5DF07F9F1C33D1D
:103BB000DC4509F04AC088E142C0C53D9CE5D90713
:103BC000E9F1CD35DD4509F43FC03FC044E55CE196
:103BD00067E47CE104C047E45CE164E57CE10E94C9
:103BE000431D32C048E559E165E679E1F8CF43E885
:103BF00059E164E779E1F3CF41EA59E162E979E11A
:103C0000EECF42E959E161EA79E1E9CF40EC57E1D1
:103C100067ED77E1E4CF81E012C065E082E00BC0A0
:103C200068E086E008C064E18FE005C067E185E1F7
:103C300002C062E289E10E94491D06C083E20E943F
:103C4000571C02C011E001C010E0812FDF91CF911D
:103C50001F910895279A25B12F7735B130684FB756
:103C6000F894FC01CB0163E070E00E94692C8E0F98
:103C70009F1FE817F90789F0519168E035B90000F6
:103C800000C057FF25B9550F000000C000C000C09C
:103C900025B900C06A9591F7ECCF4FBF8FE594E04E
:103CA0000197F1F700C00000089583E290E00E94C0
:103CB0001E2D813281F484E290E00E941E2D81311C
:103CC00051F485E290E00E941E2D91E0863209F0C9
:103CD00090E0892F01C080E081700895CF93C82FB4
:103CE000811102C06FEF01C061E283E290E00E94A7
:103CF000322DC11102C06FEF01C061E184E290E09A
:103D00000E94322DC11102C06FEF01C066E285E250
:103D100090E0CF910C94322D089586E290E00E94BD
:103D20001E2D682F70E080E090E0089586E290E01C
:103D30000C94322D80E00E946E1E60E070E0CB019A
:103D40000E94961E0E9443200E941B2181E00C9439
:103D50006E1E0E948C1E0E94551E811102C00C9482
:103D60009A1E0895CF93FB01C281CC23E9F09C01F8
:103D700022513F452031310520F482510E942B21F0
:103D80000CC08031FFE59F0751F481E00E9451098A
:103D900043E062E081E00E941904C0E018C0813174
:103DA0009F45A9F482E0F2CF8031EFE59E0711F440
:103DB00081E004C081319F4549F482E00E945C09A2
:103DC00043E062E081E00E94190401C0C1E08C2F51
:103DD000CF9108952FEFFC0120830895CF93DF93B7
:103DE000EC018881813889F028F48038A1F40E94A0
:103DF000F51710C0823861F0833869F40E94EF171C
:103E000089830E94F2178A8306C00E94A41702C009
:103E10000E94DA178983DF91CF910895CF93DF93C2
:103E2000EC0188818138B1F058F4803851F5D9819E
:103E30000E94F217C82F0E94EF174D2F6C2F1DC044
:103E40008238B1F08338E9F40E94F517482F6A816F
:103E5000898113C089810E94691C8981811104C0F4
:103E6000DF91CF910C94C91BDF91CF910C949F1CD3
:103E70008981DF91CF910C94EC17DF91CF910C9455
:103E8000A419DF91CF910895EF92FF920F931F93A2
:103E9000CF93DF93EC01062F0196E8814E2F50E07F
:103EA000FA013197E331F10508F09AC0E85AFF4F63
:103EB0000C94EB2C198289E056C08981823039F04C
:103EC000833061F0813029F50E94E72402C00E940E
:103ED0008D1E9A838B837C836D8384C07E0110E06A
:103EE000812F0E94A412F701928383831F5FF2E067
:103EF000EF0EF11C1430A1F775C08981823049F4AE
:103F00006A817B818C819D810E94F12C0E94961E8A
:103F100069C0602FCE010E94EA1E64C04B816A8195
:103F200089810E9415209C838D835CC02C813D81FA
:103F30003227232732274B816A8189810E942E20D4
:103F400051C00E9443204EC00E940E1F4BC00E94D1
:103F5000EE1E48C00E948B1745C00E94CE2024C090
:103F60000E94D02099838A833DC06B8170E0898153
:103F70009A81AE014C5F5F4F9827892798270E944E
:103F8000D32030C06B8170E089819A81AE014C5F93
:103F90005F4F9827892798270E94F82023C00E9406
:103FA0001B2120C00E94FC1F89831CC06B8170E014
:103FB00089819A81AE014C5F5F4F982789279827A6
:103FC0000E947B200FC06B8170E089819A81AE01D5
:103FD0004C5F5F4F9827892798270E949F2002C037
:103FE0008FEF8883602FCE01DF91CF911F910F91CA
:103FF000FF90EF900C94D12584E00895E82F862F50
:1040000090E068E170E00E94692C242F30E0220FDC
:10401000331F280F391F8E2F90E060E670E00E945A
:10402000692C820F931F879608950F931F93CF9348
:10403000DF930E94FE1F8C010E941E2DC82FD0E02E
:10404000DC2FCC27C80101960E941E2D9E01282B33
:10405000C901DF91CF911F910F9108950F931F9385
:10406000CF93DF93122F032F0E94FE1FEC01602FCE
:104070000E94322D612FCE010196DF91CF911F91C9
:104080000F910C94322DDF92EF92FF920F931F93BA
:10409000CF93DF93C0E0D0E0CE0160E670E00E94F5
:1040A000692C7C01D12C00E010E0F801EE0FFF1F1D
:1040B000EE0DFF1DE651FF4F25913491402F6D2DE0
:1040C0008C2F0E942E200F5F1F4F0C30110569F7B7
:1040D00088E1E80EF11CD39484E0D812E4CF219655
:1040E000C430D105C9F6DF91CF911F910F91FF9098
:1040F000EF90DF900895EF92FF920F931F93CF936D
:10410000DF93EA017A01E60EF71E8C01C80187965B
:10411000CE15DF0569F0003821E0120720F40E9477
:104120001E2D888301C0188221960F5F1F4FEECF8E
:10413000DF91CF911F910F91FF90EF900895EF9233
:10414000FF920F931F93CF93DF93EA017A01E60E5C
:10415000F71E8C01C8018796CE15DF0559F000388F
:1041600021E0120718F468810E94322D21960F5F1A
:104170001F4FF0CFDF91CF911F910F91FF90EF90E4
:104180000895462F843038F4743028F46C3018F4D5
:10419000672F0C94152080E090E0089580E1089549
:1041A00089E592E00895EF92FF920F931F93CF93CA
:1041B000DF93EA017A01E60EF71E8C01C8018955EA
:1041C0009E4FCE15DF0569F0093522E0120720F475
:1041D0000E941E2D888301C0188221960F5F1F4FF9
:1041E000EDCFDF91CF911F910F91FF90EF90089548
:1041F000EF92FF920F931F93CF93DF93EA017A011F
:10420000E60EF71E8C01C80189559E4FCE15DF05BD
:1042100059F0093522E0120718F468810E94322D06
:1042200021960F5F1F4FEFCFDF91CF911F910F911D
:10423000FF90EF900895CF93DF93C7EAD1E060E05D
:10424000CE010E94322D2196C11584E0D807B9F71E
:10425000DF91CF910895DF92EF92FF920F931F931A
:10426000CF93DF9300D000D0CDB7DEB7F82E8FE02C
:104270008F15E8F18FEF93E00E941E2D811137C05A
:1042800007EA11E0FF2069F0011584E0180779F1D1
:10429000C8010E941E2D811101C0FA940F5F1F4FAB
:1042A000F1CF19821A821B821C82DD24D3947801FB
:1042B0008FEFE81AF80AC8010E941E2D89831A821E
:1042C0008823A9F09FEF980F933058F48A83D982FE
:1042D0000E5F1F4FC7010E941E2D8B83882339F06C
:1042E0007801CE0101960E9464058701E0CF0F900E
:1042F0000F900F900F90DF91CF911F910F91FF9032
:10430000EF90DF9008950F931F93CF93DF93C42F07
:10431000D22FFC0182818823C9F040935C020E9465
:10432000DB2490935B0280935A0280E28C0F8830EA
:1043300008F057C0C77081E001C0880FCA95EAF73E
:10434000DF91CF911F910F910C94720680915C02C6
:10435000481330C080915A0290915B020E94F3246E
:10436000883C910538F510E21D0FCD17B9F080E2B9
:104370008C0F883040F4C77081E001C0880FCA9567
:10438000EAF70E947906183028F581E09D2F977092
:1043900001C0880F9A95EAF70E947206802F0E944A
:1043A00069061830F0F4D77081E001C0880FDA9503
:1043B000EAF70AC080E28C0F883098F4C77081E079
:1043C00001C0880FCA95EAF7DF91CF911F910F9135
:1043D0000C947906802FDF91CF911F910F910C944F
:1043E0006906DF91CF911F910F9108950F939C0162
:1043F000CB01233F4CE5340731F188F4283DFCE53F
:104400003F07D9F0293D4CE5340779F1273D3C457C
:10441000A9F506E221EE41EE67ED7CE52BC0253FD4
:10442000FCE53F07E1F0A8F0263F3C4539F507E2FF
:1044300025EE46EE66EF7CE51DC007E225EE45EE73
:1044400068ED7CE517C006E221EE40EE63EF7CE507
:1044500011C007E225EE44EE64EF7CE50BC006E2F6
:1044600021EE42EE65EF7CE505C008E221E045EE75
:1044700069ED7CE50E94832180E008C0FC01828117
:10448000882319F010925C0201C081E00F91089519
:10449000CF93DF93EC01FB018281882309F426C1CD
:1044A000C330FDE5DF0760F4CA3F9CE5D90768F437
:1044B0009E0122503C452431310508F018C105C049
:1044C000C136EDE5DE0709F012C10E94D50E9093CA
:1044D000730280937202C031FCE5DF0709F4CAC0A1
:1044E00008F041C0C8309CE5D90709F4A4C0F0F435
:1044F000C430FCE5DF0709F48CC068F4C2309CE5E9
:10450000D90709F482C0C330DC4509F0E5C08091C9
:1045100072028260DFC0C630FCE5DF0709F483C0A9
:1045200008F085C0809172028860D4C0CC309CE5D0
:10453000D90709F490C068F4CA30FCE5DF0709F434
:104540007EC008F084C00E94D20880917202806808
:10455000C1C0CE309CE5D90709F481C008F086C0FF
:104560008091720294C0CC3FFCE5DF0709F47BC068
:1045700038F5C4319CE5D90709F49AC058F4C23122
:10458000FCE5DF0709F47AC008F07EC08091720272
:104590008F7BA0C0CA3F9CE5D907F1F108F03FC06E
:1045A000C531DC4509F098C08091720282FB222758
:1045B00020F991E0922790FB82F990FB83F98AC061
:1045C000C1158DE5D80709F467C050F480917302D6
:1045D000CE3FECE5DE07C1F108F05BC08D7F65C022
:1045E000C2308DE5D80709F471C008F46DC0C1363A
:1045F000DD4509F071C08091720284FB222720F909
:1046000091E0922790FB84F965C0809172028160ED
:1046100061C08091720216C08091730216C08091B1
:104620007302826042C080917202806153C08091A7
:10463000720280624FC08091720280644BC0809190
:1046400072028860846046C0826081602EC0809162
:1046500072028E7F3FC0809172028D7F3BC080913D
:104660007202877F37C08091730214C080917202FA
:104670008F7E30C0809172028F7D2CC00E94D20844
:10468000809172028F7726C080917202877F8B7F24
:1046900021C08D7F8E7F09C080917302982F9095E5
:1046A00091708E7F892B90FB81F98093730214C0E7
:1046B0000E94D2088091720287FB222720F991E0A4
:1046C000922790FB87F906C081E001C080E00E943C
:1046D0006B0F02C0809372028091720290917302FC
:1046E0000E94E60E0E94D20880E001C081E0DF91C6
:1046F000CF910895CF93DF9386319C4541F5EB012F
:104700000E94FD0D982F8A812091000130910101B6
:10471000882379F09A7A81E009F480E080935D0241
:10472000911102C069E201C065E3C9010E944324FE
:104730000AC080915D02811102C069E201C065E397
:10474000C9010E9445240E944F0E80E001C081E013
:10475000DF91CF9108959093630280936202089550
:10476000E0916202F0916302309721F00190F081B4
:10477000E02D099480E00895E0916202F0916302D7
:10478000309721F00280F381E02D09940895E091A3
:104790006202F0916302309739F022E0DC012C9341
:1047A0000480F581E02D09940895209160023091F4
:1047B00061022817390771F09093610280936002BB
:1047C000E0916202F0916302309721F00680F78158
:1047D000E02D0994089520915E0230915F02281720
:1047E000390771F090935F0280935E02E09162025C
:1047F000F0916302309721F00084F185E02D099457
:104800000895FC01329697E080E0915029F02191C3
:104810002223D9F38F5FF9CF0895662349F0FC0175
:10482000329608962191621729F0E817F907D1F717
:1048300080E0089581E008959C01FC0132969FEF8D
:1048400080E04191461789F09F3F19F4411101C062
:10485000982F8F5F8630A9F79F3F39F0F901E90F54
:10486000F11D97FDFA956283089508959C012A5FD2
:104870003F4FFC014281461301C01282019682170C
:104880009307B9F708950C941C240C9436240296CF
:1048900026E0FC0111922A95E9F7089508950895FC
:1048A0000C944F240C944F24CF930E9452240E94C6
:1048B00090130E945024C0E08C2F0E94A412892BD8
:1048C00029F4CF5FC430C1F780E001C081E0CF910F
:1048D00008950C944F240C9469248091AF02843085
:1048E00059F10E946B2480E00E946F050E94DB1B3F
:1048F0001092640220E488E190E00FB6F894A89545
:10490000809360000FBE2093600083B7817F846036
:1049100083BF83B7816083BF7894889583B78E7F88
:1049200083BF0FB6F894A89580916000886180934A
:104930006000109260000FBE08950C944F240E94F6
:10494000D2080E94B0230E946F050E94A71C0C94FD
:104950009D241F920F920FB60F9211248F939F9355
:10496000AF93BF9380916402811113C08091A7021D
:104970009091A802A091A902B091AA024196A11D0E
:10498000B11D8093A7029093A802A093A902B093AF
:10499000AA02BF91AF919F918F910F900FBE0F9080
:1049A0001F90189582E084BD93E095BD9AEF97BD66
:1049B00080936E0008952FB7F8948091A70290918C
:1049C000A802A091A902B091AA022FBF08952FB703
:1049D000F8946091A7027091A8028091A902909129
:1049E000AA022FBF08959C014FB7F8948091A702A7
:1049F0009091A802A091A902B091AA024FBF821B78
:104A0000930B089578941F920F920FB60F92112472
:104A10008F939F93AF93BF938091A7029091A80229
:104A2000A091A902B091AA020196A11DB11D809387
:104A3000A7029093A802A093A902B093AA02BF91E3
:104A4000AF919F918F910F900FBE0F901F9018956F
:104A500081E08093E00080E28093D8001092C9004A
:104A60008FE19EE40197F1F700C0000087E090EB32
:104A7000DC018093B8029093B902A093BA02B0937C
:104A8000BB029CE088E10FB6F894A8958093600083
:104A90000FBE90936000FFCF9093CF018093CE0123
:104AA00008958091700208959091AF02943029F595
:104AB0008093650270936702609366029093E900A9
:104AC0008FEF9091E800815095FD06C095ED9A9585
:104AD000F1F700008111F5CF8091E80085FF0DC04E
:104AE00040E050E063E070E085E692E00E94B82785
:104AF0008091E8008E778093E8000895BC0184E0FF
:104B00000C945425BC0183E00C94542524E020939C
:104B1000E9002FEF3091E800215035FD06C035ED5A
:104B20003A95F1F700002111F5CF2091E80025FF1B
:104B30000BC040E050E066E070E00E94B827809132
:104B4000E8008E778093E8000895CF93DF9321E00B
:104B50002093E9002FEF3091E800215035FD06C089
:104B600035ED3A95F1F700002111F5CF2091E800DD
:104B700025FF14C0EC0140E050E068E070E00E94C6
:104B8000B8278091E8008E778093E80088E0FE01E6
:104B9000A8E6B2E001900D928A95E1F7DF91CF91FE
:104BA0000895CF93603219F52091AF022430F9F4C3
:104BB000C091E900CF703091EC00232F217030FDBF
:104BC00020E8C22B22E02093E9002091E80020FF9A
:104BD0000BC040E050E060E270E00E94B827809196
:104BE000E8008E778093E800CF70C093E900CF9102
:104BF000089508950895089542E061EC81E00E94CF
:104C0000072942E261EC84E00E94072942E261EC5C
:104C100082E00E94072942E260EC83E00C940729BD
:104C20008091B102833009F45EC030F4813071F0BC
:104C3000823009F497C008958A3009F483C08B301C
:104C400009F469C0893009F0A5C020C08091B00284
:104C5000813A09F09FC08091E800877F8093E80047
:104C60008091B4029091B502892B21F468E088E626
:104C700092E003C060E080E090E070E00E944E2887
:104C80008091E8008B778093E80008958091B002CE
:104C9000813209F07FC08091B4029091B5020097F3
:104CA00019F0029709F076C08091E800877F809321
:104CB000E8008091E80082FD05C08091AF0281117B
:104CC000F8CF68C08091F200823029F48091F10021
:104CD0008B7F813021F48091F1008093700280916C
:104CE000E8008B7753C08091B002813A09F052C03E
:104CF0008091B4029091B502892B09F04BC080914C
:104D0000E800877F8093E8008091E80080FFFCCF77
:104D10008091270136C08091B0028132D9F580910F
:104D2000B4029091B502892BA9F58091E800877FA4
:104D30008093E8000E943C298091B2028093270171
:104D40000C94D2088091B002813221F58091E80064
:104D5000877F8093E8000E943C298091B302809372
:104D6000710208958091B002813AA1F48091E80027
:104D7000877F8093E8008091E80080FFFCCF8091DE
:104D800071028093F1008091E8008E778093E800B3
:104D90000C943C29089584B7877F84BF0FB6F8949C
:104DA000A8958091600088618093600010926000F7
:104DB0000FBE90E080E80FB6F89480936100909366
:104DC00061000FBE0C94940F0E948E290E94E1296D
:104DD000E2EEF0E080818460808378940E94452C2C
:104DE0000E94A00F8DE191E00C94AB23CF93DF9351
:104DF000CDB7DEB7A0970FB6F894DEBF0FBECDBF1C
:104E00008091AF028530A9F48091AF02853079F4AA
:104E10000E946D248091AD028823B1F30E94542436
:104E2000882391F30E94A2270E94D208EDCF0E940E
:104E30009F240E94AA0F8091AF02843011F583E075
:104E40008093E9008091E80082FF1BC08091E80018
:104E500085FF0AC040E050E060E270E0CE010196BC
:104E60000E94032891E001C090E08091E8008B77D8
:104E70008093E800992329F060E2CE0101960E9418
:104E8000441FA0960FB6F894DEBF0FBECDBFDF91D2
:104E9000CF9108950C944C27292F332723303105C7
:104EA000C9F060F42130310581F02230310509F07C
:104EB00041C08BE590E025E735E040C02132310567
:104EC000E1F02232310531F135C082E190E020ED90
:104ED00035E034C099278130910549F028F00297D8
:104EE00049F5E1E3F5E005C0E1E7F5E002C0E7E5FB
:104EF000F5E0849190E09F0121C063307105D0F40A
:104F0000660F771FFB01E853FE4F2081318189E056
:104F100090E014C06330710568F4FB01EE0FFF1FD1
:104F2000EE53FE4F20813181FB01E154FE4F808121
:104F300090E004C080E090E020E030E0FA013183AE
:104F40002083089584E089BD86E089BD09B400FE10
:104F5000FDCF8091D8008F7D8093D8008091E000B4
:104F600082608093E0008091E00081FDFCCF089595
:104F7000CF92DF92EF92FF920F931F93CF93DF9325
:104F8000EC018B017A010E945B29811133C0E1148D
:104F9000F10439F0F70180819181081B190BC80FCA
:104FA000D91FC12CD12C0115110519F18091E800F0
:104FB00085FD16C08091E8008E778093E800E114AB
:104FC000F10449F0F70180819181C80ED91ED18288
:104FD000C08285E00FC00E945B29882321F30AC0AC
:104FE00089918093F10001501109FFEFCF1ADF0A78
:104FF000DACF80E0DF91CF911F910F91FF90EF907A
:10500000DF90CF900895CF92DF92EF92FF920F93AF
:105010001F93CF93DF93EC018B017A010E945B29F0
:10502000811133C0E114F10439F0F70180819181DD
:10503000081B190BC80FD91FC12CD12C0115110544
:1050400019F18091E80085FD16C08091E8008B770A
:105050008093E800E114F10449F0F7018081918127
:10506000C80ED91ED182C08285E00FC00E945B2984
:10507000882321F30AC08091F1008993015011091E
:10508000FFEFCF1ADF0ADACF80E0DF91CF911F91D7
:105090000F91FF90EF90DF90CF9008952091B6028E
:1050A0003091B7022617370748F06115710539F4BA
:1050B0002091E8002E772093E80001C0B901FC019F
:1050C00020E06115710561F18091AF028823D9F16B
:1050D0008530D9F18091E80083FD39C08091E800E6
:1050E00082FD2BC08091E80080FFEBCF8091F20021
:1050F00090E06115710551F08830910538F42191E7
:105100002093F100615071090196F3CF21E00897D7
:1051100009F020E08091E8008E778093E800D1CFFD
:105120002111D2CF0AC08091AF02882361F085306F
:1051300061F08091E80083FD0AC08091E80082FF61
:10514000F2CF80E0089582E0089583E0089581E041
:1051500008952091B6023091B7022617370748F01C
:105160006115710539F42091E8002E772093E8004D
:1051700001C0B901FC0120E06115710579F1809150
:10518000AF02882309F43DC0853009F43CC080910A
:10519000E80083FD3AC08091E80082FD2CC0809138
:1051A000E80080FFE9CF8091F20090E06115710581
:1051B00059F08830910540F424912093F100319604
:1051C000615071090196F2CF21E0089709F020E0C3
:1051D0008091E8008E778093E800CECF2111CFCF69
:1051E0000AC08091AF02882361F0853061F0809120
:1051F000E80083FD0AC08091E80082FFF2CF80E0E2
:10520000089582E0089583E0089581E00895982F3D
:10521000953068F59093E900981739F07091EC009B
:105220002091ED005091F00003C0242F762F50E024
:1052300021FD02C09F5FECCF3091EB003E7F3093A9
:10524000EB003091ED003D7F3093ED003091EB00AD
:1052500031603093EB007093EC002093ED0050939D
:10526000F0002091EE0027FDE5CF80E008958F70DB
:105270008093E90081E008958091B00287FF11C01A
:105280008091E80082FD05C08091AF028111F8CFC6
:1052900011C08091E8008B770BC08091AF0288230A
:1052A00049F08091E80080FFF8CF8091E8008E7788
:1052B0008093E80008952091E4003091E50095E6A0
:1052C0004091EC00842F817040FF23C08091E80062
:1052D00080FD1DC08091AF02882399F0853099F040
:1052E0008091EB0085FD11C04091E4005091E500F4
:1052F0002417350729F3915011F09A01E1CF84E08A
:10530000089582E0089583E0089581E0089580E0A3
:1053100008954091E80042FFDDCF08950E94EB29F7
:105320000E94EE29E0EEF0E0808181608083E8ED6C
:10533000F0E080818F77808319BCE3E6F0E0808124
:10534000816080831092AE0208950E94EB290E9432
:10535000EE298091D8008F778093D8008091D80073
:1053600080688093D8008091D8008F7D8093D8008A
:1053700084E089BD86E089BD09B400FEFDCF1092AE
:10538000AF021092AB021092AD021092AC0242E05A
:1053900060E080E00E9407298091E1008E7F809389
:1053A000E1008091E20081608093E2008091E20060
:1053B00088608093E2008091E0008E7F8093E0001F
:1053C0000895E3E6F0E080818E7F808381E0809322
:1053D000AE020C94A5291092E20008951092E1000B
:1053E00008951F920F920FB60F9211242F933F939F
:1053F0004F935F936F937F938F939F93AF93BF93DD
:10540000EF93FF938091E10082FF0BC08091E20057
:1054100082FF07C08091E1008B7F8093E1000E94B2
:10542000442C8091E10080FF19C08091E20080FF50
:1054300015C08091E2008E7F8093E2008091E200AF
:1054400080618093E2008091D80080628093D800D0
:1054500019BC85E08093AF020E94FA258091E1009B
:1054600084FF30C08091E20084FF2CC084E089BDBD
:1054700086E089BD09B400FEFDCF8091D8008F7D04
:105480008093D8008091E1008F7E8093E10080912D
:10549000E2008F7E8093E2008091E2008160809341
:1054A000E2008091AB02882311F084E007C0809174
:1054B000E30087FD02C081E001C083E08093AF027A
:1054C0000E94FB258091E10083FF29C08091E200CA
:1054D00083FF25C08091E100877F8093E10082E017
:1054E0008093AF021092AB028091E1008E7F809397
:1054F000E1008091E2008E7F8093E2008091E200E3
:1055000080618093E20042E060E080E00E94072931
:105510008091F00088608093F0000E94F925FF914F
:10552000EF91BF91AF919F918F917F916F915F911B
:105530004F913F912F910F900FBE0F901F90189594
:105540001F920F920FB60F9211242F933F934F93F8
:105550005F936F937F938F939F93AF93BF93CF93FB
:10556000DF93EF93FF93C091E900CF708091EC003F
:10557000D82FD17080FDD0E81092E9008091F00022
:10558000877F8093F00078940E94E42A1092E900CB
:105590008091F00088608093F000CD2BCF70C09395
:1055A000E900FF91EF91DF91CF91BF91AF919F9172
:1055B0008F917F916F915F914F913F912F910F90BC
:1055C0000FBE0F901F9018951F93CF93DF93CDB709
:1055D000DEB7AA970FB6F894DEBF0FBECDBFE0EBE3
:1055E000F2E08091F100819322E0E83BF207C9F7F5
:1055F0000E9410268091E80083FF2EC18091B002A6
:105600009091B102492F50E04A30510508F024C171
:10561000FA01E559FF4F0C94EB2C803821F08238C9
:1056200009F01AC108C08091AC029091AD02992393
:1056300089F082600FC08091B4028F70853008F0CD
:105640000BC18093E9008091EB0085FB882780F9EE
:105650001092E9009091E800977F9093E800809382
:10566000F1001092F100D1C0282F2D7F09F0F4C075
:10567000882319F0823061F0EFC08091B20281304E
:1056800009F0EAC0933009F080E08093AD022EC0AB
:105690008091B20281112AC08091B4028F702FEFE5
:1056A000280F243008F0D8C08093E9002091EB0047
:1056B00020FF1CC0933021F48091EB00806214C065
:1056C0009091EB0090619093EB0021E030E0A90114
:1056D00002C0440F551F8A95E2F74093EA001092EA
:1056E000EA008091EB0088608093EB001092E90063
:1056F0008091E800877F8093E8000E943C29ACC03D
:105700008111AAC01091B2021F778091E3008078C6
:10571000812B8093E3008091E800877F8093E800ED
:105720000E943C298091E80080FFFCCF8091E3003B
:1057300080688093E300111102C082E001C083E021
:105740008093AF0289C08058823008F085C0809174
:10575000B2029091B3028C3D53E0950779F583E056
:105760008A838AE289834FB7F894DE01139620E09A
:105770003EE051E2E32FF0E050935700E49120FF28
:1057800003C0E295EF703F5FEF708E2F90E0EA303C
:1057900010F0C79601C0C0968D939D932F5F243162
:1057A00049F74FBF8091E800877F8093E8006AE265
:1057B00070E0CE0101960E944E2816C06091B4029E
:1057C0007091B502AE014F5F5F4F0E944A27BC0146
:1057D000892B09F441C09091E800977F9093E800ED
:1057E00089819A810E94A9288091E8008B77809313
:1057F000E80032C0803881F58091E800877F80938F
:10580000E8008091AB028093F1008091E8008E77F0
:1058100072CF811121C08091B2029091B302992779
:105820000297D4F48091E800877F8093E80080910C
:10583000B2028093AB020E943C298091AB0281119D
:1058400006C08091E30087FD02C081E001C084E0D2
:105850008093AF020E94FC258091E80083FF0AC07C
:105860008091E800877F8093E8008091EB00806260
:105870008093EB00AA960FB6F894DEBF0FBECDBFA3
:10588000DF91CF911F9108950895CF938091AF023A
:105890008823A1F0C091E900CF709091EC00892F8E
:1058A000817090FD80E8C82B1092E9008091E8009B
:1058B00083FD0E94E42ACF70C093E900CF91089540
:1058C000002480FD060E660F11F08695D1F7802D1D
:1058D00008950024552704C0080E591F880F991FEA
:1058E000009729F076956795B8F37105B9F7802D83
:1058F000952F0895EE27FF27AA27BB2708C0A20FE0
:10590000B31FE41FF51F220F331F441F551F969529
:1059100087957795679598F37040A9F7009799F761
:10592000BD01CF01089587FB082E062687FD8195CE
:1059300067FD61950E94F82C0EF4919507FC819506
:105940000895AA1BBB1B51E107C0AA1FBB1FA617C6
:10595000B70710F0A61BB70B881F991F5A95A9F718
:1059600080959095BC01CD01089597FB072E16F404
:10597000009407D077FD09D00E94A12C07FC05D028
:105980003EF4909581959F4F0895709561957F4F56
:105990000895A1E21A2EAA1BBB1BFD010DC0AA1F70
:1059A000BB1FEE1FFF1FA217B307E407F50720F088
:1059B000A21BB30BE40BF50B661F771F881F991F03
:1059C0001A9469F760957095809590959B01AC014C
:1059D000BD01CF010895EE0FFF1F0590F491E02D5A
:1059E00009946927962769277827872778270895B4
:1059F000991B79E004C0991F961708F0961B881F21
:105A00007A95C9F780950895FC014150504030F0D7
:105A100001900616D1F73197CF010895882799276D
:105A20000895FB01DC0104C08D910190801921F4DF
:105A300041505040C8F7881B990B0895F999FECF43
:105A400092BD81BDF89A992780B50895A6E1B0E08E
:105A500044E050E00C94582DA8E1B0E042E050E062
:105A60000C94582D262FF999FECF92BD81BDF89A3E
:105A7000019700B4021639F01FBA20BD0FB6F89492
:105A8000FA9AF99A0FBE08950396272F0E94332D94
:105A90000E94322D252F0E94332D242F0C94332D5C
:105AA0000196272F0E94332D0C94322DDC01CB015F
:105AB000FC01F999FECF06C0F2BDE1BDF89A31961E
:105AC00000B40D9241505040B8F70895F894FFCFBC
:105AD0001F022808641E140A321E010102000A0077
