:100000000C946D030C94B4030C94B4030C94B403DB
:100010000C94B4030C94B4030C94B4030C94B40384
:100020000C94B4030C94B4030C94A8140C94E4132F
:100030000C94F31C0C94B4030C94B4030C94B4030C
:100040000C94B4030C94B4030C94B4030C94B40354
:100050000C94B4030C947D160C94B4030C94B40368
:100060000C94B4030C94B4030C94B4030C94B40334
:100070000C94B4030C94B4030C94B4030C94B40324
:100080000C94B4030C94B4030C94B4030C94B40314
:100090000C94B4030C94B4030C94B4030C94B40304
:1000A0000C94B4030C94B4030C94B403ED08ED0861
:1000B000280928098209A009AA0AAA0AAB091F0A65
:1000C000300A300A960E990EC30ED00ED70EF70ED8
:1000D000FA0E3C0F5E0FFF0FFF0F690F6B0F6F0FD4
:1000E000940FB60FB90FBC0FDF0FF8111F12C61314
:1000F0001F12C6136B128E12C6138313931312258D
:100100001225252525251B252525252525251225CF
:10011000122520252525252520250000000000008A
:1001200000000000000000000000000000000000CF
:1001300000000000000000000000000000007E0F32
:1001400000D4FFFFFFC7000000780000000000009F
:1001500000002A2B28000000000000000000000022
:10016000000000000029000000002C1E3420212285
:1001700024342627252E362D3738271E1F202122EE
:10018000232425263333362E37381F040506070867
:10019000090A0B0C0D0E0F10111213141516171857
:1001A000191A1B1C1D2F3130232D35040506070895
:1001B000090A0B0C0D0E0F10111213141516171837
:1001C000191A1B1C1D2F3130354C00047F3F1F6452
:1001D0003214643214783C1E1E140A05050109020B
:1001E000A10185020901A1000509190129081500CD
:1001F0002501950875018102050109300931158134
:10020000257F95027508810609381581257F95019E
:1002100075088106050C0A38021581257F95017540
:10022000088106C0C005010980A101850319012AC2
:10023000B700150126B700950175108100C0050CA7
:100240000901A101850419012AA002150126A002B5
:10025000950175108100C00660FF0961A101096266
:10026000150026FF009520750881020963150026F8
:10027000FF00952075089102C005010906A101053E
:100280000719E029E71500250195087501810295F8
:1002900001750881010507190029FF150026FF00D7
:1002A0009506750881000508190129059505750150
:1002B0009102950175039101C009025B00030100E1
:1002C000A0FA090400000103010100092111010045
:1002D000012240000705810308000A090401000209
:1002E00003000000092111010001222200070582FC
:1002F0000320000107050303200001090402000197
:1003000003000000092111010001227B0007058480
:100310000320000A12010002000000084B52414D68
:1003200001000102000108034D0049004F000000D8
:100330001E037200650063006F006D0070006900AD
:100340006C00650020006B00650079007300000000
:10035000040309042223252628292A2C2D2F303294
:10036000333536383A3B3D3E4042434547494A4C97
:100370004E5051535557595A5C5E606264666869C5
:100380006B6D6F71737577797B7D7F8183858789CD
:100390008A8C8E90929496989A9C9E9FA1A3A5A7D2
:1003A000A8AAACAEAFB1B3B4B6B8B9BBBCBEBFC1FE
:1003B000C2C3C5C6C7C9CACBCCCDCED0D1D2D2D389
:1003C000D4D5D6D7D7D8D9D9DADADBDBDBDCDCDC9D
:1003D000DCDCDDDDDDDDDCDCDCDCDCDBDBDBDADA60
:1003E000D9D9D8D7D7D6D5D4D3D2D2D1D0CECDCCD7
:1003F000CBCAC9C7C6C5C3C2C1BFBEBCBBB9B8B6EC
:10040000B4B3B1AFAEACAAA8A7A5A3A19F9E9C9A76
:1004100098969492908E8C8A89878583817F7D7B44
:1004200079777573716F6D6B6968666462605E5C25
:100430005A5957555351504E4C4A494745434240EB
:100440003E3D3B3A3836353332302F2D2C2A292881
:1004500026252322290000003A003B003C003D00F5
:100460003E003F0035001E001F002000210022003A
:10047000230024002B0014001A00080015001700A8
:100480001C000000390004001600070009000A00E3
:100490000B000000E1001D001B0006001900050014
:1004A000110000000151E000E200000000002C00FB
:1004B00028000000005C00000100010001000100B4
:1004C00001000100C25CC35CC55CC75CC95C010083
:1004D000010001000100C45CC65CC85CCA5C01008C
:1004E0000100000001000100010001000100010005
:1004F00001000000010001000100010001000100F5
:1005000001000000010001000100000000000100E6
:1005100001000000010000000100010001000100D5
:1005200001000100010001000100010001000100C3
:1005300001000100010001000100010001000100B3
:1005400001000000010001000100010001000100A4
:100550000100000001000100010001000100010094
:100560000100000001000100010000000000010086
:100570000100000001000000010001000100010075
:100580000100010001000100010001000100010063
:100590000100010001000100010001000100010053
:1005A0000100000001000100010001000100010044
:1005B0000100000001000100010001000100010034
:1005C0000100000001000100010000000000010026
:1005D000010000000001010101010101010102020D
:1005E00002020202020202030303030303030304E1
:1005F00004040404040405050505050606060606AC
:10060000070707070708080808090909090A0A0A65
:100610000B0B0B0C0C0C0D0D0D0E0E0E0F0F0F1007
:100620001011111112121313141415151616171791
:10063000181819191A1A1B1B1C1D1D1E1E1F2020FD
:10064000212222232424252626272829292A2B2C47
:100650002D2D2E2F30313232333435363738393A6A
:100660003B3C3D3E3F404142434445464748494A62
:100670004C4D4E4F50515354555658595A5B5D5E30
:100680005F616264656668696B6C6D6F70727375CB
:1006900077787A7B7D7E8082838587888A8C8E8F2F
:1006A00091939596989A9C9EA0A2A3A5A7A9ABAD5D
:1006B000AFB1B3B5B7BABCBEC0C2C4C6C9CBCDCF4B
:1006C000D1D4D6D8DBDDDFE2E4E7E9EBEEF0F3F5F9
:1006D000F8FAFDFFFFAA7F55400011241FBECFEF9F
:1006E000DAE0DEBFCDBF04B603FE27C08091610211
:1006F00090916202A0916302B09164028730904BA6
:10070000A740B04BD1F41092610210926202109295
:1007100063021092640214BE84B7877F84BF0FB651
:10072000F894A89580916000886180936000109291
:1007300060000FBEE0E0F8E3099511E0A0E0B1E051
:10074000E2EEFDE402C005900D92AC38B107D9F796
:1007500022E0ACE8B1E001C01D92A136B207E1F79A
:100760000E94FF0A0C94EF260C9400001F93CF9375
:10077000DF93CDB7DEB767970FB6F894DEBF0FBE35
:10078000CDBF4B8B5C8B6D8B7E8B8F8B61111092F1
:10079000090286E09E01235F3F4FD901E82F1D9299
:1007A000EA95E9F795E0FE017396D90101900D9263
:1007B0009A95E1F79C894E895F897B897D879E8721
:1007C0006F87598B488BF901DE01179601900D92C6
:1007D0008A95E1F7CE0107960E94ED1A81113EC07D
:1007E00086E0FE013796DE01119601900D928A9502
:1007F000E1F7FF81E8856A857B856115710531F038
:10080000EF3F31F481E0FF3F19F403C081E001C004
:1008100080E080FD23C02091D50130E0C901019620
:10082000877099274091060250E08417950779F167
:10083000F983EA837D836C8396E0929FD001939F36
:10084000B00D1124AA52BE4FFE01319601900D92B7
:100850009A95E1F78093D5010E946A1A16E080917B
:1008600006029091D5018917F9F0189FC001112453
:100870008A529E4F0E94ED1A8823B1F080910602A1
:1008800090E001968770992780930602E8CF0E9436
:1008900029251092D50110920602EFECF1E086E0D6
:1008A000DF011D928A95E9F767960FB6F894DEBFCF
:1008B0000FBECDBFDF91CF911F9108953F924F9210
:1008C0005F926F927F928F929F92AF92BF92CF92E0
:1008D000DF92EF92FF920F931F93CF93DF93CDB7E9
:1008E000DEB729970FB6F894DEBF0FBECDBFFC016F
:1008F0008081918123813481232B31F09F3F31F41A
:1009000091E08F3F19F403C091E001C090E090FDA9
:100910005EC67F0185E0DE01119601900D928A95F9
:10092000E1F7F701228189819A81222349F00E940F
:100930005824182F682F89819A810E94B32403C0FC
:100940000E948724182F69817A81812F0E94691E55
:100950008C01F7018281882309F4F2C098012251A9
:100960003F452031310508F019C18FEF93E00E9417
:1009700005268111EFC0025137EA832E9924939402
:10098000002379F08114F4E09F0609F4E3C0C40168
:100990000E940526811101C001502FEF821A920A90
:1009A000EFCF1E821F8218861986442443942AE0C2
:1009B000322E84010F5F1F4FC4010E9405268E83D3
:1009C0001F82882309F4C6C09FEF980F933060F40C
:1009D0008F834E8232E0830E911CC8010E9405264F
:1009E0008887811102C0B6C048018E010A5F1F4F7F
:1009F000F80120812223E9F2213009F04CC08181E5
:100A0000813049F46801F2E0CF0ED11CF8018281F7
:100A10000E94E7250AC0823051F46801F2E0CF0E4F
:100A2000D11CF80182810E948825860186C083300E
:100A300049F46801F2E0CF0ED11CF80182810E94D6
:100A40004925F3CF843019F00F5F1F4F76C0F801AE
:100A500022810E5F1F4F80E090E030E0205331098B
:100A60002A30310568F4389EA001399E500D1124BA
:100A7000C901840F951F0F5F1F4FF8012081EDCF33
:100A8000009709F45AC0EFE9FFE03197F1F700C091
:100A900000000197F5CFE22FF0E0E65BFE4F5490A7
:100AA000822F86958695869590E0FC01E65CFE4F48
:100AB00064902770712C022E02C0759467940A947A
:100AC000E2F7F1E06F227724FC01E65DFE4FA4908F
:100AD000B12C022E02C0B594A7940A94E2F731E03B
:100AE000A322BB24FC01E65EFE4FC490D12C02C0C1
:100AF000D594C7942A95E2F781E0C822DD246114D9
:100B0000710419F081EE0E948825A114B10419F036
:100B100086EE0E948825852D0E94E725AB2819F0D6
:100B200086EE0E944925672819F081EE0E9449252A
:100B3000CD2819F08CE20E94E7250F5F1F4F58CF98
:100B400000313FE5130709F039C581E00E94E22436
:100B50000E94071180910702877009F438C5F701D8
:100B60008281882309F433C582E029960FB6F89470
:100B7000DEBF0FBECDBFDF91CF911F910F91FF90D0
:100B8000EF90DF90CF90BF90AF909F908F907F902D
:100B90006F905F904F903F900C944D1A0031FFE59D
:100BA0001F0711F481E005C001312FE5120721F480
:100BB00082E00E94EE24CCCF033FFCE51F0749F4FE
:100BC00006E221EE40EE63EF7CE5C7010E946E1D58
:100BD000C1CF043F2CE5120708F050C1083D3CE5A9
:100BE000130731F407E225EE45EE68ED7CE5EDCF25
:100BF000093D9CE5190731F408E221E045EE69ED75
:100C00007CE5E3CF073DECE51E0731F406E221EE7B
:100C100041EE67ED7CE5D9CF882309F464C11092D9
:100C20003A0203309DE5190758F40A3FECE51E0728
:100C300060F4C80182509C45449708F03EC105C04D
:100C40000136FDE51F0709F038C10E947A1990931B
:100C5000900180938F0100312CE5120709F4CAC07E
:100C600008F041C008308CE5180709F4A4C0F0F47E
:100C70000430ECE51E0709F48CC068F402302CE562
:100C8000120709F482C003301C4509F0E7C08091C7
:100C90008F018260E1C006308CE5180709F483C03B
:100CA00008F085C080918F018860D6C00C30ECE5DB
:100CB0001E0709F490C068F40A302CE5120709F405
:100CC0007EC008F084C00E94292580918F01806831
:100CD000C3C00E308CE5180709F481C008F086C047
:100CE00080918F0194C00C3FECE51E0709F47BC096
:100CF00038F504312CE5120709F49AC058F4023192
:100D00008CE5180709F47AC008F07EC080918F0145
:100D10008F7BA2C00A3FECE51E07F1F108F03FC04F
:100D200005311C4509F09AC080918F0182FB222772
:100D300020F991E0922790FB82F990FB83F98CC017
:100D400001153DE5130709F467C050F48091900147
:100D50000E3F9CE51907C1F108F05BC08D7F65C0AF
:100D60000230FDE51F0709F471C008F46DC00136BB
:100D70001D4509F073C080918F0184FB222720F963
:100D800091E0922790FB84F967C080918F01816088
:100D900063C080918F0116C08091900116C0809130
:100DA0009001826042C080918F01806155C0809126
:100DB0008F01806251C080918F0180644DC080910D
:100DC0008F018860846048C0826081602EC08091FD
:100DD0008F018E7F41C080918F018D7F3DC08091BA
:100DE0008F01877F39C08091900114C080918F015D
:100DF0008F7E32C080918F018F7D2EC00E94292569
:100E000080918F018F7728C080918F01877F8B7FA2
:100E100023C08D7F8E7F09C080919001982F90957F
:100E200091708E7F892B90FB81F98093900116C081
:100E30000E94292580918F0187FB222720F991E0CC
:100E4000922790FB87F908C061E001C060E08EE066
:100E500090E00E94192602C080938F0160918F015B
:100E60001091900184E090E00E941926612F82E2A7
:100E700090E00E9419260E9429256CCE053FFCE5D2
:100E80001F0731F406E221EE42EE65EF7CE59DCED0
:100E9000053F2CE5120730F407E225EE44EE64EF3F
:100EA0007CE593CE063F3CE5130709F0B5CE07E29B
:100EB00025EE46EE66EF7CE588CE80910A0206318B
:100EC0009CE5190741F58A7A91E009F490E0909346
:100ED0008E01882311F065E301C069E287EC91E09F
:100EE0000E941C1D15C006311C4509F02DC18091C2
:100EF0008E01882309F469C385E3E7ECF1E0928170
:100F0000891301C01282319691E0ED3CF907B9F7DF
:100F10000E94061A1FCE82720C3CECE51E0709F4F3
:100F2000C2C008F045C0063C2CE5120709F4A7C072
:100F3000D8F4033C9CE5190709F497C030F4023C4F
:100F4000FCE51F0709F46CC0CEC0043C2CE5120779
:100F500009F490C0053C3CE5130709F0C4C04DE915
:100F600052E266EA72E2A3C0093C9CE5190709F463
:100F700090C078F4073CFCE51F0709F485C0083CE5
:100F80002CE5120709F0AFC041E952E265E872E2D0
:100F90008EC00A3C3CE5130709F480C00B3C9CE57D
:100FA000190709F0A0C045EF50E266E071E27FC08A
:100FB000013DECE51E0709F486C0A0F40E3C2CE5CB
:100FC000120709F47AC008F475C00F3C8CE51807C5
:100FD00009F476C0003D9CE5190709F084C06EE075
:100FE00089E079C0043DECE51E0709F472C068F49D
:100FF000023D2CE5120709F469C0033D3CE51307E7
:1010000009F071C061E088E16BC0053D8CE518070F
:1010100009F464C00D359DE5190709F49BCD63C043
:101020008091330280FF1BC08E7F809333026091DA
:1010300033027091340280913502909136020E9401
:10104000E32010921702EFEFF0E722E0E150F040CA
:101050002040E1F700C000000E94EA1E7BCD8160C5
:101060008093330261E086953BC04AEE52E263EF23
:1010700072E21DC043EF52E26AEE72E218C046EA25
:1010800052E26DE972E213C045E852E261E972E2B0
:101090000EC04DE652E269E772E209C049E752E24A
:1010A0006DE672E204C046E051E265EF70E20E9434
:1010B000CE1E50CD61E081E013C065E082E00BC040
:1010C00068E086E008C064E18FE005C067E185E183
:1010D00002C062E289E10E94BC1E3CCD61E083E275
:1010E0000E94AF2237CD0A353DE5130741F150F498
:1010F00001159CE51907A9F00E3D1C4529F50E9434
:10110000961928CD0B35FDE51F07D9F00C351D4587
:10111000D9F48091900182FB882780F991E089279A
:1011200011C00E9429253FEF84E39CE031508040AC
:101130009040E1F700C000000E9459160BCD81E0FD
:1011400001C080E00E94331AF70182810081118181
:10115000882349F0C8010E945824D82E682FC8015E
:101160000E94B32404C0C8010E948724D82EB8016D
:101170008D2D0E94691E0E94E017B82E192F982EFF
:10118000F7010281A580A2949FE0A9228091070225
:10119000877099F0002389F0812F807F803421F0BF
:1011A00080E28B0D883048F082E00E944D1A8091D9
:1011B00007028770DD24D3948111D12CC12EC294F3
:1011C0008FE0C8228C2D90E08C30910508F0C2C1D0
:1011D000FC01EA5AFF4F0C949726812F807F1F70E5
:1011E000882311F01295107F0023B9F0112309F420
:1011F0009DC180E28B0D883010F0911006C0809167
:101200000A02182B10930A0205C080910902182BBC
:10121000109309020E94061A89C18B2D0E9449254C
:10122000112309F497C180E28B0D1095883010F0DE
:10123000911006C080910A02182310930A0205C07B
:10124000809109021823109309020E94061A82C194
:10125000812F807F1F70803211F01295107F8B2DAF
:10126000992021F0F1E09F1611F130C00023B1F078
:10127000AA2081F021E0A2120DC08091900182FD90
:1012800069C180910B02182B181709F463C11093E0
:101290000B0260C180910B02812B10C0AA2021F0AB
:1012A00031E0A31609F456C10E94001A27C000239A
:1012B00041F085E08A1508F44DC1812F0E943F2539
:1012C00049C194E09A1508F445C118C0002349F0BB
:1012D000AA2099F3F701858180FF28C18F7085834B
:1012E000ECCFAA2059F0893309F031C1FFEF27EE86
:1012F00033E0F15020403040E1F727C1812F0E94B8
:10130000342528C1812F86958695837019F0813008
:1013100061F020C1002321F08B2D912F937002C02A
:1013200080E090E00E944C1D1BC1002321F08B2D1A
:10133000912F937002C080E090E00E94361D10C192
:101340008B2D002319F00E94E02302C00E94272366
:101350000E94FD2205C1812F8370A9F50111FEC0F5
:101360004B2D429546954770440F440F8B2D8F703F
:1013700090E09C01042E01C0220F0A94EAF7B4FE0B
:1013800008C08FE090E001C0880F4A95EAF7809589
:1013900001C080E0169516951370123069F088F43C
:1013A00090910C02113019F0822B892302C0922BEC
:1013B000892B0E94F924D2C0822B90910C0289279C
:1013C000F8CF822BF6CF002319F0812F817001C056
:1013D0008695882309F4C2C04B2D429546954770E7
:1013E000440F440F8B2D8F7090E09C01042E01C0A0
:1013F000220F0A94EAF7B4FE08C08FE090E001C023
:10140000880F4A95EAF7809501C080E016951695F9
:101410001370123059F078F49091C601113019F020
:10142000822B892309C0922B892B06C0822B909195
:10143000C601892701C0822B0E94DE248FC01F7045
:10144000002339F0812F0E94EE248B2D0E943F252E
:1014500085C08B2D0E943425812F0E94E2247EC0FE
:101460008B2D92EF991659F1991538F0E0EF9E16F1
:1014700059F0F1EF9F16F1F055C023EF921631F1BC
:1014800034EF931681F14EC0002379F084E08A1581
:1014900008F460C01F7181E090E001C0880F1A95C8
:1014A000EAF79091C60189271BC095E09A1508F4C8
:1014B00051C0F0CF002329F0812F8F7126C0002367
:1014C000D9F3812F8F710E94E22444C0002339F0A8
:1014D0001F7181E001C0880F1A95EAF701C080E012
:1014E0000E94DE2437C0002399F01F71812F0E94D3
:1014F000EE248091900182FD07C0E8E01E9FC001AC
:101500001124836080930702812F0E94EE2422C061
:1015100081E00E944D1AF1E0FA15E0F482E00E94A9
:101520004D1A18C0002331F0AA2031F28B2D0E94F1
:10153000882510C0AA2029F2893349F42FEF37EE0D
:1015400083E0215030408040E1F700C000008B2D47
:101550000E94492588EF8C0D843010F40E94621D92
:10156000DD20A9F18091070280FD31C0F7011282D0
:101570008595859585950E94EE24C7010E945E049D
:101580008091070285958595859529960FB6F894E3
:10159000DEBF0FBECDBFDF91CF911F910F91FF90A6
:1015A000EF90DF90CF90BF90AF909F908F907F9003
:1015B0006F905F904F903F900C94E22401319FE533
:1015C000190709F0F9CA82E0C1CA89E296CC2996C6
:1015D0000FB6F894DEBF0FBECDBFDF91CF911F9144
:1015E0000F91FF90EF90DF90CF90BF90AF909F90C2
:1015F0008F907F906F905F904F903F900895CF9322
:10160000DF93CDB7DEB7AA970FB6F894DEBF0FBE53
:10161000CDBF84B7877F84BF0FB6F894A89580911B
:101620006000886180936000109260000FBE90E0BF
:1016300080E80FB6F89480936100909361000FBE2C
:1016400085B7806885BF85B7806885BF8EEB96E1DA
:1016500090938D0180938C010E9428140E9447145E
:101660008091E20084608093E20078948091BC01D4
:101670008823A1F01091E9001F709091EC00892F50
:10168000817090FD80E8182B1092E9008091E800AD
:1016900083FD0E9412111F701093E90082E084BD47
:1016A00093E095BD9AEF97BD80936E000E94A31EB4
:1016B000811102C00E94941E09E111E06FE1E62E43
:1016C00061E0F62EF80181918F018F3F11F00E94A9
:1016D0000317E016F106B1F70FE111E057E2E52E2E
:1016E00051E0F52EF80181918F018F3F11F00E949A
:1016F0000317E016F106B1F7E1E9F1E0A2EAB1E083
:1017000011921D9221E0E739F207D1F70E948B195F
:10171000811102C00E94961982E090E00E94052685
:1017200080939B010E947A199093900180938F017E
:101730000E941A173FEF46E781E031504040804059
:10174000E1F700C000000E941A178091A20180FFFB
:1017500008C06FEF7FEF80E090E00E9437260E9484
:10176000591683E090E00E9405260E94F92480919A
:101770009701811133C00E948B19811104C00E940E
:1017800096190E94172188E090E00E940D26609330
:1017900033027093340280933502909336026E7F49
:1017A00071F40E94172188E090E00E940D2660935A
:1017B00033027093340280933502909336020E9474
:1017C000D020109217028091330280FF04C060E0A5
:1017D00086950E94AF2281E08093970180E091E09E
:1017E00090933E0280933D0238E1C32ED12C40E419
:1017F000542EBB24B394AA24A3948E010F5F1F4FD1
:101800008091BC01853009F071C090E1E92E22E1A0
:10181000F22E8091BC01853009F053C08091BC014B
:10182000843009F43DC01092170280919901811112
:1018300016C0A092990180913302982F91709093D5
:1018400098018E7F809333029FEFE0E7F2E09150A2
:10185000E040F040E1F700C000000E94EA1E109254
:1018600041020FB6F894A895C09260000FBE509246
:10187000600083B7817F846083BF83B7816083BF4B
:101880007894889583B78E7F83BF0FB6F894A89518
:1018900080916000886180936000109260000FBEAC
:1018A0008091BB01882309F4B4CF0E941A17E2EAA1
:1018B000F1E081918111CDC321E0E83AF207C9F747
:1018C000A8CF0E9429250E94621D10929901809143
:1018D0009801882349F0809133028160809333021C
:1018E00060E086950E94AF220E94D41E0E941A17C3
:1018F000882359F08FB7F8944091A8015091A9011D
:101900006091AA017091AB018FBFACE9B1E0E2EA4E
:10191000F1E0E12CF12C3E2D21919D91922721F1B6
:1019200080E099249394492F4921D1F089A33AA3C7
:10193000292181E009F480E08BA30E94B216816026
:10194000782F9DA38CA349A15AA16BA18DA10E94C0
:10195000B603F701E456FE4F8081982690821BC0A3
:101960008F5F990C8830F9F63FEFE31AF30A46E0EF
:10197000E416F10481F68FEF8EA38FA318A60E94C0
:10198000B2168160782F9AA789A74EA15FA168A59A
:101990008AA50E94B60380911702882309F498C093
:1019A00080911602E0913302E695E81BE093120263
:1019B000823059F4F0E0E852FE4FE491EE2EF12C23
:1019C0008FED882E8CE1982E5EC0863059F4F0E0C1
:1019D000EB52FE4FE491EE2EF12CBFEC8B2EBCE1CE
:1019E0009B2E51C0893061F4E695F0E0EE52FE4F37
:1019F000E491EE2EF12CA5E98A2EA0E29A2E43C0A6
:101A00008F3061F4E695F0E0E153FE4FE491EE2E65
:101A1000F12CF1E38F2EF0E29F2E35C0853159F481
:101A2000F0E0E453FE4FE491EE2EF12CE3EE8E2E27
:101A3000EFE19E2E28C08831B1F0833249F4EAEC00
:101A4000F1E0E590F4907FE8872E7CE1972E1BC0B3
:101A5000843289F050EDE52E57E0F52E6EE8862EA3
:101A60006CE1962E10C038E2E32EF12C4AE5842E6C
:101A70004FE1942E08C094EFE92EFF24F39420E266
:101A8000822E2FE1922E80911302882361F0109212
:101A900013020E94B21690931102809310021092CA
:101AA0001502109214020E94B216E0911002F091F9
:101AB00011028E1B9F0B8F3F9F4750F4EE0EFF1EAF
:101AC000F0921102E092100280E192E0F401099597
:101AD00086E0E9E4F2E0D80101900D928A95E1F701
:101AE00080904B0290904C02E0904D02F0904E029C
:101AF00010924B0210924C0210924D0210924E0224
:101B0000811003C0992009F44FC080914702909141
:101B100048020E94A3169C0190914302992309F464
:101B2000B7C22333310508F43FC09F3F19F09F5FD0
:101B300090934302882061F00E94C023181414F48B
:101B400091E001C09FEF899F802D112480934B026B
:101B5000992061F00E94C023191414F491E001C08F
:101B60009FEF899F802D112480934C0230914B026E
:101B70003323D1F020914C022223B1F045EB340302
:101B8000C0011124992319F090934B0202C0B09226
:101B90004B0235EB2303C0011124992319F09093D4
:101BA0004C0202C0B0924C02E11003C0FF2009F4C5
:101BB0004FC080914502909146020E94A3169C015D
:101BC00090914202992309F468C22536310508F440
:101BD0003FC09F3F19F09F5F90934202EE2061F05B
:101BE0000E949E231E1414F491E001C09FEF899F70
:101BF000802D112480934D02FF2061F00E949E23CE
:101C00001F1414F491E001C09FEF899F802D1124CF
:101C100080934E0230914D023323D1F020914E0239
:101C20002223B1F045EB3403C0011124992319F0AC
:101C300090934D0202C0B0924D0235EB2303C001D8
:101C40001124992319F090934E0202C0B0924E02D3
:101C500080914B0281110BC080914C02811107C011
:101C600080914D02811103C080914E0281110E942A
:101C7000FD228B829C82ED82FE8286E0F801A9E43F
:101C8000B2E001900D928A95E1F70E94621D909159
:101C90009A01891721F00E94621D80939A01809118
:101CA000BC01843009F0ACCD83E08093E9008091E1
:101CB000E80082FFA5CD8091E80085FF21C00E9449
:101CC0007D1581111BC080E2E82EF12C480109C06E
:101CD0008091F100F40181934F01F1E0EF1AF108D6
:101CE00069F08091E80085FDF3CF8091E8008B7763
:101CF0008093E8000E947D15882399F391E001C04C
:101D000090E08091E8008B778093E800992309F4B4
:101D100077CDE9818E2F90E0FC013197E331F10519
:101D200008F06DC1EE59FF4F0C9497261A8289E096
:101D3000C3C08A81823009F4A2C1833089F0813026
:101D400009F05DC12FB7F8948091A8019091A90185
:101D5000A091AA01B091AB012FBFBB83AC8325C07A
:101D60008091A2018B838091A3018C838091A40137
:101D70008D838091A5018E838091A6018F838091B0
:101D8000A70188873EC18A81823009F038C16B8102
:101D90007C818D819E810E949D2686E290E024C0F8
:101DA0004C816B818A810E94431E9D836FC18D800F
:101DB0009E809824892498248C81EB809A8120E14C
:101DC000E29E7001112430E6939FE00CF11C112477
:101DD000E80EF11CE80EF11C692DC70187960E94E0
:101DE0001926682DC70188960E9419260AC10E94EB
:101DF000F11D07C18A818138B1F050F4803809F0B3
:101E000000C120E04B81609135028091340231C0E5
:101E1000823859F1833809F0F4C020E0409136024D
:101E20006C818B8126C060E08B810E94AF229B81F8
:101E300080913302911111C08E7F809333021092F2
:101E400017024FEF80E792E0415080409040E1F769
:101E500000C000000E94EA1ED4C08160809333025B
:101E600060E086950E94AF22CCC08B8180933702C0
:101E7000C8C00E94D621C5C08A81813899F030F44B
:101E8000803809F0BEC08091360216C0823891F0C9
:101E9000833809F0B6C0809134028B83809135027B
:101EA0008C83AFC08091330280FF02C0869504C04E
:101EB00080E002C0809137028B83A3C0609133021F
:101EC0007091340280913502909136020E94E32095
:101ED00098C080E14FC082E08A8389E5EDCFEA8037
:101EE000FB80FE24EF24FE248C80912C3801C70156
:101EF00089559E4F9301201B310B2815390508F099
:101F000080C0E9E5EE16E2E0FE0628F40E94052610
:101F1000F301848302C0F3011482FFEFEF1AFF0A7A
:101F20002FEF621A720AE3CFEA80FB80FE24EF24CF
:101F3000FE248C80912C3801C70189559E4F930156
:101F4000201B310B2815390508F05BC039E5E31675
:101F500032E0F30620F4F30164810E941926FFEFBA
:101F6000EF1AFF0A2FEF621A720AE6CF0E94E11DF4
:101F700048C084E08A8345C0EA80FB80FE24EF24C9
:101F8000FE248C80912C3801C70187969301201B79
:101F9000310B28153905A8F530E8E31631E0F306D2
:101FA00028F40E940526F301848302C0F301148201
:101FB000FFEFEF1AFF0A2FEF621A720AE5CFEA80ED
:101FC000FB80FE24EF24FE248C80912C3801C70175
:101FD00087969301201B310B2815390590F430E8C2
:101FE000E31631E0F30620F4F30164810E94192620
:101FF000FFEFEF1AFF0A2FEF621A720AE8CF8FEF96
:1020000089838091BC01843009F0FACB8091E9008A
:102010008F702091EC00922F917020FD90E8F92EA6
:10202000F82A82E08093E9008091E80080FF0CC0EC
:1020300040E050E060E270E0C8010E94B01580917D
:10204000E8008E778093E8008F2D8F708093E900F1
:10205000D7CBE9BCF9BC09B400FEFDCF8091D80014
:102060008F7D8093D8008091E00082608093E000B3
:102070008091E00081FDFCCF0E942925CACB86E239
:1020800090E00E9405261B821C821D828E83B9CFA0
:102090002D32314008F04BCD87CD2D32314008F044
:1020A0009ACDD6CD8091BE0187FF11C08091E80006
:1020B00082FD05C08091BC018111F8CF11C08091D3
:1020C000E8008B770BC08091BC01882349F0809198
:1020D000E80080FFF8CF8091E8008E778093E800D9
:1020E0000895982F973068F59093E900981739F084
:1020F0007091EC002091ED005091F00003C0242F6E
:10210000762F50E021FD02C09F5FECCF3091EB00B5
:102110003E7F3093EB003091ED003D7F3093ED003A
:102120003091EB0031603093EB007093EC00209322
:10213000ED005093F0002091EE0027FDE5CF80E008
:1021400008958F708093E90081E008952091C40183
:102150003091C5012617370748F06115710539F42C
:102160002091E8002E772093E80001C0B901FC011E
:1021700020E06115710579F18091BC018823F1F1AE
:102180008530F1F18091E80083FD3CC08091E8004A
:1021900082FD2EC08091E80080FFEBCF2091F300FC
:1021A0008091F20090E0922B6115710551F088301A
:1021B000910538F421912093F10061507109019645
:1021C000F3CF21E0089709F020E08091E8008E77B6
:1021D0008093E800CECF2111CFCF0AC08091BC01FF
:1021E000882361F0853061F08091E80083FD0AC0AA
:1021F0008091E80082FFF2CF80E0089582E00895A8
:1022000083E0089581E008958091B101089580915F
:10221000C601982F9670963011F4886001C0877FB0
:102220000C94DE241F93CF93DF93CDB7DEB7AA972C
:102230000FB6F894DEBF0FBECDBFEEEBF1E080919C
:10224000F100819341E0E63CF407C9F78091BF01BA
:10225000833009F462C030F4813071F0823009F4C7
:102260009CC0B3C08A3009F488C08B3009F46DC0BB
:10227000893009F0AAC020C08091BE01813A09F0DE
:10228000A4C08091E800877F8093E8008091C2011C
:102290009091C301892B21F468E082EB91E003C0A7
:1022A00060E080E090E070E00E94A6108091E8007D
:1022B0008B778093E80089C08091BE01813209F05C
:1022C00084C08091C2019091C301009719F00297D8
:1022D00009F07BC08091E800877F8093E8008091BF
:1022E000E80082FD05C08091BC018111F8CF6DC06E
:1022F0002091F3008091F20090E0922B029729F454
:102300008091F1008B7F813021F48091F1008093E6
:10231000B1018091E8008B7754C08091BE01813A71
:1023200009F053C08091C2019091C301892B09F03B
:102330004CC08091E800877F8093E8008091E8009E
:1023400080FFFCCF80910A0137C08091BE018132AD
:10235000E1F58091C2019091C301892BB1F5809183
:10236000E800877F8093E8000E9452108091C001AE
:1023700080930A010E94292528C08091BE018132E4
:1023800021F58091E800877F8093E8000E94521039
:102390008091C1018093B00118C08091BE01813A43
:1023A000A1F48091E800877F8093E8008091E800A5
:1023B00080FFFCCF8091B0018093F1008091E80014
:1023C0008E778093E8000E9452108091E80083FF8E
:1023D000DDC18091BE019091BF01492F50E04A308C
:1023E000510508F0D3C1FA01EB58FF4F0C94972622
:1023F000803821F0823809F0C9C108C08091BA0143
:102400009091BB01992389F082600FC08091C20135
:102410008F70873008F0BAC18093E9008091EB009B
:1024200085FB882780F91092E9009091E800977F5A
:102430009093E8008093F1001092F10070C1282F72
:102440002D7F09F0A3C1882319F0823061F09EC16D
:102450008091C001813009F099C1933009F080E08A
:102460008093BB012EC08091C00181112AC0809150
:10247000C2018F702FEF280F263008F087C180939C
:10248000E9002091EB0020FF1CC0933021F48091E3
:10249000EB00806214C09091EB0090619093EB0090
:1024A00021E030E0A90102C0440F551F8A95E2F7F0
:1024B0004093EA001092EA008091EB0088608093DC
:1024C000EB001092E9008091E800877F8093E8009C
:1024D0000E9452105BC1811159C11091C0011F7738
:1024E0008091E3008078812B8093E3008091E80065
:1024F000877F8093E8000E9452108091E80080FF5F
:10250000FCCF8091E30080688093E300111102C04A
:1025100082E001C083E08093BC0138C180588230E2
:1025200008F034C12091C0013091C1012C3D53E02D
:10253000350779F583E08A838AE289834FB7F89477
:10254000DE01139620E03EE051E2E32FF0E05093ED
:102550005700E49120FF03C0E295EF703F5FEF70FA
:102560008E2F90E0EA3010F0C79601C0C0968D9390
:102570009D932F5F243149F74FBF8091E800877FFB
:102580008093E8006AE270E0CE0101960E94A610F6
:10259000B4C08091C2019091C301432F55274330AD
:1025A0005105A9F068F44130510509F4FEC04230EC
:1025B000510509F0EBC08BE590E0E9EBF2E04BC090
:1025C0004132510529F14232510589F1DFC0C9017B
:1025D000992781309105A1F058F0029709F0D6C0F3
:1025E000E6E2F3E0E4918E2F90E0E6E2F3E030C023
:1025F000E0E5F3E0E4918E2F90E0E0E5F3E028C021
:10260000E0E3F3E0E4918E2F90E0E0E3F3E020C01C
:102610008330910508F0BAC0880F991FFC01E05D76
:10262000FE4F0190F081E02D89E090E014C08330EE
:10263000910508F0ABC0FC01EE0FFF1FE65DFE4FF9
:102640000190F081E02DDC01A95DBE4F8C9190E0FE
:10265000009709F49BC02091E800277F2093E800B1
:102660002091C4013091C5012817390708F4C90128
:1026700040E0009789F12091BC01222309F43DC07C
:102680002530D9F12091E80023FD37C02091E800E2
:1026900022FD2FC02091E80020FFEBCF4091F300F6
:1026A0002091F20030E0342B009759F028303105AA
:1026B00040F444914093F100319601972F5F3F4FD2
:1026C000F3CF41E02830310509F040E02091E800E7
:1026D0002E772093E800CDCF4111CDCF0AC0809155
:1026E000BC01882351F0853041F08091E80083FDE2
:1026F00004C08091E80082FFF2CF8091E8008B77E0
:102700008093E80043C0803809F040C08091E80021
:10271000877F8093E8008091BD018093F1008091D4
:10272000E8008E77D3CE811131C08091C0019091A5
:10273000C1019927029754F58091E800877F809323
:10274000E8001091C0011093BD010E9452101111B8
:1027500006C08091E30087FD02C081E001C084E0F3
:102760008093BC0142E061EC81E00E94711042E282
:1027700061EC84E00E94711042E261EC82E00E9410
:10278000711042E260EC83E00E9471108091E800D9
:1027900083FF10C08091E800877F8093E8008091DC
:1027A000EB0080628093EB0005C082E190E0E4E101
:1027B000F3E051CFAA960FB6F894DEBF0FBECDBF9F
:1027C000DF91CF911F9108951F920F920FB60F9234
:1027D00011242F933F934F935F936F937F938F9326
:1027E0009F93AF93BF93CF93DF93EF93FF93C091EA
:1027F000E900CF708091EC00D82FD17080FDD0E837
:102800001092E9008091F000877F8093F000789427
:102810000E9412111092E9008091F000886080936C
:10282000F000CD2BCF70C093E900FF91EF91DF91C5
:10283000CF91BF91AF919F918F917F916F915F9158
:102840004F913F912F910F900FBE0F901F901895B1
:10285000E8EDF0E080818E7F80831092E20010929C
:10286000DA001092E100A0EEB0E08C9181608C93D0
:1028700080818F77808319BCA7EDB0E08C918E7F2B
:102880008C9380818F7E80831092AF010895CF92C8
:10289000DF92EF92FF920F931F93CF93DF93C8EDD8
:1028A000D0E088818F7E8883E7EDF0E080818160D1
:1028B000808384E082BF81E08093AF0188818E7F36
:1028C000888302EE10E0F80110821092DA0081EEA7
:1028D000C82ED12CF601108288818F778883888159
:1028E0008068888388818F7D888319BC1092BC01A1
:1028F0001092BD011092BB011092BA0190EEE92E28
:10290000F12CF70180818B7F8083888181608883AF
:1029100042E060E080E00E947110F60180818E7FCD
:102920008083F801808181608083808188608083DA
:10293000F70180818E7F8083888180618883DF9129
:10294000CF911F910F91FF90EF90DF90CF9008955E
:102950001F920F920FB60F9211242F933F934F9314
:102960005F936F937F938F939F93AF93BF93EF93F7
:10297000FF938091E10082FF09C08091E20082FF15
:1029800005C08091E1008B7F8093E1008091DA00A7
:1029900080FF2AC08091D80080FF26C08091DA0095
:1029A0008E7F8093DA008091D90080FF18C080E18B
:1029B00089BD82E189BD09B400FEFDCF81E080932D
:1029C000BC018091AF0181110FC00E9428140E94A8
:1029D00047148091E20084608093E20005C019BC36
:1029E0001092BC011092AF018091E10080FF17C0EE
:1029F0008091E20080FF13C08091E2008E7F80937F
:102A0000E2008091E20080618093E2008091D80032
:102A100080628093D80019BC85E08093BC018091CE
:102A2000E10084FF2EC08091E20084FF2AC080E193
:102A300089BD82E189BD09B400FEFDCF8091D80037
:102A40008F7D8093D8008091E1008F7E8093E1009C
:102A50008091E2008F7E8093E2008091E2008160AD
:102A60008093E2008091BD01882311F084E007C0CB
:102A70008091E30087FD02C081E001C083E0809384
:102A8000BC018091E10083FF27C08091E20083FFB9
:102A900023C08091E100877F8093E10082E08093F2
:102AA000BC011092BD018091E1008E7F8093E10016
:102AB0008091E2008E7F8093E2008091E20080614D
:102AC0008093E20042E060E080E00E94711080911B
:102AD000F00088608093F000FF91EF91BF91AF917B
:102AE0009F918F917F916F915F914F913F912F9126
:102AF0000F900FBE0F901F9018952091E400309119
:102B0000E50095E64091EC00842F817040FF23C0E2
:102B10008091E80080FD1DC08091BC01882399F060
:102B2000853099F08091EB0085FD11C04091E40063
:102B30005091E5002417350729F3915011F09A01BF
:102B4000E1CF84E0089582E0089583E0089581E074
:102B5000089580E008954091E80042FFDDCF089598
:102B6000EF92FF920F931F93CF93DF937C018B0122
:102B70000E947D15811119C0E70101151105A1F011
:102B80008091E80085FD0AC08091E8008E778093EF
:102B9000E8000E947D15882381F307C08991809306
:102BA000F10001501109E9CF80E0DF91CF911F9131
:102BB0000F91FF90EF9008959091BC01943029F50A
:102BC0008093AC017093AE016093AD019093E900E6
:102BD0008FEF9091E800815095FD06C095ED9A9594
:102BE000F1F700008111F5CF8091E80085FF0DC05D
:102BF00040E050E063E070E08CEA91E00E94B015A4
:102C00008091E8008E778093E8000895BC0184E00D
:102C10000C94DC15BC0183E00C94DC1524E02093BB
:102C2000E9002FEF3091E800215035FD06C035ED69
:102C30003A95F1F700002111F5CF2091E80025FF2A
:102C40000BC040E050E066E070E00E94B01580915B
:102C5000E8008E778093E8000895CF93DF9321E01A
:102C60002093E9002FEF3091E800215035FD06C098
:102C700035ED3A95F1F700002111F5CF2091E800EC
:102C800025FF14C0EC0140E050E068E070E00E94D5
:102C9000B0158091E8008E778093E80088E0FE010F
:102CA000A2EBB1E001900D928A95E1F7DF91CF910F
:102CB000089581E08093E00080E28093D800109234
:102CC000C9008FE19EE40197F1F700C0000087E0A2
:102CD00090EBDC018093610290936202A093630207
:102CE000B09364029CE088E10FB6F894A8958093B5
:102CF00060000FBE90936000FFCF78941F920F92F8
:102D00000FB60F9211248F939F93AF93BF9380912F
:102D1000A8019091A901A091AA01B091AB010196DF
:102D2000A11DB11D8093A8019093A901A093AA01B0
:102D3000B093AB01BF91AF919F918F910F900FBE58
:102D40000F901F9018959C014FB7F8948091A8019F
:102D50009091A901A091AA01B091AB014FBF821B34
:102D6000930B08952FB7F8948091A8019091A90131
:102D7000A091AA01B091AB012FBF089580E0089502
:102D800090918F0192FF0DC0282F2871283019F4DF
:102D9000877F846006C0282F2471243011F48B7F34
:102DA000886093FF0DC0282F2871283119F4877E81
:102DB000846106C0282F2471243111F48B7E886130
:102DC0002091900120FF0DC0382F3871383019F450
:102DD000877F816006C0382F3171313011F48E7FCA
:102DE000886021FF0DC0282F2871283119F4877EB3
:102DF000816106C0282F2171213111F48E7E8861F6
:102E000094FD877E0895F894E82FE295EF70F0E046
:102E100031A1282F2F7081E090E001C0880F2A9502
:102E2000EAF7982F9095932391A392A1892B82A3DF
:102E3000789408957F928F929F92AF92BF92CF9293
:102E4000DF92EF92FF920F931F93CF93DF9300D007
:102E500000D000D0CDB7DEB7AE014F5F5F4F7A0133
:102E600086E0DA011D928A95E9F709E111E06A012D
:102E70008FE1882E81E0982EAA24A394B12CF8012A
:102E800080818F3F09F448C0F894E82FE295EF70F5
:102E9000F0E021A18F70A50102C0440F551F8A9553
:102EA000E2F7CA01922F982B91A392A180958923D2
:102EB00082A3789400C0EFE1F1E020E030E0712CD3
:102EC00081918F3FB9F0A82FA295AF70B0E0909696
:102ED0004C9150E08F70DA0102C0B595A7958A95A4
:102EE000E2F7A0FD07C08A2D022E01C0880F0A94C8
:102EF000EAF701C080E0782A2F5F3F4F2830310584
:102F0000F9F6F80180818F3F11F00E940317F0EA73
:102F1000FA95F1F7D6017C920F5F1F4FBFEFCB1AE6
:102F2000DB0A8016910609F0AACF46E050E0B7010F
:102F300081E991E00E94E22611E0009709F410E097
:102F4000892B89F086E0F701A1E9B1E001900D92AB
:102F50008A95E1F781E080930F020E94B216909368
:102F60000E0280930D0280910F028823A1F08091C0
:102F70000D0290910E020E94A316059760F0E1E900
:102F8000F1E0A2EAB1E081918D9341E0E739F407E5
:102F9000D1F710920F02812F26960FB6F894DEBF5C
:102FA0000FBECDBFDF91CF911F910F91FF90EF909A
:102FB000DF90CF90BF90AF909F908F907F900895BB
:102FC000CF93DF938238910569F1B0F48133910595
:102FD00009F46FC048F48932910509F465C08A325A
:102FE000910509F46BC08AC08533910509F457C077
:102FF00089339105B9F082C0833E910571F138F4AF
:10300000803E9105B1F0823E910511F177C0863E78
:103010009105B9F1873E9105C9F1843E910509F00A
:103020006DC024C020918F0120FD53C021FD51C0EF
:1030300065C080918F0180FD46C08091900180FF26
:1030400048C080918F0184FD50C183EE90E04FC154
:1030500080918F0182FF3AC0F4CF80918F0182FD71
:1030600035C08091900180FD34C0EBCF80919001FC
:1030700081FF35C080918F0184FD37C187EE90E0DC
:1030800036C180918F0183FF27C0F4CF80918F01DB
:1030900083FD22C08091900181FD21C0EBCF809102
:1030A0008F0185FD1FC021C080918F0185FD1DC04E
:1030B00019C080918F0186FD1BC01DC080918F01BA
:1030C00086FD19C015C089E390E011C182EE90E041
:1030D0000EC180EE90E00BC186EE90E008C184EE58
:1030E00090E005C189E290E002C185E390E0FFC075
:1030F0008AE290E0FCC081E390E0F9C0811531E5FF
:10310000930708F069C0811540E59407F0F09C0131
:1031100074E0369527957A95E1F7922F9370482FB2
:10312000437021E030E002C0220F331F4A95E2F7DE
:103130003C68392B982F9F709695969540E2949F06
:10314000C0011124822B932BD2C0883E910568F5D3
:10315000803E910508F0CBC0883A9105B8F4853AD5
:10316000910548F0855AE82FF0E0EA5CFE4F808137
:1031700090E09064BCC08130910509F4B3C008F4BC
:10318000B4C08430910508F4B0C0B1C08F3B910544
:1031900008F0ABC0885AE82FF0E0EE0FFF1FE75CA5
:1031A000FE4F808191819464A2C0811520E2920734
:1031B00058F4811531E0930708F099C0803F9105DC
:1031C00008F493C0906593C0811540E4940708F417
:1031D0008CC09F70906A8BC0811525E5920708F01E
:1031E00042C0811534E5930728F0982F8827846F13
:1031F000906A7DC0811543E59407B0F09C0123706F
:10320000332741E050E002C0440F551F2A95E2F7F2
:10321000282F2695269580E2289F90011124CA0127
:10322000822B932B9A6863C0811522E5920728F4BC
:10323000982F8827816F906A5AC09C01237033278A
:1032400041E050E002C0440F551F2A95E2F7282FB5
:103250002695269580E2289F90011124CA01822B91
:10326000932B9C6844C0EC01811539E59307A8F4C1
:103270008115984528F09C2F8827806F906A37C069
:10328000C11586E5D80788F58C2F0E94C0168F716E
:1032900090E0982F882790622AC081152AE592072E
:1032A00090F48C2F8F700E94C01694E0D695C7952D
:1032B0009A95E1F7CF70D0E0DC2FCC27D0699E0142
:1032C000282BC90114C090568115904270F48D2F9F
:1032D0008F710E94C016282F2F71CE0199279062FE
:1032E000922B05C081E090E002C080E090E0DF9189
:1032F000CF910895CF9384E090E00E940526C82FD7
:1033000082E290E00E9405262C2F30E0A901582B84
:10331000CA01CF91089580E090E00E941326893E73
:103320009E4F11F40C94A31E80E0089569EE7EEF89
:1033300080E090E00E94372660E082E090E00E940A
:10334000192660E083E090E00E94192610920C029A
:1033500060E084E090E00E94192660E082E290E064
:103360000E94192660E085E090E00E94192660E046
:1033700086E090E00E9419266FEF87E090E00E94BF
:10338000192640E050E0BA0188E090E00E942B2628
:1033900060E08DE090E00E94192640E050E0BA0124
:1033A00088E190E00E942B2660E087E190E00E9497
:1033B000192640E050E0BA018CE190E00E942B26F3
:1033C00060E070E080E290E00E94372640E050E04C
:1033D000BA0188E190E00E942B2680E00E94761ED0
:1033E0000E94941E40E050E0BA018FE090E00E94FD
:1033F0002B2640E050E0BA0183E190E00C942B26AC
:1034000080910B02811110920B02089590910A0293
:1034100080910902892B20910802982F922B90937A
:10342000C70180910B02882389F0892B8093C70103
:10343000E9ECF1E097E080E0915029F0219122231E
:10344000D9F38F5FF9CF81110E94001AE0913D02FC
:10345000F0913E02309731F00280F381E02D87EC4D
:1034600091E009940895CF93C0919001C2FB9927F0
:1034700090F9981781F080FBC2F9C0939001609198
:103480008F0184E090E00E9419266C2F82E290E088
:10349000CF910C941926CF91089520910702809521
:1034A000822380930702982F977041F430E0482FD1
:1034B000082E000C550B2417350721F4909190012C
:1034C00092FF07C08595859585950E94E22410920C
:1034D00007020895809106029091D501891719F08D
:1034E0008F5F8770FBCF08950F931F93CF93DF9368
:1034F0008091D40182958F7009F05DC08091D101D7
:10350000882309F458C0809106021091D50160917A
:10351000CF017091D001C091D201D091D30191E03F
:103520006F3F09F090E0292F06E0811709F443C0AE
:10353000209721F07F3F21F030E003C031E001C04F
:10354000322F90E030FD34C0089FF001099FF00D4C
:103550001124DF01AA52BE4F11963C9111973713E7
:1035600027C03C91361324C012963C91129731111A
:103570001FC013964D915C9114974C1B5D0B483CFA
:103580005105B0F48091D4018F7080618093D40193
:10359000E552FE4F80818F70806180838FEC91E0D7
:1035A0000E945E04DF91CF911F910F910C946A1AD3
:1035B00001968770BACFDF91CF911F910F91089537
:1035C000CF93DF93EC010E945824BE010E94691E34
:1035D0000E94E017DF91CF9108959F92AF92BF9222
:1035E000CF92DF92EF92FF920F931F93CF93DF93CF
:1035F000CDB7DEB761970FB6F894DEBF0FBECDBF73
:103600008C0185E0F801DE011D9601900D928A95EE
:10361000E1F7F801E2809091CF016091D0014091F3
:10362000D2015091D3014115510531F06F3F31F472
:1036300081E09F3F19F403C081E001C080E0F82FD2
:10364000F1709F2E80FD1AC1F80130812181C38065
:10365000D4808FECA82E81E0B82EF090D101F60135
:10366000E41BF50BFF2009F4C6C08091D401E83CAF
:10367000F10508F091C0482F407F09F050C0621357
:1036800011C093130FC0FE2CE1100CC08F7080612D
:103690008093D401C5010E945E048091D401F80199
:1036A000858329C1CD2831F02F3F31F481E03F3FA0
:1036B00019F403C081E001C080E080FD03C081E017
:1036C0008E2502C080E090E0F82FF170FF2E80FF81
:1036D0001CC0809106024091D50156E0841709F480
:1036E000E8C090E0589FF001599FF00D1124EA5274
:1036F000FE4F6181261306C06081631303C062819F
:10370000E61203C001968770E9CFFE2CEE2009F483
:10371000F2C08091D40181608093D40149C06213CA
:1037200006C0931304C0E11002C0F80186C0C801AE
:103730000E94FD24882351F1EE2041F12091D40113
:10374000822F82958F7090E0029774F08091CF0164
:103750009091D00198878F831986DB86CA862C8743
:10376000CE0107960E945E0486E0F801AFECB1E05E
:1037700001900D928A95E1F70E94741A0AC06217AF
:10378000C9F0C8010E94FD2481111EC0C8010E9419
:103790005E04FF24F394AFC0482F407F81F78FEC85
:1037A00091E00E945E0486E0F50111928A95E9F7A6
:1037B000F12CA1C09313E5CFE110E3CFF80185838D
:1037C000C8010E945E0454C0EE2001F32091D40190
:1037D000822F82958F7090E0029734F28091CF0112
:1037E0009091D0019A8389831B82DD82CC822E83C3
:1037F000CE010196B7CFE83CF105D0F5FE2CEE20C6
:1038000029F2621327C0931325C02091D40120FD13
:1038100018C0822F82958F70482F50E041155105B6
:1038200081F0F80125834F30510541F08F5F982FCB
:103830009295907F822F8F70892B8583C8010E947B
:103840005E0486E0F801AFECB1E001900D928A953C
:10385000E1F751C0C8010E94FD24811185CF8091FC
:10386000D40181608093D401C8010E945E0443C0EA
:1038700086E0F50111928A95E9F73DC0EE2009F442
:1038800085CFC8010E94FD24F82E882309F47ECF3D
:1038900086E0F801AFECB1E001900D928A95E1F776
:1038A0008091CF019091D0010E94E01A0E94741A79
:1038B00022C03D872E878D859E850E94E01A292F84
:1038C00022952F70223028F49F7039F0811105C0A5
:1038D0000BC0243028F49F7049F4805E883020F0BB
:1038E000C8010E945E049F2CF92C05C0F801958147
:1038F000907F99F7F9CF8F2D61960FB6F894DEBFC0
:103900000FBECDBFDF91CF911F910F91FF90EF9030
:10391000DF90CF90BF90AF909F90089508950F9340
:103920001F93CF93DF9300D01F92CDB7DEB78C01EA
:1039300080911A0281110AC09E012F5F3F4F4FEF05
:103940006FEF0E9426218A8180931A02F8018481F8
:10395000813051F028F0823061F440911A020AC09F
:1039600080911A0240E007C060911A0240E080E0B6
:1039700003C040E080E060E00E94BF20F801848145
:1039800090E0019663E070E00E94612684830F90CE
:103990000F900F90DF91CF911F910F910895CF93CA
:1039A000DF93EC01E3E3F2E0438162818C810E94CA
:1039B000BC218C818F5F8C83DF91CF910895CF9351
:1039C000DF93EC01EC81F0E0EC5AFC4F4491E3E32F
:1039D000F2E0628181810E94BC218C818F5F8C83A7
:1039E000DF91CF9108951F920F920FB60F9211247D
:1039F0008F939F93AF93BF9380914102811113C026
:103A00008091A8019091A901A091AA01B091AB0168
:103A10004196A11DB11D8093A8019093A901A09387
:103A2000AA01B093AB01BF91AF919F918F910F907D
:103A30000FBE0F901F9018959C01FC0132969FEFCE
:103A400080E04191461789F09F3F19F4411101C070
:103A5000982F8F5F8630A9F79F3F39F0F901E90F62
:103A6000F11D97FDFA9562830895089520913F0214
:103A7000309140022817390771F0909340028093EB
:103A80003F02E0913D02F0913E02309721F0008428
:103A9000F185E02D0994089520913B0230913C027C
:103AA0002817390771F090933C0280933B02E09114
:103AB0003D02F0913E02309721F00680F781E02D23
:103AC00009940895E0913D02F0913E02309721F073
:103AD0000190F081E02D099480E008950F931F93E9
:103AE000CF93DF93C42FD22FFC0182818823C9F0AA
:103AF00040933A020E94B2169093390280933802A2
:103B000080E28C0F883008F057C0C77081E001C098
:103B1000880FCA95EAF7DF91CF911F910F910C940E
:103B20003F2580913A02481330C08091380290912D
:103B300039020E94A316883C910538F510E21D0F4A
:103B4000CD17B9F080E28C0F883040F4C77081E067
:103B500001C0880FCA95EAF70E943425183028F56D
:103B600081E09D2F977001C0880F9A95EAF70E9417
:103B70003F25802F0E94E7251830F0F4D77081E0B0
:103B800001C0880FDA95EAF70AC080E28C0F88300E
:103B900098F4C77081E001C0880FCA95EAF7DF91F9
:103BA000CF911F910F910C943425802FDF91CF91ED
:103BB0001F910F910C94E725DF91CF911F910F91E9
:103BC0000895CF93DF93C7EAD1E060E0CE010E9471
:103BD00019262196C11584E0D807B9F7DF91CF9156
:103BE00008956F927F928F929F92AF92BF92CF92E1
:103BF000DF92EF92FF920F931F93CF93DF93C0E07A
:103C0000D0E000E010E03E0187E2680E711C630125
:103C1000C00ED11EE12CF12C4E01800E911EF4013C
:103C2000EE0DFF1DEC5AFB4FA590B4906B2DC60115
:103C30000E9419266A2DC60101960E94192682E06B
:103C4000E80EF11C82E0C80ED11C80E1E816F104F8
:103C500031F7005F1F4F00361105C9F6C05ADF4F1C
:103C6000C03881E0D80769F6DF91CF911F910F919D
:103C7000FF90EF90DF90CF90BF90AF909F908F908C
:103C80007F906F9008950F931F93CF93DF93C42F6E
:103C9000D0E0CC0FDD1F20E1629FC00DD11D1124AB
:103CA00030E6839FC00DD11D1124CE0187960E945E
:103CB0000526082F10E0102F0027CE0188960E94BD
:103CC00005269801282BC901DF91CF911F910F91F3
:103CD0000895462F843038F4763028F4683018F48C
:103CE000672F0C94431E80E090E00895CF93C82F77
:103CF000811102C06FEF01C061E283E290E00E9497
:103D00001926C11102C06FEF01C061E184E290E0A9
:103D10000E941926C11102C06FEF01C066E285E260
:103D200090E0CF910C94192680E00E94761E60E00E
:103D300086E290E00E9419260E94F11D0E94E11D7A
:103D400081E00C94761E83E290E00E940526813289
:103D500081F484E290E00E940526813151F485E2ED
:103D600090E00E94052691E0863209F090E0892FCC
:103D700001C080E0817008959091330290FF04C0EB
:103D80009695981740F003C0811105C090E09617F2
:103D900010F40C94F32261E00C94AF22882311F00C
:103DA000FA0101C0FB01099460913302669570E04D
:103DB0004BE050E08BE091E00E94D526892B19F46E
:103DC00081E0809317020E94B216909311028093B3
:103DD000100208958091330280FF0AC0239A85B1B2
:103DE000877F95B198602FB7F894EBE1F2E00BC0B4
:103DF000EBE1F2E0118210821282339632E0E3337B
:103E0000F307C1F7EBCF32E0E333F30789F03191E9
:103E100048E095B9000000C037FF85B9330F0000B6
:103E200000C000C000C085B900C04A9591F7EBCF33
:103E30002FBF8FE594E00197F1F700C000000895CF
:103E4000EF92FF920F931F93CF93DF938C01CBE1FF
:103E5000D2E0E12CF12CF8018481F4E0EF16F104BA
:103E60001CF4882339F002C0811104C09E014091E6
:103E7000360202C09E0140E060913502809134021A
:103E80000E9426218FEFE81AF80A239698E0E91697
:103E9000F10409F70E94EA1EF801848190E001967E
:103EA000817099278483DF91CF911F910F91FF90AB
:103EB000EF9008958F929F92AF92BF92CF92DF9230
:103EC000EF92FF920F931F93CF93DF93EC014C81FE
:103ED000042F10E09801D8010E94AC269B01AC0190
:103EE0000E94C2266B017C01E0E2F0E0E01BF10BD6
:103EF000A5E5B0E09B01AC010E94C2264B015C012C
:103F00009F01DF010E94A4269B01AC010E94CD26E7
:103F10009B01AC012C0D3D1D4E1D5F1DC501B40163
:103F20000E947526822FF22E99E2921728F093E0D4
:103F3000299F900111240DC025E530E0281B31098F
:103F4000C901880F991F280F391F37FF02C02F5F43
:103F50003F4F35952795122F10959BE1C92E92E082
:103F6000D92E00E085E5E82EEF1801FD02C08E2D68
:103F700001C08F2D9601412F609135020E942621AC
:103F80000F5F83E0C80ED11C083079F70E94EA1E4B
:103F90008C81811102C091E003C0803219F49FEF3F
:103FA0009093180190911801890F8C83DF91CF9124
:103FB0001F910F91FF90EF90DF90CF90BF90AF9047
:103FC0009F908F9008950F931F93CF93DF93CBE132
:103FD000D2E0FE01118210821282339682E0E33336
:103FE000F807C1F700E010E080911902082E000CDC
:103FF000990B0817190794F080911701082E000CEF
:10400000990B8017910754F09E0140913602609100
:104010003502809134020E94262103C01982188241
:104020001A820F5F1F4F239608301105E9F60E9490
:10403000EA1E8091160190911902980F909319022F
:1040400020911701280F20931701121614F49730AE
:104050001CF0819580931601DF91CF911F910F91F4
:104060000895CF92DF92EF92FF920F931F93CF9319
:10407000DF93FC01828180FF03C0DD24DA9402C05B
:10408000DD24D394CBE1D2E000E010E01982188265
:104090001A8294E0E92EF12CC12C809118028C0D2B
:1040A000893014F0877002C087FD885F082E000CED
:1040B000990B0817190791F4809136028E9DA00183
:1040C0008F9D500D112455954795559547959E0107
:1040D00060913502809134020E942621CD0CF1E0DE
:1040E000EF1AF108D1F60F5F1F4F23960830110524
:1040F00069F60E94EA1E8091180291E0D91206C06A
:10410000811102C087E006C0815004C090E0019692
:104110008770992780931802DF91CF911F910F919B
:10412000FF90EF90DF90CF900895EF92FF921F9352
:10413000CF93DF93EC018BE1E82E82E0F82E10E0C4
:104140008C8197014091360260913502810F0E9467
:104150002621115E83E0E80EF11C183F89F70E94CA
:10416000EA1E9A818C8190FF02C08F5F01C081504E
:104170008C83DF91CF911F91FF90EF9008959091E4
:10418000330290FF0CC0EBE1F2E081836083428355
:10419000339692E0E333F907C1F70C94EA1E0895D1
:1041A00080913302282F269530E02115310519F42E
:1041B0008170826005C02532310524F081708864E9
:1041C000809333020895CF92DF92EF92FF926B01BA
:1041D0007C010E94D020B701A60188E090E0FF900A
:1041E000EF90DF90CF900C942B268091370288239C
:1041F00019F081508093370260913302709134023C
:1042000080913502909136020C94E3208091370220
:10421000833018F48F5F809337026091330270917E
:10422000340280913502909136020C94E320E3E34E
:10423000F2E083E0808311828FEF82838383148294
:1042400060817181828193810C94E320AF92BF924F
:10425000CF92DF92EF92FF920F931F93CF93DF9352
:10426000E82EF62EE901E42FF0E0611106C0EC52D1
:10427000FA4FE4914E2F2E2F71C0062F10E0EC5212
:10428000FA4F4491F42FC42ED12C26E0829FC00116
:1042900011242FEF30E0B9010E944D265BEA56034E
:1042A000C001579F900D11248E0D911D8E0D911DF3
:1042B000582F550F580FD901A01BB10BAC9DC00151
:1042C000AD9D900DBC9D900D1124E92FF59ED00160
:1042D0001124AB2FBB277901EA1AFB0AEC9CD00111
:1042E000ED9CB00DFC9CB00D11245901A51AB1082C
:1042F000A09E7001A19EF00CB09EF00C1124EF2C3A
:10430000FF242E193F092C9D80012D9D100D3C9DF1
:10431000100D1124212F6230710591F048F46115C0
:104320007105E1F061307105B9F4242F4B2F16C0EF
:104330006430710569F040F06630710579F00CC0A9
:10434000242F492FE12F0AC0492FEF2F2B2F06C012
:10435000292FE42F412F02C0292FEB2F49832883D7
:10436000EA83DF91CF911F910F91FF90EF90DF9043
:10437000CF90BF90AF900895CF93DF9300D01F925E
:10438000CDB7DEB79091330290FF0AC09E012F5F38
:104390003F4F0E9426214B8169818A810E94BF2064
:1043A0000F900F900F90DF91CF9108957F928F9291
:1043B0009F92AF92BF92CF92DF92EF92FF920F93B4
:1043C0001F93CF93DF9300D01F92CDB7DEB7182F86
:1043D000D62E042FC22E9091330290FF6DC0E92F8C
:1043E000E695AE2FB0E0A959BE4F8C91809316028E
:1043F0009E7F923061F49E012F5F3F4F812F0E947C
:1044000026214B8169818A810E94BF2043C082306E
:1044100019F4009136023EC0863019F4109134022E
:1044200039C08930D9F38931A9F5E9512E2F21708E
:10443000722EE695F0E0EC52F94F859094903BE1B6
:10444000A32E32E0B32EE12CF12C99248E9CC001D6
:104450008F9C900D9E9C900D112423E0969587953E
:104460002A95E1F7711002C0810F03C0212F281B8C
:10447000822F9501402F6D2D0E9426218FEFE81A83
:10448000F80A23E0A20EB11C88E0E816F104F1F668
:104490000E94EA1E10933402D09235020093360235
:1044A000CC2051F06091330270913402809135023A
:1044B000909136020E94E3200F900F900F90DF91B1
:1044C000CF911F910F91FF90EF90DF90CF90BF9011
:1044D000AF909F908F907F900895E3E3F2E0438147
:1044E00028E0421B08F440E021E0628181810C94C5
:1044F000D621E3E3F2E0438128E0420F08F44FEFD6
:1045000021E0628181810C94D621E3E3F2E06281B3
:1045100028E0621B08F460E021E0438181810C9473
:10452000D621E3E3F2E0628128E0620F08F46FEF46
:1045300021E0438181810C94D621E3E3F2E0818183
:1045400021E04381628188500C94D621E3E3F2E0BC
:10455000818121E043816281885F0C94D621909112
:10456000330290FF36C09170811102C0926006C084
:10457000853210F0986402C0880F982B9093330214
:10458000662351F0609133027091340280913502BC
:10459000909136020E94E32060913302669570E0AC
:1045A0004BE050E08BE091E00E94D526892B19F07A
:1045B0001092170202C00E94D41E81E08093130261
:1045C00020E04091360260913502809134020C94D3
:1045D000D6210895809133028695815009F484E2B2
:1045E00061E00C94AF228091330286958F5F853213
:1045F00008F081E061E00C94AF220E94B216209195
:104600004B02211104C020914C02222321F09093EF
:1046100048028093470220914D02211104C020914D
:104620004E02222321F09093460280934502E091AE
:104630003D02F0913E02309749F082E080934902BA
:104640000480F581E02D89E492E009940895803F8B
:1046500039F490914C0297FF35C010924C0259C02A
:10466000813F29F490914C021916BCF32BC0909114
:104670004B02823F29F497FF25C010924B0249C09C
:10468000833F19F41916CCF31DC090914D02893F58
:1046900029F41916BCF410924D023BC08A3F19F45C
:1046A00097FF10C0F8CF8B3F39F490914E0297FFDF
:1046B00009C010924E022DC08C3F21F490914E0201
:1046C0001916BCF39CE0980F953080F421E030E09F
:1046D000A90102C0440F551F9A95E2F7CA018095BF
:1046E00090914A02892380934A0213C08D3F21F49E
:1046F000809144028E7F0BC08E3F21F48091440252
:104700008D7F05C08F3F29F4809144028B7F809379
:10471000440280914B02811106C080914C028111AC
:1047200002C01092430280914D02811106C0809117
:104730004E02811102C010924202089580914402FB
:1047400080FD16C081FD16C082FD18C08091420216
:10475000882391F0883290F428E0829FC0011124D0
:1047600068E270E00E946126862F672B29F007C05F
:1047700082E0089584E0089581E0089588E0089536
:104780008091440280FD14C081FD14C082FD16C0DA
:1047900080914302882381F0843180F422E3829F58
:1047A000C001112464E170E00E946126862F089503
:1047B0008CE0089589E1089585E0089582E30895E5
:1047C000803F21F40E94C023819504C0813F29F4D9
:1047D0000E94C02380934C020895823F21F40E94DE
:1047E000C023819504C0833F29F40E94C023809395
:1047F0004B020895893F19F40E949E2305C08A3F09
:1048000031F40E949E23819580934D0208958B3F41
:1048100021F40E949E23819504C08C3F29F40E94BC
:104820009E2380934E0208959CE0980F953078F473
:1048300021E030E0A90102C0440F551F9A95E2F72C
:10484000CA0190914A02892B80934A0208958D3FB4
:1048500021F48091440281600BC08E3F21F480914D
:104860004402826005C08F3F29F480914402846035
:1048700080934402089580E090E00E944C1D80E007
:1048800090E00E94361D10920902109208020E94C8
:10489000061AE9E4F2E086E0DF011D928A95E9F765
:1048A0001092430210924202109244020C94FD2294
:1048B000CF92DF92FF920F931F93CF93DF936C0100
:1048C0000091C60180910C02082BC7E0D0E010E0F7
:1048D000C8010C2E02C0959587950A94E2F780FDD9
:1048E00004C02197A8F7F12C09C0FC2EB6018C2F2B
:1048F0000E94691E0E94E017019799F38F2DDF91A6
:10490000CF911F910F91FF90DF90CF90089528E0F5
:10491000929F800D1124682F669566956695982F55
:10492000977083E0689FB001112440E050E080E080
:10493000FB01E40FF51FE15BFD4F208130E0092E04
:1049400002C0369527950A94E2F721703327042E8A
:1049500001C0220F0A94EAF7822B4F5F5F4F43306A
:10496000510531F7089528E0929F800D1124E82F1A
:10497000E695E695E695877051E001C0550F8A955A
:10498000EAF783E0E89FF0011124E15BFD4F20E0AE
:1049900030E070E04081CB01022E02C096958795F1
:1049A0000A94E2F781708195842785238427819377
:1049B0002F5F3F4F2330310569F708958093C6017B
:1049C0000C943B2421E030E001C0220F8A95EAF7E5
:1049D00020958091C60182230C94DE2421E030E0F2
:1049E00001C0220F8A95EAF78091C601822B0C94B0
:1049F000DE2480930C020C943B24FC018081918185
:104A00000E94E01A292F2F70E92FE295EF704E2FA8
:104A100050E0FA013297EE30F105B8F4E158FF4F5B
:104A20000C949726803F99F018F4883E70F40FC0DC
:104A3000843F59F40CC0883E50F0813F31F407C0E8
:104A4000822F869586958695089580E0089581E069
:104A5000089510920A0286E0E9ECF1E0DF011D9270
:104A60008A95E9F70C943B24882341F08095909136
:104A70000A02892380930A020C94061A0895882357
:104A800039F090910A02892B80930A020C94061A3D
:104A900008958823E1F19CEF980F913A60F4E7ECD8
:104AA000F1E09281891301C01282319641E0ED3C20
:104AB000F407B9F714C090E2980F983090F487701B
:104AC00021E030E0A90102C0440F551F8A95E2F7AA
:104AD000CA01809590910A02892380930A020C945E
:104AE000061A9BE5980F933020F480E090E00C9438
:104AF0004C1D98E5980F973120F480E090E00C94DD
:104B0000361D803F20F00E9427230C94FD2208953B
:104B1000CF93882309F459C0C82F8CEF8C0F813AAA
:104B2000F8F4E9ECF1E08FEC91E02191C21721F06B
:104B30008E179F07D1F70EC0E7ECF1E08DEC91E006
:104B40002281C21301C0128231968E179F07C1F7CE
:104B50000E94061A6C2F87EC91E00E941C1D10C069
:104B600080E28C0F883078F4C77081E090E001C05B
:104B7000880FCA95EAF790910A02892B80930A025E
:104B8000CF910C94061AEBE5EC0FE33040F4F0E023
:104B9000EA5CFE4F808190E0CF910C944C1DE8E5DB
:104BA000EC0FE73150F4F0E0EE0FFF1FE75CFE4F33
:104BB00080819181CF910C94361DC03F30F08C2FB5
:104BC0000E94E023CF910C94FD22CF9108951F9372
:104BD000CF93DF93182F893319F0C0E0D0E002C0E3
:104BE000C0E5D0E0812F0E948825209741F08FE911
:104BF0009FE00197F1F700C000002197F6CF812FC9
:104C0000DF91CF911F910C944925F999FECF92BD68
:104C100081BDF89A992780B50895A6E1B0E044E0F7
:104C200050E00C943F26A8E1B0E042E050E00C9444
:104C30003F26262FF999FECF92BD81BDF89A0197A4
:104C400000B4021639F01FBA20BD0FB6F894FA9AD4
:104C5000F99A0FBE08950396272F0E941A260E94E4
:104C60001926252F0E941A26242F0C941A26019605
:104C7000272F0E941A260C941926DC01CB01FC0177
:104C8000F999FECF06C0F2BDE1BDF89A319600B4A5
:104C90000D9241505040B8F70895AA1BBB1B51E13B
:104CA00007C0AA1FBB1FA617B70710F0A61BB70B9C
:104CB000881F991F5A95A9F780959095BC01CD0141
:104CC000089597FB072E16F4009407D077FD09D0BE
:104CD0000E944D2607FC05D03EF4909581959F4F8C
:104CE0000895709561957F4F0895A1E21A2EAA1B31
:104CF000BB1BFD010DC0AA1FBB1FEE1FFF1FA2178C
:104D0000B307E407F50720F0A21BB30BE40BF50B88
:104D1000661F771F881F991F1A9469F76095709511
:104D2000809590959B01AC01BD01CF010895EE0FD8
:104D3000FF1F0590F491E02D0994692796276927B4
:104D400078278727782708950E94AC26332312F40A
:104D50008A1B9B0B0C94BD26A29FB001B39FC00180
:104D6000A39F700D811D1124911DB29F700D811D97
:104D70001124911D08950E94AC26B7FF0895821B4F
:104D8000930B08950E94AC26A59F900DB49F900DA3
:104D9000A49F800D911D11240895B7FF0C94C22685
:104DA0000E94C226821B930B0895FC014150504083
:104DB00030F001900616D1F73197CF01089588277A
:104DC00099270895FB01DC0104C08D9101908019A1
:104DD00021F441505040C8F7881B990B0895F8946E
:024DE000FFCF03
:104DE20004112D160E160A1606160101191A1B1C9D
:104DF2001D1E1F202122010201F1F0F4F7F6F567D2
:104E02006636353497969440227B79025702DC014C
:104E1200CB02E4020403818283E200E900EA00B5E6
:104E220000B600B700CD008301CC008A0192019444
:104E3200012102230224022502260227022A02B3AA
:104E420000B4006F007000000102020202060606B2
:104E52000909090909090F0F0F0F0F0F1515151869
:0C4E620019191919191919191919232403
:00000001FF
