:100000000C94DE080C9425090C9425090C94250900
:100010000C9425090C9425090C9425090C942509A8
:100020000C9425090C9425090C94A6220C94E22129
:100030000C94CD2A0C9425090C9425090C942509BF
:100040000C9425090C9425090C9425090C94250978
:100050000C9425090C94802A0C9425090C942509EC
:100060000C9425090C9425090C9425090C94250958
:100070000C9425090C9425090C9425090C94250948
:100080000C9425090C9425090C9425090C94250938
:100090000C9425090C9425090C9425090C94250928
:1000A0000C9425090C9425090C9425092A0F2A0F74
:1000B000650F650FBF0FDD0FE710E710E80F5C104D
:1000C0006D106D10DB15DE15FA1507160E162E16BF
:1000D0003116A316C51666176617D016D216D61691
:1000E000FB161D17201723174617F01F1720C421D2
:1000F0001720C42163208620C4217C218C21C22E9C
:10010000C22ED52ED52ECB2ED52ED52ED52EC22E07
:10011000C22ED02ED52ED52ED02E000000000000ED
:1001200000000000000000000000000000000000CF
:1001300000000000000000000000000000007E0F32
:1001400000D4FFFFFFC7000000780000000000009F
:1001500000002A2B28000000000000000000000022
:10016000000000000029000000002C1E3420212285
:1001700024342627252E362D3738271E1F202122EE
:10018000232425263333362E37381F040506070867
:10019000090A0B0C0D0E0F10111213141516171857
:1001A000191A1B1C1D2F3130232D35040506070895
:1001B000090A0B0C0D0E0F10111213141516171837
:1001C000191A1B1C1D2F3130354C7267626C696720
:1001D00068742064697361626C65205B45455052A8
:1001E0004F4D5D3A207267626C696768745F636F38
:1001F0006E6669672E656E61626C65203D202575AF
:100200000A007267626C6967687420656E61626C6F
:1002100065205B454550524F4D5D3A207267626CD8
:10022000696768745F636F6E6669672E656E616289
:100230006C65203D2025750A007267626C696768ED
:100240007420746F67676C65205B454550524F4D55
:100250005D3A207267626C696768745F636F6E668F
:1002600069672E656E61626C65203D2025750A0008
:1002700044454255473A2064697361626C65642E57
:100280000A0044454255473A20656E61626C6564D8
:100290002E0A007267626C696768745F636F6E66CE
:1002A00069672E7370656564203D2025640A0072BD
:1002B00067626C696768745F636F6E6669672E76E4
:1002C000616C203D2025640A007267626C69676872
:1002D000745F636F6E6669672E736174203D2025BD
:1002E000640A007267626C696768745F636F6E6648
:1002F00069672E687565203D2025640A007267686D
:100300006C696768745F636F6E6669672E6D6F6492
:1003100065203D2025640A007267626C6967687415
:100320005F636F6E6669672E656E61626C65203D06
:100330002025640A007267626C696768745F636F86
:100340006E66696720454550524F4D3A0A00726704
:10035000626C696768745F696E6974207267626C49
:10036000696768745F636F6E6669672E6D6F646539
:10037000203D20302E2057726974652064656661C7
:10038000756C742076616C75657320746F204545BB
:1003900050524F4D2E0A007267626C696768745F35
:1003A000696E6974206565636F6E6669672069733D
:1003B000206E6F7420656E61626C65642E0A007237
:1003C00067626C696768745F696E697420737461D1
:1003D0007274210A007267626C696768745F696E83
:1003E00069742063616C6C65642E0A004B657962E8
:1003F0006F6172642073746172742E0A000A0025A2
:10040000303862003A200025303258000A722F63DB
:100410002030313233343536370A000A0025303285
:1004200058006B6579626F6172645F7365745F6CAD
:1004300065643A20007267626C6967687420646959
:100440007361626C65205B4E4F454550524F4D5D68
:100450003A207267626C696768745F636F6E666981
:10046000672E656E61626C65203D2025750A0072FD
:1004700067626C6967687420656E61626C65205B99
:100480004E4F454550524F4D5D3A207267626C6940
:100490006768745F636F6E6669672E656E61626C14
:1004A00065203D2025750A007267626C6967687473
:1004B00020736574207370656564205B4E4F4545FD
:1004C00050524F4D5D3A2025750A005B735D004F19
:1004D0006E6573686F743A206163746976653A205B
:1004E00025640A000A002530325820006B657962C5
:1004F0006F6172645F7265706F72743A20000631CA
:10050000FF0974A1010975150026FF0095207508E3
:1005100081020976150026FF00952075089102C01A
:1005200005010902A10185020901A10005091901BE
:10053000290815002501950875018102050109307A
:1005400009311581257F95027508810609381581C5
:10055000257F950175088106050C0A38021581254D
:100560007F950175088106C0C005010980A101853C
:100570000319012AB700150126B7009501751081EE
:1005800000C0050C0901A101850419012AA002156A
:100590000126A002950175108100C00660FF096167
:1005A000A1010962150026FF009520750881020946
:1005B00063150026FF00952075089102C00501090A
:1005C00006A101050719E029E71500250195087521
:1005D0000181029501750881010507190029FF15A0
:1005E0000026FF00950675088100050819012905F8
:1005F000950575019102950175039101C05B435DFD
:10060000005B445D005B535D005B575D005B525DCA
:100610000009027B00040100A0FA090400000103A4
:100620000101000921110100012240000705810399
:1006300008000A0904010002030000000921110159
:1006400000012222000705820320000107050303A1
:10065000200001090402000103000000092111012A
:100660000001227B000705840320000A090403001F
:1006700002030000000921110100012222000705E8
:100680008503200001070505032000011201000277
:10069000000000084D520100020001020001100399
:1006A0005200650062006F0075006E00640000007B
:1006B00016034D006F006E007400730069006E0039
:1006C0006700650072000000040309046B65796D22
:1006D00061705F636F6E6669672E7261773A20257D
:1006E0003032580A2E737761705F636F6E74726F69
:1006F0006C5F636170736C6F636B3A2025750A2EB3
:10070000636170736C6F636B5F746F5F636F6E7444
:10071000726F6C3A2025750A2E737761705F6C6377
:10072000746C5F6C6775693A2025750A2E73776162
:10073000705F7263746C5F726775693A2025750A21
:100740002E737761705F6C616C745F6C6775693A6A
:100750002025750A2E737761705F72616C745F7209
:100760006775693A2025750A2E6E6F5F6775693A5D
:100770002025750A2E737761705F67726176655FF9
:100780006573633A2025750A2E737761705F626125
:10079000636B736C6173685F6261636B73706163D9
:1007A000653A2025750A2E6E6B726F3A2025750A00
:1007B0000064656275675F636F6E6669672E72615C
:1007C000773A20253032580A2E656E61626C653AA0
:1007D0002025750A2E6D61747269783A2025750A94
:1007E0002E6B6579626F6172643A2025750A2E6DF1
:1007F0006F7573653A2025750A006565636F6E66CF
:1008000069673A0A64656661756C745F6C617965E5
:10081000723A2025750A000A092D204D6167696327
:10082000202D0A443A094465627567204D6573734B
:1008300061676520546F67676C650A583A094D61B6
:1008400074726978204465627567204D6F64652015
:10085000546F67676C65202D2053686F77206B6538
:10086000797072657373657320696E206D6174723F
:10087000697820677269640A4B3A094B6579626F3F
:1008800061726420446562756720546F67676C65A8
:10089000202D2053686F77206B65797072657373B4
:1008A000207265706F72740A4D3A0944656275670B
:1008B000204D6F75736520546F67676C650A563AF3
:1008C0000956657273696F6E0A533A0953746174FD
:1008D00075730A433A09416374697661746520430C
:1008E0006F6E736F6C65204D6F64650A46312D46DF
:1008F00031303A0953776974636820746F204C6112
:1009000079657220302D392028463130203D204C29
:1009100030290A302D393A09537769746368207495
:100920006F204C6179657220302D390A475241564B
:10093000453A0953776974636820746F204C617974
:10094000657220302028616C7465726E617465294F
:100950000A423A094A756D7020746F20426F6F74B5
:100960006C6F616465720A4553433A094A756D704C
:1009700020746F20426F6F746C6F61646572202801
:10098000616C7465726E617465290A453A0950722A
:10099000696E7420454550524F4D205365747469FB
:1009A0006E67730A4253504143453A09436C65618F
:1009B0007220454550524F4D0A000A092D20436FC1
:1009C0006E736F6C65202D0A4553432F713A097180
:1009D0007569740A6D3A096D6F7573656B65790A8F
:1009E000000A092D2056657273696F6E202D0A5614
:1009F00049443A20307835323444284D6F6E747350
:100A0000696E67657229205049443A203078303049
:100A10003031285265626F756E6429205645523A0E
:100A2000203078303030320A4255494C443A202048
:100A3000284E6F762032362032303231290A4F501C
:100A400054494F4E533A204C554641204D4F555333
:100A5000454B45592045585452414B455920434F29
:100A60004E534F4C4520434F4D4D414E44204C5426
:100A70004F20343039360A4743433A20352E342E3E
:100A800030204156522D4C4942433A20322E302ECE
:100A900030204156525F415243483A2061767235C8
:100AA0000A000A092D20537461747573202D0A6899
:100AB0006F73745F6B6579626F6172645F6C65649C
:100AC0007328293A20253032580A6B6579626F61A4
:100AD00072645F70726F746F636F6C3A202530328E
:100AE000580A6B6579626F6172645F69646C653A1C
:100AF00020253032580A74696D65725F72656164D1
:100B0000333228293A202530386C580A003F000A31
:100B10006D6F7573653A206F66660A000A6D6F75B2
:100B200073653A206F6E0A000A6B6579626F6172B5
:100B3000643A206F66660A000A6B6579626F6172BB
:100B4000643A206F6E0A000A6D61747269783A2007
:100B50006F66660A000A6D61747269783A206F6E7A
:100B60000A000A64656275673A206F66660A000AC1
:100B700064656275673A206F6E0A000A0A4A756DED
:100B800070696E6720746F20626F6F746C6F616440
:100B900065722E2E2E2000433E2000436C6561724C
:100BA000696E6720454550524F4D0A00313A09643D
:100BB000656C6179282A31306D73293A2025750AD0
:100BC000323A09696E74657276616C286D73293AE0
:100BD0002025750A333A096D61785F737065656425
:100BE0003A2025750A343A0974696D655F746F5F40
:100BF0006D61783A2025750A353A09776865656C24
:100C00005F6D61785F73706565643A2025750A369B
:100C10003A09776865656C5F74696D655F746F5FCD
:100C20006D61783A2025750A00703A097072696E14
:100C3000742076616C7565730A643A097365742073
:100C400064656661756C74730A75703A092B310AB4
:100C5000646E3A092D310A6C743A092B31300A72EC
:100C6000743A092D31300A4553432F713A09717591
:100C700069740A0A7370656564203D2064656C744C
:100C800061202A206D61785F7370656564202A2079
:100C900028726570656174202F2074696D655F74BA
:100CA0006F5F6D6178290A77686572652064656C8D
:100CB00074613A20637572736F723D25642C2077DE
:100CC0006865656C3D25640A5365652068747470B9
:100CD0003A2F2F656E2E77696B6970656469612E96
:100CE0006F72672F77696B692F4D6F7573655F6BD7
:100CF0006579730A004D3E20004D25753A25733EF7
:100D000020003F0A003D2025750A003F0A00646567
:100D10006661756C74730A0025750A003F0A000A43
:100D2000092D2056616C756573202D0A00710A002B
:100D30000A092D204D6F7573656B6579202D0A00AA
:100D40004C25640A00290A002575002F002575002E
:100D50005D28002564002000256400200025640033
:100D600020002564007C0025303258006D6F7573BB
:100D7000656B6579205B62746E7C782079207620C3
:100D8000685D287265702F61636C293A205B007280
:100D900067626C69676874206D6F6465205B4E4F95
:100DA000454550524F4D5D3A2025750A00726762E5
:100DB0006C69676874206D6F6465205B45455052AF
:100DC0004F4D5D3A2025750A000001010101010126
:100DD00001010102020202020202020203030303F2
:100DE00003030303040404040404040505050505C2
:100DF0000606060606070707070708080808090980
:100E000009090A0A0A0B0B0B0C0C0C0D0D0D0E0E2A
:100E10000E0F0F0F101011111112121313141415BD
:100E20001516161717181819191A1A1B1B1C1D1D31
:100E30001E1E1F2020212222232424252626272887
:100E400029292A2B2C2D2D2E2F30313232333435B7
:100E5000363738393A3B3C3D3E3F404142434445BA
:100E6000464748494A4C4D4E4F5051535455565899
:100E7000595A5B5D5E5F616264656668696B6C6D43
:100E80006F7072737577787A7B7D7E8082838587B9
:100E9000888A8C8E8F91939596989A9C9EA0A2A3F7
:100EA000A5A7A9ABADAFB1B3B5B7BABCBEC0C2C4FC
:100EB000C6C9CBCDCFD1D4D6D8DBDDDFE2E4E7E9BC
:100EC000EBEEF0F3F5F8FAFDFF7267626C696768A4
:100ED000742073657420687376205B4E4F454550CF
:100EE000524F4D5D3A2025752C25752C25750A002D
:100EF0007267626C696768742073657420687376C2
:100F0000205B454550524F4D5D3A2025752C257587
:100F10002C25750A002B001A00150000001C000C7F
:100F20000013002900160009004B000B000E0033CF
:100F300000E1001B0019004E0011003600380005CA
:100F400051E200035128002C0050005200E000E361
:100F5000002C000000045151004F001D0006000548
:100F6000000000100037002800040007000A0000FD
:100F7000000D000F003400140008001700000018D6
:100F80000012002A002B001A00130000000D0018A8
:100F900000330029001500170001000B00080012A3
:100FA00000E1001B00190001000E003600380005AA
:100FB00051E200035101002C0050005200E000E318
:100FC000002C000000045151004F001D00060005D8
:100FD0000000001000370028000400160007000081
:100FE0000011000C003400140009000A0000000F7A
:100FF000001C002A002B0036001300000009000628
:10100000000F002900120018000100070017001649
:1010100000E10014000E00010005001A001D00058B
:1010200051E200035101002C0050005200E000E3A7
:10103000002C000000045151004F0033000D001B34
:10104000000000100019002800040008000C000037
:10105000000B0011003800340037001C0000000AAB
:101060000015002A0035021F02210200002302257C
:101070000227024C003B003D0001003F002E0230E1
:10108000020100410043000100450064020100012B
:10109000000100010001000100AB00A900010001F6
:1010A00000010000000100AA00AE00400042004420
:1010B0000000003202010001003A003C003E000046
:1010C000002D022F0231021E022002220200002403
:1010D0000226024C0035001F0021000000230025DD
:1010E0000027004C003B003D0001003F002E003077
:1010F00000010041004300010045006400010001BF
:10110000000100010001000100AB00A90001000185
:1011100000010000000100AA00AE004000420044AF
:101120000000003200010001003A003C003E0000D7
:10113000002D002F0031001E00200022000000249E
:101140000026004C00010001000100000001000128
:10115000000100010001001E5C01000A5C635D01EA
:101160000001000100010001000100010001000177
:101170000001000100010001000100010001000167
:101180000001000000010001000100010001000158
:1011900000000001000100010001001D5C135C0063
:1011A00000625D645D0100005C010001000000015F
:1011B0000001004C003F00433E20000011241FBEF0
:1011C000CFEFDAE0DEBFCDBF04B603FE27C08091CB
:1011D000CA029091CB02A091CC02B091CD0287308F
:1011E000904BA740B04BD1F41092CA021092CB02A0
:1011F0001092CC021092CD0214BE84B7877F84BFB8
:101200000FB6F894A8958091600088618093600083
:10121000109260000FBEE0E0F8E3099511E0A0E055
:10122000B1E0E6EDF1E602C005900D92A23DB107F6
:10123000D9F722E0A2EDB1E001C01D92AA3CB207AD
:10124000E1F70E947C110C94E9300C940000FF93AC
:10125000EF93E091D201F091D301309709F0099515
:10126000EF91FF910895FC018591803011F0EFDF3F
:10127000FBCF0895FF27E0E230E247FF0CC0419525
:1012800097FF09C0EDE26095709580959095611D7E
:10129000711D811D911D27FF02C0219530E350E291
:1012A000AA27660F771F881F991FAA1FA41710F07F
:1012B000A41B63955A95A9F7AA3008F0A95FA05D11
:1012C000AF93F395611571058105910541F7ED32F5
:1012D00011F4EF93F395F21718F43F93F395FBCFC6
:1012E0008F91B5DFFA95E1F70895E991F99185912C
:1012F000803021F0853219F0AADFF9CF089520E07F
:10130000E89455915532C1F3503311F468945591D6
:101310005A3348F4505390F3220F022E220F220F1B
:10132000200D250FF4CF0EF4219589919991533614
:1013300019F3533729F1533559F1BC0188279927FF
:10134000E8945C3621F489919991689455915436CA
:1013500039F446EF7EF077FF0DC08FEF9FEF0AC0A4
:1013600055374AE039F0583540E121F0523642E035
:1013700009F00895FF93EF937DDFEF91FF91B7CFD1
:10138000FF93EF93FC0181918030B9F360DFFBCFD5
:10139000FF93EF9368DFF1CFDF93CF93CDB7DEB745
:1013A0002596A3DFCF91DF9108951F93CF93DF930D
:1013B000CDB7DEB767970FB6F894DEBF0FBECDBFCF
:1013C0004B8B5C8B6D8B7E8B8F8B611110923602F9
:1013D00086E09E01235F3F4FD901E82F1D92EA95D9
:1013E000E9F795E0FE017396D90101900D929A9567
:1013F000E1F79C894E895F897B897D879E876F870E
:10140000598B488BF901DE01179601900D928A9550
:10141000E1F7CE0107960E94401C81113EC086E094
:10142000FE013796DE01119601900D928A95E1F743
:10143000FF81E8856A857B856115710531F0EF3F95
:1014400031F481E0FF3F19F403C081E001C080E086
:1014500080FD23C02091020230E0C901019687700F
:1014600099274091330250E08417950779F1F98369
:10147000EA837D836C8396E0929FD001939FB00DA9
:101480001124AD5FBD4FFE01319601900D929A95EA
:10149000E1F7809302020E94BD1B16E080913302A7
:1014A000909102028917F9F0189FC00111248D5FF5
:1014B0009D4F0E94401C8823B1F08091330290E040
:1014C00001968770992780933302E8CF0E94D92E26
:1014D0001092020210923302ECEFF1E086E0DF019D
:1014E0001D928A95E9F767960FB6F894DEBF0FBE96
:1014F000CDBFDF91CF911F9108953F924F925F92A0
:101500006F927F928F929F92AF92BF92CF92DF9213
:10151000EF92FF920F931F93CF93DF93CDB7DEB778
:1015200029970FB6F894DEBF0FBECDBFFC018081B6
:10153000918123813481232B31F09F3F31F491E05D
:101540008F3F19F403C091E001C090E090FD7CC68C
:101550007F0185E0DE01119601900D928A95E1F7F9
:10156000F701228189819A81222349F00E94012E6C
:10157000182F682F89819A810E945C2E03C00E94D7
:10158000302E182F69817A81812F0E94322C8C0194
:10159000F7018281882309F4F2C0980122513F4566
:1015A0002031310508F019C18FEF93E00E945330CC
:1015B0008111EFC0025137EE832E992493940023BA
:1015C00079F08114F4E09F0609F4E3C0C4010E949D
:1015D0005330811101C001502FEF821A920AEFCFD0
:1015E0001E821F8218861986442443942AE0322ED4
:1015F00084010F5F1F4FC4010E9453308E831F82EE
:10160000882309F4C6C09FEF980F933060F48F834E
:101610004E8232E0830E911CC8010E9453308887AD
:10162000811102C0B6C048018E010A5F1F4FF80148
:1016300020812223E9F2213009F04CC081818130E0
:1016400049F46801F2E0CF0ED11CF80182810E94BA
:1016500035300AC0823051F46801F2E0CF0ED11C5F
:10166000F80182810E944B2F860186C0833049F4A5
:101670006801F2E0CF0ED11CF80182810E94E42EB5
:10168000F3CF843019F00F5F1F4F76C0F80122812D
:101690000E5F1F4F80E090E030E0205331092A3088
:1016A000310568F4389EA001399E500D1124C901FE
:1016B000840F951F0F5F1F4FF8012081EDCF00971A
:1016C00009F45AC0EFE9FFE03197F1F700C00000DC
:1016D0000197F5CFE22FF0E0E65BFE4F5490822FAA
:1016E00086958695869590E0FC01E65CFE4F6490B9
:1016F0002770712C022E02C0759467940A94E2F749
:10170000F1E06F227724FC01E65DFE4FA490B12C3E
:10171000022E02C0B594A7940A94E2F731E0A32206
:10172000BB24FC01E65EFE4FC490D12C02C0D594D0
:10173000C7942A95E2F781E0C822DD246114710480
:1017400019F081EE0E944B2FA114B10419F086EE1E
:101750000E944B2F852D0E943530AB2819F086EE64
:101760000E94E42E672819F081EE0E94E42ECD2815
:1017700019F08CE20E9435300F5F1F4F58CF0031B7
:101780003FE5130709F057C581E00E94922E0E94A1
:10179000FE1E80913402877009F456C5F7018281DC
:1017A000882309F451C582E029960FB6F894DEBF6C
:1017B0000FBECDBFDF91CF911F910F91FF90EF90A2
:1017C000DF90CF90BF90AF909F908F907F906F9061
:1017D0005F904F903F900C94A01B0031FFE51F07D6
:1017E00011F481E005C001312FE5120721F482E0F8
:1017F0000E949E2ECCCF0336FDE51F0749F48823B7
:10180000D9F062E083E090E00E94673082E012C08D
:1018100004362DE5120709F443C102363DE51307EE
:1018200009F048C1882341F061E083E090E00E9424
:10183000673081E00E94A92EF7018281882309F494
:1018400098C11092A6020330FDE51F0758F40A3F25
:101850002CE5120760F4C80182509C45449708F0BB
:1018600072C105C001363DE5130709F06CC10E9445
:101870007E1A9093D6018093D50100318CE518072C
:1018800009F4CAC008F041C00830ECE51E0709F4AD
:10189000A4C0F0F404302CE5120709F48CC068F4FD
:1018A00002308CE5180709F482C003301C4509F0AA
:1018B000E7C08091D5018260E1C00630ECE51E07EB
:1018C00009F483C008F085C08091D5018860D6C036
:1018D0000C302CE5120709F490C068F40A308CE54E
:1018E000180709F47EC008F084C00E94D92E8091A8
:1018F000D5018068C3C00E30ECE51E0709F481C035
:1019000008F086C08091D50194C00C3F2CE51207E9
:1019100009F47BC038F504318CE5180709F49AC046
:1019200058F40231ECE51E0709F47AC008F07EC0D5
:101930008091D5018F7BA2C00A3F2CE51207F1F1FF
:1019400008F03FC005311C4509F09AC08091D501CF
:1019500082FB222720F991E0922790FB82F990FBED
:1019600083F98CC001159DE5190709F467C050F48F
:101970008091D6010E3FFCE51F07C1F108F05BC066
:101980008D7F65C002303DE5130709F471C008F48E
:101990006DC001361D4509F073C08091D50184FBEF
:1019A000222720F991E0922790FB84F967C080916B
:1019B000D501816063C08091D50116C08091D601A8
:1019C00016C08091D601826042C08091D5018061AD
:1019D00055C08091D501806251C08091D50180644D
:1019E0004DC08091D5018860846048C0826081606C
:1019F0002EC08091D5018E7F41C08091D5018D7F11
:101A00003DC08091D501877F39C08091D60114C037
:101A10008091D5018F7E32C08091D5018F7D2EC0FF
:101A20000E94D92E8091D5018F7728C08091D50151
:101A3000877F8B7F23C08D7F8E7F09C08091D601E9
:101A4000982F909591708E7F892B90FB81F98093D0
:101A5000D60116C00E94D92E8091D50187FB22277E
:101A600020F991E0922790FB87F908C061E001C05E
:101A700060E08EE090E00E94673002C08093D50164
:101A80006091D5011091D60184E090E00E9467300A
:101A9000612F82E290E00E9467300E94D92E79CEB9
:101AA000882309F4C9CE64E083E090E00E946730A7
:101AB00084E0C0CE033F9CE5190769F198F4083D26
:101AC000FCE51F07F9F0093D2CE51207B1F1073DD0
:101AD0003CE5130709F0B0CE06E221EE41EE67EDDA
:101AE0007CE515C0053F8CE5180709F1D0F0063FED
:101AF000ECE51E0709F0A0CE07E225EE46EE66EF04
:101B00007CE505C007E225EE45EE68ED7CE5C70102
:101B10000E94552B3ECE06E221EE40EE63EF7CE5BF
:101B2000F6CF07E225EE44EE64EF7CE5F0CF06E267
:101B300021EE42EE65EF7CE5EACF08E221E045EEDA
:101B400069ED7CE5E4CF8091370206319CE5190709
:101B500009F58A7A91E009F490E09093D401882302
:101B600011F065E301C069E284EF91E00E94032B6C
:101B70000EC006311C4509F024C18091D401882390
:101B800009F460C365E384EF91E00E94F62A0E94A5
:101B90000A1BFFCD8272093CECE51E0709F4B2C0B6
:101BA000F0F4053C2CE5120709F49DC060F4033CF9
:101BB0009CE5190709F48DC008F090C0023CFCE5D3
:101BC0001F0751F1B5C0073C2CE5120709F490C07E
:101BD00008F093C047E654E26EE574E2A1C00D3C04
:101BE0009CE5190709F49FC060F40B3CFCE51F0756
:101BF00009F48DC008F090C04AE354E26EE274E24A
:101C00008FC0063D3CE5130708F4C3CD0D358DE5C7
:101C1000180709F4BECD8CC080916B0280FF10C004
:101C200080919F02809581701F928F9389E392E04B
:101C30009F938F930E94CC090F900F900F900F905D
:101C400080919F0280FF2CC08E7F80939F026091C5
:101C50009F027091A0028091A1029091A2020E9425
:101C6000BA2480916B0280FF0FC080919F02817027
:101C70001F928F938AEC91E09F938F930E94CC09DF
:101C80000F900F900F900F909FEFE0E7F2E09150D0
:101C9000E040F040E1F700C000000E948B2C79CDBD
:101CA000816080939F0280916B0280FF0DC01F9224
:101CB00081E08F9382E092E09F938F930E94CC0902
:101CC0000F900F900F900F9080919F0261E086958A
:101CD0002CC047E055E260E175E222C040E155E2E8
:101CE00067E075E21DC04EE554E267E674E218C095
:101CF00046E454E262E574E213C042E554E266E46D
:101D000074E20EC04EE254E26AE374E209C040E1BC
:101D10005AE261E27AE204C041E25AE260E17AE228
:101D20000E94852C36CD61E081E00E94CC2431CD2B
:101D30000E3D2CE51207B9F140F401158CE51807AA
:101D400089F001301C45E1F03CC00B35EDE51E0784
:101D5000A9F10C35FDE51F0749F10A351D4589F547
:101D600081E02DC00E94D92E3FEF84E39CE03150EA
:101D700080409040E1F700C000000E945C2A09CD3D
:101D800080916B02982F9095917090FB80F98093D1
:101D90006B02992319F082E892E002C080E792E09A
:101DA0000E943309F6CC0E949A1AF3CC8091D60196
:101DB00082FB882780F991E0892701C080E00E949A
:101DC000741BF701828100811181882349F0C801C9
:101DD0000E94012ED82E682FC8010E945C2E04C0DC
:101DE000C8010E94302ED82EB8018D2D0E94322CB1
:101DF0000E94E418B82E192F982EF7010281A580B1
:101E0000A2949FE0A92280913402877099F0002368
:101E100089F0812F807F803421F080E28B0D883023
:101E200048F082E00E94A01B809134028770DD247C
:101E3000D3948111D12CC12EC2948FE0C8228C2D55
:101E400090E08C30910508F0C2C1FC01EA5AFF4FC6
:101E50000C94CF30812F807F1F70882311F0129552
:101E6000107F0023B9F0112309F49DC180E28B0D8E
:101E7000883010F0911006C080913702182B109313
:101E8000370205C080913602182B109336020E944B
:101E90000A1B89C18B2D0E94E42E112309F497C1DE
:101EA00080E28B0D1095883010F0911006C0809163
:101EB000370218231093370205C080913602182389
:101EC000109336020E940A1B82C1812F807F1F70EF
:101ED000803211F01295107F8B2D992021F0F1E0C6
:101EE0009F1611F130C00023B1F0AA2081F021E04B
:101EF000A2120DC08091D60182FD69C18091380285
:101F0000182B181709F463C11093380260C180912F
:101F10003802812B10C0AA2021F031E0A31609F469
:101F200056C10E94041B27C0002341F085E08A159A
:101F300008F44DC1812F0E94DA2D49C194E09A1511
:101F400008F445C118C0002349F0AA2099F3F7010D
:101F5000858180FF28C18F708583ECCFAA2059F03E
:101F6000893309F031C1FFEF27EE33E0F150204013
:101F70003040E1F727C1812F0E94CF2D28C1812F4A
:101F800086958695837019F0813061F020C1002319
:101F900021F08B2D912F937002C080E090E00E9481
:101FA000332B1BC1002321F08B2D912F937002C086
:101FB00080E090E00E941D2B10C18B2D002319F0B2
:101FC0000E94C82602C00E94CF250E94232505C179
:101FD000812F8370A9F50111FEC04B2D42954695C6
:101FE0004770440F440F8B2D8F7090E09C01042E9E
:101FF00001C0220F0A94EAF7B4FE08C08FE090E017
:1020000001C0880F4A95EAF7809501C080E01695D7
:1020100016951370123069F088F4909139021130DE
:1020200019F0822B892302C0922B892B0E94A92EA2
:10203000D2C0822B909139028927F8CF822BF6CF1C
:10204000002319F0812F817001C08695882309F43F
:10205000C2C04B2D429546954770440F440F8B2DBF
:102060008F7090E09C01042E01C0220F0A94EAF7C1
:10207000B4FE08C08FE090E001C0880F4A95EAF7EF
:10208000809501C080E0169516951370123059F0B6
:1020900078F490915702113019F0822B892309C0EE
:1020A000922B892B06C0822B90915702892701C061
:1020B000822B0E94872E8FC01F70002339F0812F42
:1020C0000E949E2E8B2D0E94DA2D85C08B2D0E94A2
:1020D000CF2D812F0E94922E7EC08B2D92EF9916CC
:1020E00059F1991538F0E0EF9E1659F0F1EF9F166F
:1020F000F1F055C023EF921631F134EF931681F1D0
:102100004EC0002379F084E08A1508F460C01F7186
:1021100081E090E001C0880F1A95EAF7909157028C
:1021200089271BC095E09A1508F451C0F0CF002311
:1021300029F0812F8F7126C00023D9F3812F8F7151
:102140000E94922E44C0002339F01F7181E001C02B
:10215000880F1A95EAF701C080E00E94872E37C0E9
:10216000002399F01F71812F0E949E2E8091D6012D
:1021700082FD07C0E8E01E9FC001112483608093A8
:102180003402812F0E949E2E22C081E00E94A01B5B
:10219000F1E0FA15E0F482E00E94A01B18C00023D1
:1021A00031F0AA2031F28B2D0E944B2F10C0AA20B3
:1021B00029F2893349F42FEF37EE83E02150304084
:1021C0008040E1F700C000008B2D0E94E42E88EFD4
:1021D0008C0D843010F40E94492BDD20A9F18091F0
:1021E000340280FD31C0F701128285958595859571
:1021F0000E949E2EC7010E947D0A8091340285951F
:102200008595859529960FB6F894DEBF0FBECDBF94
:10221000DF91CF911F910F91FF90EF90DF90CF90C2
:10222000BF90AF909F908F907F906F905F904F90F6
:102230003F900C94922E01319FE5190709F0DBCAFB
:1022400082E0A3CA69E29FCC29960FB6F894DEBF5C
:102250000FBECDBFDF91CF911F910F91FF90EF90F7
:10226000DF90CF90BF90AF909F908F907F906F90B6
:102270005F904F903F9008958295982F937344E01C
:10228000949F900111248C7C86958695282B822F13
:102290008575880F2A7A2695822B08959C013A9598
:1022A00021153F4130F5DC01AA27B270AC0144276B
:1022B00054709C012227387094FF0FC090FF02C019
:1022C00080E101C080E0AB2B09F08062452B09F072
:1022D0008064232B79F080680DC0892F8170AB2B2F
:1022E00009F08260452B09F08460232B19F0886087
:1022F00001C080E0FB010994CF93DF93CDB7DEB737
:10230000AF970FB6F894DEBF0FBECDBF84B7877FFF
:1023100084BF0FB6F894A89580916000886180937F
:102320006000109260000FBE90E080E80FB6F89455
:1023300080936100909361000FBE85B7806885BF70
:1023400085B7806885BF83E99EE19093D301809330
:10235000D2010E9426220E9445228091E2008460E0
:102360008093E200789480914D028823A1F010912F
:10237000E9001F709091EC00892F817090FD80E83A
:10238000182B1092E9008091E80083FD0E94091F3C
:102390001F701093E90082E084BD93E095BD9AEF31
:1023A00097BD80936E000E946C2C811102C00E9428
:1023B0005D2C01E111E078E1E72E71E0F72EF801E4
:1023C00081918F018F3F11F00E94F717E016F106FF
:1023D000B1F708E111E060E2E62E61E0F62EF801C7
:1023E00081918F018F3F11F00E94F717E016F106DF
:1023F000B1F7E7EDF1E0ACEEB1E011921D9221E012
:10240000EF3DF207D1F70E948F1A811102C00E949E
:102410009A1A82E090E00E94533080936B020E94EF
:102420007E1A9093D6018093D5010E940E188FE3F7
:102430009CE90197F1F700C000000E940E188091FE
:10244000EC0180FF08C06FEF7FEF80E090E00E941A
:1024500085300E945C2A83E090E00E9453300E9405
:10246000A92E8091DF018111DBC080916B0280FF7A
:1024700008C085ED93E09F938F930E94CC090F9045
:102480000F9080916B0280FF08C08FEB93E09F93C9
:102490008F930E94CC090F900F900E948F1A811188
:1024A00010C080916B0280FF08C087E993E09F9382
:1024B0008F930E94CC090F900F900E949A1A0E944D
:1024C000142588E090E00E945B3060939F02709337
:1024D000A0028093A1029093A2026E7FD1F480911A
:1024E0006B0280FF08C08EE493E09F938F930E945D
:1024F000CC090F900F900E94142588E090E00E9474
:102500005B3060939F027093A0028093A10290932E
:10251000A2020E94AF2480916B0280FF08C085E375
:1025200093E09F938F930E94CC090F900F9080911E
:102530006B0280FF0FC080919F0281701F928F936A
:1025400088E193E09F938F930E94CC090F900F90A6
:102550000F900F9080916B0280FF0FC080919F02BF
:1025600086951F928F938DEF92E09F938F930E9499
:10257000CC090F900F900F900F9080916B0280FF0D
:102580000EC08091A0021F928F9383EE92E09F93E2
:102590008F930E94CC090F900F900F900F90809115
:1025A0006B0280FF0EC08091A1021F928F9389EC75
:1025B00092E09F938F930E94CC090F900F900F9001
:1025C0000F9080916B0280FF0EC08091A2021F923B
:1025D0008F938FEA92E09F938F930E94CC090F9084
:1025E0000F900F900F9080916B0280FF0EC0809132
:1025F000A3021F928F9383E992E09F938F930E948F
:10260000CC090F900F900F900F9080919F0280FF48
:1026100004C060E086950E94CC2481E08093DF01B5
:1026200052985A9A53985B9A89B182FB882780F90D
:102630004B9B02C092E001C090E0892B8093E201A5
:1026400080E091E09093AA028093A9028CEE93E03F
:102650000E94330938E1232E312C47E0442E44E018
:10266000542E5FEF652E53E0752E80914D0285301C
:1026700009F046C08BEC94E00E94330900E112E1BE
:1026800080914D02853009F037C080914D02843031
:1026900011F11092AD0290E40FB6F894A895209233
:1026A00060000FBE9093600083B7817F846083BF1A
:1026B00083B7816083BF7894889583B78E7F83BF0B
:1026C0000FB6F894A89580916000886180936000AF
:1026D000109260000FBE80914C02882309F4D0CF85
:1026E0000E940E18ECEEF1E08191811119C421E0F5
:1026F000E43FF207C9F7C4CF0E94D92E0E94492BAC
:102700000E940E1881110E94B52A94EEA92E91E024
:10271000B92E2CEEC22E21E0D22E00E010E00FA741
:10272000F60121916F012CA7F50181915F01282706
:102730002BA7211116C00F5F1F4F0830110579F725
:102740008FEF8EA38FA318A60E94C12A8160782FD5
:102750009AA789A74EA15FA168A58AA50E94D5095D
:102760005DC080916B0281FD04C080E0FF24F39482
:1027700037C08CE094E00E9433092CEE31E03EA794
:102780002DA7E12CF12CFF92EF925F924F920E94C5
:10279000CC0984E094E00E943309EDA5FEA5819167
:1027A000FEA7EDA70E943C111F928F937F926F921C
:1027B0000E94CC098DEF93E00E943309FFEFEF1ADE
:1027C000FF0A0FB6F894DEBF0FBECDBF38E0E316A8
:1027D000F104C9F6CACF8F5FFF0C873009F4ABCF85
:1027E0009BA59F21C1F389A34FA54AA39CA59F2127
:1027F00081E009F480E08BA30E94C12A8160782FD8
:102800009DA38CA349A15AA16BA18DA10E94D509BA
:10281000F801EC51FE4F8081F826F0828091E201B0
:10282000E82FEE0FEE0FE093E20189B182FB8824DE
:1028300080F8912C4B9B03C082E090E002C080E0C6
:1028400090E0882999298E2B8093E2018F70E82FE0
:10285000F0E0E05EFE4F90818091E101890F80936E
:10286000E1018430CCF08091E0018F5F8093E00142
:1028700065EC7DE289EA90E00E944E1189EA0E94AF
:102880004B2F89EA0E94E42E6AEB7DE289EA90E010
:102890000E944E1121E001C020E08091E1018D3FB6
:1028A000C4F48091E00181508093E00165EC7DE209
:1028B0008AEA92E00E944E118AEA0E944B2F8AEA2D
:1028C0000E94E42E6AEB7DE28AEA92E00E944E11B9
:1028D00021E08091E101082E000C990B64E070E08A
:1028E0000E94BB308093E10121110E94B52A86E04D
:1028F000E5E6F2E08E010F5F1F4FD80101900D92C7
:102900008A95E1F7C0906702D0906802E090690272
:10291000F0906A02109267021092680210926902A7
:1029200010926A02C11003C0DD2009F45DC08091DD
:102930006302909164020E94A62AAC019091600209
:10294000992339F020910B0130E02417350758F016
:102950004BC020910C018AE0289F9001112424177C
:10296000350718F041C09F3F19F09F5F90936002B8
:10297000CC2061F00E947F261C1414F491E001C069
:102980009FEF899F802D112480936702DD2061F0E5
:102990000E947F261D1414F491E001C09FEF899FCF
:1029A000802D112480936802309167023323E1F077
:1029B000209168022223C1F045EB3403C0011124A9
:1029C000992319F09093670203C081E08093670216
:1029D00035EB2303C0011124992319F09093680269
:1029E00003C081E080936802E11003C0FF2009F476
:1029F00051C080916102909162020E94A62A9C01BE
:102A000090915E02992309F4AAC22536310508F493
:102A100041C09F3F19F09F5F90935E02EE2061F0EE
:102A20000E9446261E1414F491E001C09FEF899F76
:102A3000802D112480936902FF2061F00E944626B8
:102A40001F1414F491E001C09FEF899F802D112481
:102A500080936A02309169023323E1F020916A0287
:102A60002223C1F045EB3403C0011124992319F04E
:102A70009093690203C081E08093690235EB2303E0
:102A8000C0011124992319F090936A0203C081E0D8
:102A900080936A028091670281110BC08091680265
:102AA000811107C080916902811103C080916A027F
:102AB00081110E942325CB82DC82ED82FE8286E09A
:102AC000F801A5E6B2E001900D928A95E1F70E9427
:102AD000492B9091E301891739F10E94492BF82E77
:102AE0008093E30180916B0282FF1EC080FF04C0CF
:102AF00082E294E00E94330980916B0280FF0CC057
:102B00001F92FF928DE194E09F938F930E94CC09D6
:102B10000F900F900F900F9080916B0280FF04C078
:102B20008BE194E00E94330980914D02843009F0DA
:102B30009CCD83E08093E9008091E80082FF95CDF1
:102B40008091E80085FF21C00E94CF2381111BC026
:102B500080E2E82EF12C680109C08091F100F601B5
:102B600081936F01F1E0EF1AF10869F08091E800BC
:102B700085FDF3CF8091E8008B778093E8000E9479
:102B8000CF23882399F391E001C090E08091E80081
:102B90008B778093E800992309F467CDE9818E2F24
:102BA00090E0FC013197E331F10508F08FC1EE5957
:102BB000FF4F0C94CF301A8289E0E0C08A818230C6
:102BC00009F4C4C1833051F0813009F07FC10E9403
:102BD000B52A9B838C837D836E837AC1FE013396F5
:102BE000CE010B96ACEEB1E02D9121938E179F078D
:102BF000D9F76EC18A81823009F068C16B817C810E
:102C00008D819E810E94D53086E290E024C04C8167
:102C10006B818A810E940C2C9D839FC1CD80DE80B8
:102C2000DC24CD24DC248C81EB809A812EE0E29E92
:102C30007001112430E7939FE00CF11C1124E80E81
:102C4000F11CE80EF11C6D2DC70187960E946730BC
:102C50006C2DC70188960E9467303AC10E94D82B1C
:102C600037C18A818138B9F050F4803809F030C119
:102C700020E04B816091A1028091A00261C0823866
:102C800009F44AC0833809F023C120E04091A20230
:102C90006C818B8155C060E08B810E94CC242B819C
:102CA00090916B0280919F0221111DC08E7F8093B5
:102CB0009F0290FF0CC01F921F9285E394E09F93A8
:102CC0008F930E94CC090F900F900F900F904FEFB1
:102CD00080E792E0415080409040E1F700C0000062
:102CE0000E948B2CF5C0816080939F0290FF0DC0E5
:102CF0001F9281E08F938FE694E09F938F930E94C1
:102D0000CC090F900F900F900F9080919F0260E080
:102D100086950E94CC24DCC08B818093A302909185
:102D20006B0290FFD5C01F928F9388EA94E09F9327
:102D30008F930E94CC090F900F900F900F90C8C0F6
:102D40000E94C12CC5C08A81813899F030F4803846
:102D500009F0BEC08091A20211C0823899F0833878
:102D600009F0B6C08091A0028B838091A1028C8370
:102D7000AFC080919F0280FF03C086958B83A8C05F
:102D800080E0FCCF8091A302F9CF60919F02709107
:102D9000A0028091A1029091A2020E94BA2498C040
:102DA00080E14FC082E08A8389E1E8CFEA80FB803E
:102DB000FE24EF24FE24AC80B12C6801C7018951A8
:102DC0009E4F9601201B310B2A153B0508F080C051
:102DD000E9E1EE16E2E0FE0628F40E945330F60127
:102DE000848302C0F6011482FFEFEF1AFF0A2FEF6F
:102DF000C21AD20AE3CFEA80FB80FE24EF24FE242D
:102E0000AC80B12C6801C70189519E4F9601201BEF
:102E1000310B2A153B0508F05BC039E1E31632E0BF
:102E2000F30620F4F60164810E946730FFEFEF1A89
:102E3000FF0A2FEFC21AD20AE6CF0E94C82B48C061
:102E400084E08A8345C0EA80FB80FE24EF24FE24D0
:102E5000AC80B12C6801C70187969601201B310B0D
:102E60002A153B05A8F530ECE31631E0F30628F40B
:102E70000E945330F601848302C0F6011482FFEFF2
:102E8000EF1AFF0A2FEFC21AD20AE5CFEA80FB80C1
:102E9000FE24EF24FE24AC80B12C6801C701879684
:102EA0009601201B310B2A153B0590F430ECE316FC
:102EB00031E0F30620F4F60164810E946730FFEFF1
:102EC000EF1AFF0A2FEFC21AD20AE8CF8FEF8983D9
:102ED00080914D02843009F0C8CB8091E9008F7059
:102EE0002091EC00922F917020FD90E8F92EF82AA5
:102EF00082E08093E9008091E80080FF0CC040E010
:102F000050E060E270E0C8010E9402248091E80075
:102F10008E778093E8008F2D8F708093E900A5CB8A
:102F200009BD19BD09B400FEFDCF8091D8008F7D89
:102F30008093D8008091E00082608093E0008091CF
:102F4000E00081FDFCCF0E94D92E9ACB86E290E072
:102F50000E9453301B821C821D828E83B9CF2D327A
:102F6000314008F058CD96CD9091D50192FF0DC01B
:102F7000282F2871283019F4877F846006C0282FF5
:102F80002471243011F48B7F886093FF0DC0282FAB
:102F90002871283119F4877E846106C0282F247196
:102FA000243111F48B7E88612091D60120FF0DC061
:102FB000382F3871383019F4877F816006C0382F78
:102FC0003171313011F48E7F886021FF0DC0282FC0
:102FD0002871283119F4877E816106C0282F21715C
:102FE000213111F48E7E886194FD877E0895F894D6
:102FF000E82FE295EF70F0E031A1282F2F7081E0EB
:1030000090E001C0880F2A95EAF7982F90959323B6
:1030100091A392A1892B82A3789408956F927F92B5
:103020008F929F92AF92BF92CF92DF92EF92FF92D8
:103030000F931F93CF93DF93CDB7DEB728970FB6CB
:10304000F894DEBF0FBECDBF8E010F5F1F4F88E02B
:10305000D8011D928A95E9F791E1C92E91E0D92E08
:10306000E12CF12CAA24A394B12C4E01B9E08B0ED3
:10307000911CF60180818F3F09F44EC0F894E82F2F
:10308000E295EF70F0E021A18F70A50102C0440F1E
:10309000551F8A95E2F7CA01922F982B91A392A10E
:1030A0008095892382A3789400C0C5010E2C01C0AD
:1030B000880F0A94EAF7482F582F509588E1682E18
:1030C00081E0782EF801D3018D913D018F3FA1F071
:1030D000282F22952F7030E0D90190962C9130E066
:1030E0008F70B90102C0759567958A95E2F760FD0A
:1030F00003C08081842B02C0808185238083319628
:103100008E169F0601F7D6018C918F3F11F00E9419
:10311000F717B0EABA95F1F7EFEFEE1AFE0AFFEFF4
:10312000CF1ADF0A47E0E416F10409F0A2CF48E025
:1031300050E0B80187ED91E00E94DC30FF24F39469
:10314000009709F4F12C892B89F088E0F801A7EDAC
:10315000B1E001900D928A95E1F781E080933C0205
:103160000E94C12A90933B0280933A0280913C02D4
:103170008823A1F080913A0290913B020E94A62AF6
:10318000059760F0E7EDF1E0ACEEB1E081918D9351
:1031900051E0EF3DF507D1F710923C028F2D2896B4
:1031A0000FB6F894DEBF0FBECDBFDF91CF911F9158
:1031B0000F91FF90EF90DF90CF90BF90AF909F90D6
:1031C0008F907F906F900895CF93DF938238910511
:1031D00069F1B0F48133910509F46FC048F4893284
:1031E000910509F465C08A32910509F46BC08AC063
:1031F0008533910509F457C089339105B9F082C030
:10320000833E910571F138F4803E9105B1F0823E24
:10321000910511F177C0863E9105B9F1873E910580
:10322000C9F1843E910509F06DC024C02091D501FB
:1032300020FD53C021FD51C065C08091D50180FDA6
:1032400046C08091D60180FF48C08091D50184FDA1
:1032500050C183EE90E04FC18091D50182FF3AC00A
:10326000F4CF8091D50182FD35C08091D60180FDDB
:1032700034C0EBCF8091D60181FF35C08091D5015C
:1032800084FD37C187EE90E036C18091D50183FF80
:1032900027C0F4CF8091D50183FD22C08091D60153
:1032A00081FD21C0EBCF8091D50185FD1FC021C0DC
:1032B0008091D50185FD1DC019C08091D50186FD85
:1032C0001BC01DC08091D50186FD19C015C089E3C2
:1032D00090E011C182EE90E00EC180EE90E00BC153
:1032E00086EE90E008C184EE90E005C189E290E0AE
:1032F00002C185E390E0FFC08AE290E0FCC081E378
:1033000090E0F9C0811531E5930708F069C0811597
:1033100040E59407F0F09C0174E0369527957A9586
:10332000E1F7922F9370482F437021E030E002C004
:10333000220F331F4A95E2F73C68392B982F9F7074
:103340009695969540E2949FC0011124822B932B71
:10335000D2C0883E910568F5803E910508F0CBC04B
:10336000883A9105B8F4853A910548F0855AE82FD6
:10337000F0E0E05DFE4F808190E09064BCC0813061
:10338000910509F4B3C008F4B4C08430910508F481
:10339000B0C0B1C08F3B910508F0ABC0885AE82F90
:1033A000F0E0EE0FFF1FED5CFE4F80819181946491
:1033B000A2C0811520E2920758F4811531E09307ED
:1033C00008F099C0803F910508F493C0906593C0C0
:1033D000811540E4940708F48CC09F70906A8BC0FC
:1033E000811525E5920708F042C0811534E5930761
:1033F00028F0982F8827846F906A7DC0811543E557
:103400009407B0F09C012370332741E050E002C0E4
:10341000440F551F2A95E2F7282F2695269580E21E
:10342000289F90011124CA01822B932B9A6863C0B4
:10343000811522E5920728F4982F8827816F906ADA
:103440005AC09C012370332741E050E002C0440F72
:10345000551F2A95E2F7282F2695269580E2289F6A
:1034600090011124CA01822B932B9C6844C0EC016B
:10347000811539E59307A8F48115984528F09C2F0C
:103480008827806F906A37C0C11586E5D80788F510
:103490008C2F0E94B4178F7190E0982F882790622C
:1034A0002AC081152AE5920790F48C2F8F700E9414
:1034B000B41794E0D695C7959A95E1F7CF70D0E010
:1034C000DC2FCC27D0699E01282BC90114C090564F
:1034D0008115904270F48D2F8F710E94B417282FA0
:1034E0002F71CE0199279062922B05C081E090E068
:1034F00002C080E090E0DF91CF910895CF9384E007
:1035000090E00E945330C82F82E290E00E94533036
:103510002C2F30E0A901582BCA01CF91089580E0EB
:1035200090E00E946130893E9E4F11F40C946C2C07
:1035300080E0089569EE7EEF80E090E00E948530A3
:1035400060E082E090E00E94673060E083E090E01D
:103550000E9467301092390260E084E090E00E949F
:10356000673060E082E290E00E94673060E085E0D2
:1035700090E00E94673060E086E090E00E94673053
:103580006FEF87E090E00E94673040E050E0BA01C2
:1035900088E090E00E94793060E08DE090E00E9449
:1035A000673040E050E0BA0188E190E00E94793055
:1035B00060E087E190E00E94673040E050E0BA01AF
:1035C0008CE190E00E94793060E070E080E290E071
:1035D0000E94853040E050E0BA0188E190E00E940E
:1035E000793080E00E943F2C0E945D2C40E050E04A
:1035F000BA018FE090E00E94793040E050E0BA01DB
:1036000083E190E00C94793080913802811110921E
:1036100038020895EF92FF920F931F93CF939091EA
:10362000370280913602892B20913502982F922BF8
:103630009093F40180913802882389F0892B80933C
:10364000F401E6EFF1E097E080E0915029F021915C
:103650002223D9F38F5FF9CF81110E94041BE091DF
:10366000A902F091AA023097C9F10280F381E02DFE
:1036700084EF91E0099580916B0282FF2FC080FF5B
:1036800004C08CEE94E00E94330904EF11E0C8E01E
:1036900086EEE82E84E0F82E80916B0280FF0CC04D
:1036A000F80180811F928F93FF92EF920E94CC09C4
:1036B0000F900F900F900F90C1500F5F1F4FC111CF
:1036C000EBCF80916B0280FF09C084EE94E0CF9134
:1036D0001F910F91FF90EF900C943309CF911F91A0
:1036E0000F91FF90EF900895CF93DF93C091D60193
:1036F000C2FB992790F9981701F1D82F80FBC2F9E6
:10370000C093D6016091D50184E090E00E946730BB
:103710006C2F82E290E00E94673080916B0280FF04
:103720000CC01F92DF938FEC94E09F938F930E94C5
:10373000CC090F900F900F900F90DF91CF910895CB
:10374000209134028095822380933402982F9770C1
:1037500041F430E0482F082E000C550B2417350794
:1037600021F49091D60192FF07C0859585958595A6
:103770000E94922E1092340208958091330290910B
:103780000202891719F08F5F8770FBCF08950F939E
:103790001F93CF93DF938091010282958F7009F080
:1037A0005DC08091FE01882309F458C080913302E6
:1037B000109102026091FC017091FD01C091FF0126
:1037C000D091000291E06F3F09F090E0292F06E0D0
:1037D000811709F443C0209721F07F3F21F030E0AA
:1037E00003C031E001C0322F90E030FD34C0089FAB
:1037F000F001099FF00D1124DF01AD5FBD4F11965F
:103800003C911197371327C03C91361324C0129670
:103810003C91129731111FC013964D915C911497F2
:103820004C1B5D0B483C5105B0F4809101028F7038
:10383000806180930102E85FFD4F80818F7080611D
:1038400080838CEF91E00E947D0ADF91CF911F91E0
:103850000F910C94BD1B01968770BACFDF91CF9169
:103860001F910F910895CF93DF93EC010E94012ED9
:10387000BE010E94322C0E94E418DF91CF9108957E
:103880009F92AF92BF92CF92DF92EF92FF920F93EF
:103890001F93CF93DF93CDB7DEB761970FB6F89440
:1038A000DEBF0FBECDBF8C0185E0F801DE011D96A5
:1038B00001900D928A95E1F7F801E2809091FC0168
:1038C0006091FD014091FF015091000241155105A9
:1038D00031F06F3F31F481E09F3F19F403C081E084
:1038E00001C080E0F82FF1709F2E80FD1AC1F80111
:1038F00030812181C380D4808CEFA82E81E0B82E46
:10390000F090FE01F601E41BF50BFF2009F4C6C0A0
:1039100080910102E83CF10508F091C0482F407FFA
:1039200009F050C0621311C093130FC0FE2CE110B8
:103930000CC08F70806180930102C5010E947D0AD6
:1039400080910102F801858329C1CD2831F02F3FF4
:1039500031F481E03F3F19F403C081E001C080E011
:1039600080FD03C081E08E2502C080E090E0F82F4A
:10397000F170FF2E80FF1CC0809133024091020243
:1039800056E0841709F4E8C090E0589FF001599F71
:10399000F00D1124ED5FFD4F6181261306C060819B
:1039A000631303C06281E61203C001968770E9CFFA
:1039B000FE2CEE2009F4F2C0809101028160809318
:1039C000010249C0621306C0931304C0E11002C093
:1039D000F80186C0C8010E94AD2E882351F1EE2067
:1039E00041F120910102822F82958F7090E0029721
:1039F00074F08091FC019091FD0198878F83198666
:103A0000DB86CA862C87CE0107960E947D0A86E057
:103A1000F801ACEFB1E001900D928A95E1F70E94B8
:103A2000C71B0AC06217C9F0C8010E94AD2E8111E0
:103A30001EC0C8010E947D0AFF24F394AFC0482F26
:103A4000407F81F78CEF91E00E947D0A86E0F501CE
:103A500011928A95E9F7F12CA1C09313E5CFE110FB
:103A6000E3CFF8018583C8010E947D0A54C0EE208F
:103A700001F320910102822F82958F7090E00297CE
:103A800034F28091FC019091FD019A8389831B821D
:103A9000DD82CC822E83CE010196B7CFE83CF105C2
:103AA000D0F5FE2CEE2029F2621327C0931325C017
:103AB0002091010220FD18C0822F82958F70482F1F
:103AC00050E04115510581F0F80125834F30510533
:103AD00041F08F5F982F9295907F822F8F70892B66
:103AE0008583C8010E947D0A86E0F801ACEFB1E051
:103AF00001900D928A95E1F751C0C8010E94AD2E48
:103B0000811185CF80910102816080930102C801FB
:103B10000E947D0A43C086E0F50111928A95E9F77B
:103B20003DC0EE2009F485CFC8010E94AD2EF82ECD
:103B3000882309F47ECF86E0F801ACEFB1E0019074
:103B40000D928A95E1F78091FC019091FD010E9410
:103B5000331C0E94C71B22C03D872E878D859E8502
:103B60000E94331C292F22952F70223028F49F7039
:103B700039F0811105C00BC0243028F49F7049F43E
:103B8000805E883020F0C8010E947D0A9F2CF92CAD
:103B900005C0F8019581907F99F7F9CF8F2D619637
:103BA0000FB6F894DEBF0FBECDBFDF91CF911F914E
:103BB0000F91FF90EF90DF90CF90BF90AF909F90CC
:103BC000089580914F0287FF11C08091E80082FD27
:103BD00005C080914D028111F8CF11C08091E8009D
:103BE0008B770BC080914D02882349F08091E800CB
:103BF00080FFF8CF8091E8008E778093E8000895E9
:103C0000982F973068F59093E900981739F07091E4
:103C1000EC002091ED005091F00003C0242F762F8E
:103C200050E021FD02C09F5FECCF3091EB003E7F62
:103C30003093EB003091ED003D7F3093ED003091FB
:103C4000EB0031603093EB007093EC002093ED00BB
:103C50005093F0002091EE0027FDE5CF80E008951D
:103C60008F708093E90081E0089520915502309192
:103C700056022617370748F06115710539F420916F
:103C8000E8002E772093E80001C0B901FC0120E094
:103C90006115710579F180914D028823F1F185302C
:103CA000F1F18091E80083FD3CC08091E80082FD45
:103CB0002EC08091E80080FFEBCF2091F30080912F
:103CC000F20090E0922B6115710551F0883091055A
:103CD00038F421912093F100615071090196F3CFDE
:103CE00021E0089709F020E08091E8008E7780932A
:103CF000E800CECF2111CFCF0AC080914D0288239A
:103D000061F0853061F08091E80083FD0AC0809108
:103D1000E80082FFF2CF80E0089582E0089583E01A
:103D2000089581E008959FB7F89410923E029FBFD6
:103D300090914D02943009F057C09091E9009F7026
:103D40003091EC00232F217030FD20E8922B25E0EC
:103D50002093E9002091EB0020FF43C02091EE006A
:103D600027FF3FC020913D02222321F02091E8004F
:103D700025FF37C010923D0226E03091E80035FD66
:103D800015C030914D02343061F53091EB0035FDB6
:103D900028C0215021F481E080933D0222C0EFE948
:103DA000FFE03197F1F700C00000E7CF8093F1000A
:103DB0008091E80085FD0AC08091E80080FFFCCF7B
:103DC0008091E8008E778093E80006C08FB7F89462
:103DD00021E020933E028FBF9F709093E90080E026
:103DE00008959F709093E9008FEF0895BC0184E0DF
:103DF0000C94322ABC0183E00C94322A8091570241
:103E0000982F9670963011F4886001C0877F0C94CB
:103E1000872E1F93CF93DF93CDB7DEB7AA970FB648
:103E2000F894DEBF0FBECDBFEFE4F2E087E592E08D
:103E30002091F10021938E179F07D1F780915002B6
:103E4000833009F462C030F4813071F0823009F4BB
:103E50009CC0B3C08A3009F488C08B3009F46DC0AF
:103E6000893009F0AAC020C080914F02813A09F040
:103E7000A4C08091E800877F8093E800809153027E
:103E800090915402892B21F468E083E492E003C00E
:103E900060E080E090E070E00E94351E8091E800D4
:103EA0008B778093E80089C080914F02813209F0BE
:103EB00084C08091530290915402009719F00297A8
:103EC00009F07BC08091E800877F8093E8008091B3
:103ED000E80082FD05C080914D028111F8CF6DC0D0
:103EE0002091F3008091F20090E0922B029729F448
:103EF0008091F1008B7F813021F48091F1008093DB
:103F000042028091E8008B7754C080914F02813A41
:103F100009F053C08091530290915402892B09F00B
:103F20004CC08091E800877F8093E8008091E80092
:103F300080FFFCCF80910A0137C080914F0281320F
:103F4000E1F58091530290915402892BB1F5809153
:103F5000E800877F8093E8000E94E11D8091510274
:103F600080930A010E94D92E28C080914F0281328D
:103F700021F58091E800877F8093E8000E94E11D91
:103F8000809152028093410218C080914F02813A81
:103F9000A1F48091E800877F8093E8008091E80099
:103FA00080FFFCCF809141028093F1008091E80076
:103FB0008E778093E8000E94E11D8091E80083FFE6
:103FC000E3C180914F0290915002492F50E04A3056
:103FD000510508F0D9C1FA01EB58FF4F0C94CF30CE
:103FE000803821F0823809F0CFC108C080914B029F
:103FF00090914C02992389F082600FC08091530206
:104000008F70873008F0C0C18093E9008091EB0089
:1040100085FB882780F91092E9009091E800977F4E
:104020009093E8008093F1001092F10071C1282F65
:104030002D7F09F0A9C1882319F0823061F0A4C155
:1040400080915102813009F09FC1933009F080E0E6
:1040500080934C022EC08091510281112AC0809120
:1040600053028F702FEF280F263008F08DC18093F8
:10407000E9002091EB0020FF1CC0933021F48091D7
:10408000EB00806214C09091EB0090619093EB0084
:1040900021E030E0A90102C0440F551F8A95E2F7E4
:1040A0004093EA001092EA008091EB0088608093D0
:1040B000EB001092E9008091E800877F8093E80090
:1040C0000E94E11D61C181115FC1109151021F77F2
:1040D0008091E3008078812B8093E3008091E80059
:1040E000877F8093E8000E94E11D8091E80080FFB7
:1040F000FCCF8091E30080688093E300111102C03F
:1041000082E001C083E080934D023EC1805882303E
:1041100008F03AC120915102309152022C3D53E0F7
:10412000350779F583E08A838AE289834FB7F8946B
:10413000DE01139620E03EE051E2E32FF0E05093E1
:104140005700E49120FF03C0E295EF703F5FEF70EE
:104150008E2F90E0EA3010F0C79601C0C0968D9384
:104160009D932F5F243149F74FBF8091E800877FEF
:104170008093E8006AE270E0CE0101960E94351E4D
:10418000B5C08091530290915402432F552743307C
:104190005105A9F068F44130510509F404C14230D9
:1041A000510509F0F1C08BE790E0E1E1F6E04BC08A
:1041B0004132510529F14232510589F1E5C0C90169
:1041C000992781309105A1F058F0029709F0DCC0E1
:1041D000EEE9F6E0E4918E2F90E0EEE9F6E030C0F3
:1041E000E8ECF6E0E4918E2F90E0E8ECF6E028C0F1
:1041F000E0EBF6E0E4918E2F90E0E0EBF6E020C0FB
:104200008430910508F0C0C0880F991FFC01E35964
:10421000FE4F0190F081E02D89E090E014C08430E1
:10422000910508F0B1C0FC01EE0FFF1FEB59FE4FE6
:104230000190F081E02DDC01AF59BE4F8C9190E0F0
:10424000009709F4A1C02091E800277F2093E8009F
:1042500020915502309156028217930708F49C0171
:1042600040E02115310589F180914D02882309F440
:104270003DC08530D9F18091E80083FD37C0809141
:10428000E80082FD2FC08091E80080FFEACF4091D6
:10429000F3008091F20090E0942B2115310559F044
:1042A0008830910540F444914093F10031962150BB
:1042B00031090196F2CF41E0089709F040E0809182
:1042C000E8008E778093E800CCCF4111CDCF0AC0B3
:1042D00080914D02882351F0853041F08091E800B3
:1042E00083FD04C08091E80082FFF2CF8091E80056
:1042F0008B778093E80048C0803809F045C08091F2
:10430000E800877F8093E80080914E028093F1005F
:104310008091E8008E77D2CE811136C08091510213
:1043200090915202992702977CF58091E800877F4F
:104330008093E8001091510210934E020E94E11DFB
:10434000111106C08091E30087FD02C081E001C029
:1043500084E080934D0242E061EC81E00E94001E07
:1043600042E261EC84E00E94001E42E261EC82E0E5
:104370000E94001E42E260EC83E00E94001E42E2C6
:1043800061EC85E00E94001E8091E80083FF10C070
:104390008091E800877F8093E8008091EB00806245
:1043A0008093EB0005C082E190E0ECE8F6E04BCFB3
:1043B000AA960FB6F894DEBF0FBECDBFDF91CF91A6
:1043C0001F9108951F920F920FB60F9211242F93F1
:1043D0003F934F935F936F937F938F939F93AF938D
:1043E000BF93CF93DF93EF93FF93C091E900CF701A
:1043F0008091EC00D82FD17080FDD0E81092E900B8
:104400008091F000877F8093F00078940E94091FCC
:104410001092E9008091F00088608093F000CD2B2D
:10442000CF70C093E900FF91EF91DF91CF91BF91E1
:10443000AF919F918F917F916F915F914F913F913C
:104440002F910F900FBE0F901F901895E8EDF0E0A0
:1044500080818E7F80831092E2001092DA001092A9
:10446000E100A0EEB0E08C9181608C9380818F7729
:10447000808319BCA7EDB0E08C918E7F8C938081F6
:104480008F7E8083109240020895CF92DF92EF9248
:10449000FF920F931F93CF93DF93C8EDD0E08881F5
:1044A0008F7E8883E7EDF0E080818160808384E007
:1044B00082BF81E08093400288818E7F888302EEF4
:1044C00010E0F80110821092DA0081EEC82ED12C93
:1044D000F601108288818F7788838881806888833D
:1044E00088818F7D888319BC10924D0210924E02F4
:1044F00010924C0210924B0290EEE92EF12CF70133
:1045000080818B7F808388818160888342E060E046
:1045100080E00E94001EF60180818E7F8083F8017A
:10452000808181608083808188608083F7018081C1
:104530008E7F8083888180618883DF91CF911F91F6
:104540000F91FF90EF90DF90CF9008951F920F9200
:104550000FB60F9211242F933F934F935F936F9356
:104560007F938F939F93AF93BF93EF93FF9380912C
:10457000E10082FF49C08091E20082FF45C0809146
:10458000E1008B7F8093E10020913F022F5F822F1B
:1045900062E30E949B30992319F020933F0234C0BC
:1045A00010923F0280913E02882371F180914D026A
:1045B000843041F58091E9008F702091EC00922FBA
:1045C000917020FD90E8892B95E09093E9009091FF
:1045D000EB0090FF14C09091EE0097FF10C09091F7
:1045E000E80095FF03C01092F100F9CF9091E80028
:1045F00090FF05C09091E8009E779093E8008F703F
:104600008093E90010923E028091DA0080FF32C070
:104610008091D80080FF2EC08091DA008E7F809339
:10462000DA008091D90080FF1CC080E189BD82E161
:1046300089BD09B400FEFDCF81E080934D028DEF6E
:1046400095E00E94330980914002811113C00E94BD
:1046500026220E9445228091E20084608093E2003D
:1046600009C019BC10924D0281E096E00E94330906
:10467000109240028091E10080FF1BC08091E20017
:1046800080FF17C08091E2008E7F8093E2008091CE
:10469000E20080618093E2008091D8008062809384
:1046A000D80019BC85E080934D0285E096E00E9419
:1046B00033098091E10084FF32C08091E20084FFE1
:1046C0002EC080E189BD82E189BD09B400FEFDCF25
:1046D0008091D8008F7D8093D8008091E1008F7EFB
:1046E0008093E1008091E2008F7E8093E2008091D0
:1046F000E20081608093E20080914E02882311F0F5
:1047000084E007C08091E30087FD02C081E001C022
:1047100083E080934D0289E096E00E943309809106
:10472000E10083FF2BC08091E20083FF27C08091CE
:10473000E100877F8093E10082E080934D02109238
:104740004E028091E1008E7F8093E1008091E20033
:104750008E7F8093E2008091E20080618093E2008E
:1047600042E060E080E00E94001E8091F0008860DE
:104770008093F0008DE096E00E943309FF91EF9165
:10478000BF91AF919F918F917F916F915F914F9169
:104790003F912F910F900FBE0F901F901895209171
:1047A000E4003091E50095E64091EC00842F8170A3
:1047B00040FF23C08091E80080FD1DC080914D0224
:1047C000882399F0853099F08091EB0085FD11C028
:1047D0004091E4005091E5002417350729F39150EA
:1047E00011F09A01E1CF84E0089582E0089583E01A
:1047F000089581E0089580E008954091E80042FF27
:10480000DDCF0895EF92FF920F931F93CF93DF9325
:104810007C018B010E94CF23811119C0E701011592
:104820001105A1F08091E80085FD0AC08091E800A3
:104830008E778093E8000E94CF23882381F307C0FE
:1048400089918093F10001501109E9CF80E0DF9157
:10485000CF911F910F91FF90EF900895EFE9F2E053
:10486000438121E1421B08F440E021E06281818123
:104870000C94C12CEFE9F2E0438121E1420F08F4EE
:104880004FEF21E0628181810C94C12CEFE9F2E0CD
:10489000628121E1621B08F460E021E043818181B3
:1048A0000C94C12CEFE9F2E0628121E1620F08F47F
:1048B0006FEF21E0438181810C94C12CEFE9F2E09C
:1048C000818121E04381628188500C94C12CEFE901
:1048D000F2E0818121E043816281885F0C94C12CE8
:1048E00080910F011F928F93809110011F928F93DF
:1048F00080910D011F928F9380910E011F928F93D3
:1049000080910B011F928F9380910C011F928F93C6
:104910008CEA9BE09F938F930E94CC098DB79EB742
:104920000E960FB6F8949EBF0FBE8DBF0895CF931D
:10493000C82F1F928F9380E49DE09F938F930E94D6
:10494000CC0981E001C0880FCA95EAF70E94A92E20
:104950000F900F900F900F90CF910C94D92E8091C3
:104960009F02982F9695913021F0817082608093FC
:104970009F020895CF92DF92EF92FF926B017C012C
:104980000E94AF24B701A60188E090E0FF90EF906D
:10499000DF90CF900C94793080919F0280FF36C0D9
:1049A0008170826080939F026623B1F060919F02C4
:1049B0007091A0028091A1029091A2020E94BA245B
:1049C00080916B0280FF19C080919F0286951F9293
:1049D0008F938DEA9DE009C080916B0280FF0DC02E
:1049E0001F9281E08F938FE89DE09F938F930E94A9
:1049F000CC090F900F900F900F9020E04091A202F1
:104A00006091A1028091A0020C94C12C0895809124
:104A10009F028695815009F481E061E00C94CC24DA
:104A200061E081E00C94CC24EFE9F2E083E0808344
:104A300011828FEF828383831482608171818281EE
:104A400093810C94BA2480916B0283FF7EC08CE624
:104A50009DE00E943309809166021F928F9387E642
:104A60009DE09F938F930E94CC0985E69DE00E9474
:104A7000330980916702282F082E000C330B3F93D7
:104A80008F9382E69DE09F938F930E94CC0980E6EE
:104A90009DE00E94330980916802282F082E000CA7
:104AA000330B3F938F938DE59DE09F938F930E94EF
:104AB000CC098BE59DE00E94330980916902282F83
:104AC000082E000C330B3F938F9388E59DE09F9356
:104AD0008F930E94CC0986E59DE00E943309809166
:104AE0006A02282F082E000C330B3F938F9383E527
:104AF0009DE09F938F930E94CC0980E59DE00E94EA
:104B00003309809160021F928F938DE49DE09F9303
:104B10008F930E94CC098BE49DE00E943309809121
:104B20005F021F928F9388E49DE09F938F930E9472
:104B3000CC0985E49DE00E9433098DB79EB74C9661
:104B40000FB6F8949EBF0FBE8DBF0E94C12A209160
:104B50006702211104C020916802222321F0909362
:104B600064028093630220916902211104C02091A4
:104B70006A02222321F09093620280936102E09105
:104B8000A902F091AA02309749F082E08093650271
:104B90000480F581E02D85E692E009940895803F38
:104BA00039F49091680297FF35C01092680259C09D
:104BB000813F29F4909168021916BCF32BC09091A3
:104BC0006702823F29F497FF25C01092670249C00F
:104BD000833F19F41916CCF31DC090916902893FE7
:104BE00029F41916BCF4109269023BC08A3F19F4EB
:104BF00097FF10C0F8CF8B3F39F490916A0297FF6E
:104C000009C010926A022DC08C3F21F490916A0273
:104C10001916BCF39CE0980F953080F421E030E049
:104C2000A90102C0440F551F9A95E2F7CA01809569
:104C30009091660289238093660213C08D3F21F410
:104C400080915F028E7F0BC08E3F21F480915F02C6
:104C50008D7F05C08F3F29F480915F028B7F809309
:104C60005F0280916702811106C080916802811104
:104C700002C01092600280916902811106C0809189
:104C80006A02811102C010925E02089580915F0253
:104C900080FF08C06091100170E07595679575956B
:104CA000679521C081FF06C06091100170E0759585
:104CB000679519C082FF04C06091100170E010C0B8
:104CC00090915E02992399F060910F019617A0F7D9
:104CD00080911001899FC001112470E00E94BB30B7
:104CE0006038710540F46115710519F406C061E082
:104CF00070E0862F08958FE7089581E008958091F0
:104D00005F0280FF0BC060910E0185E0689FB001DB
:104D1000112475956795759567952BC081FF09C01E
:104D200060910E0185E0689FB0011124759567952B
:104D300020C082FF07C060910E0185E0689FB0012E
:104D4000112417C0909160029923D1F060910D0158
:104D5000961788F720910E0185E0289F9001112475
:104D6000929FA001939F500D112470E0CA010E94F0
:104D7000BB306038710540F46115710519F406C047
:104D800065E070E0862F08958FE7089581E008952B
:104D9000803F21F40E947F26819504C0813F29F441
:104DA0000E947F26809368020895823F21F40E942A
:104DB0007F26819504C0833F29F40E947F2680933B
:104DC00067020895893F19F40E94462605C08A3F6C
:104DD00031F40E94462681958093690208958B3FA5
:104DE00021F40E944626819504C08C3F29F40E943C
:104DF000462680936A0208959CE0980F953078F4D7
:104E000021E030E0A90102C0440F551F9A95E2F756
:104E1000CA0190916602892B8093660208958D3FA6
:104E200021F480915F0281600BC08E3F21F480915C
:104E30005F02826005C08F3F29F480915F02846029
:104E400080935F020895883220F58E3108F068C0A3
:104E50008B3091F1C0F4873009F0BEC08EE18093B1
:104E60000C0182E380930B018AE080930E0184E1C0
:104E700080930D0188E08093100188E280930F01F8
:104E80008EE09DE0C6C0833109F443C0843169F1EE
:104E9000A3C08F3409F49EC028F4893231F18833DD
:104EA00059F09AC0813531F008F4D4C0823509F444
:104EB000A7C092C08FEFA5C080E39DE00E94330998
:104EC0000E9470241F9281E08F931F9285E08F9340
:104ED00089E29CE09F938F930E94CC090F900F90E2
:104EE0000F900F900F900F9096C08DE29DE00E9462
:104EF000330980915D02882309F4AAC010925D02F3
:104F000010925C0210925B0210925A0210925902A7
:104F1000B1C08FE19DE00E9433090E9470247BC0E4
:104F20008D5180935D02833031F170F48130D1F086
:104F3000823009F03FC08BE091E090935C02809357
:104F40005B0282E891E01FC0853059F108F186309C
:104F500089F58FE091E090935C0280935B028DEB8A
:104F600091E011C08CE091E090935C0280935B0231
:104F700089E791E008C08EE091E090935C02809315
:104F80005B028EE891E090935A028093590218C018
:104F90008DE091E090935C0280935B028BE991E05D
:104FA000F2CF80E191E090935C0280935B028AEA09
:104FB00091E0E9CF10925D028CE19DE00E943309FF
:104FC00080915D02882309F455C01F928F9388E178
:104FD0009DE00DC08AE015C08BE09DE01AC097FFF0
:104FE00047C0108280811F928F9385E09DE09F9340
:104FF0008F930E94CC090F900F900F900F900BC0D1
:1050000081E0E0915B02F0915C02309729F582E04B
:105010009DE00E94330920915D02222359F1809185
:10502000590290915A02009711F485E791E09F93FD
:105030008F931F922F9389EF9CE09F938F930E94F1
:10504000CC090F900F900F900F900F900F9016C0FB
:1050500080E0089586EFD5CF2081082E000C990BB3
:10506000820F911D8F3F910509F00CF4B8CF8FEF9F
:105070008083B8CF85EF9CE00E94330981E00895DA
:10508000EF92FF920F931F93CF93DF938B3109F42D
:10509000FCC008F092C08B3009F4B5C008F07CC0A9
:1050A000863009F4B3C020F4853009F4C1C05DC175
:1050B000873009F4CFC0883009F057C183E090E011
:1050C0000E9453301F928F938AEF97E09F938F93A4
:1050D0000E94CC0982E090E00E94533083FB992724
:1050E00090F91F929F9382FB992790F91F929F93AB
:1050F00081FB992790F91F929F93982F91701F928F
:105100009F931F928F9381EB97E09F938F930E94C1
:10511000CC090E947E1A87FB222720F91F922F9329
:1051200086FB222720F91F922F9385FB222720F947
:105130001F922F9384FB222720F91F922F9383FB2A
:10514000222720F91F922F9382FB222720F91F92FA
:105150002F9391FB222720F91F922F93292F217043
:105160001F922F9381FB222720F91F922F93282F24
:1051700021701F922F939F938F938CEC96E09F93B7
:105180008F930E94CC098DB79EB788960FB6F8947E
:105190009EBF0FBE8DBF35C0803109F49EC020F484
:1051A0008E3009F486C0E1C0863109F4B3C089317C
:1051B00009F0DBC081EE99E0AAC08A32E1F060F428
:1051C000873209F4CEC028F48E3108F4CEC08D5158
:1051D000C9C0893269F1C9C0833448F48A3308F000
:1051E000BEC0853309F4BDC0883369F0BEC08334C6
:1051F00009F4B7C0BAC08BE99BE00E9433090E9452
:105200009A1AC1E0B7C087E198E081C080916B0233
:10521000817F8E7F80936B028AEB99E00E94330935
:1052200087E99BE00E94330981E080935802E9CF2F
:105230008BE79BE00E9433090E94D92E9FEF24E365
:105240008CE0915020408040E1F700C000000E94B7
:105250005C2AD7CF80916B02C82FC095C170C0FB6C
:1052600080F980936B02CC2329F08FE69BE00E94AB
:10527000330980C082E69BE00E94330980916B0273
:10528000897F877F80936B02BCCF90916B0291FBEB
:10529000CC27C0F981E0C827892FC0FB81F9809312
:1052A0006B02CC2319F085E59BE027C087E49BE0E7
:1052B0002EC090916B0292FBCC27C0F981E0C827E9
:1052C000892FC0FB82F980936B02CC2319F088E30D
:1052D0009BE013C088E29BE01AC090916B0293FBA5
:1052E000CC27C0F981E0C827892FC0FB83F98093C0
:1052F0006B02CC2351F08CE19BE00E94330980913A
:105300006B02816080936B0235C08FE09BE00E944E
:10531000330977CF0E94B52A162F072FF82EE92ED2
:10532000D0914102C0910A010E94492BEF92FF9255
:105330000F931F931F92DF931F92CF931F928F9310
:1053400082EA9AE09F938F930E94CC098DB79EB713
:105350000C960FB6F8949EBF0FBE8DBF52CF8953E7
:1053600001C080E00E9497244CCF8DE09BE00E941A
:105370003309C0E08C2FDF91CF911F910F91FF90E7
:10538000EF90089580914202089524E02093E9006F
:105390002FEF3091E800215035FD06C035ED3A95EC
:1053A000F1F700002111F5CF2091E80025FF0BC097
:1053B00040E050E066E070E00E9402248091E80046
:1053C0008E778093E8000895CF93DF9321E02093B8
:1053D000E9002FEF3091E800215035FD06C035ED92
:1053E0003A95F1F700002111F5CF2091E80025FF53
:1053F00014C0EC0140E050E068E070E00E9402243C
:105400008091E8008E778093E80088E0FE01A3E4B5
:10541000B2E001900D928A95E1F7DF91CF91089566
:105420008091A302882319F081508093A302609198
:105430009F027091A0028091A1029091A2020C940F
:10544000BA248091A302833018F48F5F8093A30263
:1054500060919F027091A0028091A1029091A2029E
:105460000C94BA2490914D02943029F58093B202A5
:105470007093B4026093B3029093E9008FEF909120
:10548000E800815095FD06C095ED9A95F1F7000072
:105490008111F5CF8091E80085FF0DC040E050E01C
:1054A00063E070E082EB92E00E9402248091E800C9
:1054B0008E778093E800089581E08093E00080E299
:1054C0008093D8001092C9008FE19EE40197F1F714
:1054D00000C0000087E090EBDC018093CA0290934B
:1054E000CB02A093CC02B093CD029CE088E10FB632
:1054F000F894A895809360000FBE90936000FFCF52
:1055000078941F920F920FB60F9211248F939F934E
:10551000AF93BF938091AE029091AF02A091B00281
:10552000B091B1020196A11DB11D8093AE0290937E
:10553000AF02A093B002B093B102BF91AF919F911F
:105540008F910F900FBE0F901F9018959C014FB731
:10555000F8948091AE029091AF02A091B002B09108
:10556000B1024FBF821B930B08952FB7F89460913F
:10557000AE027091AF028091B0029091B1022FBF44
:1055800008952FB7F8948091AE029091AF02A09148
:10559000B002B091B1022FBF08951F920F920FB6C3
:1055A0000F9211248F939F93AF93BF938091AD027D
:1055B000811113C08091AE029091AF02A091B00210
:1055C000B091B1024196A11DB11D8093AE0290939E
:1055D000AF02A093B002B093B102BF91AF919F917F
:1055E0008F910F900FBE0F901F9018959C012A5F0E
:1055F0003F4FFC014281461301C01282019682177F
:105600009307B9F708959C01FC0132969FEF80E063
:105610004191461789F09F3F19F4411101C0982F1D
:105620008F5F8630A9F79F3F39F0F901E90FF11D2F
:1056300097FDFA956283089508952091AB02309109
:10564000AC022817390771F09093AC028093AB023B
:10565000E091A902F091AA02309721F00084F1852F
:10566000E02D099408952091A7023091A8022817EF
:10567000390771F09093A8028093A702E091A902E4
:10568000F091AA02309721F00680F781E02D09946D
:105690000895E091A902F091AA02309721F00190BB
:1056A000F081E02D099480E008950F931F93CF932C
:1056B000DF93C42FD22FFC0182818823C9F040934D
:1056C000A6020E94C12A9093A5028093A40280E2C0
:1056D0008C0F883008F057C0C77081E001C0880F78
:1056E000CA95EAF7DF91CF911F910F910C94DA2DB3
:1056F0008091A602481330C08091A4029091A50227
:105700000E94A62A883C910538F510E21D0FCD179E
:10571000B9F080E28C0F883040F4C77081E001C09E
:10572000880FCA95EAF70E94CF2D183028F581E03E
:105730009D2F977001C0880F9A95EAF70E94DA2D85
:10574000802F0E9435301830F0F4D77081E001C00E
:10575000880FDA95EAF70AC080E28C0F883098F457
:10576000C77081E001C0880FCA95EAF7DF91CF9139
:105770001F910F910C94CF2D802FDF91CF911F910E
:105780000F910C943530DF91CF911F910F910895B7
:10579000CF93DF93C7EED1E060E0CE010E94673087
:1057A0002196C11584E0D807B9F7DF91CF9108950C
:1057B000CF92DF92EF92FF920F931F93CF93DF93DD
:1057C000C0E0D0E08E0100591F4F6E018EE0C80E80
:1057D000D11CFE01EB5EF04FE590F4906F2DCE01F1
:1057E00087960E9467306E2DCE0188960E946730A2
:1057F0002296CC15DD0569F70C171D0731F7E80176
:10580000003C1140F9F6DF91CF911F910F91FF906D
:10581000EF90DF90CF9008950F931F93CF93DF9376
:10582000C42FD0E0CC0FDD1F2EE0629FC00DD11D34
:10583000112430E7839FC00DD11D1124CE0187961E
:105840000E945330082F10E0102F0027CE018896B9
:105850000E9453309801282BC901DF91CF911F91ED
:105860000F910895462F843038F4783028F467304B
:1058700018F4672F0C940C2C80E090E00895CF93DF
:10588000C82F811102C06FEF01C061E283E290E096
:105890000E946730C11102C06FEF01C061E184E274
:1058A00090E00E946730C11102C06FEF01C066E254
:1058B00085E290E0CF910C94673080E00E943F2C0D
:1058C00060E086E290E00E9467300E94D82B0E9440
:1058D000C82B81E00C943F2C83E290E00E9453306F
:1058E000813281F484E290E00E945330813151F49E
:1058F00085E290E00E94533091E0863209F090E01A
:10590000892F01C080E081700895882311F0FA0189
:1059100001C0FB01099480919F0280FF0AC0269A72
:1059200085B18F7B95B190642FB7F894ECE6F2E0E7
:105930000BC0ECE6F2E0118210821282339632E064
:10594000EF39F307C1F7EBCF32E0EF39F30789F016
:10595000319148E095B9000000C037FF85B9330F99
:10596000000000C000C000C085B900C04A9591F792
:10597000EBCF2FBF8FE594E00197F1F700C0000057
:1059800008959F92AF92BF92CF92DF92EF92FF92D3
:105990000F931F93CF93DF9390919F0290FFDEC0F0
:1059A000922E142FD62FC82F9E7F923009F08DC0D3
:1059B000E42FF0E0611106C0E753F24FE491FE2FAF
:1059C0002E2F72C0E62EF12CE753F24FF4910F2FD9
:1059D000CF2ED12C26E0829FC00111242FEF30E082
:1059E000B9010E94A7304BEA4603C001479F900DC2
:1059F00011248C0F911D8C0F911DB82EBB0CB80E6D
:105A0000A9014E195F094C9DC0014D9D900D5C9DF3
:105A1000900D1124E92FDB9DA0011124452F55275E
:105A2000D901A41BB50BAC9DA001AD9D500DBC9D33
:105A3000500D1124D901AB19B1095D01AE9CD00103
:105A4000AF9CB00DBE9CB00D1124AB2FBB272A1B01
:105A50003B0B2C9DD0012D9DB00D3C9DB00D112414
:105A60002B2F6230710591F048F461157105E1F05A
:105A700061307105B9F42F2FF52F16C06430710510
:105A800069F040F06630710579F00CC02F2FF92FC6
:105A9000EB2F0AC0F92FE02F252F06C0292FEF2F5B
:105AA000FB2F02C0292FE52FACE6B2E08FE992E090
:105AB0001196FC9311972C931296EC9312971396D0
:105AC0008A179B07A9F70E948B2CC093A002D09342
:105AD000A1021093A202992049F160919F02709156
