:100000000C942D030C9474030C9474030C947403DB
:100010000C9474030C9474030C9474030C94740384
:100020000C9474030C9474030C9480240C94BC23DF
:100030000C94A1280C9474030C9474030C94740312
:100040000C9474030C9445170C9474030C9474036F
:100050000C9474030C9454280C9474030C9474033F
:100060000C9474030C9474030C9474030C94740334
:100070000C9474030C9474030C9474030C94740324
:100080000C9474030C9474030C9474030C94740314
:100090000C9474030C9474030C9474030C94740304
:1000A0000C9474030C9474030C9474031F0A1F0AB9
:1000B0005A0A5A0AB40AD20ADC0BDC0BDD0A510BCD
:1000C000620B620BB210B510CF10DC10E3100311FD
:1000D0000611481169110D120D12741176117B1160
:1000E000A111C411C711CA11ED11D021F7219E230E
:1000F000F7219E23432266229E235B236B234A2BF8
:100100004A2B5D2B5D2B532B5D2B5D2B5D2B4A2BDF
:100110004A2B582B5D2B5D2B582B00000000000054
:1001200000000000000000000000000000000000CF
:1001300000000000000000000000000000007E0F32
:1001400000D4FFFFFFC7000000780000000000009F
:1001500000002A2B28000000000000000000000022
:10016000000000000029000000002C1E3420212285
:1001700024342627252E362D3738271E1F202122EE
:10018000232425263333362E37381F040506070867
:10019000090A0B0C0D0E0F10111213141516171857
:1001A000191A1B1C1D2F3130232D35040506070895
:1001B000090A0B0C0D0E0F10111213141516171837
:1001C000191A1B1C1D2F3130354C00047F3F1F6452
:1001D0003214643214783C1E1E140A050001010119
:1001E00001010101010102020202020202020203F4
:1001F00003030303030303040404040404040505C4
:100200000505050606060606070707070708080886
:1002100008090909090A0A0A0B0B0B0C0C0C0D0D35
:100220000D0E0E0E0F0F0F101011111112121313CD
:100230001414151516161717181819191A1A1B1B46
:100240001C1D1D1E1E1F20202122222324242526A2
:1002500026272829292A2B2C2D2D2E2F30313232DA
:10026000333435363738393A3B3C3D3E3F404142E6
:10027000434445464748494A4C4D4E4F50515354CC
:10028000555658595A5B5D5E5F6162646566686980
:100290006B6C6D6F7072737577787A7B7D7E808200
:1002A000838587888A8C8E8F91939596989A9C9E49
:1002B000A0A2A3A5A7A9ABADAFB1B3B5B7BABCBE59
:1002C000C0C2C4C6C9CBCDCFD1D4D6D8DBDDDFE226
:1002D000E4E7E9EBEEF0F3F5F8FAFDFFFFAA7F554E
:1002E0004005010902A10185020901A100050919C2
:1002F00001290815002501950875018102050109EC
:100300003009311581257F95027508810609381558
:1003100081257F950175088106050C0A3802158133
:10032000257F950175088106C0C005010980A101DE
:10033000850319012AB700150126B700950175102C
:100340008100C0050C0901A101850419012AA00240
:10035000150126A002950175108100C00660FF09F5
:1003600061A1010962150026FF0095207508810230
:100370000963150026FF00952075089102C005014C
:100380000906A101050719E029E7150025019508CF
:10039000750181029501750881010507190029FF82
:1003A000150026FF0095067508810005081901292A
:1003B00005950575019102950175039101C009022A
:1003C0005B00030100A0FA09040000010301010021
:1003D0000921110100012240000705810308000ADC
:1003E000090401000203000000092111010001229B
:1003F00022000705820320000107050303200001F6
:10040000090402000103000000092111010001227A
:100410007B000705840320000A120100020000008F
:100420000812D8040001000102000110034F00630C
:100430000074006F00700061006400000026034E2D
:1004400000650069006C00200042007200690061D4
:10045000006E002000520061006D006900720065AE
:10046000007A000000040309042223252628292AF3
:100470002C2D2F3032333536383A3B3D3E40424307
:100480004547494A4C4E5051535557595A5C5E6046
:1004900062646668696B6D6F71737577797B7D7F58
:1004A00081838587898A8C8E90929496989A9C9E57
:1004B0009FA1A3A5A7A8AAACAEAFB1B3B4B6B8B973
:1004C000BBBCBEBFC1C2C3C5C6C7C9CACBCCCDCEDB
:1004D000D0D1D2D2D3D4D5D6D7D7D8D9D9DADADBBE
:1004E000DBDBDCDCDCDCDCDDDDDDDDDCDCDCDCDC4A
:1004F000DBDBDBDADAD9D9D8D7D7D6D5D4D3D2D289
:10050000D1D0CECDCCCBCAC9C7C6C5C3C2C1BFBE70
:10051000BCBBB9B8B6B4B3B1AFAEACAAA8A7A5A3DB
:10052000A19F9E9C9A98969492908E8C8A8987859A
:1005300083817F7D7B79777573716F6D6B69686679
:100540006462605E5C5A5957555351504E4C4A494B
:1005500047454342403E3D3B3A3836353332302FF3
:100560002D2C2A29282625232214001A00080015DC
:100570000029000400160007000900005CAA00A979
:1005800000BE00BD000000010001000100010001EB
:100590000001000100010001000100010001000153
:1005A0000001000000010001000100010001000144
:1005B0000001000100010001000100010001000133
:1005C0000000000100010001000100010001000124
:1005D0000001000100010001000100010001000014
:1005E0000001000100010001000100010001000103
:1005F00000010001000100010001000100000001F4
:1006000000010001000100010001000100010001E2
:1006100000010001000100010001000000010001D3
:1006200000010001000100010001000100010001C2
:1006300000010001000100010000000100010001B3
:1006400000010001000100010001000100010001A2
:100650000001000100010000000011241FBECFEFC7
:10066000DAE0DEBFCDBF04B603FE27C08091B6033B
:100670009091B703A091B803B091B9038730904B24
:10068000A740B04BD1F41092B6031092B70310926A
:10069000B8031092B90314BE84B7877F84BF0FB626
:1006A000F894A89580916000886180936000109212
:1006B00060000FBEE0E0F8E3099512E0A0E0B1E0D1
:1006C000ECEBF1E602C005900D92A439B107D9F721
:1006D00023E0A4E9B2E001C01D92A63BB207E1F716
:1006E0000E94310C0C94DC300C9400001F93CF93CB
:1006F000DF93CDB7DEB767970FB6F894DEBF0FBEB6
:10070000CDBF4B8B5C8B6D8B7E8B8F8B6111109271
:100710000D0386E09E01235F3F4FD901E82F1D9214
:10072000EA95E9F795E0FE017396D90101900D92E3
:100730009A95E1F79C894E895F897B897D879E87A1
:100740006F87598B488BF901DE01179601900D9246
:100750008A95E1F7CE0107960E94DB1D81113EC00C
:1007600086E0FE013796DE01119601900D928A9582
:10077000E1F7FF81E8856A857B856115710531F0B8
:10078000EF3F31F481E0FF3F19F403C081E001C085
:1007900080E080FD23C02091D90230E0C90101969C
:1007A0008770992740910A0350E08417950779F1E3
:1007B000F983EA837D836C8396E0929FD001939FB7
:1007C000B00D1124A652BD4FFE01319601900D923D
:1007D0009A95E1F78093D9020E94581D16E0809106
:1007E0000A039091D9028917F9F0189FC0011124CA
:1007F00086529D4F0E94DB1D8823B1F080910A0331
:1008000090E001968770992780930A03E8CF0E94B1
:10081000612B1092D90210920A03E3EDF2E086E018
:10082000DF011D928A95E9F767960FB6F894DEBF4F
:100830000FBECDBFDF91CF911F9108953F924F9290
:100840005F926F927F928F929F92AF92BF92CF9260
:10085000DF92EF92FF920F931F93CF93DF93CDB769
:10086000DEB729970FB6F894DEBF0FBECDBFFC01EF
:100870008081918123813481232B31F09F3F31F49A
:1008800091E08F3F19F403C091E001C090E090FD2A
:10089000D0C77F0185E0DE01119601900D928A9507
:1008A000E1F7F701228189819A81222349F00E9490
:1008B0008E2A182F682F89819A810E94EA2A03C004
:1008C0000E94BD2A182F69817A81812F0E94062AF1
:1008D0008C01F70182810032FCE51F0769F488234F
:1008E00009F4CCC160913B0361FB992790F981E049
:1008F000892780FB61F90AC001322CE5120769F4EF
:10090000882309F4BBC160913B03626060933B03A1
:1009100087E090E00E94B02DB1C102323CE51307A0
:1009200061F48823E9F060913B036D7F60933B03A2
:1009300087E090E00E94B02D13C00532FCE51F0750
:1009400009F07CC1882361F080E090E0ACEDB3E475
:1009500080931C0190931D01A0931E01B0931F0171
:1009600080913B0380FF73C081FF71C0F7018281DA
:10097000882309F46CC0C8018E519C45029708F485
:1009800066C060911C0170911D0180911E019091C3
:100990001F019B01AC010E94482E4B015C010E948B
:1009A0008C2DBC01990F880B990B0E945C2F20E0C5
:1009B0003EEF4FEF56E40E94B92E2DEC3CEC4CE498
:1009C0005DE30E94113020E030E040E85FE30E94E8
:1009D000482EA50194010E94113060930C01709380
:1009E0000D0180930E0190930F010E948C2DBC018C
:1009F000990F880B990B0E945C2F20E03EEF4FEF80
:100A000056E40E94B92E2DEC3CEC4CE45DE30E94D0
:100A1000113020E030E040E85FE30E94482E209152
:100A20001C0130911D0140911E0150911F010E9437
:100A30001130609314017093150180931601909307
:100A4000170163E070E084E091E00E946320F70109
:100A50009281992309F43EC1980122513F452031EA
:100A6000310508F065C18FEF93E00E949C2D811144
:100A70003BC1025137E1832E99249394002379F0EE
:100A80008114F4E09F0609F42FC1C4010E949C2D3B
:100A9000811101C001502FEF821A920AEFCF1E82FE
:100AA0001F8218861986442443942AE0322E84013A
:100AB0000F5F1F4FC4010E949C2D8E831F828823CD
:100AC00009F412C19FEF980F933060F48F834E8228
:100AD00032E0830E911CC8010E949C2D88878111F1
:100AE00002C002C148018E010A5F1F4FF801208138
:100AF0002223E9F2213009F04CC08181813049F490
:100B00006801F2E0CF0ED11CF80182810E948C2C8A
:100B10000AC0823051F46801F2E0CF0ED11CF80116
:100B200082810E94E82B860186C0833049F46801E7
:100B3000F2E0CF0ED11CF80182810E94812BF3CF0D
:100B4000843019F00F5F1F4F76C0F80122810E5FCD
:100B50001F4F80E090E030E0205331092A3031050A
:100B600068F4389EA001399E500D1124C901840FEC
:100B7000951F0F5F1F4FF8012081EDCF009709F4FB
:100B80005AC0EFE9FFE03197F1F700C0000001978C
:100B9000F5CFE22FF0E0E65BFE4F5490822F869572
:100BA0008695869590E0FC01E65CFE4F6490277088
:100BB000712C022E02C0759467940A94E2F7F1E05A
:100BC0006F227724FC01E65DFE4FA490B12C022E2B
:100BD00002C0B594A7940A94E2F731E0A322BB24A3
:100BE000FC01E65EFE4FC490D12C02C0D594C794A0
:100BF0002A95E2F781E0C822DD246114710419F01E
:100C000081EE0E94E82BA114B10419F086EE0E9437
:100C1000E82B852D0E948C2CAB2819F086EE0E94C3
:100C2000812B672819F081EE0E94812BCD2819F0C5
:100C30008CE20E948C2C0F5F1F4F58CF03322CE5A3
:100C40001207E1F4882309F48BCE29E038E348E960
:100C50005FE360911C0170911D0180911E019091D4
:100C60001F010E9411304B015C0120E030E84BEB8A
:100C700054E40E94B42E87FF73CE23C004323CE5B7
:100C8000130709F06DCEF7018281882309F468CE3D
:100C900029E038E348E95FE360911C0170911D0190
:100CA00080911E0190911F010E94B92E4B015C01A1
:100CB00020E030E042E852E40E940C3018160CF0BC
:100CC0004FCE80921C0190921D01A0921E01B09205
:100CD0001F0146CE00313FE5130709F0A1C581E0B1
:100CE0000E941A2B0E94DF2080910B03877009F469
:100CF000A0C5F7018281882309F49BC582E029966B
:100D00000FB6F894DEBF0FBECDBFDF91CF911F911C
:100D10000F91FF90EF90DF90CF90BF90AF909F909A
:100D20008F907F906F905F904F903F900C943B1D01
:100D30000031FFE51F0711F481E005C001312FE507
:100D4000120721F482E00E94262BCCCF0D318CE5D6
:100D5000180731F4992309F4EDC10E94EB2CC4CF9C
:100D60000E31ECE51E0731F4992309F4E3C10E942A
:100D7000D12CBACF0F31FCE51F0741F4992309F4B8
:100D8000D9C180913B0380FDF2CFE7CF0A322CE539
:100D9000120761F4992309F4CDC110923D0364E078
:100DA00070E080E291E00E9463209ECF0B323CE530
:100DB000130781F3033FECE51E0749F406E221EE39
:100DC00040EE63EF7CE5C7010E9429298DCF043FE7
:100DD000FCE51F0708F079C1083D2CE5120731F446
:100DE00007E225EE45EE68ED7CE5EDCF093D3CE5FB
:100DF000130731F408E221E045EE69ED7CE5E3CF2D
:100E0000073D8CE5180731F406E221EE41EE67ED6F
:100E10007CE5D9CF992309F48DC11092A103033049
:100E20008DE5180760F40A3FECE51E0768F49801A9
:100E300022503C452431310508F066C105C0013619
:100E4000FDE51F0709F060C10E94681C909398029D
:100E50008093970200312CE5120709F4C8C008F00E
:100E600042C008308CE5180709F49DC0F0F4043046
:100E7000ECE51E0709F481C068F402302CE5120786
:100E800009F477C003301C4509F00FC18091970227
:100E9000826009C106308CE5180709F47CC008F0AF
:100EA0007EC0809197028860FEC00C30ECE51E0782
:100EB00009F48DC068F40A302CE5120709F477C0F4
:100EC00008F081C00E94612B809197028068EBC07E
:100ED0000E308CE5180709F47EC008F084C08091BC
:100EE00097028B7FE0C00C3FECE51E0709F477C04A
:100EF000D8F404312CE5120709F4C1C058F40231CA
:100F00008CE5180709F477C008F07BC08091970240
:100F10008F7BC9C00A3FECE51E0799F1B0F505319A
:100F20001C4509F47AC0C1C001153DE5130709F459
:100F30008DC050F4809198020E3F9CE51907F1F1A5
:100F400008F066C08D7F24C00230FDE51F0709F45C
:100F5000A4C008F4A0C001361D4509F0A6C08091C8
:100F6000970284FB222720F991E0922790FB84F9D5
:100F70009AC080919702816096C0809197028460A8
:100F800092C080919802816003C080919802826033
:100F9000809398028AC080919702806184C080917A
:100FA0009702806280C08091970280647CC08091AB
:100FB000970288608460809397023EC0826081605F
:100FC0008093980250C0809197028E7F6CC0809170
:100FD00097028D7F68C080919702877F64C080915F
:100FE00098028E7FD5CF809197028F7E5CC08091D2
:100FF00097028F7D58C00E94612B809197028F7756
:1010000052C080919702877F8B7F8093970219C08F
:101010008D7F8E7F809398022BC08091970282FBF8
:10102000222720F991E0922790FB82F990FB83F927
:1010300080939702992329F064E070E080E891E0C2
:101040001BC062E070E080E591E016C080919802DC
:10105000982F909591708E7F892B90FB81F98093CA
:101060009802992329F064E070E080E691E004C0E2
:1010700062E070E080E491E00E94632016C00E946C
:10108000612B8091970287FB222720F991E092271C
:1010900090FB87F908C061E001C060E08EE090E05D
:1010A0000E94B02D02C08093970260919702109128
:1010B000980284E090E00E94B02D612F82E290E0DF
:1010C0000E94B02D0E94612B0FCE053FECE51E075C
:1010D00031F406E221EE42EE65EF7CE574CE053F89
:1010E000FCE51F0730F407E225EE44EE64EF7CE5F3
:1010F0006ACE063F2CE5120709F08CCE07E225EEFA
:1011000046EE66EF7CE55FCE80910E0306313CE54E
:10111000130709F58A7A91E009F490E0909396021A
:10112000882311F065E301C069E28BEC92E00E9434
:10113000D7280EC006311C4509F038C180919602AF
:10114000882309F474C365E38BEC92E00E94CA28FB
:101150000E94F41CC9CD82720C3CECE51E0709F418
:10116000C2C008F045C0063C2CE5120709F4A7C030
:10117000D8F4033CECE51E0709F497C030F4023CB8
:101180002CE5120709F46CC0CEC0043C3CE5130703
:1011900009F490C0053CECE51E0709F0C4C045EC1D
:1011A00054E16EEC74E1A3C0093CFCE51F0709F4AF
:1011B00090C078F4073C3CE5130709F485C0083C6F
:1011C000ECE51E0709F0AFC049EB54E16DEA74E1AC
:1011D0008EC00A3CFCE51F0709F480C00B3C2CE5DF
:1011E000120709F0A0C04DE153E16EE273E17FC048
:1011F000013D3CE5130709F486C0A0F40E3CECE584
:101200001E0709F47AC008F475C00F3C2CE51207DC
:1012100009F476C0003D3CE5130709F084C06EE098
:1012200089E079C0043D8CE5180709F472C068F4C0
:10123000023DFCE51F0709F469C0033D2CE51207D8
:1012400009F071C061E088E16BC0053D3CE5130722
:1012500009F464C00D358DE5180709F445CD63C068
:1012600080919A0380FF1BC08E7F80939A036091C8
:101270009A0370919B0380919C0390919D030E941F
:101280000B131092CA029FEFE0E7F2E09150E040AA
:10129000F040E1F700C000000E94B11225CD81604E
:1012A00080939A0361E086953BC049E155E162E293
:1012B00075E11DC042E255E169E175E118C04EECEF
:1012C00054E165EC74E113C04DEA54E169EB74E15B
:1012D0000EC045E954E161EA74E109C041EA54E114
:1012E00065E974E104C04EE253E16DE173E10E94EF
:1012F0006B2AFACC61E081E013C065E082E00BC0AC
:1013000068E086E008C064E18FE005C067E185E140
:1013100002C062E289E10E94592AE6CC61E083E2E0
:101320000E94D714E1CC992309F440C00A352DE579
:101330001207B9F150F401158CE51807A9F00E3D1C
:101340001C45A1F50E94841CCFCC0B35EDE51E0792
:1013500051F10C351D4551F58091980282FB88278B
:1013600080F991E0892720C00E94612B0E94952876
:101370008C0163E070E080EA91E00E946320C80184
:101380000E947A288A3F910538F48FE99FE00197FF
:10139000F1F700C00000F3CF0E94AA2C0E94302871
:1013A000A3CC81E001C080E00E94211DF701828171
:1013B00000811181882349F0C8010E948E2AD82E0D
:1013C000682FC8010E94EA2A04C0C8010E94BD2AF1
:1013D000D82EB8018D2D0E94062A0E94CE1AB82E52
:1013E000192F982EF7010281A580A2949FE0A922CF
:1013F00080910B03877099F0002389F0812F807F03
:10140000803421F080E28B0D883048F082E00E9429
:101410003B1D80910B038770DD24D3948111D12C67
:10142000C12EC2948FE0C8228C2D90E08C309105A3
:1014300008F0C2C1FC01EA5AFF4F0C94A630812F7C
:10144000807F1F70882311F01295107F0023B9F060
:10145000112309F49DC180E28B0D883010F09110AA
:1014600006C080910E03182B10930E0305C08091C7
:101470000D03182B10930D030E94F41C89C18B2DB2
:101480000E94812B112309F497C180E28B0D1095E6
:10149000883010F0911006C080910E03182310932D
:1014A0000E0305C080910D03182310930D030E94B5
:1014B000F41C82C1812F807F1F70803211F0129541
:1014C000107F8B2D992021F0F1E09F1611F130C093
:1014D0000023B1F0AA2081F021E0A2120DC080917A
:1014E000980282FD69C180910F03182B181709F427
:1014F00063C110930F0360C180910F03812B10C053
:10150000AA2021F031E0A31609F456C10E94EE1C76
:1015100027C0002341F085E08A1508F44DC1812FD2
:101520000E94772B49C194E09A1508F445C118C070
:10153000002349F0AA2099F3F701858180FF28C193
:101540008F708583ECCFAA2059F0893309F031C11F
:10155000FFEF27EE33E0F15020403040E1F727C1A4
:10156000812F0E946C2B28C1812F869586958370D0
:1015700019F0813061F020C1002321F08B2D912FD3
:10158000937002C080E090E00E9407291BC10023F5
:1015900021F08B2D912F937002C080E090E00E948B
:1015A000F12810C18B2D002319F00E940F1602C0E4
:1015B0000E9456150E942C1505C1812F8370A9F534
:1015C0000111FEC04B2D429546954770440F440FC4
:1015D0008B2D8F7090E09C01042E01C0220F0A9485
:1015E000EAF7B4FE08C08FE090E001C0880F4A958A
:1015F000EAF7809501C080E01695169513701230B9
:1016000069F088F490911003113019F0822B89232E
:1016100002C0922B892B0E94312BD2C0822B909139
:1016200010038927F8CF822BF6CF002319F0812FE2
:10163000817001C08695882309F4C2C04B2D429564
:1016400046954770440F440F8B2D8F7090E09C019E
:10165000042E01C0220F0A94EAF7B4FE08C08FE0FE
:1016600090E001C0880F4A95EAF7809501C080E0BC
:10167000169516951370123059F078F490912B034B
:10168000113019F0822B892309C0922B892B06C0B7
:10169000822B90912B03892701C0822B0E94162B4D
:1016A0008FC01F70002339F0812F0E94262B8B2DB5
:1016B0000E94772B85C08B2D0E946C2B812F0E945E
:1016C0001A2B7EC08B2D92EF991659F1991538F08F
:1016D000E0EF9E1659F0F1EF9F16F1F055C023EFA1
:1016E000921631F134EF931681F14EC0002379F058
:1016F00084E08A1508F460C01F7181E090E001C0A9
:10170000880F1A95EAF790912B0389271BC095E063
:101710009A1508F451C0F0CF002329F0812F8F7162
:1017200026C00023D9F3812F8F710E941A2B44C049
:10173000002339F01F7181E001C0880F1A95EAF784
:1017400001C080E00E94162B37C0002399F01F7162
:10175000812F0E94262B8091980282FD07C0E8E02D
:101760001E9FC0011124836080930B03812F0E9470
:10177000262B22C081E00E943B1DF1E0FA15E0F427
:1017800082E00E943B1D18C0002331F0AA2031F2F4
:101790008B2D0E94E82B10C0AA2029F2893349F42E
:1017A0002FEF37EE83E0215030408040E1F700C05A
:1017B00000008B2D0E94812B88EF8C0D843010F45B
:1017C0000E941D29DD20A9F180910B0380FD31C00D
:1017D000F70112828595859585950E94262BC70174
:1017E0000E941E0480910B03859585958595299609
:1017F0000FB6F894DEBF0FBECDBFDF91CF911F9122
:101800000F91FF90EF90DF90CF90BF90AF909F909F
:101810008F907F906F905F904F903F900C941A2B19
:1018200001318FE5180709F091CA82E059CA69E2CF
:101830008BCC29960FB6F894DEBF0FBECDBFDF91DB
:10184000CF911F910F91FF90EF90DF90CF90BF90BD
:10185000AF909F908F907F906F905F904F903F9050
:101860000895CF93DF93CDB7DEB7E2970FB6F89424
:10187000DEBF0FBECDBF84B7877F84BF0FB6F8949D
:10188000A89580916000886180936000109260004C
:101890000FBE90E080E80FB6F894809361009093BB
:1018A00061000FBE85B7806885BF85B7806885BF3A
:1018B0008AE799E190939502809394020E94002414
:1018C0000E941F248091E20084608093E20078945B
:1018D000809121038823A1F01091E9001F7090915D
:1018E000EC00892F817090FD80E8182B1092E900A0
:1018F0008091E80083FD0E94EA201F701093E900A8
:1019000082E084BD93E095BD9AEF97BD80936E0011
:101910000E94402A811102C00E94312A82E30E9463
:10192000BF1983E30E94BF190DE012E0D8018D9129
:101930008D018F3F11F00E94BF19B2E002311B07E9
:10194000A9F7109299021092AA0210929A0210928C
:10195000AB0210929B021092AC020E94791C811182
:1019600002C00E94841C82E090E00E949C2D809323
:10197000A6020E94681C90939802809397020E948E
:10198000D619EFE3FCE93197F1F700C000000E949F
:10199000D6198091AA0280FF08C06FEF7FEF80E028
:1019A00090E00E94CE2D0E94302883E090E00E94BB
:1019B0009C2D0E94312B0E94FA2C80919C02811157
:1019C00033C00E94791C811104C00E94841C0E94B3
:1019D0003F1388E090E00E94A42D60939A037093D7
:1019E0009B0380939C0390939D036E7F71F40E94F0
:1019F0003F1388E090E00E94A42D60939A037093B7
:101A00009B0380939C0390939D030E94F812109275
:101A1000CA0280919A0380FF04C060E086950E940C
:101A2000D71481E080939C02F5EA8F2EF2E09F2E7E
:101A30002AE232E04CE252E0A3EA6A2EA2E07A2ED9
:101A400061E070E08614970409F44EC0FA01A19198
:101A5000AF018A2F82958F7090E0FC01F1A0AF70EA
:101A6000EA2E8B0101C0000FAA95EAF7F02FF0953E
:101A7000FF22DC019196FC9291979296AC91A02B5B
:101A8000FC01A2A3D901FD909D01EF2DE295EF701D
:101A9000F0E0B1A0BF2DBF70FB2E6B0101C0CC0CDC
:101AA000BA95EAF7DC2CD094DB20D1A2D2A0CD28C5
:101AB000C2A2DC0190968C9190E002C0959587952A
:101AC000EA94E2F78170E0A1F0E002C0F595E795B5
:101AD000FA94E2F7E0FF02C092E001C090E0892BA7
:101AE000F30181933F01AECF88EB91E09093A50382
:101AF0008093A403E0E44E2E8E010F5F1F4F809170
:101B00002103853009F04BC060E1E62E72E1F72E2B
:101B100080912103853009F03EC0809121038430FB
:101B200029F10E94AA2C1092A80328E130E00FB6F8
:101B3000F894A895209360000FBE4092600083B790
:101B4000817F846083BF83B7816083BF78948895E9
:101B500083B78E7F83BF0FB6F894A89580916000FD
:101B6000886180936000109260000FBE8091200316
:101B7000882309F4CDCF0E94D6198091AA02811141
:101B800076C48091AB02811172C48091AC0288232B
:101B900009F4BECF6CC40E94612B0E941D290E94D3
:101BA000D61981110E948928AAEAB2E0E7EAF2E098
:101BB000E12CF12C3E2D2D919191922721F180E085
:101BC000DD24D394492F4D21D1F089A33AA32D21AF
:101BD00081E009F480E08BA30E9495288160782F32
:101BE0009DA38CA349A15AA16BA18DA10E9476034C
:101BF000F701E955FD4F8081D826D0821BC08F5F49
:101C0000DD0C8530F9F63FEFE31AF30A43E0E41602
:101C1000F10481F68FEF8EA38FA318A60E9495285A
:101C20008160782F9AA789A74EA15FA168A58AA590
:101C30000E9476038091CA02882309F498C080919B
:101C4000C902E0919A03E695E81BE093C502823051
:101C500059F4F0E0E852FE4FE491EE2EF12C52EFF1
:101C6000C52E57E2D52E5EC0863059F4F0E0EB5217
:101C7000FE4FE491EE2EF12C42EEC42E47E2D42E1C
:101C800051C0893061F4E695F0E0EE52FE4FE491E8
:101C9000EE2EF12C38E7C32E37E2D32E43C08F301F
:101CA00061F4E695F0E0E153FE4FE491EE2EF12C65
:101CB00024E1C22E27E2D22E35C0853159F4F0E05E
:101CC000E453FE4FE491EE2EF12C96ECC92E96E2F1
:101CD000D92E28C08831B1F0833249F4EAECF1E022
:101CE000E590F49082EAC82E87E2D82E1BC0843299
:101CF00089F0A0EDEA2EA7E0FA2EB7EBCB2EB5E2E5
:101D0000DB2E10C0E8E2EE2EF12CFDE3CF2EF6E242
:101D1000DF2E08C064EFE62EFF24F39473E0C72E95
:101D200076E2D72E8091C602882361F01092C60217
:101D30000E9495289093C4028093C3021092C80217
:101D40001092C7020E949528E091C302F091C4024C
:101D50008E1B9F0B8F3F9F4750F4EE0EFF1EF0929D
:101D6000C402E092C30283EC92E0F601099591EA85
:101D7000C92E92E0D92E2FE9E22E22E0F22E36E192
:101D8000832E32E0932E4DE9A42E42E0B42E52E190
:101D9000252E52E0352E23EA32E03EA72DA78AE217
:101DA00092E09CA78BA7ACE2B2E0BAABA9AB38AB90
:101DB0002FA7712C612C55245394AFA5B8A98D91F0
:101DC000B8ABAFA7E82FEE0FEE0FA9A9BAA92D91D6
:101DD000BAABA9ABA22FA295AF70B0E090968C9150
:101DE00090E02F7002C0959587952A95E2F79C01A7
:101DF00021703327ABA5BCA58D91BCA7ABA7A82F9D
:101E0000A295AF70B0E090964C9150E08F7002C0F8
:101E1000559547958A95E2F7CA018170992740FF49
:101E200002C082E090E0822B932B8E2BEDA5FEA5C5
:101E30008193FEA7EDA78F70E82FF0E0E65EFD4FDF
:101E40009081D6018C91890F8C938430D4F0F70166
:101E500080818F5F8083D1018D919C919A8389834A
:101E60005B820E9495288160782F9D838C83F50189
:101E7000508249815A816B818D810E94760321E0D5
:101E800001C020E0D6018C918D3FD4F4F701808110
:101E900081508083D4018D919C919A8389835B8248
:101EA0000E9495288160782F9D838C8322E0F50124
:101EB000208349815A816B818D810E94760321E0C4
:101EC000D6018C91082E000C990B64E070E00E9402
:101ED0009230F60181936F01722A6394FFEFEF1A3B
:101EE000FF0A22E0820E911C3FEFA31AB30A42E0E0
:101EF000240E311C82E0681260CF71100E94892884
:101F000086E0EDEBF2E0D80101900D928A95E1F7C1
:101F1000C090BF02D090C002E090C102F090C20217
:101F20001092BF021092C0021092C1021092C2021F
:101F3000C11003C0DD2009F451C08091BB02909113
:101F4000BC020E947A289C019091B702992309F45F
:101F5000ADC22333310508F441C09F3F19F09F5FA4
:101F60009093B702CC2061F00E94EF151C1414F47A
:101F700091E001C09FEF899F802D11248093BF02C3
:101F8000DD2061F00E94EF151D1414F491E001C0F2
:101F90009FEF899F802D11248093C0023091BF0252
:101FA0003323E1F02091C0022223C1F045EB34033A
:101FB000C0011124992319F09093BF0203C081E05E
:101FC0008093BF0235EB2303C0011124992319F03C
:101FD0009093C00203C081E08093C002E11003C06F
:101FE000FF2009F451C08091B9029091BA020E9479
:101FF0007A289C019091B602992309F45CC2253697
:10200000310508F441C09F3F19F09F5F9093B602DD
:10201000EE2061F00E94CD151E1414F491E001C071
:102020009FEF899F802D11248093C102FF2061F0D2
:102030000E94CD151F1414F491E001C09FEF899FF9
:10204000802D11248093C2023091C1023323E1F02C
:102050002091C2022223C1F045EB3403C0011124B8
:10206000992319F09093C10203C081E08093C102CB
:1020700035EB2303C0011124992319F09093C20278
:1020800003C081E08093C2028091BF0281110BC026
:102090008091C002811107C08091C102811103C0EB
:1020A0008091C20281110E942C15CB82DC82ED82CC
:1020B000FE8286E0F801ADEBB2E001900D928A95C8
:1020C000E1F70E941D299091A502891721F00E9435
:1020D0001D298093A50280912103843009F00FCD42
:1020E00083E08093E9008091E80082FF08CD809131
:1020F000E80085FF21C00E94552581111BC080E2A8
:10210000C82ED12C780109C08091F100D7018D93A0
:102110007D01B1E0CB1AD10869F08091E80085FD1E
:10212000F3CF8091E8008B778093E8000E945525DB
:10213000882399F391E001C090E08091E8008B77CB
:102140008093E800992309F4DACCE9818E2F90E09E
:10215000FC013197E331F10508F05FC1EE59FF4F03
:102160000C94A6301A8289E0C4C08A81823009F4B6
:1021700094C1833051F0813009F04FC10E94892809
:102180009B838C837D836E834AC18091AA028B835B
:102190008091AB028C838091AC028D8340C18A8197
:1021A000823009F03AC16B817C818D819E810E94D1
:1021B000AC3086E290E024C04C816B818A810E9421
:1021C000E0299D8371C1ED80FE80FE24EF24FE2472
:1021D0008C81CB809A81EAE0CE9E60011124FEE1E1
:1021E0009F9FC00CD11C1124C80ED11CC80ED11C3D
:1021F0006F2DC60187960E94B02D6E2DC601889660
:102200000E94B02D0CC10E94AC2909C18A8181387D
:10221000B1F050F4803809F002C120E04B816091A8
:102220009C0380919B0331C0823859F1833809F0B7
:10223000F6C020E040919D036C818B8126C060E058
:102240008B810E94D7149B8180919A03911111C0B8
:102250008E7F80939A031092CA022FEF30E742E0FC
:10226000215030404040E1F700C000000E94B11210
:10227000D6C0816080939A0360E086950E94D7144F
:10228000CEC08B8180939E03CAC00E94FE13C7C03C
:102290008A81813899F030F4803809F0C0C080918B
:1022A0009D0327C0823891F0833809F0B8C080912F
:1022B0009B038B8380919C038C83B1C080919A0394
:1022C00080FF02C0869515C080E013C080919E03F8
:1022D00010C060919A0370919B0380919C03909130
:1022E0009D030E940B139BC080E152C082E08A8351
:1022F00089EE8B8394C0EA80FB80FE24EF24FE24C9
:10230000CC80D12C5801C701895E9E4F9501201BBE
:10231000310B2C153D0508F082C0A9EEEA16A2E0AB
:10232000FA0628F40E949C2DF501848303C0D50190
:1023300014961C92BFEFEB1AFB0AEFEFAE1ABE0A1F
:10234000E2CFEA80FB80FE24EF24FE24CC80D12C57
:102350005801C701895E9E4F9501201B310B2C153A
:102360003D0508F05CC0F9EEEF16F2E0FF0628F438
:10237000D50114966C910E94B02DBFEFEB1AFB0AA9
:10238000EFEFAE1ABE0AE5CF0E949C2948C088E054
:102390008A8345C0EA80FB80FE24EF24FE24CC80A3
:1023A000D12C5801C70187969501201B310B2C15A4
:1023B0003D05A8F5F0EFEF16F10430F40E949C2DD6
:1023C000D50114968C9302C0F5011482FFEFEF1A29
:1023D000FF0A2FEFA21AB20AE5CFEA80FB80FE24A3
:1023E000EF24FE24CC80D12C5801C701879695019B
:1023F000201B310B2C153D0590F430EFE316F10452
:1024000028F4D50114966C910E94B02DBFEFEB1A01
:10241000FB0AEFEFAE1ABE0AE8CF8FEF89838091F7
:102420002103843009F06BCB8091E9008F702091FB
:10243000EC00922F917020FD90E8F92EF82A82E0AE
:102440008093E9008091E80080FF0CC040E050E0FC
:1024500060E270E0C8010E9488258091E8008E77D4
:102460008093E8008F2D8F708093E90048CBE9BC02
:10247000F9BC09B400FEFDCF8091D8008F7D809318
:10248000D8008091E00082608093E0008091E000BD
:1024900081FDFCCF0E94612B3BCB86E290E00E9445
:1024A0009C2D1B821C821D828E83B9CF2D32314020
:1024B00008F055CD93CD2D32314008F0A6CDE4CDB6
:1024C000CF92DF92EF92FF926B017C0120E030E02F
:1024D000A9010E94B42E811106C0809180008F73E3
:1024E0008093800039C08091800080688093800054
:1024F000C092AE02D092AF02E092B002F092B1026E
:1025000020E030E040E051E4C701B6010E94113004
:102510009B01AC0160E074E284E79BE40E94B92E69
:102520006B017C010E942B2F7093870060938600C3
:1025300020E030E048E452E4C701B6010E941130C7
:1025400020E030E048EC52E40E94B92E0E942B2F8C
:102550007093890060938800FF90EF90DF90CF9098
:10256000089580919A0380FF0AC0879A81B38F777C
:1025700091B390682FB7F894E2E8F3E00BC0E2E87B
:10258000F3E0118210821282339633E0EA39F307C6
:10259000C1F7EBCF33E0EA39F30789F0319148E036
:1025A00091BB000000C037FF81BB330F000000C0AB
:1025B00000C000C081BB00C04A9591F7EBCF2FBF90
:1025C0008FE594E00197F1F700C000000895909125
:1025D0009A0390FF0CC0E2E8F3E0818360834283BA
:1025E000339693E0EA39F907C1F70C94B1120895D4
:1025F00080919A03282F269530E02115310519F492
:102600008170826005C02532310524F081708864B4
:1026100080939A030895CF92DF92EF92FF926B011D
:102620007C010E94F812B701A60188E090E0FF90BB
:10263000EF90DF90CF900C94C22D80919E03882361
:1026400019F0815080939E0360919A0370919B03CF
:1026500080919C0390919D030C940B1380919E0399
:10266000833018F48F5F80939E0360919A0370917A
:102670009B0380919C0390919D030C940B13EAE9BA
:10268000F3E083E0808311828FEF8283838314825F
:1026900060817181828193810C940B13AF92BF9200
:1026A000CF92DF92EF92FF920F931F93CF93DF931E
:1026B000E82EF62EE901E42FF0E0611106C0E452A5
:1026C000FE4FE4914E2F2E2F71C0062F10E0E452E2
:1026D000FE4F4491F42FC42ED12C26E0829FC001DE
:1026E00011242FEF30E0B9010E947E305BEA5603DF
:1026F000C001579F900D11248E0D911D8E0D911DBF
:10270000582F550F580FD901A01BB10BAC9DC0011C
:10271000AD9D900DBC9D900D1124E92FF59ED0012B
:102720001124AB2FBB277901EA1AFB0AEC9CD001DC
:10273000ED9CB00DFC9CB00D11245901A51AB108F7
:10274000A09E7001A19EF00CB09EF00C1124EF2C05
:10275000FF242E193F092C9D80012D9D100D3C9DBD
:10276000100D1124212F6230710591F048F461158C
:102770007105E1F061307105B9F4242F4B2F16C0BB
:102780006430710569F040F06630710579F00CC075
:10279000242F492FE12F0AC0492FEF2F2B2F06C0DE
:1027A000292FE42F412F02C0292FEB2F49832883A3
:1027B000EA83DF91CF911F910F91FF90EF90DF900F
:1027C000CF90BF90AF900895CF93DF9300D01F922A
:1027D000CDB7DEB790919A0390FF0AC09E012F5F9C
:1027E0003F4F0E944E134B8169818A810E94E712FC
:1027F0000F900F900F90DF91CF9108957F928F925D
:102800009F92AF92BF92CF92DF92EF92FF920F937F
:102810001F93CF93DF9300D01F92CDB7DEB7182F51
:10282000D62E042FC22E90919A0390FF6DC0E92FEF
:10283000E695AE2FB0E0A25DBD4F8C918093C902AA
:102840009E7F923061F49E012F5F3F4F812F0E9447
:102850004E134B8169818A810E94E71243C0823006
:1028600019F400919D033EC0863019F410919B032A
:1028700039C08930D9F38931A9F5E9512E2F21705A
:10288000722EE695F0E0E452FD4F8590949032E888
:10289000A32E33E0B32EE12CF12C99248E9CC001A1
:1028A0008F9C900D9E9C900D112423E0969587950A
:1028B0002A95E1F7711002C0810F03C0212F281B58
:1028C000822F9501402F6D2D0E944E138FEFE81A35
:1028D000F80A23E0A20EB11C88E0E816F104F1F634
:1028E0000E94B11210939B03D0929C0300939D030E
:1028F000CC2051F060919A0370919B0380919C03CE
:1029000090919D030E940B130F900F900F90DF91F9
:10291000CF911F910F91FF90EF90DF90CF90BF90DC
:10292000AF909F908F907F900895EAE9F3E0438104
:1029300021E1421B08F440E021E0628181810C9496
:10294000FE13EAE9F3E0438121E1420F08F44FEF7F
:1029500021E0628181810C94FE13EAE9F3E0628157
:1029600021E1621B08F460E021E0438181810C9445
:10297000FE13EAE9F3E0628121E1620F08F46FEFF0
:1029800021E0438181810C94FE13EAE9F3E0818127
:1029900021E04381628188500C94FE13EAE9F3E060
:1029A000818121E043816281885F0C94FE139091C4
:1029B0009A0390FF3DC09170811102C0926006C0E1
:1029C000853210F0986402C0880F982B90939A0378
:1029D000662351F060919A0370919B0380919C0350
:1029E00090919D030E940B1360919A03669570E08D
:1029F0004BE050E083EC91E00E94C230892B19F04B
:102A00001092CA0209C081E08093CA020E949528F0
:102A10009093C4028093C30281E08093C60220E0B9
:102A200040919D0360919C0380919B030C94FE1345
:102A3000089580919A038695815009F484E261E0BB
:102A40000C94D71480919A0386958F5F853208F095
:102A500081E061E00C94D7140E9495282091BF0278
:102A6000211104C02091C002222321F09093BC02C6
:102A70008093BB022091C102211104C02091C202A7
:102A8000222321F09093BA028093B902E091A4032B
:102A9000F091A503309749F082E08093BD02048055
:102AA000F581E02D8DEB92E009940895803F39F493
:102AB0009091C00297FF35C01092C00259C0813F6B
:102AC00029F49091C0021916BCF32BC09091BF025B
:102AD000823F29F497FF25C01092BF0249C0833F6F
:102AE00019F41916CCF31DC09091C102893F29F445
:102AF0001916BCF41092C1023BC08A3F19F497FF2B
:102B000010C0F8CF8B3F39F49091C20297FF09C0F3
:102B10001092C2022DC08C3F21F49091C20219166E
:102B2000BCF39CE0980F953080F421E030E0A901DF
:102B300002C0440F551F9A95E2F7CA018095909103
:102B4000BE0289238093BE0213C08D3F21F4809181
:102B5000B8028E7F0BC08E3F21F48091B8028D7F2A
:102B600005C08F3F29F48091B8028B7F8093B80213
:102B70008091BF02811106C08091C002811102C004
:102B80001092B7028091C102811106C08091C202E9
:102B9000811102C01092B60208958091B80280FDA2
:102BA00016C081FD16C082FD18C08091B602882330
:102BB00091F0883290F428E0829FC001112468E2ED
:102BC00070E00E949230862F672B29F007C082E0C8
:102BD000089584E0089581E0089588E00895809143
:102BE000B80280FD14C081FD14C082FD16C0809122
:102BF000B702882381F0843180F422E3829FC001F0
:102C0000112464E170E00E949230862F08958CE0D8
:102C1000089589E1089585E0089582E30895803F4D
:102C200021F40E94EF15819504C0813F29F40E9490
:102C3000EF158093C0020895823F21F40E94EF15A2
:102C4000819504C0833F29F40E94EF158093BF0251
:102C50000895893F19F40E94CD1505C08A3F31F4CB
:102C60000E94CD1581958093C10208958B3F21F478
:102C70000E94CD15819504C08C3F29F40E94CD158A
:102C80008093C20208959CE0980F953078F421E07B
:102C900030E0A90102C0440F551F9A95E2F7CA011E
:102CA0009091BE02892B8093BE0208958D3F21F43E
:102CB0008091B80281600BC08E3F21F48091B802F0
:102CC000826005C08F3F29F48091B80284608093B0
:102CD000B8020895EFE6F0E080818D7F8083E0E820
:102CE000F0E080818F73808308957F928F929F920E
:102CF000AF92BF92CF92DF92EF92FF920F931F930A
:102D0000CF93DF934B015C016A0180913B0380FF0D
:102D1000AEC080913A03811102C00E94FA2C20E0DB
:102D200030E0A901C501B4010E94B42E87FF04C0A0
:102D3000B7FAB094B7F8B09470907E03072D10E006
:102D4000E801219743E0000F111F4A95E1F7E12CBC
:102D5000F12CCF3FFFEFDF07D9F128E0E21AF108AD
:102D6000F801EE0DFF1DE25CFC4F228133814481AE
:102D70005581C501B4010E94B42E811127C08E0176
:102D800033E0000F111F3A95E1F7025C1C4F809170
:102D90007E0390E00197C817D9070CF068C0219610
:102DA00088E0F8013896D80101900D928A95E1F7F4
:102DB0000E949528F8019187808782869386A48651
:102DC000B586D786C686085F1F4FE1CF2197C1CF52
:102DD00081E0870D893020F580937E0381E0809328
:102DE000AD0280933903C0917E03D0E021970E9409
:102DF0009528FE0123E0EE0FFF1F2A95E1F7E25C24
:102E0000FC4F9183808382829382A482B582D78291
:102E1000C6820E9495288091C201882341F113C087
:102E200088E080937E038EE393E028E0FC013896EF
:102E3000DC0101900D922A95E1F7089623E0863790
:102E4000920799F7CBCF80916F00826080936F00DB
:102E5000809180008068809380008091390388236E
:102E600021F00E9436200E9460121092C201DF9170
:102E7000CF911F910F91FF90EF90DF90CF90BF9077
:102E8000AF909F908F907F9008951F920F920FB6F2
:102E90000F9211242F923F924F925F926F927F92E6
:102EA0008F929F92AF92BF92CF92DF92EF92FF925A
:102EB0000F931F932F933F934F935F936F937F9342
:102EC0008F939F93AF93BF93CF93DF93EF93FF9332
:102ED0008091B2029091B302A091B402B091B50278
:102EE0000196A11DB11D8093B2029093B302A093ED
:102EF000B402B093B5026091B2027091B3028091B6
:102F0000B4029091B5020E945A2F6B017C0120E01F
:102F100030E040E85CE36091AE027091AF028091D6
:102F2000B0029091B1020E9411309B01AC01C70127
:102F3000B6010E94B42E87FDBAC11092B20210925F
:102F4000B3021092B4021092B5028091390381113C
:102F500005C0C0913803CC2309F498C10E9495287C
:102F6000EC0180913803811102C0312CE4C08091C2
:102F70002E0390912F030E947A2820912C033091E8
:102F80002D038217930788F380912E0390912F03CE
:102F90000E947A2820912C0330912D037C01E21AA3
:102FA000F30AD0932F03C0932E03009130031091A6
:102FB0003103C801019690933103809330030E943E
:102FC0009528A0903303B090340380913003909102
:102FD00031038A159B0560F0C0913203CC2329F0A0
:102FE000109231031092300303C00E94AA2C4EC1EC
:102FF00080913703C0913003D0913103C0903503E5
:10300000D0903603811131C0F80163E0EE0FFF1F4D
:103010006A95E1F7EC0DFD1DDE0173E0AA0FBB1F01
:103020007A95E1F7AC0DBD1D2D913D914D915C91CF
:1030300060817181828193810E94B42E811115C0BB
:1030400081E0809337034FE050E060E070E0CB0117
:103050000E94751610933103009330038FE090E0C7
:1030600090932D0380932C0364C0109237038E013C
:1030700043E0000F111F4A95E1F70C0D1D1DF801EB
:1030800064817581868197810E942B2F9B01A0E628
:10309000BAEE0E94382E20E03EE140E050E00E946F
:1030A000162EF1E0AF1AB108412C5EE1552E612CCD
:1030B000712C2E153F0550F0D0933103C09330038F
:1030C000E216F306E0F0C1E0D0E01CC0085F1F4F3D
:1030D000CA15DB0588F7E21AF30A2196F801648124
:1030E0007581868197810E942B2F9B01A0E6BAEE05
:1030F0000E94382EA30192010E94162EDACFE90118
:10310000CE19DF09809130039091310333E0880FAD
:10311000991F3A95E1F7F601E80FF91F6081718177
:1031200082819381AE010E947516D0932D03C093C6
:103130002C033324339480913903882309F49EC0EF
:1031400080913C03882311F0332433940EE313E081
:10315000812C912C412C512C20E8622E2FEB722EC9
:103160002224239480917E0390E0881699060CF027
:1031700085C0F8018681978101978E3F9F4F08F0A7
:1031800077C0F801808191810E947A28F801268118
:1031900037818217930708F46BC0C280D380E48024
:1031A000F58020E030E0A901C701B6010E94B42EED
:1031B00087FF04C0F7FAF094F7F8F0948091390390
:1031C000882309F455C080913A03811102C00E94FE
:1031D000FA2C9EE3A92E93E0B92EC7E0D0E0A70118
:1031E0009601F50162AD73AD84AD95AD0E94B42E2C
:1031F000811126C083E0CC0FDD1F8A95E1F7C25C08
:10320000DC4F198218824A825B826C827D821F8227
:103210001E8286E793E08C179D07D9F088E0FE01B7
:103220003896DE0101900D928A95E1F7198618868D
:103230004A865B866C867D861F861E862896E9CF29
:10324000219798E0A91AB108CF3FEFEFDE0739F6D2
:103250000FC02092AD0280917E03815080937E0347
:10326000811106C00E946A162092C2011092390391
:10327000FFEF8F1A9F0A085F1F4F74CFC091AD02F6
:10328000CC2319F01092AD0201C0C32D80913903F7
:10329000811107C080913803811103C00E946A1612
:1032A00006C0CC2321F00E9436200E946012FF91BC
:1032B000EF91DF91CF91BF91AF919F918F917F91CE
:1032C0006F915F914F913F912F911F910F91FF90BF
:1032D000EF90DF90CF90BF90AF909F908F907F90B6
:1032E0006F905F904F903F902F900F900FBE0F9078
:1032F0001F90189580E008959091970292FF0DC05D
:10330000282F2871283019F4877F846006C0282F61
:103310002471243011F48B7F886093FF0DC0282F17
:103320002871283119F4877E846106C0282F247102
:10333000243111F48B7E88612091980220FF0DC00A
:10334000382F3871383019F4877F816006C0382FE4
:103350003171313011F48E7F886021FF0DC0282F2C
:103360002871283119F4877E816106C0282F2171C8
:10337000213111F48E7E886194FD877E0895F89442
:10338000E82FE295EF70F0E031A1282F2F7081E057
:1033900090E001C0880F2A95EAF7982F9095932323
:1033A00091A392A1892B82A3789408959F92AF92C2
:1033B000BF92CF92DF92EF92FF920F931F93CF9322
:1033C000DF93CDB7DEB728970FB6F894DEBF0FBEF8
:1033D000CDBF1E821F8218860AE012E07E0146E001
:1033E000E40EF11C5701CC24C394D12CD8018C914C
:1033F0008F3F09F448C0F894E82FE295EF70F0E0B1
:1034000021A18F70A60102C0440F551F8A95E2F7D3
:10341000CA01922F982B91A392A18095892382A310
:10342000789400C0EDE0F2E020E030E0912C819152
:103430008F3FB9F0A82FA295AF70B0E090964C9155
:1034400050E08F70DA0102C0B595A7958A95E2F732
:10345000A0FD07C08C2D022E01C0880F0A94EAF748
:1034600001C080E0982A2F5F3F4F25303105F9F6E3
:10347000F80180818F3F11F00E94BF19F0EAFA95A0
:10348000F1F7D7019C920F5F1F4FBFEFEB1AFB0ABA
:10349000E2E00D301E0709F0A9CF43E050E0B5018E
:1034A00089E992E00E94CF30BB24B394009709F4DD
:1034B000B12C892B91F08E819F81A88580939902F0
:1034C00090939A02A0939B0281E0809313030E9441
:1034D00095289093120380931103809113038823FE
:1034E000B1F080911103909112030E947A28059700
:1034F00070F0809199028093AA0280919A02809341
:10350000AB0280919B028093AC02109213030DE9F1
:1035100012E086E1C82E82E0D82E92E1E92E92E0F8
:10352000F92ED8018C918823D1F0869521F0F601EF
:103530008081918103C0D7018D919C919A83898369
:103540001B820E9495288160782F9D838C83F801CF
:10355000108249815A816B818D810E9476030F5FB1
:103560001F4FF2E0CF0ED11C42E0E40EF11C52E0FE
:103570000F391507B1F68B2D28960FB6F894DEBFDC
:103580000FBECDBFDF91CF911F910F91FF90EF90B4
:10359000DF90CF90BF90AF909F900895CF93DF932F
:1035A0008238910569F1B0F48133910509F46FC057
:1035B00048F48932910509F465C08A32910509F40D
:1035C0006BC08AC08533910509F457C089339105D2
:1035D000B9F082C0833E910571F138F4803E9105C7
:1035E000B1F0823E910511F177C0863E9105B9F1A7
:1035F000873E9105C9F1843E910509F06DC024C054
:103600002091970220FD53C021FD51C065C08091DB
:10361000970280FD46C08091980280FF48C080914B
:10362000970284FD50C183EE90E04FC180919702D4
:1036300082FF3AC0F4CF8091970282FD35C080911D
:10364000980280FD34C0EBCF8091980281FF35C095
:103650008091970284FD37C187EE90E036C180915A
:10366000970283FF27C0F4CF8091970283FD22C089
:103670008091980281FD21C0EBCF8091970285FD5A
:103680001FC021C08091970285FD1DC019C0809187
:10369000970286FD1BC01DC08091970286FD19C050
:1036A00015C089E390E011C182EE90E00EC180EE7A
:1036B00090E00BC186EE90E008C184EE90E005C179
:1036C00089E290E002C185E390E0FFC08AE290E0E9
:1036D000FCC081E390E0F9C0811531E5930708F063
:1036E00069C0811540E59407F0F09C0174E03695BF
:1036F00027957A95E1F7922F9370482F437021E038
:1037000030E002C0220F331F4A95E2F73C68392BA4
:10371000982F9F709695969540E2949FC001112432
:10372000822B932BD2C0883E910568F5803E91058F
:1037300008F0CBC0883A9105B8F4853A910548F075
:10374000855AE82FF0E0ED5AFD4F808190E09064BB
:10375000BCC08130910509F4B3C008F4B4C0843012
:10376000910508F4B0C0B1C08F3B910508F0ABC023
:10377000885AE82FF0E0EE0FFF1FEA5AFD4F8081D4
:1037800091819464A2C0811520E2920758F48115BA
:1037900031E0930708F099C0803F910508F493C089
:1037A000906593C0811540E4940708F48CC09F7025
:1037B000906A8BC0811525E5920708F042C08115FB
:1037C00034E5930728F0982F8827846F906A7DC08E
:1037D000811543E59407B0F09C012370332741E045
:1037E00050E002C0440F551F2A95E2F7282F269576
:1037F000269580E2289F90011124CA01822B932BE9
:103800009A6863C0811522E5920728F4982F8827CB
:10381000816F906A5AC09C012370332741E050E0C9
:1038200002C0440F551F2A95E2F7282F26952695AA
:1038300080E2289F90011124CA01822B932B9C685F
:1038400044C0EC01811539E59307A8F4811598452A
:1038500028F09C2F8827806F906A37C0C11586E5B5
:10386000D80788F58C2F0E947C198F7190E0982FD3
:10387000882790622AC081152AE5920790F48C2F40
:103880008F700E947C1994E0D695C7959A95E1F7C0
:10389000CF70D0E0DC2FCC27D0699E01282BC90146
:1038A00014C090568115904270F48D2F8F710E9434
:1038B0007C19282F2F71CE0199279062922B05C079
:1038C00081E090E002C080E090E0DF91CF91089528
:1038D000CF9384E090E00E949C2DC82F82E290E07C
:1038E0000E949C2D2C2F30E0A901582BCA01CF91AA
:1038F000089580E090E00E94AA2D893E9E4F11F429
:103900000C94402A80E0089569EE7EEF80E090E01C
:103910000E94CE2D60E082E090E00E94B02D60E039
:1039200083E090E00E94B02D1092100360E084E0EC
:1039300090E00E94B02D60E082E290E00E94B02D05
:1039400060E085E090E00E94B02D60E086E090E0CD
:103950000E94B02D6FEF87E090E00E94B02D40E014
:1039600050E0BA0188E090E00E94C22D60E08DE056
:1039700090E00E94B02D40E050E0BA0188E190E074
:103980000E94C22D60E087E190E00E94B02D40E0EF
:1039900050E0BA018CE190E00E94C22D60E070E03E
:1039A00080E290E00E94CE2D40E050E0BA0188E134
:1039B00090E00E94C22D80E00E94132A0E94312ACA
:1039C00040E050E0BA018FE090E00E94C22D40E05C
:1039D00050E0BA0183E190E00C94C22D80910F0376
:1039E000811110920F03089590910E0380910D03A1
:1039F000892B20910C03982F922B9093CB028091CE
:103A00000F03882389F0892B8093CB02EDECF2E041
:103A100097E080E0915029F021912223D9F38F5F24
:103A2000F9CF81110E94EE1CE091A403F091A5034F
:103A3000309731F00280F381E02D8BEC92E0099415
:103A40000895CF93C0919802C2FB992790F99817D7
:103A500081F080FBC2F9C09398026091970284E0E4
:103A600090E00E94B02D6C2F82E290E0CF910C94F8
:103A7000B02DCF91089520910B03809582238093E0
:103A80000B03982F977041F430E0482F082E000C5C
:103A9000550B2417350721F49091980292FF07C027
:103AA0008595859585950E941A2B10920B03089594
:103AB00080910A039091D902891719F08F5F87705E
:103AC000FBCF08950F931F93CF93DF938091D8027C
:103AD00082958F7009F05DC08091D502882309F42A
:103AE00058C080910A031091D9026091D30270915D
:103AF000D402C091D602D091D70291E06F3F09F075
:103B000090E0292F06E0811709F443C0209721F0A7
:103B10007F3F21F030E003C031E001C0322F90E060
:103B200030FD34C0089FF001099FF00D1124DF0122
:103B3000A652BD4F11963C911197371327C03C9167
:103B4000361324C012963C91129731111FC0139660
:103B50004D915C9114974C1B5D0B483C5105B0F4A2
:103B60008091D8028F7080618093D802E152FD4F1E
:103B700080818F708061808383ED92E00E941E04BB
:103B8000DF91CF911F910F910C94581D0196877072
:103B9000BACFDF91CF911F910F910895CF93DF930B
:103BA000EC010E948E2ABE010E94062A0E94CE1AB3
:103BB000DF91CF9108959F92AF92BF92CF92DF9203
:103BC000EF92FF920F931F93CF93DF93CDB7DEB7A2
:103BD00061970FB6F894DEBF0FBECDBF8C0185E0B4
:103BE000F801DE011D9601900D928A95E1F7F8012A
:103BF000E2809091D3026091D4024091D60250911C
:103C0000D7024115510531F06F3F31F481E09F3FFC
:103C100019F403C081E001C080E0F82FF1709F2EFD
:103C200080FD1AC1F80130812181C380D48083EDE9
:103C3000A82E82E0B82EF090D502F601E41BF50B19
:103C4000FF2009F4C6C08091D802E83CF10508F0D5
:103C500091C0482F407F09F050C0621311C09313E8
:103C60000FC0FE2CE1100CC08F7080618093D802D1
:103C7000C5010E941E048091D802F801858329C1E4
:103C8000CD2831F02F3F31F481E03F3F19F403C0DC
:103C900081E001C080E080FD03C081E08E2502C08C
:103CA00080E090E0F82FF170FF2E80FF1CC0809123
:103CB0000A034091D90256E0841709F4E8C090E065
:103CC000589FF001599FF00D1124E652FD4F61817C
:103CD000261306C06081631303C06281E61203C02D
:103CE00001968770E9CFFE2CEE2009F4F2C0809196
:103CF000D80281608093D80249C0621306C0931332
:103D000004C0E11002C0F80186C0C8010E94352B32
:103D1000882351F1EE2041F12091D802822F829523
:103D20008F7090E0029774F08091D3029091D4024A
:103D300098878F831986DB86CA862C87CE010796E3
:103D40000E941E0486E0F801A3EDB2E001900D92FE
:103D50008A95E1F70E94621D0AC06217C9F0C80186
:103D60000E94352B81111EC0C8010E941E04FF2431
:103D7000F394AFC0482F407F81F783ED92E00E941B
:103D80001E0486E0F50111928A95E9F7F12CA1C095
:103D90009313E5CFE110E3CFF8018583C8010E94BA
:103DA0001E0454C0EE2001F32091D802822F829588
:103DB0008F7090E0029734F28091D3029091D402F8
:103DC0009A8389831B82DD82CC822E83CE01019669
:103DD000B7CFE83CF105D0F5FE2CEE2029F26213B6
:103DE00027C0931325C02091D80220FD18C0822F30
:103DF00082958F70482F50E04115510581F0F801F0
:103E000025834F30510541F08F5F982F9295907F19
:103E1000822F8F70892B8583C8010E941E0486E043
:103E2000F801A3EDB2E001900D928A95E1F751C03F
:103E3000C8010E94352B811185CF8091D802816005
:103E40008093D802C8010E941E0443C086E0F50199
:103E500011928A95E9F73DC0EE2009F485CFC8019B
:103E60000E94352BF82E882309F47ECF86E0F801D6
:103E7000A3EDB2E001900D928A95E1F78091D30213
:103E80009091D4020E94CE1D0E94621D22C03D87E7
:103E90002E878D859E850E94CE1D292F22952F70FD
:103EA000223028F49F7039F0811105C00BC02430F6
:103EB00028F49F7049F4805E883020F0C8010E9489
:103EC0001E049F2CF92C05C0F8019581907F99F76D
:103ED000F9CF8F2D61960FB6F894DEBF0FBECDBF20
:103EE000DF91CF911F910F91FF90EF90DF90CF90D6
:103EF000BF90AF909F9008958091230387FF11C0DA
:103F00008091E80082FD05C0809121038111F8CFE6
:103F100011C08091E8008B770BC08091210388232A
:103F200049F08091E80080FFF8CF8091E8008E771B
:103F30008093E8000895982F973068F59093E900F2
:103F4000981739F07091EC002091ED005091F0003D
:103F500003C0242F762F50E021FD02C09F5FECCFDD
:103F60003091EB003E7F3093EB003091ED003D7FD0
:103F70003093ED003091EB0031603093EB007093A3
:103F8000EC002093ED005093F0002091EE0027FD0F
:103F9000E5CF80E008958F708093E90081E0089577
:103FA0002091290330912A032617370748F061151D
:103FB000710539F42091E8002E772093E80001C0C4
:103FC000B901FC0120E06115710579F180912103AF
:103FD0008823F1F18530F1F18091E80083FD3CC048
:103FE0008091E80082FD2EC08091E80080FFEBCF39
:103FF0002091F3008091F20090E0922B6115710501
:1040000051F08830910538F421912093F1006150EE
:1040100071090196F3CF21E0089709F020E0809123
:10402000E8008E778093E800CECF2111CFCF0AC071
:1040300080912103882361F0853061F08091E80050
:1040400083FD0AC08091E80082FFF2CF80E00895EE
:1040500082E0089583E0089581E00895BC0184E042
:104060000C940628BC0183E00C940628CF92DF92C2
:10407000EF92FF92E0917E03EE23D9F0E15088E0C9
:10408000E802F0011124E25CFC4FC280D380E4809E
:10409000F58020E030E0A901C701B6010E94B42EEE
:1040A00018163CF480913D03811106C010923C0328
:1040B00003C0C12CD12C7601C701B601FF90EF904F
:1040C000DF90CF900895CF92DF92EF92FF92CF933F
:1040D000DF9320913B0320FD08C0DF91CF91FF903B
:1040E000EF90DF90CF900C94AA2C7B01EC01809193
:1040F0003A03811102C00E94FA2C80913903811188
:104100000E94AA2C81E08093380310923703D09349
:104110003603C0933503F0923403E09233031092D8
:10412000320310923103109230036C817D818E81B5
:104130009F810E942B2F9B01A0E6BAEE0E94382E91
:10414000C12C2EE1D22EE12CF12CA70196010E9468
:10415000162E688179818A819B81A9010E9475163A
:104160000E94952890932F0380932E03809135030E
:1041700090913603E0913003F091310333E0EE0F7C
:10418000FF1F3A95E1F7E80FF91F64817581868179
:1041900097810E942B2F9B01A0E6BAEE0E94382E39
:1041A000A70196010E94162E30932D0320932C0315
:1041B000DF91CF91FF90EF90DF90CF9008958091A5
:1041C0002B03982F9670963011F4886001C0877F7A
:1041D0000C94162B1F93CF93DF93CDB7DEB7AA971E
:1041E0000FB6F894DEBF0FBECDBFE3E2F3E08091DF
:1041F000F100819343E0EB32F407C9F78091240387
:10420000833009F462C030F4813071F0823009F4F7
:104210009CC0B3C08A3009F488C08B3009F46DC0EB
:10422000893009F0AAC020C080912303813A09F0A7
:10423000A4C08091E800877F8093E80080912703E5
:1042400090912803892B21F468E087E193E003C073
:1042500060E080E090E070E00E94D01F8091E80074
:104260008B778093E80089C080912303813209F025
:1042700084C08091270390912803009719F002973A
:1042800009F07BC08091E800877F8093E8008091EF
:10429000E80082FD05C0809121038111F8CF6DC037
:1042A0002091F3008091F20090E0922B029729F484
:1042B0008091F1008B7F813021F48091F100809317
:1042C00016038091E8008B7754C080912303813AD4
:1042D00009F053C08091270390912803892B09F09E
:1042E0004CC08091E800877F8093E8008091E800CF
:1042F00080FFFCCF8091CE0137C0809123038132B3
:10430000E1F58091270390912803892BB1F58091E5
:10431000E800877F8093E8000E947C1F809125033E
:104320008093CE010E94612B28C0809123038132AB
:1043300021F58091E800877F8093E8000E947C1F30
:10434000809126038093150318C080912303813A3E
:10435000A1F48091E800877F8093E8008091E800D5
:1043600080FFFCCF809115038093F1008091E800DD
:104370008E778093E8000E947C1F8091E80083FF85
:10438000DDC18091230390912403492F50E04A30EE
:10439000510508F0D3C1FA01EB58FF4F0C94A63039
:1043A000803821F0823809F0C9C108C080911F030C
:1043B00090912003992389F082600FC08091270398
:1043C0008F70873008F0BAC18093E9008091EB00CC
:1043D00085FB882780F91092E9009091E800977F8B
:1043E0009093E8008093F1001092F10070C1282FA3
:1043F0002D7F09F0A3C1882319F0823061F09EC19E
:1044000080912503813009F099C1933009F080E053
:10441000809320032EC08091250381112AC08091B2
:1044200027038F702FEF280F263008F087C1809365
:10443000E9002091EB0020FF1CC0933021F4809113
:10444000EB00806214C09091EB0090619093EB00C0
:1044500021E030E0A90102C0440F551F8A95E2F720
:104460004093EA001092EA008091EB00886080930C
:10447000EB001092E9008091E800877F8093E800CC
:104480000E947C1F5BC1811159C1109125031F77C8
:104490008091E3008078812B8093E3008091E80095
:1044A000877F8093E8000E947C1F8091E80080FF56
:1044B000FCCF8091E30080688093E300111102C07B
:1044C00082E001C083E08093210338C180588230AC
:1044D00008F034C120912503309126032C3D53E090
:1044E000350779F583E08A838AE289834FB7F894A8
:1044F000DE01139620E03EE051E2E32FF0E050931E
:104500005700E49120FF03C0E295EF703F5FEF702A
:104510008E2F90E0EA3010F0C79601C0C0968D93C0
:104520009D932F5F243149F74FBF8091E800877F2B
:104530008093E8006AE270E0CE0101960E94D01FED
:10454000B4C08091270390912803432F552743300F
:104550005105A9F068F44130510509F4FEC042301C
:10456000510509F0EBC08BE590E0EEEBF3E04BC0BA
:104570004132510529F14232510589F1DFC0C901AB
:10458000992781309105A1F058F0029709F0D6C023
:10459000EBE2F4E0E4918E2F90E0EBE2F4E030C047
:1045A000E5E6F4E0E4918E2F90E0E5E6F4E028C043
:1045B000EDE3F4E0E4918E2F90E0EDE3F4E020C031
:1045C0008330910508F0BAC0880F991FFC01E357AA
:1045D000FD4F0190F081E02D89E090E014C0833020
:1045E000910508F0ABC0FC01EE0FFF1FE957FD4F2E
:1045F0000190F081E02DDC01AC57BD4F8C9190E033
:10460000009709F49BC02091E800277F2093E800E1
:104610002091290330912A032817390708F4C9018A
:1046200040E0009789F120912103222309F43DC045
:104630002530D9F12091E80023FD37C02091E80012
:1046400022FD2FC02091E80020FFEBCF4091F30026
:104650002091F20030E0342B009759F028303105DA
:1046600040F444914093F100319601972F5F3F4F02
:10467000F3CF41E02830310509F040E02091E80017
:104680002E772093E800CDCF4111CDCF0AC0809185
:104690002103882351F0853041F08091E80083FDAB
:1046A00004C08091E80082FFF2CF8091E8008B7710
:1046B0008093E80043C0803809F040C08091E80052
:1046C000877F8093E800809122038093F10080919E
:1046D000E8008E77D3CE811131C08091250390916F
:1046E00026039927029754F58091E800877F8093ED
:1046F000E80010912503109322030E947C1F1111E2
:1047000006C08091E30087FD02C081E001C084E023
:104710008093210342E061EC81E00E949B1F42E212
:1047200061EC84E00E949B1F42E261EC82E00E9407
:104730009B1F42E260EC83E00E949B1F8091E80097
:1047400083FF10C08091E800877F8093E80080910C
:10475000EB0080628093EB0005C082E190E0E9E12C
:10476000F4E051CFAA960FB6F894DEBF0FBECDBFCE
:10477000DF91CF911F9108951F920F920FB60F9264
:1047800011242F933F934F935F936F937F938F9356
:104790009F93AF93BF93CF93DF93EF93FF93C0911A
:1047A000E900CF708091EC00D82FD17080FDD0E867
:1047B0001092E9008091F000877F8093F000789458
:1047C0000E94EA201092E9008091F00088608093B6
:1047D000F000CD2BCF70C093E900FF91EF91DF91F6
:1047E000CF91BF91AF919F918F917F916F915F9189
:1047F0004F913F912F910F900FBE0F901F901895E2
:10480000E8EDF0E080818E7F80831092E2001092CC
:10481000DA001092E100A0EEB0E08C9181608C9300
:1048200080818F77808319BCA7EDB0E08C918E7F5B
:104830008C9380818F7E8083109214030895CF9291
:10484000DF92EF92FF920F931F93CF93DF93C8ED08
:10485000D0E088818F7E8883E7EDF0E08081816001
:10486000808384E082BF81E08093140388818E7FFF
:10487000888302EE10E0F80110821092DA0081EED7
:10488000C82ED12CF601108288818F778883888189
:104890008068888388818F7D888319BC109221036A
:1048A000109222031092200310921F0390EEE92E23
:1048B000F12CF70180818B7F8083888181608883E0
:1048C00042E060E080E00E949B1FF60180818E7FC5
:1048D0008083F8018081816080838081886080830B
:1048E000F70180818E7F8083888180618883DF915A
:1048F000CF911F910F91FF90EF90DF90CF9008958F
:104900001F920F920FB60F9211242F933F934F9344
:104910005F936F937F938F939F93AF93BF93EF9327
:10492000FF938091E10082FF09C08091E20082FF45
:1049300005C08091E1008B7F8093E1008091DA00D7
:1049400080FF2AC08091D80080FF26C08091DA00C5
:104950008E7F8093DA008091D90080FF18C080E1BB
:1049600089BD82E189BD09B400FEFDCF81E080935D
:1049700021038091140381110FC00E9400240E9422
:104980001F248091E20084608093E20005C019BC7E
:1049900010922103109214038091E10080FF17C050
:1049A0008091E20080FF13C08091E2008E7F8093AF
:1049B000E2008091E20080618093E2008091D80063
:1049C00080628093D80019BC85E080932103809198
:1049D000E10084FF2EC08091E20084FF2AC080E1C4
:1049E00089BD82E189BD09B400FEFDCF8091D80068
:1049F0008F7D8093D8008091E1008F7E8093E100CD
:104A00008091E2008F7E8093E2008091E2008160DD
:104A10008093E20080912203882311F084E007C094
:104A20008091E30087FD02C081E001C083E08093B4
:104A300021038091E10083FF27C08091E20083FF82
:104A400023C08091E100877F8093E10082E0809322
:104A50002103109222038091E1008E7F8093E10078
:104A60008091E2008E7F8093E2008091E20080617D
:104A70008093E20042E060E080E00E949B1F809112
:104A8000F00088608093F000FF91EF91BF91AF91AB
:104A90009F918F917F916F915F914F913F912F9156
:104AA0000F900FBE0F901F9018952091E400309149
:104AB000E50095E64091EC00842F817040FF23C013
:104AC0008091E80080FD1DC080912103882399F02A
:104AD000853099F08091EB0085FD11C04091E40094
:104AE0005091E5002417350729F3915011F09A01F0
:104AF000E1CF84E0089582E0089583E0089581E0A5
:104B0000089580E008954091E80042FFDDCF0895C8
:104B1000EF92FF920F931F93CF93DF937C018B0152
:104B20000E945525811119C0E70101151105A1F059
:104B30008091E80085FD0AC08091E8008E7780931F
:104B4000E8000E945525882381F307C0899180934E
:104B5000F10001501109E9CF80E0DF91CF911F9161
:104B60000F91FF90EF900895809116030895089596
:104B700024E02093E9002FEF3091E800215035FD2B
:104B800006C035ED3A95F1F700002111F5CF2091DF
:104B9000E80025FF0BC040E050E066E070E00E94B6
:104BA00088258091E8008E778093E8000895CF9360
:104BB000DF9321E02093E9002FEF3091E8002150AE
:104BC00035FD06C035ED3A95F1F700002111F5CF1E
:104BD0002091E80025FF14C0EC0140E050E068E0BF
:104BE00070E00E9488258091E8008E778093E8002D
:104BF00088E0FE01A7E1B3E001900D928A95E1F70C
:104C0000DF91CF910895EF92FF920F931F93CF936F
:104C1000DF938C01C2E8D3E0E12CF12CF801848110
:104C2000F4E0EF16F1041CF4882339F002C081117E
:104C300004C09E0140919D0302C09E0140E060912E
:104C40009C0380919B030E944E138FEFE81AF80A91
:104C5000239698E0E916F10409F70E94B112F801D1
:104C6000848190E00196817099278483DF91CF91B0
:104C70001F910F91FF90EF9008958F929F92AF92A6
:104C8000BF92CF92DF92EF92FF920F931F93CF9339
:104C9000DF93EC014C81042F10E09801D8010E94B1
:104CA000382E9B01AC010E94032E6B017C01E0E2D7
:104CB000F0E0E01BF10BA5E5B0E09B01AC010E9428
:104CC000032E4B015C019F01DF010E94B3309B0169
:104CD000AC010E940E2E9B01AC012C0D3D1D4E1D02
:104CE0005F1DC501B4010E94162E822FF22E99E29B
:104CF000921728F093E0299F900111240DC025E51B
:104D000030E0281B3109C901880F991F280F391F6E
:104D100037FF02C02F5F3F4F35952795122F109513
:104D200092E8C92E93E0D92E00E085E5E82EEF1831
:104D300001FD02C08E2D01C08F2D9601412F609183
:104D40009C030E944E130F5F83E0C80ED11C0830F5
:104D500079F70E94B1128C81811102C091E003C0E9
:104D6000803219F49FEF9093D1019091D101890F76
:104D70008C83DF91CF911F910F91FF90EF90DF9087
:104D8000CF90BF90AF909F908F9008950F931F93F7
:104D9000CF93DF93C2E8D3E0FE011182108212822A
:104DA000339683E0EA39F807C1F700E010E080911C
:104DB0008003082E000C990B0817190794F08091B6
:104DC000D001082E000C990B8017910754F09E011A
:104DD00040919D0360919C0380919B030E944E1320
:104DE00003C0198218821A820F5F1F4F2396083062
:104DF0001105E9F60E94B1128091CF0190918003D4
:104E0000980F909380032091D001280F2093D00118
:104E1000121614F497301CF081958093CF01DF9126
:104E2000CF911F910F910895CF92DF92EF92FF9251
:104E30000F931F93CF93DF93FC01828180FF03C008
:104E4000DD24DA9402C0DD24D394C2E8D3E000E08C
:104E500010E0198218821A8294E0E92EF12CC12CFC
:104E600080917F038C0D893014F0877002C087FD1C
:104E7000885F082E000C990B0817190791F4809190
:104E80009D038E9DA0018F9D500D11245595479532
:104E9000559547959E0160919C0380919B030E94CC
:104EA0004E13CD0CF1E0EF1AF108D1F60F5F1F4F52
:104EB00023960830110569F60E94B11280917F0394
:104EC00091E0D91206C0811102C087E006C081506E
:104ED00004C090E001968770992780937F03DF914B
:104EE000CF911F910F91FF90EF90DF90CF90089599
:104EF000EF92FF921F93CF93DF93EC0182E8E82EAD
:104F000083E0F82E10E08C81970140919D03609121
:104F10009C03810F0E944E13115E83E0E80EF11C8A
:104F2000183F89F70E94B1129A818C8190FF02C0CC
:104F30008F5F01C081508C83DF91CF911F91FF90D3
:104F4000EF9008950F931F93CF93DF9300D01F929C
:104F5000CDB7DEB78C018091810381110AC09E011B
:104F60002F5F3F4F4FEF6FEF0E944E138A81809368
:104F70008103F8018481813051F028F0823061F49E
:104F8000409181030AC08091810340E007C0609195
:104F9000810340E080E003C040E080E060E00E94E8
:104FA000E712F801848190E0019663E070E00E94CE
:104FB000923084830F900F900F90DF91CF911F91CB
:104FC0000F910895CF93DF93EC01EAE9F3E0438179
:104FD00062818C810E94E4138C818F5F8C83DF91CE
:104FE000CF910895CF93DF93EC01EC81F0E0E75986
:104FF000FB4F4491EAE9F3E0628181810E94E4136E
:105000008C818F5F8C83DF91CF91089590912103E4
:10501000943029F58093AD037093AF036093AE0392
:105020009093E9008FEF9091E800815095FD06C0C4
:1050300095ED9A95F1F700008111F5CF8091E80088
:1050400085FF0DC040E050E063E070E08DEA93E042
:105050000E9488258091E8008E778093E80008956B
:1050600081E08093E00080E28093D8001092C90034
:105070008FE19EE40197F1F700C0000087E090EB1C
:10508000DC018093B6039093B703A093B803B09369
:10509000B9039CE088E10FB6F894A895809360006E
:1050A0000FBE90936000FFCF78941F920F920FB6BF
:1050B0000F9211248F939F93AF93BF938091A90375
:1050C0009091AA03A091AB03B091AC030196A11DEE
:1050D000B11D8093A9039093AA03A093AB03B0934F
:1050E000AC03BF91AF919F918F910F900FBE0F9026
:1050F0001F9018959C014FB7F8948091A903909147
:10510000AA03A091AB03B091AC034FBF821B930BDA
:1051100008952FB7F8946091A9037091AA03809124
:10512000AB039091AC032FBF08952FB7F8948091F3
:10513000A9039091AA03A091AB03B091AC032FBF38
:1051400008951F920F920FB60F9211248F939F9381
:10515000AF93BF938091A803811113C08091A903DD
:105160009091AA03A091AB03B091AC034196A11D0D
:10517000B11D8093A9039093AA03A093AB03B093AE
:10518000AC03BF91AF919F918F910F900FBE0F9085
:105190001F9018959C012A5F3F4FFC0142814613E6
:1051A00001C01282019682179307B9F708959C01F6
:1051B000FC0132969FEF80E04191461789F09F3FB6
:1051C00019F4411101C0982F8F5F8630A9F79F3FD6
:1051D00039F0F901E90FF11D97FDFA956283089501
:1051E00008952091A6033091A7032817390771F07D
:1051F0009093A7038093A603E091A403F091A503E5
:10520000309721F00084F185E02D099408952091D4
:10521000A2033091A3032817390771F09093A303D9
:105220008093A203E091A403F091A503309721F0AD
:105230000680F781E02D09940895E091A403F09190
:10524000A503309721F00190F081E02D099480E0D2
:1052500008950F931F93CF93DF93C42FD22FFC0198
:1052600082818823C9F04093A1030E9495289093DE
:10527000A00380939F0380E28C0F883008F057C012
:10528000C77081E001C0880FCA95EAF7DF91CF911E
:105290001F910F910C94772B8091A103481330C07C
:1052A00080919F039091A0030E947A28883C9105E9
:1052B00038F510E21D0FCD17B9F080E28C0F883061
:1052C00040F4C77081E001C0880FCA95EAF70E94D8
:1052D0006C2B183028F581E09D2F977001C0880F46
:1052E0009A95EAF70E94772B802F0E948C2C183019
:1052F000F0F4D77081E001C0880FDA95EAF70AC0B0
:1053000080E28C0F883098F4C77081E001C0880F6C
:10531000CA95EAF7DF91CF911F910F910C946C2BF6
:10532000802FDF91CF911F910F910C948C2CDF91E6
:10533000CF911F910F910895CF93DF93C7E1D1E0F3
:1053400060E0CE010E94B02D2196C11584E0D807FF
:10535000B9F7DF91CF910895CF92DF92EF92FF924C
:105360000F931F93CF93DF93C0E0D0E08E01025ED6
:105370001F4F6E018AE0C80ED11CFE01E759FA4F9B
:10538000E590F4906F2DCE0187960E94B02D6E2D82
:10539000CE0188960E94B02D2296CC15DD0569F7C6
:1053A0000C171D0731F7E801003F1105F9F6DF91F1
:1053B000CF911F910F91FF90EF90DF90CF900895C4
:1053C0000F931F93CF93DF93C42FD0E0CC0FDD1F3B
:1053D0002AE0629FC00DD11D11243EE1839FC00DC4
:1053E000D11D1124CE0187960E949C2D082F10E01C
:1053F000102F0027CE0188960E949C2D9801282B03
:10540000C901DF91CF911F910F910895462F8830E8
:1054100038F4733028F4653018F4672F0C94E029C1
:1054200080E090E00895CF93C82F811102C06FEF04
:1054300001C061E283E290E00E94B02DC11102C080
:105440006FEF01C061E184E290E00E94B02DC111D4
:1054500002C06FEF01C066E285E290E0CF910C944C
:10546000B02D80E00E94132A60E086E290E00E9466
:10547000B02D0E94AC290E949C2981E00C94132A33
:1054800083E290E00E949C2D813281F484E290E0DE
:105490000E949C2D813151F485E290E00E949C2D68
:1054A00091E0863209F090E0892F01C080E08170A0
:1054B000089590919A0390FF04C09695981740F034
:1054C00003C0811105C090E0961710F40C942215CA
:1054D00061E00C94D714882311F0FA0101C0FB019C
:1054E000099480E090E00E94072980E090E00E940B
:1054F000F12810920D0310920C030E94F41CEDEBA6
:10550000F2E086E0DF011D928A95E9F71092B7027A
:105510001092B6021092B8020C942C15CF92DF9222
:10552000FF920F931F93CF93DF936C0100912B0396
:1055300080911003082BC7E0D0E010E0C8010C2ECA
:1055400002C0959587950A94E2F780FD04C02197E3
:10555000A8F7F12C09C0FC2EB6018C2F0E94062A58
:105560000E94CE1A019799F38F2DDF91CF911F9151
:105570000F91FF90DF90CF90089524E0929F900DBF
:105580001124890F682F669566956695982F9770F8
:1055900083E0689FB001112440E050E080E0FB010F
:1055A000E40FF51FE055FC4F208130E0092E02C0CA
:1055B000369527950A94E2F721703327042E01C00F
:1055C000220F0A94EAF7822B4F5F5F4F4330510559
:1055D00031F7089524E0929F900D1124890FE82F50
:1055E000E695E695E695877051E001C0550F8A95DE
:1055F000EAF783E0E89FF0011124E055FC4F20E03A
:1056000030E070E04081CB01022E02C09695879574
:105610000A94E2F7817081958427852384278193FA
:105620002F5F3F4F2330310569F7089580932B0397
:105630000C94712A21E030E001C0220F8A95EAF72C
:10564000209580912B0382230C94162B21E030E0CF
:1056500001C0220F8A95EAF780912B03822B0C94CC
:10566000162B809310030C94712AFC018081918188
:105670000E94CE1D292F2F70E92FE295EF704E2F3B
:1056800050E0FA013297EE30F105B8F4E158FF4FDF
:105690000C94A630803F99F018F4883E70F40FC047
:1056A000843F59F40CC0883E50F0813F31F407C06C
:1056B000822F869586958695089580E0089581E0ED
:1056C000089510920E0386E0EDECF2E0DF011D92EA
:1056D0008A95E9F70C94712A882341F0809590917E
:1056E0000E03892380930E030C94F41C08958823E1
:1056F00039F090910E03892B80930E030C94F41CC7
:105700000895882309F463C0823869F40E941D2932
:1057100081FF5DC069E38BEC92E00E94D7280E9474
:10572000F41C69E30EC0833891F40E941D2980FFA8
:105730004EC063E58BEC92E00E94D7280E94F41CD7
:1057400063E58BEC92E00E94CA280C94F41C843828
:1057500069F40E941D2982FF3AC067E48BEC92E055
:105760000E94D7280E94F41C67E4EBCF9CEF980FAF
:10577000913A10F4682FE5CF90E2980F983088F4B2
:10578000877021E030E0A90102C0440F551F8A95BF
:10579000E2F7CA01809590910E03892380930E034E
:1057A000D4CF9BE5980F933020F480E090E00C94E8
:1057B000072998E5980F973120F480E090E00C9449
:1057C000F128803F20F00E9456150C942C15089566
:1057D000CF93882309F49EC0C82F8238B1F40E9469
:1057E0001D2981FD97C069E38BEC92E00E94D728C8
:1057F0000E94F41C2FEF81EE94E0215080409040F5
:10580000E1F700C0000069E317C08338E1F40E94AB
:105810001D2980FD7FC063E58BEC92E00E94D728B4
:105820000E94F41C2FEF81EE94E0215080409040C4
:10583000E1F700C0000063E58BEC92E00E94CA280B
:10584000CF910C94F41C8438B1F40E941D2982FD80
:1058500061C067E48BEC92E00E94D7280E94F41CA0
:105860002FEF81EE94E0215080409040E1F700C09E
:10587000000067E4E1CF8CEF8C0F813A80F4EDEC0F
:10588000F2E083ED92E02191C217E1F18E179F07BC
:10589000D1F76C2F8BEC92E00E94D728D1CF80E219
:1058A0008C0F883068F4C77081E090E001C0880FE9
:1058B000CA95EAF790910E03892B80930E03C0CF0F
:1058C000EBE5EC0FE33040F4F0E0ED5AFD4F808162
:1058D00090E0CF910C940729E8E5EC0FE73150F404
:1058E000F0E0EE0FFF1FEA5AFD4F80819181CF91CA
:1058F0000C94F128C03F70F08C2F0E940F16CF91AE
:105900000C942C156C2F8BEC92E00E94CA280E94FC
:10591000F41CBFCFCF9108951F93CF93DF93182F1F
:10592000893319F0C0E0D0E002C0C0E5D0E0812F9B
:105930000E94E82B209741F08FE99FE00197F1F753
:1059400000C000002197F6CF812FDF91CF911F91EA
:105950000C94812B8091C201811122C010927E0390
:105960000E946A16109238031092390310922D0388
:1059700010922C03EEE3F3E080E090E0A0E8BFEBB0
:105980001182108282839383A483B5831782168247
:10599000389623E0EE37F20799F781E08093C20151
:1059A000089562E070E08AEF91E00E9463202FEF9B
:1059B00081EE94E0215080409040E1F700C000006B
:1059C0000E94AA2C60913B036E7F60933B0387E0AB
:1059D00090E00C94B02D60913B03616060933B03B9
:1059E00087E090E00E94B02D62E070E08AEE91E0E6
:1059F0000C94632080913A03811141C00E94791C6C
:105A0000811102C00E94841C87E090E00E949C2DBE
:105A100080933B03EEE3F3E080E090E0A0E8BFEB8F
:105A20001182108282839383A483B58317821682A6
:105A3000389623E0EE37F20799F780913A03811107
:105A40000CC00E946A16259A82E0809380008AE149
:105A50008093810081E080933A030E94AA2C809178
:105A60003B0380FF06C063E070E082ED91E00E949E
:105A700063200E94952890932F0380932E0308950E
:105A80008F929F92AF92BF92CF92DF92EF92FF924E
:105A9000CF93DF93EC01688179818A819B816115C5
:105AA00071058105910521F464E279ED8BE597E0BC
:105AB0002DE133EF41E050E00E94E42D49015A010D
:105AC0009B01AC01A7EAB1E40E94032E6B017C01AB
:105AD000ACEEB4EFA50194010E94112EDC01CB01C4
