:100000000C9485040C94CC040C94CC040C94CC0477
:100010000C94CC040C94CC040C94CC040C94CC0420
:100020000C94CC040C94CC040C94542F0C942630D7
:100030000C94C4290C94CC040C94CC040C94CC04E3
:100040000C94CC040C94CC040C94CC040C94CC04F0
:100050000C94CC040C941D2A0C94CC040C94CC0469
:100060000C94CC040C94CC040C94CC040C94CC04D0
:100070000C94CC040C94CC040C94CC040C94CC04C0
:100080000C94CC040C94CC040C94CC040C94CC04B0
:100090000C94CC040C94CC040C94CC040C94CC04A0
:1000A0000C94CC040C94CC040C94CC0487088708E2
:1000B000B908B90806092409180A180A2F09970966
:1000C000A809A809080A180A180A110AB80AB80AD9
:1000D000CA0ACA0AC10ACA0ACA0ACA0AB80AB80AAD
:1000E000C60ACA0ACA0AC60A49163F164C169C1600
:1000F000A016A0169C16A016A0166D16A0167716B0
:100100008116A016A016A016A0169C16A016A01662
:100110009C16A0165A16A016A016911691169116A6
:100120009116911691169116911691169E16A0167B
:1001300049163C16A016A016A016A016A016A016CA
:10014000A016A016A016A0169E16A016A0169C1605
:10015000A0168F168F168F168F168F168F168F1666
:100160008F168F169E16E623E92309241A242224CB
:100170002D24302437243E248624862443244624F8
:100180004B245824652468246C2479249330BA3095
:10019000B231BA30B23106312931B23180318F31CA
:1001A00029003B003D003F0041004300450047005F
:1001B0003A003C003E004000420044004600480037
:1001C00035001F0021002300250027002E004C00D1
:1001D0001E0020002200240026002D002A004A00D4
:1001E0002B001A0015001C000C0013003000310019
:1001F000140008001700180012002F0000004D0026
:100200000151160009000B000E0033000000000031
:10021000040007000A000D000F00340028004B0006
:10022000E1001D000600050010003700E500520047
:1002300031001B00190011003600380000004E008C
:10024000E000E20000002C000000E600E4005100A5
:10025000E3000000000000000000E70050004F0035
:100260000100010001000100010001000100010086
:100270000100010001000100010001000100010076
:100280000100010001000100010001000100010066
:100290000100010001000100010001000100010056
:1002A0003900C35CC65CC85CCA5CC05C010001006C
:1002B000C25CC55CC75CC95CBF5C0100000001009A
:1002C0000100010001000100010001000000000028
:1002D0000100010001000100010001000100010016
:1002E0000100010001000100010001000100010006
:1002F00001000100010001000100010000000100F7
:1003000001000100000001000000010001000100E7
:1003100001000000000000000000010001000100D9
:1003200001000100010001000100010001000100C5
:1003300001000100010001000100010001000100B5
:1003400001000100010001000100010001000100A5
:100350000100010001000100010001000100010095
:100360000100010001000100010001000100010085
:100370000100010001000100010001000000010076
:100380000100010001000100010001000000000067
:100390000100010001000100010001000100010055
:1003A0000100010001000100010001000100010045
:1003B0000100010001000100010001000000010036
:1003C0000100010000000100000001000100010027
:1003D0000100000000000000000001000100010019
:1003E0000100010001000100010001000100010005
:1003F00001000100010001000100010001000100F5
:1004000001000100010001000100010001000100E4
:1004100001000100010001000100010001000100D4
:1004200001000100010001000100010001000100C4
:1004300001000100010001000100010000000100B5
:1004400001000100010001000100010000000000A6
:100450000100010001000100010001000100010094
:100460000100010001000100010001000100010084
:100470000100010001000100010001000000010075
:100480000100010000000100000001000100010066
:100490000100000000000000000001000100010058
:1004A00000000000000000002A2B280000000000CF
:1004B0000000000000000000000000290000000013
:1004C0002C1E3420212224342627252E362D373881
:1004D000271E1F202122232425263333362E37388A
:1004E0001F0405060708090A0B0C0D0E0F10111248
:1004F000131415161718191A1B1C1D2F3130232D14
:10050000350405060708090A0B0C0D0E0F10111211
:10051000131415161718191A1B1C1D2F3130354CC2
:1005200000000000000000000000000000000000CB
:1005300000000000000000000000000000000000BB
:10054000000000007E0F00D4FFFFFFC7000000780E
:1005500000047F3F1F643214643214783C1E1E1462
:100560000A052223252628292A2C2D2F303233351F
:1005700036383A3B3D3E4042434547494A4C4E504F
:1005800051535557595A5C5E6062646668696B6D79
:100590006F71737577797B7D7F81838587898A8C7D
:1005A0008E90929496989A9C9E9FA1A3A5A7A8AA84
:1005B000ACAEAFB1B3B4B6B8B9BBBCBEBFC1C2C3B9
:1005C000C5C6C7C9CACBCCCDCED0D1D2D2D3D4D553
:1005D000D6D7D7D8D9D9DADADBDBDBDCDCDCDCDC7C
:1005E000DDDDDDDDDCDCDCDCDCDBDBDBDADAD9D954
:1005F000D8D7D7D6D5D4D3D2D2D1D0CECDCCCBCAE2
:10060000C9C7C6C5C3C2C1BFBEBCBBB9B8B6B4B307
:10061000B1AFAEACAAA8A7A5A3A19F9E9C9A98969D
:100620009492908E8C8A89878583817F7D7B797770
:100630007573716F6D6B6968666462605E5C5A5950
:1006400057555351504E4C4A4947454342403E3D11
:100650003B3A3836353332302F2D2C2A292826259F
:100660002322FFAA7F554000010101010101010180
:100670000102020202020202020203030303030355
:100680000303040404040404040505050505060623
:1006900006060607070707070808080809090909E1
:1006A0000A0A0A0B0B0B0C0C0C0D0D0D0E0E0E0F87
:1006B0000F0F101011111112121313141415151617
:1006C000161717181819191A1A1B1B1C1D1D1E1E88
:1006D0001F202021222223242425262627282929D9
:1006E0002A2B2C2D2D2E2F30313232333435363704
:1006F00038393A3B3C3D3E3F404142434445464702
:1007000048494A4C4D4E4F50515354555658595ADA
:100710005B5D5E5F616264656668696B6C6D6F707E
:1007200072737577787A7B7D7E8082838587888AED
:100730008C8E8F91939596989A9C9EA0A2A3A5A724
:10074000A9ABADAFB1B3B5B7BABCBEC0C2C4C6C920
:10075000CBCDCFD1D4D6D8DBDDDFE2E4E7E9EBEED9
:10076000F0F3F5F8FAFDFF0A034C004200370035BC
:100770000000000C035100550041004400480000F7
:10078000000403090409025B00030100A0FA090444
:1007900000000103010100092111010001224000B4
:1007A0000705810308000A09040100020300000094
:1007B0000921110100012222000705820320000106
:1007C00007050303200001090402000103000000E3
:1007D00009211101000122B6000705840320000A47
:1007E000120100020000000803A10700010001023D
:1007F00000010660FF0961A1010962150026FF00E2
:100800009520750881020963150026FF0095207563
:10081000089102C005010902A10185020901A10098
:10082000050919012908150025019508750181029E
:100830000501093009311581257F9502750881066A
:1008400009381581257F950175088106050C0A3840
:10085000021581257F950175088106C0C005010933
:1008600080A101850319012AB700150126B700955B
:100870000175108100C0050C0901A1018504190151
:100880002AA002150126A002950175108100C0055D
:10089000010906A1018505050719E029E7150025CD
:1008A000019508750181020507190029EF1500253A
:1008B0000195F07501810205081901290595057555
:1008C000019102950175039101C005010906A1017D
:1008D000050719E029E71500250195087501810232
:1008E0009501750881010507190029FF150026FFEC
:1008F00000950675088100050819012905950575FB
:10090000019102950175039101C011241FBECFEF23
:10091000DAE0DEBFCDBF04B603FE27C0809121031D
:1009200090912203A0912303B09124038730904B30
:10093000A740B04BD1F410922103109222031092E1
:1009400023031092240314BE84B7877F84BF0FB69D
:10095000F894A8958091600088618093600010925F
:1009600060000FBEE0E0F8E3099511E0A0E0B1E01F
:10097000E4ECF5E602C005900D92A23DB107D9F76F
:1009800023E0A2EDB1E001C01D92A132B207E1F770
:100990000E94A3150C94E0320C940000219A229A34
:1009A0000C946D14CF93C82F0E94B306882351F086
:1009B000C1FD02C0299A01C02998C2FD02C02A9A2D
:1009C00001C02A98CF91089581E0089581E00895AB
:1009D0000C94E60408950C94EA041F93CF93DF93DC
:1009E00000D000D01F92CDB7DEB749835A836B8306
:1009F0003091D40189819A81311114C0662359F054
:100A0000222349F00E94AE0B182F682F89819A810A
:100A10000E94570B03C00E94820B182F69817A81B4
:100A2000812F04C00E94AE0B69817A810F900F90D4
:100A30000F900F900F90DF91CF911F910C9459253B
:100A4000FC01262F408151816281738184810C9445
:100A5000ED0481E00895CF93DF93EC0160E00E9404
:100A60002005BE01DF91CF910C94EB04E1E0F0E0B2
:100A7000DF0102C0AA0FBB1F6A95E2F7BD01DF01CB
:100A800002C0AA0FBB1F4A95E2F7AD01462B01C079
:100A9000EE0F2A95EAF7942F9823491302C08E2B64
:100AA0000895E0958E230895242F462F682F809176
:100AB000F9010E9436050C94140B0E943F140E9409
:100AC000B5060E9478220C94CE040C946B14089501
:100AD0000E94A60A0E9467052FEF84E39CE0215044
:100AE00080409040E1F700C000000C94432A0F932F
:100AF0001F93CF93DF938C0161E00E942005EC01EE
:100B0000B8010E941023882309F452C0B801CE0115
:100B10000E94E804882309F44BC0B801CE010E946A
:100B2000D921882309F444C0B801CE010E948C2643
:100B30008823F1F1B801CE010E94DE268823C1F19D
:100B4000B801CE010E941028882391F1B801CE018E
:100B50000E941620882361F1F8018281882309F11F
:100B6000CA358DE5D807C1F050F4C115FCE5DF07A3
:100B700081F0CE3DDC45A9F40E94331119C0CB357C
:100B8000EDE5DE0761F0CC35DD4559F40E94B80F84
:100B900008C00E9468050CC00E94C10F02C00E94DC
:100BA000C40FC801DF91CF911F910F910C94E40401
:100BB00080E0DF91CF911F910F910895DF92EF9226
:100BC000FF920F931F93CF93DF93E82FF0E0E0564F
:100BD000FB4FD490282F26952695269530E0F901D5
:100BE000E05CFA4F0491877010E0082E02C0159562
:100BF00007950A94E2F701701127F901E05DFA4FB9
:100C0000E490F12C082E02C0F594E7940A94E2F7E0
:100C100091E0E922FF24F901E05EFA4FC491D0E0AF
:100C200002C0D595C7958A95E2F7C170DD270115F9
:100C3000110519F081EE0E940F07E114F10419F07B
:100C400086EE0E940F078D2D0E943D08EF2819F0B7
:100C500086EE0E94BE07012B19F081EE0E94BE07AE
:100C6000CD2B51F08CE2DF91CF911F910F91FF902E
:100C7000EF90DF900C943D08DF91CF911F910F9181
:100C8000FF90EF90DF900895EF92FF920F931F93E4
:100C9000CF93DF93EC01162F0AE08881882309F4B3
:100CA00055C0813009F043C08981813041F47E0113
:100CB00082E0E80EF11C8A810E943D0809C0823062
:100CC00049F47E01E2E0EE0EF11C8A810E940F07DA
:100CD000E7012FC0833041F47E01F2E0EF0EF11CFA
:100CE0008A810E94BE07F4CF843011F0219621C082
:100CF0002A81229680E090E030E0205331092A30AA
:100D0000310558F4089FA001099F500D1124C90115
:100D1000840F951F21962881EFCF009751F0EFE9BE
:100D2000FFE03197F1F700C000000197F6CF0E9475
:100D3000DE052196812F882309F4AFCFEFE9FFE08C
:100D40003197F1F700C000008150F5CFDF91CF91CE
:100D50001F910F91FF90EF90089560E00C9444066E
:100D600008950C94B00681E008950895CF93C82F9C
:100D70000E94B1068C2F0E94D204CF910895CF9388
:100D8000DF93CDB7DEB72B970FB6F894DEBF0FBE5B
:100D9000CDBF4F83588769877A878B8761110E94FF
:100DA000E70F9E012F5F3F4F86E0F90111928A9570
:100DB000E9F785E0FE013796D90101900D928A95F9
:100DC000E1F789819A814C815D81452B31F09F3F0C
:100DD00031F491E08F3F19F403C091E001C090E03D
:100DE00090FF09C049815A816B817C818D819E81F0
:100DF0000E94E70E05C0C9010E9429058111F2CFAA
:100E00002B960FB6F894DEBF0FBECDBFDF91CF910A
:100E10000895FC01808191810E94DB0B0895CF939E
:100E2000882309F4A9C0C82F8238C1F40E9446283B
:100E300081FDA2C069E380910001909101010E94AF
:100E40003C290E9419102FEF81EE94E02150804040
:100E50009040E1F700C0000069E319C0833801F554
:100E60000E94462880FD88C063E580910001909132
:100E700001010E943C290E9419102FEF81EE94E09D
:100E8000215080409040E1F700C0000063E5809170
:100E90000001909101010E944729CF910C941910F3
:100EA0008438C1F40E94462882FD66C067E48091C0
:100EB0000001909101010E943C290E9419102FEF1E
:100EC00081EE94E0215080409040E1F700C00000A6
:100ED00067E4DDCF8CEF8C0F813AF8F48C2F0E9401
:100EE000A616811149C06C2F8091000190910101DB
:100EF0000E94BC28882349F06C2F809100019091BA
:100F000001010E9447290E9419106C2F8091000155
:100F1000909101010E943C29C0CF80E28C0F883063
:100F200048F4C77081E001C0880FCA95EAF70E94B3
:100F3000CA0FB3CFEBE5EC0FE33040F4F0E0EA5A30
:100F4000FE4F808190E0CF910C947A28E8E5EC0F79
:100F5000E73150F4F0E0EE0FFF1FE85DFE4F8081B7
:100F60009181CF910C949028C03F30F08C2F0E943B
:100F70007117CF910C944318CF910895882309F4E9
:100F800064C0823879F40E94462881FF5EC069E31C
:100F900080910001909101010E943C290E9419104A
:100FA00069E310C08338B1F40E94462880FF4DC029
:100FB00063E580910001909101010E943C290E940B
:100FC000191063E580910001909101010E94472969
:100FD0000C941910843879F40E94462882FF35C099
:100FE00067E480910001909101010E943C290E94D8
:100FF000191067E4E7CF9CEF980F913A10F4682F2F
:10100000E1CF90E2980F983050F4877091E001C0E2
:10101000990F8A95EAF7892F0E94D00FD9CF9BE5C7
:10102000980F933020F480E090E00C947A2898E5B3
:10103000980F973120F480E090E00C949028803F46
:1010400020F00E94CC170C94431808951F93CF935F
:10105000DF93182FEB010E940F07209741F08FE9D3
:101060009FE00197F1F700C000002197F6CF812F94
:10107000DF91CF911F910C94BE07893319F060E086
:1010800070E002C060E570E00C942608882321F02F
:101090000E94CA0F0C9419100895882321F00E9411
:1010A000D00F0C9419100895CF92DF92EF92FF9217
:1010B0000F931F93CF93DF937C01062FC72FFC0163
:1010C000D281158112951F700E949F0F882399F07D
:1010D000DD2389F08C2F807F803421F080E2800F27
:1010E000883048F082E00E9469100E949F0F91E0D2
:1010F000D82ED92601C0D12CCC2EC2948FE0C82284
:101100008C2D90E0FC01EA5AFF4F0C9440328C2F5A
:10111000807FCF70882311F0C295C07FDD2399F0C6
:10112000CC2309F460C180E2800F883010F00111F7
:1011300004C08C2F0E94CA0F03C08C2F0E94DA0FAC
:101140000E94191050C1802F0E94BE07CC2309F4C1
:101150006FC180E2800F883010F0011104C08C2F25
:101160000E94D00F03C08C2F0E94E00F0E94191024
:101170005FC18C2F807FCF70803211F0C295C07F0D
:10118000002319F00130C9F022C0DD2371F01123D2
:1011900041F0113031F40E94FA0F8C2B0E940210A2
:1011A00047C10E94FA0F8C2B1DC0112319F011307A
:1011B00009F43EC10E940F1025C0DD2321F0163036
:1011C00008F036C10EC0153008F032C11BC0DD2357
:1011D00061F0112331F0F701858180FF04C18F7028
:1011E00085838C2F0E94460823C1112359F00933AF
:1011F00009F00AC1FFEF27EE83E0F1502040804064
:10120000E1F700C18C2F0E944D0812C18C2F8695EA
:101210008695837019F0813061F00AC1DD2321F0D9
:10122000802F9C2F937002C080E090E00E947A286B
:1012300007C1DD2321F0802F9C2F937002C080E036
:1012400090E00E949028FCC0802FDD2319F00E94BE
:10125000711702C00E94CC170E944318F1C08C2F56
:10126000837079F5D111E8C0402F429546954770BB
:10127000440F440F202F2F70042E01C0220F0A9418
:10128000EAF704FF08C08FE090E001C0880F4A959C
:10129000EAF7809501C080E0C695C695C370822BA1
:1012A000C23049F058F4C13019F00E94080BC4C094
:1012B0000E94030BC1C00E940D0BBEC00E94010B17
:1012C000BBC0DD2319F08C2F817001C08695882367
:1012D00009F4B2C0402F429546954770440F440F21
:1012E000202F2F70042E01C0220F0A94EAF704FF6A
:1012F00008C08FE090E001C0880F4A95EAF780951A
:1013000001C080E0C695C695C370822BC23049F0FB
:1013100058F4C13019F00E944C0B8EC00E94470B4C
:101320008BC00E94510B88C00E94140B85C0CF70E7
:10133000DD2339F08C2F0E94250B802F0E94460858
:101340007BC0802F0E944D088C2F0E94300B74C0F0
:10135000023F01F128F4003F41F0013FA1F03FC0FE
:10136000033FF9F0043F39F13AC0DD2341F0153075
:1013700008F05EC08C2F8F710E943C0B59C0163054
:1013800008F056C0F7CFDD2339F08C2F8F710E9403
:10139000250B4EC0DD23C9F38C2F8F710E94300BBB
:1013A00047C0DD2329F08C2F8F710E941D0B40C098
:1013B0000E941A0B3DC0DD2349F0CF718C2F0E9493
:1013C000250B63E08C2F0E944E1032C081E00E94FA
:1013D0006910123068F182E00E94691029C0DD2393
:1013E00031F0112391F2802F0E940F0721C01123A9
:1013F00099F2093349F49FEFE7EEF3E09150E040B2
:10140000F040E1F700C00000802F0E94BE0710C02E
:101410004C2F4F70602FC7010E9421120E94090CAF
:101420000FC04C2F4F70602FC7010E94241208C0BC
:1014300088EF8C0D843020F40E9446280E94B60666
:10144000DD20C9F00E949B0F80FD15C0F7011282BC
:101450000E94950F0E94250BC7010E945C0A0E9402
:10146000950FDF91CF911F910F91FF90EF90DF903B
:10147000CF900C94300BDF91CF911F910F91FF9083
:10148000EF90DF90CF9008950F931F93CF93DF934A
:10149000EC01688179818A810E94E60B8C010E94AF
:1014A000560B0E94F50AB801CE010E945408DF9144
:1014B000CF911F910F910895CF93DF93EC01988105
:1014C00089812B813C81232B31F08F3F31F481E0E6
:1014D0009F3F19F403C081E001C080E080FD19C086
:1014E000CE010E94770581110CC00E949F0F8823B6
:1014F00081F08A81882369F082E0DF91CF910C949A
:101500006910CE010E94440ACE01DF91CF910C9464
:101510002B05DF91CF91089580E090E00E947A281A
:1015200080E090E00E9490280E94E70F0E94F70F51
:101530000E9419100E9474190C94431880910001A4
:10154000909101010E9452290C948C0A0E94D70F9D
:101550000C949E0AE92FE295EF704E2F50E0FA01AD
:101560003297EE30F105B0F4EA59FF4F0C94403257
:10157000803F91F018F4883E68F40EC0843F51F427
:101580000BC0883E48F0813F29F406C093FB8827B2
:1015900080F9089580E0089581E00895FC0180813C
:1015A00091810E94DB0B0E94AA0A0895CF93DF93DA
:1015B00000D000D01F92CDB7DEB70F900F900F90E4
:1015C0000F900F90DF91CF910895CF93DF9300D0CC
:1015D00000D000D0CDB7DEB726960FB6F894DEBFA8
:1015E0000FBECDBFDF91CF910895089508950C945B
:1015F000F60A0C94F70A0E94F90A8093FA010C94F7
:101600008C0A0C94FB0A9091FA01892B0C94FB0A2A
:101610009091FA0189230C94FB0A9091FA01892791
:101620000C94FB0A0C94F60A0E94120B8093F901A9
:101630000C948C0A80E00C94140B91E001C0990F7B
:101640008A95EAF7892F0C94140B21E030E001C051
:10165000220F8A95EAF78091F901822B0C94140BE2
:1016600021E030E001C0220F8A95EAF720958091B1
:10167000F90182230C94140B21E030E001C0220F09
:101680008A95EAF78091F90182270C94140B9091C6
:10169000F901892B0C94140B9091F90189230C9476
:1016A000140B9091F90189270C94140B089528E0EC
:1016B000929F800D1124E82FE695E695E6958770B8
:1016C00051E001C0550F8A95EAF783E0E89FF001E9
:1016D0001124EB52FE4F20E030E070E04081CB015E
:1016E000022E02C0969587950A94E2F78170819543
:1016F00084278523842781932F5F3F4F2330310533
:1017000069F7089528E0929F800D1124682F66954F
:1017100066956695982F977083E0689FB0011124B5
:1017200040E050E080E0FB01E40FF51FEB52FE4F7C
:10173000208130E0092E02C0369527950A94E2F701
:1017400021703327042E01C0220F0A94EAF7822B5E
:101750004F5F5F4F4330510531F70895CF92DF92CD
:10176000FF920F931F93CF93DF936C010091F901C8
:101770008091FA01082BC7E0D0E010E0C8010C2EE0
:1017800002C0959587950A94E2F780FD04C02197E1
:10179000A8F7F12C07C0FC2EB6018C2F0E9449132C
:1017A0000197A9F38F2DDF91CF911F910F91FF909A
:1017B000DF90CF900895CF93DF93EC010E94AE0BA2
:1017C000BE010E944913DF91CF9108951F93CF93DB
:1017D000DF93EB019091D401992321F0CB010E947A
:1017E000DB0B13C0882349F0CB010E94AE0B182FEE
:1017F000682FCE010E94570B04C0CB010E94820BC0
:10180000182FBE01812F0E944913DF91CF911F91A4
:101810000895EF92FF920F931F93CF93DF938C0164
:10182000892B09F46CC0F12CEE24E394E801219695
:10183000F8018491843740F4843008F051C081303D
:1018400081F0823019F15BC0853709F444C0A8F1FA
:101850009CE7980F903708F052C08F770E94BE0720
:1018600041C00E5F1F4FFE01849190E2980F9830A7
:1018700050F48770FE2D01C0FF0F8A95EAF78F2F75
:101880000E94EA0F14C00E940F072DC00E5F1F4F69
:10189000FE01849190E2980F983060F48770FE2DDD
:1018A00001C0FF0F8A95EAF78F2F0E94F00F0E9468
:1018B000191019C00E94BE0716C00E5F1F4FFE010F
:1018C000C491CC2381F08FE99FE00197F1F700C02C
:1018D0000000C150F6CF0E5F1F4FFE01F49003C011
:1018E0000E940F078E018F2D882309F49FCFEFE907
:1018F000FFE03197F1F700C000008150F5CFDF9194
:10190000CF911F910F91FF90EF9008951F93CF9368
:10191000DF93C091FB0116E08091FC01C81799F09C
:10192000D0E01C9FF0011D9FF00D1124E350FE4FED
:101930004081518162817381848195810E94E50A91
:101940002196C770E9CFDF91CF911F910895409103
:101950002D0250912E0260912F02709130028091E1
:101960003102909132020C94E50A0F931F93CF93AA
:10197000DF938091320282958F7009F05DC0809173
:101980002F02882309F458C08091FB011091FC01BB
:1019900060912D0270912E02C0913002D0913102DF
:1019A00091E06F3F09F090E0292F06E0811709F4DC
:1019B00043C0209721F07F3F21F030E003C031E0A9
:1019C00001C0322F90E030FD34C0089FF001099F24
:1019D000F00D1124DF01A350BE4F11963C911197D9
:1019E000371327C03C91361324C012963C911297AE
:1019F00031111FC013964D915C9114974C1B5D0BD8
:101A0000483C5105B0F4809132028F708061809320
:101A10003202EE5FFD4F80818F70806180838DE2A6
:101A200092E00E945C0ADF91CF911F910F910C947C
:101A3000860C01968770BACFDF91CF911F910F91DD
:101A400008959F92AF92BF92CF92DF92EF92FF9252
:101A50000F931F93CF93DF93CDB7DEB761970FB688
:101A6000F894DEBF0FBECDBF8C0185E0F801DE012A
:101A70001D9601900D928A95E1F7F801E280909110
:101A80002D0260912E0220913002309131022115F9
:101A9000310531F06F3F31F481E09F3F19F403C00D
:101AA00081E001C080E0F82FF1709F2E80FD3FC1E2
:101AB000F80140815181A380B4808DE2C82E82E07C
:101AC000D82EF0902F02F501E21BF30BFF2009F452
:101AD000D9C080913202E83CF10508F095C0282F6A
:101AE000207F09F052C0561313C0491311C0FE2CB9
:101AF000E1100EC08F708061809332020E94A70CAB
:101B0000C6010E945C0A80913202F80185834CC1B3
:101B1000AB2831F05F3F31F481E04F3F19F403C04F
:101B200081E001C080E080FD03C081E08E2502C01D
:101B300080E090E0F82FF170FF2E80FF1CC08091B4
:101B4000FB012091FC0136E0821709F40BC190E003
:101B5000389FF001399FF00D1124E350FE4F618151
:101B6000561306C06081461303C06281E61203C0AB
:101B700001968770E9CFFE2CEE2009F415C1809103
:101B8000320281608093320254C0561306C049135A
:101B900004C0E11002C0F80199C0C8010E94CE0A39
:101BA000882361F1EE2051F120913202822F82953B
:101BB0008F7090E0029774F080912D0290912E0228
:101BC00098878F831986BB86AA862C87CE010796B5
:101BD0000E945C0A86E0F801ADE2B2E001900D924D
:101BE0008A95E1F70E94B50C0E94A70C0AC056170F
:101BF00011F1C8010E94CE0A81112CC0C8010E94B7
:101C00005C0AFF24F394D0C0282F207F81F77A2D1F
:101C1000B98AA88A6E2D89890E94D60A8DE292E03F
:101C20000E945C0A86E0F60111928A95E9F70E940B
:101C3000A70CF12CB9C04913DCCFE110DACFF801C1
:101C40008583C8010E945C0A86E0F60111928A959C
:101C5000E9F7AAC0EE2091F220913202822F8295FC
:101C60008F7090E002970CF4B5CF80912D02909187
:101C70002E029A8389831B82BD82AC822E83CE0181
:101C80000196A6CFE83CF10508F044C0FE2CEE20FA
:101C900009F4B4CF561330C049132EC0209132023C
:101CA00020FD21C0822F82958F70482F50E0411572
:101CB0005105C9F0F80125834F30510541F08F5F80
:101CC000982F9295907F822F8F70892B8583C801E2
:101CD0000E945C0A86E0F801ADE2B2E001900D924C
:101CE0008A95E1F73CC086E0F801ADE2B2E00190F0
:101CF0000D928A95E1F758C0C8010E94CE0A811161
:101D000069CF80913202816080933202C8010E94C3
:101D10005C0A4AC07A2DB98AA88A6E2D89890E94E8
:101D2000D60A86E0F60111928A95E9F718C0EE20EE
:101D300009F464CFC8010E94CE0AF82E882309F462
:101D40005DCF86E0F801ADE2B2E001900D928A9598
:101D5000E1F78DE292E00E9409070E94B50C0E9413
:101D6000A70C22C04D875E878D859E850E94DB0B68
:101D7000292F22952F70223028F49F7039F081117D
:101D800005C00BC0243028F49F7049F4805E883071
:101D900020F0C8010E945C0A9F2CF92C05C0F801B4
:101DA0009581907F99F7F9CF8F2D61960FB6F894B2
:101DB000DEBF0FBECDBFDF91CF911F910F91FF907E
:101DC000EF90DF90CF90BF90AF909F9008951F93BA
:101DD000CF93DF93CDB7DEB72C970FB6F894DEBF65
:101DE0000FBECDBF4F83588769877A878B879C87C3
:101DF000CE0107960E94210D8823D1F09F8188850E
:101E00002A853B85232B31F08F3F31F481E09F3FC2
:101E100019F403C081E001C080E080FD47C04F811C
:101E2000588569857A858B859C850E94E50A3EC028
:101E300086E0FE013796DE01119601900D928A959B
:101E4000E1F7FF81E8856A857B856115710531F0D1
:101E5000EF3F31F481E0FF3F19F403C081E001C09E
:101E600080E080FD23C02091FC0130E0C901019693
:101E7000877099274091FB0150E084179507F1F195
:101E8000F983EA837D836C8396E0929FD001939FD0
:101E9000B00D1124A350BE4FFE01319601900D925A
:101EA0009A95E1F78093FC010E94860C16E08091E0
:101EB000FB019091FC01891771F1189FC001112459
:101EC00083509E4F0E94210D882329F1E091FB0150
:101ED0001E9FF0011124E350FE4F40815181628129
:101EE0007381848195810E94E50A8091FB0190E0D5
:101EF0000196877099278093FB01D9CF0E94A60A8B
:101F00001092FC011092FB01EDE2F2E086E0DF01AD
:101F10001D928A95E9F72C960FB6F894DEBF0FBE96
:101F2000CDBFDF91CF911F910895809133028595A8
:101F300085958595089580913302877008959091D5
:101F40003302977081E009F480E008959091C10216
:101F500092FB222720F9281751F080FB92F99093E9
:101F6000C1028091C0029091C1020C94B0100895FA
:101F70008091C10282FB882780F991E089270C9427
:101F8000A60F81E00C94A60F80E00C94A60F809120
:101F90005702089590915702892B80935702089514
:101FA000809590915702892380935702089510924B
:101FB0005702089590915602892B809356020895F6
:101FC000809590915602892380935602089510922D
:101FD0005602089590915502892B809355020895D9
:101FE000809590915502892380935502089510920F
:101FF0005502089580913402089508950C94FD0FC0
:102000000C94FE0F9091C10292FD08C09091340291
:10201000981721F0809334020C9400100895809159
:102020003402882329F01092340280E00C940010CE
:102030000895E0910001F0910101809157028083A1
:10204000E0910001F0910101908180915602892B6D
:102050008083E0910001F09101019081809155020F
:10206000892B808380913402882381F0E0910001E4
:10207000F09101019081892B8083809100019091E2
:1020800001010E94A62881110E940F108091000179
:10209000909101010C9452280C94FD0F9091C10273
:1020A00092FD10C098E0899F90011124262B209367
:1020B00033020E94250B8091330285958595859585
:1020C0000C944C100C94250B1092330280E00C946D
:1020D0004C10209133028095822380933302982FF5
:1020E000977041F430E0482F082E000C550B241750
:1020F000350721F49091C10292FF07C0859585951F
:1021000085950E94300B0C94641008956FEF7FEF5B
:1021100080E090E00C94CA3280E090E00E94A63209
:10212000893E9E4F11F40C94B32280E0089582E022
:1021300090E00C94983283E090E00C949832CF9326
:1021400084E090E00E949832C82F82E290E00E94E2
:1021500098322C2F30E0A901582BCA01CF91089555
:10216000CF93C92F682F84E090E00E94AC326C2F8F
:1021700082E290E0CF910C94AC32AB01BC018FE0D5
:1021800090E00C94BE32AB01BC0183E190E00C9472
:10219000BE3260E070E0CB010C94C31060E070E0F0
:1021A000CB010E94BD100C94C91069EE7EEF80E057
:1021B00090E00E94CA3260E082E090E00E94AC327F
:1021C00060E083E090E00E94AC321092FA0160E09F
:1021D00084E090E00E94AC3260E082E290E00E94F5
:1021E000AC3260E085E090E00E94AC3260E086E0D6
:1021F00090E00E94AC326FEF87E090E00E94AC323A
:1022000040E050E0BA0188E090E00E94BE3260E019
:102210008DE090E00E94AC3240E050E0BA0188E1ED
:1022200090E00E94BE3260E087E190E00E94AC3214
:1022300040E050E0BA018CE190E00E94BE3260E0E4
:1022400070E080E290E00E94CA3240E050E0BA01C3
:1022500088E190E00E94BE3280E00E94CC220E9481
:10226000F8220C94CE100C94D510682F8EE090E0DC
:102270000C94AC320E94022A6093690270936A0245
:1022800080936B0290936C02609365027093660278
:102290008093670290936802089585B7806885BF30
:1022A00085B7806885BF089581E008950C94541126
:1022B00008950C9458110C9458110C945B110C94C3
:1022C00058110C945F110C9458110E944D1185E225
:1022D00094E10E94672A0E9463110C9461110E948C
:1022E00059110C9458110E94ED290E9407230E9455
:1022F00010150E94FD200E94241F0C945D119F92D6
:10230000AF92BF92CF92DF92EF92FF920F931F9303
:10231000CF93DF93CDB7DEB72A970FB6F894DEBF21
:102320000FBECDBF0E94211581110E943A1189E58F
:10233000A82E82E0B82E00E010E0902E802F0E94A0
:102340005914D82EF501C1905F01C826B1F40F5F72
:102350001F4F0C30110589F78FEF89838A831B8209
:102360000E94F6298160782F9D838C8349815A8150
:102370006B818D810E94BF062FC080916D0281FD0F
:102380000E945F14E12CFF24F3948C2D8F21F1F037
:102390000E945611882399F0EE829F82DF2081E00F
:1023A00009F480E088870E94F6298160782F9A8757
:1023B00089874E815F8168858A850E94BF06F80102
:1023C000E75AFD4F8081F826F08206C0E394FF0CA7
:1023D000F8E0EF12DACFBBCF0E94681F0E9477228D
:1023E0000E9461180E944628909158028917B9F0FE
:1023F0000E944628809358022A960FB6F894DEBFB2
:102400000FBECDBFDF91CF911F910F91FF90EF9045
:10241000DF90CF90BF90AF909F900C94B6062A9615
:102420000FB6F894DEBF0FBECDBFDF91CF911F91E5
:102430000F91FF90EF90DF90CF90BF90AF909F9063
:10244000089580E090E008950895880F991FFC0199
:10245000E05BFA4F859194910895CF93DF930E94AA
:102460004E13EC01811520E5920708F03FC081155D
:1024700040E4940708F0D2C0883E910500F5803E04
:10248000910508F002C1883A910570F4853A9105EA
:1024900008F0A6C08130910509F49FC008F4F2C08D
:1024A000049708F0F2C0EEC08F3B910508F4A1C07C
:1024B000803C910508F4E6C0805C9109A5C08115B7
:1024C00050E2950760F4C11581E0D80708F0DDC03F
:1024D000C03FD10508F4D6C0CE019065D7C08115A4
:1024E00020E3920708F093C09F708EC0811545E5E8
:1024F000940708F046C0811554E5950708F0A6C07A
:10250000C11582E5D80718F5C11521E5D20708F0F5
:1025100088C0CE01F4E096958795FA95E1F7282FCB
:1025200023703C2F337081E090E002C0880F991F28
:102530003A95E2F79C68922B2C2F2F7026952695C2
:1025400040E2249F90011124822B932B9FC09E0177
:10255000237033279C2F96959695C115D34508F087
:1025600065C041E050E002C0440F551F2A95E2F7D4
:1025700080E2989F90011124CA01822B932B9C68C2
:1025800085C0811559E5950798F4C11588E5D807E8
:1025900008F061C0C11526E5D20708F073C08C2F82
:1025A0000E94E2138F7190E0982F882790626EC08E
:1025B00081154AE5940708F453C09056811590425E
:1025C00008F060C08D2F8F710E94E2139E013327A7
:1025D00030628F71A901582B53C081E090E056C042
:1025E000855AC82FD0E0C957DE4F888190E09064AB
:1025F0004DC0885AC82FD0E0CC0FDD1FC75ADE4F20
:1026000088819981946442C00E9425123FC0992715
:10261000D3FF02C0986C3AC0906C38C09F70906A2B
:1026200035C09C2F8827816F906A30C041E050E010
:1026300002C0440F551F2A95E2F780E2989F90014F
:102640001124CA01822B932B9A6820C0982F8827C7
:10265000846F906A1BC09C2F8827806F906A16C079
:102660008F700E94E2139E0194E0369527959A950B
:10267000E1F72F7030E0322F22273069A901482B73
:10268000CA0104C080E090E001C0CE01DF91CF918B
:1026900008950E9459250E942D12089582389105AF
:1026A00069F1B0F48133910509F46DC048F48932C1
:1026B000910509F463C08A32910509F469C008954F
:1026C0008533910509F455C089339105B9F0089512
:1026D000833E910569F138F4803E9105B1F0823E68
:1026E000910509F10895863E9105A9F1873E91056E
:1026F000B9F1843E910509F064C023C02091C00265
:1027000020FD4FC021FD4DC008958091C00280FD85
:1027100044C08091C10280FF44C08091C00284FD0A
:1027200042C083EE4DC08091C00282FF38C0F5CF19
:102730008091C00282FD33C08091C10280FD31C012
:10274000ECCF8091C10281FF32C08091C00284FD34
:102750002AC087EE35C08091C00283FF26C0F5CF26
:102760008091C00283FD21C08091C10281FD1FC004
:10277000ECCF8091C00285FD1CC01DC08091C002BD
:1027800085FD19C016C08091C00286FD16C017C015
:102790008091C00286FD13C010C089E311C082EE93
:1027A0000FC080EE0DC080E00BC086EE09C084EE45
:1027B00007C089E205C085E303C08AE201C081E366
:1027C00090E008959091C00292FF0DC0282F2871CB
:1027D000283019F4877F846006C0282F24712430A4
:1027E00011F48B7F886093FF0DC0282F287128314A
:1027F00019F4877E846106C0282F2471243111F4D6
:102800008B7E88612091C10220FF0DC0382F387166
:10281000383019F4877F816006C0382F317131302C
:1028200011F48E7F886021FF0DC0282F2871283178
:1028300019F4877E816106C0282F2171213111F49E
:102840008E7E886194FD877E089580E008950C94C3
:1028500086100E9421158FE39CE90197F1F700C0D3
:1028600000000E94211580E00E94591480FF04C0DE
:102870000E9427140C94432A08950C9429140E9452
:102880008C10811102C00E9433110E949710809316
:102890006D020E949F109093C1028093C0020E941B
:1028A0003D140E949B100E94010B8091F9010C9431
:1028B000120BE82FF0E0E253FD4F80810895089558
:1028C00080EA8A95F1F7089500C008950C94601489
:1028D00008950C9468140C9469140C946814F8947A
:1028E000E82FE295EF70F0E031A1282F2F7081E002
:1028F00090E001C0880F2A95EAF7982F90959323CE
:1029000091A392A1892B82A3789408950F931F938A
:10291000CF93DF93C2E9D1E089918F3F11F00E94FC
:102920006F1481E0CE39D807B9F7CAE8D1E002E9DF
:1029300011E089918F3F11F00E946F140C171D0751
:10294000C1F7DF91CF911F910F910895CF92DF9240
:10295000EF92FF920F931F93CF93DF938C01C62FBB
:10296000D0E0CE018E569E4F7C01FC0190819F3FAE
:1029700009F44DC0D62EF894E92FE295EF70F0E0FF
:1029800081A19F7021E030E001C0220F9A95EAF703
:10299000822B81A382A12095282322A378940E94D0
:1029A0006414EAE8F1E020E030E0C12C51E041910C
:1029B0004F3FB1F0A42FA295AF70B0E090968C91EC
:1029C00090E04F7002C0959587954A95E2F780FD9B
:1029D00007C0852F022E01C0880F0A94EAF701C0B4
:1029E00080E0C82A2F5F3F4F2830310501F7F701FB
:1029F00080818F3F11F00E946F1461E0C11001C00F
:102A000060E08D2D0E946614C00FD11FC882DF9137
:102A1000CF911F910F91FF90EF90DF90CF9008958D
:102A20000E948614E2ECF2E0AEECB2E011921D924C
:102A300082E0EE3CF807D1F78CE00E946C150C9414
:102A40005D05FF920F931F93CF93DF93CDB7DEB752
:102A50002C970FB6F894DEBF0FBECDBF8E010F5F6F
:102A60001F4F8CE0F80111928A95E9F7F12C6F2D38
:102A7000C8010E94A614F394FCE0FF12F8CF4CE0CA
:102A800050E0B80182EC92E00E948B32FF24F39474
:102A9000009709F4F12C892B41F08CE0F801A2ECAD
:102AA000B2E001900D928A95E1F72F2D4CE06EEC8B
:102AB00072E082EC92E00E946D150E9465058F2DF8
:102AC0002C960FB6F894DEBF0FBECDBFDF91CF912D
:102AD0001F910F91FF9008950895FF920F931F93F8
:102AE000CF93DF938C01F62ED72FC42F222349F0EA
:102AF00081E0809370020E94F62990936F02809388
:102B00006E02809170028823C1F080916E029091D4
:102B10006F020E940E2A059780F0EF2DFD2FD8013D
:102B20004C2F50E0CD01801B910B841795071CF4AE
:102B30008D918193F7CF10927002DF91CF911F9109
:102B40000F91FF9008950E9464290E94102C0E940A
:102B5000292C0E943B2C0E946F11FBCF893289F1F6
:102B6000F0F4843171F1B0F4873009F077C08EE170
:102B70008093090182E3809308018AE08093070132
:102B800084E18093060188E08093030188E28093CA
:102B9000020164C092EE980F9A30F0F05FC0803569
:102BA00009F444C028F48F3409F058C08AE03FC0CB
:102BB000813529F0823509F051C081E038C08FEFAE
:102BC00036C080917302882379F1109273021092BB
:102BD00072021092710242C08D5180937302833051
:102BE00099F038F4813069F08230D9F488E091E0CE
:102BF0000DC0853099F078F0863099F482E091E04C
:102C000005C089E091E002C087E091E090937202F4
:102C10008093710223C086E091E0F8CF83E091E0D9
:102C2000F5CF109273021AC080E0089586EFE0910C
:102C30007102F0917202309789F02081082E000C09
:102C4000990B820F911D8F3F910519F014F08FEFB2
:102C500004C097FF02C0108201C0808381E0089504
:102C6000482F50E0FA013597EF33F10508F068C0BE
:102C7000EC58FF4F0C9440320E9433115DC080919C
:102C80006D02817F8E7F80936D0281E0809374025C
:102C900008950E94680550C080916D02982F90950C
:102CA000917090FB80F980936D02911145C0897FEE
:102CB000877F10C080916D0281FB222720F991E06F
:102CC000922790FB81F980936D029923A9F180915D
:102CD0006D02816080936D022FC080916D0282FB36
:102CE000222720F991E0922790FB82F9ECCF809186
:102CF0006D0283FB222720F991E0922790FB83F954
:102D0000E2CF0E94A60A8091C00287FB222720F909
:102D100091E0922790FB87F98093C0020DC0895300
:102D200001C08D5191E001C0990F8A95EAF7892F72
:102D30000E94010B0E94A60A81E0089581E0F8CF6D
:102D400080E0089580E008950C94A216CF93C82FD8
:102D500080917402813069F038F08230C1F58C2F97
:102D60000E94AE1581E039C00E94C70F823289F5FA
:102D700004C00E94C70F823261F48C2F0E94A416F7
:102D8000811104C08C2F0E9430161FC081E090E09A
:102D90001CC08C2F0E94A216811116C0C43189F06C
:102DA00058F4CB3089F0C031B1F482E080937402E2
:102DB00088E30E94AE1508C0C93219F0C83321F06B
:102DC0000AC01092740207C081E0817006C01092A0
:102DD000740280E002C080E0F8CFCF910895809126
:102DE0007B0280FF0BC06091070185E0689FB00106
:102DF000112475956795759567952BC081FF09C05E
:102E00006091070185E0689FB00111247595679571
:102E100020C082FF07C06091070185E0689FB00174
:102E2000112417C090917A029923D1F06091060184
:102E3000961788F72091070185E0289F90011124BB
:102E4000929FA001939F500D112470E0CA010E942F
:102E50000A326038710540F46115710519F406C035
:102E600065E070E0862F08958FE7089581E008956A
:102E700080917B0280FF08C06091030170E075952E
:102E800067957595679521C081FF06C06091030124
:102E900070E07595679519C082FF04C060910301C9
:102EA00070E010C090917902992399F0609102012D
:102EB0009617A0F780910301899FC001112470E04B
:102EC0000E940A326038710540F46115710519F4E9
:102ED00006C061E070E0862F08958FE7089581E0D5
:102EE0000895803F21F40E94EF16819504C0813F30
:102EF00029F40E94EF1680937F020895823F21F407
:102F00000E94EF16819504C0833F29F40E94EF16BA
:102F100080937E020895893F19F40E94381705C0F6
:102F20008A3F31F40E94381781958093800208957A
:102F30008B3F21F40E943817819504C08C3F29F4FF
:102F40000E9438178093810208959CE0980F953075
:102F500078F421E030E0A90102C0440F551F9A9592
:102F6000E2F7CA0190917D02892B80937D0208953A
:102F70008D3F21F480917B0281600BC08E3F21F454
:102F800080917B02826005C08F3F29F480917B0293
:102F9000846080937B020895803F39F490917F0292
:102FA00097FF35C010927F0259C0813F29F490915C
:102FB0007F021916BCF32BC090917E02823F29F448
:102FC00097FF25C010927E0249C0833F19F419165D
:102FD000CCF31DC090918002893F29F41916BCF4EE
:102FE000109280023BC08A3F19F497FF10C0F8CFBF
:102FF0008B3F39F49091810297FF09C010928102B2
:103000002DC08C3F21F4909181021916BCF39CE0F5
:10301000980F953080F421E030E0A90102C0440F00
:10302000551F9A95E2F7CA01809590917D028923F8
:1030300080937D0213C08D3F21F480917B028E7FAF
:103040000BC08E3F21F480917B028D7F05C08F3FA6
:1030500029F480917B028B7F80937B0280917E029A
:10306000811106C080917F02811102C010927A0204
:1030700080918002811106C080918102811102C07D
:103080001092790208950E94F62920917E02211162
:1030900004C020917F02222321F090937802809334
:1030A000770220918002211104C020918102222305
:1030B00021F090937602809375028CE792E00C9455
:1030C0006C28EF92FF920F931F93CF93DF9300D062
:1030D00000D000D0CDB7DEB786E0ECE7F2E0DE014D
:1030E000119601900D928A95E1F7E0907E02F090A2
:1030F0007F02009180021091810210927E02109254
:103100007F021092800210928102E11003C0FF2022
:1031100009F45DC080917702909178020E940E2A96
:10312000AC0190917A02992339F02091080130E0A6
:103130002417350758F04BC0209109018AE0289FD9
:10314000900111242417350718F041C09F3F19F052
:103150009F5F90937A02EE2061F00E94EF161E149A
:1031600014F09FEF01C091E0989F902D112490934F
:103170007E02FF2061F00E94EF161F1414F09FEFF3
:1031800001C091E0989F902D112490937F0230917F
:103190007E023323E1F020917F022223C1F045EB30
:1031A0003403C0011124992319F090937E0203C0C7
:1031B00081E080937E0235EB2303C0011124992323
:1031C00019F090937F0203C081E080937F02011188
:1031D00003C0112309F45DC08091750290917602BD
:1031E0000E940E2AAC0190917902992339F0209126
:1031F000040130E02417350758F04BC02091050139
:103200008AE0289F900111242417350718F041C047
:103210009F3F19F09F5F90937902002361F00E9415
:103220003817101614F09FEF01C091E0989F902D71
:10323000112490938002112361F00E943817111617
:1032400014F09FEF01C091E0989F902D112490936E
:103250008102309180023323E1F020918102222308
:10326000C1F045EB3403C0011124992319F0909368
:10327000800203C081E08093800235EB2303C0010C
:103280001124992319F09093810203C081E0809367
:10329000810280917E0281110BC080917F02811199
:1032A00007C080918002811103C080918102811149
:1032B0000E944318EB82FC820D831E8386E0FE0190
:1032C0003196ACE7B2E001900D928A95E1F726962F
:1032D0000FB6F894DEBF0FBECDBFDF91CF911F9127
:1032E0000F91FF90EF900895ECE7F2E086E0DF01A8
:1032F0001D928A95E9F710927A0210927902109243
:103300007B020895EF92FF920F931F93CF93DF9369
:103310008B01682F11110AC0442329F0E82FF0E037
:10332000E959F94F6491762F862F75C0212F30E02F
:10333000E82FF0E0442321F0E959F94FE491F0E05F
:1033400046E0049FC0011124CFEFD0E0BE010E94EF
:10335000F6314BEA4603C001479F900D1124800FC0
:10336000911D800F911D982F990F890FAE01421B5F
:10337000530B4E9FD0014F9FB00D5E9FB00D112497
:103380009B2F189FA0011124452F55278E01041B48
:10339000150B0E9FA0010F9F500D1E9F500D112465
:1033A0007E01E81AF108E29E8001E39E100DF29E74
:1033B000100D1124212F3327C21BD30BCE9F900158
:1033C000CF9F300DDE9F300D112462307105A9F0C2
:1033D00048F46115710569F061307105C9F48B2FEE
:1033E000752F0DC06430710581F058F0663071059D
:1033F00079F47E2F8B2F932F0DC0832F7B2F9E2F41
:1034000009C08E2F7B2F952F05C08E2F732F02C0E2
:103410007E2F852F692FDF91CF911F910F91FF9004
:10342000EF90089541E00E948219089508950E9446
:10343000121A0895CF93DF93762FE901682F842F16
:103440000E94171A798368838A83DF91CF91089548
:103450004D3D08F04CED0C941A1A8091DA02282F99
:10346000269530E02115310519F48170826005C080
:103470002532310524F0817088648093DA028091CE
:10348000DD028D3D18F08CED8093DD02089588E01B
:1034900090E00C94A032CF92DF92EF92FF926B01FA
:1034A0007C010E942D1AB701A60188E090E0FF90F0
:1034B000EF90DF90CF900C94BE326091DA02709161
:1034C000DB028091DC029091DD020C944B1AEAED54
:1034D000F2E083E0808311828FEF82838CED83831F
:1034E000148260817181828193810C944B1A809146
:1034F000DA0280FF02C08695089580E008959091D9
:10350000DE02933018F49F5F9093DE02882351F01F
:103510006091DA027091DB028091DC029091DD0211
:103520000C944B1A089581E00C947F1A9091DE025E
:10353000992319F091509093DE02882351F0609105
:10354000DA027091DB028091DC029091DD020C9432
:103550004B1A089581E00C94961A8091DE0208952A
:103560008093DE02662351F06091DA027091DB02F3
:103570008091DC029091DD020C944B1A089560E07A
:103580000C94B01A8091DB0208958091DC020895BA
:103590008091DD02089570E00C94882260910E0104
:1035A0008091DA0280FF0AC080910D0123E0829FA2
:1035B000C001112481529D4F0C94CB1A80910F01B0
:1035C00090911001891780F7E82FF0E09F01220FFA
:1035D000331FE20FF31FE152FD4F1182108212825E
:1035E0008F5FF0CF9091DA0290FF16C090910F019B
:1035F00020911001921770F4E92FF0E0DF01AA0F7B
:10360000BB1FEA0FFB1FE152FD4F818360834283A2
:103610009F5FF0CF0C94CE1A0895CF93DF9300D024
:103620001F92CDB7DEB79091DA0290FF0AC09E01DB
:103630002F5F3F4F0E94281A4B8169818A810E9427
:10364000F21A0F900F900F90DF91CF910895CF93C2
:10365000DF93EC01EC81F0E0EE59FA4F4491EAED92
:10366000F2E0628181810E940D1B8C818F5F8C83CF
:10367000DF91CF910895CF93DF93EC01EAEDF2E073
:10368000438162818C810E940D1B8C818F5F8C83B2
:10369000DF91CF9108950F931F93CF93DF9300D0C5
:1036A0001F92CDB7DEB78C018091820281110AC0D2
:1036B0009E012F5F3F4F4CED6FEF0E94281A8A81C9
:1036C00080938202F8018481813051F028F08230A9
:1036D00061F4409182020AC08091820240E007C0FA
:1036E0006091820240E080E003C040E080E060E062
:1036F0000E94F21AF801848190E0019663E070E084
:103700000E940A3284830F900F900F90DF91CF9127
:103710001F910F910895AF92BF92CF92DF92EF92D7
:10372000FF920F931F93CF93DF9300D01F92CDB7DB
:10373000DEB7182FF62E042FE22E9091DA0290FFBA
:103740006DC0E92FE695AE2FB0E0A256BE4F8C912A
:1037500080938E029E7F923061F49E012F5F3F4FD7
:10376000812F0E94281A4B8169818A810E94F21A56
:1037700043C0823019F40091DD023EC0863019F456
:103780001091DB0239C08930D9F38931A9F5E951AB
:103790008E2F8170D82EE695F0E0EE59F94FA59066
:1037A000B490C12CBB2460911101C61618F52C2DC4
:1037B00030E0A29EC001A39E900DB29E900D1124F8
:1037C00070E00E94F631812FD11002C0860F01C037
:1037D000861B90910F01290F311DA901440F551F20
:1037E000240F351F21523D4F402F6F2D0E94281A64
:1037F000C394D9CF0E94CE1A1093DB02F092DC0260
:103800000093DD02EE2051F06091DA027091DB024C
:103810008091DC029091DD020E944B1A0F900F9074
:103820000F90DF91CF911F910F91FF90EF90DF905C
:10383000CF90BF90AF900895EAEDF2E09181282FEC
:103840004381628188E0890F0C948B1B81E00C948A
:103850001C1CEAEDF2E09181282F4381628188EF00
:10386000890F0C948B1B81E00C94291CEAEDF2E08B
:10387000628128E0620F08F46FEF282F4381818175
:103880000C948B1B81E00C94361CEAEDF2E0628113
:1038900028E0621B08F460E0282F438181810C94AA
:1038A0008B1B81E00C94451CEAEDF2E0438128E09B
:1038B000420F08F44FEF282F628181810C948B1BFB
:1038C00081E00C94541CEAEDF2E0438128E0421BB5
:1038D00008F440E0282F628181810C948B1B81E0E9
:1038E0000C94631C20E00C948B1BFF920F931F938E
:1038F000CF93DF93EC01F12C0FEF10E060911101F9
:10390000F616F0F480910F012F2D30E0280F311DB5
:10391000C901880F991F280F391F21523D4F70E0B0
:10392000C8010E940A32962F8C814091DD0260917D
:10393000DC02F99E800D11240E94281AF394DECF38
:103940000E94CE1A9A818C8190FF02C08F5F01C0C5
:1039500081508C83DF91CF911F910F91FF9008953B
:10396000BF92CF92DF92EF92FF920F931F93CF936C
:10397000DF93FC01828180FF02C00FEF01C001E0F4
:1039800010E080911101181708F040C080910F01DC
:10399000C12ED12CE601C80FD11DCE01880F991F71
:1039A000C80FD91FC152DD4F198218821A8234E024
:1039B000E32EF12CB12C809184028B0D813114F017
:1039C0008F7005C087FF03C090911101890F082EE9
:1039D000000C990BC816D90691F48091DD028E9DDA
:1039E000A0018F9D500D11245595479555954795EC
:1039F0009E016091DC028091DB020E94281AB00EC9
:103A0000F1E0EF1AF108B9F61F5FBBCF0E94CE1AA2
:103A100080918402013031F4811102C08091110142
:103A2000815007C090E001966091110170E00E9402
:103A30000A3280938402DF91CF911F910F91FF9002
:103A4000EF90DF90CF90BF900895CF9380910F01BA
:103A500090911001891770F4E82FF0E09F01220F78
:103A6000331FE20FF31FE152FD4F118210821282C9
:103A70008F5FF0CFC0E060911101C617C0F5EC2F49
:103A8000F0E070E0CF010E940A3220910F01820F16
:103A900020918302022E000C330B90E0E217F30713
:103AA000CCF020910C01022E000C330B2E173F0797
:103AB0008CF09C01220F331F820F931F9C01215217
:103AC0003D4F4091DD026091DC028091DB020E945B
:103AD000281A0BC0FC01EE0FFF1F8E0F9F1FFC0169
:103AE000E152FD4F118210821282CF5FC4CF0E943B
:103AF000CE1A20910B0180918302820F8093830262
:103B000090910C01920F90930C0119165CF4082E01
:103B1000000C990B4091110150E04150510984175C
:103B200095071CF0219520930B01CF9108958F925A
:103B30009F92AF92BF92CF92DF92EF92FF920F933C
:103B40001F93CF93DF938C01FC014481C42FD0E0FD
:103B50009E01DE010E9455329B01AC010E946B3236
:103B60006B017C01E0E2F0E0EC1BFD0BA5E5B0E0B1
:103B70009B01AC010E946B324B015C019F01DF0194
:103B80000E944D329B01AC010E9476329B01AC0138
:103B90002C0D3D1D4E1D5F1DC501B4010E941E323E
:103BA000C22FD22F2A3228F4F3E02F9F9001112444
:103BB0000DC025E530E02C1B3109C901880F991F84
:103BC000280F391F37FF02C02F5F3F4F35952795CC
:103BD000C22FC095F12C85E5E82EED1A80911101D8
:103BE000F816C8F4F1FC02C08E2D01C08D2F909103
:103BF0000F012F2D30E0290F311DA901440F551F52
:103C0000240F351F21523D4F4C2F6091DC020E9442
:103C1000281AF394E3CF0E94CE1AF801848181110F
:103C200002C091E003C0803219F49FEF90930A0123
:103C300090910A01890FF8018483DF91CF911F9140
:103C40000F91FF90EF90DF90CF90BF90AF909F903B
:103C50008F9008950F931F93CF93DF93EC0100E0B3
:103C600010E080911101282F30E00217130724F58E
:103C700090910F019801290F311DA901440F551F83
:103C8000240F351F21523D4F869590E04C81081737
:103C900019071CF4442331F002C0411103C04091C4
:103CA000DD0201C040E06091DC028091DB020E94F5
:103CB000281A0F5F1F4FD5CF0E94CE1A8C8190E03B
:103CC0000196817099278C83DF91CF911F910F917D
:103CD0000895EAEDF2E080818E7F808360817181BA
:103CE000828193810E944B1A10928F022FEF80E7FE
:103CF00092E0215080409040E1F700C000000C9419
:103D0000CE1AEAEDF2E080818E7F808310928F02DE
:103D10002FEF80E792E0215080409040E1F700C013
:103D200000000C94CE1A10928F0280918C028111A7
:103D30000AC081E080938C028091DA0281708093C6
:103D40008B020C94811E08956091DA02669570E0F2
:103D50004BE050E082E191E00E947E32892B19F421
:103D600081E080938F020E94F629909386028093CF
:103D7000850208959091DA0290FF35C0917081110B
:103D800002C0926006C0853210F0986402C0880FAD
:103D9000982B9093DA02662351F06091DA027091C9
:103DA000DB028091DC029091DD020E944B1A60914F
:103DB000DA02669570E04BE050E082E191E00E940B
:103DC0007E32892B19F010928F0202C00E94A41E2D
:103DD00081E0809388024091DD026091DC02809155
:103DE000DB020C94721C0895682F9091DA0296956C
:103DF00081E0890F853208F081E00C94BA1E81E0E1
:103E00000C94F41E682F9091DA0296958FEF890F2B
:103E100009F484E20C94BA1E81E00C94021F61E064
:103E20000C94BA1EEAEDF2E0808181608083869571
:103E30000C940F1F8091DA0280FD0C94691E0C9483
:103E4000121F60E00C94BA1E80918D0281112EC069
:103E50000E948C10811104C00E9433110E94671AC5
:103E60000E94471A6093DA027093DB028093DC02AF
:103E70009093DD026E7F61F40E94671A0E94471AD8
:103E80006093DA027093DB028093DC029093DD0290
:103E90000E942D1A10928F028091DA0280FF03C0D7
:103EA00086950E94211F81E080938D020895EAED9E
:103EB000F2E080818160808386950C94211F1092AE
:103EC0008C0280918B0281110E94571F0C94A41EBA
:103ED0000F931F93CF93DF9380918F02882309F470
:103EE00085C080918E02E091DA02E695E81BE093AE
:103EF0008702823049F4F0E0E25AFA4FE491CE2F83
:103F0000D0E007E21BE149C0863049F4F0E0E55A11
:103F1000FA4FE491CE2FD0E00BE31BE13EC0893095
:103F200051F4E695F0E0E85AFA4FE491CE2FD0E054
:103F300005E71CE132C08F3051F4E695F0E0EB5A12
:103F4000FA4FE491CE2FD0E000EB1CE126C0853182
:103F500049F4F0E0EE5AFA4FE491CE2FD0E005E2BA
:103F60001DE11BC0883181F0833239F4E0E5F5E0D2
:103F7000C591D4910BE41BE110C0843251F4C4EF1D
:103F8000D1E00AE21EE109C0C8E2D0E007E91DE184
:103F900004C0C0EDD7E006E11AE1809188028823D1
:103FA00061F0109288020E94F62990938602809315
:103FB000850210928A02109289020E94F629E091ED
:103FC0008502F09186028E1B9F0B8F3F9F4770F4F6
:103FD000EC0FFD1FF0938602E093850285E892E0E6
:103FE000F801DF91CF911F910F910994DF91CF914B
:103FF0001F910F910895882311F0FA0101C0FB0170
:104000000994CF93DF93C82FD62F0E94771A8C176D
:1040100040F00E94771A8D1720F4DF91CF910C9415
:10402000FF1E8C2FDF91CF910C940F1F1F93CF9306
:10403000DF93FB011281112309F4BCC0EC010E9443
:10404000C70F8272CC3CFCE5DF0709F497C008F08B
:1040500043C0C63CECE5DE0709F47CC0D8F4C33CA1
:104060009CE5D90709F46AC038F4C23CDC4509F084
:10407000A4C00E941A1FA0C0C43C9CE5D90709F443
:1040800062C0C53CDC4509F098C043E35CE166E2F0
:104090007CE15DC0C93CFCE5DF0709F465C070F454
:1040A000C73CECE5DE0709F45AC0C83CDC4509F022
:1040B00084C042E45CE161E57CE149C0CA3C9CE526
:1040C000D90709F456C0CB3CDC4509F076C04AEA72
:1040D0005AE163E97AE13BC0C13DFCE5DF0709F441
:1040E0005AC098F4CE3C9CE5D90709F44EC008F4B8
:1040F0004AC0CF3CFCE5DF0709F44AC0C03DDC45BF
:1041000009F05BC06EE089E04EC0C43D9CE5D90774
:1041100009F447C050F4C23DFCE5DF07F9F1C33DA7
:10412000DC4509F04AC088E142C0C53D9CE5D9079D
:10413000E9F1CD35DD4509F43FC03FC04CE05FE11A
:104140006FEF7EE104C04FEF5EE16CE07FE10E9423
:10415000FB1F32C046E25CE163E37CE1F8CF41E55E
:104160005CE162E47CE1F3CF4FE65CE160E67CE198
:10417000EECF40E65CE16FE67CE1E9CF43E95AE14E
:104180006AEA7AE1E4CF81E012C065E082E00BC028
:1041900068E086E008C064E18FE005C067E185E182
:1041A00002C062E289E10E94012006C083E20E940F
:1041B0000F1F02C011E001C010E0812FDF91CF91ED
:1041C0001F91089586E090E00C949832682F86E065
:1041D00090E00C94AC3280910F030C94E620809117
:1041E0000F038470896280930F030C94E620809102
:1041F0000F0386958695869508950E948C108111EF
:1042000004C00E9433110E94EF200E94E22080939C
:104210000F03282F26952695269530E02630310568
:1042200024F08770886280930F0380910F0380FFD2
:1042300004C086958695869501C080E00C940E2278
:1042400020910F03822F869586958695482F50E002
:104250004530510554F48F5F982F990F990F990F9E
:10426000822F8770892B80930F0380910F038160C9
:1042700080930F030E94E62080910F038695869518
:1042800086950C940E2280910F03982F9695969503
:104290009695A1F0915E990F990F990F8770892BD0
:1042A00080930F03887F91E009F490E080910F03E1
:1042B00090FB80F980930F030E94E62080910F030A
:1042C0008695869586950C940E2280910F0380FD2D
:1042D00013C0816080930F03813019F489E08093CB
:1042E0000F0380910F030E94E62080910F038695B3
:1042F000869586950C940E22089580910F0380FF79
:1043000008C08E7F80930F030E94E62080E00C940B
:104310000E22089580910F0380FD0C947D210C9452
:10432000652190910F03892F8695869586958F5FDD
:104330008F719770863038F4880F880F880F892B1B
:1043400080930F0302C090930F0380910F03887F27
:1043500091E009F490E080910F0390FB80F9809345
:104360000F030E94E62080910F038695869586951F
:104370000C940E22863008F085E090910F03977020
:10438000282F220F220F220F922B90930F03987F3A
:1043900021E009F420E090910F0320FB90F9909325
:1043A0000F030C940E220E94BA2180910F030C94EB
:1043B000E6209C01FB018281882349F12D3BFCE52D
:1043C0003F07C9F040F42B3BECE53E0769F02C3B7E
:1043D0003C4561F008952F3B9CE5390791F070F062
:1043E000203C3C4589F0089585E001C080E00E94B2
:1043F000D32180E008950E944321FBCF0E94202119
:10440000F8CF0E948A21F5CF0E949121F2CF81E05E
:104410000895279A2F9808952F980895CF92DF92A4
:10442000EF92FF92CF93C82F863050F4811109C0CC
:1044300080918000877F809380000E940C2206C0BC
:10444000C5E0809180008860809380002C2F30E050
:10445000AFEFBFEF0E94553225E030E040E050E082
:104460000E941E32B42FA32F922F8827492F5A2F34
:104470006B2F7727CA014C3724E1520728F469E0F3
:1044800070E00E94F63129C0DB01CA018A50974DC5
:10449000AF4FBF4F6627782F892F9A2F25EF38E22D
:1044A00041E050E00E941E3269017A01CA01B9015F
:1044B0000E94E6319B01AC01C701B6010E94E631C2
:1044C000BB27A92F982F872F009721E0A207B105BE
:1044D00011F0BC0102C06FEF7FEF70938D0060930D
:1044E0008C00CF91FF90EF90DF90CF9008950895CA
:1044F0000E9409228AE08093800089E180938100F4
:104500008FEF9FEF90938700809386000C94FD209F
:10451000209A25B12E7F35B131604FB7F894FC0158
:10452000CB01880F991F680F791F6E0F7F1FE61749
:10453000F70789F0819198E035B9000000C087FF46
:1045400025B9880F000000C000C000C025B900C018
:104550009A9591F7ECCF4FBF8FE594E00197F1F773
:1045600000C00000089583E290E00E9498328132FA
:1045700081F484E290E00E949832813151F485E226
:1045800090E00E94983291E0863209F090E0892F05
:1045900001C080E081700895CF93C82F811102C0BF
:1045A0006FEF01C061E283E290E00E94AC32C11182
:1045B00002C06FEF01C061E184E290E00E94AC3282
:1045C000C11102C06FEF01C066E285E290E0CF91B9
:1045D0000C94AC32089586E290E00E949832682FE5
:1045E00070E080E090E0089586E290E00C94AC32B8
:1045F00080E00E94CC2260E070E0CB010E94F422B7
:104600000E94D4240E94B12581E00C94CC220E9407
:10461000EA220E94B322811102C00C94F82208956C
:10462000CF93FB01C281CC23E9F09C0122513F458D
:104630002031310520F482510E94C1250CC0803107
:10464000FFE59F0751F481E00E94250B43E062E003
:1046500081E00E945405C0E018C081319F45A9F453
:1046600082E0F2CF8031EFE59E0711F481E004C0D3
:1046700081319F4549F482E00E94300B43E062E0C3
:1046800081E00E94540501C0C1E08C2FCF910895B4
:104690002FEFFC0120830895CF93DF93FC0120814D
:1046A000293029F02A3079F4FC0111820CC0EC0188
:1046B0000E94F720FFEF8F9FC001112465E070E09A
:1046C0000E94F6316983DF91CF910895FC0120812A
:1046D000293061F48181F5E08F9FC00111246FEFD3
:1046E00070E00E94F631862F0C94BA210895CF9382
:1046F000DF93EC018881813889F028F48038A1F4B7
:104700000E94C81A10C0823861F0833869F40E9490
:10471000C21A89830E94C51A8A8306C00E94771A2A
:1047200002C00E94AD1A8983DF91CF910895CF9383
:10473000DF93EC0188818138B1F058F4803851F56D
:10474000D9810E94C51AC82F0E94C21A4D2F6C2F02
:104750001DC08238B1F08338E9F40E94C81A482F8E
:104760006A81898113C089810E94211F89818111F9
:1047700004C0DF91CF910C94811EDF91CF910C94F6
:10478000571F8981DF91CF910C94BF1ADF91CF9190
:104790000C94721CDF91CF910895CF92DF92FF921B
:1047A0000F931F93CF93DF93EC01F62E8C010F5FD5
:1047B0001F4FE8818E2F90E0FC013197E331F10526
:1047C00008F0A4C0ED54FF4F0C944032198289E0E8
:1047D00060C08981823039F0833061F0813029F501
:1047E0000E94022A02C00E94EB229A838B837C8360
:1047F0006D838EC06E0182E0C80ED11C10E0812F47
:104800000E945914F60181936F011F5F1C30B9F7A4
:104810007FC08981823049F46A817B818C819D814E
:104820000E9446320E94F42273C06F2DCE010E9476
:1048300048236EC04B816A8189810E94A6249C8393
:104840008D8366C02C813D813227232732274B81FF
:104850006A8189810E94BF245BC00E94D42458C011
:10486000C8010E946623C8010E94972351C0C80155
:104870000E944C23C8010E9477234AC00E94EB206B
:104880000E945D1A45C00E94662524C00E946825CA
:1048900099838A833DC06B8170E089819A81AE01E2
:1048A0004C5F5F4F9827892798270E946B2530C05F
:1048B0006B8170E089819A81AE014C5F5F4F9827D0
:1048C000892798270E948F2523C00E94B12520C0E8
:1048D0000E94932489831CC06B8170E089819A8136
:1048E000AE014C5F5F4F9827892798270E941325B8
:1048F0000FC06B8170E089819A81AE014C5F5F4F80
:104900009827892798270E94372502C08FEF888330
:104910006F2DCE01DF91CF911F910F91FF90DF900E
:10492000CF900C94012B84E0089550E0440F551F64
:1049300020E1629F400D511D11249A0160EC869F79
:10494000200D311D1124C901879608950F931F93DF
:10495000CF93DF930E9495248C010E949832C82F38
:10496000D0E0DC2FCC27C80101960E9498329E012E
:10497000282BC901DF91CF911F910F9108950F93BB
:104980001F93CF93DF93122F032F0E949524EC01E6
:10499000602F0E94AC32612FCE010196DF91CF9142
:1049A0001F910F910C94AC32AF92BF92CF92DF92D5
:1049B000EF92FF920F931F93CF93DF93A12CE12CE3
:1049C000F12CB12C00E010E0C0E0D0E06701C00E97
:1049D000D11EF601EC0FFD1FEE0FFF1FE056FE4F3C
:1049E000259134914C2F6B2D8A2D0E94BF24219646
:1049F000C830D10571F7085F1F4FB3948CE0B8122F
:104A0000E3CF80E6E80EF11CA39484E0A812D9CF8E
:104A1000DF91CF911F910F91FF90EF90DF90CF909A
:104A2000BF90AF900895EF92FF920F931F93CF9393
:104A3000DF93EA017A01E60EF71E8C01C801879622
:104A4000CE15DF0569F0011523E0120720F40E945E
:104A50009832888301C0188221960F5F1F4FEECFD6
:104A6000DF91CF911F910F91FF90EF900895EF92FA
:104A7000FF920F931F93CF93DF93EA017A01E60E23
:104A8000F71E8C01C8018796CE15DF0559F0011578
:104A900023E0120718F468810E94AC3221960F5F60
:104AA0001F4FF0CFDF91CF911F910F91FF90EF90AB
:104AB0000895462F843038F47C3028F4683018F498
:104AC000672F0C94A62480E090E0089580E108957B
:104AD00089ED90E00895EF92FF920F931F93CF938B
:104AE000DF93EA017A01E60EF71E8C01C801895DA9
:104AF0009C4FCE15DF0561F0093D110520F40E94A1
:104B00009832888301C0188221960F5F1F4FEECF25
:104B1000DF91CF911F910F91FF90EF900895EF9249
:104B2000FF920F931F93CF93DF93EA017A01E60E72
:104B3000F71E8C01C801895D9C4FCE15DF0551F031
:104B4000093D110518F468810E94AC3221960F5F6F
:104B50001F4FF0CFDF91CF911F910F91FF90EF90FA
:104B60000895CF93DF93C7E2D3E060E0CE010E94C7
:104B7000AC322196C11584E0D807B9F7DF91CF9107
:104B80000895DF92EF92FF920F931F93CF93DF93DD
:104B900000D000D0CDB7DEB7F82E8FE08F15E8F14A
:104BA0008FEF93E00E949832811137C007E213E043
:104BB000FF2069F0011584E0180779F1C8010E940F
:104BC0009832811101C0FA940F5F1F4FF1CF198203
:104BD0001A821B821C82DD24D39478018FEFE81A9D
:104BE000F80AC8010E94983289831A828823A9F0A2
:104BF0009FEF980F933058F48A83D9820E5F1F4F2E
:104C0000C7010E9498328B83882339F07801CE0146
:104C100001960E94AD068701E0CF0F900F900F9094
:104C20000F90DF91CF911F910F91FF90EF90DF9048
:104C300008950F931F93CF93DF93C42FD22FFC01BE
:104C400082818823C9F0409392020E94F6299093B2
:104C500091028093900280E28C0F883008F057C058
:104C6000C77081E001C0880FCA95EAF7DF91CF9144
:104C70001F910F910C94460880919202481330C006
:104C800080919002909191020E940E2A883C910599
:104C900038F510E21D0FCD17B9F080E28C0F883087
:104CA00040F4C77081E001C0880FCA95EAF70E94FE
:104CB0004D08183028F581E09D2F977001C0880FAE
:104CC0009A95EAF70E944608802F0E943D08183006
:104CD000F0F4D77081E001C0880FDA95EAF70AC0D6
:104CE00080E28C0F883098F4C77081E001C0880F93
:104CF000CA95EAF7DF91CF911F910F910C944D085F
:104D0000802FDF91CF911F910F910C943D08DF917F
:104D1000CF911F910F9108950F939C01CB01233FD9
:104D20004CE5340731F188F4283DFCE53F07D9F024
:104D3000293D4CE5340779F1273D3C45A9F506E2CC
:104D400021EE41EE67ED7CE52BC0253FFCE53F07FA
:104D5000E1F0A8F0263F3C4539F507E225EE46EEA6
:104D600066EF7CE51DC007E225EE45EE68ED7CE5CB
:104D700017C006E221EE40EE63EF7CE511C007E2CA
:104D800025EE44EE64EF7CE50BC006E221EE42EE38
:104D900065EF7CE505C008E221E045EE69ED7CE5C4
:104DA0000E94192680E008C0FC018281882319F046
:104DB0001092920201C081E00F910895CF93DF938A
:104DC000EC01FB018281882309F426C1C330FDE593
:104DD000DF0760F4CA3F9CE5D90768F49E012250C2
:104DE0003C452431310508F018C105C0C136EDE558
:104DF000DE0709F012C10E949F109093C1028093B8
:104E0000C002C031FCE5DF0709F4CAC008F041C0A8
:104E1000C8309CE5D90709F4A4C0F0F4C430FCE51F
:104E2000DF0709F48CC068F4C2309CE5D90709F4A7
:104E300082C0C330DC4509F0E5C08091C0028260C9
:104E4000DFC0C630FCE5DF0709F483C008F085C089
:104E50008091C0028860D4C0CC309CE5D90709F4A9
:104E600090C068F4CA30FCE5DF0709F47EC008F0A2
:104E700084C00E94A60A8091C0028068C1C0CE3062
:104E80009CE5D90709F481C008F086C08091C00272
:104E900094C0CC3FFCE5DF0709F47BC038F5C43192
:104EA0009CE5D90709F49AC058F4C231FCE5DF0744
:104EB00009F47AC008F07EC08091C0028F7BA0C048
:104EC000CA3F9CE5D907F1F108F03FC0C531DC4588
:104ED00009F098C08091C00282FB222720F991E05E
:104EE000922790FB82F990FB83F98AC0C1158DE56A
:104EF000D80709F467C050F48091C102CE3FECE5B9
:104F0000DE07C1F108F05BC08D7F65C0C2308DE562
:104F1000D80709F471C008F46DC0C136DD4509F049
:104F200071C08091C00284FB222720F991E0922772
:104F300090FB84F965C08091C002816061C080915E
:104F4000C00216C08091C10216C08091C102826069
:104F500042C08091C002806153C08091C0028062D3
:104F60004FC08091C00280644BC08091C0028860B5
:104F7000846046C0826081602EC08091C0028E7FB6
:104F80003FC08091C0028D7F3BC08091C002877F6F
:104F900037C08091C10214C08091C0028F7E30C0A2
:104FA0008091C0028F7D2CC00E94A60A8091C00211
:104FB0008F7726C08091C002877F8B7F21C08D7F35
:104FC0008E7F09C08091C102982F909591708E7F3D
:104FD000892B90FB81F98093C10214C00E94A60A1C
:104FE0008091C00287FB222720F991E0922790FB55
:104FF00087F906C081E001C080E00E94351102C03F
:105000008093C0028091C0029091C1020E94B010B2
:105010000E94A60A80E001C081E0DF91CF9108954F
:10502000CF93DF9386319C4541F5EB010E94C70F7A
:10503000982F8A812091000130910101882379F015
:105040009A7A81E009F480E080939302911102C082
:1050500069E201C065E3C9010E943C290AC0809150
:105060009302811102C069E201C065E3C9010E9497
:1050700047290E94191080E001C081E0DF91CF91A3
:10508000089590939902809398020895E091980270
:10509000F0919902309721F00190F081E02D099470
:1050A00080E00895E0919802F0919902309799F08C
:1050B00020912701222359F02091C00227FF07C029
:1050C000DC012C9111962C93119725E02C930280F2
:1050D000F381E02D09940895E0919802F0919902EE
:1050E000309739F022E0DC012C930480F581E02D2B
:1050F0000994089520919602309197022817390754
:1051000071F09093970280939602E0919802F0914B
:105110009902309721F00680F781E02D09940895D7
:1051200020919402309195022817390771F09093DD
:10513000950280939402E0919802F0919902309741
:1051400021F00084F185E02D09940895FC01329648
:1051500080912701882331F08091C00287FF02C02F
:105160009EE101C096E080E0915028F02191222339
:10517000D9F38F5FF9CF0895662351F1209127016C
:105180002223E9F02091C00227FF19C0462F46953F
:10519000469546954E31E0F4677021E030E002C05C
:1051A000220F331F6A95E2F7FC01E40FF11D8281A3
:1051B00090E02823392381E0232B69F409C0FC0106
:1051C000329608962191621729F0E817F907D1F76E
:1051D00080E0089581E008959C01FC0132969FEFE4
:1051E00080E04191461789F09F3F19F4411101C0B9
:1051F000982F8F5F8630A9F79F3F39F0F901E90FAB
:10520000F11D97FDFA956283089508959C012A5F28
:105210003F4FFC014281461301C012820196821762
:105220009307B9F70895262F2695269526952E31B2
:1052300068F4FC01E20FF11D677021E030E001C06D
:10524000220F6A95EAF78281282B22830895262F60
:105250002695269526952E3170F4FC01E20FF11D5E
:10526000677021E030E001C0220F6A95EAF72095CF
:10527000828128232283089520912701222329F067
:105280002091C00227FD0C9413290C94EC28209146
:105290002701222329F02091C00227FD0C94272901
:1052A0000C94062920912701FC013296222331F02B
:1052B0008091C00287FF02C08EE101C086E0DF015D
:1052C0001D928A95E9F70895089508950C9465292B
:1052D0000C946529CF930E9468290E9421150E9491
:1052E0006629C0E08C2F0E945914811104C0CF5F41
:1052F000CC30C1F701C081E0CF9108950C946529AD
:105300000C947E2980911803843009F42EC00E94E9
:10531000802980E00E940E2280E00E94B6060E9452
:10532000931E10929A0220E488E190E00FB6F89460
:10533000A895809360000FBE2093600083B7817FA3
:10534000846083BF83B7816083BF7894889583B777
:105350008E7F83BF0FB6F894A89580916000886116
:1053600080936000109260000FBE08950C94652930
:105370000E94A60A0E94FD200E9446280E94B606AE
:105380000E945F1F0C94B6291F920F920FB60F92C6
:1053900011248F939F93AF93BF9380919A028111B1
:1053A00013C08091100390911103A0911203B0914A
:1053B00013034196A11DB11D809310039093110317
:1053C000A0931203B0931303BF91AF919F918F915C
:1053D0000F900FBE0F901F90189582E084BD93E050
:1053E00095BD9AEF97BD80936E0008952FB7F894FE
:1053F0008091100390911103A0911203B0911303B7
:105400002FBF08952FB7F894609110037091110386
:1054100080911203909113032FBF08959C014FB701
:10542000F8948091100390911103A0911203B09110
:1054300013034FBF821B930B089578941F920F9212
:105440000FB60F9211248F939F93AF93BF938091C8
:10545000100390911103A0911203B09113030196D0
:10546000A11DB11D8093100390931103A09312030B
:10547000B0931303BF91AF919F918F910F900FBE87
:105480000F901F90189581E08093E00080E2809358
:10549000D8001092C9008FE19EE40197F1F700C097
:1054A000000087E090EBDC018093210390932203BE
:1054B000A0932303B09324039CE088E10FB6F894F3
:1054C000A895809360000FBE90936000FFCF9093EB
:1054D000D3018093D20108958091BE0208959091E6
:1054E0001803943029F580939B0270939D0260937A
:1054F0009C029093E9008FEF9091E800815095FD18
:1055000006C095ED9A95F1F700008111F5CF8091D5
:10551000E80085FF0DC040E050E063E070E08BE9FB
:1055200092E00E94FD2C8091E8008E778093E80045
:105530000895BC0184E00C946F2ABC0183E00C94B4
:105540006F2A24E02093E9002FEF3091E8002150EA
:1055500035FD06C035ED3A95F1F700002111F5CF84
:105560002091E80025FF0BC040E050E066E070E0CD
:105570000E94FD2C8091E8008E778093E8000895CA
:10558000CF93DF9320912701222339F02091C0028D
:1055900027FF03C060E224E002C068E021E020931E
:1055A000E9002FEF3091E800215035FD06C035EDC0
:1055B0003A95F1F700002111F5CF2091E80025FF81
:1055C0001DC0EC0180912701811105C040E050E031
:1055D00068E070E003C070E040E050E0CE010E945F
:1055E000FD2C8091E8008E778093E80080E2FE0138
:1055F000AEE9B2E001900D928A95E1F7DF91CF918B
:105600000895CF93603219F5209118032430F9F4EE
:10561000C091E900CF703091EC00232F217030FD54
:1056200020E8C22B22E02093E9002091E80020FF2F
:105630000BC040E050E060E270E00E94FD2C8091E1
:10564000E8008E778093E800CF70C093E900CF9197
:10565000089580911703811109C00E94D92E0E94DC
:10566000362F8091E20084608093E20008951092CA
:105670001703089508950895089542E061EC81E0CC
:105680000E94522E42E261EC84E00E94522E42E2DD
:1056900061EC82E00E94522E42E260EC83E00C94C6
:1056A000522E80911A03833009F462C030F48130A5
:1056B00071F0823009F49BC008958A3009F487C0E4
:1056C0008B3009F46DC0893009F0A9C020C08091E9
:1056D0001903813A09F0A3C08091E800877F809385
:1056E000E80080911D0390911E03892B21F460E254
:1056F0008EE992E003C060E080E090E070E00E94FC
:10570000932D8091E8008B778093E8000895809135
:105710001903813209F083C080911D0390911E030B
:10572000009719F0029709F07AC08091E800877F0E
:105730008093E8008091E80082FD05C08091180305
:105740008111F8CF6CC02091F3008091F20090E0BD
:10575000922B029729F48091F1008B7F813021F404
:105760008091F1008093BE028091E8008B7753C056
:1057700080911903813A09F052C080911D039091E4
:105780001E03892B09F04BC08091E800877F80932E
:10579000E8008091E80080FFFCCF8091270136C0AF
:1057A000809119038132D9F580911D0390911E03D8
:1057B000892BA9F58091E800877F8093E8000E94FB
:1057C000872E80911B03809327010C94A60A809159
:1057D0001903813221F58091E800877F8093E800EA
:1057E0000E94872E80911C038093BF0208958091B0
:1057F0001903813AA1F48091E800877F8093E80043
:105800008091E80080FFFCCF8091BF028093F1007F
:105810008091E8008E778093E8000C94872E08959D
:1058200084B7877F84BF0FB6F894A89580916000F5
:10583000886180936000109260000FBE90E080E865
:105840000FB6F89480936100909361000FBE0C94A2
:1058500065110E94D92E0E94362FE2EEF0E0808181
:105860008460808378940E94CB310E9473118DE113
:1058700091E00C944128CF93DF93CDB7DEB7A0978A
:105880000FB6F894DEBF0FBECDBF809118038530F0
:10589000A9F480911803853079F40E9482298091BF
:1058A00016038823B1F30E946A29882391F30E948A
:1058B000E72C0E94A60AEDCF0E94B8290E947F1112
:1058C00080911803843011F583E08093E900809182
:1058D000E80082FF1BC08091E80085FF0AC040E01D
:1058E00050E060E270E0CE0101960E94482D91E008
:1058F00001C090E08091E8008B778093E8009923C5
:1059000029F060E2CE0101960E94CD23A0960FB649
:10591000F894DEBF0FBECDBFDF91CF9108950C94F8
:10592000912C292F332723303105C9F060F4213021
:10593000310581F02230310509F041C08BE590E05E
:1059400025E837E040C021323105E1F0223231054F
:1059500031F135C082E190E020EE37E034C0992784
:105960008130910549F028F0029749F5E7E6F7E024
:1059700005C0E1E8F7E002C0E3E7F7E0849190E0DA
:105980009F0121C063307105D0F4660F771FFB01C2
:10599000E453FE4F2081318189E090E014C06330F0
:1059A000710568F4FB01EE0FFF1FEA53FE4F2081E3
:1059B0003181FB01ED53FE4F808190E004C080E017
:1059C00090E020E030E0FA0131832083089580E107
:1059D00089BD82E189BD09B400FEFDCF8091D80068
:1059E0008F7D8093D8008091E00082608093E000FA
:1059F0008091E00081FDFCCF0895CF92DF92EF927D
:105A0000FF920F931F93CF93DF93EC018B017A01E9
:105A10000E94A62E811133C0E114F10439F0F70180
:105A200080819181081B190BC80FD91FC12CD12C63
:105A30000115110519F18091E80085FD16C08091CE
:105A4000E8008E778093E800E114F10449F0F70153
:105A500080819181C80ED91ED182C08285E00FC09D
:105A60000E94A62E882321F30AC089918093F10019
:105A700001501109FFEFCF1ADF0ADACF80E0DF9182
:105A8000CF911F910F91FF90EF90DF90CF900895ED
:105A9000CF92DF92EF92FF920F931F93CF93DF93FA
:105AA000EC018B017A010E94A62E811133C0E11412
:105AB000F10439F0F70180819181081B190BC80F9F
:105AC000D91FC12CD12C0115110519F18091E800C5
:105AD00085FD16C08091E8008B778093E800E11483
