:100000000C945C020C94A3020C94A3020C949B1D10
:100010000C94A3020C94A3020C94A3020C94A302CC
:100020000C94A3020C94A3020C94DF250C94B1262B
:100030000C945B200C94A3020C94A3020C94A302D6
:100040000C94A3020C94A3020C94A3020C94A3029C
:100050000C94A3020C94D0200C94A3020C94A30241
:100060000C94A3020C94A3020C94A3020C94A3027C
:100070000C94A3020C94A3020C94A3020C94A3026C
:100080000C94A3020C94A3020C94A3020C94A3025C
:100090000C94A3020C94A3020C94A3020C94A3024C
:1000A0000C94A3020C94A3020C94A3023906390603
:1000B0006B066B06B806D606B907B907E10649070D
:1000C0005A075A07590859086B086B0862086B08E9
:1000D0006B086B085908590867086B086B086708B4
:1000E00097189A18BA18CB18D318DE18241924199F
:1000F000241924192419E118E418E918F618031929
:1001000006190A1917191E2745273D2845273D2896
:100110009127B4273D280B281A28290014001A001B
:100120000800150017002B680400160007000900DE
:100130000A00E0001D001B00060019000500000079
:10014000000000004C6491622C422D00130012004C
:100150000C0018001C002A6833000F000E000D0070
:100160000B00E400380037003600100011000000DA
:10017000000000004C64906228410100310023021D
:100180001E0224023102260220022102340234001F
:10019000350201000100010001002F022F000000C4
:1001A000000000000100010001002D0022022502D4
:1001B0002E022E001F02270235004F005200510070
:1001C0005000010001000100010030023000000079
:1001D00000000000005C010001003A003B003C0010
:1001E0003D003E003F0001001E001F0020002100D6
:1001F000220040004100420043004400450000004E
:1002000000000000005C010001002D002202250218
:100210002E022E00010001002700260025002400E8
:100220002300010038003700360001000100000003
:1002300000000000010001000100010001000100B8
:1002400001000100010001000100010001000100A6
:100250000100010001000100010001000100000097
:100260000000000001000100010001000100010088
:100270000100010001000100010001000100010076
:100280000100010001000100010001000100000067
:10029000000000000100010001000000000000005B
:1002A00000002A2B280000000000000000000000D1
:1002B000000000000029000000002C1E3420212234
:1002C00024342627252E362D3738271E1F2021229D
:1002D000232425263333362E37381F040506070816
:1002E000090A0B0C0D0E0F10111213141516171806
:1002F000191A1B1C1D2F3130232D35040506070844
:10030000090A0B0C0D0E0F101112131415161718E5
:10031000191A1B1C1D2F3130354C00000000000045
:1003200000000000000000000000000000000000CD
:1003300000000000000000000000000000007E0F30
:1003400000D4FFFFFFC700000078100377006900AA
:100350006E00670073003400320000000C03790067
:10036000660075006B0075000000040309040902B3
:100370005B00030100A0FA09040000010301010071
:100380000921110100012240000705810308000A2C
:1003900009040100020300000009211101000122EB
:1003A0002200070582032000010705030320000146
:1003B00009040200010300000009211101000122CB
:1003C0007B000705840320000A12010002000000E0
:1003D00008465903000100010200010660FF09619F
:1003E000A1010962150026FF009520750881020908
:1003F00063150026FF00952075089102C0050109CC
:1004000002A10185020901A10005091901290815A8
:100410000025019508750181020501093009311592
:1004200081257F95027508810609381581257F95FC
:100430000175088106050C0A38021581257F950192
:1004400075088106C0C005010980A1018503190155
:100450002AB700150126B700950175108100C00567
:100460000C0901A101850419012AA002150126A089
:1004700002950175108100C005010906A10105075B
:1004800019E029E7150025019508750181029501FC
:10049000750881010507190029FF150026FF009541
:1004A0000675088100050819012905950575019152
:1004B00002950175039101C011241FBECFEFDAE050
:1004C000DEBFCDBF04B603FE27C080919402909199
:1004D0009502A0919602B09197028730904BA74069
:1004E000B04BD1F4109294021092950210929602A1
:1004F0001092970214BE84B7877F84BF0FB6F8941A
:10050000A8958091600088618093600010926000DF
:100510000FBEE0E0F8E3099511E0A0E0B1E0E4E20D
:10052000F2E502C005900D92A63BB107D9F722E093
:10053000A6EBB1E001C01D92A439B207E1F70E9419
:100540004B150C9410290C94000081E0089581E073
:1005500008950C94A70208950C94AB021F93CF93B7
:10056000DF9300D000D01F92CDB7DEB749835A8306
:100570006B833091B80189819A81311114C066234F
:1005800059F0222349F00E945109182F682F8981C0
:100590009A810E94F80803C00E942409182F6981DB
:1005A0007A81812F04C00E94510969817A810F905C
:1005B0000F900F900F900F90DF91CF911F910C949F
:1005C000F619FC01262F408151816281738184815B
:1005D0000C94AE0281E00895CF93DF93EC0160E0CC
:1005E0000E94E102BE01DF91CF910C94AC02E1E0E8
:1005F000F0E0DF0102C0AA0FBB1F6A95E2F7BD0160
:10060000DF0102C0AA0FBB1F4A95E2F7AD01462BDE
:1006100001C0EE0F2A95EAF7942F9823491302C0E0
:100620008E2B0895E0958E230895242F462F682F52
:100630008091CB010E94F7020C94B5080E943C11F6
:100640000E9468040C946C110C94681108950E9427
:1006500047080E9426032FEF84E39CE0215080404E
:100660009040E1F700C000000C94F6200F931F9318
:10067000CF93DF938C0161E00E94E102EC01B801AD
:100680000E944618882309F444C0B801CE010E9494
:10069000A9028823F1F1B801CE010E94431B8823EF
:1006A000C1F1B801CE010E94951B882391F1B801D8
:1006B000CE010E94C71C882361F1F8018281882342
:1006C00009F1CA358DE5D807C1F050F4C115FCE534
:1006D000DF0781F0CE3DDC45A9F40E944C0E19C025
:1006E000CB35EDE5DE0761F0CC35DD4559F40E94F0
:1006F000DE0C08C00E9427030CC00E94E70C02C059
:100700000E94EA0CC801DF91CF911F910F910C94C8
:10071000A50280E0DF91CF911F910F910895DF92A4
:10072000EF92FF920F931F93CF93DF93E82FF0E0A8
:10073000E656FD4FD490282F26952695269530E035
:10074000F901E65CFC4F0491877010E0082E02C0AE
:10075000159507950A94E2F701701127F901E65DF6
:10076000FC4FE490F12C082E02C0F594E7940A9413
:10077000E2F791E0E922FF24F901E65EFC4FC49123
:10078000D0E002C0D595C7958A95E2F7C170DD2704
:100790000115110519F081EE0E94C204E114F10463
:1007A00019F086EE0E94C2048D2D0E94EB05EF2801
:1007B00019F086EE0E946C05012B19F081EE0E9463
:1007C0006C05CD2B51F08CE2DF91CF911F910F91F1
:1007D000FF90EF90DF900C94EB05DF91CF911F918C
:1007E0000F91FF90EF90DF900895EF92FF920F939B
:1007F0001F93CF93DF93EC01162F0AE088818823A3
:1008000009F455C0813009F043C08981813041F439
:100810007E0182E0E80EF11C8A810E94EB0509C08E
:10082000823049F47E01E2E0EE0EF11C8A810E94E2
:10083000C204E7012FC0833041F47E01F2E0EF0EE5
:10084000F11C8A810E946C05F4CF843011F021964E
:1008500021C02A81229680E090E030E020533109C7
:100860002A30310558F4089FA001099F500D11242A
:10087000C901840F951F21962881EFCF009751F071
:10088000EFE9FFE03197F1F700C000000197F6CFE4
:100890000E948F032196812F882309F4AFCFEFE9BF
:1008A000FFE03197F1F700C000008150F5CFDF91F4
:1008B000CF911F910F91FF90EF90089560E00C94FD
:1008C000F50308950C94610481E008950C94640488
:1008D0000895CF93C82F0E9462048C2F0E94660453
:1008E000CF910895CF93DF93CDB7DEB72B970FB697
:1008F000F894DEBF0FBECDBF4F83588769877A87D4
:100900008B8761110E940D0D9E012F5F3F4F86E086
:10091000F90111928A95E9F785E0FE013796D90130
:1009200001900D928A95E1F789819A814C815D81D0
:10093000452B31F09F3F31F491E08F3F19F403C014
:1009400091E001C090E090FF09C049815A816B811C
:100950007C818D819E810E940D0C05C0C9010E9481
:10096000EA028111F2CF2B960FB6F894DEBF0FBECC
:10097000CDBFDF91CF910895FC01808191810E94CC
:100980007E090895CF93882309F4A4C0C82F823824
:10099000C1F40E941F1F81FD9DC069E38091000189
:1009A000909101010E94B91F0E94320D2FEF81EE3C
:1009B00094E0215080409040E1F700C0000069E3DE
:1009C00019C0833801F50E941F1F80FD83C063E5B5
:1009D00080910001909101010E94B91F0E94320D87
:1009E0002FEF81EE94E0215080409040E1F700C06D
:1009F000000063E580910001909101010E94BB1FFE
:100A0000CF910C94320D8438C1F40E941F1F82FDD7
:100A100061C067E480910001909101010E94B91FBB
:100A20000E94320D2FEF81EE94E0215080409040E3
:100A3000E1F700C0000067E4DDCF8CEF8C0F813A56
:100A4000D0F46C2F80910001909101010E94831FCE
:100A5000882349F06C2F80910001909101010E9440
:100A6000BB1F0E94320D6C2F8091000190910101FB
:100A70000E94B91FC5CF80E28C0F883048F4C77040
:100A800081E001C0880FCA95EAF70E94F00CB8CF48
:100A9000EBE5EC0FE33040F4F0E0EE59FE4F8081DF
:100AA00090E0CF910C944B1FE8E5EC0FE73150F448
:100AB000F0E0EE0FFF1FEC5CFE4F80819181CF9143
:100AC0000C94611FC03F30F08C2F0E94D815CF913D
:100AD0000C94AA16CF910895882309F464C0823833
:100AE00079F40E941F1F81FF5EC069E380910001BD
:100AF000909101010E94B91F0E94320D69E310C05C
:100B00008338B1F40E941F1F80FF4DC063E58091C0
:100B10000001909101010E94B91F0E94320D63E50E
:100B200080910001909101010E94BB1F0C94320D35
:100B3000843879F40E941F1F82FF35C067E48091DA
:100B40000001909101010E94B91F0E94320D67E4DB
:100B5000E7CF9CEF980F913A10F4682FE1CF90E225
:100B6000980F983050F4877091E001C0990F8A95E2
:100B7000EAF7892F0E94F60CD9CF9BE5980F9330A6
:100B800020F480E090E00C944B1F98E5980F97318B
:100B900020F480E090E00C94611F803F20F00E94E0
:100BA00033160C94AA1608951F93CF93DF93182F32
:100BB000EB010E94C204209741F08FE99FE001976A
:100BC000F1F700C000002197F6CF812FDF91CF9180
:100BD0001F910C946C05893319F060E070E002C03D
:100BE00060E570E00C94D405882321F00E94F00C9D
:100BF0000C94320D0895882321F00E94F60C0C9479
:100C0000320D0895CF92DF92EF92FF920F931F93D0
:100C1000CF93DF937C01062FC72FFC01D281158172
:100C200012951F700E94C50C882399F0DD2389F06E
:100C30008C2F807F803421F080E2800F883048F054
:100C400082E00E94820D0E94C50C91E0D82ED92628
:100C500001C0D12CCC2EC2948FE0C8228C2D90E004
:100C60008C30910508F085C1FC01EA5AFF4F0C94C5
:100C700097288C2F807FCF70882311F0C295C07F7A
:100C8000DD2399F0CC2309F460C180E2800F883025
:100C900010F0011104C08C2F0E94F00C03C08C2FA7
:100CA0000E94000D0E94320D50C1802F0E946C05E1
:100CB000CC2309F45EC180E2800F883010F001116E
:100CC00004C08C2F0E94F60C03C08C2F0E94060DCE
:100CD0000E94320D4EC18C2F807FCF70803211F078
:100CE000C295C07F002319F00130C9F022C0DD2376
:100CF00071F0112341F0113031F40E94130D8C2B4F
:100D00000E941B0D36C10E94130D8C2B1DC0112398
:100D100019F0113009F42DC10E94280D25C0DD23E2
:100D200021F0163008F025C10EC0153008F021C1A1
:100D30001BC0DD2361F0112331F0F701858180FFB5
:100D400004C18F7085838C2F0E94F40512C111237A
:100D500059F0093309F00AC1FFEF27EE83E0F150A3
:100D600020408040E1F700C18C2F0E94FB0501C1AB
:100D70008C2F86958695837019F0813061F0F9C0CB
:100D8000DD2321F0802F9C2F937002C080E090E043
:100D90000E944B1FF6C0DD2321F0802F9C2F937003
:100DA00002C080E090E00E94611FEBC0802FDD2335
:100DB00019F00E94D81502C00E9433160E94AA168C
:100DC000E0C08C2F837079F5D111D7C0402F4295A8
:100DD00046954770440F440F202F2F70042E01C0FA
:100DE000220F0A94EAF704FF08C08FE090E001C0E8
:100DF000880F4A95EAF7809501C080E0C695C695B0
:100E0000C370822BC23049F058F4C13019F00E94EF
:100E1000A908B3C00E94A408B0C00E94AE08ADC02B
:100E20000E94A208AAC0DD2319F08C2F817001C096
:100E30008695882309F4A1C0402F429546954770B6
:100E4000440F440F202F2F70042E01C0220F0A944C
:100E5000EAF704FF08C08FE090E001C0880F4A95D0
:100E6000EAF7809501C080E0C695C695C370822BD5
:100E7000C23049F058F4C13019F00E94ED087DC02D
:100E80000E94E8087AC00E94F20877C00E94B50864
:100E900074C0CF70DD2339F08C2F0E94C608802FDC
:100EA0000E94F4056AC0802F0E94FB058C2F0E94CF
:100EB000D10863C0023F01F128F4003F41F0013F37
:100EC000A1F03FC0033FF9F0043F39F13AC0DD2300
:100ED00041F0153008F04DC08C2F8F710E94DD0855
:100EE00048C0163008F045C0F7CFDD2339F08C2F0D
:100EF0008F710E94C6083DC0DD23C9F38C2F8F710E
:100F00000E94D10836C0DD2329F08C2F8F710E94FA
:100F1000BE082FC00E94BB082CC0DD2349F0CF7152
:100F20008C2F0E94C60863E08C2F0E94670D21C0A1
:100F300081E00E94820D1230E0F082E00E94820D7A
:100F400018C0DD2331F0112391F2802F0E94C204DA
:100F500010C0112399F2093349F49FEFE7EEF3E053
:100F60009150E040F040E1F700C00000802F0E9467
:100F70006C0588EF8C0D843020F40E941F1F0E94A6
:100F80006904DD20C9F00E94C10C80FD15C0F70185
:100F900012820E94BB0C0E94C608C7010E94FD0776
:100FA0000E94BB0CDF91CF911F910F91FF90EF90AA
:100FB000DF90CF900C94D108DF91CF911F910F91CA
:100FC000FF90EF90DF90CF9008950F931F93CF93F2
:100FD000DF93EC01688179818A810E9489098C0103
:100FE0000E94F7080E949608B801CE010E940206EE
:100FF000DF91CF911F910F910895CF93DF93EC0173
:10100000988189812B813C81232B31F08F3F31F4F2
:1010100081E09F3F19F403C081E001C080E080FDC2
:1010200019C0CE010E94360381110CC00E94C50C6C
:10103000882381F08A81882369F082E0DF91CF9153
:101040000C94820DCE010E94E507CE01DF91CF9175
:101050000C94EC02DF91CF91089580E090E00E9423
:101060004B1F80E090E00E94611F0E940D0D0E94C6
:10107000100D0E94320D0E94DB170C94AA1680916D
:101080000001909101010E94BD1F0C942D080E9447
:10109000FD0C0C943F08E92FE295EF704E2F50E0C5
:1010A000FA013297EE30F105B0F4EE59FF4F0C948F
:1010B0009728803F91F018F4883E68F40EC0843F72
:1010C00051F40BC0883E48F0813F29F406C093FBE1
:1010D000882780F9089580E0089581E00895FC0153
:1010E000808191810E947E090E944B080895CF93D0
:1010F000DF9300D000D01F92CDB7DEB70F900F90D6
:101100000F900F900F90DF91CF910895CF93DF93C1
:1011100000D000D000D0CDB7DEB726960FB6F89439
:10112000DEBF0FBECDBFDF91CF9108950895089522
:101130000C9497080C9498080E949A088093CC010C
:101140000C942D080C949C089091CC01892B0C9444
:101150009C089091CC0189230C949C089091CC011F
:1011600089270C949C080C9497080E94B3088093DC
:10117000CB010C942D0880E00C94B50891E001C0DF
:10118000990F8A95EAF7892F0C94B50821E030E091
:1011900001C0220F8A95EAF78091CB01822B0C9433
:1011A000B50821E030E001C0220F8A95EAF72095CA
:1011B0008091CB0182230C94B50821E030E001C07E
:1011C000220F8A95EAF78091CB0182270C94B5080B
:1011D0009091CB01892B0C94B5089091CB01892378
:1011E0000C94B5089091CB0189270C94B50808950B
:1011F000292F220F920F990F890FE82FE695E69578
:10120000E695877051E001C0550F8A95EAF783E0B3
:10121000E89FF0011124E754FE4F20E030E070E039
:101220004081CB01022E02C0969587950A94E2F781
:101230008170819584278523842781932F5F3F4F79
:101240002330310569F70895292F220F920F990F46
:10125000890F682F669566956695982F977083E03D
:10126000689FB001112440E050E080E0FB01E40FF2
:10127000F51FE754FE4F208130E0092E02C036955D
:1012800027950A94E2F721703327042E01C0220F1C
:101290000A94EAF7822B4F5F5F4F4330510531F7D5
:1012A0000895CF92DF92FF920F931F93CF93DF9316
:1012B0006C010091CB018091CC01082BC7E0D0E0FC
:1012C00010E0C8010C2E02C0959587950A94E2F7AC
:1012D00080FD04C02197A8F7F12C07C0FC2EB601B1
:1012E0008C2F0E9446100197A9F38F2DDF91CF918B
:1012F0001F910F91FF90DF90CF900895CF93DF93D0
:10130000EC010E945109BE010E944610DF91CF916D
:1013100008951F93CF93DF93EB019091B801992328
:1013200021F0CB010E947E0913C0882349F0CB0134
:101330000E945109182F682FCE010E94F80804C09E
:10134000CB010E942409182FBE01812F0E94461054
:10135000DF91CF911F9108951F93CF93DF93C09199
:10136000CD0116E08091CE01C81799F0D0E01C9F06
:10137000F0011D9FF00D1124E153FE4F408151817A
:1013800062817381848195810E9486082196C7704D
:10139000E9CFDF91CF911F9108954091FF015091C6
:1013A000000260910102709102028091030290910B
:1013B00004020C9486080F931F93CF93DF938091C0
:1013C000040282958F7009F05DC08091010288232C
:1013D00009F458C08091CD011091CE016091FF01B8
:1013E00070910002C0910202D091030291E06F3F20
:1013F00009F090E0292F06E0811709F443C02097F7
:1014000021F07F3F21F030E003C031E001C0322FF6
:1014100090E030FD34C0089FF001099FF00D1124C9
:10142000DF01A153BE4F11963C911197371327C08E
:101430003C91361324C012963C91129731111FC073
:1014400013964D915C9114974C1B5D0B483C5105D4
:10145000B0F4809104028F70806180930402EC529A
:10146000FE4F80818F70806180838FEF91E00E94BA
:10147000FD07DF91CF911F910F910C94AC0901965C
:101480008770BACFDF91CF911F910F9108959F92EE
:10149000AF92BF92CF92DF92EF92FF920F931F9382
:1014A000CF93DF93CDB7DEB761970FB6F894DEBF69
:1014B0000FBECDBF8C0185E0F801DE011D960190C5
:1014C0000D928A95E1F7F801E2809091FF01609119
:1014D000000220910202309103022115310531F002
:1014E0006F3F31F481E09F3F19F403C081E001C0F8
:1014F00080E0F82FF1709F2E80FD3FC1F801408100
:101500005181A380B4808FEFC82E81E0D82EF09057
:101510000102F501E21BF30BFF2009F4D9C0809111
:101520000402E83CF10508F095C0282F207F09F05F
:1015300052C0561313C0491311C0FE2CE1100EC047
:101540008F708061809304020E94CD09C6010E94C1
:10155000FD0780910402F80185834CC1AB2831F06E
:101560005F3F31F481E04F3F19F403C081E001C0D7
:1015700080E080FD03C081E08E2502C080E090E025
:10158000F82FF170FF2E80FF1CC08091CD012091BB
:10159000CE0136E0821709F40BC190E0389FF001CC
:1015A000399FF00D1124E153FE4F6181561306C09F
:1015B0006081461303C06281E61203C00196877002
:1015C000E9CFFE2CEE2009F415C180910402816060
:1015D0008093040254C0561306C0491304C0E1109E
:1015E00002C0F80199C0C8010E946F08882361F108
:1015F000EE2051F120910402822F82958F7090E0AD
:10160000029774F08091FF019091000298878F8378
:101610001986BB86AA862C87CE0107960E94FD07F5
:1016200086E0F801AFEFB1E001900D928A95E1F705
:101630000E94DB090E94CD090AC0561711F1C801AA
:101640000E946F0881112CC0C8010E94FD07FF2471
:10165000F394D0C0282F207F81F77A2DB98AA88AE9
:101660006E2D89890E9477088FEF91E00E94FD0717
:1016700086E0F60111928A95E9F70E94CD09F12CD6
:10168000B9C04913DCCFE110DACFF8018583C80176
:101690000E94FD0786E0F60111928A95E9F7AAC03B
:1016A000EE2091F220910402822F82958F7090E0BB
:1016B00002970CF4B5CF8091FF01909100029A83BC
:1016C00089831B82BD82AC822E83CE010196A6CF78
:1016D000E83CF10508F044C0FE2CEE2009F4B4CF3C
:1016E000561330C049132EC02091040220FD21C0A2
:1016F000822F82958F70482F50E041155105C9F017
:10170000F80125834F30510541F08F5F982F929556
:10171000907F822F8F70892B8583C8010E94FD07DF
:1017200086E0F801AFEFB1E001900D928A95E1F704
:101730003CC086E0F801AFEFB1E001900D928A95D0
:10174000E1F758C0C8010E946F08811169CF8091EC
:101750000402816080930402C8010E94FD074AC010
:101760007A2DB98AA88A6E2D89890E94770886E029
:10177000F60111928A95E9F718C0EE2009F464CFBA
:10178000C8010E946F08F82E882309F45DCF86E017
:10179000F801AFEFB1E001900D928A95E1F78FEF7C
:1017A00091E00E94BC040E94DB090E94CD0922C086
:1017B0004D875E878D859E850E947E09292F229503
:1017C0002F70223028F49F7039F0811105C00BC0B2
:1017D000243028F49F7049F4805E883020F0C801DE
:1017E0000E94FD079F2CF92C05C0F8019581907F80
:1017F00099F7F9CF8F2D61960FB6F894DEBF0FBE23
:10180000CDBFDF91CF911F910F91FF90EF90DF90AF
:10181000CF90BF90AF909F9008951F93CF93DF9389
:10182000CDB7DEB72C970FB6F894DEBF0FBECDBF95
:101830004F83588769877A878B879C87CE01079665
:101840000E94470A8823D1F09F8188852A853B859D
:10185000232B31F08F3F31F481E09F3F19F403C017
:1018600081E001C080E080FD47C04F8158856985D7
:101870007A858B859C850E9486083EC086E0FE01A5
:101880003796DE01119601900D928A95E1F7FF815E
:10189000E8856A857B856115710531F0EF3F31F48C
:1018A00081E0FF3F19F403C081E001C080E080FDCA
:1018B00023C02091CE0130E0C9010196877099279D
:1018C0004091CD0150E084179507F1F1F983EA8347
:1018D0007D836C8396E0929FD001939FB00D11247D
:1018E000A153BE4FFE01319601900D929A95E1F7FA
:1018F0008093CE010E94AC0916E08091CD019091B9
:10190000CE01891771F1189FC001112481539E4F98
:101910000E94470A882329F1E091CD011E9FF00122
:101920001124E153FE4F4081518162817381848192
:1019300095810E9486088091CD0190E00196877084
:1019400099278093CD01D9CF0E9447081092CE01EC
:101950001092CD01EFEFF1E086E0DF011D928A9554
:10196000E9F72C960FB6F894DEBF0FBECDBFDF911E
:10197000CF911F9108958091050285958595859554
:1019800008958091050287700895909105029770DF
:1019900081E009F480E0089590916B0292FB222788
:1019A00020F9281751F080FB92F990936B028091F7
:1019B0006A0290916B020C94C90D089580916B029C
:1019C00082FB882780F991E089270C94CC0C81E078
:1019D0000C94CC0C80E00C94CC0C809111020895F6
:1019E00090911102892B8093110208958095909116
:1019F0001102892380931102089510921102089513
:101A000090911002892B80931002089580959091F7
:101A100010028923809310020895109210020895F5
:101A200010920F02089580910602089508950C9473
:101A3000160D0C94170D90916B0292FD08C09091B9
:101A40000602981721F0809306020C94190D089550
:101A500080910602882329F01092060280E00C94FF
:101A6000190D0895E0910001F0910101809111029A
:101A70008083E0910001F09101019081809110023A
:101A8000892B8083E0910001F09101019081809188
:101A90000F02892B808380910602882381F0E091D8
:101AA0000001F09101019081892B808380910001D8
:101AB000909101010E94771F81110E94280D809151
:101AC0000001909101010C94321F0C94160D90911D
:101AD0006B0292FD10C098E0899F90011124262B83
:101AE000209305020E94C608809105028595859580
:101AF00085950C94650D0C94C6081092050280E043
:101B00000C94650D20910502809582238093050237
:101B1000982F977041F430E0482F082E000C550B99
:101B20002417350721F490916B0292FF07C0859529
:101B3000859585950E94D1080C947D0D08956FEFD1
:101B40007FEF80E090E00C94FA2880E090E00E9423
:101B5000D628893E9E4F11F40C94E91780E0089531
:101B600082E090E00C94CE2883E090E00C94CE28A4
:101B7000CF9384E090E00E94CE28C82F82E290E0CC
:101B80000E94CE282C2F30E0A901582BCA01CF91FA
:101B90000895CF93C92F682F84E090E00E94DC283D
:101BA0006C2F82E290E0CF910C94DC28AB01BC0159
:101BB0008FE090E00C94EE28AB01BC0183E190E053
:101BC0000C94EE2860E070E0CB010C94DC0D60E03A
:101BD00070E0CB010E94D60D0C94E20D69EE7EEF11
:101BE00080E090E00E94FA2860E082E090E00E94AD
:101BF000DC2860E083E090E00E94DC281092CC01B9
:101C000060E084E090E00E94DC2860E082E290E006
:101C10000E94DC2860E085E090E00E94DC2860E023
:101C200086E090E00E94DC286FEF87E090E00E9461
:101C3000DC2840E050E0BA0188E090E00E94EE2805
:101C400060E08DE090E00E94DC2840E050E0BA01C6
:101C500088E190E00E94EE2860E087E190E00E9439
:101C6000DC2840E050E0BA018CE190E00E94EE28D0
:101C700060E070E080E290E00E94FA2840E050E0EE
:101C8000BA0188E190E00E94EE2880E00E940218EC
:101C90000E942E180C94E70D0C94EE0D682F8EE028
:101CA00090E00C94DC280E94992060931F027093AE
:101CB0002002809321029093220260931B02709372
:101CC0001C0280931D0290931E02089585B78068C0
:101CD00085BF85B7806885BF08950C941213089559
:101CE0000C946F0E0C946F0E0C94720E0C946F0E7D
:101CF0000C94760E0C946F0E0E94660E82E291E1B7
:101D00000E9407210E947A0E0C94780E0E94700E99
:101D10000C946F0E0E9484200E94C41F0E943D18E4
:101D20000E9412120E94B81A0C94740E9F92AF92E5
:101D3000BF92CF92DF92EF92FF920F931F93CF93B8
:101D4000DF93CDB7DEB72A970FB6F894DEBF0FBE8C
:101D5000CDBF0E94871281110E94530E83E1A82EED
:101D600082E0B82E00E010E0902E802F0E945611E5
:101D7000D82EF501C1905F01C826B1F40F5F1F4F47
:101D80000830110589F78FEF89838A831B820E94AF
:101D90008D208160782F9D838C8349815A816B814E
:101DA0008D810E9472042FC08091230281FD0E94C8
:101DB0005C11E12CFF24F3948C2D8F21F1F00E9413
:101DC0006D0E882399F0EE829F82DF2081E009F476
:101DD00080E088870E948D208160782F9A8789878C
:101DE0004E815F8168858A850E947204F801ED5EEC
:101DF000FD4F8081F826F08206C0E394FF0CF6E0E8
:101E0000EF12DACFBBCF0E94C8160E941F1F90911D
:101E100012028917B9F00E941F1F809312022A969E
:101E20000FB6F894DEBF0FBECDBFDF91CF911F91EB
:101E30000F91FF90EF90DF90CF90BF90AF909F9069
:101E40000C9469042A960FB6F894DEBF0FBECDBF7E
:101E5000DF91CF911F910F91FF90EF90DF90CF9086
:101E6000BF90AF909F900895CF93DF930E944B1047
:101E7000EC01811521E5920708F045C0811530E598
:101E8000930708F094C0883E910528F5803E91059F
:101E900008F0F8C0883A910570F4853A910508F089
:101EA0007CC08130910509F475C008F4E8C004973E
:101EB00008F0E8C0E4C08F3B910508F0E0C0C85AC4
:101EC000D0E0CC0FDD1FCB59DE4F0990D881C02D5B
:101ED000CE019464D8C0811540E2940758F481156E
:101EE00051E0950708F0CEC0803F910508F4C7C0C7
:101EF0009065C9C0C11580E4D80708F4C0C0DF7080
:101F0000CE01906AC0C0811525E59207A8F481151D
:101F100034E5930708F095C0811543E5940708F070
:101F20007BC0811552E5950708F061C0D82FCC27FA
:101F3000CE01816F906AA7C0C11589E5D807A0F4CA
:101F4000C11528E5D20708F082C0C11536E5D307D0
:101F500008F095C08C2F0E94DF108F7190E0D82F71
:101F6000CC27CE0190628FC0C1154AE5D40708F492
:101F700074C0CE0190568115904208F080C08D2F1C
:101F80008F710E94DF10DD27D0628F71AE01582B58
:101F9000CA0179C081E090E076C0C55AD0E0CD5644
:101FA000DE4F8881C82FD0E0CE0190646CC074E011
:101FB000969587957A95E1F7282F23703C2F3370FB
:101FC00081E090E002C0880F991F3A95E2F79C6883
:101FD000AC01522B9A019C2F9F709695969550E2DA
:101FE000959FE0011124C9018C2B9D2B4CC083705F
:101FF000992721E030E002C0220F331F8A95E2F7D3
:102000009C2F9695969580E2989FE0011124C22B13
:10201000D32BCE019C6837C08370992721E030E034
:1020200002C0220F331F8A95E2F79C2F9695969552
:1020300040E2949FE0011124C22BD32BCE019A6879
:1020400022C0D82FCC27CE01846F906A1CC0DC2F11
:10205000CC27CE01806F906A16C08C2F8F700E94A3
:10206000DF1094E0D695C7959A95E1F7CF70D0E050
:10207000DC2FCC27D0699E01282BC90104C080E049
:1020800090E001C0CE01DF91CF9108950E94F61932
:102090000E94340F08958238910569F1B0F48133BC
:1020A000910509F46DC048F48932910509F463C0C3
:1020B0008A32910509F469C008958533910509F4C0
:1020C00055C089339105B9F00895833E910569F1B2
:1020D00038F4803E9105B1F0823E910509F10895F2
:1020E000863E9105A9F1873E9105B9F1843E91059F
:1020F00009F064C023C020916A0220FD4FC021FD79
:102100004DC0089580916A0280FD44C080916B02A9
:1021100080FF44C080916A0284FD42C083EE4DC0BE
:1021200080916A0282FF38C0F5CF80916A0282FDF9
:1021300033C080916B0280FD31C0ECCF80916B0287
:1021400081FF32C080916A0284FD2AC087EE35C0CB
:1021500080916A0283FF26C0F5CF80916A0283FDD9
:1021600021C080916B0281FD1FC0ECCF80916A027B
:1021700085FD1CC01DC080916A0285FD19C016C076
:1021800080916A0286FD16C017C080916A0286FDA2
:1021900013C010C089E311C082EE0FC080EE0DC0E5
:1021A00080E00BC086EE09C084EE07C089E205C05E
:1021B00085E303C08AE201C081E390E00895909135
:1021C0006A0292FF0DC0282F2871283019F4877FEA
:1021D000846006C0282F2471243011F48B7F88601E
:1021E00093FF0DC0282F2871283119F4877E846150
:1021F00006C0282F2471243111F48B7E8861209130
:102200006B0220FF0DC0382F3871383019F4877FEA
:10221000816006C0382F3171313011F48E7F8860B3
:1022200021FF0DC0282F2871283119F4877E816184
:1022300006C0282F2171213111F48E7E886194FD12
:10224000877E089580E008950C949F0D0E94871268
:102250008FE39CE90197F1F700C000000E9487120C
:1022600080E00E94561180FF04C00E9424110C944B
:10227000F62008950C9426110E94A50D811102C02C
:102280000E944C0E0E94B00D809323020E94B80D54
:1022900090936B0280936A020E943A110E94B40DDF
:1022A0000E94A2088091CB010C94B308E82FF0E0C3
:1022B000EC58FD4F80810895089580EA8A95F1F7E2
:1022C000089500C008950C945D1108950C94651153
:1022D0000C9466110C9465110C946A11F894E82F13
:1022E000E295EF70F0E031A1282F2F7081E090E0AF
:1022F00001C0880F2A95EAF7982F9095932391A310
:1023000092A1892B82A37894089508950C94851145
:102310000F931F93CF93DF93CCE9D1E089918F3F47
:1023200011F00E946E1181E0C03AD807B9F7C6E9F2
:10233000D1E00CE911E089918F3F11F00E946E11FC
:102340000C171D07C1F7DF91CF911F910F910895D1
:10235000CF92DF92EF92FF920F931F93CF93DF9371
:102360008C01C62FD0E0CE0184569E4F7C01FC012B
:1023700090819F3F09F44DC0D62EF894E92FE29545
:10238000EF70F0E081A19F7021E030E001C0220FEA
:102390009A95EAF7822B81A382A12095282322A374
:1023A00078940E946111E6E9F1E020E030E0C12C70
:1023B00051E041914F3FB1F0A42FA295AF70B0E032
:1023C00090968C9190E04F7002C0959587954A95B4
:1023D000E2F780FD07C0852F022E01C0880F0A9406
:1023E000EAF701C080E0C82A2F5F3F4F2630310551
:1023F00001F7F70180818F3F11F00E946E1161E0BB
:10240000C11001C060E08D2D0E946311C00FD11F6B
:10241000C882DF91CF911F910F91FF90EF90DF90D5
:10242000CF9008950E942C138091020180910201A7
:10243000811102C094E001C090E090937D0284E09D
:10244000891B80937C020E948811ECE6F2E0A4E7ED
:10245000B2E011921D9282E0E437F807D1F784E0F0
:102460000E94DB120E941E030C9436131F93CF931D
:10247000DF9300D000D0CDB7DEB70E941213609179
:102480007D02882371F119821A821B821C82862F99
:1024900090E0BE016F5F7F4F8C589D4F0E944413A8
:1024A000E0917C029E012B5F3F4FF0E0EC58FD4F26
:1024B000DE011196882361F010E08D9190819817CC
:1024C00011F0808311E03196A217B307B1F706C06F
:1024D00011921D92A217B307D9F711E00E942403AD
:1024E0000DC070E06C587D4F80917C0290E08C585C
:1024F0009D4F0E94D4130E94861110E0812F0F90EF
:102500000F900F900F90DF91CF911F910895EF9250
:10251000FF920F931F93CF93DF93CDB7DEB728972A
:102520000FB6F894DEBF0FBECDBF8E010F5F1F4FF9
:1025300088E0F80111928A95E9F7F12C6F2DC80116
:102540000E94A811F394F4E0FF12F8CF48E050E0A5
:10255000B8018CE692E00E94B8287C0121E0892B2A
:1025600009F420E0E114F10441F088E0F801ACE660
:10257000B2E001900D928A95E1F760917D0270E0E2
:102580006C587D4F44E08CE692E00E94DC12EF280C
:1025900019F40E94361202C081E090E028960FB62E
:1025A000F894DEBF0FBECDBFDF91CF911F910F9189
:1025B000FF90EF9008950895FF920F931F93CF938C
:1025C000DF938C01F62ED72FC42F222349F081E010
:1025D000809326020E948D209093250280932402EE
:1025E000809126028823C1F08091240290912502D7
:1025F0000E94A520059780F0EF2DFD2FD8014C2FCC
:1026000050E0CD01801B910B841795071CF48D9130
:102610008193F7CF10922602DF91CF911F910F91F6
:10262000FF9008958091290281110DC00E947628A3
:10263000811102C082E001C081E0809329028230D2
:1026400011F40E94712881E090912902913009F0E3
:1026500080E008950C9412130E942A1380930201C3
:102660000E94121381110C947C1308950E9412137E
:10267000811102C00C947E13089581E090912A028A
:102680009A3008F080E008950F931F93CF93DF9363
:10269000EC018B0180912A028A3038F4B801CE0116
:1026A0000E94D21381111DC00AC08091270290910F
:1026B00028020E94A520843F914080F715C0809198
:1026C0002A028F3F19F08F5F80932A0280912A029D
:1026D0008A3060F00E948D20909328028093270218
:1026E00003C010922A0202C080E001C081E0DF91A5
:1026F000CF911F910F9108950C94551D0C94581D66
:10270000EF92FF920F931F93CF93DF937901C82F1E
:10271000880FDD0B41155105A9F08AE08C9FF0016F
:102720008D9FF00D1124ED5FFE4F83819481855DB7
:102730009D4F228130E04217530708F49A01A90106
:102740000E94C528CE010E94621E892B09F5011541
:10275000110501F18AE08C9FF0018D9FF00D11248D
:10276000ED5FFE4F458150E00417150708F4A801FE
:102770008AE08C9FF0018D9FF00D1124ED5FFE4FDC
:1027800066817781655D7D4FC7010E94C52802C0C3
:1027900080E001C081E0DF91CF911F910F91FF9008
:1027A000EF9008950C94F5140C9411150F931F934A
:1027B000CF93DF9300D000D0CDB7DEB76091400259
:1027C0007091410280914202909143020E94B42094
:1027D000643671058105910528F10E94EA1FDC012C
:1027E000CB010296A11DB11D89839A83AB83BC8363
:1027F00000E010E020E030E044E050E0BE016F5F18
:102800007F4F82E00E948013182F882361F00E947E
:10281000992060934002709341028093420290930A
:10282000430201C011E0812F0F900F900F900F9085
:10283000DF91CF911F910F910895AF92BF92CF92E8
:10284000DF92EF92FF920F931F93CF93DF937C0160
:102850005B016A010E943D13811103C001E010E099
:1028600002C00AE010E0C1E0D0E0F894B501C70171
:10287000F60109957894811115C021960C171D0752
:1028800094F0CC9F9001CD9F300D300D112480E04D
:1028900090E045E34A95F1F700000196821793070F
:1028A000C1F7E3CF81E0DF91CF911F910F91FF90AE
:1028B000EF90DF90CF90BF90AF900895AF92BF920E
:1028C000CF92DF92EF92FF920F931F93CF93DF93FC
:1028D00000D000D01F92CDB7DEB75B01E090A4011D
:1028E000F090A50101E010E09E012B5F3F4F40E01A
:1028F00050E060E070E080E00E948013182F882391
:1029000009F43EC067018FEFC81AD80A60913C02F3
:1029100070913D0280913E0290913F020E94B4204E
:10292000643671058105910518F104E010E09E01FF
:102930002F5F3F4F40E050E060E070E081E00E9498
:102940008013182F64E070E0C6010E94B91A91E06C
:102950002D81281390E0192351F10E949920609352
:102960003C0270933D0280933E0290933F0211C05F
:1029700064E070E0C6010E94B91A9D818913D5CF29
:10298000F70181819281A381B48189839A83AB838A
:10299000BC83112361F089819A81AB81BC818093D2
:1029A000380290933902A0933A02B0933B0280918F
:1029B000380290913902A0913A02B0913B02F501A0
:1029C00080839183A283B383812F0F900F900F9008
:1029D0000F900F90DF91CF911F910F91FF90EF908B
:1029E000DF90CF90BF90AF9008950F931F93CF9338
:1029F000DF93EC018B014EE554E10E941D14882306
:102A000051F046ED53E1B801CE01DF91CF911F9116
:102A10000F910C941D1480E0DF91CF911F910F91C5
:102A200008950F931F93CF93DF93F894C091A4015F
:102A3000D091A501CE01019624E0FB01DC010190BB
:102A40000D922A95E1F764E070E00E94B91A88833C
:102A50007894F8946D817E818F81988500913402FD
:102A600010913502209136023091370260177107BC
:102A70008207930751F0609334027093350280937C
:102A80003602909337020E94CD1F7894DF91CF9148
:102A90001F910F9108950E9405200E949B220E9481
:102AA000B4220E94C6220E94860EFBCF80914A0269
:102AB00080FF0BC06091260185E0689FB001112462
:102AC00075956795759567952BC081FF09C06091D5
:102AD000260185E0689FB00111247595679520C097
:102AE00082FF07C06091260185E0689FB001112434
:102AF00017C0909149029923D1F060912501961752
:102B000088F72091260185E0289F90011124929F4B
:102B1000A001939F500D112470E0CA010E948328E8
:102B20006038710540F46115710519F406C065E05F
:102B300070E0862F08958FE7089581E008958091D1
:102B40004A0280FF08C06091220170E07595679588
:102B50007595679521C081FF06C06091220170E0E4
:102B60007595679519C082FF04C06091220170E0DD
:102B700010C090914802992399F060912101961715
:102B8000A0F780912201899FC001112470E00E946A
:102B900083286038710540F46115710519F406C089
:102BA00061E070E0862F08958FE7089581E0089531
:102BB000803F21F40E945615819504C0813F29F47D
:102BC0000E94561580934E020895823F21F40E9480
:102BD0005615819504C0833F29F40E9456158093B1
:102BE0004D020895893F19F40E949F1505C08A3F40
:102BF00031F40E949F15819580934F0208958B3F79
:102C000021F40E949F15819504C08C3F29F40E94F5
:102C10009F158093500208959CE0980F953078F4AA
:102C200021E030E0A90102C0440F551F9A95E2F758
:102C3000CA0190914C02892B80934C0208958D3FDC
:102C400021F480914A0281600BC08E3F21F4809173
:102C50004A02826005C08F3F29F480914A02846055
:102C600080934A020895803F39F490914E0297FF75
:102C700035C010924E0259C0813F29F490914E0206
:102C80001916BCF32BC090914D02823F29F497FF97
:102C900025C010924D0249C0833F19F41916CCF398
:102CA0001DC090914F02893F29F41916BCF410926F
:102CB0004F023BC08A3F19F497FF10C0F8CF8B3FFB
:102CC00039F49091500297FF09C0109250022DC024
:102CD0008C3F21F4909150021916BCF39CE0980FA0
:102CE000953080F421E030E0A90102C0440F551F67
:102CF0009A95E2F7CA01809590914C0289238093BE
:102D00004C0213C08D3F21F480914A028E7F0BC08C
:102D10008E3F21F480914A028D7F05C08F3F29F4B8
:102D200080914A028B7F80934A0280914D028111EB
:102D300006C080914E02811102C01092490280911A
:102D40004F02811106C080915002811102C0109281
:102D5000480208950E948D2020914D02211104C047
:102D600020914E02222321F0909347028093460245
:102D700020914F02211104C020915002222321F002
:102D800090934502809344028BE492E00C943D1FA3
:102D9000EF92FF920F931F93CF93DF9300D000D059
:102DA00000D0CDB7DEB786E0EBE4F2E0DE011196AD
:102DB00001900D928A95E1F7E0904D02F0904E025D
:102DC00000914F021091500210924D0210924E024B
:102DD00010924F0210925002E11003C0FF2009F43C
:102DE0005DC080914602909147020E94A520AC01EF
:102DF00090914902992339F02091270130E024175E
:102E0000350758F04BC0209128018AE0289F900197
:102E100011242417350718F041C09F3F19F09F5F18
:102E200090934902EE2061F00E9456151E1414F092
:102E30009FEF01C091E0989F902D112490934D0237
:102E4000FF2061F00E9456151F1414F09FEF01C07F
:102E500091E0989F902D112490934E0230914D0255
:102E60003323E1F020914E022223C1F045EB3403DD
:102E7000C0011124992319F090934D0203C081E001
:102E800080934D0235EB2303C0011124992319F0DF
:102E900090934E0203C081E080934E02011103C063
:102EA000112309F45DC080914402909145020E9473
:102EB000A520AC0190914802992339F0209123017B
:102EC00030E02417350758F04BC0209124018AE0E8
:102ED000289F900111242417350718F041C09F3F07
:102EE00019F09F5F90934802002361F00E949F15A4
:102EF000101614F09FEF01C091E0989F902D1124BF
:102F000090934F02112361F00E949F15111614F047
:102F10009FEF01C091E0989F902D11249093500253
:102F200030914F023323E1F0209150022223C1F06F
:102F300045EB3403C0011124992319F090934F02FB
:102F400003C081E080934F0235EB2303C0011124BD
:102F5000992319F09093500203C081E080935002AE
:102F600080914D0281110BC080914E02811107C0EA
:102F700080914F02811103C08091500281110E9403
:102F8000AA16EB82FC820D831E8386E0FE01319639
:102F9000ABE4B2E001900D928A95E1F726960FB668
:102FA000F894DEBF0FBECDBFDF91CF911F910F917F
:102FB000FF90EF900895EBE4F2E086E0DF011D92D0
:102FC0008A95E9F7109249021092480210924A023B
:102FD000089583E290E00E94CE28813281F484E259
:102FE00090E00E94CE28813151F485E290E00E9469
:102FF000CE2891E0863209F090E0892F01C080E070
:1030000081700895CF93C82F811102C06FEF01C066
:1030100061E283E290E00E94DC28C11102C06FEF00
:1030200001C061E184E290E00E94DC28C11102C08D
:103030006FEF01C066E285E290E0CF910C94DC284E
:10304000089586E290E00E94CE28682F70E080E02C
:1030500090E0089586E290E00C94DC2880E00E94E5
:10306000021860E070E0CB010E942A180E947119DA
:103070000E94501A81E00C9402180E9420180E94AD
:10308000E917811102C00C942E180895CF93FB010B
:10309000C281CC23E9F09C0122513F45203131050A
:1030A00020F482510E94601A0CC08031FFE59F0716
:1030B00051F481E00E94C60843E062E081E00E9492
:1030C0001503C0E018C081319F45A9F482E0F2CF1A
:1030D0008031EFE59E0711F481E004C081319F4506
:1030E00049F482E00E94D10843E062E081E00E945E
:1030F000150301C0C1E08C2FCF9108952FEFFC0183
:1031000020830895EF92FF920F931F93CF93DF9345
:10311000EC01062FE8818E2F90E0FC013197E3311E
:10312000F10508F091C0E059FF4F0C9497281982DF
:1031300089E04DC08981823039F0833061F081307F
:1031400029F50E94992002C00E9421189A838B833E
:103150007C836D837BC07E0182E0E80EF11C10E071
:10316000812F0E945611F70181937F011F5F183054
:10317000B9F76CC08981823049F46A817B818C8186
:103180009D810E949D280E942A1860C0602FCE0158
:103190000E947E185BC04B816A8189810E9443191D
:1031A0009C838D8353C02C813D8132272327322776
:1031B0004B816A8189810E945C1948C00E94711903
:1031C00045C00E94031A24C00E94051A99838A836D
:1031D0003DC06B8170E089819A81AE014C5F5F4F89
:1031E0009827892798270E94081A30C06B8170E0C1
:1031F00089819A81AE014C5F5F4F98278927982774
:103200000E942D1A23C00E94501A20C00E9430191B
:1032100089831CC06B8170E089819A81AE014C5F0B
:103220005F4F9827892798270E94B0190FC06B819C
:1032300070E089819A81AE014C5F5F4F98278927A2
:1032400098270E94D41902C08FEF8883602FCE0187
:10325000DF91CF911F910F91FF90EF900C948C21F3
:1032600084E0089550E0440F551F2CE0629F400D0C
:10327000511D11249A0160E6869F200D311D1124F5
:10328000C901879608950F931F93CF93DF930E94F0
:1032900032198C010E94CE28C82FD0E0DC2FCC2719
:1032A000C80101960E94CE289E01282BC901DF91FA
:1032B000CF911F910F9108950F931F93CF93DF9399
:1032C000122F032F0E943219EC01602F0E94DC287C
:1032D000612FCE010196DF91CF911F910F910C9438
:1032E000DC28AF92BF92CF92DF92EF92FF920F93C2
:1032F0001F93CF93DF93A12CE12CF12CB12C00E094
:1033000010E0C0E0D0E06701C00ED11EFE01EE0F5C
:10331000FF1FEC0DFD1DE65EFE4F259134914C2FF5
:103320006B2D8A2D0E945C192196C630D10571F74C
:10333000045F1F4FB39488E0B812E3CF80E6E80E35
:10334000F11CA39484E0A812D9CFDF91CF911F91F3
:103350000F91FF90EF90DF90CF90BF90AF900895C6
:10336000EF92FF920F931F93CF93DF93EA017A01BD
:10337000E60EF71E8C01C8018796CE15DF0569F0B1
:10338000003821E0120720F40E94CE28888301C073
:10339000188221960F5F1F4FEECFDF91CF911F91C3
:1033A0000F91FF90EF900895EF92FF920F931F936C
:1033B000CF93DF93EA017A01E60EF71E8C01C80174
:1033C0008796CE15DF0559F0003821E0120718F472
:1033D00068810E94DC2821960F5F1F4FF0CFDF919C
:1033E000CF911F910F91FF90EF900895462F843059
:1033F00038F4783028F4663018F4672F0C944319A9
:1034000080E090E0089580E1089589E592E00895D4
:10341000EF92FF920F931F93CF93DF93EA017A010C
:10342000E60EF71E8C01C80189559E4FCE15DF05AB
:1034300069F0093522E0120720F40E94CE28888323
:1034400001C0188221960F5F1F4FEDCFDF91CF9102
:103450001F910F91FF90EF900895EF92FF920F93BD
:103460001F93CF93DF93EA017A01E60EF71E8C01DA
:10347000C80189559E4FCE15DF0559F0093522E068
:10348000120718F468810E94DC2821960F5F1F4FF5
:10349000EFCFDF91CF911F910F91FF90EF900895A3
:1034A000CF93DF93C7EAD1E060E0CE010E94DC2831
:1034B0002196C11584E0D807B9F7DF91CF9108951F
:1034C000DF92EF92FF920F931F93CF93DF9300D081
:1034D00000D0CDB7DEB7F82E8FE08F15E8F18FEF73
:1034E00093E00E94CE28811137C007EA11E0FF2047
:1034F00069F0011584E0180779F1C8010E94CE280F
:10350000811101C0FA940F5F1F4FF1CF19821A8207
:103510001B821C82DD24D39478018FEFE81AF80A0D
:10352000C8010E94CE2889831A828823A9F09FEFC0
:10353000980F933058F48A83D9820E5F1F4FC701CA
:103540000E94CE288B83882339F07801CE01019622
:103550000E945E048701E0CF0F900F900F900F90B4
:10356000DF91CF911F910F91FF90EF90DF90089521
:103570000895FC01680F791F8FEF91E3E617F707B5
:1035800071F02191822728E030E087FF03C0880F87
:10359000892701C0880F21503109B9F7EFCF08956D
:1035A0000F931F93CF93DF93C42FD22FFC018281FF
:1035B0008823C9F0409353020E948D2090935202B9
:1035C0008093510280E28C0F883008F057C0C7709A
:1035D00081E001C0880FCA95EAF7DF91CF911F9172
:1035E0000F910C94F40580915302481330C08091E0
:1035F0005102909152020E94A520883C910538F515
:1036000010E21D0FCD17B9F080E28C0F883040F426
:10361000C77081E001C0880FCA95EAF70E94FB05D8
:10362000183028F581E09D2F977001C0880F9A957A
:10363000EAF70E94F405802F0E94EB051830F0F4A1
:10364000D77081E001C0880FDA95EAF70AC080E2FE
:103650008C0F883098F4C77081E001C0880FCA953C
:10366000EAF7DF91CF911F910F910C94FB05802F0A
:10367000DF91CF911F910F910C94EB05DF91CF91CA
:103680001F910F9108950F939C01CB01233F4CE5AF
:10369000340731F188F4283DFCE53F07D9F0293D96
:1036A0004CE5340779F1273D3C45A9F506E221EECA
:1036B00041EE67ED7CE52BC0253FFCE53F07E1F0DF
:1036C000A8F0263F3C4539F507E225EE46EE66EFC9
:1036D0007CE51DC007E225EE45EE68ED7CE517C0F0
:1036E00006E221EE40EE63EF7CE511C007E225EE35
:1036F00044EE64EF7CE50BC006E221EE42EE65EF9E
:103700007CE505C008E221E045EE69ED7CE50E941C
:10371000D01A80E008C0FC018281882319F0109241
:10372000530201C081E00F910895CF93DF93EC0124
:10373000FB018281882309F426C1C330FDE5DF0740
:1037400060F4CA3F9CE5D90768F49E0122503C45CD
:103750002431310508F018C105C0C136EDE5DE079A
:1037600009F012C10E94B80D90936B0280936A0217
:10377000C031FCE5DF0709F4CAC008F041C0C83019
:103780009CE5D90709F4A4C0F0F4C430FCE5DF07D8
:1037900009F48CC068F4C2309CE5D90709F482C0F2
:1037A000C330DC4509F0E5C080916A028260DFC069
:1037B000C630FCE5DF0709F483C008F085C08091BE
:1037C0006A028860D4C0CC309CE5D90709F490C067
:1037D00068F4CA30FCE5DF0709F47EC008F084C055
:1037E0000E94470880916A028068C1C0CE309CE583
:1037F000D90709F481C008F086C080916A0294C09C
:10380000CC3FFCE5DF0709F47BC038F5C4319CE50B
:10381000D90709F49AC058F4C231FCE5DF0709F46E
:103820007AC008F07EC080916A028F7BA0C0CA3F38
:103830009CE5D907F1F108F03FC0C531DC4509F03E
:1038400098C080916A0282FB222720F991E092279A
:1038500090FB82F990FB83F98AC0C1158DE5D807EA
:1038600009F467C050F480916B02CE3FECE5DE07AF
:10387000C1F108F05BC08D7F65C0C2308DE5D8070F
:1038800009F471C008F46DC0C136DD4509F071C09E
:1038900080916A0284FB222720F991E0922790FB15
:1038A00084F965C080916A02816061C080916A027A
:1038B00016C080916B0216C080916B02826042C07C
:1038C00080916A02806153C080916A0280624FC019
:1038D00080916A0280644BC080916A028860846033
:1038E00046C0826081602EC080916A028E7F3FC098
:1038F00080916A028D7F3BC080916A02877F37C0CA
:1039000080916B0214C080916A028F7E30C08091DA
:103910006A028F7D2CC00E94470880916A028F77CF
:1039200026C080916A02877F8B7F21C08D7F8E7F2A
:1039300009C080916B02982F909591708E7F892B92
:1039400090FB81F980936B0214C00E94470880911C
:103950006A0287FB222720F991E0922790FB87F9E2
:1039600006C081E001C080E00E944E0E02C080933C
:103970006A0280916A0290916B020E94C90D0E94B6
:10398000470880E001C081E0DF91CF910895CF9397
:10399000DF9386319C4541F5EB010E94ED0C982F99
:1039A0008A812091000130910101882379F09A7A6F
:1039B00081E009F480E080935402911102C069E231
:1039C00001C065E3C9010E94B91F0AC08091540279
:1039D000811102C069E201C065E3C9010E94BB1FF9
:1039E0000E94320D80E001C081E0DF91CF91089507
:1039F0008EE14A9B02C08150E1F74A9BFECF0895B9
:103A00005A9880E28A95F1F75A9A0895FC012AE0C3
:103A10002A95F1F728E090E080E031E040E14A9516
:103A2000F1F7880F4A9B02C08160932700C0000015
:103A300040E14A95F1F7215089F720E12A95F1F705
:103A400029B100C0000030E13A95F1F722FB2227AE
:103A500020F992272081920F90830895EF92FF9290
:103A60000F931F93CF93DF931F92CDB7DEB71982C9
:103A70008C017C01E60EF11C0E151F0551F00E9411
:103A8000F81CCE0101960E94061DF80181938F015A
:103A9000F3CF81E09981911180E00F90DF91CF9178
:103AA0001F910F91FF90EF900895529A5A9A08959E
:103AB00052985A9AEA9AE9E6F0E080818F7C8083F6
:103AC0000895615091E001C0990F6A95EAF720E0EE
:103AD00031E0992361F0492F482319F05A9A23279E
:103AE00001C05A9840E24A95F1F79695F2CF222309
:103AF00011F05A9A01C05A9880E28A95F1F75A98C3
:103B00000895FF920F931F93CF93DF93EC018C01E5
:103B1000060F111DC017D10741F0F9900E94001D3A
:103B200068E08F2D0E94611DF5CFDF91CF911F912D
:103B30000F91FF9008951F920F920FB60F921124CC
:103B4000EF92FF920F931F932F933F934F935F93A7
:103B50006F937F938F939F93AF93BF93EF93FF9355
:103B6000CF93DF931F92CDB7DEB719820E94F81C66
:103B7000CE0101960E94061DA82FA695A695A69592
:103B80009A2F969595702A2F2570920F292F2370C2
:103B900096959695920F877089137CC089818111C3
:103BA00079C0A43008F076C080E18A95F1F75A9A7E
:103BB000529AB2E0BA95F1F700C05A98EA2EF12C69
:103BC000EAE0AE9FD0011124AD5FBE4F1896ED9193
:103BD000FC9119973097B1F06091A4017091A50103
:103BE00016962D913C911797260F371F13968D919E
:103BF0009C911497680F791F15964C911597129602
:103C00008C9109958AE08E9DF0018F9DF00D112415
:103C1000ED5FFE4F6581662351F08091A401909184
:103C2000A50126813781820F931F0E94811D0E946A
:103C3000001DF0E1FA95F1F75A9852985A9A80E1EE
:103C40008A95F1F78AE08E9D80018F9D100D1124D9
:103C50000D5F1E4FD80112966C911297662399F052
:103C60008091A4019091A50113962D913C911497F8
:103C7000820F931F0E942E1DD801ED91FC9181119E
:103C800005C082E004C0D801ED91FC9188E08083FA
:103C90000E94F81C0F90DF91CF91FF91EF91BF919F
:103CA000AF919F918F917F916F915F914F913F91D4
:103CB0002F911F910F91FF90EF900F900FBE0F90DB
:103CC0001F9018950F931F93CF93DF938430910526
:103CD0000CF0A9C02AE0289FF001299FF00D1124C3
:103CE000ED5FFE4F20813181232B09F49CC0EC0154
:103CF000F894529A5A9885E08A95F1F700008C2F33
:103D0000869585709C2F9570890F982F9370869556
:103D100086958E0123E0000F111F2A95E1F7890F88
:103D2000082B0E94001DA4E0AA95F1F700C068E0EE
:103D3000802F0E94611DB0E1BA95F1F752985A9A0E
:103D40004A9902C000C0FCCF87E090E04A9B17C0B0
:103D5000019799F4529A5A9A8AE08C9FF0018D9FAC
:103D6000F00D1124ED5FFE4F0190F081E02D81E018
:103D70008083789481E090E058C000C0E7CF8AE06B
:103D80008C9F80018D9F100D11240D5F1E4FF80137
:103D900065816623B9F08091A4019091A5012681E7
:103DA0003781820F931F0E942E1D81110BC0529AE2
:103DB0005A9AD801ED91FC9182E08083789482E058
:103DC00090E033C00E94F81CB0E2BA95F1F75A981F
:103DD000529AE0E1EA95F1F78AE08C9FF0018D9F1D
:103DE000F00D1124ED5FFE4F6281662351F080914A
:103DF000A4019091A50123813481820F931F0E9419
:103E0000811D0E94001D8AE08C9FF0018D9FF00DA6
:103E10001124ED5FFE4F0190F081E02D1082789427
:103E200080E090E002C084E090E0DF91CF911F91AC
:103E30000F91089590935B0280935A0208950E9417
:103E40001213811103C0809155020895E0915A0226
:103E5000F0915B02309721F00190F081E02D099400
:103E600080E00895E0915A02F0915B02309721F0D2
:103E70000280F381E02D09940895E0915A02F091B7
:103E80005B02309739F022E0DC012C930480F5814D
:103E9000E02D099408952091580230915902281775
:103EA000390771F09093590280935802E0915A02B9
:103EB000F0915B02309721F00680F781E02D0994A4
:103EC000089520915602309157022817390771F052
:103ED0009093570280935602E0915A02F0915B0250
:103EE000309721F00084F185E02D09940895FC01BC
:103EF000329697E080E0915029F021912223D9F366
:103F00008F5FF9CF0895662349F0FC013296089639
:103F10002191621729F0E817F907D1F780E0089599
:103F200081E008959C01FC0132969FEF80E0419171
:103F3000461789F09F3F19F4411101C0982F8F5FF8
:103F40008630A9F79F3F39F0F901E90FF11D97FD80
:103F5000FA956283089508959C012A5F3F4FFC0102
:103F60004281461301C01282019682179307B9F766
:103F700008950C94921F0C94AC1F029626E0FC014D
:103F800011922A95E9F7089510927F02109280020B
:103F900010928102109282020895CF92DF92EF92E6
:103FA000FF926B017C010E94121381110EC00E94CE
:103FB0009920C61AD70AE80AF90AC0927F02D0925D
:103FC0008002E0928102F0928202FF90EF90DF90F7
:103FD000CF9008950F931F930E941213882321F00E
:103FE0001F910F910C9499200E94992000917F02BB
:103FF000109180022091810230918202600F711F26
:10400000821F931F1F910F910895089508950C9496
:1040100006200C940620CF930E9409200E9487124C
:104020000E940720C0E08C2F0E945611811104C00D
:10403000CF5FC830C1F701C081E0CF9108950C94E3
:1040400006200C941F2080918B02843049F10E943D
:10405000212080E00E94690410925C0220E488E143
:1040600090E00FB6F894A895809360000FBE20935F
:10407000600083B7817F846083BF83B7816083BF23
:104080007894889583B78E7F83BF0FB6F894A895F0
:1040900080916000886180936000109260000FBE84
:1040A00008950C9406200E9447080E941F1F0E943A
:1040B00069040C9451201F920F920FB60F92112495
:1040C0008F939F93AF93BF9380915C02811113C034
:1040D0008091830290918402A0918502B091860222
:1040E0004196A11DB11D8093830290938402A093F9
:1040F0008502B0938602BF91AF919F918F910F90EF
:104100000FBE0F901F90189582E084BD93E095BD7F
:104110009AEF97BD80936E0008952FB7F894809121
:10412000830290918402A0918502B09186022FBFF4
:1041300008952FB7F8946091830270918402809162
:104140008502909186022FBF08959C014FB7F89485
:104150008091830290918402A0918502B0918602A1
:104160004FBF821B930B0895CF92DF92EF92FF9285
:104170002FB7F894C0908302D0908402E09085021B
:10418000F09086022FBFA7019601261B370B480B24
:10419000590BCA01B901FF90EF90DF90CF900895BD
:1041A00078941F920F920FB60F9211248F939F93C2
:1041B000AF93BF938091830290918402A091850276
:1041C000B09186020196A11DB11D80938302909348
:1041D0008402A0938502B0938602BF91AF919F9114
:1041E0008F910F900FBE0F901F90189587E797E75C
:1041F00090930108809300089AE088E10FB6F89444
:10420000A895809360000FBE90936000FFCF9093BD
:10421000B7018093B6010895809168020895909146
:104220008B02943029F580935D0270935F02609356
:104230005E029093E9008FEF9091E800815095FD28
:1042400006C095ED9A95F1F700008111F5CF8091A8
:10425000E80085FF0DC040E050E063E070E08DE5D0
:1042600092E00E9488238091E8008E778093E80096
:104270000895BC0184E00C940F21BC0183E00C94F0
:104280000F2124E02093E9002FEF3091E800215026
:1042900035FD06C035ED3A95F1F700002111F5CF57
:1042A0002091E80025FF0BC040E050E066E070E0A0
:1042B0000E9488238091E8008E778093E80008951B
:1042C000CF93DF9321E02093E9002FEF3091E800B6
:1042D000215035FD06C035ED3A95F1F7000021116A
:1042E000F5CF2091E80025FF14C0EC0140E050E03C
:1042F00068E070E00E9488238091E8008E778093C8
:10430000E80088E0FE01A0E6B2E001900D928A95F7
:10431000E1F7DF91CF910895CF93603219F52091A5
:104320008B022430F9F4C091E900CF703091EC0099
:10433000232F217030FD20E8C22B22E02093E900DA
:104340002091E80020FF0BC040E050E060E270E008
:104350000E9488238091E8008E778093E800CF70D8
:10436000C093E900CF91089580918A02811109C01C
:104370000E9464250E94C1258091E20084608093A0
:10438000E200089510928A0208950895089508950C
:1043900042E061EC81E00E94DD2442E261EC84E0D5
:1043A0000E94DD2442E261EC82E00E94DD2442E2D0
:1043B00060EC83E00C94DD2480918D02833009F45D
:1043C00062C030F4813071F0823009F49BC00895EE
:1043D0008A3009F487C08B3009F46DC0893009F048
:1043E000A9C020C080918C02813A09F0A3C08091BD
:1043F000E800877F8093E80080919002909191027D
:10440000892B21F468E080E692E003C060E080E060
:1044100090E070E00E941E248091E8008B778093EA
:10442000E800089580918C02813209F083C0809168
:10443000900290919102009719F0029709F07AC0CA
:104440008091E800877F8093E8008091E80082FDFA
:1044500005C080918B028111F8CF6CC02091F300D0
:104460008091F20090E0922B029729F48091F10064
:104470008B7F813021F48091F100809368028091DC
:10448000E8008B7753C080918C02813A09F052C0CA
:104490008091900290919102892B09F04BC08091FC
:1044A000E800877F8093E8008091E80080FFFCCFE0
:1044B0008091330136C080918C028132D9F5809190
:1044C000900290919102892BA9F58091E800877F55
:1044D0008093E8000E94122580918E028093330120
:1044E0000C94470880918C02813221F58091E8007C
:1044F000877F8093E8000E94122580918F0280932D
:104500006902089580918C02813AA1F48091E800BB
:10451000877F8093E8008091E80080FFFCCF809146
:1045200069028093F1008091E8008E778093E80023
:104530000C941225089584B7877F84BF0FB6F89432
:10454000A89580916000886180936000109260005F
:104550000FBE90E080E80FB6F894809361009093CE
:1045600061000FBE0C947C0E0E9464250E94C12540
:10457000E2EEF0E080818460808378940E94562887
:104580000E948A0E89E291E00C941A1FCF93DF9368
:10459000CDB7DEB7A0970FB6F894DEBF0FBECDBF84
:1045A00080918B028530A9F480918B02853079F45B
:1045B0000E942320809189028823B1F30E940B205E
:1045C000882391F30E9472230E944708EDCF0E9436
:1045D00053200E94960E80918B02843011F583E067
:1045E0008093E9008091E80082FF1BC08091E80081
:1045F00085FF0AC040E050E060E270E0CE01019625
:104600000E94D32391E001C090E08091E8008B7775
:104610008093E800992329F060E2CE0101960E9480
:104620008218A0960FB6F894DEBF0FBECDBFDF9103
:10463000CF9108950C941C23292F33272330310563
:10464000C9F060F42130310581F02230310509F0E4
:1046500041C08BE590E02EE633E040C021323105C9
:10466000E1F02232310531F135C082E190E029ECF0
:1046700033E034C099278130910549F028F0029742
:1046800049F5EAE4F3E005C0EAE6F3E002C0ECE550
:10469000F3E0849190E09F0121C063307105D0F474
:1046A000660F771FFB01E155FE4F2081318189E0C4
:1046B00090E014C06330710568F4FB01EE0FFF1F3A
:1046C000E755FE4F20813181FB01EA55FE4F808185
:1046D00090E004C080E090E020E030E0FA01318317
:1046E0002083089580E189BD82E189BD09B400FE7F
:1046F000FDCF8091D8008F7D8093D8008091E0001D
:1047000082608093E0008091E00081FDFCCF0895FD
:10471000CF92DF92EF92FF920F931F93CF93DF938D
:10472000EC018B017A010E943125811133C0E11423
:10473000F10439F0F70180819181081B190BC80F32
:10474000D91FC12CD12C0115110519F18091E80058
:1047500085FD16C08091E8008E778093E800E11413
:10476000F10449F0F70180819181C80ED91ED182F0
:10477000C08285E00FC00E943125882321F30AC042
:1047800089918093F10001501109FFEFCF1ADF0AE0
:10479000DACF80E0DF91CF911F910F91FF90EF90E2
:1047A000DF90CF900895CF92DF92EF92FF920F9318
:1047B0001F93CF93DF93EC018B017A010E94312587
:1047C000811133C0E114F10439F0F7018081918146
:1047D000081B190BC80FD91FC12CD12C01151105AD
:1047E00019F18091E80085FD16C08091E8008B7773
:1047F0008093E800E114F10449F0F7018081918190
:10480000C80ED91ED182C08285E00FC00E9431251A
:10481000882321F30AC08091F10089930150110986
:10482000FFEFCF1ADF0ADACF80E0DF91CF911F913F
:104830000F91FF90EF90DF90CF900895209192021A
:10484000309193022617370748F06115710539F446
:104850002091E8002E772093E80001C0B901FC0107
:1048600020E06115710579F180918B028823F1F1C7
:104870008530F1F18091E80083FD3CC08091E80033
:1048800082FD2EC08091E80080FFEBCF2091F300E5
:104890008091F20090E0922B6115710551F0883003
:1048A000910538F421912093F1006150710901962E
:1048B000F3CF21E0089709F020E08091E8008E779F
:1048C0008093E800CECF2111CFCF0AC080918B0218
:1048D000882361F0853061F08091E80083FD0AC093
:1048E0008091E80082FFF2CF80E0089582E0089591
:1048F00083E0089581E0089520919202309193021F
:104900002617370748F06115710539F42091E80042
:104910002E772093E80001C0B901FC0120E0611569
:10492000710591F180918B02882309F440C0853094
:1049300009F43FC08091E80083FD3DC08091E8000C
:1049400082FD2FC08091E80080FFE9CF2091F30025
:104950008091F20090E0922B6115710559F088303A
:10496000910540F424912093F10031966150710932
:104970000196F2CF21E0089709F020E08091E8004D
:104980008E778093E800CBCF2111CCCF0AC08091E5
:104990008B02882361F0853061F08091E80083FD0F
:1049A0000AC08091E80082FFF2CF80E0089582E0A3
:1049B000089583E0089581E00895982F973068F571
:1049C0009093E900981739F07091EC002091ED0078
:1049D0005091F00003C0242F762F50E021FD02C03B
:1049E0009F5FECCF3091EB003E7F3093EB00309136
:1049F000ED003D7F3093ED003091EB00316030935E
:104A0000EB007093EC002093ED005093F0002091A8
:104A1000EE0027FDE5CF80E008958F708093E900D8
:104A200081E0089580918C0287FF11C08091E80099
:104A300082FD05C080918B028111F8CF11C0809159
:104A4000E8008B770BC080918B02882349F080911E
:104A5000E80080FFF8CF8091E8008E778093E8002F
:104A600008952091E4003091E50095E64091EC0036
:104A7000842F817040FF23C08091E80080FD1DC01D
:104A800080918B02882399F0853099F08091EB001A
:104A900085FD11C04091E4005091E50024173507D1
:104AA00029F3915011F09A01E1CF84E0089582E05A
:104AB000089583E0089581E0089580E0089540918D
:104AC000E80042FFDDCF08950E94D2250E94DA253A
:104AD000E0EEF0E0808181608083E8EDF0E08081AD
:104AE0008F77808319BCA7EDB0E08C918E7F8C937B
:104AF00080818F7E808310928A0208950F931F9386
:104B0000CF93DF930E94D2250E94DA25C8EDD0E032
:104B100088818F77888388818068888388818F7D6A
:104B2000888319BC10928B0210928702109289021E
:104B30001092880200EE10E0F80180818B7F808364
:104B400088818160888342E060E080E00E94DD240B
:104B5000E1EEF0E080818E7F8083E2EEF0E0808104
:104B600081608083808188608083F80180818E7F6E
:104B70008083888180618883DF91CF911F910F911D
:104B80000895E8EDF0E080818F7E8083E7EDF0E02E
:104B900080818160808384E082BF81E080938A028B
:104BA0000C947E25E8EDF0E080818E7F808310926A
:104BB000E20008951092DA001092E10008951F9229
:104BC0000F920FB60F9211242F933F934F935F9341
:104BD0006F937F938F939F93AF93BF93EF93FF93C5
:104BE0008091E10082FF0BC08091E20082FF07C04C
:104BF0008091E1008B7F8093E1000E945528809195
:104C0000DA0080FF1FC08091D80080FF1BC0809118
:104C1000DA008E7F8093DA008091D90080FF0DC08A
:104C200080E189BD82E189BD09B400FEFDCF81E04C
:104C300080938B020E94B42105C019BC10928B0294
:104C40000E94C2218091E10080FF19C08091E200A2
:104C500080FF15C08091E2008E7F8093E2008091FA
:104C6000E20080618093E2008091D80080628093AE
:104C7000D80019BC85E080938B020E94C6218091E8
:104C8000E10084FF30C08091E20084FF2CC080E10D
:104C900089BD82E189BD09B400FEFDCF8091D800B5
:104CA0008F7D8093D8008091E1008F7E8093E1001A
:104CB0008091E2008F7E8093E2008091E20081602B
:104CC0008093E20080918702882311F084E007C07E
:104CD0008091E30087FD02C081E001C083E0809302
:104CE0008B020E94C7218091E10083FF29C080913F
:104CF000E20083FF25C08091E100877F8093E1007F
:104D000082E080938B02109287028091E1008E7F77
:104D10008093E1008091E2008E7F8093E200809199
:104D2000E20080618093E20042E060E080E00E9467
:104D3000DD248091F00088608093F0000E94C521FE
:104D4000FF91EF91BF91AF919F918F917F916F9163
:104D50005F914F913F912F910F900FBE0F901F9039
:104D600018951F920F920FB60F9211242F933F9315
:104D70004F935F936F937F938F939F93AF93BF9363
:104D8000CF93DF93EF93FF93C091E900CF708091B1
:104D9000EC00D82FD17080FDD0E81092E90080910E
:104DA000F000877F8093F00078940E94F52610929F
:104DB000E9008091F00088608093F000CD2BCF70E7
:104DC000C093E900FF91EF91DF91CF91BF91AF9137
:104DD0009F918F917F916F915F914F913F912F9113
:104DE0000F900FBE0F901F9018951F93CF93DF93D6
:104DF000CDB7DEB7AA970FB6F894DEBF0FBECDBF12
:104E0000ECE8F2E08091F100819322E0E439F207CE
:104E1000C9F70E94DC218091E80083FF2EC18091B8
:104E20008C0290918D02492F50E04A30510508F0D4
:104E300024C1FA01ED57FF4F0C949728803821F0D8
:104E4000823809F01AC108C08091880290918902C5
:104E5000992389F082600FC0809190028F70873013
:104E600008F00BC18093E9008091EB0085FB882757
:104E700080F91092E9009091E800977F9093E80004
:104E80008093F1001092F100D1C0282F2D7F09F0FE
:104E9000F4C0882319F0823061F0EFC080918E0257
:104EA000813009F0EAC0933009F080E080938902F4
:104EB0002EC080918E0281112AC0809190028F7045
:104EC0002FEF280F263008F0D8C08093E9002091FA
:104ED000EB0020FF1CC0933021F48091EB00806236
:104EE00014C09091EB0090619093EB0021E030E0D2
:104EF000A90102C0440F551F8A95E2F74093EA00CA
:104F00001092EA008091EB0088608093EB00109291
:104F1000E9008091E800877F8093E8000E941225D5
:104F2000ACC08111AAC010918E021F778091E3005E
:104F30008078812B8093E3008091E800877F8093C5
:104F4000E8000E9412258091E80080FFFCCF80914C
:104F5000E30080688093E300111102C082E001C089
:104F600083E080938B0289C08058823008F085C02E
:104F700080918E0290918F028C3D53E0950779F5D8
:104F800083E08A838AE289834FB7F894DE0113961F
:104F900020E03EE051E2E32FF0E050935700E4912F
:104FA00020FF03C0E295EF703F5FEF708E2F90E01F
:104FB000EA3010F0C79601C0C0968D939D932F5F85
:104FC000243149F74FBF8091E800877F8093E80044
:104FD0006AE270E0CE0101960E941E2416C0609124
:104FE000900270919102AE014F5F5F4F0E941A23B1
:104FF000BC01892B09F441C09091E800977F909300
:10500000E80089819A810E947C248091E8008B7756
:105010008093E80032C0803881F58091E800877F76
:105020008093E800809187028093F1008091E800EE
:105030008E7772CF811121C080918E0290918F0264
:1050400099270297D4F48091E800877F8093E80045
:1050500080918E02809387020E94122580918702A0
:10506000811106C08091E30087FD02C081E001C08C
:1050700084E080938B020E94C8218091E80083FF26
:105080000AC08091E800877F8093E8008091EB0060
:1050900080628093EB00AA960FB6F894DEBF0FBE35
:1050A000CDBFDF91CF911F9108950895CF93809147
:1050B0008B028823A1F0C091E900CF709091EC00A1
:1050C000892F817090FD80E8C82B1092E9008091B3
:1050D000E80083FD0E94F526CF70C093E900CF91D0
:1050E00008950E94642510928B020895E8EDF0E087
:1050F0008081806180838AE18A95F1F700C0809188
:10510000D9008170089597FB072E16F4009407D0FC
:1051100077FD09D00E94A42807FC05D03EF49095A5
:1051200081959F4F0895709561957F4F0895EE0F7B
:10513000FF1F0590F491E02D0994692796276927B0
:105140007827872778270895AA1BBB1B51E107C042
:10515000AA1FBB1FA617B70710F0A61BB70B881F07
:10516000991F5A95A9F780959095BC01CD01089596
:10517000FB01DC0104C08D910190801921F44150A4
:105180005040C8F7881B990B0895FB01DC0102C051
:1051900001900D9241505040D8F70895F999FECFF3
:1051A00092BD81BDF89A992780B50895A8E1B0E035
:1051B00042E050E00C940229262FF999FECF92BDCF
:1051C00081BDF89A019700B4021639F01FBA20BDCC
:1051D0000FB6F894FA9AF99A0FBE08950396272FFE
:1051E0000E94DD280E94DC28252F0E94DD28242F24
:1051F0000C94DD280196272F0E94DD280C94DC28D2
:10520000DC01CB01FC01F999FECF06C0F2BDE1BD86
:10521000F89A319600B40D9241505040B8F7089575
:04522000F894FFCF30
:105224000702017E0200000001000000007E02006F
:10523400000004010000007E0204050000000000DC
:10524400002808641E140A321E0C21602141213DED
:1052540021392101E200E900EA00B500B600B700F7
:10526400CD008301CC008A01920194012102230222
:1052740024022502260227022A02B300B4006F008A
:105284007000818283E200E900EA00B500B600B74D
:1052940000CD008301CC008A0192019401210223F4
:1052A4000224022502260227022A02B300B4006F58
:1052B4000070008182833331F7F6F5F4946697C663
:1052C400000000002B0240227B7804DB03FD0380F6
:0652D400039903B9030079
:00000001FF
