:100000000C94B9030C94FD030C9418040C94FD0398
:100010000C94FD030C94FD030C94FD030C94FD0360
:100020000C94FD030C94FD030C94401E0C94FD03F2
:100030000C94FD030C94FD030C94FD030C94FD0340
:100040000C94FD030C94FD030C94FD030C94FD0330
:100050000C94FD03270B270B610B610BBA0BD50C1E
:10006000D50CD50CD60B4A0C5B0C5B0CD90FDC0FF6
:1000700006101810231048104B10A410E010971110
:100080009711EF10F110F6101F11451148114C1186
:100090007311AC22AC22BF22BF22B522BF22BF22E5
:1000A000BF22AC22AC22BA22BF22BF22BA22000059
:1000B0000000000000000000000000000000000040
:1000C0000000000000000000000000000000000030
:1000D00000007E0F00D4FFFFFFC700000078000083
:1000E0000000000000002A2B280000000000000093
:1000F00000000000000000000029000000002C1E8D
:100100003420212224342627252E362D3738271E49
:100110001F202122232425263333362E37381F046F
:1001200005060708090A0B0C0D0E0F101112131407
:1001300015161718191A1B1C1D2F3130232D3504C5
:1001400005060708090A0B0C0D0E0F1011121314E7
:1001500015161718191A1B1C1D2F3130354C0004A9
:100160007F3F1F643214643214783C1E1E140A054B
:10017000FFAA7F55402223252628292A2C2D2F30FF
:1001800032333536383A3B3D3E4042434547494A93
:100190004C4E5051535557595A5C5E6062646668C4
:1001A000696B6D6F71737577797B7D7F81838587CF
:1001B000898A8C8E90929496989A9C9E9FA1A3A5D2
:1001C000A7A8AAACAEAFB1B3B4B6B8B9BBBCBEBFFA
:1001D000C1C2C3C5C6C7C9CACBCCCDCED0D1D2D27D
:1001E000D3D4D5D6D7D7D8D9D9DADADBDBDBDCDC88
:1001F000DCDCDCDDDDDDDDDCDCDCDCDCDBDBDBDA40
:10020000DAD9D9D8D7D7D6D5D4D3D2D2D1D0CECDAA
:10021000CCCBCAC9C7C6C5C3C2C1BFBEBCBBB9B8B7
:10022000B6B4B3B1AFAEACAAA8A7A5A3A19F9E9C3C
:100230009A98969492908E8C8A89878583817F7D07
:100240007B79777573716F6D6B6968666462605EE8
:100250005C5A5957555351504E4C4A4947454342B1
:10026000403E3D3B3A3836353332302F2D2C2A294B
:100270002826252322E000E200E300000000000021
:100280000000000000000000000000E600E4004C58
:10029000004B00E1001D001B0006001900050000D6
:1002A000000000000000003800E500000046004AA1
:1002B00000005104001600070009000A00000000B9
:1002C000000000000033003400000028004D002B27
:1002D0000014001A000800150017000000000000BC
:1002E00000000013002F0030003100000035001E18
:1002F000001F00200021002200000000000000007C
:100300000027002D002E0000002A00290000003ADE
:10031000003B003C003D0000000000000000000029
:100320000042004300440045003E0023001C000B37
:100330000011002C005000510052004F003F0024DB
:100340000018000D0010004100260012000F0037B9
:1003500000E70049004E0000000000400025000CAE
:10036000000E003600010001000100000000000046
:100370000000000000000000000000010001004C2F
:100380000001000100010001000100010001000066
:100390000000000000000001000100000001000159
:1003A0000001000100010001000100010000000047
:1003B000000000000001000100000001004D0001EC
:1003C0000001000100010001000100000000000028
:1003D0000000000100010001000100000001000117
:1003E0000001000100010001000000000000000009
:1003F000000100010001000000010001000000C236
:100400005CC35CC55CC75C0000000000000000002D
:10041000000100010001000100C95C0100010001B0
:1004200000010001000100010001004F00C65C0155
:1004300000010001000100CA5C010001000100018F
:100440000001004900010000000000C85C0100013B
:100450000001000100010001000100000000000097
:100460000000000000000000000000010001004C3E
:100470000001000100010001000100010001000075
:100480000000000000000001000100000001000168
:100490000001000100010001000100010000000056
:1004A000000000000001000100000001004D0001FB
:1004B0000001000100010001000100000000000037
:1004C0000000000100010001000100000001000126
:1004D0000001000100010001000000000000000018
:1004E0000001000100010000000100010000000106
:1004F00000010001000100000000000000000000F9
:1005000000010001000100010001000100010001E3
:1005100000010001000100010001004F0001000185
:1005200000010001000100010001000100010001C3
:10053000000100490001000000000001000100016D
:10054000000100010005010980A101850319012AAC
:10055000B700150126B700950175108100C0050C84
:100560000901A101850419012AA002150126A00292
:10057000950175108100C00660FF0961A101096243
:10058000150026FF009520750881020963150026D5
:10059000FF00952075089102C005010906A101051B
:1005A0000719E029E71500250195087501810295D5
:1005B00001750881030507190029FF150026FF00B2
:1005C000950675088100050819012905950575012D
:1005D0009102950175039103C00E0342002E006D38
:1005E0000069006E00690000001603570069006E84
:1005F000006B00650079006C0065007300730000FB
:10060000000403090409025B00030100A0FA0904C5
:100610000000010301010009210101000122400045
:10062000070581030800010904010002030000001E
:1006300009210101000122220007058403080001AD
:10064000070504030800010904020001030000007B
:10065000092101010001223200070583030800017E
:100660001201100100000008A0204D42000201020A
:100670000001000101010101010101010202020268
:10068000020202020203030303030303030404043C
:100690000404040405050505050606060606070705
:1006A00007070708080808090909090A0A0A0B0BBD
:1006B0000B0C0C0C0D0D0D0E0E0E0F0F0F1010115C
:1006C00011111212131314141515161617171818E2
:1006D00019191A1A1B1B1C1D1D1E1E1F202021224A
:1006E00022232424252626272829292A2B2C2D2D90
:1006F0002E2F30313232333435363738393A3B3CAD
:100700003D3E3F404142434445464748494A4C4D9F
:100710004E4F50515354555658595A5B5D5E5F6168
:100720006264656668696B6C6D6F707273757778FB
:100730007A7B7D7E8082838587888A8C8E8F919359
:100740009596989A9C9EA0A2A3A5A7A9ABADAFB180
:10075000B3B5B7BABCBEC0C2C4C6C9CBCDCFD1D465
:10076000D6D8DBDDDFE2E4E7E9EBEEF0F3F5F8FA0B
:10077000FDFF11241FBECFE5D8E0DEBFCDBF04B61C
:1007800003FE24C08091F0029091F102A091F20248
:10079000B091F3028730904BA740B04BB9F4109260
:1007A000F0021092F1021092F2021092F30214BEC3
:1007B00084B7877F84BF0FB6F894A89581B5886108
:1007C00081BD11BC0FBEE0E0F8E3099510E0A0E6A2
:1007D000B0E0E0E4FBE402C005900D92A83EB10752
:1007E000D9F722E0A8EEB0E001C01D92A03FB20709
:1007F000E1F70E94550D0C949E250C940000A82F43
:10080000B92F80E090E041E050EA609530E009C007
:100810002D9182279795879510F084279527305E34
:10082000C8F36F5FA8F30895EADF8D939D93089551
:10083000CF93CFB7CF93C395839BE9F7839B0EC02C
:10084000839B0CC0839B0AC0839B08C0839B06C00C
:10085000C091A502C395C093A502A6C0DF93C09125
:10086000CB02DD27C253DD4F839B02C0DF91E6CF71
:100870002F930F931F9300B32FEF03FB20F94F9398
:100880003F9310B34FEF012703FB21F93BE031C049
:100890004E7F012F10B3216028C0102F4D7F2260A2
:1008A000000000B329C04B7F2460012F000010B36B
:1008B0002BC010B3477F28602AC04F7E00B3206151
:1008C0002CC04F7D10B320622FC04F7B00B320643B
:1008D00032C0422700B349934FEF0000102713FBAB
:1008E00020F910B31C70C9F1297F91F2012703FB95
:1008F00021F900B3237F89F2315058F1102713FBFF
:1009000022F910B3277E79F2012703FB23F92F7C0C
:1009100081F200B3102713FB24F92F7971F200C084
:1009200010B3012703FB25F92F7359F200C000B360
:10093000102713FB26F9223040F200C010B3012724
:1009400003FB27F9243028F64F77206810B3000006
:10095000F9CF10E81ABF00271CC03B503195C31BCC
:10096000D04010E81ABF0881033C11F10B3401F1AB
:100970002091C9021981110F1213EDCF4A81441F32
:10098000093669F10D3211F0013E29F74F7009F077
:10099000042F0093A4023F914F911F910F912F912B
:1009A000DF91CAB7C7FD47CFCF91CFBFCF91189581
:1009B0002091A402222379F31091CC02112309F093
:1009C00044C034300AF443C03093CC022093CA02AE
:1009D0001091CB023BE0311B3093CB0238C0009129
:1009E000CC02013094F50AE54F7049F430916E0065
:1009F00034FD2FC000936E00C6EAD2E02EC0433013
:100A000059F0443091F03091B10234FD22C000938E
:100A1000B102C2EBD2E021C03091E40234FD19C032
:100A20000093E402C5EED2E018C03091BD0234FD5F
:100A300010C00093BD02CEEBD2E00FC02795A8F402
:100A40005150A9F4220F0000F9CF4AE503C042ED4E
:100A500001C0432FC4E1D0E032E011B31C60939A8F
:100A600011BB02B320E41CE05F93012756E002BBF8
:100A7000279520F4515021F4220FF9CF012756E099
:100A800000003B5A02BBD0F2279528F4515029F4BC
:100A9000220F0000F9CF012756E0279502BB20F472
:100AA000515021F4220FF9CF012756E02991332329
:100AB00002BB21F6037F1091CD02110FC651D04029
:100AC00002BB11F01093C90210E81ABF086011B3FD
:100AD000137F402F437F5F9100C000C002BB11BB5A
:100AE00042BB59CF1F93CF93DF93CDB7DEB7679744
:100AF0000FB6F894DEBF0FBECDBF4B8B5C8B6D8BFA
:100B00007E8B8F8B61111092630186E09E01235FC3
:100B10003F4FD901E82F1D92EA95E9F795E0FE01D4
:100B20007396D90101900D929A95E1F79C894E89AF
:100B30005F897B897D879E876F87598B488BF901F9
:100B4000DE01179601900D928A95E1F7CE01079686
:100B50000E943F1581113EC086E0FE013796DE01FE
:100B6000119601900D928A95E1F7FF81E8856A85DB
:100B70007B856115710531F0EF3F31F481E0FF3F76
:100B800019F403C081E001C080E080FD23C0209102
:100B90002F0130E0C90101968770992740916001CB
:100BA00050E08417950779F1F983EA837D836C839C
:100BB00096E0929FD001939FB00D1124A05DBE4F8F
:100BC000FE01319601900D929A95E1F780932F01E5
:100BD0000E94BC1416E08091600190912F0189174A
:100BE000F9F0189FC0011124805D9E4F0E943F15AF
:100BF0008823B1F08091600190E001968770992779
:100C000080936001E8CF0E94C32210922F011092BE
:100C10006001E9E2F1E086E0DF011D928A95E9F7E3
:100C200067960FB6F894DEBF0FBECDBFDF91CF91B0
:100C30001F91089581FB222720F982FB992790F9C3
:100C400080FF02C0909A01C09098222311F0919ADF
:100C500001C09198992311F0969A08959698089555
:100C60003F924F925F926F927F928F929F92AF923C
:100C7000BF92CF92DF92EF92FF920F931F93CF9389
:100C8000DF93CDB7DEB729970FB6F894DEBF0FBE5E
:100C9000CDBFFC018081918123813481232B31F0F0
:100CA0009F3F31F491E08F3F19F403C091E001C000
:100CB00090E090FDE2C67F0185E0DE011196019093
:100CC0000D928A95E1F7F701228189819A81222389
:100CD00049F00E94F221182F682F89819A810E9481
:100CE0004D2203C00E942122182F69817A81812F11
:100CF0000E94611F8C01F7018281882309F4F2C0F0
:100D0000980122513F452031310508F019C18FEF7C
:100D100093E00E94AC248111EFC0025137EF832E83
:100D200032E0932E002379F08114F4E09F0609F459
:100D3000E3C0C4010E94AC24811101C001502FEF17
:100D4000821A920AEFCF1E821F82188619864424C7
:100D500043942AE0322E84010F5F1F4FC4010E948A
:100D6000AC248E831F82882309F4C6C09FEF980F9E
:100D7000933060F48F834E8232E0830E911CC80161
:100D80000E94AC248887811102C0B6C048018E0140
:100D90000A5F1F4FF80120812223E9F2213009F078
:100DA0004CC08181813049F46801F2E0CF0ED11C42
:100DB000F80182810E94A1230AC0823051F46801A7
:100DC000F2E0CF0ED11CF80182810E941B23860124
:100DD00086C0833049F46801F2E0CF0ED11CF801DF
:100DE00082810E94E322F3CF843019F00F5F1F4FFE
:100DF00076C0F80122810E5F1F4F80E090E030E066
:100E0000205331092A30310568F4389EA001399EFB
:100E1000500D1124C901840F951F0F5F1F4FF8015A
:100E20002081EDCF009709F45AC0E7EBFBE0319742
:100E3000F1F700C000000197F5CFE22FF0E0E25299
:100E4000FF4F5490822F86958695869590E0FC0101
:100E5000E253FF4F64902770712C022E02C07594EC
:100E600067940A94E2F7F1E06F227724FC01E254E0
:100E7000FF4FA490B12C022E02C0B594A7940A94FF
:100E8000E2F731E0A322BB24FC01E255FF4FC490FE
:100E9000D12C02C0D594C7942A95E2F781E0C822EC
:100EA000DD246114710419F081EE0E941B23A1144A
:100EB000B10419F086EE0E941B23852D0E94A12308
:100EC000AB2819F086EE0E94E322672819F081EE24
:100ED0000E94E322CD2819F08CE20E94A1230F5F2B
:100EE0001F4F58CF0031EFE51E0709F0BDC581E067
:100EF0000E947C220E941D1C80916101877009F470
:100F0000BCC5F7018281882309F4B7C582E0299620
:100F10000FB6F894DEBF0FBECDBFDF91CF911F910A
:100F20000F91FF90EF90DF90CF90BF90AF909F9088
:100F30008F907F906F905F904F903F900C949F1494
:100F400000313FE5130711F481E005C001319FE551
:100F5000190721F482E00E948822CCCF0D3BFCE5EA
:100F60001F0781F48091A501982F969596959695E7
:100F7000C9F1915E990F990F990F8770892B809312
:100F8000A50124C00E3B2CE5120708F43EC00F3B20
:100F9000ECE51E0769F108F44AC5003C2CE5120790
:100FA00009F045C09091A501892F86958695869573
:100FB0008F5F8F71843008F053C5880F880F880FBA
:100FC0009770892B8093A5018091A501887F91E07E
:100FD00009F490E08091A50190FB80F98093A50130
:100FE0000E949B188091A5018695869586950AC0DA
:100FF0008091A50180FF10C58E7F8093A5010E947E
:101000009B1880E00E943C1877CF0B3B3CE5130710
:1010100011F483E005C00C3B9CE5190741F480E026
:101020000E94A0188091A5010E949B1865CF033FE4
:10103000FCE51F0799F406E221EE40EE63EF7CE544
:1010400009C0073DECE51E0711F506E221EE41EE71
:1010500067ED7CE5C7010E94DE1E4ECF043F2CE504
:10106000120708F046C1083D3CE5130731F407E2DA
:1010700025EE45EE68ED7CE5EDCF093D9CE51907D1
:1010800001F708E221E045EE69ED7CE5E3CF882336
:1010900009F464C11092A80103309DE5190758F4C2
:1010A0000A3FECE51E0760F4C80182509C45449756
:1010B00008F03EC105C00136FDE51F0709F038C143
:1010C0000E94CC139093EC008093EB0000312CE550
:1010D000120709F4CAC008F041C008308CE51807AF
:1010E00009F4A4C0F0F40430ECE51E0709F48CC048
:1010F00068F402302CE5120709F482C003301C4565
:1011000009F0E7C08091EB008260E1C006308CE519
:10111000180709F483C008F085C08091EB0088604F
:10112000D6C00C30ECE51E0709F490C068F40A3014
:101130002CE5120709F47EC008F084C00E94C32287
:101140008091EB008068C3C00E308CE5180709F46D
:1011500081C008F086C08091EB0094C00C3FECE5A4
:101160001E0709F47BC038F504312CE5120709F499
:101170009AC058F402318CE5180709F47AC008F0D7
:101180007EC08091EB008F7BA2C00A3FECE51E077A
:10119000F1F108F03FC005311C4509F09AC080917B
:1011A000EB0082FB222720F991E0922790FB82F945
:1011B00090FB83F98CC001153DE5130709F467C066
:1011C00050F48091EC000E3F9CE51907C1F108F046
:1011D0005BC08D7F65C00230FDE51F0709F471C05B
:1011E00008F46DC001361D4509F073C08091EB0015
:1011F00084FB222720F991E0922790FB84F967C0B5
:101200008091EB00816063C08091EB0016C08091FB
:10121000EC0016C08091EC00826042C08091EB002F
:10122000806155C08091EB00806251C08091EB00DD
:1012300080644DC08091EB008860846048C082600B
:1012400081602EC08091EB008E7F41C08091EB00C9
:101250008D7F3DC08091EB00877F39C08091EC008D
:1012600014C08091EB008F7E32C08091EB008F7DA7
:101270002EC00E94C3228091EB008F7728C08091FE
:10128000EB00877F8B7F23C08D7F8E7F09C080918D
:10129000EC00982F909591708E7F892B90FB81F9AF
:1012A0008093EC0016C00E94C3228091EB0087FB64
:1012B000222720F991E0922790FB87F908C061E08E
:1012C00001C060E08EE090E00E94C02402C08093E4
:1012D000EB006091EB001091EC0084E090E00E9444
:1012E000C024612F82E290E00E94C0240E94C322A9
:1012F00003CE053FFCE51F0731F406E221EE42EE86
:1013000065EF7CE5A7CE053F2CE5120730F407E238
:1013100025EE44EE64EF7CE59DCE063F3CE51307E9
:1013200009F0B5CE07E225EE46EE66EF7CE592CEFB
:101330008091640106319CE5190741F58A7A91E0B4
:1013400009F490E09093EA00882311F065E301C06E
:1013500069E281E291E00E948C1E15C006311C45B5
:1013600009F02DC18091EA00882309F484C385E344
:10137000E1E2F1E09281891301C01282319691E09D
:10138000E732F907B9F70E945814B6CD82720C3CC7
:10139000ECE51E0709F4C2C008F045C0063C2CE588
:1013A000120709F4A7C0D8F4033C9CE5190709F417
:1013B00097C030F4023CFCE51F0709F46CC0CEC0B6
:1013C000043C2CE5120709F490C0053C3CE51307EA
:1013D00009F0C4C042ED5FE16BED7FE1A3C0093CC1
:1013E0009CE5190709F490C078F4073CFCE51F0759
:1013F00009F485C0083C2CE5120709F0AFC046ECA3
:101400005FE16AEB7FE18EC00A3C3CE5130709F41B
:1014100080C00B3C9CE5190709F0A0C049E050E2F0
:101420006AE170E27FC0013DECE51E0709F486C069
:10143000A0F40E3C2CE5120709F47AC008F475C03C
:101440000F3C8CE5180709F476C0003D9CE51907B0
:1014500009F084C06EE089E079C0043DECE51E0728
:1014600009F472C068F4023D2CE5120709F469C062
:10147000033D3CE5130709F071C061E088E16BC0F2
:10148000053D8CE5180709F464C00D359DE5190785
:1014900009F432CD63C08091A00180FF1BC08E7F14
:1014A0008093A0016091A0017091A1018091A2019F
:1014B0009091A3010E94F71F10926B01EFEBF4EDE6
:1014C00021E0E150F0402040E1F700C000000E9420
:1014D000FC1812CD81608093A00161E086953BC02D
:1014E00041ED51E26AED71E21DC04AED51E261ED5C
:1014F00071E218C04BED5FE162ED7FE113C04AEB92
:101500005FE166EC7FE10EC042EA5FE16EEA7FE1F7
:1015100009C04EEA5FE162EA7FE104C04AE150E2BD
:1015200069E070E20E94F618E7CC61E081E013C048
:1015300065E082E00BC068E086E008C064E18FE00F
:1015400005C067E185E102C062E289E10E94E4181A
:10155000D3CC61E083E20E948F21CECC0A353DE5F9
:10156000130741F150F401159CE51907A9F00E3D50
:101570001C4529F50E94E813BFCC0B35FDE51F077C
:10158000D9F00C351D45D9F48091EC0082FB8827F9
:1015900080F991E0892711C00E94C3223FEB87E2C6
:1015A00099E0315080409040E1F700C000000E9477
:1015B000271EA2CC81E001C080E00E948514F701C3
:1015C000828100811181882349F0C8010E94F221A3
:1015D000D82E682FC8010E944D2204C0C8010E9465
:1015E0002122D82EB8018D2D0E94611F0E94431226
:1015F0008C01982EF701B280A580A2949FE0A922C9
:1016000080916101877099F0BB2089F0812F807FE4
:10161000803421F080E2800F883048F082E00E9420
:101620009F14809161018770DD24D3948111D12CA6
:10163000C12EC2948FE0C8228C2D90E08C30910591
:1016400008F0B3C1FC01E65DFF4F0C946825812FC3
:10165000807F1F70882311F01295107FBB20B9F096
:10166000112309F48EC180E2800F883010F09110B0
:1016700006C080916401182B1093640105C080910D
:101680006301182B109363010E9458147AC1802FB4
:101690000E94E322112309F488C1005E10950830EE
:1016A00010F0911006C0809164011823109364011A
:1016B00005C0809163011823109363010E945814A0
:1016C00074C1812F807F1F70803211F01295107FBE
:1016D000992021F0F1E09F1611F130C0BB20B1F04C
:1016E000AA2081F021E0A2120DC08091EC0082FDC1
:1016F0005CC180916501182B181709F456C110932D
:10170000650153C180916501812B10C0AA2021F091
:1017100031E0A31609F449C10E94521427C0BB202E
:1017200041F085E08A1508F440C1812F0E94D9223A
:101730003CC194E09A1508F438C118C0BB2049F0A8
:10174000AA2099F3F701858180FF1BC18F708583E3
:10175000ECCFAA2059F0093309F024C1FFEF2DEE98
:1017600032E0F15020403040E1F71AC1812F0E9451
:10177000CE221BC1812F86958695837019F081300A
:1017800059F013C1BB2019F0C801937002C080E06A
:1017900090E00E94BC1E11C1BB2019F0C8019370DB
:1017A00002C080E090E00E94A61E07C1812F8370D6
:1017B000A9F5B110FEC0402F429546954770440FE1
:1017C000440F802F8F7090E09C01042E01C0220FE7
:1017D0000A94EAF704FF08C08FE090E001C0880F88
:1017E0004A95EAF7809501C080E01695169513702A
:1017F000123069F088F490916601113019F0822B53
:10180000892302C0922B892B0E949322D2C0822B63
:10181000909166018927F8CF822BF6CFBB2019F073
:10182000812F817001C08695882309F4C2C0402FA2
:10183000429546954770440F440F802F8F7090E07B
:101840009C01042E01C0220F0A94EAF704FF08C08D
:101850008FE090E001C0880F4A95EAF7809501C0BB
:1018600080E0169516951370123059F078F4909127
:101870006E02113019F0822B892309C0922B892B1B
:1018800006C0822B90916E02892701C0822B0E9494
:1018900078228FC01F70BB2039F0812F0E948822D0
:1018A000802F0E94D92285C0802F0E94CE22812FB6
:1018B0000E947C227EC0802F92EF991659F19915D3
:1018C00038F0E0EF9E1659F0F1EF9F16F1F055C099
:1018D00023EF921631F134EF931681F14EC0BB2005
:1018E00079F084E08A1508F460C01F7181E090E00F
:1018F00001C0880F1A95EAF790916E0289271BC0E4
:1019000095E09A1508F451C0F0CFBB2029F0812F43
:101910008F7126C0BB20D9F3812F8F710E947C224A
:1019200044C0BB2039F01F7181E001C0880F1A95B7
:10193000EAF701C080E00E94782237C0BB2099F00E
:101940001F71812F0E9488228091EC0082FD07C0C8
:10195000E8E01E9FC0011124836080936101812F04
:101960000E94882222C081E00E949F14F1E0FA15B3
:10197000E0F482E00E949F1418C0BB2031F0AA203E
:1019800031F2802F0E941B2310C0AA2029F2893334
:1019900049F42FEF3DEE82E0215030408040E1F7E6
:1019A00000C00000802F0E94E32288EF8C0D84305D
:1019B00020F40E94D21E0E941A06DD2009F45DC0A8
:1019C0008091610180FD59C0F7011282859585954E
:1019D00085950E948822C7010E943006809161018E
:1019E00085958595859529960FB6F894DEBF0FBE2F
:1019F000CDBFDF91CF911F910F91FF90EF90DF90BE
:101A0000CF90BF90AF909F908F907F906F905F909E
:101A10004F903F900C947C2281608093A50181308F
:101A200019F489E08093A5018091A501D9CA20917C
:101A3000A501822F869586958695482F50E04330E4
:101A4000510554F48F5F982F990F990F990F822F9A
:101A50008770892B8093A5018091A5018160BECA02
:101A600097709093A501B0CA0131FFE51F0709F0F7
:101A7000DECA82E03DCA89E27BCC29960FB6F89493
:101A8000DEBF0FBECDBFDF91CF911F910F91FF90B1
:101A9000EF90DF90CF90BF90AF909F908F907F900E
:101AA0006F905F904F903F900895CF93DF93CDB7A5
:101AB000DEB72A970FB6F894DEBF0FBECDBF0E94E7
:101AC000751E9093200180931F0184B7806884BFA6
:101AD00084B7806884BF87EE91E19093E90080939A
:101AE000E80085B7886085BF8BB780688BBF8BE4C3
:101AF0008093B2028093E5028093BE028AE58093D0
:101B0000B1028093E4028093BD028B9A80E0815001
:101B100041F0A895E7EBFBE03197F1F700C000003A
:101B2000F6CF8B9878948BE083BF8BEB8CBF82E0F1
:101B300089BF0E942318811102C00E9414180AE76D
:101B400010E0A2E8EA2EA0E0FA2EF80181918F01C0
:101B50008F3F11F00E942C12E016F106B1F702E857
:101B600010E0F1E9EF2EF0E0FF2EF80181918F01F6
:101B70008F3F11F00E942C12E016F106B1F7EDEE46
:101B8000F0E08DEF90E0AFE0B1E0119211921D9284
:101B90001D928E179F07C9F70E94DD13811102C0A5
:101BA0000E94E81382E090E00E94AC2480937002CF
:101BB0000E94CC139093EC008093EB000E94E016FF
:101BC000FFE329E131E0F15020403040E1F700C06F
:101BD00000000E94E01680910F0180FF08C06FEFA7
:101BE0007FEF80E090E00E94DD240E94271E83E0CA
:101BF00090E00E94AC240E949322889A9098899A3F
:101C000091988E9A96988C9A949882E28FBD89E1E9
:101C10008EBD8FEF9FEF97BD86BD0E94B9180E94C1
:101C2000B9188091FD00811133C00E94DD1381112C
:101C300004C00E94E8130E942B2088E090E00E94DC
:101C4000B4246093A0017093A1018093A2019093AA
:101C5000A3016E7F71F40E942B2088E090E00E9427
:101C6000B4246093A0017093A1018093A20190938A
:101C7000A3010E94E41F10926B018091A00180FFDC
:101C800004C060E086950E948F2181E08093FD0072
:101C900080E690E09093AC018093AB014FEB84ED34
:101CA00091E0415080409040E1F700C0000053E0D7
:101CB000452E512C66246A94712C7CE4E72E72E048
:101CC000F72EEEE5CE2EE1E0DE2E8091A5028823F0
:101CD000B9F01092A5020E94751E90932001809386
:101CE0001F018091AF018823A1F11092AF010E94E2
:101CF000C3220E94B9180E94D21E0E941A0611C067
:101D00008091AF01811111C080911F01909120013C
:101D10000E94661E069728F081E08093AF010E9422
:101D2000811E8091AF018823A1F081E08093AF01F3
:101D30000E94811E0E94E0168FE191E0EFE0F1E049
:101D400021913191232B09F01BC38E179F07C1F7F7
:101D5000BCCF0E94281C80916602882309F409C127
:101D60008091B10284FF05C10E94E016882359F0DA
:101D70008FB7F8944091B0015091B1016091B201D8
:101D80007091B3018FBFAFEFB0E0EFE0F1E000E0A2
:101D900010E0702F219131918D919D918227932791
:101DA000009779F160E0AA24A394B12CAC014A21F8
:101DB0005B21452B09F169837A832A213B2181E04C
:101DC000232B09F480E08B830E94751E8160782F9D
:101DD0009D838C8349815A816B818D810E9472051C
:101DE000000F111FF801E150FF4F80819181A8265B
:101DF000B926B182A0821AC06F5FAA0CBB1C6F30DB
:101E0000A9F60F5F1F4F0830110519F68FEF8E836B
:101E10008F8318860E94751E8160782F9A87898724
:101E20004E815F8168858A850E94720580916B0171
:101E3000882309F492C080916A01E091A001E6959F
:101E4000E81BE0937302823059F4F0E0E459FE4F4E
:101E5000E4910E2F10E08CEBA82E87E1B82E58C02D
:101E6000863059F4F0E0E759FE4FE4910E2F10E070
:101E7000BCEAAB2EB7E1BB2E4BC0893061F4E695CE
:101E8000F0E0EA59FE4FE4910E2F10E0A3E9AA2EEC
:101E9000AAE1BA2E3DC08F3061F4E695F0E0ED592D
:101EA000FE4FE4910E2F10E0FFE2AF2EFAE1BF2EBD
:101EB0002FC0853159F4F0E0E05AFE4FE4910E2F27
:101EC00010E0E1EEAE2EE9E1BE2E22C0883199F09D
:101ED000833241F4F601059114917EECA72E7AE14C
:101EE000B72E16C0843271F000ED17E06BEAA62E13
:101EF00067E1B62E0DC008E210E058E5A52E59E1C5
:101F0000B52E06C004EF11E04EE1A42E49E1B42E37
:101F100080917402882361F0109274020E94751EF1
:101F20009093720280937102109276021092750261
:101F30000E94751EE0917102F09172028E1B9F0B40
:101F40008F3F9F4750F40E0F1F1F10937202009394
:101F5000710281E792E0F50109950E94D21E9091ED
:101F6000FE00891731F00E94D21E8093FE000E946D
:101F70001A060E94CC1D0E94281C809166028823AC
:101F800009F4A3CE8091E40284FF9FCE80915C028D
:101F9000803209F09ACEE0913C028E2F90E0FC0155
:101FA0003197E331F10508F0C2C1EA5CFF4F0C94B0
:101FB000682510923D0218C180913D02823009F4DB
:101FC000F9C1833099F0813009F0B1C12FB7F8948D
:101FD0008091B0019091B101A091B201B091B30193
:101FE0002FBFB0933E02A0933F022AC0ECE3F2E081
:101FF000AFE0B1E08C9111969C911197129692836B
:1020000083833296EE16FF06A9F794C180913D02B4
:10201000823009F08CC160913E0270913F02809144
:102020004002909141020E946E2586E290E02DC010
:1020300040913F0260913E0280913D020E94D01784
:1020400090934002C1C1A0904002B0904102BA24D6
:10205000AB24BA2480913F0200913E0290913D0250
:10206000FEE10F9F8001112420EF929F000D111DB2
:102070001124080F111D080F111D6B2DC801879623
:102080000E94C0246A2DC80188960E94C02452C1B3
:102090000E946E1F4FC180913D02893061F4809192
:1020A0003E0233E0839FC0011124B3010E949824B3
:1020B000862F0E94A01880913D028138C9F058F403
:1020C000803809F037C120E040913E026091A201C2
:1020D0008091A10136C0823879F1833809F02AC194
:1020E00020E04091A30160913F0280913E0229C00F
:1020F00060E080913E020E948F2190913E0280918B
:10210000A001911111C08E7F8093A00110926B01EC
:102110004FEB84ED91E0415080409040E1F700C0EA
:1021200000000E94FC1806C181608093A00160E05D
:1021300086950E948F21FEC080913E028093A4016B
:10214000F9C00E940E1BF6C080913D02893029F033
:102150008A3091F410923E02EDC08091A5018695DF
:1021600086958695EFEF8E9FC0011124B2010E94E3
:10217000982460933E02DEC08138A9F030F48038A4
:1021800009F0D8C08091A30113C08238B1F0833820
:1021900009F0D0C08091A10180933E028091A201FC
:1021A00080933F02C7C08091A00180FF04C0869544
:1021B00080933E02BFC080E0FBCF8091A401F8CFA6
:1021C0008091A5010E949B186091A0017091A101CE
:1021D0008091A2019091A3010E94F71FABC080E102
:1021E00058C081E080933D0289E0E2CF00913D023A
:1021F00010913E0210270127102780903F02912C5A
:102200003CE3A32E32E0B32EC80189509D4F9501C7
:102210002C5332402815390508F08CC00930F1E004
:102220001F0728F40E94AC24F501848302C0F50145
:1022300014820F5F1F4FFFEFAF1ABF0AE5CF009167
:102240003D0210913E0210270127102780903F0287
:10225000912C2CE3A22E22E0B22EC80189509D4F72
:1022600095012C5332402815390508F063C0093018
:1022700021E0120720F4F50164810E94C0240F5F61
:102280001F4FFFEFAF1ABF0AE8CF0E94511F52C085
:1022900083E080933D024EC000913D0210913E02CA
:1022A00010270127102780903F02912C9CE3A92E34
:1022B00092E0B92EC801879695012C53324028151B
:1022C0003905C0F5003D22E0120728F40E94AC2435
:1022D000F501848302C0F50114820F5F1F4FFFEFE9
:1022E000AF1ABF0AE7CF00913D0210913E021027BE
:1022F0000127102780903F02912C8CE3A82E82E0CA
:10230000B82EC801879695012C53324028153905FF
:1023100088F4003D22E0120720F4F50164810E9458
:10232000C0240F5F1F4FFFEFAF1ABF0AEACF8FEF36
:1023300080933C020CE312E08091BD0284FD03C057
:102340000E94281CF9CF4DEB52E068E0C8010E94C2
:102350007F1D085F1F4F22E00C35120769F780913F
:10236000BD0284FD03C00E94281CF9CF4DEB52E052
:1023700060E080E090E00E947F1D10925C02A5CC9E
:10238000F89421B3939A822F8C6081BB92B38CE036
:10239000982792BB3FE54AEE90E031504040904094
:1023A000E1F700C0000092B3892782BB21BB93985C
:1023B00078948BCC86E290E00E94AC2410923E028E
:1023C00010923F021092400280934102B3CF80E00E
:1023D00008959091EB0092FF0DC0282F28712830AE
:1023E00019F4877F846006C0282F2471243011F4EB
:1023F0008B7F886093FF0DC0282F2871283119F436
:10240000877E846106C0282F2471243111F48B7ECD
:1024100088612091EC0020FF0DC0382F38713830D2
:1024200019F4877F816006C0382F3171313011F483
:102430008E7F886021FF0DC0282F2871283119F464
:10244000877E816106C0282F2171213111F48E7E93
:10245000886194FD877E0895F894E82FE295EF70E7
:10246000F0E031A9282F2F7081E090E001C0880FA3
:102470002A95EAF7982F9095932391AB92A9892BEF
:1024800082AB78940895CF93DF938238910569F1F8
:10249000B0F48133910509F46FC048F48932910595
:1024A00009F465C08A32910509F46BC08AC085338E
:1024B000910509F457C089339105B9F082C0833E74
:1024C000910571F138F4803E9105B1F0823E91059D
:1024D00011F177C0863E9105B9F1873E9105C9F1AA
:1024E000843E910509F06DC024C02091EB0020FDD1
:1024F00053C021FD51C065C08091EB0080FD46C0F6
:102500008091EC0080FF48C08091EB0084FD3FC1CA
:1025100083EE90E03EC18091EB0082FF3AC0F4CFA1
:102520008091EB0082FD35C08091EC0080FD34C0CD
:10253000EBCF8091EC0081FF35C08091EB0084FDF2
:1025400026C187EE90E025C18091EB0083FF27C074
:10255000F4CF8091EB0083FD22C08091EC0081FDDF
:1025600021C0EBCF8091EB0085FD1FC021C0809181
:10257000EB0085FD1DC019C08091EB0086FD1BC0DE
:102580001DC08091EB0086FD19C015C089E390E065
:1025900000C182EE90E0FDC080EE90E0FAC086EED1
:1025A00090E0F7C084EE90E0F4C089E290E0F1C0E2
:1025B00085E390E0EEC08AE290E0EBC081E390E03A
:1025C000E8C0811532E5930708F069C0811541E53F
:1025D000940728F0982F8827816F906ADAC0883E88
:1025E000910568F5803E910508F0D3C0883A9105C1
:1025F000B8F4853A910548F0855AE82FF0E0EF5697
:10260000FF4F808190E09064C4C08130910509F44F
:10261000BBC008F4BCC08430910508F4B8C0B9C090
:102620008F3B910508F0B3C0885AE82FF0E0EE0F19
:10263000FF1FEC56FF4F808191819464AAC08115E1
:1026400020E59207F0F09C0174E0369527957A9585
:10265000E1F7922F9370482F437021E030E002C0E1
:10266000220F331F4A95E2F73C68392B8F70982F61
:102670009695969540E2949FC0011124822B932B4E
:1026800088C0811530E4930718F09F70906A81C06C
:102690009C013A9521153F4108F47BC078C0EC01BC
:1026A000C11586E5D807E8F5C11525E5D20748F03C
:1026B0008C2F0E94E9118F7190E0982F88279062EB
:1026C00068C0C11534E5D30728F09C2F8827846F94
:1026D000906A5FC0AE01437055272C2F2695269532
:1026E000C115D34578F481E090E002C0880F991FAE
:1026F0004A95E2F740E2249F90011124822B932B0C
:102700009C6847C081E090E002C0880F991F4A95FD
:10271000E2F740E2249F90011124822B932B9A68C8
:1027200038C0C1152AE5D207F8F4C11539E5D30739
:1027300090F08C2F8F700E94E91194E0D695C79588
:102740009A95E1F7CF70D0E0DC2FCC27D0699E01BD
:10275000282BC9011EC0C11548E5D407C0F09C2F25
:102760008827806F906A15C0CE01905681159042DF
:1027700070F48D2F8F710E94E911282F2F71CE01D7
:1027800099279062922B05C081E090E002C080E022
:1027900090E0DF91CF910895CF9384E090E00E9484
:1027A000AC24C82F82E290E00E94AC242C2F30E0B1
:1027B000A901582BCA01CF91089580E090E00E94B2
:1027C000BA24893E9E4F11F40C94231880E008959A
:1027D00069EE7EEF80E090E00E94DD2460E082E020
:1027E00090E00E94C02460E083E090E00E94C0245A
:1027F0001092660160E084E090E00E94C02460E0F6
:1028000082E290E00E94C02460E085E090E00E94B7
:10281000C02460E086E090E00E94C0246FEF87E073
:1028200090E00E94C02440E050E0BA0188E090E0CF
:102830000E94D12460E08DE090E00E94C02440E03E
:1028400050E0BA0188E190E00E94D12460E087E185
:1028500090E00E94C02440E050E0BA018CE190E09A
:102860000E94D12460E070E080E290E00E94DD24CC
:1028700040E050E0BA0188E190E00E94D12480E07D
:102880000E94F6170E94141840E050E0BA018FE051
:1028900090E00E94D12440E050E0BA0183E190E052
:1028A0000C94D124809165018111109265010895E5
:1028B0009091640180916301892B20916201982F8E
:1028C000922B9093210180916501882389F0892BB7
:1028D00080932101E3E2F1E097E080E0915029F05C
:1028E00021912223D9F38F5FF9CF81110E945214D5
:1028F000E091AB01F091AC01309731F00280F381AF
:10290000E02D81E291E009940895CF93C091EC000D
:10291000C2FB992790F9981781F080FBC2F9C09308
:10292000EC006091EB0084E090E00E94C0246C2FEA
:1029300082E290E0CF910C94C024CF910895209131
:1029400061018095822380936101982F977041F4F3
:1029500030E0482F082E000C550B2417350721F4C2
:102960009091EC0092FF07C08595859585950E9412
:102970007C221092610108958091600190912F0155
:10298000891719F08F5F8770FBCF08950F931F93FE
:10299000CF93DF9380912E0182958F7009F05DC0F7
:1029A00080912B01882309F458C080916001109117
:1029B0002F016091290170912A01C0912C01D091C1
:1029C0002D0191E06F3F09F090E0292F06E081177B
:1029D00009F443C0209721F07F3F21F030E003C08D
:1029E00031E001C0322F90E030FD34C0089FF0018B
:1029F000099FF00D1124DF01A05DBE4F11963C919F
:102A00001197371327C03C91361324C012963C917E
:102A1000129731111FC013964D915C9114974C1B66
:102A20005D0B483C5105B0F480912E018F708061A0
:102A300080932E01EB5CFE4F80818F7080618083DC
:102A400089E291E00E943006DF91CF911F910F91B2
:102A50000C94BC1401968770BACFDF91CF911F916F
:102A60000F910895CF93DF93EC010E94F221BE01F4
:102A70000E94611F0E944312DF91CF9108959F929F
:102A8000AF92BF92CF92DF92EF92FF920F931F937C
:102A9000CF93DF93CDB7DEB761970FB6F894DEBF63
:102AA0000FBECDBF8C0185E0F801DE011D960190BF
:102AB0000D928A95E1F7F801E280909129016091E9
:102AC0002A0140912C0150912D014115510531F001
:102AD0006F3F31F481E09F3F19F403C081E001C0F2
:102AE00080E0F82FF1709F2E80FD1AC1F80130812F
:102AF0002181C380D48089E2A82E81E0B82EF09095
:102B00002B01F601E41BF50BFF2009F4C6C08091F0
:102B10002E01E83CF10508F091C0482F407F09F0F4
:102B200050C0621311C093130FC0FE2CE1100CC0F3
:102B30008F70806180932E01C5010E9430068091C4
:102B40002E01F801858329C1CD2831F02F3F31F4C2
:102B500081E03F3F19F403C081E001C080E080FDC7
:102B600003C081E08E2502C080E090E0F82FF17074
:102B7000FF2E80FF1CC08091600140912F0156E024
:102B8000841709F4E8C090E0589FF001599FF00DB8
:102B90001124E05DFE4F6181261306C0608163133E
:102BA00003C06281E61203C001968770E9CFFE2C54
:102BB000EE2009F4F2C080912E01816080932E01F5
:102BC00049C0621306C0931304C0E11002C0F801AB
:102BD00086C0C8010E949722882351F1EE2041F15E
:102BE00020912E01822F82958F7090E0029774F0D1
:102BF0008091290190912A0198878F831986DB861D
:102C0000CA862C87CE0107960E94300686E0F8011E
:102C1000A9E2B1E001900D928A95E1F70E94C614F5
:102C20000AC06217C9F0C8010E94972281111EC014
:102C3000C8010E943006FF24F394AFC0482F407FA4
:102C400081F789E291E00E94300686E0F501119259
:102C50008A95E9F7F12CA1C09313E5CFE110E3CFFA
:102C6000F8018583C8010E94300654C0EE2001F3AC
:102C700020912E01822F82958F7090E0029734F27E
:102C80008091290190912A019A8389831B82DD8298
:102C9000CC822E83CE010196B7CFE83CF105D0F56A
:102CA000FE2CEE2029F2621327C0931325C0209139
:102CB0002E0120FD18C0822F82958F70482F50E082
:102CC0004115510581F0F80125834F30510541F040
:102CD0008F5F982F9295907F822F8F70892B85839D
:102CE000C8010E94300686E0F801A9E2B1E0019037
:102CF0000D928A95E1F751C0C8010E949722811177
:102D000085CF80912E01816080932E01C8010E94A1
:102D1000300643C086E0F50111928A95E9F73DC07F
:102D2000EE2009F485CFC8010E949722F82E88234F
:102D300009F47ECF86E0F801A9E2B1E001900D929E
:102D40008A95E1F78091290190912A010E9432151C
:102D50000E94C61422C03D872E878D859E850E94C5
:102D60003215292F22952F70223028F49F7039F0C8
:102D7000811105C00BC0243028F49F7049F4805E97
:102D8000883020F0C8010E9430069F2CF92C05C025
:102D9000F8019581907F99F7F9CF8F2D61960FB645
:102DA000F894DEBF0FBECDBFDF91CF911F910F9181
:102DB000FF90EF90DF90CF90BF90AF909F900895DD
:102DC0008F929F92AF92BF92CF92DF92EF92FF923B
:102DD0000F931F93CF93DF93CDB7DEB760970FB6F6
:102DE000F894DEBF0FBECDBFAE014F5F5F4F7A01DB
:102DF00080E1DA011D928A95E9F70AE710E06A019D
:102E0000AA24A394B12CF80180818F3F09F44DC00E
:102E1000F894E82FE295EF70F0E021A98F70A501FA
:102E200002C0440F551F8A95E2F7CA01922F982BD2
:102E300091AB92A98095892382AB789400C0E2E897
:102E4000F0E020E030E0812C912C81918F3FC1F0A7
:102E5000A82FA295AF70B0E0D0964C9150E08F7043
:102E6000DA0102C0B595A7958A95E2F7A0FD08C0E2
:102E7000C501022E02C0880F991F0A94E2F702C012
:102E800080E090E0882A992A2F5F3F4F2F3031054C
:102E9000E1F6F80180818F3F11F00E942C12F8E7D3
:102EA000FA95F1F7D6018D929C920F5F1F4FB2E019
:102EB000CB0ED11CE0E002381E0709F0A4CF40E1A0
:102EC00050E0B7018DEE90E00E94912511E000974F
:102ED00009F410E0892B89F080E1F701ADEEB0E054
:102EE00001900D928A95E1F781E0809369010E943B
:102EF000751E909368018093670180916901882312
:102F0000B1F080916701909168010E94661E05975B
:102F100070F0EDEEF0E0AFE0B1E0819191918D9332
:102F20009D9340E0ED3FF407C1F710926901812FB6
:102F300060960FB6F894DEBF0FBECDBFDF91CF9184
:102F40001F910F91FF90EF90DF90CF90BF90AF90C7
:102F50009F908F9008950895CF93DF93EC01E0EA5E
:102F6000F1E0438162818C810E94D0208C818F5F4F
:102F70008C83DF91CF910895CF93DF93EC01EC81A7
:102F8000F0E0EB58FE4F4491E0EAF1E0628181818C
:102F90000E94D0208C818F5F8C83DF91CF91089528
:102FA0000F931F93CF93DF93C42FD0E0CC0FDD1F7F
:102FB0002EE1629FC00DD11D112430EF839FC00D03
:102FC000D11D1124CE0187960E94AC24082F10E059
:102FD000102F0027CE0188960E94AC249801282B40
:102FE000C901DF91CF911F910F910895CF93C82F01
:102FF000811102C06FEF01C061E283E290E00E94A4
:10300000C024C11102C06FEF01C061E184E290E011
:103010000E94C024C11102C06FEF01C066E285E2C8
:1030200090E0CF910C94C02480E00E94F61760E0FD
:1030300086E290E00E94C0240E946E1F0E94511FF1
:1030400081E00C94F61783E290E00E94AC24813278
:1030500081F484E290E00E94AC24813151F485E255
:1030600090E00E94AC2491E0863209F090E0892F34
:1030700001C080E081700895CF92DF92EF92FF92BD
:10308000843038F4811106C09FB59F7D9FBD949810
:1030900004C083E09FB590629FBD282F30E0AFEF62
:1030A000BFEF0E94352523E030E040E050E00E9471
:1030B0001325B42FA32F922F8827492F5A2F6B2F18
:1030C0007727CA014C3724E1520728F469E070E001
:1030D0000E94982429C0DB01CA018A50974DAF4F46
:1030E000BF4F6627782F892F9A2F25EF38E241E0CE
:1030F00050E00E94132569017A01CA01B9010E94BA
:1031000044259B01AC01C701B6010E944425BB27A1
:10311000A92F982F872F009721E0A207B10511F062
:10312000BC0102C06FEF7FEF79BD68BDFF90EF90EB
:10313000DF90CF900895682F86E090E00C94C02433
:10314000843008F083E09091A5019770282F220F1A
:10315000220F220F922B9093A501987F21E009F472
:1031600020E09091A50120FB90F99093A5010C948B
:103170003C180E94DD1381110AC00E94E81380915F
:10318000A501847089618093A5010E949B1886E047
:1031900090E00E94AC248093A501282F26952695C7
:1031A000269530E02430310524F0877088618093C3
:1031B000A5018091A50180FF04C08695869586951E
:1031C00001C080E00C943C189091A00190FF04C0D5
:1031D0009695981740F003C0811105C090E09617AE
:1031E00010F40C94DA2161E00C948F21882311F003
:1031F000FA0101C0FB0109948091A00180FF0AC07F
:1032000080916C01811111C00E94BF2381E08093E5
:103210006C010BC0E0E7F1E011821082128233965C
:1032200081E0E03AF807C1F7EBCF24E630E040E375
:1032300050E060E771E080EB0C947224EF92FF9213
:103240000F931F93CF93DF938C01C0E7D1E0E12C64
:10325000F12CF8018481F8E0EF16F1041CF48823C6
:1032600039F002C0811104C09E014091A30102C047
:103270009E0140E06091A2018091A1010E943A204C
:103280008FEFE81AF80A239690E1E916F10409F79E
:103290000E94FC18F801848190E0019681709927C2
:1032A0008483DF91CF911F910F91FF90EF9008954C
:1032B0008F929F92AF92BF92CF92DF92EF92FF9246
:1032C0000F931F93CF93DF93EC014C81042F10E0F9
:1032D0009801D8010E9435259B01AC010E94002570
:1032E0006B017C01E0E2F0E0E01BF10BA5E5B0E052
:1032F0009B01AC010E9400254B015C019F01DF0195
:103300000E9475259B01AC010E940B259B01AC011D
:103310002C0D3D1D4E1D5F1DC501B4010E941325DE
:10332000822FF22E99E2921728F093E0299F9001C4
:1033300011240DC025E530E0281B3109C901880F93
:10334000991F280F391F37FF02C02F5F3F4F359558
:103350002795122F109590E7C92E91E0D92E00E005
:1033600085E5E82EEF1801FD02C08E2D01C08F2DDE
:103370009601412F6091A2010E943A200F5F83E0E5
:10338000C80ED11C003179F70E94FC188C81811184
:1033900002C091E003C0803219F49FEF90936C005B
:1033A00090916C00890F8C83DF91CF911F910F91C9
:1033B000FF90EF90DF90CF90BF90AF909F908F9055
:1033C00008950F931F93CF93DF93C0E7D1E0FE01E1
:1033D000118210821282339681E0E03AF807C1F739
:1033E00000E010E080916E01082E000C990B081788
:1033F000190794F080916B00082E000C990B801730
:10340000910754F09E014091A3016091A201809127
:10341000A1010E943A2003C0198218821A820F5F0C
:103420001F4F239600311105E9F60E94FC18809188
:103430006A0090916E01980F90936E0120916B003D
:10344000280F20936B00121614F49F301CF0819506
:1034500080936A00DF91CF911F910F910895CF92D1
:10346000DF92EF92FF920F931F93CF93DF93FC01B4
:10347000828180FF03C0DD24DA9402C0DD24D3946E
:10348000C0E7D1E000E010E0198218821A8294E0CF
:10349000E92EF12CC12C80916D018C0D813114F03D
:1034A0008F7002C087FD805F082E000C990B0817F3
:1034B000190791F48091A3018E9DA0018F9D500D5D
:1034C000112455954795559547959E016091A20108
:1034D0008091A1010E943A20CD0CF1E0EF1AF10891
:1034E000D1F60F5F1F4F23960031110569F60E9438
:1034F000FC1880916D0191E0D91206C0811102C0C3
:103500008FE006C0815004C090E001968F7099272B
:1035100080936D01DF91CF911F910F91FF90EF90FC
:10352000DF90CF900895EF92FF921F93CF93DF9398
:10353000EC0180E7E82E81E0F82E10E08C81970105
:103540004091A3016091A201810F0E943A20115F76
:1035500083E0E80EF11C103F89F70E94FC189A8165
:103560008C8190FF02C08F5F01C081508C83DF91FE
:10357000CF911F91FF90EF9008959091A00190FF3F
:103580000CC0E0E7F1E0818360834283339691E0F1
:10359000E03AF907C1F70C94FC1808950F931F93B4
:1035A000CF93DF9300D01F92CDB7DEB78C0180910F
:1035B0006F0181110AC09E012F5F3F4F4FEF6FEFE8
:1035C0000E943A208A8180936F01F80184818130C2
:1035D00051F028F0823061F440916F010AC080916F
:1035E0006F0140E007C060916F0140E080E003C0E0
:1035F00040E080E060E00E94BD1AF801848190E024
:10360000019663E070E00E94542584830F900F9030
:103610000F90DF91CF911F910F9108957F928F921C
:103620009F92AF92BF92CF92DF92EF92FF920F9351
:103630001F93CF93DF9300D01F92CDB7DEB7182F23
:10364000D62E042FC22E9091A00190FF6DC0E92FBD
:10365000E695AE2FB0E0AE53BF4F8C9180936A01D8
:103660009E7F923061F49E012F5F3F4F812F0E9419
:103670003A204B8169818A810E94BD1A43C0823001
:1036800019F40091A3013EC0863019F41091A101F4
:1036900039C08930D9F38931A9F5E9512E2F21702C
:1036A000722EE695F0E0E059FE4F8590949030E759
:1036B000A32E31E0B32EE12CF12C99248E9CC00175
:1036C0008F9C900D9E9C900D112424E096958795DB
:1036D0002A95E1F7711002C0810F03C0212F281B2A
:1036E000822F9501402F6D2D0E943A208FEFE81A0E
:1036F000F80A23E0A20EB11C80E1E816F104F1F60D
:103700000E94FC181093A101D092A2010093A30182
:10371000CC2051F06091A0017091A1018091A20193
:103720009091A3010E94F71F0F900F900F90DF91CF
:10373000CF911F910F91FF90EF90DF90CF90BF90AE
:10374000AF909F908F907F900895FC01938193306C
:10375000D9F068F4913081F0923009F068C085E0CA
:1037600096E090936D0280936C028BE50895913200
:1037700051F19232E1F15BC080E696E090936D02E8
:1037800080936C0282E1089582818130A1F058F02B
:10379000823009F04CC089ED95E090936D028093E2
:1037A0006C028EE0089581E096E090936D02809324
:1037B0006C0284E0089589EE95E090936D02809309
:1037C0006C0286E108958281813049F028F08230D0
:1037D00071F580E596E005C087E196E002C080E3E0
:1037E00096E090936D0280936C0289E00895848145
:1037F00095818130910599F050F00297C1F485E4EC
:1038000095E090936D0280936C0282E3089589E9BC
:1038100095E090936D0280936C0280E4089587E7B1
:1038200095E090936D0280936C0282E2089580E0AF
:103830000895089580916702089580916E02982FEF
:103840009670963011F4886001C0877F0C947822BE
:10385000CF93DF938091CC02835087FDE4C0909199
:10386000CB02CCE0D0E0C91BD109C253DD4F90910F
:10387000CA029031D0F4883019F010925C02D1C0A5
:1038800080915C02E82FF0E0E931F105B4F7E45CE7
:10389000FD4F9E01285F3F4F999191932C173D0753
:1038A000D9F7885F80935C02BCC09D3209F0A0C04C
:1038B000883009F0B6C083EC8093A6028AE5809335
:1038C0006E0010926B0288818076D9F1803209F007
:1038D00084C08981813069F48C819D81892B09F0B4
:1038E0007CC08EE592E090936D0280936C0288E03C
:1038F00075C0823041F48DE592E090936D02809323
:103900006C0281E06BC08A3021F48B8180935D0270
:1039100064C0893009F061C08A819B818115924021
:1039200009F0DCC08C819D81892B09F0D7C081E032
:1039300080936A028E819F819093690280936802CE
:10394000CDC09A811092AF028981811106C0109278
:10395000B0022FEA32E082E03BC0853019F4909348
:10396000CD0233C08630B9F48B81813041F0823092
:1039700031F0833021F0813211F0823221F4CE0116
:103980000E94A51B01C080E090E490936B028F3FE2
:1039900009F4A4C023C0883089F0893019F49093C9
:1039A000660213C08A3069F08B3079F48BE480931F
:1039B000B2028093E5028093BE0207C026E632E0A1
:1039C00002C02FEA32E081E003C02FEA32E080E05B
:1039D00030936D0220936C0201C080E09F819111B1
:1039E00004C09E81981708F4892F80936D0019C038
:1039F00080916B0287FF15C08091680290916902E7
:103A0000892B09F475C080916A02813009F070C079
:103A10008881809367021092690210926802109266
:103A20006D001092CC0280916E0084FF4CC080919A
:103A30006D008F3F09F447C0C82F893008F0C8E0F7
:103A40008C1B80936D009091A60288E88927809353
:103A5000A602CC2359F180916C0290916D022091C5
:103A60006B0226FF12C0A6EAB2E02C2FAC01465A28
:103A70005240FA01EA0FFB1FE4911196EC93119763
:103A8000215011962111F5CF08C0E7EAF2E0DC01E0
:103A90002C2F3D9131932150E1F701962FEF2C0F00
:103AA000820F911D90936D0280936C026C2F87EAB8
:103AB00092E00E941404CC5FCC3019F08FEF809319
:103AC0006D00C0936E0084E190B39C70A9F48150A6
:103AD000D9F71092CD021092C9020EC0888187FFDB
:103AE00005C08E8190E890936B027FCF8FEFFACF65
:103AF0008EE180936E0095CFDF91CF9108951F9353
:103B0000CF93DF93162FEA01288124FF05C0398166
:103B100028E82327298302C02AE52883212FFC01D6
:103B2000CE010296DC0131913D9321501216DCF357
:103B3000612F0E9414041C5F1883DF91CF911F91A5
:103B4000089590913B02981307C02091390230915B
:103B50003A0226173707B9F080933B0270933A0276
:103B60006093390280933602709338026093370273
:103B70008091E40284FF07C044EE52E063E086E3F4
:103B800092E00C947F1D0895BC0184E00C94A11D6B
:103B9000BC0183E00C94A11DCF93DF93CAE0D0E079
:103BA0008091B10284FF1AC0809134029091350255
:103BB0009817F1F028E0829FC001112441EB52E0F8
:103BC00068E08C549E4F0E947F1D8091340290E0EB
:103BD00001968F709927809334020AC00E94281C96
:103BE00087EB9BE00197F1F700C000002197C1F639
:103BF000DF91CF910895CF93DF93EC01A09135022F
:103C0000B0E0CD0101968F709927209134022817DA
:103C100079F093E0AA0FBB1F9A95E1F7AC54BE4F21
:103C200098E0FE0101900D929A95E1F7809335029C
:103C30000E94281C0E94CC1D88E0FE01AEE5B2E087
:103C400001900D928A95E1F7DF91CF91089560E0A0
:103C500081E090E00E94E32487E090EBDC01809318
:103C6000F0029093F102A093F202B093F3029CE071
:103C700088E10FB6F894A89581BD0FBE91BDFFCF26
:103C800078941F920F920FB60F9211248F939F93E7
:103C9000AF93BF938091B0019091B101A091B20117
:103CA000B091B3010196A11DB11D8093B001909315
:103CB000B101A093B201B093B301BF91AF919F91B5
:103CC0008F910F900FBE0F901F9018959C014FB7CA
:103CD000F8948091B0019091B101A091B201B0919E
:103CE000B3014FBF821B930B08952FB7F8948091B7
:103CF000B0019091B101A091B201B091B3012FBF79
:103D000008958091AF01882331F080E00E943C1833
:103D100080E00C941A0608959C01FC0132969FEFF6
:103D200080E04191461789F09F3F19F4411101C08D
:103D3000982F8F5F8630A9F79F3F39F0F901E90F7F
:103D4000F11D97FDFA956283089508952091AD01C4
:103D50003091AE012817390771F09093AE0180932E
:103D6000AD01E091AB01F091AC01309721F00084FE
:103D7000F185E02D099408952091A9013091AA01BF
:103D80002817390771F09093AA018093A901E09157
:103D9000AB01F091AC01309721F00680F781E02D66
:103DA00009940895E091AB01F091AC01309721F0B6
:103DB0000190F081E02D099480E008950F931F9306
:103DC000CF93DF93C42FD22FFC0182818823C9F0C7
:103DD0004093A8010E94751E9093A7018093A601AD
:103DE00080E28C0F883008F057C0C77081E001C0B6
:103DF000880FCA95EAF7DF91CF911F910F910C942C
:103E0000D9228091A801481330C08091A6019091D9
:103E1000A7010E94661E883C910538F510E21D0F2F
:103E2000CD17B9F080E28C0F883040F4C77081E084
:103E300001C0880FCA95EAF70E94CE22183028F5F3
:103E400081E09D2F977001C0880F9A95EAF70E9434
:103E5000D922802F0E94A1231830F0F4D77081E07E
:103E600001C0880FDA95EAF70AC080E28C0F88302B
:103E700098F4C77081E001C0880FCA95EAF7DF9116
:103E8000CF911F910F910C94CE22802FDF91CF9173
:103E90001F910F910C94A123DF91CF911F910F914E
:103EA0000895CF93DF93C7EFD2E060E0CE010E9488
:103EB000C0242196C11584E0D807B9F7DF91CF91CE
:103EC0000895462F833038F4783028F46F3018F492
:103ED000672F0C94D01780E090E00895CF92DF9286
:103EE000EF92FF920F931F93CF93DF93C0E0D0E048
:103EF0008E0100511F4F6E018EE1C80ED11CFE01D4
:103F0000EB58FD4FE590F4906F2DCE0187960E94FF
:103F1000C0246E2DCE0188960E94C0242296CC1516
:103F2000DD0569F70C171D0731F7E801003D124068
:103F3000F9F6DF91CF911F910F91FF90EF90DF90F5
:103F4000CF900895E0EAF1E0438121E1421B08F4BB
:103F500040E021E0628181810C940E1BE0EAF1E0F7
:103F6000438121E1420F08F44FEF21E0628181811A
:103F70000C940E1BE0EAF1E0628121E1621B08F47F
:103F800060E021E0438181810C940E1BE0EAF1E0C6
:103F9000628121E1620F08F46FEF21E043818181AA
:103FA0000C940E1BE0EAF1E0818121E04381628103
:103FB00088500C940E1BE0EAF1E0818121E04381FE
:103FC0006281885F0C940E1B8091A001282F26959A
:103FD00030E02115310519F48170826005C0253269
:103FE000310524F0817088648093A0010895CF92F8
:103FF000DF92EF92FF926B017C010E94E41FB701F8
:10400000A60188E090E0FF90EF90DF90CF900C94B5
:10401000D1248091A401882319F081508093A401B8
:104020006091A0017091A1018091A2019091A301E2
:104030000C94F71F8091A401833018F48F5F809354
:10404000A4016091A0017091A1018091A2019091C1
:10405000A3010C94F71FE0EAF1E083E08083118272
:104060008FEF828383831482608171818281938147
:104070000C94F71FAF92BF92CF92DF92EF92FF9214
:104080000F931F93CF93DF93E82EF62EE901E42FD1
:10409000F0E0611106C0EE58F94FE4914E2F2E2F3B
:1040A00071C0062F10E0EE58F94F4491F42FC42E42
:1040B000D12C26E0829FC00111242FEF30E0B901FE
:1040C0000E9498245BEA5603C001579F900D11246B
:1040D0008E0D911D8E0D911D582F550F580FD90122
:1040E000A01BB10BAC9DC001AD9D900DBC9D900D72
:1040F0001124E92FF59ED0011124AB2FBB277901A4
:10410000EA1AFB0AEC9CD001ED9CB00DFC9CB00DB2
:1041100011245901A51AB108A09E7001A19EF00CAE
:10412000B09EF00C1124EF2CFF242E193F092C9D7A
:1041300080012D9D100D3C9D100D1124212F62300A
:10414000710591F048F461157105E1F06130710578
:10415000B9F4242F4B2F16C06430710569F040F07C
:104160006630710579F00CC0242F492FE12F0AC069
:10417000492FEF2F2B2F06C0292FE42F412F02C0EC
:10418000292FEB2F49832883EA83DF91CF911F9159
:104190000F91FF90EF90DF90CF90BF90AF90089578
:1041A000CF93DF9300D01F92CDB7DEB79091A001DF
:1041B00090FF0AC09E012F5F3F4F0E943A204B8123
:1041C00069818A810E94BD1A0F900F900F90DF9134
:1041D000CF9108958B3109F474C058F58B3009F4F0
:1041E0009AC078F4863009F446C020F4853009F48A
:1041F0004CC093C0873009F456C0883009F48BC096
:104200008CC0803109F470C068F48E3009F085C02C
:104210008091700282FB222720F991E0922790FB87
:1042200082F958C0863109F476C0893109F473C027
:1042300074C08A32E9F060F4873209F467C028F468
:104240008E3108F46AC08D515AC08932F1F065C0D0
:10425000833450F48A3308F051C0853309F456C0D2
:10426000883309F458C059C0833409F44FC055C08D
:104270000E94E81350C080917002817F8E7F8093EE
:10428000700281E080936F0208950E94C3222FEB99
:1042900087E299E0215080409040E1F700C00000A3
:1042A0000E94271E38C080917002982F90959170BF
:1042B00090FB80F98093700291112DC0897F877FD8
:1042C00010C08091700281FB222720F991E0922793
:1042D00090FB81F9809370029923E9F0809170023C
:1042E00081608093700217C08091700283FB222747
:1042F00020F991E0922790FB83F9ECCF895391E06C
:1043000001C0990F8A95EAF7892F01C081E00E94C8
:1043100093220E94C32281E0089580E00895909145
:10432000A00190FF3DC09170811102C0926006C053
:10433000853210F0986402C0880F982B9093A001EA
:10434000662351F06091A0017091A1018091A201BA
:104350009091A3010E94F71F6091A001669570E003
:104360004BE050E08FE690E00E948425892B19F005
:1043700010926B0109C081E080936B010E94751E51
:10438000909372028093710281E08093740220E026
:104390004091A3016091A2018091A1010C940E1B98
:1043A00008958091A0018695815009F484E261E02E
:1043B0000C948F218091A00186958F5F853208F043
:1043C00081E061E00C948F2180E090E00E94BC1EAF
:1043D00080E090E00E94A61E10926301109262019C
:1043E0000C945814CF92DF92FF920F931F93CF93A8
:1043F000DF936C0100916E0280916601082BC7E08B
:10440000D0E010E0C8010C2E02C0959587950A9463
:10441000E2F780FD04C02197A8F7F12C09C0FC2E1B
:10442000B6018C2F0E94611F0E944312019799F3DD
:104430008F2DDF91CF911F910F91FF90DF90CF9043
:1044400008952FE0929F800D1124682F6695669540
:104450006695982F977083E0689FB001112440E023
:1044600050E080E0FB01E40FF51FE958FD4F20818B
:1044700030E0092E02C0369527950A94E2F72170A4
:104480003327042E01C0220F0A94EAF7822B4F5FD4
:104490005F4F4330510531F708952FE0929F800D13
:1044A0001124E82FE695E695E695877051E001C066
:1044B000550F8A95EAF783E0E89FF0011124E95847
:1044C000FD4F20E030E070E04081CB01022E02C0C1
:1044D000969587950A94E2F78170819584278523C4
:1044E000842781932F5F3F4F2330310569F708956B
:1044F00080936E020C94E42121E030E001C0220F91
:104500008A95EAF7209580916E0282230C94782296
:1045100021E030E001C0220F8A95EAF780916E0217
:10452000822B0C947822809366010C94E421FC0188
:10453000808191810E943215292F2F70E92FE295F9
:10454000EF704E2F50E0FA013297EE30F105B8F4DB
:10455000E75BFF4F0C946825803F99F018F4883E84
:1045600070F40FC0843F59F40CC0883E50F0813F76
:1045700031F407C0822F869586958695089580E050
:10458000089581E008951092640186E0E3E2F1E08D
:10459000DF011D928A95E9F70C94E421882341F00C
:1045A0008095909164018923809364010C94581440
:1045B0000895882339F090916401892B80936401D8
:1045C0000C94581408958823A9F19CEF980F913A00
:1045D00060F4E1E2F1E09281891301C01282319628
:1045E00041E0E732F407B9F714C090E2980F983031
:1045F00090F4877021E030E0A90102C0440F551FFC
:104600008A95E2F7CA01809590916401892380938D
:1046100064010C9458149BE5980F933020F480E0CB
:1046200090E00C94BC1E885A873120F480E090E022
:104630000C94A61E0895CF93882309F480C09CEFA4
:10464000980F913A60F5C82F80916F02882319F076
:10465000813051F01EC080916401823209F051C056
:104660008C2F0E94EA2018C0809164018232C1F32D
:10467000C43149F018F4CB3049F041C0C93219F0C7
:10468000C83321F03CC010926F0239C081E08170C4
:1046900003C010926F0235C0811151C032C090E248
:1046A000980F983090F4877021E030E0A90102C0A3
:1046B000440F551F8A95E2F7CA0190916401892B36
:1046C00080936401CF910C945814EBE5E80FE3302C
:1046D00040F4F0E0EF56FF4F808190E0CF910C94D2
:1046E000BC1E885A873158F5E82FF0E0EE0FFF1F07
:1046F000EC56FF4F80819181CF910C94A61E80E0F3
:10470000C6CFE3E2F1E08191C81729F041E0E93238
:10471000F407C9F70EC0E1E2F1E087E291E02281FF
:10472000C21301C0128231968E179F07C1F70E94F3
:1047300058146C2F81E291E00E948C1EC3CFCF9160
:1047400008951F93CF93DF93182F893319F0C0E09A
:10475000D0E002C0C0E5D0E0812F0E941B2320974B
:1047600041F087EB9BE00197F1F700C00000219733
:10477000F6CF812FDF91CF911F910C94E32211B8D6
:1047800087E080B985B3836085BB86B7846086BFC8
:1047900086B7816086BF86B7806486BF08959F9282
:1047A000AF92BF92CF92DF92EF92FF920F931F933F
:1047B000CF93DF93B82EEB010E94751E6C01C431BC
:1047C000D10558F0CF3F8FEFD80759F0CE0164E103
:1047D00070E00E9498247B0107C0EE24E394F12C42
:1047E00003C025E0E22EF12C84E8A82E94EA992E4D
:1047F00016BE96BE0E94751E8C0106B607FC08C048
:104800000E94751E801B910B8E159F05B0F324C06E
:1048100081B1887F883039F081B1887F803119F08B
:104820000FEF1FEF1BC0B3B8A6BE0E94751E8C0110
:1048300006B607FC08C00E94751E801B910B8E15E2
:104840009F05B0F309C081B1887F883111F08034B1
:1048500039F700E010E00DC00EEF1FEFCF3F8FEFF4
:10486000D80731F2C6010E94661E8C179D0708F416
:10487000BFCFC801DF91CF911F910F91FF90EF90B3
:10488000DF90CF90BF90AF909F9008950F931F93AC
:10489000CF93DF93EB0183B984E886BF0E94751E36
:1048A0008C0106B607FC0EC0CF3F8FEFD807C9F3C7
:1048B0000E94751E801B910B8C179D0790F38EEF45
:1048C0009FEF0BC021B1287F81E090E0283211F4E6
:1048D00080E090E0919581959109DF91CF911F91B2
:1048E0000F910895CF92DF92EF92FF920F931F9353
:1048F000CF93DF936B018A017901B9010E94CF2325
:10490000E6010C0D1D1DC017D10759F424E926BF7F
:10491000DF91CF911F910F91FF90EF90DF90CF909B
:10492000089597FDF3CFB70189910E944624EBCFFC
:10493000AA1BBB1B51E107C0AA1FBB1FA617B707C5
:1049400010F0A61BB70B881F991F5A95A9F78095E1
:104950009095BC01CD010895E199FECF9FBB8EBB20
:10496000E09A99278DB30895A6E1B0E044E050E0C5
:104970000C94F224A8E1B0E042E050E00C94F22460
:10498000262FE199FECF9FBB8EBBE09A01970DB217
:10499000021631F02DBB0FB6F894E29AE19A0FBEE1
:1049A00008950396272F0E94C1240E94C024252F1A
:1049B0000E94C124242F0C94C1240196272F0E9409
:1049C000C1240C94C024262FE199FECF9FBB8EBB3F
:1049D0002DBB0FB6F894E29AE19A0FBE01960895A6
:1049E000DC01CB01FC01E199FECF06C0FFBBEEBBB1
:1049F000E09A31960DB20D9241505040B8F70895AB
:104A00000E943525A59F900DB49F900DA49F800D09
:104A1000911D11240895B7FF0C9400250E940025D4
:104A2000821B930B0895A1E21A2EAA1BBB1BFD014A
:104A30000DC0AA1FBB1FEE1FFF1FA217B307E4077D
:104A4000F50720F0A21BB30BE40BF50B661F771FD5
:104A5000881F991F1A9469F76095709580959095B5
:104A60009B01AC01BD01CF010895A29FB001B39F8E
:104A7000C001A39F700D811D1124911DB29F700D67
:104A8000811D1124911D0895DB018F939F930E9436
:104A90000025BF91AF91A29F800D911DA39F900D06
:104AA000B29F900D1124089597FB072E16F40094E1
:104AB00007D077FD09D00E94982407FC05D03EF46A
:104AC000909581959F4F0895709561957F4F0895BA
:104AD000EE0FFF1F0590F491E02D099469279627AA
:104AE000692778278727782708950E94352533235B
:104AF00012F48A1B9B0B0C947F250E943525B7FF6F
:104B00000895821B930B0895FC014150504030F0F2
:104B100001900616D1F73197CF010895882799277C
:104B20000895FB01DC0104C08D910190801921F4EE
:104B300041505040C8F7881B990B0895F894FFCF57
:104B40001A1CFB1D191CC81DC41D010201FF5A01BE
:104B5000191A1B1C1D1E1F202122606162636465DF
:104B600066679091929394959697373635343332A1
:104B700007818283E200E900EA00B500B600B700D1
:104B8000CD008301CC008A0192019401210223020D
:104B900024022502260227022A02B300B4006F0075
:104BA000700000010202020206060609090909094D
:104BB000090F0F0F0F0F0F151515181919191919BE
:084BC000191919191923240029
:00000001FF
